:020000040800F2
:10000000002800203D4A0008854A0008854A00086B
:10001000854A0008854A0008854A0008000000005B
:10002000000000000000000000000000854A0008F9
:10003000854A000800000000854A0008EF3F0008DC
:10004000854A0008854A0008854A0008854A000854
:10005000854A0008854A0008ED480008F348000872
:10006000F9480008FF48000805490008854A0008CB
:10007000854A0008854A0008854A0008854A000824
:10008000854A0008854A0008854A0008854A000814
:10009000854A0008854A0008854A00080B4900087F
:1000A000854A0008CD4E0008854A0008E14E000848
:1000B000E54E0008F94E000800000000E5120008B7
:1000C000F11200080000000000000000854A00084E
:1000D0000000000021480008394800080000000026
:1000E00021490008D1440008854A000800000000AA
:1000F0000000000000000000000000000000000000
:0C01000000000000000000005FF808F1A3
:10010C00034613F8012B002AFBD1181A013870474B
:10011C0081F0004102E000BF83F0004330B54FEAAC
:10012C0041044FEA430594EA050F08BF90EA020F19
:10013C001FBF54EA000C55EA020C7FEA645C7FEAAC
:10014C00655C00F0E2804FEA5454D4EB5555B8BFCF
:10015C006D420CDD2C4480EA020281EA030382EA40
:10016C00000083EA010180EA020281EA0303362DD2
:10017C0088BF30BD11F0004F4FEA01314FF4801CA5
:10018C004CEA113102D0404261EB410113F0004FB7
:10019C004FEA03334CEA133302D0524263EB43036E
:1001AC0094EA050F00F0A780A4F10104D5F1200E0C
:1001BC000DDB02FA0EFC22FA05F2801841F1000167
:1001CC0003FA0EF2801843FA05F359410EE0A5F13B
:1001DC0020050EF1200E012A03FA0EFC28BF4CF06C
:1001EC00020C43FA05F3C01851EBE37101F0004522
:1001FC0007D54FF0000EDCF1000C7EEB00006EEB2F
:10020C000101B1F5801F1BD3B1F5001F0CD34908B8
:10021C005FEA30004FEA3C0C04F101044FEA44520F
:10022C0012F5800F80F09A80BCF1004F08BF5FEA96
:10023C00500C50F1000041EB045141EA050130BD76
:10024C005FEA4C0C404141EB0101013C28BFB1F588
:10025C00801FE9D291F0000F04BF01460020B1FAD3
:10026C0081F308BF2033A3F10B03B3F120020CDAA6
:10027C000C3208DD02F1140CC2F10C0201FA0CF084
:10028C0021FA02F10CE002F11402D8BFC2F1200CE9
:10029C0001FA02F120FA0CFCDCBF41EA0C0190409F
:1002AC00E41AA2BF01EB0451294330BD6FEA0404E8
:1002BC001F3C1CDA0C340EDC04F11404C4F12002D3
:1002CC0020FA04F001FA02F340EA030021FA04F3E5
:1002DC0045EA030130BDC4F10C04C4F1200220FA3C
:1002EC0002F001FA04F340EA0300294630BD21FA7A
:1002FC0004F0294630BD94F0000F83F4801306BF40
:10030C0081F480110134013D4EE77FEA645C18BF33
:10031C007FEA655C29D094EA050F08BF90EA020FCA
:10032C0005D054EA000C04BF1946104630BD91EAC2
:10033C00030F1EBF0021002030BD5FEA545C05D1C5
:10034C004000494128BF41F0004130BD14F5800404
:10035C003CBF01F5801130BD01F0004545F0FE4178
:10036C0041F470014FF0000030BD7FEA645C1ABFAD
:10037C00194610467FEA655C1CBF0B46024650EAE4
:10038C00013406BF52EA033591EA030F41F4002110
:10039C0030BD00BF90F0000F04BF0021704730B596
:1003AC004FF4806404F132044FF000054FF000016B
:1003BC0050E700BF90F0000F04BF0021704730B52C
:1003CC004FF4806404F1320410F0004548BF404201
:1003DC004FF000013EE700BF42004FEAE2014FEA56
:1003EC0031014FEA02701FBF12F07F4393F07F4F31
:1003FC0081F06051704732F07F4208BF704793F034
:10040C007F4F04BF41F40021704730B54FF4607446
:10041C0001F0004521F000411CE700BF50EA010249
:10042C0008BF704730B54FF000050AE050EA0102F2
:10043C0008BF704730B511F0004502D5404261EB62
:10044C0041014FF4806404F132045FEA915C3FF4A3
:10045C00D8AE4FF003025FEADC0C18BF03325FEA40
:10046C00DC0C18BF033202EBDC02C2F1200300FAF1
:10047C0003FC20FA02F001FA03FE40EA0E0021FA16
:10048C0002F11444BDE600BF70B54FF0FF0C4CF404
:10049C00E06C1CEA11541DBF1CEA135594EA0C0FB6
:1004AC0095EA0C0F00F0DEF82C4481EA030621EAF1
:1004BC004C5123EA4C5350EA013518BF52EA03352C
:1004CC0041F4801143F4801338D0A0FB02CE4FF0DE
:1004DC000005E1FB02E506F00042E0FB03E54FF00E
:1004EC000006E1FB03569CF0000F18BF4EF0010E06
:1004FC00A4F1FF04B6F5007F64F5407404D25FEA02
:10050C004E0E6D4146EB060642EAC62141EA5551B4
:10051C004FEAC52040EA5E504FEACE2EB4F1FD0CF6
:10052C0088BFBCF5E06F1ED8BEF1004F08BF5FEA74
:10053C00500E50F1000041EB045170BD06F0004626
:10054C0046EA010140EA020081EA0301B4EB5C04D3
:10055C00C2BFD4EB0C0541EA045170BD41F48011CB
:10056C004FF0000E013C00F3AB8014F1360FDEBFF0
:10057C00002001F0004170BDC4F10004203C35DACC
:10058C000C341BDC04F11404C4F1200500FA05F34F
:10059C0020FA04F001FA05F240EA020001F00042F0
:1005AC0021F0004110EBD37021FA04F642EB060166
:1005BC005EEA430E08BF20EAD37070BDC4F10C0490
:1005CC00C4F1200500FA04F320FA05F001FA04F254
:1005DC0040EA020001F0004110EBD37041F1000140
:1005EC005EEA430E08BF20EAD37070BDC4F120054B
:1005FC0000FA05F24EEA020E20FA04F301FA05F2B3
:10060C0043EA020321FA04F001F0004121FA04F25A
:10061C0020EA020000EBD3705EEA430E08BF20EA2A
:10062C00D37070BD94F0000F0FD101F00046400064
:10063C0041EB010111F4801F08BF013CF7D041EAE6
:10064C00060195F0000F18BF704703F000465200EA
:10065C0043EB030313F4801F08BF013DF7D043EABB
:10066C000603704794EA0C0F0CEA135518BF95EA71
:10067C000C0F0CD050EA410618BF52EA4306D1D1F8
:10068C0081EA030101F000414FF0000070BD50EA17
:10069C00410606BF1046194652EA430619D094EAA1
:1006AC000C0F02D150EA013613D195EA0C0F05D18B
:1006BC0052EA03361CBF104619460AD181EA0301DF
:1006CC0001F0004141F0FE4141F470014FF0000097
:1006DC0070BD41F0FE4141F4780170BD70B54FF032
:1006EC00FF0C4CF4E06C1CEA11541DBF1CEA1355B2
:1006FC0094EA0C0F95EA0C0F00F0A7F8A4EB050494
:10070C0081EA030E52EA03354FEA013100F088808A
:10071C004FEA03334FF0805545EA131343EA126353
:10072C004FEA022245EA111545EA10654FEA002608
:10073C000EF000419D4208BF964244F1FD0404F5C1
:10074C00407402D25B084FEA3202B61A65EB03051D
:10075C005B084FEA32024FF480104FF4002CB6EBDA
:10076C00020E75EB030E22BFB61A754640EA0C005A
:10077C005B084FEA3202B6EB020E75EB030E22BF9A
:10078C00B61A754640EA5C005B084FEA3202B6EBDB
:10079C00020E75EB030E22BFB61A754640EA9C009A
:1007AC005B084FEA3202B6EB020E75EB030E22BF6A
:1007BC00B61A754640EADC0055EA060E18D04FEA28
:1007CC00051545EA16754FEA06164FEAC30343EAC8
:1007DC0052734FEAC2025FEA1C1CC0D111F4801F95
:1007EC000BD141EA00014FF000004FF0004CB6E78E
:1007FC0011F4801F04BF01430020B4F1FD0C88BF2D
:10080C00BCF5E06F3FF6AFAEB5EB030C04BFB6EB37
:10081C00020C5FEA500C50F1000041EB045170BD2A
:10082C000EF0004E4EEA113114EB5C04C2BFD4EB57
:10083C000C0541EA045170BD41F480114FF0000EDB
:10084C00013C90E645EA060E8DE60CEA135594EA57
:10085C000C0F08BF95EA0C0F3FF43BAF94EA0C0F5A
:10086C000AD150EA01347FF434AF95EA0C0F7FF4CF
:10087C0025AF104619462CE795EA0C0F06D152EA23
:10088C0003353FF4FDAE1046194622E750EA410607
:10089C0018BF52EA43067FF4C5AE50EA41047FF418
:1008AC000DAF52EA43057FF4EBAE12E753B94AB9E8
:1008BC00002908BF00281CBF4FF0FF314FF0FF305C
:1008CC0000F00CB8ADF1080C6DE904CE04F0CEFDCF
:1008DC00DDF804E0DDE9022304B07047704700BF87
:1008EC0010B5054C237833B9044B13B10448AFF35E
:1008FC0000800123237010BD880000200000000040
:10090C003C57000808B5034B1BB103490348AFF330
:10091C00008008BD000000008C0000203C5700083F
:10092C001FB50446144904F0A4FB0A22134901A87C
:10093C0004F0F0FB01A9204604F0D3FB01A804F05D
:10094C0053FB0A220E4901A804F0E4FB01A920463E
:10095C0004F0C7FB01A804F047FB0A22094901A8CF
:10096C0004F0D8FB01A9204604F0BBFB01A804F05D
:10097C003BFB204604B010BD445D00085000F81F3E
:10098C005400F81F6480FF011FB5084C23785BB935
:10099C0001A8FFF7C5FF01A9054804F09AFB01A8BF
:1009AC0004F022FB0123237004B010BDB000002022
:1009BC00A400002008B501210D2004F05FF80121EE
:1009CC001F2004F05BF800211E2004F057F80021D2
:1009DC001C2004F053F801210C2004F04FF80B49B3
:1009EC000B4801F059F920B90A490B4804F0B2FA46
:1009FC00FEE70A4800F05AFF00B9FEE7FFF7C4FF14
:100A0C00BDE80840064801F0A5B900BF400ECF195B
:100A1C000403002054570008BC04002010010020DF
:100A2C003C03002008B501210D2004F075F84FF4AB
:100A3C007A7004F097F80D20002104F06DF8BDE8F1
:100A4C0008404FF47A7004F08DB8000010B5084CD3
:100A5C000848214604F00DFB074800F0B0FE07489B
:100A6C0000F0C9FE2146BDE81040054804F001BB6A
:100A7C00445D0008A4000020B400002010010020F8
:100A8C009801002008B5054804F0AEFA044800F0BF
:100A9C009FFEBDE80840034804F0A6BA9801002068
:100AAC00B4000020A4000020024B1878024B1B78E5
:100ABC00C01A70474B02002049020020074A08491F
:100ACC0013780978994281BF06490968C85C0133DB
:100ADC008CBF13704FF0FF30704700BF49020020ED
:100AEC004B0200205C020020054B064A1B78127852
:100AFC009A4283BF044A1268D05C4FF0FF307047B3
:100B0C00490200204B0200205C020020044B1B68B1
:100B1C002BB1002203490A7003490A701847704729
:100B2C00540200204A0200204C020020202838BF2A
:100B3C00202038B5084D04460146286804F03AFCDC
:100B4C0018B1064B28601C7038BD2146BDE83840F2
:100B5C00034803F0BDBC00BF600200205902002016
:100B6C007E57000837B5164B04461B788DF80710D6
:100B7C00DBB1144D144A287812780130904201D917
:100B8C00FFF7D4FF114B186818B90123636003B049
:100B9C0030BD0F4A9DF807101378C154137801200B
:100BAC000133DBB213702B70F1E701220DF1070159
:100BBC00143000F083FAB0FA80F04009E7E700BF88
:100BCC00480200204C020020590200206002002044
:100BDC004A020020044B186820B1044B00211A78FB
:100BEC0004F03ABB704700BF5C02002058020020A2
:100BFC00044B186820B1044B00211A7804F02CBB6C
:100C0C00704700BF600200205902002010B500247C
:100C1C00064B1C70064B1C70FFF7DCFF054B1C7061
:100C2C00054B1C70BDE81040FFF7E2BF49020020E5
:100C3C004B0200204A0200204C020020F8B5164B53
:100C4C0005461B780F461446EBB1144E144B307806
:100C5C001B781044984201D9FFF768FF114B1B68B1
:100C6C0023B901221C466A602046F8BD0E4D22466F
:100C7C0028783946184404F0E1FA2B782344DBB287
:100C8C002B703370F0E792B2143000F017FA002892
:100C9C0018BF0024E8E700BF480200204C020020E7
:100CAC0059020020600200204A02002000214FF46B
:100CBC007A72C0E90112054A0260054A9188A0F8CF
:100CCC006C10D288A0F86E20704700BF085800083E
:100CDC00F85B0008F8B500260D4604461746174B7E
:100CEC001E70174B1E70FFF775FF164B1E70164BC0
:100CFC001E70FFF77DFF154BA5F133021E706B00C4
:100D0C0055425541DBB284F8A25004F1140523740A
:100D1C004FF4804228460E4984F8A37000F02CF959
:100D2C0094F8A2304BB928460A4900F079FA2846C3
:100D3C00BDE8F840084900F06CBAF8BD4902002043
:100D4C004B0200204A0200204C02002048020020E6
:100D5C00A0860100190B0008450E00080A46332135
:100D6C00FFF7B8BF0122054B91401A70044B054A9E
:100D7C00197000231370044A137070474802002046
:100D8C00640200204A0200204C020020C9B2FFF786
:100D9C00E9BF000038B5E9B94FF42A03436490F871
:100DAC00A230012B19D10E4D0E4A0F492B78126827
:100DBC000978143000F0EDF9042828BF042044B25F
:100DCC00FFF716FF0023094A2B701370084A1370A3
:100DDC00E0B238BD4FF02A43E0E70424F8E700BF47
:100DEC004C02002060020020640200204A02002015
:100DFC00480200200121FFF7CDBF000070B50B4D5C
:100E0C0004462B7883420AD2202838BF2024084E6F
:100E1C002146306804F0CEFA10B130602C7070BDF1
:100E2C002146BDE87040034803F052BB5802002035
:100E3C005C0200207E5700082DE9F047134D8046D8
:100E4C002B680C46FBB1124A124F10783978914638
:100E5C00884218D3104E2046FFF7D0FF326822B9D3
:100E6C004FF4D1710D4803F033FB224641463068F4
:100E7C0004F0E4F9002389F8003020462B683C701C
:100E8C00BDE8F0471847BDE8F08700BF50020020CE
:100E9C00490200204B0200205C02002096570008FB
:100EAC002DE9F84F90F8A2B00446BBF1010F0F46A4
:100EBC00154699469DF828609DF82CA008D110463F
:100ECC00FFF79CFF1F4A136890461BB9C4F804B087
:100EDC00002530E0BEB139462046FFF743FF032E14
:100EEC0028BF0326013EF6B2FF2E08D02368F1007E
:100EFC0029FA01F120461B68C9B29847F2E7002194
:100F0C002046FFF747FFBAF1000F17D14FF42A0321
:100F1C007900D8F80020636401F0FE01ABB204F153
:100F2C00140000F0DFF80022002818BF0025064B43
:100F3C001A70064B1D702846BDE8F88F4FF02A43F7
:100F4C00E6E700BF5C020020490200204B020020B3
:100F5C0007B5019300230093FFF7A2FF03B05DF8E0
:100F6C0004FB0123D2B2C9B2FFF7F2BF0148FFF76D
:100F7C009DBE00BFA40100202DE9F3410D4616468D
:100F8C001F460446002800F086804449B0F95800FA
:100F9C0003F06AFA42498046B4F95A0003F064FA45
:100FAC000146B8F1000F76D0002874D0404603F00B
:100FBC0073FA206000286ED03A4B04F10408984272
:100FCC0019D103F5DE33DA6942F40012DA61DA6919
:100FDC0002F400120192019A1A6942F400121A6189
:100FEC001A6922F400121A6142F21F03A4F85C3051
:100FFC002D4BC3F800802A49B4F95A0003F014FAB7
:10100C00B4F95800254903F00FFA284823688542A3
:10101C00636006D92648854203D92648854288BF95
:10102C0000202249FF238D428CBF4FF480450025C0
:10103C00C4E903570025E36194F88F302A46AB428C
:10104C000CBF2B4640230221C4E90835A060666121
:10105C0094F95C00A56184F8415000F005FF94F907
:10106C005C0000F033FF2A46022194F95D0000F089
:10107C00FBFE94F95D0000F029FF404600F0FEFFF6
:10108C0020B140F2D5210C4803F022FA002323664C
:10109C00022384F88D3002B0BDE8F081DC590008E1
:1010AC00B85900080054004068020020A0860100D6
:1010BC00801A060040420F0028580008202A30B53C
:1010CC000ED800239CB2A24204D8D2B280F88C2055
:1010DC00002030BDCD5CC41884F86C500133F1E7AE
:1010EC000120F6E72DE9F34105460C4698461746D4
:1010FC0000F0A2FE2B6B04352146009306464346B6
:10110C003A46284601F06CF9044650B1002002B072
:10111C00BDE8F08100F090FE841B284602F01DF81B
:10112C0030B9284602F016F8202801D0632CF1D9EA
:10113C00284602F012F8642C07D8820605D443071F
:10114C0005D40028E2D00420E1E70520DFE70320E6
:10115C00DDE710B564230446043001F02FF80228B3
:10116C000AD0032801D068B910BD94F84130202B67
:10117C000CBF02200520F7E794F84130202B18BF54
:10118C000620F1E794F84130202B0CBF02200420FC
:10119C00EAE72DE9F34105460C4690461F4600F060
:1011AC004BFE06463FB901222146284602B0BDE857
:1011BC00F041FFF7CEBF2B6B04352146009342461E
:1011CC003B46284601F0A4F8044650B1002002B07A
:1011DC00BDE8F08100F030FE841B284601F0BDFF15
:1011EC0030B9284601F0B6FF202801D0632CF1D984
:1011FC00284601F0B2FF642C07D8820605D44307B9
:10120C0005D40028E2D00420E1E70520DFE7032025
:10121C00DDE720B119B14166043001F0DDB970474A
:10122C0020B119B18166043001F0D6B97047C3689A
:10123C0010B59A4204461CD171B9436E80F88910DE
:10124C0003B19847204694F8882004F168012023C4
:10125C00BDE8104001F04AB900230122C36580F8B3
:10126C008920C16D0423BDE810400144683101F0B0
:10127C0078B910BD10B590F889300446012B05D112
:10128C00C36D1BB1C16D036E68309847022384F89F
:10129C00893000232046E365BDE8104001F09CB97D
:1012AC00C36D1F2BDEBFC36D0133C36590F889304E
:1012BC00012BDAB205D1C16D04230144683101F070
:1012CC0050B97047002380F88830704790F88A3006
:1012DC000BB901F081B97047014B186801F07ABA6B
:1012EC0068020020014B186801F098BE68020020CB
:1012FC00232970B504461BD800230C2505FB03F6E7
:10130C00A65FD8B2B1420DD00133042BF6D1012A1D
:10131C000CD100230C2505FB03F2A65ED8B20136D6
:10132C0001D1A15270BD0133042BF4D11846F9E759
:10133C000420F7E770B503464FF6FF720125002431
:10134C000B4E00F130011A805E601D725C720C3322
:10135C008B42F8D1074B0286998EA0F89010D98E4B
:10136C00A0F892105B8EA0F89620A0F8943070BD77
:10137C0000093D00F85B0008232970B505460E46B0
:10138C0021D80122FFF7B4FF032804461BD8232ED3
:10139C000BD0B5F99630013307D10121304603F05B
:1013AC006DFB0121304603F0B7FB0C20002300FB42
:1013BC00045485F88530627A237A616805F134002B
:1013CC0000F0CAF82E8670BD82B0F8B5232906ACA1
:1013DC0005460E4684E80C0026D80122FFF788FF4C
:1013EC000328044620D80C2707FB0057079B232E05
:1013FC007B60BDF820303B810BD0B5F996300133C2
:10140C0007D10121304603F039FB0121304603F0AE
:10141C0083FB0C2000FB04547968237A627A05F173
:10142C00340000F099F82E86BDE8F84002B0704701
:10143C002329F0B519D803464FF6FF74012600276F
:10144C000A4D00F13002B3F900C00C338C4501BFDA
:10145C0023F80C4C43F8085C03F8046C03F8037C89
:10146C009342F0D14FF6FF730386F0BD00093D00A7
:10147C0070B586B08DF80F200022232905460C4646
:10148C001E468DF8172039D8B0F93030994212D059
:10149C00FFF72EFF032803D99DF8170006B070BD87
:1014AC000C2303FB0050037A427A416805F13400A7
:1014BC0000F052F82C86232C07D0B5F99630013366
:1014CC0003D10021204603F027FB4FF47A730DF172
:1014DC00170200930DF10F01012305F1340000F008
:1014EC0053F9232CD8D0012ED6D1B5F9963001332F
:1014FC00D2D13146204603F00FFBCDE71046CDE7A5
:10150C000148FFF717BF00BF6C02002070B50D0E2D
:10151C00445991FAA1F3B3FA83F30F269B0006FA10
:10152C0003F324EA030491FAA1F1B1FA81F18900E1
:10153C0002FA01F12143415170BD0000044A054BF0
:10154C0090421B6801D102F093B81846704700BF57
:10155C00003001401C0000202DE9F74F0D461746C6
:10156C0098460446002800F0D3808049B0F95E000C
:10157C0002F07AFF7E498146B4F95C0002F074FFF8
:10158C007C498246B4F9600002F06EFF7A49064647
:10159C00B4F9620002F068FF8346B9F1000F00F065
:1015AC00B780BAF1000F00F0B380002E00F0B080CD
:1015BC005146484602F070FF59468246304602F0CA
:1015CC006BFF01468146504602F066FFA065BAF1FA
:1015DC00000F00F09D80B9F1000F00F099800028F9
:1015EC0000F09680B4F9623020605A1C14BF4FF49E
:1015FC0080234FF40073A3614FF482736360FFF791
:10160C009DFFB5EB500FC0F086800023002617F02D
:10161C00FD0FE3610CBF33460123022F636134BF1E
:10162C003346022323610723B045E36214BF3346DC
:10163C008023B4F95E00C4E90836A660A662E660B1
:10164C004A4902F0F1FEB4F95C00494902F0ECFEA3
:10165C00B4F96000474902F0E7FE2369B342B4F9DC
:10166C00603008BF02254FEA131218BF012512F093
:10167C000C0F11BF3046414902F00F0251F8220005
:10168C003F4A03F00F0352F823100B0EC65891FA81
:10169C00A1F2B2FA82F39A000F239340334091FAED
:1016AC00A1F2B2FA82F2022D4FEA820223FA02F37D
:1016BC004FEA11254ED0042B02D10822FFF726FF4A
:1016CC00C26822EA050295FAA5F50123B5FA85F55B
:1016DC0003FA05F51543C5602749B4F9620002F019
:1016EC00A3FE2268274B9A420AD103F560439A69FC
:1016FC0042F480529A619B6903F480530193019BDD
:10170C00204602F09FF82268136843F040031360F0
:10171C0003B0BDE8F08FB5EB900F01D3082375E74C
:10172C00B5EBD00F01D3102370E7B5EB101F01D32D
:10173C0018236BE7B5EB501F01D3202366E7B5EBFD
:10174C00901F01D3282361E7B5EBD01F2CBF3023AA
:10175C0038235BE7042B02D10822FFF7D7FEC368BE
:10176C0023EA050395FAA5F5C360B5E72C5B0008E1
:10177C00085B0008505B0008745B00080C0000203C
:10178C00485900080030014013B538B133B1049CFE
:10179C00009402F092F8032803D000B1022002B0AA
:1017AC0010BD0120FBE7416002720BB9437205E0EA
:1017BC00012BFBD0022BF9D0032BF7D07047002262
:1017CC004FF0FF31C0E90222C0E9081202617047F4
:1017DC0010B50446806810B103685B689847E068F0
:1017EC0010B103685B689847206910B103685B68A7
:1017FC009847204610BD704770B50C4606467621BA
:10180C0013481546FFF7C2FA21781148FFF7AAF9D9
:10181C000F48FFF7EFFA86F88000A0B92A46762128
:10182C000B48FFF79EFB0A4E3046FFF73DF9854209
:10183C00FAD1074E2544AC4207D03046FFF73EF9AB
:10184C0004F8010BF7E7002070BD0120FCE700BF96
:10185C00A401002013B514468DF80410022201A92E
:10186C00FFF7CAFF50B101209DF804209DF8053008
:10187C0043EA02231BB2238002B010BD0346FAE7F1
:10188C0013B514468DF80410022201A9FFF7B4FF1A
:10189C0048B101209DF804209DF8053043EA02234D
:1018AC00238002B010BD0346FAE700002DE9F04793
:1018BC00824600217D48FFF751FA5246AA21504634
:1018CC00FFF7C8FF10B90020BDE8F087AC215046E7
:1018DC000AF10202FFF7BEFF0028F4D0AE215046F9
:1018EC000AF10402FFF7B6FF0028ECD0B0215046F5
:1018FC000AF11002FFF7C4FF0028E4D0B2215046D1
:10190C000AF11202FFF7BCFF0028DCD0B4215046CC
:10191C000AF11402FFF7B4FF0028D4D0B6215046C8
:10192C000AF10602FFF796FF0028CCD0B8215046EA
:10193C000AF10802FFF78EFF0028C4D0BA215046E6
:10194C000AF10A02FFF786FF0028BCD0BC215046E2
:10195C000AF10C02FFF77EFF0028B4D0BE215046DE
:10196C000AF10E02FFF776FF0028ACD0BAF904009A
:10197C00FEF720FD00224E4BFEF786FD8046BAF89E
:10198C0010008946FEF716FD3CA3D3E90023FEF7B1
:10199C007BFD0446BAF906000D46FEF70BFD00224E
:1019AC00444BFEF771FD0646BAF812000F46FEF7DF
:1019BC0001FD34A3D3E90023FEF766FDCAE9060155
:1019CC00BAF81400FEF7E6FCCAE90801BAF90C00F3
:1019DC00FEF7F0FC2DA3D3E90023FEF755FDCAE971
:1019EC000A01BAF90E00FEF7E5FC0022324BFEF7B5
:1019FC0075FECAE90C01BAF90000FEF7DBFCCAE976
:101A0C000E01BAF90200FEF7D5FC00222B4BFEF7B3
:101A1C003BFDCAE91001BAF90800FEF7CBFC002225
:101A2C00274BFEF731FD0022CAE91201254B204657
:101A3C002946FEF729FD2246CAE914012B464046E9
:101A4C004946FEF721FD3246CAE916013B462046BF
:101A5C002946FEF719FD0FA3D3E90023CAE91801A3
:101A6C00CAE91A230DA3D3E900230120CAE91C23D8
:101A7C000CA3D3E90023CAE91E2325E7FCA9F1D264
:101A8C004D62603E9A9999999999893E7B14AE471B
:101A9C00E17AB43F0AD7A3703DEA0240000000008F
:101AAC0086C6EF3F00000000E08AD23EA401002071
:101ABC000000743F0000F93E000064400000943FB9
:101ACC000000493F0000E04007B503688DF807109F
:101ADC0001225B680DF10701984703B05DF804FB28
:101AEC007047000038B500254FF47A73C0E90153F4
:101AFC000C4B044601220C4940F8103B2B46FFF7D7
:101B0C0052FE18221123C4E9072315232046294627
:101B1C00C4E90935C4E90B55656303F063FA204643
:101B2C0038BD00BFA058000800127A00F0B504467A
:101B3C000F46164687B00021C06902F0EDFF03ABDB
:101B4C0004F1100207CA83E80700059A0F4D0092B2
:101B5C0028460CCB2321FFF737FC3A4601232321DF
:101B6C002846FFF785FC3246012323212846FFF740
:101B7C007FFC064623212846FFF75AFCE069012129
:101B8C0002F0CAFF304607B0F0BD00BF6C02002067
:101B9C00002201F07F01FFF7C9BF10B504461321E5
:101BAC00FFF7F6FFE36AC01A10BD036810B59B6817
:101BBC000446984738B1E36A002101332046E362BA
:101BCC00FFF7E6FF10BD4FF0FF30FBE72DE9F041CA
:101BDC000C46222115460746FFF7DAFF0646431945
:101BEC00FF2B88BFC0F1FF0504EB0508444506D068
:101BFC008021384614F8012BFFF798FFF6E772198D
:101C0C00A2213846D2B2FFF791FF2846BDE8F081F9
:101C1C00036870B59B680546984780B10D2128462E
:101C2C00FFF7B6FF002106462846FFF7B1FF044632
:101C3C0032468D212846FFF779FF204670BD4FF0C4
:101C4C00FF30FBE781221146FFF770BF8022812114
:101C5C00FFF76CBF38B5CB17DD0404460023816257
:101C6C000C4AC80445EA5131FEF720FE0546C0F384
:101C7C00074286212046FFF759FFC5F3072287212B
:101C8C002046FFF753FF2046EAB28821BDE83840D2
:101C9C00FFF74CBF0048E80138B504460D46C06953
:101CAC00012102F0EBFEE069012102F035FF206A10
:101CBC00431C10D0012102F0E1FE0021206A02F049
:101CCC002BFF0A2002F04EFF206A012102F024FFB4
:101CDC000A2002F047FF23211A48FFF74DFB42214F
:101CEC002046FFF755FF12282AD12046FFF7AEFFFA
:101CFC0029462046FFF7AEFF00228E212046FFF733
:101D0C0015FF00228F212046FFF710FF0C212046E3
:101D1C00FFF73EFF40F003028C21D2B22046FFF7C2
:101D2C0005FF0422A6212046FFF700FF8F22892100
:101D3C002046FFF7FBFE2046FFF784FF012038BD4D
:101D4C000020FCE76C0200200148FFF7CBBE00BF6F
:101D5C000403002010B5044602F072F9012323702D
:101D6C0010BD00000022024B1A705A601A727047A4
:101D7C003C03002003460A4910B508680344EFF3FE
:101D8C000882934205D90C224FF0FF30054B1A60A4
:101D9C0010BD054A054C121B9342F4D20B60F7E7B9
:101DAC0000000020D40500200028002000040000C2
:101DBC007047000038B50E4B054618784FF47A730F
:101DCC00B3FBF0F30B4A1068B0FBF3F000F0A0F893
:101DDC00044658B90F2D09D8024629464FF0FF305A
:101DEC0000F042F82046044B1D6038BD0120FCE792
:101DFC00040000201C00002008000020074A08B541
:101E0C001368032043F01003136000F01BF800204C
:101E1C00FFF7D0FFFFF7CCFF002008BD00200240E9
:101E2C00034A044B11681B780B441360704700BFC6
:101E3C00D005002004000020014B1868704700BF3B
:101E4C00D005002007490302CA6803F4E06322F4BA
:101E5C00E0621204120C134343F0BF6343F40033EB
:101E6C00CB60704700ED00E0164B30B5DC68C4F376
:101E7C000224C4F10703251D042B28BF0423062DBF
:101E8C004FF0FF3598BF002405FA03F388BF033CDD
:101E9C0021EA0303A34005FA04F422EA0402002811
:101EAC0043EA0203ACBF00F16040074A4FEA031358
:101EBC00DBB2ABBF00F5614000F00F0080F80033DF
:101ECC00135430BD00ED00E014ED00E0002808DBF9
:101EDC000123420900F01F0003FA00F0014B43F804
:101EEC002200704700E100E000280DDB01224309CD
:101EFC0000F01F0002FA00F0044A203342F82300DD
:101F0C00BFF34F8FBFF36F8F704700BF00E100E04E
:101F1C000138B0F1807F0AD2F021064B064A586096
:101F2C0082F823100020072298601A607047012065
:101F3C00704700BF10E000E000ED00E0002809DB76
:101F4C000122430900F01F0002FA00F0024A60333C
:101F5C0042F82300704700BF00E100E0704708B56D
:101F6C00FFF7FCFF08BD000008B590F82130022BEC
:101F7C0003D004238363012008BD03681A6822F090
:101F8C000E021A601A6822F001021A60174A934274
:101F9C001CD0143293421BD0143293421AD01432F8
:101FAC0093421AD0143293421AD0143293420CBF7B
:101FBC004FF480134FF080730D4A53604FF48073CD
:101FCC000384436B7BB198470020D5E70123F3E7EB
:101FDC001023F1E74FF48073EEE74FF48053EBE7F7
:101FEC004FF48033E8E71846C6E700BF080002400C
:101FFC000000024090F8210070470000044A08B528
:10200C005169014202D0506102F054FC08BD00BF7E
:10201C00000401402DE9F84606460F4691461D4640
:10202C004FEA114A3368BAF1010F0CBF5C699C6925
:10203C0027EA0404A4B2B4FA84F46409A14501D0DB
:10204C00002017E06A1CEED0FFF7F6FE089BC01AC2
:10205C00A84201D8002DE5D10023202201203363B2
:10206C0086F83D2086F83E30326C86F83C3042F0E3
:10207C0020023264BDE8F8867047000070B5044653
:10208C0008B9012070BD90F83D3003F0FF021BB978
:10209C0080F83C20FFF7F0FF2423226884F83D30C1
:1020AC00136823F00103136001F0D2FA3F4A63680E
:1020BC00934294BF3E4A3F4A90428CBF0022012279
:1020CC00002ADED13C4E2268B0FBF6F6516801388E
:1020DC0021F03F01314351603449156A8B4281BF75
:1020EC004FF4967171434FF47A76B1FBF6F125F00B
:1020FC003F0594BF711C013129431162D1692B4DED
:10210C0021F44F41AB4221F0FF0132D85B00B0FB10
:10211C00F3F0431C40F6FC70034242D0C3F30B03B4
:10212C000B43D3611168D4E9073021F0C00103439C
:10213C000B4313609168D4E9030321F40341034377
:10214C0021F0FF010B439360D168D4E9053021F0F5
:10215C00FF0103430B43D3601368002043F00103DA
:10216C0013602023206484F83D30206384F83E0003
:10217C0088E7A56855B903EB4303B0FBF3F30133D0
:10218C00C3F30B037BB143F40043C9E719256B433D
:10219C00B0FBF3F30133C3F30B0323B143F440431C
:1021AC00BEE70423BCE70123BAE700BFA086010009
:1021BC007F841E00FF083D0040420F002DE9F04FC8
:1021CC00044685B01E460F469146FFF735FE94F83F
:1021DC003D300546202B03D0022005B0BDE8F08F22
:1021EC0000901923012220464849FFF713FF0028CD
:1021FC00F2D194F83C30012BEED0012384F83C3022
:10220C0023684FF0010A1A68DFF800B1D20758BFF3
:10221C001A6807F0FE075CBF42F001021A601A68E8
:10222C0022F400621A60242384F83D3000232364D6
:10223C00A3F58033E36222684FF001111368204646
:10224C0043F480731360334600220095FFF7E2FEDF
:10225C0008B10120C1E723684FF0A0081F61FFF708
:10226C00EBFD054623685A695B69C2F34002C3F370
:10227C00802394F83D10A02901D0134321D04FF0B6
:10228C002008236884F83D805A6912F0020F1A68FE
:10229C0042F400721A6024D0002203925A6920463C
:1022AC0003929B6901220393039B18491923009500
:1022BC00FFF7B0FE0028CCD184F83D8084F83C00B8
:1022CC008BE7FFF7B9FD401BB04200D80EB984F87C
:1022DC003D8023685A695B69C2F34002C3F38023D3
:1022EC00C7E76FF4806259465A61204619230122D0
:1022FC000095FFF78FFE0028ABD10AF1010ACA4501
:10230C0099D384F83D8084F83C00A2E702001000C9
:10231C0073B500240094019490F83D40069D202C48
:10232C0002D0022002B070BD082D01D0012D1FD1AA
:10233C0046F2A816294C2468B4FBF6F6192474430B
:10234C000194019C013C0194019C6CB92023046311
:10235C0080F83D3080F83E40036C80F83C4043F000
:10236C00200303640120DDE70468A469A407E8D412
:10237C0090F83C40012CD4D004682668F6075EBF68
:10238C00266846F001062660266826F4006626605C
:10239C00212680F83D60102680F83E6000260664F9
:1023AC004385438DC56241640385036B4262009390
:1023BC00009B112B05D1B5F52A0F02D0B5F12A4F90
:1023CC0003D1236843F480732360002380F83C30EE
:1023DC006268184642F4E0626260A3E71C000020C9
:1023EC0073B500240094019490F83D40069D202C78
:1023FC0002D0022002B070BD082D01D0012D1FD1DA
:10240C0046F2A816384C2468B4FBF6F6192474432B
:10241C000194019C013C0194019C6CB92023046340
:10242C0080F83D3080F83E40036C80F83C4043F02F
:10243C00200303640120DDE70468A469A407E8D441
:10244C0090F83C40012CD4D0012480F83C40046826
:10245C002668F6075EBF266846F0010626602668E9
:10246C0026F400662660222680F83D60102680F84F
:10247C003E60002606644385438DC5624164038536
:10248C00036B42620093438D9BB2022B25D1202D0E
:10249C0001D0102D21D1009B122B23681ED14FF49B
:1024AC00407123F480632360236843F4006323604A
:1024BC00009B122B05D1B5F52A0F02D0B5F12A4F8E
:1024CC0003D1236843F480732360002380F83C30ED
:1024DC00626818460A4362608CE7236843F48063A1
:1024EC004FF4E0612360E3E71C00002037B590F85F
:1024FC003D4004F02804282C31D100292DD0002A8D
:10250C002BD090F83C40012C29D005682C68E407AE
:10251C005EBF2C6844F001042C602C6824F4006429
:10252C002C60292480F83D40202480F83E40002473
:10253C0004644285428DC36201946B6941620193CC
:10254C00AB69028580F83C4020460193019B6B6887
:10255C0043F4E0636B6003B030BD0120FBE7022065
:10256C00F9E737B590F83D4004F02804282C31D118
:10257C0000292DD0002A2BD090F83C40012C29D0DA
:10258C0005682C68E4075EBF2C6844F001042C60DD
:10259C002C6824F400642C602A2480F83D4020240C
:1025AC0080F83E40002404644285428DC36201944D
:1025BC006B6941620193AB69028580F83C4020460F
:1025CC000193019B6B6843F4E0636B6003B030BD17
:1025DC000120FBE70220F9E790F83D30202B14D1C5
:1025EC00282380F83D30036800201A68D2075EBFAC
:1025FC001A6842F001021A601A6842F480621A608A
:10260C005A6842F440725A60704702207047704713
:10261C007047704770477047002370B5406A026876
:10262C0090F83D101468466B856B24F48064B3629B
:10263C00AB62146043851468736324F001046B630C
:10264C00146090F83D40C9B2602C08D1202280F86B
:10265C003D2080F83E300364FFF7DDFF70BD01F0D4
:10266C00280128290DD1146844F001041460146861
:10267C0044F480641460036380F83D10FEF726FE7A
:10268C00ECE7202280F83D2080F83E30F6E7000091
:10269C0010B590F83D2090F83E10044610290368C0
:1026AC00D2B212D1222A10D1196821F4006119601A
:1026BC005968090504D4602A1CBF202284F83D20E7
:1026CC000022226384F83E2007E002F0280128292A
:1026DC00EED10022226384F83D105A6812F4006295
:1026EC004CD05A68606B22F400625A6090F821302A
:1026FC00012B364B28D04363FFF736FC50B12268D0
:10270C00606B136823F001031360202384F83D30C1
:10271C00436B984794F83D30226CDBB2520712D5CC
:10272C00282B10D122682046536823F4E0635360B1
:10273C00274B2022E3620023236384F83D2084F896
:10274C003E30FEF797FD10BDA06B4363FFF70CFC0A
:10275C000028DFD023685A69520605D51A69636AC6
:10276C001A70636A013363622268A06B136823F0EA
:10277C0001031360202384F83D30C9E794F83D1021
:10278C00602915D1202184F83D1022645A69500625
:10279C0005D51A69636A1A70636A01336362226829
:1027AC002046136823F001031360FFF734FFB1E7F1
:1027BC005A69510605D51A69636A1A70636A01333E
:1027CC0063622046FEF782FDA4E700BF25260008C1
:1027DC000000FFFF70B5036804465A68C16A90F8A0
:1027EC003E5090F83D00102D8CB0EEB2C0B202D02D
:1027FC00402E40F0B7829D695869C60707D4B1F5E1
:10280C002A0F02D0B1F12A4F52D10CB070BD9105F4
:10281C004ED5E26AB2F52A0F0CD10122E26294F88D
:10282C003E20402A11D1226D52B9626C02F0FE0298
:10283C001A61EAE7E26AB2F12A4FF0D10822EDE719
:10284C00626C42F00102D2B2F2E72269B2F5804F1B
:10285C001BD194F83D20212A626C12D102F0FE02A9
:10286C001A61626B12B9A16B0029CED0926A1AB9A7
:10287C00A26B926A002AC8D05A6842F400625A606D
:10288C00C3E742F00102D2B2EAE7226D32B9626CC0
:10289C00D21102F0060242F0F002C9E7226D012AC1
:1028AC00B3D1626CD21102F0060242F0F102BFE722
:1028BC00060703D5910501D5626CE4E7860740F164
:1028CC00E680910540F1E38094F83E10E26A256BB6
:1028DC0094F83D00C9B2222840F0D180206D40B957
:1028EC00402906D100905A6900929B690093009B85
:1028FC008BE7216D81B92069B0F5404F0CD1019166
:10290C005A6901929A690192019A1A6842F480728A
:10291C001A60236D013328E0618D89B251B902919F
:10292C005A6902929A690292029A1A6842F40072E7
:10293C001A6019E0618D89B201294AD112F5803FE4
:10294C001CD11A6822F480621A605A6812F4006270
:10295C000DD01A6822F480621A60002203925A6920
:10296C0003929B690393039B002323654DE7049219
:10297C005A6904929A690492049AD6E7082A1CD0E0
:10298C00202A1AD0122D0DD1012A16D11A6822F440
:10299C0080621A60002205925A6905929B69059320
:1029AC00059BE1E7102AF1D88F4921FA02F2D607EC
:1029BC00ECD51A6842F48062EBE71A6822F4806264
:1029CC001A60002206925A6906929A690692069A31
:1029DC00ABE7618D89B2022933D1102A05D882491F
:1029EC00D140C94311F0010120D0196841F40061B4
:1029FC001960002107915969079199690791079905
:102A0C00196821F48061196059680D05ACD512F56F
:102A1C00803F06D0511E1F29A6D8744ACA40D00741
:102A2C00A2D55A6842F480525A609DE7186840F467
:102A3C008060186008915969089199690891089902
:102A4C00E2E7196841F480611960596809050ED5EF
:102A5C0012F5803F07D0013A1F2A08D8634921FAA2
:102A6C0002F2D60703D55A6842F480525A6000220B
:102A7C0009925A6909929B690993099B74E7002290
:102A8C000A925A690A929B690A930A9BBDE66D07E2
:102A9C00596840F1AD800E053FF5B7AE0506C0F3A1
:102AAC00800169D5500567D5002968D194F83D207F
:102ABC00258D94F83E10D2B2E06AC9B2C5B9212A6C
:102ACC0018D1082878D0202876D010F5803F73D004
:102ADC005A6822F4E0625A6011232363002384F8BD
:102AEC003E302023204684F83D30FFF790FD8CE6E5
:102AFC00212A05D040297FF488AE222A7FF485AEA6
:102B0C00628D92B21AB95A6822F48062B7E694F8D0
:102B1C003E20402A26D1226D62B9E26C012AA26CB9
:102B2C0004D1D2B21A61236D02331EE7C2F307221D
:102B3C001A61EEE6226D012A02D1A26CD2B2F7E73D
:102B4C00226D022A7FF461AE94F83D20222A04D132
:102B5C001A6842F480721A6057E694F83D20212AD4
:102B6C007FF453AE626A12F8011B19616262638DC5
:102B7C00013B9BB2638548E600293FF446AE9205C3
:102B8C007FF543AEE16A94F83D20212A7FF43DAEF7
:102B9C00628D92B2002AE5D108290DD020290BD0E4
:102BAC0011F5803F08D0596821F4E0615960112378
:102BBC00236384F83E2094E75A68204622F4E062AE
:102BCC005A601A6842F400721A60002320222363B0
:102BDC0084F83D2094F83E2084F83E30402A84D17D
:102BEC00FFF717FD11E600BF140001008180008083
:102BFC000E053FF50AAE4506C0F3800148D55005D9
:102C0C0046D5002947D194F83D20222A7FF4FDAD0A
:102C1C00628D92B2032A14D91A69636A1A70636AB4
:102C2C0001336362638D013B9BB26385638D9BB201
:102C3C00032B7FF4EAAD2268536823F4806353605E
:102C4C00E3E5E06A02283FF4E0AD012A3FF6DDAD92
:102C5C001A6822F480621A605A6822F4E0625A60A0
:102C6C001A69636A1A70636A01336362638D013B8C
:102C7C009BB26385202384F83D3094F83E3084F871
:102C8C003E10402B68D121632046FFF7C3FCBCE506
:102C9C0000293FF4BAAD92057FF5B7ADE26A608DBD
:102CAC00616A80B2042809D15A6822F480625A60A1
:102CBC001B690B70636A0133636258E7608D80B2E5
:102CCC0003280CD15868042A20F480605860EFD097
:102CDC00022AEDD01A6822F480621A60E8E7608D4F
:102CEC0080B20228E4D1012A01D0102A28D11A6816
:102CFC0022F480621A601B690B70626A531C636257
:102D0C00638D013B9BB2638523681B695370636AB7
:102D1C00226801336362638D013B9BB26385536808
:102D2C0023F440735360202384F83D3094F83E30F4
:102D3C00402B4FF0000384F83E300DD12363A3E702
:102D4C00042A01D0022A03D11A6842F48062D1E726
:102D5C001A6842F40072CDE7122320462363FFF772
:102D6C0057FC52E5216C11B3002559698E0728D503
:102D7C00960526D5226C02B19D6994F83D2002F08F
:102D8C002802282A16D15A686FEA950122F480622B
:102D9C005A602B064FF00003204654BFA289228BA9
:102DAC0001F0010184F83C30FEF741FA2DE59D69F4
:102DBC005969DBE76FF002025A61002384F83C305A
:102DCC0023E5CE0640F1B180950540F1AE8094F834
:102DDC003D505A68EDB222F4E0625A6000220B9228
:102DEC005A690B921A6842F001021A600B9A1A681F
:102DFC0022F480621A605A68120520D505F0F70299
:102E0C00222A4AD1A06B0268526892B26285628D06
:102E1C0092B21AB1226C42F0040222645A6822F473
:102E2C0000625A60FFF7E6F8012808D0A06B794BD6
:102E3C004363FFF799F810B1A06B436B9847638D10
:102E4C009BB213B323685A69560709D51A69636A8A
:102E5C001A70636A01336362638D013B9BB26385B5
:102E6C0023685A69500609D51A69636A1A70636A2D
:102E7C0001336362638D013B9BB26385638D9BB2AF
:102E8C001BB1236C43F004032364236C13B320465F
:102E9C000CB0BDE87040FFF7FBBB606B026852687A
:102EAC0092B26285628D92B21AB1226C42F0040227
:102EBC0022645A6822F400625A60FFF79BF80128DA
:102ECC00BDD0606B534B4363FFF74EF80028B6D070
:102EDC00606BB2E72A2D06D123632823204684F8A1
:102EEC003D30FEF7DDF994F83D30282B0CD14A4BE0
:102EFC002022E36200232046236384F83D2084F8DB
:102F0C003E30FEF7B7F980E4236B222B02D0222D42
:102F1C007FF47BAC00232022236384F83D2084F8CB
:102F2C003E302046FEF7BCF96FE400F0F700212894
:102F3C00C1F3800535D1090627D5560525D53DBBEE
:102F4C0094F83D10628DC9B292B2002A3FF45DAC88
:102F5C00626A12F8015B1D616262628D013A92B283
:102F6C006285628D92B2002A7FF44FAC29297FF4DE
:102F7C004CAC5A6822F480625A60282320632046A5
:102F8C0084F83D30FEF79EF93FE4002D3FF43DAC54
:102F9C0095057FF53AAC628D92B2002A3FF435ACC0
:102FAC00E0E5480627D5510525D53DBB94F83D20D5
:102FBC00618DD2B289B200293FF427AC1969636ADA
:102FCC001970636A01336362638D013B9BB2638545
:102FDC00638D9BB2002B7FF418AC2A2A7FF415ACBE
:102FEC002268536823F480635360222323632823CD
:102FFC0084F83D3095E7002D3FF407AC92057FF542
:10300C0004AC628D92B2002A3FF4FFAB1A69636A7A
:10301C001A704FE6252600080000FFFFF8B503687C
:10302C0004465F695E68FA05C7F300250BD5F00509
:10303C00C6F3002507D56FF4807201255A611A6812
:10304C0042F400421A60B90506D5F20542BF6FF48E
:10305C00007245F002055A61780537D5F10535D572
:10306C0094F83EC0618D94F83D20BCF1200F206B8C
:10307C0089B2D2B25AD1002958D102F0F7012129D4
:10308C0003D0282A52D1212850D194F83D20E16A4E
:10309C00D2B2082901D020292AD1282A28D12C4A99
:1030AC002046E2625A6822F4E0625A606FF4806251
:1030BC005A611A6822F480621A600023202223636A
:1030CC0084F83D2084F83E30FEF7D4F83A053BD521
:1030DC00F30539D56FF40062236845F008055A6191
:1030EC00236C20461D432564BDE8F840FFF7D0BA99
:1030FC00212A17D116492046E1622263202284F846
:10310C003D20002284F83E205A6822F4E0625A6086
:10311C006FF480625A611A6822F480621A60FEF7BA
:10312C00D1F8D3E76FF480625A61CFE76FF4806215
:10313C005A6194F83E2045F00405102A02BF1A6823
:10314C0042F400721A60C1E7002DC9D1F8BD00BF6E
:10315C000000FFFF90F83D007047006C70470000C6
:10316C000122014B1A60704720000E422DE9F341F9
:10317C00054638B30368DB0710D42B689F075ED471
:10318C002B68190700F195802B685A0700F1BF8056
:10319C00E869002840F02C81002029E08F4C6368FE
:1031AC0003F00C03042B07D0636803F00C03082B0B
:1031BC000AD16368DE0307D523689C03DDD56B68F1
:1031CC00002BDAD1012013E06B68B3F5803F12D1EC
:1031DC00236843F480332360FEF72EFE06462368F3
:1031EC009803CAD4FEF728FE801B6428F7D9032065
:1031FC0002B0BDE8F0819BB9236823F480332360CF
:10320C00236823F480232360FEF716FE064623680A
:10321C009903B2D5FEF710FE801B6428F7D9E6E7B8
:10322C00B3F5A02F236803D143F480232360CFE7A9
:10323C0023F480332360236823F48023CBE7674C8B
:10324C00636813F00C0F07D0636803F00C03082BB2
:10325C0010D16368DA030DD423689B0702D52B6960
:10326C00012BAFD123686A6923F0F80343EAC20348
:10327C00236085E72A695A4B6AB101221A60FEF76E
:10328C00DBFD064623689F07ECD4FEF7D5FD801BBB
:10329C000228F7D9ABE71A60FEF7CEFD0646236885
:1032AC0098077FF56DAFFEF7C7FD801B0228F6D996
:1032BC009DE7AA69494E4B4BDAB101221A60FEF721
:1032CC00BBFD0446736A9B070DD54FF4FA52464B6F
:1032DC001B68B3FBF2F3019300BF019B5A1E0192D2
:1032EC00002BF9D150E7FEF7A7FD001B0228E9D906
:1032FC007DE71A60FEF7A0FD0446736A9F077FF511
:10330C0043AFFEF799FD001B0228F6D96FE7334C4B
:10331C00E369D80024D40127E36943F08053E361C7
:10332C00E36903F080530093009B304E3368D9055A
:10333C0018D5EB68012B26D1236A43F001032362D5
:10334C00FEF77AFD41F288380646236A9B073FD583
:10335C00002F3FF41DAFE36923F08053E36117E7BF
:10336C000027E2E7336843F480733360FEF764FDB3
:10337C0080463368DA05DCD4FEF75EFDA0EB08006E
:10338C006428F6D933E7ABB9236A41F2883823F0C5
:10339C0001032362236A23F004032362FEF74CFD2E
:1033AC000646236A9807D3D5FEF746FD801B404599
:1033BC00F7D91CE7052B236A03D143F004032362DE
:1033CC00BAE723F001032362236A23F00403B6E770
:1033DC00FEF732FD801B4045B7D908E700100240CC
:1033EC0000004242800442421C0000200070004059
:1033FC002A4B5A681C4602F00C02082A3DD00023C6
:10340C00274E022833602BD1FEF716FD07462368A2
:10341C0099011FD42B6AB3F5803F05D16268A96866
:10342C0022F400320A436260696A62680B4322F438
:10343C0074121343636001233360FEF7FDFC0546F1
:10344C0023689A013FF5A8AEFEF7F6FC401B022854
:10345C00F6D9CCE6FEF7F0FCC01B0228D7D9C6E69D
:10346C00FEF7EAFC054623689B017FF595AEFEF757
:10347C00E3FC401B0228F6D9B9E601283FF4B8AEAC
:10348C005B682A6A03F4803191427FF49BAE6A6ACE
:10349C0003F4701393423FF47FAE93E600100240A6
:1034AC006000424230B5184B87B002AC03F11005F6
:1034BC00224618685968083303C2AB421446F7D148
:1034CC0040F201231149ADF804304B6803F00C02B3
:1034DC00082A17D1C3F3834206A80244DB0312F86F
:1034EC00102C0CD54B680A48C3F34043504306AA32
:1034FC00134413F8143CB0FBF3F007B030BD05488F
:10350C005043FAE70248F8E7C058000800100240A0
:10351C0000127A0000093D002DE9F0410D460446E9
:10352C0010B90120BDE8F081444A136803F0070389
:10353C008B4228D321688E0730D4CA0743D43F4A24
:10354C00136803F00703AB4265D822683C4D12F0B8
:10355C00040F6CD1130706D56B68226923F46053F2
:10356C0043EAC2036B60FFF79DFF6B68354AC3F3F8
:10357C000313D35CD840344B1860344B1868FEF7F7
:10358C0019FC0020CEE7136823F007030B431360EC
:10359C00136803F007038B42C3D1CBE7284B11F020
:1035AC00040F1EBF5A6842F4E0625A60080742BF1B
:1035BC005A6842F460525A605A68A06822F0F002CD
:1035CC0002435A60B9E762681D4E012A33681AD16A
:1035DC0013F4003FA5D0736841F2883823F003033D
:1035EC0013437360FEF728FC07467368626803F0A8
:1035FC000C03B3EB820FA2D0FEF71EFCC01B4045A0
:10360C00F3D903208EE7022A02D113F0007FE1E701
:10361C0013F0020FDEE7136823F007032B4313604C
:10362C00136803F00703AB427FF47BAF8DE76B6845
:10363C00E16823F4E0630B436B608BE700200240EE
:10364C0000100240885900081C00002008000020CF
:10365C00044B054A5B68C3F30223D35C034A10682E
:10366C00D840704700100240985900081C000020F8
:10367C00044B054A5B68C3F3C223D35C034A10684E
:10368C00D840704700100240985900081C000020D8
:10369C0003682DE9F341D907054620D5354CE3697C
:1036AC00DA0032D40127E36943F08053E361E36924
:1036BC0003F080530193019B2F4E3368DB0526D515
:1036CC00236A13F4407336D1236A6A6823F4407377
:1036DC00134323621FB1E36923F08053E36128682D
:1036EC00830706D52349AB684A6822F440421A4343
:1036FC004A6010F010001BD01E4AE9685368002085
:10370C0023F480030B43536012E00027D4E73368A3
:10371C0043F480733360FEF78FFB80463368D80523
:10372C00CED4FEF789FBA0EB08006428F6D9032061
:10373C0002B0BDE8F0816A6802F440729A42C3D0CC
:10374C0001200E4A236A1060002023F4407110609F
:10375C002162D907B8D5FEF76FFB41F288380646CF
:10376C00236A9A07B0D4FEF767FB801B4045F7D954
:10377C00DDE700BF001002400070004040044242F0
:10378C00036810B51A680446920708D55B689B0756
:10379C0005D500F08BFE6FF0020223685A604FF4DF
:1037AC000032024B5A610123637410BD00040140C6
:1037BC00F8B504460E4615461F462268936836EA4D
:1037CC00030301D000202DE06B1CF7D0FEF734FB77
:1037DC00C01B8542F1D823685A6822F0E0025A6077
:1037EC006268B2F5827F0AD1A268B2F5004F02D0AE
:1037FC00B2F5806F03D11A6822F040021A60A26AF7
:10380C00B2F5005F07D11A6822F400521A601A68E8
:10381C0042F400521A60012384F851300023032033
:10382C0084F85030F8BD10B513460A468021044682
:10383C00FFF7BEFF20B10320636D43F020036365E7
:10384C0010BD704710B50446002834D000238362A5
:10385C0090F8513003F0FF021BB980F85020FFF7AD
:10386C00F0FF0223226884F851301368A16923F019
:10387C0040031360D4E901300343E068034320693B
:10388C00034360690343E0690343206A0343A06A6E
:10389C00034301F40070090C034301F004011360AD
:1038AC005160D369002023F40063D3610123606568
:1038BC0084F8513010BD0120FCE72DE9F7431E467A
:1038CC0090F850300446012B0D469146DDF82880C7
:1038DC0000F0E080012380F85030FEF7ADFA94F848
:1038EC0051300746012B6268D9B20AD0B2F5827FFB
:1038FC0040F0CE80A368002B40F0CA80042940F031
:10390C00C780002D3FD0B9F1000F3CD0002E3AD02B
:10391C0094F85130C4F83890042B1CBF052384F85C
:10392C00513000236365C4E910332368E687E686CB
:10393C001968A687490658BF1968256358BF41F016
:10394C004001A68658BF1960E168B1F5006F51D1EE
:10395C000AB1012E07D135F8022BDA60E38E25630C
:10396C00013B9BB2E3860125E38E9BB26BB9E38FDF
:10397C009BB253B93A4641462046FFF754FF002804
:10398C007BD02023636501202BE021688B689A078C
:10399C000DD5E38E9BB253B14DB10025236B33F89B
:1039AC00022BCA602363E38E013B9BB2E3868A68D9
:1039BC0012F001020CD0E38F9BB24BB11546C968D3
:1039CC00A36B23F8021BA363E38F013B9BB2E3873A
:1039DC00FEF732FAC01B4045C6D3B8F1FF3FC3D047
:1039EC000320012384F85130002384F8503003B0B5
:1039FC00BDE8F0830AB1012E08D12A781A73236B23
:103A0C0001332363E38E013B9BB2E3860125E38EF6
:103A1C009BB21BB9E38F9BB2002BABD0226893688F
:103A2C009B070ED5E38E9BB25BB155B10025236B82
:103A3C001B781373236B01332363E38E013B9BB21F
:103A4C00E3862268916811F001010DD0E38F9BB2DF
:103A5C0053B10D46D268A36B1A70A36B0133A363E9
:103A6C00E38F013B9BB2E387FEF7E6F9C01B4045B1
:103A7C00CDD3B8F1FF3FCAD0B2E7A368002BB0D1C9
:103A8C0023680190DA6801929B680193019BA8E777
:103A9C000220A6E70220AAE770477047036810B51A
:103AAC001A69044691070ED5DA6892070BD56FF0A8
:103ABC0002021A61012202779B699B0777D001F001
:103ACC00F9F90023237723681A69500710D5DA68AF
:103ADC0051070DD56FF004021A61022222779B69FF
:103AEC00204613F4407F68D001F0E4F900232377DB
:103AFC0023681A6912070FD5DA6810070CD56FF016
:103B0C0008021A6104222277DB69204699075AD0F1
:103B1C0001F0D0F90023237723681A69D20610D557
:103B2C00DA68D0060DD56FF010021A6108222277E0
:103B3C00DB69204613F4407F4BD001F0BBF9002326
:103B4C00237723681A69D10708D5DA68D20705D517
:103B5C006FF0010220461A6101F0B0F923681A696E
:103B6C00100608D5DA68110605D56FF080022046DC
:103B7C001A6100F082F823681A69520608D5DA68CF
:103B8C00500605D56FF0400220461A61FFF785FFFD
:103B9C0023681A69910622D5DA6892061FD56FF050
:103BAC0020022046BDE810401A6100F065B801F013
:103BBC0083F92046FFF770FF83E701F07DF920467B
:103BCC00FFF76AFF92E701F077F92046FFF764FFF1
:103BDC00A0E701F071F92046FFF75EFFAFE710BDDB
:103BEC00164A10B59042036805D0B0F1804F02D050
:103BFC00134CA04210D14C6823F07003904243EA5E
:103C0C00040305D0B0F1804F02D00D4A904203D18D
:103C1C00CA6823F4407313434A6923F080031343A7
:103C2C0003608B68C3620B688362044B984204BFC9
:103C3C000B6903630123436110BD00BF002C0140DD
:103C4C000004004010B50446A0B190F83D3003F0DC
:103C5C00FF021BB980F83C2000F0F8FC022320681E
:103C6C0084F83D30211DFFF7BBFF0123002084F8B1
:103C7C003D3010BD0120FCE7704770470368DA68DF
:103C8C0022F49072DA605A6922F001025A61202300
:103C9C0080F83A30704790F83930202B18D1A9B100
:103CAC00A2B190F83830012B12D0C2840023828448
:103CBC00212201620168C36380F8383080F8392012
:103CCC00CA68184642F08002CA60704701207047EB
:103CDC000220704790F83A30202B20D1E9B1E2B1A4
:103CEC0090F83830012B1AD0C2858285002322220D
:103CFC00C36380F83A20026880F838308162D1685A
:103D0C00184641F48071D160516941F00101516153
:103D1C00D16841F02001D16070470120704702202A
:103D2C00704710B590F83A30222B33D18168046972
:103D3C00B1F5805F836A026823D15268ECB9C2F393
:103D4C00080223F8022B8362C48D013CA4B2C48503
:103D5C008CB90368DA6822F02002DA60DA6822F49F
:103D6C008072DA605A6922F001025A61202380F8CD
:103D7C003A3000F0FBFC00200DE0D2B223F8012B0E
:103D8C00E1E7591C526881620CB91A70DCE702F049
:103D9C007F02FAE7022010BD036870B51A6804466A
:103DAC001607D9685D6907D1960659D58D0657D582
:103DBC00BDE87040FFF7B5BF05F0010001F4907548
:103DCC0005434DD0D60705D5CD0542BFE36B43F077
:103DDC000103E363530704D518B1E36B43F002030B
:103DEC00E363960704D518B1E36B43F00403E36374
:103DFC00150704D518B1E36B43F00803E363E36BD9
:103E0C004BB3900604D5890602D52046FFF789FFEF
:103E1C00236820465B69E56B03F0400305F0080559
:103E2C001D4319D0FFF72AFF23685A6952060FD594
:103E3C005A69606B22F040025A6148B1254B4363CA
:103E4C00FEF792F838B1606BBDE87040436B1847D1
:103E5C00204600F0A1FC70BD00F09EFCE563FAE783
:103E6C00160628D50D0626D594F83920212AF2D12C
:103E7C00A168226AB1F5805F18D11188C1F30801DD
:103E8C005960216981B902322262E28C013A92B204
:103E9C00E284002ADFD1DA6822F08002DA60DA6884
:103EAC0042F04002DA60D6E70132EDE7511C2162A4
:103EBC0012785A60E9E75006CDD54A06CBD5DA68B8
:103ECC00204622F04002DA60202384F8393000F0DA
:103EDC0050FCC0E7E53E000808B50023406AC385E6
:103EEC00C38400F059FC08BD90F83830012B11D078
:103EFC002423026880F83930D36823F00C0343F094
:103F0C000803D360202380F83930002380F8383040
:103F1C00184670470220704790F83830012B11D0AA
:103F2C002423026880F83930D36823F00C0343F063
:103F3C000403D360202380F83930002380F8383014
:103F4C00184670470220704790F8392090F83A00D4
:103F5C001043704784B0032834D8DFE800F0020F18
:103F6C001B27194B19489A6942F004029A619B6904
:103F7C0003F004030093009B04B07047124B1448E9
:103F8C009A6942F008029A619B6903F00803019355
:103F9C00019BF1E70C4B0F489A6942F010029A61B1
:103FAC009B6903F010030293029BE5E7064B0A485A
:103FBC009A6942F020029A619B6903F020030393F3
:103FCC00039BD9E70020D7E700100240000801400E
:103FDC00000C01400010014000140140FDF72CBF03
:103FEC00704708B5FDF71CFFFDF7B9FFFFF7F8FFA9
:103FFC0008BD00000B4BDA68D2015EBFDA6842F0F4
:10400C008072DA600022084B5A601A6842F0010292
:10401C001A6000BF00BF00BF5868B0FA80F04009BA
:10402C00704700BFF0ED00E0001000E008B5FFF7AE
:10403C00E1FFFDF7E3FEBDE8084000F0C9BC00005D
:10404C000D4B07B5DA6942F08052DA61DB6903F097
:10405C0080530193019BFFF783F8084B5A68920732
:10406C0042BF1A6842F008021A601A6842F0040251
:10407C001A6003B05DF804FB0010024000700040B1
:10408C0070B50D0E445991FAA1F3B3FA83F30F26D0
:10409C009B0006FA03F324EA030491FAA1F1B1FAA6
:1040AC0081F1890002FA01F12143415170BD70B5D3
:1040BC000D0E445991FAA1F3B3FA83F304269B0035
:1040CC0006FA03F324EA030491FAA1F1B1FA81F19F
:1040DC00890002FA01F12143415170BD431C04D007
:1040EC000C3131F90C3C5A1C01D100207047834231
:1040FC0001F10C01F5D10120704700009F4B2DE917
:10410C00F74F00F00F0253F822B0431C06460D4641
:10411C0001F00707C0F303141FFA80F903D14721FC
:10412C00974800F0D5F92046FFF714FF012F0446FD
:10413C00DFF854824FEA1B6A46D150F80A109BFAFA
:10414C00ABF3B3FA83F303229B0002FA03F321EAE5
:10415C0003039BFAABF1B1FA81F189008A40134356
:10416C00012240F80A3059462046013FFFF788FFEC
:10417C00012F06D815F0080218BF04225946FFF784
:10418C0096FF54F80A10C5F301159BFAABF2B2FA7C
:10419C0082F39A000F2393400B409BFAABF2B2FAD6
:1041AC0082F2012D4FEA820223FA02F300F0EE8034
:1041BC00022D00F01A81082B40F0FD800422594694
:1041CC002046FFF75DFFF6E0032F00F2CF80DFE81B
:1041DC0017F0D30004000600D1003A46C3E7D8F824
:1041EC00183043F00103C8F81830D8F8183003F031
:1041FC0001030093009BC5F30623013B232B1AD824
:10420C00DFE803F0121B22292E353A411919194601
:10421C004D565B626B7479808919191919198E9531
:10422C00191919199A9FA6AD564A536843F0E063C1
:10423C0043F001035360092295E7524A536823F077
:10424C00010343F0E063F5E74E4A536843F0E06343
:10425C0043F00203EEE74B4A536823F00203F0E706
:10426C00484A536843F0E06343F00403E2E7454AED
:10427C00536823F00403E4E7424A536843F0E063D5
:10428C0043F00803D6E73F4A536823F00803D8E706
:10429C003C4A536843F0E06343F0C003CAE7394A31
:1042AC00536823F0C00343F0E06343F04003C1E7DD
:1042BC00344A536823F0C003C3E7324A536843F0CF
:1042CC00E06343F44073B5E72E4A536823F440731C
:1042DC0043F0E06343F40073ACE72A4A536823F4D9
:1042EC00407343F0E06343F48073A3E7254A5368BB
:1042FC0023F44073A5E7234A536843F0E06343F487
:10430C00406397E71F4A536823F4406343F0E0632C
:10431C0043F400638EE71B4A536823F4406390E731
:10432C00184A536843F0E06343F4004382E7154AAC
:10433C00536823F4004384E7124A536823F0E06384
:10434C0078E7104A536823F0E06343F0807371E719
:10435C000C4A536823F0E06343F000736AE7094AA0
:10436C00536823F0E06343F0806363E771210448F2
:10437C0000F0AEF80022F6E60822F4E648590008F0
:10438C00D15800080000014000100240042B04D159
:10439C00082259462046FFF773FEE3684FEA1B22BA
:1043AC0023EA1B2B92FAA2F3B3FA83F20123934074
:1043BC0043EA0B03E360D8F8183043F00103C8F864
:1043CC001830D8F8183003F001030193019BA9F1C0
:1043DC000D03012B18D8134A536823F0E06343F004
:1043EC008063536003B0BDE8F08F042B04D1082226
:1043FC0059462046FFF744FEE3684FEA1B2223EAA6
:10440C001B2392FAA2F2D5E70F2E04D0A9F11309BF
:10441C00B9F1010FE6D8034A536823F0E06343F087
:10442C000073DEE700000140431C06D17047834255
:10443C0002D18968FFF762BE0C31B1F900305A1C09
:10444C00F5D19D21014800F043B800BFD1580008B8
:10445C00B1F900305A1C01D100207047834201D1C0
:10446C00486870470C31F3E7431C01D0FFF7F0BFED
:10447C00002070474B6813B94FF0FF3070478342F0
:10448C0002D1B1F9000070470C31F3E708B1FFF726
:10449C00F1BF4FF0FF30704703468B42084604D003
:1044AC001BB100290CBF184600207047034B1B683A
:1044BC0013B1034A10681847704700BF4803002027
:1044CC00600300200148FFF75BB900BF4C030020DC
:1044DC00FEE700000F4B1A6842F001021A6059689F
:1044EC000D4A0A405A601A6822F0847222F4803213
:1044FC001A601A6822F480221A605A6822F4FE02AA
:10450C005A604FF41F029A604FF00062034B9A609E
:10451C00704700BF001002400000FFF800ED00E003
:10452C00043870470368164A84B093420BD1154B7C
:10453C009A6942F400629A619B6903F400630193E7
:10454C00019B04B07047B3F1804F0DD00E4A9342DB
:10455C00F7D10C4BDA6942F00202DA61DB6903F045
:10456C0002030393039BECE7064BDA6942F001026A
:10457C00DA61DB6903F001030293029BE1E700BF00
:10458C00002C0140001002400004004003680E4A59
:10459C00934206D102F56442936923F4006393615C
:1045AC007047B3F1804F03D0084A934206D070474E
:1045BC00074AD36923F00103D3617047044AD369D6
:1045CC0023F00203F8E700BF002C01400004004078
:1045DC000010024008B5431C01460CD00A4B98420F
:1045EC000CD003F5943398420AD0B0F1804F09D027
:1045FC000648FFF76DFF6FF00D0008BD1D20FCE7AE
:10460C001920FAE71C20F8E700040040A059000824
:10461C0008B5431C01460CD00A4B98420CD003F54C
:10462C00943398420AD0B0F1804F09D00648FFF776
:10463C004FFF6FF00D0008BD1D20FCE71B20FAE7B3
:10464C001C20F8E700040040A059000838B50446C7
:10465C00FFF768FF0068FFF7BDFFD4E91012FDF704
:10466C0003FC2068FFF7B6FFFDF730FC2068FFF76E
:10467C00CFFF05462068FFF7ADFF85420DD02068BF
:10468C00FFF7C6FFD4E91012FDF7EEFB2068FFF729
:10469C00BFFFBDE83840FDF719BC38BD08B5074B66
:1046AC0090F8512053F82200FFF74EFC00F0220046
:1046BC00A0F122035842584108BD00BF64030020FA
:1046CC0008B5074B90F8512053F82200FFF73CFC3B
:1046DC0000F02100A0F121035842584108BD00BF51
:1046EC006403002010B50446E8B1816490F95000D1
:1046FC00FDF7FAFBB4F86230A16D9BB294F851004F
:10470C001944094B012253F82000FFF7C4FA94F91D
:10471C00500000220121FDF7A7FB94F95000BDE8E1
:10472C001040FDF7D3BB10BD6403002050B1B0F9AD
:10473C004E30013306D190F85120034B53F8220030
:10474C00FFF7D2BB704700BF6403002050B1B0F933
:10475C004E30013306D190F85120034B53F8220010
:10476C00FFF7DABB704700BF64030020036C04380A
:10477C00184710B5436C04460438984701300AD0EA
:10478C00B4F85E30616D9BB22046BDE8104001224A
:10479C001944FFF780BA10BD1FB5036804461868AA
:1047AC0010F0010013D0002200921A6800925B688E
:1047BC000093009B201FFFF771FF40BB0122204696
:1047CC0004F14E0104B0BDE81040FFF783BA19683C
:1047DC0011F0020106D001901A6801925B680193F6
:1047EC00019BE7E71A6812F0040206D002911A68DE
:1047FC0002925B680293029BDCE719680907D9D522
:10480C0003921A6803925B680393039BD2E704B08C
:10481C0010BD000008B52520FDF790FB024B186871
:10482C00BDE80840FFF7B8BA6403002008B526209D
:10483C00FDF784FB024B5868BDE80840FFF7ACBAA3
:10484C0064030020F8B514490646FFF70DFE00F08E
:10485C00C1FA124C054654F8203073B90E49304653
:10486C00FFF702FE07466C2000F080FC0646394636
:10487C0000F0C6FA54F825301E6054F825301C6838
:10488C0044B1204600F002FB2046BDE8F8406C2104
:10489C0000F06EBCF8BD00BF005A0008BC0500203B
:1048AC00836810B5044613B103220146984720468D
:1048BC0010BD00000023012803F1010202D01346B1
:1048CC004008F8E71421DBB24B43044A181D10448E
:1048DC00816811B11A441369184770476C030020A2
:1048EC000120FDF78BBB0220FDF788BB0420FDF7F0
:1048FC0085BB0820FDF782BB1020FDF77FBB38B5C8
:10490C0005242025A8B2FDF779FB013C4FEA4505AB
:10491C00F8D138BD38B506244FF48065A8B2FDF740
:10492C006DFB013C4FEA4505F8D138BD0721204B02
:10493C0006221975082183F82810092183F83C10E8
:10494C000A2183F8501017211A7083F86410002282
:10495C0083F8781083F88C1083F8A01083F8B410C7
:10496C002821DA601A625A639A64DA651A67C3F806
:10497C008420C3F89820C3F8AC20C3F8C02083F877
:10498C00C810C3F8D42083F8DC10C3F8E82083F8EF
:10499C00F010C3F8FC2083F80411C3F8102183F83D
:1049AC001811C3F8242183F82C11C3F8382170474F
:1049BC006C03002038B5054CA4F5A075143C201DE3
:1049CC00FFF76EFFAC42F9D138BD00BFAC0400203C
:1049DC0010B54FF480330122022494B00021CDE9AC
:1049EC000A23CDE911434FF4E0130AA80C910E925F
:1049FC001393FEF7BBFB00B1FEE70F23CDE90534A3
:104A0C004FF480630790CDE90830214605A8FEF7E6
:104A1C0083FD00B1FEE7122301934FF40043CDE96F
:104A2C00033001A8FEF734FE00B1FEE714B010BD50
:104A3C00002103E00B4B5B58435004310A480B4BED
:104A4C0042189A42F6D30A4A02E0002342F8043B89
:104A5C00084B9A42F9D3FFF73DFD00F0BBFB00F089
:104A6C0075FB7047E05D000800000020840000200A
:104A7C0088000020E4050020FEE7704722282DE97D
:104A8C00F0410E463DD8204B33F91040621C38D013
:104A9C001E4DC4F3031755F8273004F00F0823FA02
:104AAC0008F3DB0710D520461949FFF717FB10B1A7
:104ABC002046FFF7C7FE012303FA08F255F827300A
:104ACC0023EA020345F82730052E14D8DFE806F058
:104ADC00030F090B0D1100212046BDE8F041FFF733
:104AEC000DBB1021F8E72021F6E70321F4E70121A3
:104AFC00F2E70921F0E74921BDE8F0410548FFF74D
:104B0C00E7BCBDE8F08100BFF85B0008AC040020F6
:104B1C00005A00083E5C000822288EBF4FF0FF337D
:104B2C000C4B33F910301A0912F00C0F02BF0A4863
:104B3C0002F00F0250F82220084803F00F0350F83F
:104B4C00233018BF0022C3F30F2309B11361704740
:104B5C0053617047F85B00080C00002048590008AE
:104B6C00FFF73CBA38B5044648B1FFF737FA0546AB
:104B7C00FFF783FFFFF732FA431BA342F8D338BD8C
:104B8C00B0F86230013303F03F03A0F86230B0F8A4
:104B9C006230B0F85E009BB298424FF0FF3018BF05
:104BAC0000207047B0F8F430B0F8F000181A00F09C
:104BBC003F007047B0F8F430B0F8F0209BB293424D
:104BCC001ABFD0F8E830985C4FF0FF307047000007
:104BDC00012370B50374B0F9E230044601330E467C
:104BEC0000F1940508D190F8F8302BB1002380F82F
:104BFC00F8302846FFF79AFDB4F8F2104B1C03F07E
:104C0C003F03B4F8F62092B29342FAD0D4F8EC20D9
:104C1C0028465654A4F8F230FFF752FD18B928462E
:104C2C000249FFF75FFD012070BD00BF8D4B0008EE
:104C3C00037C33B1B0F8F220B0F8F6309BB29A4254
:104C4C00FAD1704700F11103914208BF4FF0FF31C8
:104C5C00C0F8E8300023A0F8E02000F15102A0F8E1
:104C6C00F430C0E93B23A0F8E210A0F8F63070470E
:104C7C0070B54FF47A7316460022C0E90123164B27
:104C8C00044603604FF6FF73A0F8E230134B0D4659
:104C9C00984213D1124B9A8AA0F8E220DB8AA0F832
:104CAC00E0301EB14FF6FF73A4F8E2302046B4F9A1
:104CBC00E020B4F9E210FFF7C5FF70BD09492846A2
:104CCC00FFF7E4FB0849A4F8E2002846FFF7DEFBF7
:104CDC00A4F8E000E5E700BFB45C0008BC040020C9
:104CEC00F85B0008985B0008C85B0008B0F9E2307C
:104CFC0010B5013304460ED103685B69984794F8EC
:104D0C00F83043B9012304F1940084F8F830BDE87D
:104D1C001040FFF71BBD10BD10B50446FFF7E6FFB2
:104D2C00B4F8F420B4F8F03092B29A4217BFD4F829
:104D3C00E8204FF0FF30D05C01331CBF03F03F0381
:104D4C00A4F8F03010BD0000002202490248FFF721
:104D5C008FBF00BF00380140BC04002010B50446D2
:104D6C0020B940F2CB310648FFF7B2FB2046FFF7E3
:104D7C00D7FB0068436D13B1BDE81040184710BD58
:104D8C00D45C000870B5054620B940F2DE311048FD
:104D9C00FFF79EFB2B7F013B072B17D8DFE803F0B7
:104DAC00140416101616161202242846FFF7B8FB28
:104DBC00006800EB8404636D43B1BDE87040184794
:104DCC000324F2E70424F0E70124EEE770BD00BFF2
:104DDC00D45C0008084B98420AD0B0F1804F09D03F
:104DEC004FF6FF73054A904214BF184602207047D5
:104DFC000020704701207047002C01400004004047
:104E0C0070B5044608460D46FFF7E4FF4FF6FF73F6
:104E1C009842064603D132211A48FFF759FB1A4B28
:104E2C0004F1080243F82620E5600E23002504F166
:104E3C000C063046C4E91335C4E90B55C4E90D55CD
:104E4C00C4E90F5584F82850656484F8485084F8F8
:104E5C004950A460FFF766FB4FF6FF733046C4E978
:104E6C001555C4E91755C4E91955C4E90055C4E9E9
:104E7C000553C4E9075525616562FEF7E3FE20463C
:104E8C0070BD00BFD45C0008BC050020014638B5DD
:104E9C00044651F80C0FFFF79DFF05460846FFF737
:104EAC0075FB0022024B204643F8252038BD00BF7D
:104EBC00BC050020FFF766BFFFF764BFFFF74EBFCE
:104ECC00034B186810B10430FEF7E8BD704700BF03
:104EDC00BC050020FFF7F4BF034B586810B1043039
:104EEC00FEF7DCBD704700BFBC050020034B986883
:104EFC0010B10430FEF7D2BD704700BFBC050020D6
:104F0C00F8B505460E4617460024BC4207D02B6860
:104F1C0028461B68315D984708B10134F5E72046F7
:104F2C00F8BD70B505460C46084649B1FBF7E8F8E4
:104F3C002B68024621462846BDE870405B6818473E
:104F4C0070BD000008B50249FFF7EBFF08BD00BFBC
:104F5C00425D000838B50546FFF7E3FF04462846D6
:104F6C00FFF7F0FF204438BD10B50446FFF7F8FDFD
:104F7C00E06023682046DB689847002808DAFFF7D2
:104F8C00EFFDE368C01AA3689842F2D34FF0FF30EC
:104F9C0010BDF8B506460D4617460024BC4207D096
:104FAC003046FFF7E1FF031E02DB2B550134F5E71A
:104FBC002046F8BD2DE9F0410746884616461D46A9
:104FCC0073B100243846FFF7CFFF031E05DB4345C2
:104FDC0003D033550134A542F4D12046BDE8F0810D
:104FEC001C46FAE78160704710B50446006800F073
:104FFC001DF9204610BD10B50446006808B100F03C
:10500C0015F90023C4E90133236010BD38B50446FB
:10501C000D460068013100F0CDF910B1C4E900056E
:10502C00012038BD036810B5044623B143688B4298
:10503C0001D3012010BD2046FFF7E8FF0028F9D06E
:10504C00A368002BF5D122681370F2E770B50E46F9
:10505C00114604461546FFF7E5FF20B92046FFF739
:10506C00CAFF204670BD31462068A56000F0BAF931
:10507C00F7E738B5002304460D46C0E900338360DA
:10508C0039B10846FBF73CF8294602462046FFF7A3
:10509C00DDFF204638BD38B5054600680C4638B1F2
:1050AC00096819B16A68A3689A420BD200F0BEF87D
:1050BC0023682B6063686B60A368AB600023C4E952
:1050CC00003304E000F08EF9A368AB600023A3600A
:1050DC0038BD884210B5044601D0FFF7DCFF2046EE
:1050EC0010BD884210B5044601D0FFF7D4FF20460E
:1050FC0010BD38B505460C4649B10846FBF700F81B
:10510C00214602462846FFF7A1FF284638BDFFF787
:10511C0072FFFAE710B5002304468AB0C4E90033E5
:10512C00A360084601A900F027F8204601A9FFF763
:10513C00E0FF20460AB010BD704708B50320FCF70D
:10514C0081FEBDE8084000F015B8000008B5FFF777
:10515C00F3FFFBF72FFC044CFBF764FC002CFBD09B
:10516C00AFF30080F8E700BF0000000000F056B875
:10517C0000F05CB8FEF75ABF70B504468AB008461A
:10518C0089B1931E222B23D801AD29466CB9A942B3
:10519C000BD00B46421EAB4215D84B1B8D4288BF21
:1051AC0000230022C2540AB070BDB4FBF2F302FB20
:1051BC0013461C46092EF3B294BF30335733DBB27F
:1051CC0001F8013BE2E713F8014D02F8014FE2E769
:1051DC000020E8E770B500260C4D0D4C641BA410A4
:1051EC00A64209D100F0A4FA00260A4D0A4C641B11
:1051FC00A410A64205D170BD55F8043B9847013662
:10520C00EEE755F8043B98470136F2E7B05D00082D
:10521C00B05D0008B05D0008D45D0008024B01468B
:10522C00186800F06DB800BF20000020024B01464A
:10523C00186800F019B800BF200000200A44914201
:10524C0000F1FF3300D1704710B511F8014B9142BA
:10525C0003F8014FF9D110BD03460244934200D12B
:10526C00704703F8011BF9E738B50546002943D010
:10527C0051F8043C0C1F002BB8BFE41800F0BCF82C
:10528C001E4A1368104633B9636014602846BDE8A3
:10529C00384000F0B7B8A3420AD92168621893428B
:1052AC0001BF1A685B685218226063600460EDE706
:1052BC001A465B680BB1A342FAD911685018A04288
:1052CC000BD120680144501883421160DED118685C
:1052DC005B68014411605360D8E702D90C232B6042
:1052EC00D4E7206821188B4201BF19685B68091844
:1052FC00216063605460C9E738BD00BFC805002059
:10530C00F8B5CD1C25F0030508350C2D38BF0C2540
:10531C00002D064601DBA94203D90C233360002083
:10532C00F8BD00F069F821490A6814469CB9204F71
:10533C003B6823B92146304600F044F838602946D2
:10534C00304600F03FF8431C23D10C233046336029
:10535C0000F058F8E3E723685B1B17D40B2B03D939
:10536C0023601C44256004E06368A2420CBF0B6000
:10537C005360304600F046F804F10B00231D20F07A
:10538C000700C21ACCD01B1AA350C9E72246646886
:10539C00CCE7C41C24F00304A042E3D0211A30460D
:1053AC0000F010F80130DDD1CFE700BFC8050020B8
:1053BC00CC050020024B0A460146186800F028B8BC
:1053CC002000002038B50023054D044608462B600C
:1053DC00FCF7D0FC431C02D12B6803B1236038BD11
:1053EC00D4050020034611F8012B03F8012B002AE9
:1053FC00F9D17047704770470148FFF7FBBF00BFFA
:10540C00DC0500200148FFF7F6BF00BFDC050020DB
:10541C00F8B5074614460E4621B91146BDE8F840CA
:10542C00FFF76EBF22B9FFF71FFF25462846F8BDD0
:10543C0000F014F8A0420FD221463846FFF760FF67
:10544C0005460028F2D031462246FFF7F7FE3146DA
:10545C003846FFF709FFE9E73546E7E751F8043C22
:10546C00181F002BBCBF0B58C01870472DE9F04714
:10547C00089E0D4604468E46002B40F083808A42DF
:10548C00174647D9B2FA82F34BB1C3F1200105FAA2
:10549C0003FE20FA01F19F4041EA0E0E9C404FEAB8
:1054AC001748BEFBF8FC1FFA87F908FB1CE20CFB43
:1054BC0009F0210C41EA024290420AD9BA180CF1C7
:1054CC00FF3180F01881904240F21581ACF1020C52
:1054DC003A44121AB2FBF8F008FB102200FB09F157
:1054EC00A4B244EA0244A14209D93C1900F1FF32AA
:1054FC0080F00381A14240F2008102383C44641ADE
:10550C00002140EA0C401EB10022DC40C6E90042FA
:10551C00BDE8F08702B9FFDEB2FA82F3002B4FD15F
:10552C008D1A01214FEA124E1FFA82F8B5FBFEFCD0
:10553C000EFB1C5508FB0CF0220C42EA0545A84258
:10554C0007D97D190CF1FF3202D2A84200F2E98092
:10555C0094462D1AB5FBFEF00EFB105508FB00F817
:10556C00A4B244EA0544A04507D93C1900F1FF3226
:10557C0002D2A04500F2D9801046A4EB080440EA00
:10558C000C40C0E78B4208D9002E00F0B1800021FE
:10559C00C6E900050846BDE8F087B3FA83F1002997
:1055AC004BD1AB4202D3824200F2B980841A65EB34
:1055BC00030301209E46002EAAD0C6E9004EA7E7A1
:1055CC009F40C3F12002D1404FEA174EB1FBFEF0D1
:1055DC001FFA87F80EFB101124FA02F29D4000FB13
:1055EC0008FC2A43150C45EA0145AC4504FA03F4C2
:1055FC0009D97D1900F1FF3180F08F80AC4540F264
:10560C008C8002383D44A5EB0C05B5FBFEF10EFB7E
:10561C00115C01FB08F995B245EA0C45A94507D97F
:10562C007D1901F1FF3274D2A94572D902393D447A
:10563C00A5EB090541EA004178E7C1F120078B4051
:10564C0022FA07FC4CEA030C25FA07F44FEA1C4E2D
:10565C00B4FBFEF91FFA8CF80EFB194420FA07F381
:10566C0009FB08FA8D401D432B0C43EA0444A24568
:10567C0002FA01F200FA01F309D91CEB040409F156
:10568C00FF3048D2A24546D9A9F102096444A4EBE3
:10569C000A04B4FBFEF00EFB104400FB08FAADB29A
:1056AC0045EA0444A24508D91CEB040400F1FF357B
:1056BC002DD2A2452BD90238644440EA0940A0FB04
:1056CC000289A4EB0A044C45C6464D4619D316D0A4
:1056DC005EB1B3EB0E0264EB050404FA07F722FA91
:1056EC0001F31F43CC40C6E900740021BDE8F087EC
:1056FC00314630460CE78C46EBE61046FFE6434558
:10570C00E6D2B8EB020E69EB0C050138E0E728464F
:10571C00D3E711468CE78146B9E7084673E708469C
:10572C0049E7ACF1020C3D4413E702383C4424E752
:10573C00F8B500BFF8BC08BC9E467047F8B500BF72
:08574C00F8BC08BC9E46704742
:105754004C6F526120696E6974206661696C65647E
:105764002E20436865636B20796F757220636F6EBA
:105774006E656374696F6E732E004E6F20656E6F75
:10578400756768206D656D6F7279212028256929F8
:105794000A002F686F6D652F736172626A656574A4
:1057A4002F736E61702F61726475696E6F2F36315D
:1057B4002F2E61726475696E6F31352F7061636B62
:1057C400616765732F53544D33322F686172647768
:1057D4006172652F73746D33322F312E382E302F52
:1057E4006C69627261726965732F576972652F7390
:1057F40072632F576972652E637070000000000099
:1058040000000000710B0008490C0008B50A0008EC
:10581400C90A0008F50A0008190C00089F4F00087F
:10582400C14F00082F686F6D652F736172626A65DE
:1058340065742F736E61702F61726475696E6F2F5A
:1058440036312F2E61726475696E6F31352F706138
:10585400636B616765732F53544D33322F686172E4
:1058640064776172652F73746D33322F312E382E45
:10587400302F6C69627261726965732F5769726542
:105884002F7372632F7574696C6974792F747769D7
:105894002E6300000000000000000000D51A00087C
:1058A400D91B0008A71B0008B71B00081D1C000813
:1058B400ED1A00089F4F0008C14F000802030405B9
:1058C400060708090A0B0C0D0E0F1010002F686F45
:1058D4006D652F736172626A6565742F736E617092
:1058E4002F61726475696E6F2F36312F2E61726469
:1058F40075696E6F31352F7061636B616765732FE6
:1059040053544D33322F68617264776172652F731B
:10591400746D33322F312E382E302F6C69627261E0
:10592400726965732F537263577261707065722F59
:105934007372632F73746D33322F70696E6D61707F
:105944002E630000010100000202000004040000B4
:105954000808000010100000202000004040000053
:105964008080000001000104020002040400040419
:105974000800080410001004200020044000400423
:105984008000800400000000000000000102030405
:1059940006070809000000000102030454494D3AB7
:1059A40020556E6B6E6F776E2074696D6572204939
:1059B40052516E0016000000005400400A0000001E
:1059C40018000000005400400A030000FFFF00001C
:1059D4000000000000000000170000000054004018
:1059E4000A00000019000000005400400A030000EF
:1059F400FFFF0000000000000000000000000000A5
:105A0400000000401280000001000000000000407F
:105A1400120001000200000000000040128001009A
:105A24000300000000000040120002000600000015
:105A34000004004012800000070000000004004041
:105A44001200010008000000002C01401280000038
:105A540009000000002C0140120001000A000000AF
:105A6400002C0140128001000B000000002C0140BA
:105A7400120002000F00000000000040128F00001E
:105A8400100000000004004012800100110000001A
:105A94000004004012000200130000000000004057
:105AA400120F0100140000000004004012940000D2
:105AB4001500000000040040121401001A00000048
:105AC40000000040128F01001B0000000000004095
