:020000022000DC
:1070000000000420E1720200097302000B73020009
:107010000D7302000F7302001173020000000000E4
:1070200000000000000000000000000013730200D8
:1070300015730200000000001773020019730200AC
:1070400039A002001B73020089A902001B73020011
:107050001B7302001B730200B5A402001B73020025
:107060001B7302001B7302001B7302001B730200E0
:107070001B7302001B7302001B7302001B730200D0
:107080001B730200D98C02001B7302001B730200E9
:107090001B7302001B730200D1CC02001B730200A1
:1070A0001B7302001B7302001B7302001B730200A0
:1070B0001B7302001B7302000000000000000000B0
:1070C0001B7302001B7302001B7302001B73020080
:1070D0001B7302001B7302001B7302001B73020070
:1070E0001B7302001B7302001B73020000000000F0
:1070F000000000001B730200000000001B73020070
:10710000000000000000000000000000000000007F
:10711000000000000000000000000000000000006F
:10712000000000000000000000000000000000005F
:10713000000000000000000000000000000000004F
:10714000000000000000000000000000000000003F
:10715000000000000000000000000000000000002F
:10716000000000000000000000000000000000001F
:10717000000000000000000000000000000000000F
:1071800000000000000000000000000000000000FF
:1071900000000000000000000000000000000000EF
:1071A00000000000000000000000000000000000DF
:1071B00000000000000000000000000000000000CF
:1071C00000000000000000000000000000000000BF
:1071D00000000000000000000000000000000000AF
:1071E000000000000000000000000000000000009F
:1071F000000000000000000000000000000000008F
:1072000010B5054C237833B9044B13B10448AFF3E0
:1072100000800123237010BD4825002000000000DD
:10722000E4DD02000C4B43B10C480D4910B5AFF33F
:1072300000800C48036823B910BD0A48036833B9BD
:107240007047094B002BF7D0BDE810401847064B9C
:10725000002BF5D0184700BF00000000E4DD02005D
:107260004C2500204025002000000000154B002B7D
:1072700008BF134B9D46A3F5803A00218B460F466D
:107280001348144A121A05F000FF0F4B002B00D0D0
:1072900098470E4B002B00D0984700200021040097
:1072A0000D000D48002802D00C48AFF3008005F017
:1072B0009DFE2000290004F04DFA05F083FE00BF7A
:1072C0000000080000000420000000000000000092
:1072D00048250020602E0020000000000000000073
:1072E0000649074A074B9B1A03DD043BC858D05098
:1072F000FBDC02F091FBFFF7B9FF0000DCDE0200CF
:107300000023002048250020FEE7FEE7FEE7FEE719
:10731000FEE7FEE7FEE7FEE7FEE7FEE7F0B595B025
:10732000002415460F4608461E4602F017FA384656
:1073300023460822089505A91A9D09960D950A94D9
:107340008DF82C400C9402F065FA9DF814300798E3
:1073500006998DF8114003F00302012A029003916F
:1073600028D0022A04D0384602F0FCF915B0F0BD4E
:10737000BDF81650C3F3C2038DF81030C5F389155C
:107380000826082D2C4628BF0824334622460EA97D
:10739000384602F03FFA2D1B214608AB02AA0EA880
:1073A000264400F001FD002DEBD1384602F0DAF959
:1073B00015B0F0BDBDF81460059DC6F38316C3F388
:1073C000C204B2000EA9384608238DF81040C5F358
:1073D000952502F01FFA08AB0093324628460EA905
:1073E00002AB00F03BFCBEE7014B01221A70704774
:1073F000A8250020704700BF00B583B0044B009360
:10740000044A4023FFF78AFF03B05DF804FB00BF86
:10741000197402006825002038B50E480E4D037817
:107420000E4CEB5C00252570D2B253B90C3003F042
:107430003BFD58B90A4B1B7813B12378002BFCD0C5
:1074400038BD043004F016F80028F3D000F082FFB5
:10745000F0E700BF002300205C2E0020A8250020BC
:107460006425002070B51348134A0378D35C88B0B4
:10747000DBB90C3003F094FC104D0FCD6C460FC4FB
:1074800095E80F0008AD1F2645F8206D84E80F0031
:1074900029460022074802F04FFD08B100F05AFFCC
:1074A000074B00221A7008B070BD043003F02EFFA5
:1074B000E2E700BF002300205C2E0020E0D00200A5
:1074C0006425002070B50D4D0FCD88B06C460FC4FB
:1074D00095E80F0008AD1F2645F8206D84E80F00E1
:1074E0002946074A074802F027FD08B100F032FF9D
:1074F000054B01221A7008B070BD00BFE0D0020039
:10750000E9730200002300206425002008B5FFF77E
:10751000D9FF0421034800F05BFB034B01225A71A1
:1075200008BD00BFC4DE02001423002070B5324D38
:1075300084B005F5836001F0D1FC05F2144001F040
:10754000CDFCAB68D8B2C11C05EB810215F8214017
:1075500014F004040ED0117801F0030101293AD08F
:10756000022903F1020600F1030126D005EB810296
:10757000002CF0D105EB80005A1CC1680191D2B2F9
:1075800005EB820201F00301D2680292012903F1A6
:10759000020428D0022924D1BDF80630BDF80A60C3
:1075A000C3F38913033304EB9304144801F0A4FCE0
:1075B00000B1AC60304604B070BD538806EB931345
:1075C000D8B2C11C05EB810215F8214004F0040477
:1075D000002CC0D1CEE712880233C2F383121344C9
:1075E000EEE70026E1E7BDF80430BDF80A60C3F31A
:1075F00083131C44D9E700BF7C260020902A00207A
:10760000064B074810B500221A7002F05DF80446D8
:1076100010B9044802F074F9204610BD7C26002001
:1076200038DE020020D1020021B9114B03EBC0006B
:107630000068704730B40F4A0D4C121BD2080CD0B2
:107640000D4D2B88834210D0002303E035F8231022
:10765000814205D001339A42F8D1002030BC7047F6
:1076600004EBC300006830BC70472046FAE700BF57
:107670004CDE0200C4DE020044250020094B013923
:1076800003EBC00003290BD8DFE801F00208060471
:107690000220704740797047007970470420704796
:1076A000002070474CDE0200704700BF2DE9F04318
:1076B0008B4C6268A3689A4285B000F0C3800023B7
:1076C000C4F81834BFF34F8FA368D9B2CA1C04EBB7
:1076D000820514F82220500719D566682A7802F02E
:1076E0000302012A43D0022A03F1020202D16B886D
:1076F00002EB9313D9B2D4F81804CA1C04EB820528
:1077000028B99E4239D914F822205207E6D404EB56
:1077100081015A1CC9680191D2B204EB820201F0C6
:107720000301D2680292022903F1020529D001293E
:1077300000F08C80D4F810543DB12B6828469B682B
:107740009847EB681D68002DF7D16648664B67497E
:10775000C01AC008000440F0020000F0CDF8A06894
:107760006368C01A18BF012005B0BDE8F0832A88FD
:107770000233C2F383121344BCE7A66005B0BDE830
:10778000F083BDF806305A48C3F38918B8F1500F9A
:10779000C146A8BF4FF0500969F38F1309F10801E2
:1077A000ADF8063001F092FF06460028C2D001F085
:1077B000D5FF002301A90822304601F0F5FFEB4375
:1077C000DBB201339F00B945E9B27AD9A9EB0709C9
:1077D000033104EB810108233A4630465FFA89F908
:1077E00001F0E2FF4A4607F108034249304601F042
:1077F000DBFF08F1030705EB9707D4F81834002BDB
:1078000068D1D4F810545DB1EB685A7931462846F6
:107810001AB12B681B689847EB681D68002DF3D1DF
:10782000304601F09FFF04A8002300F80D3D01F051
:10783000BFF8D4F8183403B9A7609DF8030001F02D
:10784000DDF88CE7002005B0BDE8F083BDF804301A
:107850002748C3F38312062A28BF0622911C62F32D
:1078600089138900ADF8043001F030FF0646002886
:107870003FF460AF01F072FF0023082201A93046F7
:1078800001F092FFBDF8043013F4707F26D04FF062
:1078900000094FF00808E9B20331434604EB8101C7
:1078A0000422304601F080FFBDF8043009F10109DF
:1078B000C3F383136F1C4B4508F104083D46EAD817
:1078C0009BE703314A4604EB81010823304601F06F
:1078D0006BFF8EE7304601F045FF40E72F468CE70F
:1078E0007C26002074DE02004CDE02002CD1020057
:1078F00038DE0200882600202DE9F04182B002AB7C
:10790000002203F8012D324C07461846884601F044
:107910004FF8A368666803F580739B1B012B55D84D
:1079200004F21C450121284601F0BCFAFFF7FEFDD8
:107930000146284601F0B6FAA368626803F5807331
:107940009B1A012BEED90125D3B2033345F0040174
:1079500002326FF389119DF8070044F8231062602A
:1079600001F04CF800211B4801F074FA80F310007C
:107970007319DBB204EB83030004F6B2033640EA6A
:107980001740D86014F8263067F3C50304F8263092
:1079900034F826306FF3891324F8263054F8262063
:1079A00068F39F22134665F301036FF3820344F8E3
:1079B000262004F8263023781BB1FFF777FE002835
:1079C000FBD1FFF771FE02B0BDE8F0813246BAE7A5
:1079D0007C260020982A00202DE9F04383B002ABDA
:1079E000002403F8014D374C064618460F469146D1
:1079F00000F0DEFFA368656803F580735B1B022B54
:107A00005DD804F21C480121404601F04BFAFFF713
:107A10008DFD0146404601F045FAA368626803F512
:107A200080739B1A022BEED94FF00108D3B20333B7
:107A300048F0040168F38911033244F823109DF8DB
:107A40000700626000F0DAFFAB1CDBB204EB8303DB
:107A500000211D48C3F80C9001F0FCF980F31000E0
:107A600005EB0802D2B204EB82020004EBB203334E
:107A700040EA1640D06014F8232066F3C50204F8EB
:107A8000232034F8232068F3891224F8232054F8A3
:107A9000231067F39F210A4668F301026FF3820205
:107AA00044F8231004F8232023781BB1FFF7FEFDD0
:107AB0000028FBD1FFF7F8FD03B0BDE8F0832A46AC
:107AC000B2E700BF7C260020982A00202DE9F04F65
:107AD00083B002AD002405F8014D3B4C0746284613
:107AE00099468846924600F063FFA368666803F5EE
:107AF00080739B1B032B64D804F21C45012128468C
:107B000001F0D0F9FFF712FD0146284601F0CAF94D
:107B1000A368626803F580739B1A032BEED90125D5
:107B2000D3B24FF0020B033345F004016BF389111C
:107B300044F8231004329DF80700626000F05EFFF5
:107B400006EB0B02F31CD2B2DBB204EB820204EBB5
:107B5000830300211D48C2F80CA0C3F80C9001F06B
:107B600079F980F310007319DBB204EB830300048E
:107B7000F6B2033640EA1740D86014F8263067F3AF
:107B8000C50304F8263034F826306BF3891324F843
:107B9000263054F8262068F39F22134665F301032C
:107BA0006FF3820344F8262004F8263023781BB1B3
:107BB000FFF77CFD0028FBD1FFF776FD03B0BDE8A1
:107BC000F08F3246ABE700BF7C260020982A0020C9
:107BD00030B4174DD5F8104400215CB1E3681A7930
:107BE0008A4204D116E0DB681A798A4212D01B68F7
:107BF000002BF8D1C3681971D5F8103493B1DA6845
:107C0000C36812681A60D5F81034DB68186008463B
:107C100030BC704701310A29DFD14FF0FF310846EF
:107C200030BC7047C5F81004C2681360EFE700BFAE
:107C30007C26002038B5084BD3F8104401251D7070
:107C40004CB1E3685D71236820465B689847E36840
:107C50001C68002CF5D138BD7C2600202DE9F047AA
:107C600084B01D460C9C002394F80C802373EB8891
:107C700081460E461746002B3BD1297A05290FD0A5
:107C80006B7A002B3DD1404BA88853F821A00021EE
:107C9000FFF7CAFC524603463C49204601F0A6F9CC
:107CA000062F0FD8DFE807F0484D535A0463390018
:107CB000F168B06896E80C000191009049462046B2
:107CC00001F094F92B7A052B05D06B7A5BB930491A
:107CD000204601F08BF9204601F07CF984F80C80F5
:107CE00004B0BDE8F0872B4A2B49204601F07EF90D
:107CF000EDE7284A00922949294A204601F076F901
:107D0000BBE7A888FFF7BAFC264B234953F820208D
:107D1000204601F06BF9297AB5E77069316996E878
:107D20000C000390B068F76802918DE88100494625
:107D3000204601F05BF9C5E74946204601F056F9B7
:107D4000C0E732684946204601F050F9BAE7494693
:107D500096E80C00204601F049F9B3E7B16896E8CF
:107D60000C0020460091494601F040F9AAE7B068AE
:107D7000F768316996E80C0002918DE88100494668
:107D8000204601F033F99DE7B8D10200A8D10200E6
:107D9000B4D102009CD10200A4D1020084D102001F
:107DA0007CD1020044D10200082900D970472DE996
:107DB000F04F1D46904600232A7B2B7385B0B8F800
:107DC0000630039207460E46002B6FD198F8081034
:107DD000052911D098F80930002B6FD13E4BB8F827
:107DE000040053F821400021FFF71EFC2246034601
:107DF0003A49284601F0FAF8DFF800B1DFF80091BF
:107E00000024A6424946284639D93A5D013401F09A
:107E1000EDF8082CF5D13249DFF8E8B0DFF8E8904A
:107E2000284601F0E3F800240CE017F804A0BAF1AA
:107E30007E0F2CD92E2249462846013401F0D6F86F
:107E4000082C08D0A642F0D859462846013401F043
:107E5000CDF8082CF6D198F80830052B02D098F808
:107E60000930EBB91F49284601F0C0F8284601F057
:107E7000B1F89DF80C302B7305B0BDE8F08F0134DC
:107E80005946284601F0B2F8082CBAD1C3E705F0EC
:107E9000D1F850445246437813F0970FCAD0CAE73E
:107EA000114A1249284601F0A1F8DBE70E4A009278
:107EB0000F49104A284601F099F887E7B8F80400FE
:107EC000FFF7DCFB0C4B094953F82020284601F052
:107ED0008DF898F8081081E7B8D10200A8D1020007
:107EE00074D10200B4D102009CD10200A4D10200DE
:107EF00084D102007CD1020044D1020070D1020082
:107F000068D10200B0D1020078D1020070B51A4BDE
:107F10001D789DB1194B1C682378C0B2984210D0CF
:107F200004F10802002306E014F8331081421646DB
:107F300002F1080206D001339D42F5D100231B78DF
:107F4000FFDE264602F0A6FA7378A3F10103B3FA26
:107F500083F35B09834200D070BD094BD3E9002352
:107F60001343F9D1074B0848196800224908BDE8B6
:107F7000704000F07BBC00BF342B0020682B002039
:107F8000402B0020382B0020202300202DE9F04F2B
:107F90009C4E337887B0002B00F02E81DFF878926A
:107FA000994F9A4D4FF0000B4FF001083C6814F8C0
:107FB0003B0002F06FFA04EBCB0314F83B405B7814
:107FC0004FEA540E14F0010C15F80E10A3F1010342
:107FD000B3FA83F314BF0A0901F00F025B09042A04
:107FE00000F2B280DFE802F07A6838260300984297
:107FF00040F0AC80BCF1000F14BF0F23F02303EA64
:10800000010314BF30210321194305F80E10327803
:108010000BF1010B9345C9DBD9E90023134306D0CB
:108020007B4B7C4819680022490800F01FFC07B010
:10803000BDE8F08F984200F08780BCF1000F0CBFC4
:10804000F0230F2303EA01030CBF0421402119434D
:1080500005F80E103278DBE7984240F0B580BCF1AD
:10806000000F14BF0F23F02303EA0103327814BF7B
:1080700030210321194305F80E10002ACCD0D7F87F
:1080800000E09EF80030A34200F0B9800EF1080134
:108090000023013393428C4601F10801B8D01EF849
:1080A0003300A042F5D1DCF80430002BB0D02046DC
:1080B000012198473278ABE7984213BF0023202371
:1080C00002221A46BCF1000F12BF0F20F020134607
:1080D00001400B4305F80E30327899E7984233D1CE
:1080E000BCF1000F0CBFF0230F2303EA01030CBF08
:1080F0000121102119434FF000030DF117008DF8F5
:1081000017300023019305F80E1000F051FCA4F184
:10811000200308FA03F301930198C4F1200128FA1F
:1081200001F1084308FA04F101900091D9E9002314
:10813000DDE900011043194302460B469DF8170084
:10814000C9E9002300F05AFC327861E7BCF1000F66
:108150000CBFF0230F233078194005F80E1098B1AA
:10816000D7F800E09EF80030A3423CD00EF10802A0
:10817000002303E01EF83310A14235D001338342BF
:10818000944602F10802F5D14FF000030DF11700FB
:108190008DF817300023039300F00AFCA4F12002AD
:1081A000C4F1200328FA03F308FA02F21A4308FA8A
:1081B00004F103920291D9E90023DDE9020122EAE8
:1081C000000023EA0101B7E7BCF1000F0CBFF02368
:1081D0000F2303EA01030CBF01211021194305F805
:1081E0000E10327814E7F446DCF80430002BCBD0C4
:1081F000002120469847C7E7DFF81C900CE7F446BB
:1082000051E700BF342B0020682B0020482B0020B2
:10821000382B002020230020402B0020092A01D8E1
:1082200007207047F0B583B00E460546144601F0AE
:1082300091FF18B901F030FF002831D11C4A1D4BC5
:108240001D4F156000211D481C6020223E7004F067
:108250001CFF1B4B00200021741EC3E90001E4B287
:1082600006B3184F032601E0FF2C1BD022B29DF865
:10827000063015F832008DF8046005EBC20203F0F9
:10828000FC0392788DF805206FF382033A4601A92A
:108290008DF8063001F068FF013CE4B20028E3D01D
:1082A00003B0F0BD084A0948002100F0C9FAF7E719
:1082B000682B0020382B0020342B0020482B002076
:1082C000402B00200D7F02008D7F020024D202008F
:1082D00070B5084D2B785BB1074E0024336801213F
:1082E00013F8340002F022F82B780134A342F5D8B9
:1082F000002070BD342B0020682B002070B5114D7C
:108300002B7882B053B1104E0024336813F8340038
:1083100002F088F82B780134A342F6D802A8002393
:1083200000F8013D00F044FB084B9DF807000024D5
:108330000025C3E9004500F061FB054800F0FCFAA8
:1083400002B070BD342B0020682B0020402B002091
:108350002023002000B585B000230390194601AA10
:1083600044F201000193029300F004F805B05DF8B7
:1083700004FB00BF10B572B6FFF75CFCFFF796F97F
:108380000028FBD1104B114C1149E41AE4082404D5
:1083900044F00100FFF7B0FA0E4B1B68DB0700D575
:1083A00000BE44F002000C49FFF7A6FABFF34F8F5E
:1083B0000A490B4BCA6802F4E0621343CB60BFF377
:1083C0004F8F00BFFDE700BF4CDE020074DE0200ED
:1083D00034D20200F0ED00E040D2020000ED00E0F7
:1083E0000400FA05D0E90223D1E90201994208BF4D
:1083F00090422CBF01200020704700BF2DE9F04FB4
:1084000087B0029000F026FC40B1B049D1E90023CA
:1084100012F1807443F10005C1E900450021029882
:10842000DFF8C48200F032FC002854D0D8F80030C5
:10843000002B50D0A64BD8F800401B783BB334B388
:10844000A44800F033FCA14AA34BD2E90067D3E96A
:10845000002316EB000947F1000A9A4508BF914531
:108460004846514603D219F180704AF10001D4E91F
:108470000223994208BF904280F06F81013308BF08
:10848000B2F1FF3F03D02146944801F05DFA05ABFD
:108490000393002301210298C8F8003000F0F6FB96
:1084A00008B38C488C4E00F001FC884BD3E90045A2
:1084B000D6E9002314EB000945F1000A9A4508BFEC
:1084C00091454846514603D219F180704AF10001A6
:1084D000C6E9000107E005AB01210298039300F013
:1084E000D5FB0028DDD103997D4800F055FC20B371
:1084F0007B4EDDF80C904FF0FF344FF0FF350378E2
:10850000012B00F09480C0F09B80022B0BD1734FA5
:1085100001E0C0E90245384601F02AFA0028F8D106
:108520006B4B01221A704946304600F065FC494603
:10853000304600F031FC0028E1D1DFF8A091654D14
:10854000DFF888A1484601F019FA00285AD0D0E98E
:108550000223591C08BFB2F1FF3F7ED0D8F80010AB
:10856000A9B1D8F80010D1E902018B4208BF8242BC
:1085700055D2D8F80030D3E90223013308BFB2F155
:10858000FF3F04D0D8F80010484601F0DDF9484616
:1085900001F0EEF90446D4E902232846CDE9002390
:1085A00000F084FBDAE900234B4E121843F100037C
:1085B00093469C46D6E900239C4508BF9345DDE9D8
:1085C000002303D21BF1807B4CF1000CB2EB0B00BB
:1085D00063EB0C01012871F1000742DB414FB84207
:1085E00020D84FF496030021284600F0ABFA80B162
:1085F0000D283AD000234846C8F8003001F0BEF9F3
:108600000028A4D1D8F800304BB9029800F070FAD5
:1086100005E0D8F80030002B54D0C8F8004007B06F
:10862000BDE8F08F284600F041FBC219D9E7416848
:10863000D8F80030994241D0284801F0A3F972E7F8
:108640004168D1E90223013308BFB2F1FF3F3FF493
:108650006AAF224801F078F965E7484601F088F9E9
:1086600070E70021284600F005FB194B1B78002B12
:10867000C0D0284600F01AFBDAE90023D6E90067EB
:1086800012EB000B43F1000CBC4508BFB345584644
:10869000614603D21BF180704CF10001D4E9022342
:1086A000994208BF904221D2013308BFB2F1FF3F87
:1086B000A0D02146484601F047F99BE70023C8F8BF
:1086C000003030E7029800F00FFAA6E7702B002088
:1086D000782B002040230020E82B002054D20200F9
:1086E000D42B0020FFFFB400F02B002000230398C0
:1086F0008DF8143000F05CF923692BB94FF0FF328C
:108700004FF0FF33C4E902239DF8140000F076F91E
:108710006369A0699847002303988DF8143000F02E
:1087200047F92369A3B1D4E902677A1C08BFB6F1FF
:10873000FF3F0DD0F01847F10001C4E902019DF898
:10874000140000F05BF92146484601F0FDF851E7BE
:108750009DF8140000F052F94CE706AB1A460023CE
:1087600002F8043D1046039200F022F923692BB968
:108770004FF0FF324FF0FF33C4E902239DF814009D
:1087800000F03CF96369A0699847002303988DF8CD
:10879000143000F00DF92169A1B1D4E90256701C22
:1087A00008BFB5F1FF3F0DD06A1846F10003C4E9D8
:1087B00002239DF8140000F021F92146044801F03D
:1087C000C3F866E69DF8140000F018F961E600BFF2
:1087D00054D2020010B5134B13491B68134882B0E2
:1087E00058220193082300F081FA044610B1204674
:1087F00002B010BD0E4A0F4801A900F017F9044657
:108800000028F4D101210B4800F01AFA012319467F
:10881000094A084800F070F9084B012220461A70F6
:1088200002B010BD50D202007C2B0020D42B0020BF
:10883000FD83020040230020FFFF7F00782B0020F3
:108840008AB130B403684FF0FF344FF0FF35A1F127
:108850000101B1FA81F1C3E9024549095A6119617F
:10886000002030BC70470720704700BF2DE9F04F53
:1088700083B002AD002405F8044D82462846174611
:108880000E4600F095F8DAE90223013308BFB2F191
:10889000FF3F07D09DF8040000F0B0F8204603B079
:1088A000BDE8F08F204800F001FA204B2049D3E9C1
:1088B0000023D1E9008912EB000B43F1000CCC45F9
:1088C00008BFC3455846614603D21BF180704CF186
:1088D0000001801941F10001CAE902019DF804007C
:1088E00000F08CF8DAF81030CAF818700BB1CAF83A
:1088F000106029460F4800F011FA80B10024C0F83A
:1089000004A0047029460B4800F036FA0028C6D0AF
:10891000054800F0CFF9204603B0BDE8F08F0420F1
:1089200003B0BDE8F08F00BF40230020702B002073
:10893000E82B0020D42B002070B582B002AC0025BB
:1089400004F8045D0646204600F032F8D6E902231A
:10895000013308BFB2F1FF3F1ED04FF0FF324FF09E
:10896000FF339DF80400C6E9022300F047F82146D2
:108970000D4800F0D3F960B1012346600370214631
:10898000094800F0F9F928B1084800F093F92846A1
:1089900000E0042002B070BD9DF8040000F02EF845
:1089A000284602B070BD00BFD42B00204023002019
:1089B00070B4EFF3108472B60D4B9A68AAB90D49E2
:1089C0000D4E01259D60D1F8805035401D60C1F8E5
:1089D0008060D1F884505D604FF0FF33C1F884307F
:1089E000027004B962B670BC704701230370F8E7E7
:1089F000502E002000E100E0FC06FFBD094B9A6804
:108A000072B168B910B4EFF3108172B6064A1C68EF
:108A100014605C685460986001B962B65DF8044BFC
:108A2000704700BF502E002000E100E070B5264CDA
:108A30004379264E04EBC30546F823202D797DBBF0
:108A400003680A88C3F8082590F904308A78002B57
:108A500032DB03F1604303F561435201D2B283F884
:108A6000002390F90430002B07DB194903F01F05A0
:108A700001225B09AA4041F823204279154B164D8B
:108A800044F83200581B04EBC204C0080123000460
:108A90001249237140F00300FEF72EFF002070BD45
:108AA0000D4B0C480E49C01AC008000440F00200EB
:108AB000FEF722FF082070BD0A4903F00F035201A0
:108AC0001944D2B20A76CCE7F42B0020FC2B00200C
:108AD00000E100E084DE02004CDE02009CD20200D5
:108AE00078D20200FCEC00E0036801221A607047B3
:108AF000036801225A607047F0B404684FF480356F
:108B00008D40C4F8085306688C00C6F8485304F535
:108B1000A0740668A4B20027375182B036590468A1
:108B2000019601F5A87122F07F42019E44F82120B0
:108B30000268C2F8445313B10368C3F8045302B087
:108B4000F0BC70472DE9F04104464FF480360068D0
:108B50008E40C0F848632068C0F8086320688D0024
:108B60004719D0F804E5D7F84005C7F840E505F502
:108B7000A075ADB227684FF0000847F8058084B0B3
:108B8000A0EB0E007F59029720F07F40012822F0D1
:108B90007F47029A31D02268D2F80455C2F8446364
:108BA0007A1B22F07F42012A01F5A87136D0226893
:108BB00042F821702268D2F80455781BC3F1FF13E4
:108BC000013803F57F4320F07F40834203D20D201C
:108BD00004B0BDE8F08138B9013742F8217022684D
:108BE000D2F804359D42F2D1C2F8446323680020D4
:108BF000C3F8046304B0BDE8F081104A8DE80A00B0
:108C000042F001024FF480609047226842F80580EC
:108C100052590392039A9DE80A00BCE72068074B6B
:108C2000013740F8217043F001034FF4806098470A
:108C30002268D2F804359D42C9D1D5E770D202002E
:108C400002680223C2F8443311B10268C2F8043347
:108C5000704700BF0368D3F8040148B10022C3F88D
:108C6000042182B0D3F804310193019B012002B0AA
:108C7000704700BF4FF48033026803FA01F1C2F875
:108C800048130368C3F80813704700BF890001F553
:108C9000A07189B20368585838B100225A5082B086
:108CA0005B580193019B012002B070470368D3F821
:108CB0000405704790F90430002B09DB5A09403253
:108CC00003F01F030121034801FA03F340F82230A7
:108CD000704700BF00E100E0024A034B10681B68C8
:108CE000184700BFF42B0020FC2B002099B110B4D2
:108CF000B2FBF3F403FB1424A4B21CB109205DF809
:108D0000044B704780E8120084608281C381204652
:108D10005DF8044B70470E20704700BF30B482B03E
:108D200050E8013F9DB2C48925448489A54228BFEB
:108D30002D1B0489A54202BFBFF32F8F002207E03D
:108D4000C5EA030540E80154002CE9D14FF00102C7
:108D50008DF803200193019B9DF803200B602AB13D
:108D60000B880068184402B030BC704702F0FF0363
:108D7000184602B030BC70470A884B889A4201D02E
:108D80000020704750E8012FC2EA024240E8012368
:108D9000002BF7D10120704730B482B050E8023F79
:108DA0001FFAA3F5C488A54202BFBFF32F8F00228C
:108DB0000DE0C48925448489A54228BF2D1BC3EA40
:108DC000054540E80254002CE8D14FF001028DF82F
:108DD00003200193019B9DF803200B602AB14B886F
:108DE0000068184402B030BC704702F0FF03184618
:108DF00002B030BC704700BF0A884B889A4201D04D
:108E00000020704750E8022FC2EA224240E80223C5
:108E1000002BF7D10120704701F01F024B090121FF
:108E200000EB8300914000F021B800BF01F01F0269
:108E300001234909934000EB8100D94300F024B895
:108E40004B0901F01F0150F82300C84000F0010059
:108E5000704700BF00B550E8002F0B4640E8003EC9
:108E60009EF0000FF7D110465DF804FB00B550E806
:108E7000003F43EA010240E8002E9EF0000FF6D1C9
:108E800010465DF804FB00BF00B550E8003F03EA60
:108E9000010240E8002E9EF0000FF6D110465DF86A
:108EA00004FB00BF00B550E8003F03EB010240E8BF
:108EB000002E9EF0000FF6D110465DF804FB00BFB7
:108EC00000B550E8003FA3EB010240E8002E9EF001
:108ED000000FF6D110465DF804FB00BF00B501237A
:108EE00050E8002F42EA030E40E800E191F0000F45
:108EF000F6D170465DF804FB00B5002350E800EFA2
:108F00000EEA030240E8002191F0000FF6D170460E
:108F10005DF804FBB8B130B4416882680468521A45
:108F2000D2B2531E2160DBB242B101680A685C1EF6
:108F3000551C0D601370E3B2FF2BF6D103680020BF
:108F4000187130BC70470E20704700BFF0B583B079
:108F500002AB002503F8015D04461846FFF728FD23
:108F6000236861681A688A4210D9511E1960216805
:108F7000A3680E6812F8015C0A79278AE0689B1BD7
:108F8000DBB29A4207FB050538BF0B719DF807005D
:108F9000FFF734FD284603B0F0BD00BF30B583B005
:108FA00002AB002203F8012D054618460C46FFF7D8
:108FB000FFFC2A681368591C1160E9682A8A641A40
:108FC000B4FBF2F41C709DF80700FFF717FD03B027
:108FD00030BD00BF826802B9704710B504464369CE
:108FE0000168006998470023A36010BD0EB400B566
:108FF00082B0039929B102AA04AB42F8043D00F003
:10900000A3F802B05DF804EB03B070472DE9F04F10
:10901000164683B0B1428A4605469846DDF830B020
:109020000D9AC0F08D800B460127B3FBF6F39E42EC
:1090300007F10107F9D9474538BF474612F0010348
:10904000009302D1BBF1000F59D1A868012403E0BD
:1090500008F1FF3806FB04F4B8F1010FF8D8BAFBA9
:10906000F4F29642F6D9DFF8DC904FF00D0810E0EC
:109070002968421CAA600B54AA686B689A4202D302
:109080002846FFF7A7FFB4FBF6F4C4B1BAFBF4F22D
:10909000A86819F802300A2B04FB12AAE8D1296843
:1090A000421CAA6001F80080A8686A689042DFD379
:1090B00028460193FFF78EFFA868019BD8E7009B25
:1090C000B3B1BBF1000F13D0BB4588BF20240FD92B
:1090D000AB682A68591CA960D454AA686B689A4284
:1090E0000BF1FF3B07D2BBF1000F01D0BB45EFD125
:1090F00003B0BDE8F08F2846FFF76CFFF3E7930756
:1091000018D42024BB45A0D9A8682A68431CAB60AA
:109110001454A8686A6890420BF1FF3B05D2BBF17A
:10912000000F93D0BB45F0D190E72846FFF752FFE0
:10913000A868F4E7B8F1000F0CBF30242024E1E761
:10914000012778E7B0D20200002900F0B9822DE9AA
:10915000F04FDFF870A50D7885B0064691460C46B5
:109160000134002D00F0A080252D40F0A2814FF0A9
:109170000008214614F8012B2D2A00F09481302A92
:1091800000F094812B2A00F086812A2A00F0A18128
:10919000A2F13005EBB2092B98BF013102D9CAE127
:1091A000A3F130050C4611F8012BA2F1300005EBBC
:1091B0008503092802EB4303F2D92E2A00F095819A
:1091C000002701E014F8012F02F0FB03682BF9D00F
:1091D000253A532A63D8DFE812F0400162006200AA
:1091E000620062006200620062006200620062006F
:1091F000620062006200620062006200620062005F
:10920000620062006200620062006200620062004E
:10921000620062006200620062006200620062003E
:10922000620062006200620062006200620062002E
:10923000620062006200620062006200620062001E
:109240004F01620062006200620062006200620020
:109250006200620062002901D100620062006200C7
:109260006200D1006200620062006200620062007F
:10927000AC00620062006E00620054006200620096
:109280004F01D9F800301A1DC9F800201968CDF82F
:1092900004803B4600950A223046FFF7B7FE0134B2
:1092A0002578002D7FF45CAF337B002B40F0BD812F
:1092B00005B0BDE8F08FD9F800301A1DC9F80020BC
:1092C00018F0010F1F6840F03981002F00F0D8819D
:1092D000384603F0E2FE8046454515D9A5B14FF06A
:1092E000200B00E085B1B2683368511CB16003F80F
:1092F00002B0B26873689A4205F1FF3502D3304676
:10930000FFF768FE4545EDD1013F17F8015F002DDD
:10931000C5D00A2DB36800F078813268591CB1605D
:10932000D554B26873689A42EFD33046FFF752FEC5
:10933000EBE7D9F80020131DC9F80030B368316895
:109340001568581C3022B060CA54B36872689342E2
:1093500080F027813268581C7821B060D154B268FF
:1093600073689A4280F022810022082301922946E4
:10937000009310223046FFF749FE90E7D9F80030FD
:109380001A1DC9F80020D3F800B08BEAEB73A3EBE9
:10939000EB73092B4FF0010108DD8AFB0302DB1799
:1093A000C3EBA203092B01F10101F6DCB94238BF7E
:1093B00039462DB3BBF1000F02DB18F0040F00D0CB
:1093C000013D18F0020F00D0D7B118F0010F17D1EE
:1093D000002D00F04981A94238BF202310D2B26885
:1093E000501CB06030688354B2687068824205F1E6
:1093F000FF3580F03B81002D00F03681A942EED18F
:10940000BBF1000FC0F23E8118F0040F40F0138151
:1094100008F00303022B00F0CD808DE820013B46CD
:1094200059460A223046FFF7F1FD38E7D9F80030F7
:109430001A1DC9F800201D78B3680A2D00F030818C
:109440003268591CB160D554B26873689A42FFF40F
:1094500026AF3046FFF7BEFD21E7B3683268581CDF
:109460002521B060D154B26873689A42FFF417AFF7
:109470003046FFF7AFFD12E7D9F800301A1DC9F8E2
:1094800000201968CDF804803B4600951022304634
:10949000FFF7BCFD03E7214614F8012B2D2A48F005
:1094A00004087FF46CAE48F0010862E648F0020858
:1094B0005FE60A2DB3682FD03268591CB160D554CD
:1094C000B26873689A42FFF4EBAE3046FFF782FD54
:1094D000E6E6D9F800301A1DC9F800204A781D6860
:1094E0002E2A01F101047FF46BAE6278A2F1300301
:1094F000092B04F101044FF000073FF665AE07EBBE
:10950000870702EB470714F8012FA2F13003092B5C
:10951000A7F13007F3D957E6591C3268B1604FF014
:109520000D01D154B36872689342C5D33046FFF73A
:1095300051FDB368C0E70C4600253EE6B846A8EBEF
:10954000070B18F8013B9BB10A2BB1684CD032686D
:10955000481CB0605354B26873689A42EFD33046E7
:10956000FFF738FDA8EB070B18F8013B002BEBD1F8
:109570005D457FF694AE202702E0002D3FF48FAECC
:10958000B2683368511CB1609F54B26873689A42E4
:1095900005F1FF3502D33046FFF71CFD5D45ECD1E8
:1095A0007DE63046FFF716FDB368D3E63046FFF799
:1095B00011FDD9E6002F7FF430AF002D5ED0A94217
:1095C00038BF3023BFF429AFB268501CB060306898
:1095D0008354B2687068824205F1FF353CD2002D99
:1095E0004CD0A942F0D118E7481C3268B0604FF067
:1095F0000D005054B16872689142A8D3304602936E
:10960000FFF7E8FCB168029BA1E7591C3268B16022
:109610004FF00D01D154B36872689342FFF47DAEF0
:109620003046FFF7D7FCB36877E6304605B0BDE8B3
:10963000F04FFFF7CFBCB268531CB36033682B20E8
:109640009854B26873689A42FFF4E2AE30460291D1
:10965000FFF7C0FC0299DBE6304603930291FFF767
:10966000B9FC039B0299BAE70025C9E6304603938B
:109670000291FFF7AFFC039B0299BCE60025CCE604
:10968000B84629E6B268531CB36033682D2098545D
:10969000B26873689A42CBF1000BFFF4B9AED5E71C
:1096A000591C3268B1604FF00D01D154B368726833
:1096B0009342FFF4C5AE3046FFF78CFCB368BFE6BB
:1096C000704700BF67666666FFF724BC2DE9F0416E
:1096D000B0F81080CF1CA8F1040847440646B7FB39
:1096E000F8F7FFF733FC80B3FFB200250123013FF9
:1096F0000446A0F8068006600571437128D08046B4
:1097000009E06379AF4203F101036371C8F8000017
:10971000066080461CD03046FFF718FC0135002853
:10972000EFD16679721E16D02346013082421B6843
:10973000FBD81F684EB1214600250C68013538461C
:10974000FFF72CFCAE422146F7D10020BDE8F081A6
:109750002046BDE8F0812768EDE700BF0430012115
:10976000FFF7A0BBF8B5012104460430FFF7A8FBC2
:10977000C0B200B1F8BD6679721E12D02346013026
:1097800082421B68FBD81F68002EF3D021460024BC
:109790000D6801343846FFF701FCA6422946F7D18F
:1097A000F8BD2768F2E700BF2DE9F843C78890F8B5
:1097B00005E0154607FB0EFEEC18AEF1040E1A1D6F
:1097C000A6458846B2FBF7F638BFAEEB030507FBAC
:1097D0001621044616B1013E2468FCD17E1AAE4221
:1097E00028BF2E469DB14FF00009081DAD1B08EBA8
:1097F00009012044324603F03DFCAF42B1442468E5
:109800003E464FF0000128BF2E46002DEDD1BDE8A9
:10981000F88300BF2DE9F843C78890F805E01546A6
:1098200007FB0EFEEC18AEF1040E1A1DA645884685
:10983000B2FBF7F638BFAEEB030507FB1621044673
:1098400016B1013E2468FCD17E1AAE4228BF2E46D6
:109850009DB14FF0000904312144AD1B324608EBA5
:10986000090003F007FCAF42B14424683E464FF0C4
:10987000000128BF2E46002DEDD1BDE8F88300BFC2
:1098800041DF7047064A074B10B5002414701C6076
:10989000BFF35F8F0449054800F040F8204610BD33
:1098A000082C00200C2C0020C0D20200002C00202C
:1098B00000B583B002A8002300F8013DFFF778F857
:1098C000F1EE103A23F09F03E1EE103ABFF35F8F01
:1098D0000A4B4022C3F884219DF80700FFF78EF859
:1098E00003F0F0F928B920BF40BF20BF03B05DF8F6
:1098F00004FBFFF7C5FF03B05DF804FB00E100E0E7
:109900008268002393608268136182685361826871
:10991000D3608268536082681360704701600B688F
:1099200043604A68934204BF00234360704700BF0E
:10993000436843B1026891680B44436052689342A4
:1099400004BF00234360704770B544680646206832
:109950000D4618B908E02468206828B1B368294684
:1099600098470028F7D120682860256070BD00BFA7
:109970004368186808B102681A607047436818683D
:10998000704700BF4068036873B1994203D107E094
:10999000814204D0034618680028F9D17047184660
:1099A0000B680360012070471846704730B4184DAB
:1099B000A5F59472AB1ADB1003EBD3735B1002EBCB
:1099C000C30152F83330984228BF0C4605D311E04A
:1099D00052F8333098420CD221468B1ADB1003EB3D
:1099E000D3735B10914202EBC304F1D8094830BC39
:1099F00070470D46984204D904F10802AA42D9D30F
:109A0000F4E76068034B002808BF1846EFE700BF83
:109A100020D40200E4D2020010B4894B1B68082B4A
:109A200021D0884AD2F8883043F47003C2F88830D5
:109A3000BFF34F8FBFF36F8F814B1B68082B00F074
:109A4000AD804FF01023D3F80022002AC0F2C1806D
:109A5000D3F80432002BC0F2BC807B4B7B4A1A60E7
:109A60005DF8044B70474FF080414FF0805200206A
:109A7000C1F80C01764BC1F81001C1F83805D2F8D5
:109A80000414C3F82015D2F80814C3F82415D2F82A
:109A90000C14C3F82815D2F81014C3F82C15D2F8FA
:109AA0001414C3F83015D2F81814C3F83415D2F8CA
:109AB0001C14C3F84015D2F82014C3F84415D2F88A
:109AC0002414C3F84815D2F82814C3F84C15D2F85A
:109AD0002C14C3F85015D2F83014C3F85415D2F82A
:109AE0003414C3F86015D2F83814C3F86415D2F8EA
:109AF0003C04C3F868055749D2F84004C3F86C0524
:109B00000968D2F84424C3F8702505293AD8524B85
:109B10005B5C13B1514B524A1A60524B5B5C002B99
:109B200000F08B80464B50491B684A4AFB20C1F825
:109B30001805082B12687FF474AF052A22D84B4B06
:109B40009B5C002B76D04A494A4B3D480A681B680B
:109B50000068404C22F00F0203F00F031343082863
:109B600024680B607FF45DAF052C0BD8424B1B5D66
:109B700043B1334B414A1B684FF40071082B11600D
:109B80007FF44FAF4FF08043D3F80024D2077FF526
:109B900048AF6FF00102C3F8002442E72D4B1B6869
:109BA000052B08D94FF010224FF08043D2F808223D
:109BB000C3F8582545E7324AD35C002B3FF441AF48
:109BC0004FF010224FF08043D2F80822C3F85825F6
:109BD00037E72C4B0122C3F80425D3F80024002AD0
:109BE000FBD04FF0102312222649C3F80022D1F8EF
:109BF0000034002BFBD04FF010221221214BC2F871
:109C00000412D3F80024002AFBD000221D49C3F817
:109C10000425D1F80034002BFBD0BFF34F8F094946
:109C2000194BCA6802F4E0621343CB60BFF34F8F55
:109C300000BFFDE7074B1C6898E7064B1A687EE7F4
:109C40003001001000ED00E0482300200090D00318
:109C500000C00040340100100CD802008C560040B7
:109C6000488103000CD8020000F000400CD802002C
:109C7000E40E0040580200100CD80200409602404A
:109C800014D8020000E001400400FA05074B1B5CF9
:109C90001F2B86BF03F01F0305494FF0A04101228F
:109CA00002FA03F3C1F80C35704700BF1CD802005C
:109CB00000030050074B1B5C1F2B86BF03F01F03E4
:109CC00005494FF0A041012202FA03F3C1F808351B
:109CD000704700BF1CD8020000030050C30706D421
:109CE000830742BF2E4B0C22C3F818277047F0B4ED
:109CF0004FF08043D3F84036D90722D44FF0A04329
:109D000027490322C3F818274027C3F820274FF418
:109D10008076C1F824274FF40075C3F830274FF43C
:109D200080548207C3F80875C3F80865C1F8085560
:109D3000C3F8084503D51A4B0C22C3F81827F0BC0A
:109D400070474FF01023D3F8043303F00703072BB9
:109D5000D4D1144B0122C3F80425D3F80024002ADF
:109D6000FBD04FF010210020D1F804230D4C22F03D
:109D7000070242F00402C1F80423C3F80405D4F832
:109D80000034002BFBD0BFF34F8F0749074BCA6845
:109D900002F4E0621343CB60BFF34F8F00BFFDE7D7
:109DA0000003005000E0014000ED00E00400FA056F
:109DB00010B568B101280AD10C4C2369A07033B1E9
:109DC0000CCB0120226198472369002BF8D110BDEC
:109DD000064CA36801226270002BF8D00CCB002047
:109DE000A2609847A368002BF8D110BD102C00206A
:109DF00068B910B5064CA3680122627033B10CCB70
:109E00000020A2609847A368002BF8D110BD7047CE
:109E1000102C002030B5012883B027D01CD3032894
:109E200018D100F0DBF802A80023254C00F8013D12
:109E3000FEF7BEFDE368013BE360E36833B9214B05
:109E4000D3F8005415B900F0DBF8A5709DF80700B1
:109E5000FEF7D4FD03B030BD1B4B0122C3F88020B8
:109E6000BFF34F8FBFF36F8F03B030BD02A8002345
:109E7000134C00F8013DFEF79BFD237853B1E368D6
:109E80009DF8070001330122E360A270FEF7B6FDE2
:109E900003B030BD0D486360A3602361E36000F050
:109EA0008FF802F00FFF40B10123064A2370D2F869
:109EB0000024002AE3D0A370E1E700F08FF8F3E775
:109EC000102C00200000014000E100E0B19D0200E4
:109ED00070B50A4A0A4B067845688468C06853F82A
:109EE000213052F8211084B003908DF80060019564
:109EF0008DF808406846984704B070BD242C0020B7
:109F00002C2C002070B50A4A0A4B067845688468F4
:109F1000C06853F8213052F8211084B003908DF8B6
:109F2000006001958DF808406846984704B070BD00
:109F3000242C00202C2C00202DE9F043DFF8748025
:109F400006784B7F08F806300D46074694460FCD3D
:109F500089B06C460FC495E80F003D78DFF8589043
:109F6000DFF858E018F8055049F826C084E80F00DB
:109F70004EF82600049665B1BCF1000F0B4A694605
:109F800007F1040008BF002201F0A8F809B0BDE8FD
:109F9000F083BCF1000F064A694607F10C0008BFC8
:109FA000002200F00DFE09B0BDE8F083D19E020052
:109FB000059F02005C2E00202C2C0020242C002069
:109FC000054A13790BB18520704701211060537148
:109FD00018461171704700BF342C0020074B1A68D7
:109FE000D20704D4C02283F8002301221A604FF064
:109FF00080430122C3F81825704700BF00E100E04C
:10A0000010B40B4B0B494FF0804200200224C2F8E1
:10A01000084383B018601B680193012301980B600B
:10A02000D2F81834DB03FBD403B05DF8044B70475F
:10A03000040100400C00004010B5144B1A6882B0B7
:10A0400062B10021124A19601B68507900934FF0E9
:10A0500080410123009CC1F8083390B10D4B1A6870
:10A060006AB100221A601B6801934FF080420221FE
:10A07000074B0198C2F808131B680120984702B0EB
:10A0800010BD116853718847E8E700BF0001004028
:10A09000342C00200401004070B5294D95F86A3039
:10A0A00082B013B1082002B070BD05F130014FF04D
:10A0B000FF32FF264FF6FF7406E05A09012A0CBF53
:10A0C00022464FF0FF32013103F01F00C240D20799
:10A0D00048BF0E702F2B03F10103EED14FF0FF3379
:10A0E000FF240622002117482B606B60AB60EB60F9
:10A0F0002B616B61AB61EB612B6285F860306B6249
:10A10000AB6285F86230EB6285F8633085F86140B8
:10A1100002F0BBFF0C4BC02283F8062340221A60DA
:10A120000A4B0B4A002018601B680193019C012117
:10A130004FF0004385F86A10C2F8043302B070BDD6
:10A140003C2C0020A02C002000E100E07C610040BD
:10A1500000600040034B93F86A00003018BF0120F4
:10A16000704700BF3C2C0020F0B56D4C231893F9CC
:10A170003050002D01DB0820F0BD91F802E0CEF355
:10A18000400EBEF1000F50D02568013500F0C280AE
:10A190000125082654F8253001334CD06B1C54F8A7
:10A1A0002370013748D0AB1CB3423CD254F8237023
:10A1B000013741D0EB1CB34235D254F8237001373C
:10A1C0003AD02B1DB3422ED254F82370013733D02E
:10A1D0006B1DB34227D254F8237001372CD0AB1D2E
:10A1E000B34220D254F82370013725D0EB1DB3427F
:10A1F00019D254F8237001371ED005F10803B34279
:10A2000011D254F82370013716D005F10903B34277
:10A2100009D254F8237001370ED00A35B54202D264
:10A22000E36A013374D00420F0BD256A01353AD0C9
:10A2300009250C26AEE72B4626185DB244F82320EC
:10A2400086F83050BEF1000F33D08B785A071CD4FB
:10A25000DE074ED51F2887BF324B00F01F02024693
:10A260004FF0A04303EB8203D3F8002722F0020251
:10A27000C3F800272C4EC20800F0070EB75C01237C
:10A2800003FA0EF33B43B3548B7813F0020314D15B
:10A29000083D2C44097894F8602042EA811284F841
:10A2A00060201846F0BD082683F8306035462262EB
:10A2B0003346234483F85800C7E7AD0005F18045D5
:10A2C00005F5C0450A78D5F8101521F44F3121F471
:10A2D0004071C5F8101503021204D5F8101502F4E8
:10A2E000403203F47C5313430B43C5F81035002070
:10A2F000F0BD1F284A7887BF0A4E00F01F030346AF
:10A300004FF0A04603F5E073920046F82320B1E732
:10A310000B2391E70025226083F8305095E700BFBA
:10A320003C2C002000030050A02C0020F0B43A4D3B
:10A330002E1882B096F93030072B20DD2B4493F88D
:10A3400058309B09032B45D0012B14BF4FF44031EB
:10A350004FF400311F284DD900F01F002F4B03EBA5
:10A360008000D0F8002722F44032C0F80027D0F84F
:10A3700000370B43C0F8003702B0F0BC7047DAB2C8
:10A38000072AF9D8980000F1804000F5C04003F199
:10A3900040029200D0F8104592B202F180420027AC
:10A3A00044F0010402F5C042C0F81045019701983D
:10A3B00017600029E0D096F9302055F82220002AB5
:10A3C000DAD00122164902FA03F3C1F8043302B0CD
:10A3D000F0BC70471F2810D9104BD3F8103500F08F
:10A3E0001F00C340DB0748BF4FF44031B6D44FF4E1
:10A3F0000031B3E74FF0A043B1E74FF0A04213465E
:10A40000D2F81025C24012F0010F14BF4FF44031B2
:10A410004FF40031A3E700BF3C2C002000030050A4
:10A4200000600040184B034493F93030072B13DDD4
:10A430001F288ABF154B4FF0A04300F01F0003EB0D
:10A440008000D0F8003723F44033C0F80037D0F84C
:10A450000037C0F800377047DAB2072A13D810B4B3
:10A460009A0002F1804202F5C042094CD2F8100570
:10A47000012120F0010001FA03F3C2F81005C4F82D
:10A4800008335DF8044B70473C2C0020000300505B
:10A49000006000401F288ABF054B4FF0A04300F02A
:10A4A0001F00D3F8103523FA00F000F001007047C8
:10A4B000000300502DE9F04784B00023664A03935F
:10A4C00002931168012900F0BB801E46634B1A6895
:10A4D000012A00F0A780624B1A68012A00F09480DC
:10A4E000604B1A68012A00F081805F4B1A68012ACC
:10A4F0006FD05E4B1A68012A5ED05D4B1A68012A44
:10A500004DD05C4B1A68012A3CD05B4B1A68012A7B
:10A5100023D016F0FF0F1AD0584F01250024A300B6
:10A5200003F180432E4203F5C0434FEA45050BD0AB
:10A53000D3F8100557F82420D3F81015C0F30520E0
:10A54000C1F3014102B190470134082CE7D1002E3C
:10A55000C0F29A8004B0BDE8F08700221A601B6840
:10A5600001934FF0A042019BD2F82015444B029179
:10A57000C2F82015D3F82025039246F00046C3F810
:10A580002025C6E73F4AD2F804231106BDD5002294
:10A590001A601B680093009B46F08006B5E7394AB5
:10A5A000D2F804235006ACD500221A601B68009331
:10A5B000009B46F04006A4E7324AD2F804239406F2
:10A5C0009BD500221A601B680093009B46F0200672
:10A5D00093E72C4AD2F80423D5068AD500221A60C4
:10A5E0001B680093009B46F0100682E7254AD2F8CC
:10A5F000042317077FF579AF00221A601B680093C8
:10A60000009B46F0080670E71E4AD2F80423520762
:10A610007FF566AF00221A601B680093009B46F02E
:10A6200004065DE7174AD2F8042391077FF553AF7C
:10A6300000221A601B680093009B46F002064AE75E
:10A640001049D1F8046316F001063FF43FAF1360E0
:10A6500013680093009B39E70061004004610040EB
:10A66000086100400C61004010610040146100402E
:10A67000186100401C6100407C6100403C2C0020BF
:10A680000003005000600040BD4CBE4E01254FF05D
:10A69000A04794F960305A1C46D0DBB204AA23F0DC
:10A6A000C00002EBD00103F0070211F8081C05FA04
:10A6B00002F2114238D01F284FEA931900F2238189
:10A6C00003464FF0A04A0AEB83022118D2F800E7B4
:10A6D000D2F800C72CF4403CC2F800C7CEF3014EBC
:10A6E00091F930C0D2F8001754F82C80BEF1020F57
:10A6F00014BF4FF4003C4FF4403C05FA03F34CEA1E
:10A700000101C2F80017CAF82035B8F1000F0BD0CC
:10A71000B9F1030F00F00B81BEF1020F00F02681AA
:10A72000BEF1030F00F0FF8094F96130581C46D051
:10A73000DBB204AA23F0C00002EBD00103F0070251
:10A7400011F8081C05FA02F2114238D01F284FEA0E
:10A75000931900F2DC8003464FF0A04A0AEB830213
:10A760002118D2F800E7D2F800C72CF4403CC2F818
:10A7700000C7CEF3014E91F930C0D2F8001754F85B
:10A780002C80BEF1020F14BF4FF4003C4FF4403C4C
:10A7900005FA03F34CEA0101C2F80017CAF82035A4
:10A7A000B8F1000F0BD0B9F1030F00F0C780BEF174
:10A7B000020F00F0D280BEF1030F00F0BB8094F9CD
:10A7C0006230591C45D0DBB204AA23F0C00002EB72
:10A7D000D00103F0070211F8081C05FA02F2114239
:10A7E00037D01F284FEA931900F2958003464FF0A7
:10A7F000A04A0AEB83022118D2F800E7D2F800C77A
:10A800002CF4403CC2F800C7CEF3014E91F930C0A1
:10A81000D2F8001754F82C80BEF1020F14BF4FF489
:10A82000003C4FF4403C05FA03F34CEA0101C2F846
:10A830000017CAF82035B8F1000F0AD0B9F1030F9C
:10A8400000F08280BEF1020F00F09580BEF1030F90
:10A8500077D094F963305A1C42D0DBB204AA23F0BB
:10A86000C00002EBD00103F0070211F8081C05FA42
:10A8700002F2114234D01F284FEA93194FD80346F1
:10A880004FF0A04A0AEB83022118D2F800E7D2F871
:10A8900000C72CF4403CC2F800C7CEF3014E91F93A
:10A8A00030C0D2F8001754F82C80BEF1020F14BF4C
:10A8B0004FF4003C4FF4403C05FA03F34CEA01012D
:10A8C000C2F80017CAF82035B8F1000F08D0B9F166
:10A8D000030F3FD0BEF1020F44D0BEF1030F36D0BC
:10A8E000D7F820350293C7F82035D6F820250392F3
:10A8F000C6F82025002B7FF4CCAE002A7FF4C9AE29
:10A9000004B0BDE8F08703F01F03B246DBE603F0B6
:10A910001F03B24622E703F01F03B24669E703F0C4
:10A920001F03B246AEE7B9F1020F7FF4FDAE494610
:10A93000C047F9E6B9F1020F7FF441AF4946C0477D
:10A940003DE7B9F1020F84D14946C04781E7B9F12B
:10A95000020FC5D14946C047C2E7B9F1010F7FF4E4
:10A960002EAFEBE7B9F1010FBAD1F3E7B9F1010F5F
:10A970007FF4DAAEDBE7B9F1010F7FF46AAFE3E70A
:10A980003C2C002000030050014B1B68184700BFFF
:10A99000A82C0020104B984201D00020704730B501
:10A9A00083B002A8002300F8013D0D46FEF700F831
:10A9B0000A4B1C7934B19DF80700FEF71FF81120EF
:10A9C00003B030BD01229DF807001D601A71FEF72B
:10A9D00015F8204603B030BD00200040A82C002010
:10A9E000034B984203D1034B00221A601A7170473F
:10A9F00000200040A82C002030B56F4AD2F8043364
:10AA000099058BB05BD5D2F82431002B57D00023A9
:10AA1000C2F82431D2F8243101934FF40171674B0D
:10AA20000198C2F8081393F8291009B9012151605F
:10AA3000614902228DF81820D1F88024C1F88024C1
:10AA40009869D96809920022089007919A6193E861
:10AA50001200DA6106A8A047574AD2F81C31C3B1E8
:10AA6000564B5869196A884265D993F8281001F045
:10AA7000FF0000295FD1C2F81C01D2F81C1103911C
:10AA800003999C68186A196A205C01311962C2F83E
:10AA90001C05494AD2F844317BB10021474BC2F82A
:10AAA0004411D2F8440193F829100090009809B19C
:10AAB000012111609A69002A54D10BB030BD3E4A81
:10AAC000D2F804335B07C7D5D2F80831002BC3D0C6
:10AAD0003A4B9969002954D00021C2F80811D2F8E4
:10AAE000081104910499D868596AD2F8182542547B
:10AAF0005A6A996901325A625A6A8A42ACD1DA6951
:10AB0000002A47D193F8292012B92B4A012151601C
:10AB1000294A4FF40171C2F80813596ADA6808919A
:10AB20000024012007928DF8180093E806009C612C
:10AB300006A8904790E7204A0021C2F81C11D2F8DD
:10AB40001C210292029A5A69002AA2D058699A6876
:10AB50008DF8181008905961079206A893E806002E
:10AB6000904796E70022586AD9689A6101220890B6
:10AB700007918DF8182006A893E8060090470BB0BF
:10AB800030BDC2F80811D2F8080105900598D2F836
:10AB90001825B1E7DD685C6A18699A610121002215
:10ABA000D860DA615A628DF818100795089493E816
:10ABB000060006A890474FE700200040B02C002078
:10ABC0002DE9F041704E05792C2303FB056382B01B
:10ABD00093F82A301BB1082002B0BDE8F0810F467F
:10ABE00004466A4900689046FFF7D4FE18B1112068
:10ABF00002B0BDE8F0813B68591C19D01F2B4FF003
:10AC000001028ABF62494FF0A04103F01F0302FA1C
:10AC100003F3C1F808353B681F2B86BF03F01F0301
:10AC20005B4A4FF0A04203F5E073032142F8231082
:10AC30007B685A1C0BD01F2B86BF03F01F03544A9E
:10AC40004FF0A04203F5E073002142F8231023687F
:10AC5000BA69C3F82425397D7B7D22680B43C2F88D
:10AC60006C3597E806002368C3F81425C3F80C1563
:10AC70003B7D012B4BD02C2303FB05F3F218C2F8CC
:10AC800004803A69F250B8F1000F2FD022683B7F60
:10AC9000404F0021C2F81C11D2F81C2100922268FA
:10ACA000DDF800E0C2F84411D2F8441122680191A5
:10ACB0000199C2F804732168090B4AB2002A5ADBD1
:10ACC00002F1604202F561425B01DBB282F80033BF
:10ACD00021680A0B53B2002B09DB01215B092E4FBF
:10ACE00002F01F0201FA02F247F8232021682C2308
:10ACF00003FB0563002201250424C1F8004583F805
:10AD00002A509A61DA6183F829205A6164E7BB68A6
:10AD1000591C0BD01F2B86BF03F01F031C494FF09B
:10AD2000A04103F5E073002241F82320FB685A1C80
:10AD30001AD01F2B8ABF16494FF0A04103F01F0302
:10AD4000012202FA03F3C1F80835FB681F2B88BF04
:10AD500003F01F0303F5E0738CBF0D494FF0A041D2
:10AD6000032241F82320FB682268B968C2F808353D
:10AD7000C2F810157FE7094A01F00F015B010A4490
:10AD8000DBB21376A4E700BFB02C0020F9A90200C3
:10AD9000000300508000020000E100E0FCEC00E055
:10ADA000F8B53D4F047902682C2303FB047300219E
:10ADB0005B68C2F80015B3B10368384AC3F80823CA
:10ADC0000368190B4AB2002A0EDB52092032012314
:10ADD000334D01F01F0103FA01F145F82210BFF3D2
:10ADE0004F8FBFF36F8F0368D3F80C65D3F81455FA
:10ADF000D3F80825D3F810154FF0FF3EC3F814E53B
:10AE0000C3F80CE503687645C3F808E5C3F810E518
:10AE10000CD01F2E86BF06F01F06224B4FF0A0431A
:10AE200006F5E0764FF0020E43F826E06E1C0BD0DC
:10AE30001F2D86BF05F01F051A4B4FF0A04305F5E7
:10AE4000E075022643F825604D1C0BD01F2986BFF4
:10AE500001F01F01134B4FF0A04301F5E0710225F3
:10AE600043F82150531C0BD01F2A86BF02F01F024B
:10AE70000C4B4FF0A04302F5E072022143F8221080
:10AE80000068FFF7ADFD2C2303FB0474002384F856
:10AE90002A306360F8BD00BFB02C0020840202009D
:10AEA00000E100E000030050F0B5304E05792C239E
:10AEB00003FB056385B05C6914B1112005B0F0BDDA
:10AEC0005A6199601C6283F828400268C2F81C41EC
:10AED000D2F81C11026802910121029F9160026860
:10AEE000D3F808E0C2F81C41D2F81C110191019975
:10AEF000D3F820C0196A5F681EF80CC001311962CE
:10AF0000C2F81CC517B1204605B0F0BD5C691A6ACD
:10AF10000168944203D819E093F82820F2B9D1F8D7
:10AF20001C21002AF8D0C1F81C71D1F81C21039211
:10AF3000039AD3F820C01A6A1EF80CC001321A62B4
:10AF4000C1F81CC51A6A9442E9D80168D1F81C31CD
:10AF5000002BFBD00123CB60002000E00F202C232E
:10AF600003FB056300225A61A8E700BFB02C002054
:10AF700070B5584BD3F824218AB0002A65D1D3F894
:10AF8000101100292FD1534BD3F8442152B1002185
:10AF9000514AC3F84411D3F8444190690394039C87
:10AFA00000287BD14B4BD3F8202162B10021C3F89C
:10AFB0002011D3F8202102920120474A029CD86038
:10AFC000506900285DD1434BD3F858214AB1002184
:10AFD000C3F85811D3F858013F4A019001985069BD
:10AFE00028BB0AB070BDC3F81021D3F810113A483D
:10AFF000059105998469D3F83C15A142C3D1C46970
:10B00000002C5AD0D3F80062C568846126F020066F
:10B01000C3F800620369C26101220891C36001683C
:10B02000436807958DF8182006A89847ABE7D3F832
:10B030004C05936808908DF818105161079306A885
:10B0400092E80A0098470AB070BD0021C3F82411A5
:10B05000D3F82421049202228DF81820049AD3F800
:10B0600080041D4AC3F880040990D3F83C05D368D6
:10B0700008909161D16107931168536806A89847B9
:10B0800081E7D3F84C05936808908DF8181051614A
:10B09000079306A892E80A00984794E7D3F83C354E
:10B0A000D068089301239161D16107908DF8183021
:10B0B00006A892E80A00984774E7C26884610123F1
:10B0C00008918DF81830079290E80A0006A8984772
:10B0D00059E700BF00200040DC2C00202DE9F043A0
:10B0E0000479844EE7003B1906EB830387B093F89D
:10B0F00020301BB1082007B0BDE8F0838946054623
:10B100007D4900689046FFF745FC18B1112007B053
:10B11000BDE8F083D9F80030591C1AD01F2B4FF02E
:10B1200001028ABF75494FF0A04103F01F0302FAE4
:10B1300003F3C1F80835D9F800301F2B86BF03F0A0
:10B140001F036E4A4FF0A04203F5E073032142F85B
:10B150002310D9F804305A1C0BD01F2B86BF03F0E4
:10B160001F03664A4FF0A04203F5E073002142F846
:10B1700023102B68D9F81820C3F8242599F8141047
:10B1800099F815202B680A43C3F86C252A68D9F86A
:10B190000030D9F80410C2F80C35C2F8141599F82B
:10B1A0001430012B64D03A199200B318C3F804800C
:10B1B000D9F81030B350B8F1000F4AD0296899F887
:10B1C0001C30DFF840E10022C1F81021D1F8101145
:10B1D00001912968DDF804C0C1F82021D1F82011BF
:10B1E00002912968DDF808C0C1F82421D1F82411A2
:10B1F00003912968DDF80CC0C1F84421D1F844114D
:10B2000004912968DDF810C0C1F85821D1F858110F
:10B210002A6805910599C2F804E32968090B4AB226
:10B22000002A5EDB02F1604202F561425B01DBB2A3
:10B2300082F800332A68110B4BB2002B0ADB012283
:10B240005B09DFF8C4E001F01F0102FA01F14EF8DA
:10B2500023102A683C4406EB8404002301250821BE
:10B26000C2F8001584F82050A361E361636142E7EE
:10B27000D9F80830591C0BD01F2B86BF03F01F03D1
:10B280001E494FF0A04103F5E073002241F823204E
:10B29000D9F80C305A1C1CD01F2B8ABF17494FF00D
:10B2A000A04103F01F03012202FA03F3C1F808359D
:10B2B000D9F80C301F2B88BF03F01F0303F5E07390
:10B2C0008CBF0E494FF0A041032241F82320D9F84A
:10B2D0000C302A68D9F80810C2F80835C2F81015E1
:10B2E00061E7074A01F00F015B010A44DBB2137604
:10B2F000A0E700BFDC2C002071AF0200000300506B
:10B30000FCEC00E01003420000E100E02DE9F04118
:10B310000679544C0268F500AB1904EB830382B044
:10B320005B68B3B1504BC2F8083303681B0B59B2CA
:10B3300000290EDB490920310127DFF834E103F051
:10B340001F0307FA03F34EF82130BFF34F8FBFF30B
:10B350006F8FA91904EB8101D2F80032896923F0BB
:10B360002003C2F8003241B10023C2F84431D2F8C0
:10B37000443100930123009953600023C2F85831EF
:10B38000D2F858310193AB19012104EB8303019FDB
:10B39000D1609969D2F85831002BFBD019B1D2F89D
:10B3A0004431002BF6D00023C2F8003503684FF07B
:10B3B000FF38D3F80CC5D3F814E5D3F80815D3F843
:10B3C0001075C3F80C85C3F814850368C445C3F829
:10B3D0000885C3F810850CD0BCF11F0F86BF0CF098
:10B3E0001F0C22484FF0A0400CF5E07C022340F8EF
:10B3F0002C30BEF1FF3F0CD0BEF11F0F86BF0EF008
:10B400001F0E1A484FF0A0400EF5E07E022340F8D0
:10B410002E30781C0BD01F2F86BF07F01F07134854
:10B420004FF0A04007F5E077022340F827304B1C8F
:10B430000BD01F2986BF01F01F010C4B4FF0A0431A
:10B4400001F5E071022043F821001046FFF7C8FA29
:10B45000354404EB8504002384F82030636002B097
:10B46000BDE8F081DC2C00201003420000030050F6
:10B4700000E100E001F06043B3F1005F01D0102073
:10B480007047F0B50579234EEF007C1906EB840474
:10B4900083B0636913B1112003B0F0BD6261A16094
:10B4A0000268C2F82031D2F820E10268CDF804E049
:10B4B000DDF804E0C2F85831D2F858210092026851
:10B4C000DDF800E0D4F814E0C2F84415C2F848E50D
:10B4D00002680121916062680AB11846DCE70368DE
:10B4E00000E0A1B9D3F82021D3F85811002AF8D0F0
:10B4F00069B90122DA600268D2F85831002BFBD01A
:10B5000000207B1906EB830300225A61C4E70F2059
:10B51000F7E700BFDC2C002072DF704773DF704755
:10B5200076DF70477ADF70477CDF70477FDF7047D8
:10B530008FDF7047B1DF7047FCF70CBF08B50378A9
:10B5400003B108BD054B3B211888FFF7E9FF002830
:10B55000F7D0BDE80840FCF7FDBE00BF6623002021
:10B56000262820D1114B1248C01AC008000410B57B
:10B5700040F003000C460F49FCF7BEF90E4B0F4993
:10B580001888224601F0F4FA30F008020DD043F298
:10B590000202904209D043F20142904205D0BDE838
:10B5A0001040FCF7D7BEFCF7D5BE10BD4CDE020044
:10B5B00074DE020068D8020066230020542D0020AB
:10B5C00008B502206AB9FEF775FB0948094B0A491C
:10B5D000C01AC008000440F00300BDE80840FCF7B2
:10B5E0008BB9FEF753FB0248024B0449F0E700BF5A
:10B5F00074DE02004CDE020098D8020084D80200FB
:10B60000FCF7A8BE10B50388103B82B00446462B59
:10B6100046D8DFE803F06724458345454545454561
:10B6200045454545454545514545454545454545BE
:10B6300045454545454545454545454545454545BA
:10B6400045474545454545454545454545454545A8
:10B6500045454545454545455D4545454700364BCE
:10B6600036483749C01AC008000440F00300FCF710
:10B6700043F90120FEF71EFB324B4FF6FF721A8092
:10B68000FCF73CFE08B1FCF765FE2F4B0121187852
:10B69000FFF744FF08B1FCF75DFE0020FEF7F6FA65
:10B6A00002B010BD80881321FFF73AFF0028F7D0C1
:10B6B000FCF750FE02B010BD002380888DF80430E6
:10B6C00001A98DF80530FFF733FF0028E8D0EFE738
:10B6D0001C4A0023108819461A46FFF72BFF002842
:10B6E000DED0E5E7144B15481849C01AC00800041D
:10B6F00040F00300FCF700F90120FEF7C7FA002034
:10B70000FEF7D8FA0F4BA1881148198001F030F9E3
:10B7100070B9FCF7DDFD0028C2D0C9E7094A002353
:10B72000108885211A46FFF701FF0028B8D0BFE72F
:10B73000FCF710FEEDE700BF4CDE020074DE0200F5
:10B7400058D8020066230020642300204CD8020051
:10B750006C2D002080B54FF48041A6B00020FBF78F
:10B760004FFF08B1FCF7F6FDFBF7D0FE0120FEF716
:10B77000B5FAFDF72FF808B1FCF7ECFD40F23332D3
:10B7800001217348FCF74AFD08B1FCF7E3FDFEF721
:10B7900079F808B1FCF7DEFD01F00CFA08B1FCF70E
:10B7A000D9FD26AC002344F83C3D0120214601F0A0
:10B7B000D7FA08B1FCF7CEFD204601F08DFB08B1A9
:10B7C000FCF7C8FD9DF820306248012262F30303B4
:10B7D00026AD62F3071305F8783D01F05EFC5D4984
:10B7E00082B22846FFF7A0FE08B1FCF7B3FD08229D
:10B7F0000021204601F049FC574B179320464FF09B
:10B80000C8731893FFF78EFE08B1FCF7A3FD002163
:10B81000524800F04DFF08B1FCF79CFD0022504B50
:10B82000504808922146179301F090F808B1FCF7B0
:10B8300091FD4D4B4D480893294601F037F908B169
:10B84000FCF788FD494B4A4E9B7C8DF806303C2224
:10B8500041F2235300212846ADF8043001F015FCD5
:10B860000220062301273C2200218DF820002046DB
:10B870008DF823308DF8227001F007FC324601ABC1
:10B88000284652F8041BADF86C701C9300F0E4F8E5
:10B8900008B1FCF75FFDB168364A204600F0DCF8DD
:10B8A00008B1FCF757FD1822002102A801F0EDFBBA
:10B8B00001250023402602AA2D492F488DF81D504E
:10B8C0008DF80850ADF8143003938DF81C300496B1
:10B8D000FFF722FE08B1FCF73DFD1C2200212046A7
:10B8E00001F0D3FB4FF4A026002320464FF4A035EF
:10B8F00003242249224A1793ADF86A308DF86C3040
:10B90000189619958DF868401C911D9200F0D4FB93
:10B9100008B1FCF71FFD1B4B1B481C49C01AC0088F
:10B92000000440F00300FBF7E7FF134B01211878F8
:10B93000FFF7F4FD08B1FCF70DFD0020FEF7A6F9B6
:10B94000FBF7B4FE0028FBD1FDF7B2FFF8E700BF1C
:10B950004C230020ACD802005000A000402D002055
:10B9600001B602006C2D0020C1B50200542D00204C
:10B970005423002060230020642300203DB50200F2
:10B9800039B502004CDE020074DE0200BCD80200B1
:10B990006DDF704779DF70477DDF704764DF704788
:10B9A0002DE9F04F83B004880C9FBDF83490B7F8B0
:10B9B00000A0002C4CD09846002316468B46054626
:10B9C0001C4603E02A880134A24224DD6A6852F84A
:10B9D0002400019000220DF1030101A8FFF7DEFF12
:10B9E00010BB9DF80320B242ECD103B33A889319FF
:10B9F0004B4518DC42440DF1030101A80123FFF778
:10BA0000CDFF88B939889DF803200A443A802A88F6
:10BA10000134A242DADCDBB13B88013BA3EB0A0331
:10BA20009BB2FF2B12D90C2003B0BDE8F08F3B88EE
:10BA30005A1C334402334B4592B2F4DC3A8008F886
:10BA400002B03A88013292B23A80D3E708F80A305D
:10BA5000002003B0BDE8F08F2DE9F04700231788E0
:10BA6000138090F82D3086B0144605460E46002B04
:10BA700049D1AA78002A70D1EA78002A2ED16A68C2
:10BA8000A2B1D91CB94225D8022192F90020F15463
:10BA9000238801339BB20A212380F1542388013388
:10BAA0009BB22380F2542388013323802B89002BFF
:10BAB00040F030812B8A002B40F045812B8B002BEE
:10BAC00040F05A812B6A002B00F0A7802288911D3C
:10BAD000B94262D90C2006B0BDE8F087D91CB94242
:10BAE000F8D80221F154238801339BB2012123802D
:10BAF000F15423880B449BB22380F25423880B44D7
:10BB00009BB22380BBE7082FE4D904A8FFF740FFCE
:10BB10000028E0D113880822CA54238801339BB23D
:10BB20001B222380CA542088013080B22080062244
:10BB300008440DF1110101F09DFA23889DF81020B1
:10BB400006339BB212F0FE0218BF01222380F2548A
:10BB5000238801339BB223808BE70433BB42B9D8DF
:10BB600004A8FFF717FF0028B5D12388BDF81020DF
:10BB70000321F154238801339BB219212380F1540E
:10BB8000238801339BB2F1182380F254120A4A70C1
:10BB9000238802339BB223806EE71988052940F27F
:10BBA000B5806FF4486801EB080080B24FF27D3E2B
:10BBB000704540F2AB805888052840F2A7806FF4AA
:10BBC000486C84441FFA8CFCF44540F29F804FF689
:10BBD000FF7E714504D0704502D0814200F296800C
:10BBE0000521B1542288013292B212212280B1542F
:10BBF0002288013292B222801988B1543244090A53
:10BC000051702288023292B222805B88B35432444F
:10BC10001B0A53702388023323806B6A002B30D0B9
:10BC20009888B4F800E0811C0EF102020A44BA427E
:10BC30003FF650AFFE293FF64DAF033006F80E0039
:10BC40002288013292B2FF212280B154228801322F
:10BC500092B222801988B1543244090A5170208866
:10BC6000023080B220809A885AB1996803930029E3
:10BC70004CD0304401F0FEF9039B9A88238813448A
:10BC8000238095F82C30002B40F08F8028780028F6
:10BC90003FF421AF2B88012B38D023889A1CBA425D
:10BCA0003FF618AF012805D16978023119448F4257
:10BCB000FFF410AF023FFB1A06A99BB221F8083D22
:10BCC000B018FFF769FE00287FF405AF2A78022A32
:10BCD00000F0BB806878BDF810108842C0F0B180D9
:10BCE0008B42C0F0AE800B460921FE2B3FF6F2AE30
:10BCF0002288581CB0542288013292B22280B1545A
:10BD000022880132134423800020E4E6072006B095
:10BD1000BDE8F08705F1080802228DE89000404652
:10BD200011463346FFF73CFE00287FF4D4AE8DE881
:10BD300090004046334610220621FFF731FE0028CE
:10BD40003FF4B8AEC7E605F110088DE89000404614
:10BD5000334602220321FFF723FE00287FF4BBAE07
:10BD60008DE890004046334610220721FFF718FE69
:10BD700000283FF4A3AEAEE605F118088DE8900068
:10BD80004046334602221421FFF70AFE00287FF4C2
:10BD9000A2AE8DE890004046334610221521FFF7F1
:10BDA000FFFD00283FF48EAE95E6D5F82880B8F167
:10BDB000000FABD0B8F804200232FE2A3FF68AAE5C
:10BDC00023884FF000094FF0160A0132F2542388FD
:10BDD00001339BB2238006F803A0238801339BB272
:10BDE0002380B8F80020F2543344120A5A70238892
:10BDF00002339BB22380B8F80410F0180A4661B1F0
:10BE0000D8F808301946002B80D001F033F9B8F883
:10BE10000420238813449BB2238009F1010995F87B
:10BE20002C205FFA89F94A4509EB49087FF62EAFC5
:10BE3000AA6A02EB8808B8F804200232FE2AC4D9A4
:10BE400048E6012A08D008214FE7BDF810209342A8
:10BE5000F9D31346092148E78342F4D30346082166
:10BE600043E700BF75DF704776DF70477ADF7047C2
:10BE70007BDF704730B51D4B1A8885B2AA4283B06C
:10BE800001D003B030BD1A4C187A217B88420FD301
:10BE9000227C00211972BAB96369002BF1D000220B
:10BEA000ADF806508DF8042001A8984703B030BDC6
:10BEB000104603F10A01FFF7D5FF88B11128E0D041
:10BEC000A369002BF1D1DCE73B212846FFF7CCFF2B
:10BED00030F00803E0D0A369002BDDD09847DBE702
:10BEE0001A7A01321A7203B030BD00BF942D0020BF
:10BEF000782D0020F0B50288112A83B003463ED089
:10BF00002BD9122A08D0502A04D1684DC188EA8959
:10BF1000914246D003B0F0BD654C828821889142A1
:10BF2000F8D1E189B1F5FA7F61D200265889658997
:10BF3000854248D8A589854245D39B899E4242D8EF
:10BF400001F2F31199423ED3584B5B690121002065
:10BF500061722072002B78D1DCE7102ADAD1C27B23
:10BF6000012AD7D1524C21884FF6FF72914242D01C
:10BF70004E4B9B69002BCDD004209847CAE74C4C10
:10BF8000828823889A42C5D16068FCF7D5FC18B135
:10BF9000464B9B6903B198474FF6FF73238003B06C
:10BFA000F0BD028A022AB5D1414C86882788BE425C
:10BFB000B0D1123000F074F900285AD16068FCF753
:10BFC000BBFC70B9A6E7394D267A6B68A968606832
:10BFD000002E08BF194600236372FCF747FC0028B7
:10BFE00098D0AB69002B95D0984703B0F0BD6FF4A3
:10BFF000F9700E189AE72F4D8288228003CDC4F87D
:10C000000E10E589C4F80A000021B5F5FA7F217207
:10C0100002D36FF4F976A919588A668986421AD82C
:10C02000A689864217D39B8A8B4214D305F2F31557
:10C030009D4210D31D4BD8890121617200287FF4E5
:10C0400069AF5B69002B3FF465AF8DF80410ADF864
:10C05000062001A8C8E7154DEB8900216172002B6D
:10C060007FF458AF60686968FCF700FC0028B8D11D
:10C0700050E7637A63B96B68A968277A60683246CB
:10C08000002F08BF1946FCF7F1FB0028A9D141E7B2
:10C090006B6900222272002B3FF43CAF0122ADF805
:10C0A00006708DF8042001A8984733E7782D00200A
:10C0B000942D0020A82D002050B3F8B50546064663
:10C0C0000FCD174F3C460FC4864695E80700154B29
:10C0D0003B6084E80700BEF1000F1BD07046FFF7FD
:10C0E000C5FEA0B932681068516803C30E4B0F49F2
:10C0F0000F4A18464FF6FF7440F8041F1C800021B9
:10C10000FCF79EFB002814BF03200020F8BDF8BDFB
:10C110000E2070471846FFF7ABFE0028E6D0F8BDAA
:10C12000782D0020A82D0020942D0020B02D002077
:10C1300075BE02002DE9F04F0388B0F804A0103B53
:10C1400099B081460A2B1BD8DFE803F02F281A1A72
:10C150001A1A1A1A1A1D0600047A48482409032CD0
:10C1600051466AD8FCF762FE032C68D05146444819
:10C17000FCF75CFE022C66D051464248FCF756FEA6
:10C1800019B0BDE8F08F037A002BF9D1437A3B4810
:10C190001B0751466FD4FCF749FEF1E751463A4878
:10C1A000FCF744FE19B0BDE8F08F384A936818A830
:10C1B000DB4340F8603D5168FCF766FE009B01934D
:10C1C000019B8BB34FF000084446214601A8FCF7C1
:10C1D00037FE30B118AB03EB480308F1010823F830
:10C1E000284C0134142CF0D1CDF834800DAD0FCD96
:10C1F00002AC0FC40FCD0FC495E8070084E8070018
:10C20000B8F1000F10D0224E0DF10A0B00273BF8B9
:10C21000025F204C204629460434FCF707FEA64264
:10C22000F8D101374745F2D1BAF1130F12D90420E2
:10C23000FCF790F819B0BDE8F08FFCF7EDFD514622
:10C240000F48FCF7E9FD51460E48FCF7E5FD19B033
:10C25000BDE8F08F51460C48FCF7DEFD51460D4815
:10C26000FCF7DAFD99F80F30022B89D151460A48C4
:10C27000FCF7D2FD84E7FCF7CFFD81E7E82D002035
:10C28000E42D0020E02D0020D82D0020D02D00200E
:10C290004C2E0020D42D0020DC2D0020AADF70477A
:10C2A000007800F001007047F0B58B7891B0002B5A
:10C2B0000C460988ADF80C1008BF01230546164648
:10C2C0006846032200218DF80E3000F0DEFE9DF856
:10C2D0000020637C02F0F0026FF30712013B8DF83F
:10C2E0000020042B10D8DFE813F020012A010500FC
:10C2F000350116019DF80030012262F30303032289
:10C3000062F307138DF800309DF80120A37C02F042
:10C31000F0026FF30712013B8DF80120042B10D8B7
:10C32000DFE813F02D0137010500EE0023019DF831
:10C330000130012262F30303032262F307138DF835
:10C3400001309DF80230E77B227D207C217B67F362
:10C35000C303002A60F3041314BF0222012261F315
:10C36000000362F3420309A81C2200218DF8023069
:10C3700000F08BFE637B13F0300F40F08F80627B08
:10C38000A37B8DF824200021142204A88DF82530E9
:10C3900000F07BFEA368A288CDF814D003A9049115
:10C3A000ADF81C201BB1E2880893ADF81820A369F2
:10C3B000002B44D001AF03220021384600F065FE77
:10C3C000A2699DF804101388ADF82C305388ADF89D
:10C3D0002E3050680D97137B0A9001F0F0016FF337
:10C3E0000711013B8DF80410042B3DD8DFE813F052
:10C3F0001B0125013200F20011019DF805300121D9
:10C4000061F30303032161F307138DF80530917A7B
:10C410009DF8063061F3C3038DF80630D17A61F3DD
:10C4200004138DF80630117A927B002A61F3000321
:10C4300014BF0222012262F342038DF80630E36941
:10C4400003B10C93334604AA09A92846FFF726FF37
:10C4500011B0F0BD9DF80430012161F30303032105
:10C4600061F307138DF804309DF80510537B01F03C
:10C47000F0016FF30711013B8DF80510042BC6D8AE
:10C4800001A151F823F000BFFFC50200BFC50200A3
:10C49000FBC30200A9C50200EBC50200032202A8EB
:10C4A000002100F0F2FD9DF80920E37C02F0F0028B
:10C4B0006FF30712013B8DF80920042B0ED8DFE83B
:10C4C00003F0D1DB03E6C7009DF80930012262F3D7
:10C4D0000303032262F307138DF809309DF8083037
:10C4E0009DF80A1002AA0E92012262F3030362F37E
:10C4F000071362F342018DF808308DF80A103EE709
:10C500009DF80130022262F30303012262F3071354
:10C510008DF8013015E79DF80030022262F3030325
:10C5200062F307138DF80030EEE69DF8003001222B
:10C5300062F3030362F307138DF80030E4E69DF81D
:10C540000030012262F30303022262F307138DF825
:10C550000030D9E69DF80030022262F30303012285
:10C5600062F307138DF80030CEE69DF80130022209
:10C5700062F3030362F307138DF80130E1E69DF8DF
:10C580000130012262F3030362F307138DF80130D7
:10C59000D7E69DF80130012262F30303022262F321
:10C5A00007138DF80130CCE69DF80530022161F3C8
:10C5B0000303012161F307138DF8053027E79DF888
:10C5C0000530012161F30303022161F307138DF8A4
:10C5D00005301CE79DF80430022161F303030121BB
:10C5E00061F307138DF804303EE79DF80530022112
:10C5F00061F3030361F307138DF8053007E79DF836
:10C600000530012161F3030361F307138DF8053051
:10C61000FDE69DF80430022161F3030361F3071383
:10C620008DF8043020E79DF80430012161F3030305
:10C6300061F307138DF8043016E79DF804300121EB
:10C6400061F30303022161F307138DF804300BE754
:10C650009DF80930022262F3030362F307138DF899
:10C6600009303BE79DF80930012262F3030362F3CE
:10C6700007138DF8093031E79DF80930012262F384
:10C680000303022262F307138DF8093026E79DF8B1
:10C690000930022262F30303012262F307138DF8CB
:10C6A00009301BE790DF7047A5DF7047B5DF7047A3
:10C6B00088B110B41B224FF01714002301610460ED
:10C6C000C0F806400271027342738372C3725DF850
:10C6D000044B184670470E20704700BF70B5858820
:10C6E00084B02DBB0388232B0C4600F0C78021D9D2
:10C6F0003A2B00F0B180552B71D0242B00F098809C
:10C70000A37AABB1E1880020FFF7CEFF002800F04C
:10C710008B8011280CD0FDF749F9834A834B84495B
:10C720009B1ADB081B04024643F00100FBF754F997
:10C7300004B070BD102B0BD0112BE1D11B234FF097
:10C7400017128D72CD72C1F806200B734B73EFE791
:10C750000B790B73C27B012A00F0AC80022A00F037
:10C76000A680C98822898A42C0F0A780627B9A424B
:10C77000C6D200259BB228466A4602A9ADF8083009
:10C78000ADF80A30ADF80C50ADF80E500095ADF88C
:10C790000450FFF787FF0028B2D0634B634EF61AB0
:10C7A000F608FDF703F9360446F0010603462A466B
:10C7B00030466049FBF78AF9BDF80020BDF8023029
:10C7C00002B91BB15C493046FBF780F9BDF8042083
:10C7D000002A95D030465949FBF7FEF890E7C38808
:10C7E000C988A572172B38BF17238B4228BF0B4669
:10C7F00028462381FFF75AFF002866D1E37A002BF1
:10C800007FF47EAF2269002A3FF47AAF2189ADF828
:10C810000A3040F67720ADF80800ADF80C1020463D
:10C8200002A99047A37A6CE70122A072E2727FE727
:10C830000B69027A4A73002B3FF462AF4DF67A20FF
:10C840000295ADF80C50ADF8080002A98DF80C2047
:10C8500020469847A37A54E74389C98822698B42C6
:10C8600028BF0B46172B38BF1723238112B1E17A5B
:10C87000002938D10023E372A37259E7037A0A7BB7
:10C88000ADF80C50934228BF134602A96A462846C9
:10C89000ADF80E500095ADF80830ADF80A30ADF89F
:10C8A0000450FFF7FFFE00283FF42AAF75E74988E0
:10C8B000E18057E70988E18054E70020FFF7F4FEA4
:10C8C000E8B90123E372237B50E7FDF76FF8164ABE
:10C8D000164B1B499B1ADB081B04024643F0010060
:10C8E000FBF77AF88AE740F67721ADF80810ADF843
:10C8F0000A50ADF80C3002A920469047BAE711283B
:10C9000003D10123A372237B30E7FDF74FF8064ADA
:10C91000064B07499B1ADB081B04024643F0010043
:10C92000FBF75AF8237B21E74CDE020094DE02007D
:10C93000B8D90200D4D8020020D9020060D9020080
:10C94000ECD90200B0DF704766DF704770B169B1A3
:10C950000378DE2B08D00B684360DE224FF6FF73AE
:10C960000270438000207047082070470E207047F7
:10C9700020B10378DE2B03D0082070470E207047CB
:10C9800041800020704700BF19B110B10B78DE2B39
:10C9900000D0704730B505464B888088984285B0F6
:10C9A0000C4626D02B88012B13D005B030BD0021BA
:10C9B000FFF7CAFF0346002845D0112842D063681C
:10C9C00098472B88112B35D0512B3ED0012BECD121
:10C9D000A8882B7A012BE8D162888242E5D12372A4
:10C9E0000021FFF7B1FF002841D011281FD1237289
:10C9F000DBE70B7A002BDAD12B88112B1ED0512BC1
:10CA0000D1D1AB79022BD0D1AA7B02F0FD01042950
:10CA100020D0052AC9D100220092694601928DF8E2
:10CA2000003002920392FFF78DFF0028BDD06368AB
:10CA30009847BAE7AA8863889A42B6D14FF6FF733F
:10CA40006380B2E701232372BBE76088AB8883422F
:10CA5000D7D0AAE700224FF4C07501920092694630
:10CA6000029203928DF80030ADF80450DBE720729B
:10CA70009BE700BFA8DF7047AEDF704762DF7047FB
:10CA80000388502B06D110B44B88C4889C4202D036
:10CA90005DF8044B7047038A012BF9D14B69002BD9
:10CAA000F6D0827C5DF8044B80881847F0B52F4B98
:10CAB0000E6805460FCB8FB002AC84E80F006E61A4
:10CAC000204605F11201FFF7D9FF08B10FB0F0BD04
:10CAD0000EA941F2235321F8343D2A46AB7C8DF850
