:020000040800F2
:1000000000500020E54C00082D4D00082D4D000843
:100010002D4D00082D4D00082D4D0008000000005A
:100020000000000000000000000000002D4D00084E
:100030002D4D0008000000002D4D0008B7410008BC
:100040002D4D00082D4D00082D4D00082D4D0008A8
:100050002D4D00082D4D0008954B00089B4B0008C6
:10006000A14B0008A74B0008AD4B00082D4D000820
:100070002D4D00082D4D00082D4D00082D4D000878
:100080002D4D00082D4D00082D4D00082D4D000868
:100090002D4D00082D4D00082D4D0008B34B0008D4
:1000A0002D4D0008855100082D4D0008995100087C
:1000B0009D510008B1510008C5510008551B0008AA
:1000C000611B00086D1B0008791B00082D4D0008FE
:1000D0002D4D0008AD4A0008C54A0008DD4A000859
:1000E000C94B0008094700082D4D0008000000001A
:1000F0000000000000000000000000000000000000
:0C01000000000000000000005FF808F1A3
:10010C0010F8012B11F8013B012A28BF9A42F7D0B5
:10011C00D01A7047034613F8012B002AFBD1181A8A
:10012C00013870474FF0FF0C1CEAD0521EBF1CEA7E
:10013C00D15392EA0C0F93EA0C0F6FD01A4480EA59
:10014C00010C400218BF5FEA41211ED04FF0006342
:10015C0043EA501043EA5111A0FB01310CF000406E
:10016C00B1F5000F3EBF490041EAD3715B0040EA94
:10017C00010062F17F02FD2A1DD8B3F1004F40EB64
:10018C00C25008BF20F00100704790F0000F0CF037
:10019C00004C08BF49024CEA502040EA51207F3AFB
:1001AC00C2BFD2F1FF0340EAC250704740F40000D6
:1001BC004FF00003013A5DDC12F1190FDCBF00F0C7
:1001CC0000407047C2F10002410021FA02F1C2F175
:1001DC00200200FA02FC5FEA310040F1000053EA11
:1001EC004C0308BF20EADC70704792F0000F00F05F
:1001FC00004C02BF400010F4000F013AF9D040EA65
:10020C000C0093F0000F01F0004C02BF490011F4F8
:10021C00000F013BF9D041EA0C018FE70CEAD153F6
:10022C0092EA0C0F18BF93EA0C0F0AD030F0004C76
:10023C0018BF31F0004CD8D180EA010000F000402A
:10024C00704790F0000F17BF90F0004F084691F0E8
:10025C00000F91F0004F14D092EA0C0F01D1420222
:10026C000FD193EA0C0F03D14B0218BF084608D1EB
:10027C0080EA010000F0004040F0FE4040F4000035
:10028C00704740F0FE4040F44000704781F0004160
:10029C0002E000BF83F0004330B54FEA41044FEA5F
:1002AC00430594EA050F08BF90EA020F1FBF54EAFA
:1002BC00000C55EA020C7FEA645C7FEA655C00F096
:1002CC00E2804FEA5454D4EB5555B8BF6D420CDD67
:1002DC002C4480EA020281EA030382EA000083EAEA
:1002EC00010180EA020281EA0303362D88BF30BD8A
:1002FC0011F0004F4FEA01314FF4801C4CEA1131E0
:10030C0002D0404261EB410113F0004F4FEA03333E
:10031C004CEA133302D0524263EB430394EA050FC9
:10032C0000F0A780A4F10104D5F1200E0DDB02FA38
:10033C000EFC22FA05F2801841F1000103FA0EF2CC
:10034C00801843FA05F359410EE0A5F120050EF192
:10035C00200E012A03FA0EFC28BF4CF0020C43FAC3
:10036C0005F3C01851EBE37101F0004507D54FF0D0
:10037C00000EDCF1000C7EEB00006EEB0101B1F520
:10038C00801F1BD3B1F5001F0CD349085FEA300066
:10039C004FEA3C0C04F101044FEA445212F5800F71
:1003AC0080F09A80BCF1004F08BF5FEA500C50F10E
:1003BC00000041EB045141EA050130BD5FEA4C0CF1
:1003CC00404141EB0101013C28BFB1F5801FE9D24E
:1003DC0091F0000F04BF01460020B1FA81F308BF71
:1003EC002033A3F10B03B3F120020CDA0C3208DD3D
:1003FC0002F1140CC2F10C0201FA0CF021FA02F118
:10040C000CE002F11402D8BFC2F1200C01FA02F187
:10041C0020FA0CFCDCBF41EA0C019040E41AA2BFAC
:10042C0001EB0451294330BD6FEA04041F3C1CDA74
:10043C000C340EDC04F11404C4F1200220FA04F094
:10044C0001FA02F340EA030021FA04F345EA03013E
:10045C0030BDC4F10C04C4F1200220FA02F001FA00
:10046C0004F340EA0300294630BD21FA04F0294682
:10047C0030BD94F0000F83F4801306BF81F480111B
:10048C000134013D4EE77FEA645C18BF7FEA655C8E
:10049C0029D094EA050F08BF90EA020F05D054EA60
:1004AC00000C04BF1946104630BD91EA030F1EBF65
:1004BC000021002030BD5FEA545C05D14000494169
:1004CC0028BF41F0004130BD14F580043CBF01F55C
:1004DC00801130BD01F0004545F0FE4141F4700142
:1004EC004FF0000030BD7FEA645C1ABF194610461D
:1004FC007FEA655C1CBF0B46024650EA013406BF1E
:10050C0052EA033591EA030F41F4002130BD00BFDC
:10051C0090F0000F04BF0021704730B54FF4806499
:10052C0004F132044FF000054FF0000150E700BF1A
:10053C0090F0000F04BF0021704730B54FF4806479
:10054C0004F1320410F0004548BF40424FF0000166
:10055C003EE700BF42004FEAE2014FEA31014FEAA9
:10056C0002701FBF12F07F4393F07F4F81F06051F8
:10057C00704732F07F4208BF704793F07F4F04BF43
:10058C0041F40021704730B54FF4607401F0004520
:10059C0021F000411CE700BF50EA010208BF704780
:1005AC0030B54FF000050AE050EA010208BF704771
:1005BC0030B511F0004502D5404261EB41014FF4DA
:1005CC00806404F132045FEA915C3FF4D8AE4FF0E2
:1005DC0003025FEADC0C18BF03325FEADC0C18BFC5
:1005EC00033202EBDC02C2F1200300FA03FC20FA16
:1005FC0002F001FA03FE40EA0E0021FA02F1144463
:10060C00BDE600BF70B54FF0FF0C4CF4E06C1CEA7B
:10061C0011541DBF1CEA135594EA0C0F95EA0C0FEC
:10062C0000F0DEF82C4481EA030621EA4C5123EA5F
:10063C004C5350EA013518BF52EA033541F480118E
:10064C0043F4801338D0A0FB02CE4FF00005E1FB41
:10065C0002E506F00042E0FB03E54FF00006E1FB8B
:10066C0003569CF0000F18BF4EF0010EA4F1FF04CE
:10067C00B6F5007F64F5407404D25FEA4E0E6D410E
:10068C0046EB060642EAC62141EA55514FEAC5201F
:10069C0040EA5E504FEACE2EB4F1FD0C88BFBCF59B
:1006AC00E06F1ED8BEF1004F08BF5FEA500E50F14C
:1006BC00000041EB045170BD06F0004646EA010112
:1006CC0040EA020081EA0301B4EB5C04C2BFD4EB44
:1006DC000C0541EA045170BD41F480114FF0000E3D
:1006EC00013C00F3AB8014F1360FDEBF002001F0AB
:1006FC00004170BDC4F10004203C35DA0C341BDC25
:10070C0004F11404C4F1200500FA05F320FA04F0F6
:10071C0001FA05F240EA020001F0004221F000412A
:10072C0010EBD37021FA04F642EB06015EEA430E9D
:10073C0008BF20EAD37070BDC4F10C04C4F12005CD
:10074C0000FA04F320FA05F001FA04F240EA020080
:10075C0001F0004110EBD37041F100015EEA430E51
:10076C0008BF20EAD37070BDC4F1200500FA05F271
:10077C004EEA020E20FA04F301FA05F243EA0203F0
:10078C0021FA04F001F0004121FA04F220EA0200FF
:10079C0000EBD3705EEA430E08BF20EAD37070BD45
:1007AC0094F0000F0FD101F00046400041EB010125
:1007BC0011F4801F08BF013CF7D041EA060195F007
:1007CC00000F18BF704703F00046520043EB0303C1
:1007DC0013F4801F08BF013DF7D043EA06037047AE
:1007EC0094EA0C0F0CEA135518BF95EA0C0F0CD0B9
:1007FC0050EA410618BF52EA4306D1D181EA0301FF
:10080C0001F000414FF0000070BD50EA410606BFF8
:10081C001046194652EA430619D094EA0C0F02D13D
:10082C0050EA013613D195EA0C0F05D152EA033682
:10083C001CBF104619460AD181EA030101F00041A0
:10084C0041F0FE4141F470014FF0000070BD41F0E9
:10085C00FE4141F4780170BD70B54FF0FF0C4CF4C3
:10086C00E06C1CEA11541DBF1CEA135594EA0C0FE2
:10087C0095EA0C0F00F0A7F8A4EB050481EA030E2F
:10088C0052EA03354FEA013100F088804FEA033316
:10089C004FF0805545EA131343EA12634FEA0222E4
:1008AC0045EA111545EA10654FEA00260EF00041A5
:1008BC009D4208BF964244F1FD0404F5407402D2F7
:1008CC005B084FEA3202B61A65EB03055B084FEA88
:1008DC0032024FF480104FF4002CB6EB020E75EB85
:1008EC00030E22BFB61A754640EA0C005B084FEAAD
:1008FC003202B6EB020E75EB030E22BFB61A75462A
:10090C0040EA5C005B084FEA3202B6EB020E75EB74
:10091C00030E22BFB61A754640EA9C005B084FEAEC
:10092C003202B6EB020E75EB030E22BFB61A7546F9
:10093C0040EADC0055EA060E18D04FEA051545EAE8
:10094C0016754FEA06164FEAC30343EA52734FEA91
:10095C00C2025FEA1C1CC0D111F4801F0BD141EA0A
:10096C0000014FF000004FF0004CB6E711F4801F6F
:10097C0004BF01430020B4F1FD0C88BFBCF5E06F4F
:10098C003FF6AFAEB5EB030C04BFB6EB020C5FEA5F
:10099C00500C50F1000041EB045170BD0EF0004EB4
:1009AC004EEA113114EB5C04C2BFD4EB0C0541EAE6
:1009BC00045170BD41F480114FF0000E013C90E6E3
:1009CC0045EA060E8DE60CEA135594EA0C0F08BFA7
:1009DC0095EA0C0F3FF43BAF94EA0C0F0AD150EAA6
:1009EC0001347FF434AF95EA0C0F7FF425AF104639
:1009FC0019462CE795EA0C0F06D152EA03353FF461
:100A0C00FDAE1046194622E750EA410618BF52EADD
:100A1C0043067FF4C5AE50EA41047FF40DAF52EAB1
:100A2C0043057FF4EBAE12E74FF0FF3C06E000BF4E
:100A3C004FF0010C02E000BF4FF0010C4DF804CD5B
:100A4C004FEA410C7FEA6C5C4FEA430C18BF7FEA1B
:100A5C006C5C1BD001B050EA410C0CBF52EA430C49
:100A6C0091EA030F02BF90EA020F0020704710F1C9
:100A7C00000F91EA030F58BF994208BF90422CBF58
:100A8C00D8176FEAE37040F0010070474FEA410C51
:100A9C007FEA6C5C02D150EA013C07D14FEA430C6F
:100AAC007FEA6C5CD6D152EA033CD3D05DF8040BE0
:100ABC00704700BF8446104662468C461946634612
:100ACC0000E000BF01B5FFF7B7FF002848BF10F1E9
:100ADC00000F01BD4DF808EDFFF7F4FF0CBF01202E
:100AEC0000205DF808FB00BF4DF808EDFFF7EAFFAA
:100AFC0034BF012000205DF808FB00BF4DF808ED65
:100B0C00FFF7E0FF94BF012000205DF808FB00BF59
:100B1C004DF808EDFFF7CEFF94BF012000205DF8E3
:100B2C0008FB00BF4DF808EDFFF7C4FF34BF0120F0
:100B3C0000205DF808FB00BF4FEA410212F50012DD
:100B4C0015D211D56FF47873B3EB625212D94FEA08
:100B5C00C12343F0004343EA505311F0004F23FAF2
:100B6C0002F018BF404270474FF00000704750EA47
:100B7C00013005D111F0004008BF6FF00040704704
:100B8C004FF00000704700BF80F0004002E000BF53
:100B9C0081F0004142001FBF5FEA410392EA030F5C
:100BAC007FEA226C7FEA236C6AD04FEA1262D2EBA6
:100BBC001363C1BFD218414048404140B8BF5B42AB
:100BCC00192B88BF704710F0004F40F4000020F044
:100BDC007F4018BF404211F0004F41F4000121F05A
:100BEC007F4118BF494292EA030F3FD0A2F10102A4
:100BFC0041FA03FC10EB0C00C3F1200301FA03F1E2
:100C0C0000F0004302D5494260EB4000B0F5000F04
:100C1C0013D3B0F1807F06D340084FEA310102F1C3
:100C2C000102FE2A51D2B1F1004F40EBC25008BF75
:100C3C0020F0010040EA03007047490040EB00003F
:100C4C00013A28BFB0F5000FEDD2B0FA80FCACF140
:100C5C00080CB2EB0C0200FA0CF0AABF00EBC2506D
:100C6C0052421843BCBFD0401843704792F0000F5B
:100C7C0081F4000106BF80F400000132013BB5E7AE
:100C8C004FEA41037FEA226C18BF7FEA236C21D024
:100C9C0092EA030F04D092F0000F08BF0846704789
:100CAC0090EA010F1CBF0020704712F07F4F04D157
:100CBC00400028BF40F00040704712F100723CBF6A
:100CCC0000F50000704700F0004343F0FE4040F494
:100CDC00000070477FEA226216BF08467FEA236352
:100CEC000146420206BF5FEA412390EA010F40F43D
:100CFC00800070474FF0000304E000BF10F0004389
:100D0C0048BF40425FEA000C08BF704743F096436F
:100D1C0001464FF000001CE050EA010208BF70478A
:100D2C004FF000030AE000BF50EA010208BF704711
:100D3C0011F0004302D5404261EB41015FEA010C26
:100D4C0002BF84460146002043F0B64308BFA3F11E
:100D5C008053A3F50003BCFA8CF2083AA3EBC25300
:100D6C0010DB01FA02FC634400FA02FCC2F120021F
:100D7C00BCF1004F20FA02F243EB020008BF20F056
:100D8C000100704702F1200201FA02FCC2F12002BC
:100D9C0050EA4C0021FA02F243EB020008BF20EAB1
:100DAC00DC7070474FF0FF3C06E000BF4FF0010CC9
:100DBC0002E000BF4FF0010C4DF804CD4FEA4002A9
:100DCC004FEA41037FEA226C18BF7FEA236C11D0F3
:100DDC0001B052EA530C18BF90EA010F58BFB2EBA6
:100DEC00030088BFC81738BF6FEAE17018BF40F026
:100DFC00010070477FEA226C02D15FEA402C05D1DA
:100E0C007FEA236CE4D15FEA412CE1D05DF8040B5E
:100E1C00704700BF844608466146FFE70FB5FFF7F1
:100E2C00C9FF002848BF10F1000F0FBD4DF808EDA9
:100E3C00FFF7F4FF0CBF012000205DF808FB00BF9A
:100E4C004DF808EDFFF7EAFF34BF012000205DF8F4
:100E5C0008FB00BF4DF808EDFFF7E0FF94BF012041
:100E6C0000205DF808FB00BF4DF808EDFFF7D2FF3E
:100E7C0094BF012000205DF808FB00BF4DF808ED81
:100E8C00FFF7C8FF34BF012000205DF808FB00BF4E
:100E9C0042000ED2B2F1FE4F0BD34FF09E03B3EBD8
:100EAC00126209D44FEA002343F0004323FA02F004
:100EBC0070474FF00000704712F1610F01D14202F0
:100ECC0002D14FF0FF3070474FF00000704700BF69
:100EDC0053B94AB9002908BF00281CBF4FF0FF3195
:100EEC004FF0FF3000F00CB8ADF1080C6DE904CEFA
:100EFC0004F0F8FCDDF804E0DDE9022304B07047EF
:100F0C00704700BF10B5054C237833B9044B13B1AF
:100F1C000448AFF300800123237010BDD0000020E3
:100F2C0000000000B45B000808B5034B1BB103497B
:100F3C000348AFF3008008BD00000000D40000207F
:100F4C00B45B00080346B0F90A0008B103EB0010CB
:100F5C00704738B500250446436A011D03441D71D2
:100F6C00006804F0C7FA656238BDF8B50446164649
:100F7C000D468F18BD420DD0636A15F8011B5A1C23
:100F8C006262E21802331F2B1171F3D92046FFF76E
:100F9C00E0FFEFE73046F8BD38B50546064C0021BA
:100FAC00204601F082F92946204604F030F920460B
:100FBC00BDE8384001F0DEB85C0200201FB50446E5
:100FCC00144904F004FA0A22134901A804F069FA3E
:100FDC0001A9204604F04CFA01A804F0B3F90A2246
:100FEC000E4901A804F05DFA01A9204604F040FA6C
:100FFC0001A804F0A7F90A22094901A804F051FA42
:10100C0001A9204604F034FA01A804F09BF920460B
:10101C0004B010BD065C00085000F81F5400F81F07
:10102C006480FF011FB5084C23785BB901A8FFF75A
:10103C00C5FF01A9054804F013FA01A804F082F9D0
:10104C000123237004B010BDF8000020EC00002038
:10105C0008B501210D2003F065FE02211E2003F0CE
:10106C0061FE01211F2003F05DFE01211E2003F013
:10107C00A7FE01210C2003F055FE0849084801F099
:10108C002DF920B90749084804F0D2F8FEE7FFF71C
:10109C00C9FFBDE80840054801F07EB9400ECF19E4
:1010AC005C020020CC5B00080804002094020020A5
:1010BC00034630B5D2E901041030844212D3A4F1B6
:1010CC00100090605A685AB1851A2D1155815860DC
:1010DC00002344F8041C24F8063C04F8083C30BDFA
:1010EC001860F4E70020FAE72DE9F04116460446B3
:1010FC00002838D00F6897B3D2E900359D420FD93C
:10110C001A4607F1FF3E92F800801EF801CF1046F8
:10111C00C44502F101021CD1BCF1000FF3D17BB923
:10112C008F68B2687B1C2B44934218D87360B5B19E
:10113C003A462846096804F0BDFA0023EB552B46C5
:10114C00227A012022F07F0242F0050222722360F3
:10115C000AE010F8013B002BFBD10346CEE7237AC3
:10116C0023F07F0323720020BDE8F081F8B5037AE9
:10117C00174613F07F0202BF23F07F0343F02003D6
:10118C000372047A054608BFC0E9002214F020005F
:10119C000E4611D0084679B12C6874B1E168B142A1
:1011AC0009D019B13046FEF7ABFF20B12046FFF74E
:1011BC00C9FE0446F1E72046F8BD3A4631462846BA
:1011CC00FFF776FFF8E738B5044608460D46FEF7FC
:1011DC00A1FF294602462046FFF7C7FEA36A034437
:1011EC00A36238BD436A10B55A1C4262C21802335E
:1011FC001F2B0446117101D9FFF7ABFEA36A013313
:10120C00A36210BD70B50D4622210446FFF7EAFF1C
:10121C00013D15F8011F79B10A4B9E7846B1DA7879
:10122C0002338A42F9D15C212046FFF7DBFF3146BD
:10123C002046FFF7D7FFECE722212046FFF7D2FF2D
:10124C0070BD00BFF65B0008000000002DE9F04700
:10125C0006230D468372074652492846FFF704FEC3
:10126C000446002840D0052600244FF02008DFF863
:10127C003891DFF838A1294659F82600FFF7EAFD26
:10128C0038B128465AF82610FEF74CFF0546444460
:10129C0024B2013E4FEA6808EDD200212846FFF740
:1012AC00EDFD28B32846FFF755F93CA3D3E90023FD
:1012BC00FFF724FCE0B1DFF8F890DFF8ECA0330680
:1012CC0016D4294659F82600FFF7D8FD40B1284618
:1012DC005AF82610FEF726FF0546A4EB080424B2A4
:1012EC004FEA6808013EEAE74FF020080526D4E7EC
:1012FC0028463C81FFF7CCFD0A2106460346DFF861
:10130C00B4803860092B07D9BA7AB8FBF1F8013AE6
:10131C00B3FBF1F3BA72F5E73046FFF7EBFC01468D
:10132C002846FFF735FC05464046FFF7E3FC01462F
:10133C002846FEF7F7FE8146FFF7AAFD0546FFF7A4
:10134C00D9FC01464846FFF723FC0146FFF722FC77
:10135C00FFF79EFD284440450FD278600A217B6838
:10136C00B3FBF1F201FB1233A3B997F90A30002B4E
:10137C0010DD013B7A60BB72F1E7002301367B6024
:10138C003E60002CEAD0092E81BF012301343C8140
:10139C003B60E3E73846BDE8F08700BFF168E388BF
:1013AC00B5F8E43E8096184B300000201800002061
:1013BC000000002040420F0010B50446521AFFF7FF
:1013CC00D4FDA36A0344A36210BD70B586B00B466E
:1013DC000DF116010A460A26B3FBF6F506FB153489
:1013EC00303401F8014D1C46092C2B46F4D8FFF77C
:1013FC00E3FF06B070BD000070B505468AB0084624
:10140C000C46FFF713FD28B928463F49FFF7DBFED2
:10141C000AB070BD00212046FFF708FD48B92146EF
:10142C002046FFF7B7FB01462046FFF7FFFC0028DC
:10143C00EAD100212046FFF703FD28B12D212846D3
:10144C00FFF7D0FE04F10044214601A8FFF7FEFE91
:10145C0001992846FFF7B9FF9DF90E10E1B10A4634
:10146C000A26029B0DF11F04013A52B2501C08D0FF
:10147C00B3FBF6F006FB1033303304F801390346A6
:10148C00F2E7C9B208AA2E20531AC94303F8010C7B
:10149C0011442846FFF790FFBDF90C30002B17DAEA
:1014AC001A492846FFF78FFE0DF126010A460A2439
:1014BC00BDF90C305B4293FBF4F004FB103330337A
:1014CC0001F8013D03460028F5D12846FFF774FFCB
:1014DC00BDF90C30002B9BDD65212846FFF782FE01
:1014EC000DF126010A460A24BDF90C3093FBF4F0E9
:1014FC0004FB1033303301F8013D03B20028F5D161
:10150C002846FFF759FF83E7075C00080C5C0008CE
:10151C0038B5027A054602F07F030C2B0C460DD829
:10152C0012F07E0F0ED0023B0A2B0BD8DFE803F033
:10153C004D4D4848620A600A560A0C00202B21D0F7
:10154C00402B06D0304958E001682046FFF754FF85
:10155C0038BD5B212046FFF745FE2D686DB128464E
:10156C002146FFF7D5FF2846FFF7ECFC054620B1D6
:10157C002C212046FFF736FEF0E75D212046FFF7D1
:10158C0031FEE5E77B212046FFF72CFE2D68ADB13F
:10159C00E9682046FFF736FE3A212046FFF722FE87
:1015AC0028462146FFF7B4FF2846FFF7CBFC05463B
:1015BC0020B12C212046FFF715FEE8E77D21DDE761
:1015CC0001682046FFF71EFEC2E7D0E90012204654
:1015DC00FFF7CBFCA36A0344A362B9E705682D218E
:1015EC002046FFF7FFFD29462046FFF7EEFEAFE74A
:1015FC000168F9E7036823B104492046FFF7E3FDCE
:10160C00A6E70349F9E700BF075C00080F5C000878
:10161C00145C0008F0B50121F1B00C2003F0D0FBF4
:10162C00684D0A2003F0F4FB00211F2003F0C8FBD7
:10163C002B686548654CB3FBF0F3616803EB43031F
:10164C006268521A9342FBDC01211F2003F0B8FBA5
:10165C002A685D4B6168B2FBF3F314225A435B4872
:10166C0043685B1A9A42FBDC00211F2003F0A8FBA5
:10167C0046F2905201211E2003F068FFFEF758FF3E
:10168C004EA3D3E90023FEF7BDFF514B0022FEF71A
:10169C00B9FFFFF751FA044600210C2003F090FB30
:1016AC000A2221464B4803F00BFE4B49494803F0F4
:1016BC00BFFD322003F0ACFB3EABCDE9373370AB52
:1016CC00CDE939339DF8F43023F07F038DF8F430F5
:1016DC00424B1B7843B1424937AA3BA8FFF746FD62
:1016EC00404937AAFFF700FD3F4937AA3BA8FFF74F
:1016FC003DFD68B1037A002C03F08003ADBF43F0CD
:10170C00080343F00A0364420372B8BF0372046017
:10171C0001AF3846354903F05AFE4FF0000C0497E0
:10172C00CDF834C00EAC04AD0FCD0FC40FCD0FC42B
:10173C0095E8030084E8030018AD0EAE0FCE0FC57C
:10174C000FCE0FC594E8030085E8030022AC18AE59
:10175C000FCE0FC40FCE0FC495E8030084E803002E
:10176C002CAD22AE0FCE0FC50FCE0FC594E80300E3
:10177C0085E8030022A8CDF8D8C0FFF7EAFB18A82B
:10178C00FFF7E7FB2CA93BA8FFF7C2FE2CA8FFF73D
:10179C00E0FB0EA8FFF7DDFB04A8FFF7DAFB3946E8
:1017AC002CA803F053FE2CA8FFF7F6FB2CA803F093
:1017BC00C9FD384603F0C6FD71B0F0BD9CC420B025
:1017CC007268A13F6800002040420F00001000E04A
:1017DC000000E03F080400201A5C0008F80000201C
:1017EC00205C0008EC000020235C0008065C00086C
:1017FC0008B501210D2003F0E3FA4FF47A7003F0E1
:10180C0007FBFFF707FF0D20002103F0D9FABDE815
:10181C0008404FF47A7003F0FBBA000010B5054C89
:10182C000548214603F0D3FD2146BDE8104003488E
:10183C0003F0CDBD065C0008EC000020FC0000208D
:10184C0008B5044803F07EFDBDE80840024803F0EB
:10185C0079BD00BFFC000020EC000020024B187882
:10186C00024B1B78C01A7047AF010020AD0100205D
:10187C00074A084913780978994281BF06490968D3
:10188C00C85C01338CBF13704FF0FF30704700BF42
:10189C00AD010020AF010020B4010020054B064A29
:1018AC001B7812789A4283BF044A1268D05C4FF0BE
:1018BC00FF307047AD010020AF010020B4010020C3
:1018CC00202838BF202038B5084D0446014628682A
:1018DC0003F0ACFF18B1064B28601C7038BD2146D4
:1018EC00BDE83840034802F00FBF00BFB80100202C
:1018FC00B2010020295C000837B5164B04461B7852
:10190C008DF80710DBB1144D144A28781278013089
:10191C00904201D9FFF7D4FF114B186818B9012375
:10192C00636003B030BD0F4A9DF807101378C154A3
:10193C00137801200133DBB213702B70F1E7012215
:10194C000DF10701143000F095F8B0FA80F0400961
:10195C00E7E700BFAC010020B0010020B20100207D
:10196C00B8010020AE010020044B186820B1044BD4
:10197C0000211A7803F0ACBE704700BFB401002000
:10198C00B1010020044B186820B1044B00211A78D7
:10199C0003F09EBE704700BFB8010020B2010020CA
:1019AC0010B50024064B1C70064B1C70FFF7DCFFB7
:1019BC00054B1C70054B1C70BDE81040FFF7E2BFD7
:1019CC00AD010020AF010020AE010020B0010020CD
:1019DC00F8B5164B05461B780F461446EBB1144E62
:1019EC00144B30781B781044984201D9FFF768FFEC
:1019FC00114B1B6823B901221C466A602046F8BDB6
:101A0C000E4D224628783946184403F053FE2B78A5
:101A1C002344DBB22B703370F0E792B2143000F039
:101A2C0029F8002818BF0024E8E700BFAC0100200B
:101A3C00B0010020B2010020B8010020AE0100204E
:101A4C0000214FF47A72C0E90112054A0260054A7E
:101A5C009188A0F86C10D288A0F86E20704700BF57
:101A6C004C5C0008FC5F00080148FFF7E9BF00BFB1
:101A7C0008010020202A30B50ED800239CB2A242C7
:101A8C0004D8D2B280F88C20002030BDCD5CC418B4
:101A9C0084F86C500133F1E70120F6E7C36810B508
:101AAC009A4204461CD171B9436E80F8891003B177
:101ABC009847204694F8882004F168012023BDE85B
:101ACC00104000F0C9BD00230122C36580F88920B5
:101ADC00C16D0423BDE810400144683100F0F7BD2E
:101AEC0010BD10B590F889300446012B05D1C36D9B
:101AFC001BB1C16D036E68309847022384F889309E
:101B0C0000232046E365BDE8104000F01BBEC36D0A
:101B1C001F2BDEBFC36D0133C36590F88930012BD9
:101B2C00DAB205D1C16D04230144683100F0CFBD98
:101B3C007047002380F88830704790F88A300BB9D2
:101B4C0000F000BE70470000014B186800F0F8BEB2
:101B5C00BC010020014B186801F016BBBC01002031
:101B6C00014B586800F0ECBEBC010020014B5868DA
:101B7C0001F00ABBBC010020232970B504461BD818
:101B8C0000230C2505FB03F6A65FD8B2B1420DD09D
:101B9C000133042BF6D1012A0CD100230C2505FBB3
:101BAC0003F2A65ED8B2013601D1A15270BD013349
:101BBC00042BF4D11846F9E70420F7E770B5034677
:101BCC004FF6FF72012500240B4E00F130011A80F4
:101BDC005E601D725C720C338B42F8D1074B02862F
:101BEC00998EA0F89010D98EA0F892105B8EA0F868
:101BFC009620A0F8943070BD00093D00FC5F0008F1
:101C0C00232970B505460E4621D80122FFF7B4FFF3
:101C1C00032804461BD8232E0BD0B5F9963001337C
:101C2C0007D10121304603F07DF80121304603F045
:101C3C00C7F80C20002300FB045485F88530627A29
:101C4C00237A616805F1340000F0D0F82E8670BD5F
:101C5C0082B0F8B5232906AC05460E4684E80C0084
:101C6C0026D80122FFF788FF0328044620D80C272A
:101C7C0007FB0057079B232E7B60BDF820303B8170
:101C8C000BD0B5F99630013307D10121304603F062
:101C9C0049F80121304603F093F80C2000FB045462
:101CAC007968237A627A05F1340000F09FF82E8669
:101CBC00BDE8F84002B070472329F0B519D80346A7
:101CCC004FF6FF74012600270A4D00F13002B3F9DC
:101CDC0000C00C338C4501BF23F80C4C43F8085C56
:101CEC0003F8046C03F8037C9342F0D14FF6FF73B6
:101CFC000386F0BD00093D0070B586B08DF80F204D
:101D0C000022232905460C461E468DF8172039D88B
:101D1C00B0F93030994212D0FFF72EFF032803D9C7
:101D2C009DF8170006B070BD0C2303FB0050037A1E
:101D3C00427A416805F1340000F058F82C86232CC7
:101D4C0007D0B5F99630013303D10021204603F0BA
:101D5C0037F84FF47A730DF1170200930DF10F0160
:101D6C00012305F1340000F069F9232CD8D0012EA1
:101D7C00D6D1B5F996300133D2D13146204603F095
:101D8C001FF8CDE71046CDE70148FFF717BF00BF9E
:101D9C00C401002070B50D0E445991FAA1F3B3FAA9
:101DAC0083F30F269B0006FA03F324EA030491FA4B
:101DBC00A1F1B1FA81F1890002FA01F121434151FB
:101DCC0070BD00000346074A106853B1064A93429F
:101DDC0005D002F57842934203D101F0F9BC01F031
:101DEC00E7BC704768000020003800402DE9F74F31
:101DFC000D46174698460446002800F0D0808649C8
:101E0C00B0F95E0002F04CFC84498146B4F95C00E8
:101E1C0002F046FC82498246B4F9600002F040FCB4
:101E2C0080490646B4F9620002F03AFC8346B9F1E7
:101E3C00000F00F0B480BAF1000F00F0B080002E5B
:101E4C0000F0AD805146484602F042FC59468246AD
:101E5C00304602F03DFC01468146504602F038FC0B
:101E6C00A065BAF1000F00F09A80B9F1000F00F0F4
:101E7C009680002800F09380B4F9623020605A1CE0
:101E8C0014BF4FF480234FF40073A3614FF482739B
:101E9C006360FFF797FFB5EB500FC0F08380002312
:101EAC00002617F0FD0FE3610CBF33460123022F10
:101EBC00636134BF3346022323610723B045E362D9
:101ECC0014BF33468023B4F95E00C4E90836A6601B
:101EDC00A662E660504902F0C3FBB4F95C004F49BE
:101EEC0002F0BEFBB4F960004D4902F0B9FB236966
:101EFC00B342B4F9603008BF0225C3F3031218BF14
:101F0C000125042A8CBF3046474903F00F0398BFC4
:101F1C0051F82200454A52F823100B0EC65891FA7C
:101F2C00A1F2B2FA82F39A000F239340334091FA54
:101F3C00A1F2B2FA82F2022D4FEA820223FA02F3E4
:101F4C004FEA11254DD0042B02D10822FFF722FFB6
:101F5C00C26822EA050295FAA5F50123B5FA85F5C2
:101F6C0003FA05F51543C5602E49B4F9620002F079
:101F7C0077FB23682E4A93423FD12E4B9A6942F449
:101F8C0080529A619B6903F480530093009B204616
:101F9C0001F008FD2268136843F04003136003B09E
:101FAC00BDE8F08FB5EB900F01D3082378E7B5EBC4
:101FBC00D00F01D3102373E7B5EB101F01D31823F7
:101FCC006EE7B5EB501F01D3202369E7B5EB901FEB
:101FDC0001D3282364E7B5EBD01F2CBF3023382363
:101FEC005EE7042B02D10822FFF7D4FEC36823EA74
:101FFC00050395FAA5F5C360B6E70F4A9342C6D11F
:10200C000C4BDA6942F48042DA61DB6903F48043F9
:10201C000193019BBBE700BFF45E0008C45E00089F
:10202C00245F0008545F0008540000201C5D000869
:10203C0000300140001002400038004013B538B1A8
:10204C0033B1049C009401F0E8FC032803D000B1E8
:10205C00022002B010BD0120FBE707B503688DF824
:10206C00071001225B680DF10701984703B05DF87A
:10207C0004FB7047416002720BB9437205E0012BFF
:10208C00FBD0022BF9D0032BF7D0704738B50025C5
:10209C004FF47A73C0E901530C4B044601220C49EE
:1020AC0040F8103B2B46FFF7E5FF18221123C4E93B
:1020BC000723152320462946C4E90935C4E90B55E5
:1020CC00656303F03DF9204638BD00BF745C000821
:1020DC0000127A00F0B504460F46164687B0002170
:1020EC00C06902F06DFE03AB04F1100207CA83E86D
:1020FC000700059A0F4D009228460CCB2321FFF7C1
:10210C00A7FD3A46012323212846FFF7F5FD324669
:10211C00012323212846FFF7EFFD064623212846FD
:10212C00FFF7CAFDE069012102F04AFE304607B014
:10213C00F0BD00BFC4010020002201F07F01FFF7B9
:10214C00C9BF10B504461321FFF7F6FFE36AC01AA6
:10215C0010BD036810B59B680446984738B1E36A14
:10216C00002101332046E362FFF7E6FF10BD4FF07C
:10217C00FF30FBE710B5832281210446FFF7AAFF4D
:10218C0012212046FFF7D8FF030702D402F0C9FD45
:10219C00F6E7082292212046FFF79CFF012010BD94
:1021AC002DE9F0410C46222115460746FFF7C4FFE6
:1021BC0006464319FF2B88BFC0F1FF0504EB050849
:1021CC00444506D08021384614F8012BFFF782FFD6
:1021DC00F6E77219A2213846D2B2FFF77BFF2846E8
:1021EC00BDE8F081036870B59B680546984780B1DF
:1021FC000D212846FFF7A0FF002106462846FFF7D1
:10220C009BFF044632468D212846FFF763FF20468C
:10221C0070BD4FF0FF30FBE781221146FFF75ABF2C
:10222C0080228121FFF756BF38B5CB17DD04044659
:10223C00002381620C4AC80445EA5131FEF748FE7E
:10224C000546C0F3074286212046FFF743FFC5F33E
:10225C00072287212046FFF73DFF2046EAB288215E
:10226C00BDE83840FFF736BF0048E801002310B541
:10227C001D2103630446FFF75FFF9D2100F0FE0262
:10228C002046BDE81040FFF725BF012310B51D21E6
:10229C0003630446FFF750FF40F001029D212046E6
:1022AC00BDE81040D2B2FFF715BF38B504460D4655
:1022BC00FFF7B2FF20466DB1FFF7E7FF00228D213B
:1022CC002046FFF707FF0022A2212046FFF702FF5E
:1022DC00012038BDFFF7CAFFF0E7000038B504460F
:1022EC000D46C069012102F01DFDE069012102F0DB
:1022FC0067FD206A431C10D0012102F013FD002160
:10230C00206A02F05DFD0A2002F082FD206A0121A4
:10231C0002F056FD0A2002F07BFD23211A48FFF73C
:10232C006FFC42212046FFF707FF12282AD12046D6
:10233C00FFF776FF29462046FFF776FF00228E2115
:10234C002046FFF7C7FE00228F212046FFF7C2FE72
:10235C000C212046FFF7F0FE40F003028C21D2B294
:10236C002046FFF7B7FE0422A6212046FFF7B2FE57
:10237C008F2289212046FFF7ADFE2046FFF74CFF48
:10238C00012038BD0020FCE7C40100200148FFF704
:10239C007DBE00BF5C02002010B5044601F034FF86
:1023AC000123237010BD00000022024B1A705A60EA
:1023BC001A7270479402002003460A4910B5086847
:1023CC000344EFF30882934205D90C224FF0FF30FF
:1023DC00054B1A6010BD054A054C121B9342F4D2F2
:1023EC000B60F7E748000020380500200050002063
:1023FC00000400007047000038B50E4B05461878F5
:10240C004FF47A73B3FBF0F30B4A1068B0FBF3F0A4
:10241C0000F0A0F8044658B90F2D09D802462946F9
:10242C004FF0FF3000F042F82046044B1D6038BDE1
:10243C000120FCE74C000020680000205000002028
:10244C00074A08B51368032043F01003136000F02B
:10245C001BF80020FFF7D0FFFFF7CCFF002008BDD2
:10246C0000200240034A044B11681B780B44136094
:10247C00704700BF340500204C000020014B186849
:10248C00704700BF3405002007490302CA6803F4F3
:10249C00E06322F4E0621204120C134343F0BF63B6
:1024AC0043F40033CB60704700ED00E0164B30B5C1
:1024BC00DC68C4F30224C4F10703251D042B28BFD8
:1024CC000423062D4FF0FF3598BF002405FA03F3C3
:1024DC0088BF033C21EA0303A34005FA04F422EA73
:1024EC000402002843EA0203ACBF00F16040074A33
:1024FC004FEA0313DBB2ABBF00F5614000F00F00F5
:10250C0080F80033135430BD00ED00E014ED00E012
:10251C00002808DB0123420900F01F0003FA00F039
:10252C00014B43F82200704700E100E000280DDB6E
:10253C000122430900F01F0002FA00F0044A203384
:10254C0042F82300BFF34F8FBFF36F8F704700BF6C
:10255C0000E100E00138B0F1807F0AD2F021064B97
:10256C00064A586082F823100020072298601A60EF
:10257C0070470120704700BF10E000E000ED00E064
:10258C00002809DB0122430900F01F0002FA00F0C9
:10259C00024A603342F82300704700BF00E100E0BC
:1025AC00704708B5FFF7FCFF08BD000008B590F8B0
:1025BC002130022B03D004238363012008BD036860
:1025CC001A6822F00E021A601A6822F001021A60D0
:1025DC00174A93421CD0143293421BD014329342AC
:1025EC001AD0143293421AD0143293421AD01432A5
:1025FC0093420CBF4FF480134FF080730D4A53601D
:10260C004FF480730384436B7BB198470020D5E76C
:10261C000123F3E71023F1E74FF48073EEE74FF457
:10262C008053EBE74FF48033E8E71846C6E700BF6A
:10263C00080002400000024090F8210070470000A2
:10264C00044A08B55169014202D0506102F086FA81
:10265C0008BD00BF0004014037B590F83D4004F0C0
:10266C002804282C31D100292DD0002A2BD090F809
:10267C003C40012C29D005682C68E4075EBF2C680F
:10268C0044F001042C602C6824F400642C60292490
:10269C0080F83D40202480F83E40002404644285AC
:1026AC00428DC36201946B6941620193AB690285EF
:1026BC0080F83C4020460193019B6B6843F4E06337
:1026CC006B6003B030BD0120FBE70220F9E737B5A2
:1026DC0090F83D4004F02804282C31D100292DD04D
:1026EC00002A2BD090F83C40012C29D005682C688E
:1026FC00E4075EBF2C6844F001042C602C6824F4C1
:10270C0000642C602A2480F83D40202480F83E4050
:10271C00002404644285428DC36201946B6941625A
:10272C000193AB69028580F83C4020460193019BE4
:10273C006B6843F4E0636B6003B030BD0120FBE7D2
:10274C000220F9E790F83D30202B14D1282380F893
:10275C003D30036800201A68D2075EBF1A6842F049
:10276C0001021A601A6842F480621A605A6842F4D4
:10277C0040725A607047022070477047704770472C
:10278C0070477047002370B5406A026890F83D109E
:10279C001468466B856B24F48064B362AB6214607E
:1027AC0043851468736324F001046B63146090F820
:1027BC003D40C9B2602C08D1202280F83D2080F821
:1027CC003E300364FFF7DDFF70BD01F028012829BE
:1027DC000DD1146844F001041460146844F480644E
:1027EC001460036380F83D10FFF7A7F9ECE7202293
:1027FC0080F83D2080F83E30F6E7000010B590F8E8
:10280C003D2090F83E10044610290368D2B212D134
:10281C00222A10D1196821F4006119605968090540
:10282C0004D4602A1CBF202284F83D20002222639D
:10283C0084F83E2007E002F028012829EED100227E
:10284C00226384F83D105A6812F400624CD05A6826
:10285C00606B22F400625A6090F82130012B364BE9
:10286C0028D04363FFF7A2FE50B12268606B136857
:10287C0023F001031360202384F83D30436B984709
:10288C0094F83D30226CDBB2520712D5282B10D1B4
:10289C0022682046536823F4E0635360274B2022C0
:1028AC00E3620023236384F83D2084F83E30FFF775
:1028BC0018F910BDA06B4363FFF778FE0028DFD03A
:1028CC0023685A69520605D51A69636A1A70636AD5
:1028DC00013363622268A06B136823F00103136059
:1028EC00202384F83D30C9E794F83D10602915D1B8
:1028FC00202184F83D1022645A69500605D51A69C6
:10290C00636A1A70636A0133636222682046136833
:10291C0023F001031360FFF734FFB1E75A69510646
:10292C0005D51A69636A1A70636A013363622046BB
:10293C00FFF703F9A4E700BF912700080000FFFF91
:10294C0070B5036804465A68C16A90F83E5090F816
:10295C003D00102D8CB0EEB2C0B202D0402E40F033
:10296C00B7829D695869C60707D4B1F52A0F02D002
:10297C00B1F12A4F52D10CB070BD91054ED5E26A1F
:10298C00B2F52A0F0CD10122E26294F83E20402AC3
:10299C0011D1226D52B9626C02F0FE021A61EAE7A3
:1029AC00E26AB2F12A4FF0D10822EDE7626C42F0F4
:1029BC000102D2B2F2E72269B2F5804F1BD194F832
:1029CC003D20212A626C12D102F0FE021A61626B68
:1029DC0012B9A16B0029CED0926A1AB9A26B926A75
:1029EC00002AC8D05A6842F400625A60C3E742F029
:1029FC000102D2B2EAE7226D32B9626CD21102F056
:102A0C00060242F0F002C9E7226D012AB3D1626CD2
:102A1C00D21102F0060242F0F102BFE7060703D51D
:102A2C00910501D5626CE4E7860740F1E6809105DB
:102A3C0040F1E38094F83E10E26A256B94F83D0077
:102A4C00C9B2222840F0D180206D40B9402906D16E
:102A5C0000905A6900929B690093009B8BE7216D53
:102A6C0081B92069B0F5404F0CD101915A6901929E
:102A7C009A690192019A1A6842F480721A60236D65
:102A8C00013328E0618D89B251B902915A690292E1
:102A9C009A690292029A1A6842F400721A6019E05A
:102AAC00618D89B201294AD112F5803F1CD11A6877
:102ABC0022F480621A605A6812F400620DD01A680F
:102ACC0022F480621A60002203925A6903929B6975
:102ADC000393039B002323654DE704925A690492E8
:102AEC009A690492049AD6E7082A1CD0202A1AD094
:102AFC00122D0DD1012A16D11A6822F480621A60A7
:102B0C00002205925A6905929B690593059BE1E7A2
:102B1C00102AF1D88F4921FA02F2D607ECD51A689F
:102B2C0042F48062EBE71A6822F480621A60002299
:102B3C0006925A6906929A690692069AABE7618DDB
:102B4C0089B2022933D1102A05D88249D140C94310
:102B5C0011F0010120D0196841F4006119600021C5
:102B6C00079159690791996907910799196821F497
:102B7C008061196059680D05ACD512F5803F06D0FF
:102B8C00511E1F29A6D8744ACA40D007A2D55A682C
:102B9C0042F480525A609DE7186840F480601860D7
:102BAC00089159690891996908910899E2E719689F
:102BBC0041F480611960596809050ED512F5803F02
:102BCC0007D0013A1F2A08D8634921FA02F2D60726
:102BDC0003D55A6842F480525A60002209925A690D
:102BEC0009929B690993099B74E700220A925A691E
:102BFC000A929B690A930A9BBDE66D07596840F1DE
:102C0C00AD800E053FF5B7AE0506C0F3800169D562
:102C1C00500567D5002968D194F83D20258D94F88E
:102C2C003E10D2B2E06AC9B2C5B9212A18D108281F
:102C3C0078D0202876D010F5803F73D05A6822F4D3
:102C4C00E0625A6011232363002384F83E30202372
:102C5C00204684F83D30FFF790FD8CE6212A05D004
:102C6C0040297FF488AE222A7FF485AE628D92B221
:102C7C001AB95A6822F48062B7E694F83E20402ACA
:102C8C0026D1226D62B9E26C012AA26C04D1D2B2B7
:102C9C001A61236D02331EE7C2F307221A61EEE6B6
:102CAC00226D012A02D1A26CD2B2F7E7226D022A60
:102CBC007FF461AE94F83D20222A04D11A6842F4C4
:102CCC0080721A6057E694F83D20212A7FF453AEA7
:102CDC00626A12F8011B19616262638D013B9BB23F
:102CEC00638548E600293FF446AE92057FF543AE76
:102CFC00E16A94F83D20212A7FF43DAE628D92B2B8
:102D0C00002AE5D108290DD020290BD011F5803FE0
:102D1C0008D0596821F4E06159601123236384F8C9
:102D2C003E2094E75A68204622F4E0625A601A6802
:102D3C0042F400721A6000232022236384F83D20A1
:102D4C0094F83E2084F83E30402A84D1FFF717FDDA
:102D5C0011E600BF14000100818000800E053FF5D4
:102D6C000AAE4506C0F3800148D5500546D500296A
:102D7C0047D194F83D20222A7FF4FDAD628D92B2AA
:102D8C00032A14D91A69636A1A70636A013363627D
:102D9C00638D013B9BB26385638D9BB2032B7FF4E8
:102DAC00EAAD2268536823F480635360E3E5E06A7C
:102DBC0002283FF4E0AD012A3FF6DDAD1A6822F49B
:102DCC0080621A605A6822F4E0625A601A69636A77
:102DDC001A70636A01336362638D013B9BB2638536
:102DEC00202384F83D3094F83E3084F83E10402B7C
:102DFC0068D121632046FFF7C3FCBCE500293FF4F2
:102E0C00BAAD92057FF5B7ADE26A608D616A80B2AA
:102E1C00042809D15A6822F480625A601B690B702D
:102E2C00636A0133636258E7608D80B203280CD16A
:102E3C005868042A20F480605860EFD0022AEDD044
:102E4C001A6822F480621A60E8E7608D80B202286A
:102E5C00E4D1012A01D0102A28D11A6822F4806208
:102E6C001A601B690B70626A531C6362638D013BB1
:102E7C009BB2638523681B695370636A22680133B4
:102E8C006362638D013B9BB26385536823F440738B
:102E9C005360202384F83D3094F83E30402B4FF0A3
:102EAC00000384F83E300DD12363A3E7042A01D03C
:102EBC00022A03D11A6842F48062D1E71A6842F4FC
:102ECC000072CDE7122320462363FFF757FC52E52F
:102EDC00216C11B3002559698E0728D5960526D586
:102EEC00226C02B19D6994F83D2002F02802282A38
:102EFC0016D15A686FEA950122F480625A602B064B
:102F0C004FF00003204654BFA289228B01F001012F
:102F1C0084F83C30FEF7C2FD2DE59D695969DBE76D
:102F2C006FF002025A61002384F83C3023E5CE0690
:102F3C0040F1B180950540F1AE8094F83D505A684F
:102F4C00EDB222F4E0625A6000220B925A690B92A5
:102F5C001A6842F001021A600B9A1A6822F4806215
:102F6C001A605A68120520D505F0F702222A4AD1B8
:102F7C00A06B0268526892B26285628D92B21AB1ED
:102F8C00226C42F0040222645A6822F400625A60F5
:102F9C00FFF752FB012808D0A06B794B4363FFF776
:102FAC0005FB10B1A06B436B9847638D9BB213B3B9
:102FBC0023685A69560709D51A69636A1A70636AD5
:102FCC0001336362638D013B9BB2638523685A694D
:102FDC00500609D51A69636A1A70636A0133636211
:102FEC00638D013B9BB26385638D9BB21BB1236CDC
:102FFC0043F004032364236C13B320460CB0BDE8E8
:10300C007040FFF7FBBB606B0268526892B262853E
:10301C00628D92B21AB1226C42F0040222645A6898
:10302C0022F400625A60FFF707FB0128BDD0606BE9
:10303C00534B4363FFF7BAFA0028B6D0606BB2E784
:10304C002A2D06D123632823204684F83D30FEF731
:10305C005EFD94F83D30282B0CD14A4B2022E362C4
:10306C0000232046236384F83D2084F83E30FEF78D
:10307C0038FD80E4236B222B02D0222D7FF47BAC15
:10308C0000232022236384F83D2084F83E30204620
:10309C00FEF73DFD6FE400F0F7002128C1F3800539
:1030AC0035D1090627D5560525D53DBB94F83D10DD
:1030BC00628DC9B292B2002A3FF45DAC626A12F81A
:1030CC00015B1D616262628D013A92B26285628D12
:1030DC0092B2002A7FF44FAC29297FF44CAC5A6889
:1030EC0022F480625A6028232063204684F83D3005
:1030FC00FEF71FFD3FE4002D3FF43DAC95057FF539
:10310C003AAC628D92B2002A3FF435ACE0E5480649
:10311C0027D5510525D53DBB94F83D20618DD2B204
:10312C0089B200293FF427AC1969636A1970636A84
:10313C0001336362638D013B9BB26385638D9BB2EC
:10314C00002B7FF418AC2A2A7FF415AC2268536844
:10315C0023F48063536022232363282384F83D30B7
:10316C0095E7002D3FF407AC92057FF504AC628D1A
:10317C0092B2002A3FF4FFAB1A69636A1A704FE6E9
:10318C00912700080000FFFFF8B5036804465F694B
:10319C005E68FA05C7F300250BD5F005C6F30025CC
:1031AC0007D56FF4807201255A611A6842F4004207
:1031BC001A60B90506D5F20542BF6FF4007245F0EE
:1031CC0002055A61780537D5F10535D594F83EC01E
:1031DC00618D94F83D20BCF1200F206B89B2D2B2E6
:1031EC005AD1002958D102F0F701212903D0282AFD
:1031FC0052D1212850D194F83D20E16AD2B208294D
:10320C0001D020292AD1282A28D12C4A2046E26232
:10321C005A6822F4E0625A606FF480625A611A684C
:10322C0022F480621A6000232022236384F83D205C
:10323C0084F83E30FEF755FC3A053BD5F30539D5FD
:10324C006FF40062236845F008055A61236C204630
:10325C001D432564BDE8F840FFF7D0BA212A17D1E9
:10326C0016492046E1622263202284F83D20002288
:10327C0084F83E205A6822F4E0625A606FF480624F
:10328C005A611A6822F480621A60FEF752FCD3E786
:10329C006FF480625A61CFE76FF480625A6194F8E0
:1032AC003E2045F00405102A02BF1A6842F4007251
:1032BC001A60C1E7002DC9D1F8BD00BF0000FFFFA7
:1032CC000122014B1A60704720000E422DE9F34198
:1032DC00054638B30368DB0710D42B689F075ED410
:1032EC002B68190700F195802B685A0700F1BF80F5
:1032FC00E869002840F02C81002029E08F4C63689D
:10330C0003F00C03042B07D0636803F00C03082BA9
:10331C000AD16368DE0307D523689C03DDD56B688F
:10332C00002BDAD1012013E06B68B3F5803F12D18A
:10333C00236843F480332360FFF7A0F80646236824
:10334C009803CAD4FFF79AF8801B6428F7D9032096
:10335C0002B0BDE8F0819BB9236823F4803323606D
:10336C00236823F480232360FFF788F8064623683C
:10337C009903B2D5FFF782F8801B6428F7D9E6E7EA
:10338C00B3F5A02F236803D143F480232360CFE748
:10339C0023F480332360236823F48023CBE7674C2A
:1033AC00636813F00C0F07D0636803F00C03082B51
:1033BC0010D16368DA030DD423689B0702D52B69FF
:1033CC00012BAFD123686A6923F0F80343EAC203E7
:1033DC00236085E72A695A4B6AB101221A60FFF70C
:1033EC004DF8064623689F07ECD4FFF747F8801B7F
:1033FC000228F7D9ABE71A60FFF740F806462368B6
:10340C0098077FF56DAFFFF739F8801B0228F6D9C6
:10341C009DE7AA69494E4B4BDAB101221A60FFF7BE
:10342C002DF80446736A9B070DD54FF4FA52464BA0
:10343C001B68B3FBF2F3019300BF019B5A1E019270
:10344C00002BF9D150E7FFF719F8001B0228E9D936
:10345C007DE71A60FFF712F80446736A9F077FF541
:10346C0043AFFFF70BF8001B0228F6D96FE7334C7C
:10347C00E369D80024D40127E36943F08053E36166
:10348C00E36903F080530093009B304E3368D905F9
:10349C0018D5EB68012B26D1236A43F00103236274
:1034AC00FEF7ECFF41F288380646236A9B073FD5AE
:1034BC00002F3FF41DAFE36923F08053E36117E75E
:1034CC000027E2E7336843F480733360FEF7D6FFDE
:1034DC0080463368DA05DCD4FEF7D0FFA0EB080099
:1034EC006428F6D933E7ABB9236A41F2883823F064
:1034FC0001032362236A23F004032362FEF7BEFF59
:10350C000646236A9807D3D5FEF7B8FF801B4045C3
:10351C00F7D91CE7052B236A03D143F0040323627C
:10352C00BAE723F001032362236A23F00403B6E70E
:10353C00FEF7A4FF801B4045B7D908E700100240F6
:10354C0000004242800442426800002000700040AB
:10355C002A4B5A681C4602F00C02082A3DD0002364
:10356C00274E022833602BD1FEF788FF07462368CD
:10357C0099011FD42B6AB3F5803F05D16268A96805
:10358C0022F400320A436260696A62680B4322F4D7
:10359C0074121343636001233360FEF76FFF05461B
:1035AC0023689A013FF5A8AEFEF768FF401B02287E
:1035BC00F6D9CCE6FEF762FFC01B0228D7D9C6E6C7
:1035CC00FEF75CFF054623689B017FF595AEFEF781
:1035DC0055FF401B0228F6D9B9E601283FF4B8AED6
:1035EC005B682A6A03F4803191427FF49BAE6A6A6D
:1035FC0003F4701393423FF47FAE93E60010024045
:10360C006000424230B5184B87B002AC03F1100594
:10361C00224618685968083303C2AB421446F7D1E6
:10362C0040F201231149ADF804304B6803F00C0251
:10363C00082A17D1C3F3834206A80244DB0312F80D
:10364C00102C0CD54B680A48C3F34043504306AAD0
:10365C00134413F8143CB0FBF3F007B030BD05482D
:10366C005043FAE70248F8E7945C00080010024067
:10367C0000127A0000093D002DE9F0410D46044688
:10368C0010B90120BDE8F081444A136803F0070328
:10369C008B4228D321688E0730D4CA0743D43F4AC3
:1036AC00136803F00703AB4265D822683C4D12F057
:1036BC00040F6CD1130706D56B68226923F4605391
:1036CC0043EAC2036B60FFF79DFF6B68354AC3F397
:1036DC000313D35CD840344B1860344B1868FEF796
:1036EC008BFE0020CEE7136823F007030B43136017
:1036FC00136803F007038B42C3D1CBE7284B11F0BF
:10370C00040F1EBF5A6842F4E0625A60080742BFB9
:10371C005A6842F460525A605A68A06822F0F0026B
:10372C0002435A60B9E762681D4E012A33681AD108
:10373C0013F4003FA5D0736841F2883823F00303DB
:10374C0013437360FEF79AFE07467368626803F0D2
:10375C000C03B3EB820FA2D0FEF790FEC01B4045CA
:10376C00F3D903208EE7022A02D113F0007FE1E7A0
:10377C0013F0020FDEE7136823F007032B431360EB
:10378C00136803F00703AB427FF47BAF8DE76B68E4
:10379C00E16823F4E0630B436B608BE7002002408D
:1037AC00001002405C5D0008680000205000002002
:1037BC00044B054A5B68C3F30223D35C034A1068CD
:1037CC00D8407047001002406C5D00086800002073
:1037DC00044B054A5B68C3F3C223D35C034A1068ED
:1037EC00D8407047001002406C5D00086800002053
:1037FC0003682DE9F341D907054620D5354CE3691B
:10380C00DA0032D40127E36943F08053E361E369C2
:10381C0003F080530193019B2F4E3368DB0526D5B3
:10382C00236A13F4407336D1236A6A6823F4407315
:10383C00134323621FB1E36923F08053E3612868CB
:10384C00830706D52349AB684A6822F440421A43E1
:10385C004A6010F010001BD01E4AE9685368002023
:10386C0023F480030B43536012E00027D4E7336842
:10387C0043F480733360FEF701FE80463368D8054D
:10388C00CED4FEF7FBFDA0EB08006428F6D903208C
:10389C0002B0BDE8F0816A6802F440729A42C3D06B
:1038AC0001200E4A236A1060002023F4407110603E
:1038BC002162D907B8D5FEF7E1FD41F288380646FA
:1038CC00236A9A07B0D4FEF7D9FD801B4045F7D97F
:1038DC00DDE700BF0010024000700040400442428F
:1038EC00036810B51A680446920708D55B689B07F5
:1038FC0005D500F0F7FE6FF0020223685A604FF412
:10390C000032024B5A610123637410BD0004014064
:10391C00F8B504460E4615461F462268936836EAEB
:10392C00030301D000202DE06B1CF7D0FEF7A6FDA1
:10393C00C01B8542F1D823685A6822F0E0025A6015
:10394C006268B2F5827F0AD1A268B2F5004F02D04C
:10395C00B2F5806F03D11A6822F040021A60A26A95
:10396C00B2F5005F07D11A6822F400521A601A6887
:10397C0042F400521A60012384F8513000230320D2
:10398C0084F85030F8BD10B513460A468021044621
:10399C00FFF7BEFF20B10320636D43F02003636586
:1039AC0010BD704710B50446002834D00023836244
:1039BC0090F8513003F0FF021BB980F85020FFF74C
:1039CC00F0FF0223226884F851301368A16923F0B8
:1039DC0040031360D4E901300343E06803432069DA
:1039EC00034360690343E0690343206A0343A06A0D
:1039FC00034301F40070090C034301F0040113604C
:103A0C005160D369002023F40063D3610123606506
:103A1C0084F8513010BD0120FCE72DE9F7431E4618
:103A2C0090F850300446012B0D469146DDF8288065
:103A3C0000F0E080012380F85030FEF71FFD94F871
:103A4C0051300746012B6268D9B20AD0B2F5827F99
:103A5C0040F0CE80A368002B40F0CA80042940F0CF
:103A6C00C780002D3FD0B9F1000F3CD0002E3AD0CA
:103A7C0094F85130C4F83890042B1CBF052384F8FB
:103A8C00513000236365C4E910332368E687E6866A
:103A9C001968A687490658BF1968256358BF41F0B5
:103AAC004001A68658BF1960E168B1F5006F51D18D
:103ABC000AB1012E07D135F8022BDA60E38E2563AB
:103ACC00013B9BB2E3860125E38E9BB26BB9E38F7E
:103ADC009BB253B93A4641462046FFF754FF0028A3
:103AEC007BD02023636501202BE021688B689A072B
:103AFC000DD5E38E9BB253B14DB10025236B33F83A
:103B0C00022BCA602363E38E013B9BB2E3868A6877
:103B1C0012F001020CD0E38F9BB24BB11546C96871
:103B2C00A36B23F8021BA363E38F013B9BB2E387D8
:103B3C00FEF7A4FCC01B4045C6D3B8F1FF3FC3D071
:103B4C000320012384F85130002384F8503003B053
:103B5C00BDE8F0830AB1012E08D12A781A73236BC1
:103B6C0001332363E38E013B9BB2E3860125E38E95
:103B7C009BB21BB9E38F9BB2002BABD0226893682E
:103B8C009B070ED5E38E9BB25BB155B10025236B21
:103B9C001B781373236B01332363E38E013B9BB2BE
:103BAC00E3862268916811F001010DD0E38F9BB27E
:103BBC0053B10D46D268A36B1A70A36B0133A36388
:103BCC00E38F013B9BB2E387FEF758FCC01B4045DB
:103BDC00CDD3B8F1FF3FCAD0B2E7A368002BB0D168
:103BEC0023680190DA6801929B680193019BA8E716
:103BFC000220A6E70220AAE770477047036810B5B9
:103C0C001A69044691070ED5DA6892070BD56FF046
:103C1C0002021A61012202779B699B0777D001F09F
:103C2C00A5FA0023237723681A69500710D5DA68A0
:103C3C0051070DD56FF004021A61022222779B699D
:103C4C00204613F4407F68D001F090FA00232377CC
:103C5C0023681A6912070FD5DA6810070CD56FF0B4
:103C6C0008021A6104222277DB69204699075AD090
:103C7C0001F07CFA0023237723681A69D20610D549
:103C8C00DA68D0060DD56FF010021A61082222777F
:103C9C00DB69204613F4407F4BD001F067FA002318
:103CAC00237723681A69D10708D5DA68D20705D5B6
:103CBC006FF0010220461A6101F05CFA23681A6960
:103CCC00100608D5DA68110605D56FF0800220467B
:103CDC001A6100F088F823681A69520608D5DA6868
:103CEC00500605D56FF0400220461A61FFF785FF9C
:103CFC0023681A69910622D5DA6892061FD56FF0EF
:103D0C0020022046BDE810401A6100F06BB801F0AB
:103D1C002FFA2046FFF770FF83E701F029FA2046BF
:103D2C00FFF76AFF92E701F023FA2046FFF764FFE2
:103D3C00A0E701F01DFA2046FFF75EFFAFE710BDCC
:103D4C001A4A036890420AD0B0F1804F07D0A2F50E
:103D5C009432904203D002F58062904215D14A68A9
:103D6C0023F070031343114A90420AD0B0F1804FF4
:103D7C0007D0A2F59432904203D002F580629042B3
:103D8C0003D1CA6823F4407313434A6923F08003B8
:103D9C00134303608B68C3620B688362034B9842C6
:103DAC0004BF0B690363012343617047002C01407E
:103DBC0010B50446A0B190F83D3003F0FF021BB9DA
:103DCC0080F83C2000F088FD0223206884F83D3008
:103DDC00211DFFF7B5FF0123002084F83D3010BDF5
:103DEC000120FCE7704770470368DA6822F4907290
:103DFC00DA605A6922F001025A61202380F83A30C5
:103E0C00704790F83930202B18D1A9B1A2B190F895
:103E1C003830012B12D0C28400238284212201620B
:103E2C000168C36380F8383080F83920CA681846B6
:103E3C0042F08002CA607047012070470220704730
:103E4C0090F83A30202B20D1E9B1E2B190F838301B
:103E5C00012B1AD0C285828500232222C36380F8ED
:103E6C003A20026880F838308162D168184641F4F3
:103E7C008071D160516941F001015161D16841F00B
:103E8C002001D1607047012070470220704710B5A7
:103E9C0090F83A30222B33D181680469B1F5805FF8
:103EAC00836A026823D15268ECB9C2F3080223F882
:103EBC00022B8362C48D013CA4B2C4858CB9036807
:103ECC00DA6822F02002DA60DA6822F48072DA60B2
:103EDC005A6922F001025A61202380F83A3000F02E
:103EEC008BFD00200DE0D2B223F8012BE1E7591C29
:103EFC00526881620CB91A70DCE702F07F02FAE7B3
:103F0C00022010BD036870B51A6804461607D968FC
:103F1C005D6907D1960659D58D0657D5BDE8704019
:103F2C00FFF7B5BF05F0010001F4907505434DD0C6
:103F3C00D60705D5CD0542BFE36B43F00103E36320
:103F4C00530704D518B1E36B43F00203E363960700
:103F5C0004D518B1E36B43F00403E363150704D5F0
:103F6C0018B1E36B43F00803E363E36B4BB39006C8
:103F7C0004D5890602D52046FFF789FF2368204621
:103F8C005B69E56B03F0400305F008051D4319D090
:103F9C00FFF72AFF23685A6952060FD55A69606BDE
:103FAC0022F040025A6148B1254B4363FEF7FEFAFA
:103FBC0038B1606BBDE87040436B1847204600F089
:103FCC0031FD70BD00F02EFDE563FAE7160628D52D
:103FDC000D0626D594F83920212AF2D1A168226A3F
:103FEC00B1F5805F18D11188C1F3080159602169BE
:103FFC0081B902322262E28C013A92B2E284002A46
:10400C00DFD1DA6822F08002DA60DA6842F040022E
:10401C00DA60D6E70132EDE7511C216212785A6062
:10402C00E9E75006CDD54A06CBD5DA68204622F012
:10403C004002DA60202384F8393000F0E0FCC0E75D
:10404C005140000808B50023406AC385C38400F0C2
:10405C00E9FC08BD90F83830012B11D024230268FC
:10406C0080F83930D36823F00C0343F00803D36095
:10407C00202380F83930002380F8383018467047F8
:10408C000220704790F83830012B11D0242302689D
:10409C0080F83930D36823F00C0343F00403D36069
:1040AC00202380F83930002380F8383018467047C8
:1040BC000220704790F8392090F83A00104370476E
:1040CC0086B0042841D8DFE800F003101C28340027
:1040DC001F4B20489A6942F004029A619B6903F0D5
:1040EC0004030193019B06B07047194B1A489A6957
:1040FC0042F008029A619B6903F008030293029B49
:10410C00F1E7134B15489A6942F010029A619B69CA
:10411C0003F010030393039BE5E70D4B10489A69DA
:10412C0042F020029A619B6903F020030493049BE4
:10413C00D9E7074B0B489A6942F040029A619B6998
:10414C0003F040030593059BCDE70020CBE700BFB0
:10415C000010024000080140000C0140001001401A
:10416C00001401400018014037B50D4D2B68FEF7C7
:10417C0085F96C68AB680134E31A01932B68DB0397
:10418C0004D5FEF77BF9AB68E31A01934FF47A720E
:10419C00019B5343B3FBF4F302FB003003B030BD7F
:1041AC0010E000E0FEF76AB9704708B5FEF75AF95F
:1041BC00FEF7F7F9FFF7F8FF08BD00000B4BDA68C4
:1041CC00D2015EBFDA6842F08072DA600022084BDE
:1041DC005A601A6842F001021A6000BF00BF00BFAB
:1041EC005868B0FA80F04009704700BFF0ED00E06D
:1041FC00001000E008B5FFF7E1FFFEF721F9BDE87C
:10420C00084000F039BD00000D4B07B5DA6942F0EB
:10421C008052DA61DB6903F080530193019BFFF755
:10422C004FF8084B5A68920742BF1A6842F00802CE
:10423C001A601A6842F004021A6003B05DF804FBBD
:10424C00001002400070004070B50D0E445991FAF8
:10425C00A1F3B3FA83F30F269B0006FA03F324EAC7
:10426C00030491FAA1F1B1FA81F1890002FA01F18A
:10427C002143415170BD70B50D0E445991FAA1F313
:10428C00B3FA83F304269B0006FA03F324EA03042F
:10429C0091FAA1F1B1FA81F1890002FA01F12143FD
:1042AC00415170BD431C04D00C3131F90C3C5A1CEB
:1042BC0001D100207047834201F10C01F5D101209E
:1042CC0070470000B24B2DE9F74F00F00F0253F886
:1042DC0022B0431C06460D4601F00707C0F3031439
:1042EC001FFA80F903D14721AA4800F00DFA2046A5
:1042FC00FFF7E6FE012F0446DFF8A0824FEA1B6AA7
:10430C0046D150F80A109BFAABF3B3FA83F30322AD
:10431C009B0002FA03F321EA03039BFAABF1B1FA17
:10432C0081F189008A401343012240F80A30594632
:10433C002046013FFFF788FF012F06D815F0080231
:10434C0018BF04225946FFF796FF54F80A10C5F31C
:10435C0001159BFAABF2B2FA82F39A000F23934049
:10436C000B409BFAABF2B2FA82F2012D4FEA8202B9
:10437C0023FA02F300F02381022D00F04F81082B69
:10438C0040F03281042259462046FFF75DFF2BE1B5
:10439C00032F00F20C81DFE817F010010400060077
:1043AC000E013A46C3E7D8F81830C5F3062243F09D
:1043BC000103C8F81830D8F8183003F00103009343
:1043CC00009B531E232B2CD8DFE813F024002D0068
:1043DC0034003B00400047004C0053005800600084
:1043EC0069006E0075007E0083008A0093009C00BB
:1043FC00A100A800B100B600BD002B002B002B00C3
:10440C00C200C9002B002B002B002B00CE00D300C8
:10441C00DA00EA00604A536843F0E06343F00103BA
:10442C005360092283E75C4A536823F0010343F08D
:10443C00E063F5E7584A536843F0E06343F0020346
:10444C00EEE7554A536823F00203F0E7524A5368EB
:10445C0043F0E06343F00403E2E74F4A536823F070
:10446C000403E4E74C4A536843F0E06343F0080369
:10447C00D6E7494A536823F00803D8E746494B6806
:10448C0043F0E06343F030034B6050E7424A53681B
:10449C0023F0300343F0E06343F01003C0E73E4ADF
:1044AC00536823F03003C2E73B4A536843F0E063A0
:1044BC0043F0C003B4E7384A536823F0C00343F019
:1044CC00E06343F04003ABE7334A536823F0C00387
:1044DC00ADE7314A536843F0E06343F440739FE720
:1044EC002D4A536823F4407343F0E06343F40073A4
:1044FC0096E7294A536823F4407343F0E06343F48E
:10450C0080738DE7244A536823F440738FE7224A63
:10451C00536843F0E06343F4406381E71E4A5368F9
:10452C0023F4406343F0E06343F4006378E71A4AF2
:10453C00536823F440637AE7174A536843F0E06307
:10454C0043F480536CE7144A536823F480536EE7AA
:10455C00114A536843F0E06343F4004360E70E4AAA
:10456C00536823F4004362E70B4A536823F0E0637B
:10457C0056E7094A536823F0E06343F080734FE732
:10458C00054A536823F0E06343F0007348E700BF2B
:10459C001C5D0008A55C00080000014000100240F2
:1045AC002D4A536823F0E06343F0806338E77121B0
:1045BC002A4800F0A9F80022B9E60822B7E6042B35
:1045CC0004D1082259462046FFF73EFEE3684FEA25
:1045DC001B2223EA1B2B92FAA2F3B3FA83F20123D8
:1045EC00934043EA0B03E360D8F8183043F001031F
:1045FC00C8F81830D8F8183003F001030193019B68
:10460C00A9F10D03012B18D8134A536823F0E0636A
:10461C0043F08063536003B0BDE8F08F042B04D1EA
:10462C00082259462046FFF70FFEE3684FEA1B228B
:10463C0023EA1B2392FAA2F2D5E70F2E04D0A9F19C
:10464C001309B9F1010FE6D8034A536823F0E0636C
:10465C0043F00073DEE700BF00000140A55C0008DA
:10466C00431C06D17047834202D18968FFF72ABEEA
:10467C000C31B1F900305A1CF5D19D21014800F0E4
:10468C0043B800BFA55C0008B1F900305A1C01D139
:10469C0000207047834201D1486870470C31F3E722
:1046AC00431C01D0FFF7F0BF002070474B6813B9D3
:1046BC004FF0FF307047834202D1B1F900007047D0
:1046CC000C31F3E708B1FFF7F1BF4FF0FF30704743
:1046DC0003468B42084604D01BB100290CBF184678
:1046EC0000207047034B1B6813B1034A106818472E
:1046FC00704700BFA0020020B80200200148FFF75D
:10470C00EFB800BFA4020020FEE700000F4B1A68B0
:10471C0042F001021A6059680D4A0A405A601A6840
:10472C0022F0847222F480321A601A6822F48022F9
:10473C001A605A6822F4FE025A604FF41F029A6003
:10474C004FF00062034B9A60704700BF00100240AC
:10475C000000FFF800ED00E00438704703681D4AC4
:10476C0084B093420BD11C4B9A6942F400629A615B
:10477C009B6903F400630093009B04B07047B3F192
:10478C00804F10D0154A934218D0154A9342F4D159
:10479C00114BDA6942F00402DA61DB6903F00403BD
:1047AC000393039BE9E70C4BDA6942F00102DA61EF
:1047BC00DB6903F001030193019BDEE7064BDA6929
:1047CC0042F00202DA61DB6903F002030293029BFE
:1047DC00D3E700BF002C0140001002400004004051
:1047EC00000800400368124A934206D102F5644265
:1047FC00936923F4006393617047B3F1804F06D043
:10480C000C4A934209D00C4A93420BD070470B4A86
:10481C00D36923F00103D3617047084AD36923F0AD
:10482C000203F8E7054AD36923F00403F3E700BF5A
:10483C00002C014000040040000800400010024021
:10484C0008B5431C01460DD00D4B984212D00CD824
:10485C00B0F1804F10D0A3F5806398420ED0094878
:10486C00FFF752FF6FF00D0008BD074B9842F6D1D1
:10487C001920F9E71E20F7E71C20F5E71D20F3E7C8
:10488C0000080040745D0008002C014008B5431C72
:10489C0001460DD00D4B984212D00CD8B0F1804F80
:1048AC0010D0A3F5806398420ED00948FFF72CFF77
:1048BC006FF00D0008BD074B9842F6D11B20F9E7AD
:1048CC001E20F7E71C20F5E71D20F3E70008004049
:1048DC00745D0008002C014038B50446FFF73EFF1C
:1048EC000068FFF7ADFFD4E91012FDF7DFFD20687B
:1048FC00FFF7A6FFFDF70CFE2068FFF7C7FF054684
:10490C002068FFF79DFF85420DD02068FFF7BEFFA2
:10491C00D4E91012FDF7CAFD2068FFF7B7FFBDE818
:10492C003840FDF7F5BD38BD08B5074B90F8512060
:10493C0053F82200FFF7BEFB00F02200A0F1220387
:10494C005842584108BD00BFBC02002008B5074BB7
:10495C0090F8512053F82200FFF7ACFB00F0210037
:10496C00A0F121035842584108BD00BFBC020020F1
:10497C0010B50446E8B1816490F95000FDF7D6FDFE
:10498C00B4F86230A16D9BB294F851001944094BF4
:10499C00012253F82000FFF734FA94F9500000225A
:1049AC000121FDF783FD94F95000BDE81040FDF79F
:1049BC00AFBD10BDBC02002050B1B0F94E30013378
:1049CC0006D190F85120034B53F82200FFF742BB5D
:1049DC00704700BFBC02002050B1B0F94E3001331B
:1049EC0006D190F85120034B53F82200FFF74ABB35
:1049FC00704700BFBC020020036C0438184710B588
:104A0C00436C04460438984701300AD0B4F85E3041
:104A1C00616D9BB22046BDE8104001221944FFF79E
:104A2C00F0B910BD1FB503680446186810F00100FA
:104A3C0013D0002200921A6800925B680093009BCE
:104A4C00201FFFF771FF40BB0122204604F14E01ED
:104A5C0004B0BDE81040FFF7F3B9196811F002017A
:104A6C0006D001901A6801925B680193019BE7E7FD
:104A7C001A6812F0040206D002911A6802925B685E
:104A8C000293029BDCE719680907D9D503921A68CF
:104A9C0003925B680393039BD2E704B010BD000044
:104AAC0008B52520FDF76CFD024B1868BDE80840E1
:104ABC00FFF728BABC02002008B52620FDF760FDE0
:104ACC00024B5868BDE80840FFF71CBABC02002036
:104ADC00272008B5FDF754FD034B986818B1BDE8C5
:104AEC000840FFF70FBA08BDBC020020F8B5144906
:104AFC000646FFF7D5FD00F0C3FA124C054654F8F4
:104B0C00203073B90E493046FFF7CAFD07466C20BA
:104B1C0000F018FD0646394600F0CEFA54F8253060
:104B2C001E6054F825301C6844B1204600F00AFB86
:104B3C002046BDE8F8406C2100F006BDF8BD00BF72
:104B4C008C5D000808050020836810B5044613B17D
:104B5C00032201469847204610BD0000002301287F
:104B6C0003F1010202D013464008F8E71421DBB22E
:104B7C004B43044A181D1044816811B11A4413693F
:104B8C0018477047C80200200120FDF759BD0220CC
:104B9C00FDF756BD0420FDF753BD0820FDF750BDB1
:104BAC001020FDF74DBD38B505242025A8B2FDF722
:104BBC0047FD013C4FEA4505F8D138BD38B5062410
:104BCC004FF48065A8B2FDF73BFD013C4FEA45056B
:104BDC00F8D138BD0721204B06221975082183F81E
:104BEC002810092183F83C100A2183F85010172152
:104BFC001A7083F86410002283F8781083F88C10F4
:104C0C0083F8A01083F8B4102821DA601A625A6372
:104C1C009A64DA651A67C3F88420C3F89820C3F83D
:104C2C00AC20C3F8C02083F8C810C3F8D42083F894
:104C3C00DC10C3F8E82083F8F010C3F8FC2083F8EC
:104C4C000411C3F8102183F81811C3F8242183F838
:104C5C002C11C3F838217047C802002038B5054C18
:104C6C00A4F5A075143C201DFFF76EFFAC42F9D1E2
:104C7C0038BD00BF0804002010B54FF4803301226A
:104C8C00022494B00021CDE90A23CDE911434FF45D
:104C9C00E0130AA80C910E921393FEF717FB00B1C8
:104CAC00FEE70F23CDE905344FF480630790CDE97F
:104CBC000830214605A8FEF7DFFC00B1FEE7122301
:104CCC0001934FF40043CDE9033001A8FEF790FDAA
:104CDC0000B1FEE714B010BD002103E00B4B5B5894
:104CEC00435004310A480B4B42189A42F6D30A4AF5
:104CFC0002E0002342F8043B084B9A42F9D3FFF739
:104D0C0005FD00F0A3FC00F00DFC7047E461000809
:104D1C0000000020D0000020D0000020480500201A
:104D2C00FEE7704722282DE9F0410E463DD8204B76
:104D3C0033F91040621C38D01E4DC4F3031755F8DC
:104D4C00273004F00F0823FA08F3DB0710D52046B0
:104D5C001949FFF7A7FA10B12046FFF7C7FE012348
:104D6C0003FA08F255F8273023EA020345F82730F6
:104D7C00052E14D8DFE806F0030F090B0D110021E6
:104D8C002046BDE8F041FFF79DBA1021F8E720213D
:104D9C00F6E70321F4E70121F2E70921F0E74921C5
:104DAC00BDE8F0410548FFF7AFBCBDE8F08100BF9E
:104DBC00FC5F0008180500208C5D000842600008AC
:104DCC0022288EBF4FF0FF330C4B33F91030C3F356
:104DDC000312042A98BF0A4803F00F0398BF50F837
:104DEC002220084888BF002250F82330C3F30F2339
:104DFC0009B1136170475361704700BFFC5F000835
:104E0C00540000201C5D0008FFF7CCB9FFF7ACB9CB
:104E1C0038B5044648B1FFF7C5F90546FFF781FFE1
:104E2C00FFF7C0F9431BA342F8D338BDB0F862308A
:104E3C00013303F03F03A0F86230B0F86230B0F8F1
:104E4C005E009BB298424FF0FF3018BF00207047B5
:104E5C00B0F8F430B0F8F000181A00F03F007047CA
:104E6C00B0F8F430B0F8F0209BB293421ABFD0F8EF
:104E7C00E830985C4FF0FF3070470000012370B5AC
:104E8C000374B0F9E230044601330E4600F1940588
:104E9C0008D190F8F8302BB1002380F8F830284670
:104EAC00FFF78AFDB4F8F2104B1C03F03F03B4F883
:104EBC00F62092B29342FAD0D4F8EC2028465654FD
:104ECC00A4F8F230FFF742FD18B928460249FFF763
:104EDC004FFD012070BD00BF394E0008037C33B17B
:104EEC00B0F8F220B0F8F6309BB29A42FAD1704783
:104EFC0000F11103914208BF4FF0FF31C0F8E830C8
:104F0C000023A0F8E02000F15102A0F8F430C0E931
:104F1C003B23A0F8E210A0F8F630704770B54FF4C0
:104F2C007A7316460022C0E90123164B044603602F
:104F3C004FF6FF73A0F8E230134B0D46984213D195
:104F4C00124B9A8AA0F8E220DB8AA0F8E0301EB15E
:104F5C004FF6FF73A4F8E2302046B4F9E020B4F920
:104F6C00E210FFF7C5FF70BD09492846FFF7AAFB01
:104F7C000849A4F8E2002846FFF7A4FBA4F8E000D7
:104F8C00E5E700BFB860000808040020FC5F0008DB
:104F9C00845F0008C05F0008B0F9E23010B501333F
:104FAC0004460ED103685B69984794F8F83043B90E
:104FBC00012304F1940084F8F830BDE81040FFF7A9
:104FCC000BBD10BD10B50446FFF7E6FFB4F8F42096
:104FDC00B4F8F03092B29A4217BFD4F8E8204FF0F0
:104FEC00FF30D05C01331CBF03F03F03A4F8F0305A
:104FFC0010BD0000002202490248FFF78FBF00BF1E
:10500C00003801400804002010B5044620B940F2D5
:10501C00CB310648FFF778FB2046FFF79DFB006875
:10502C00436D13B1BDE81040184710BDD86000089F
:10503C0070B5054620B940F2DE311048FFF764FB2D
:10504C002B7F013B072B17D8DFE803F01404161055
:10505C001616161202242846FFF77EFB006800EB9A
:10506C008404636D43B1BDE8704018470324F2E734
:10507C000424F0E70124EEE770BD00BFD8600008FF
:10508C000B4B98420ED0B0F1804F0DD0A3F594335A
:10509C0098420BD04FF6FF73064A904214BF184645
:1050AC000320704700207047012070470220704792
:1050BC00002C01400008004070B5044608460D461F
:1050CC00FFF7DEFF4FF6FF739842064603D13221FD
:1050DC001A48FFF719FB1A4B04F1080243F8262073
:1050EC00E5600E23002504F10C063046C4E91335A7
:1050FC00C4E90B55C4E90D55C4E90F5584F8285083
:10510C00656484F8485084F84950A460FFF726FB86
:10511C004FF6FF733046C4E91555C4E91755C4E979
:10512C001955C4E90055C4E90553C4E9075525616F
:10513C006562FEF73DFE204670BD00BFD8600008DA
:10514C0008050020014638B5044651F80C0FFFF74E
:10515C0097FF05460846FFF745FB0022024B204609
:10516C0043F8252038BD00BF08050020FFF760BFBD
:10517C00FFF75EBFFFF748BF034B186810B1043050
:10518C00FEF73CBD704700BF08050020FFF7F4BFD9
:10519C00034B586810B10430FEF730BD704700BFA8
:1051AC0008050020034B986810B10430FEF726BDAB
:1051BC00704700BF08050020034BD86810B10430BD
:1051CC00FEF71CBD704700BF08050020F8B505466A
:1051DC000E4617460024BC4207D02B6828461B6895
:1051EC00315D984708B10134F5E72046F8BD70B53C
:1051FC0005460C46084649B1FAF78CFF2B68024667
:10520C0021462846BDE870405B68184770BD0368AE
:10521C008A685B680968184703681B6818470000B0
:10522C0008B50249FFF7E3FF08BD00BF466100085F
:10523C0038B50546FFF7DBFF04462846FFF7F0FFBD
:10524C00204438BD0023012A98BF0A2230B58BB008
:10525C000C468DF8243009A92546B4FBF2F404FB66
:10526C001253DBB2092B94BF30333733DBB2AA4273
:10527C0001F8013DF0D9FFF7BAFF0BB030BD2DE9B5
:10528C00F04107460E4614462AB9BDE8F0410368C2
:10529C00C9B21B6818470A2A0DD100290CDA2D2136
:1052AC00FFF7BAFF2246054671423846FFF7CAFFA0
:1052BC002844BDE8F081D2B2BDE8F041FFF7C2BF8F
:1052CC00FFF7DDBF10B50446FFF79EFDE0602368D5
:1052DC002046DB689847002808DAFFF795FDE3685D
:1052EC00C01AA3689842F2D34FF0FF3010BDF8B546
:1052FC0006460D4617460024BC4207D03046FFF741
:10530C00E1FF031E02DB2B550134F5E72046F8BD07
:10531C002DE9F0410746884616461D4673B1002418
:10532C003846FFF7CFFF031E05DB434503D033554B
:10533C000134A542F4D12046BDE8F0811C46FAE7C1
:10534C008160704710B50446006800F0ABF9204648
:10535C0010BD10B50446006808B100F0A3F9002395
:10536C00C4E90133236010BD38B504460D4600680E
:10537C00013100F05BFA10B1C4E90005012038BD21
:10538C00036810B5044623B143688B4201D3012056
:10539C0010BD2046FFF7E8FF0028F9D0A368002BCA
:1053AC00F5D122681370F2E770B50E46114604462B
:1053BC001546FFF7E5FF20B92046FFF7CAFF204648
:1053CC0070BD31462068A56000F048FAF7E738B5A3
:1053DC00002304460D46C0E90033836039B108460A
:1053EC00FAF798FE294602462046FFF7DDFF2046D5
:1053FC0038BD38B5054600680C4638B1096819B196
:10540C006A68A3689A420BD200F04CF923682B60AF
:10541C0063686B60A368AB600023C4E9003304E0ED
:10542C0000F01CFAA368AB600023A36038BD88426F
:10543C0010B50B46044604D0096821B19A68FFF7F1
:10544C00B3FF204610BDFFF784FFFAE7002310B529
:10545C000446C0E900338360FFF7E9FF204610BD26
:10546C00884210B5044601D0FFF7C3FF204610BD9B
:10547C00884210B5044601D0FFF7BBFF204610BD93
:10548C0038B505460C4649B10846FAF743FE2146A5
:10549C0002462846FFF788FF284638BDFFF759FF1C
:1054AC00FAE710B5002304468AB0C4E90033A360C0
:1054BC00084601A900F09CF8204601A9FFF7E0FF7F
:1054CC0020460AB010BD70B505460E4609B900203D
:1054DC0070BD6AB1846814442146FFF751FF00285F
:1054EC00F5D02868AB683146184400F0B7F9AC60C9
:1054FC000120EDE738B505460C46084641B1FAF7F0
:10550C0009FE214602462846BDE83840FFF7DBBFBE
:10551C0038BD704708B50320FCF7B6FFBDE808405E
:10552C0000F064B808B5FFF7F4FFFBF791FD044CED
:10553C00FCF75EF9002CFBD0AFF30080F8E700BF5E
:10554C000000000000F0A6B800F0ACB822282DE94D
:10555C00F8430C46164621D80125224B33F910305E
:10556C0003F00F02C3F30313042B05FA02F517D84B
:10557C001D4A52F82380002C18BF2C46FFF746FC1E
:10558C000746D8F808302B40A3420CD1FFF73EFC5D
:10559C00C01BB042F5D90020BDE8F8834FF400459C
:1055AC004FF00008E7E7D8F808302B40A34205D0AD
:1055BC00FFF72CFCC01BB042F5D9ECE7FFF726FC3B
:1055CC008146D8F808302B40A34205D1FFF71EFCCA
:1055DC00C01BB042F5D9DEE7FFF718FCA0EB0900C1
:1055EC00DAE700BFFC5F000854000020FEF702BEA3
:1055FC0070B504468AB0084689B1931E222B23D875
:10560C0001AD29466CB9A9420BD00B46421EAB42E8
:10561C0015D84B1B8D4288BF00230022C2540AB000
:10562C0070BDB4FBF2F302FB13461C46092EF3B219
:10563C0094BF30335733DBB201F8013BE2E713F888
:10564C00014D02F8014FE2E70020E8E770B50026B3
:10565C000C4D0D4C641BA410A64209D100F0A4FA09
:10566C0000260A4D0A4C641BA410A64205D170BD3D
:10567C0055F8043B98470136EEE755F8043B98473C
:10568C000136F2E7B4610008B4610008B4610008A7
:10569C00D8610008024B0146186800F06DB800BFD5
:1056AC006C000020024B0146186800F019B800BFCE
:1056BC006C0000200A44914200F1FF3300D1704786
:1056CC0010B511F8014B914203F8014FF9D110BDFF
:1056DC0003460244934200D1704703F8011BF9E7DB
:1056EC0038B50546002943D051F8043C0C1F002B5B
:1056FC00B8BFE41800F0BCF81E4A1368104633B962
:10570C00636014602846BDE8384000F0B7B8A34287
:10571C000AD921686218934201BF1A685B68521853
:10572C00226063600460EDE71A465B680BB1A3422C
:10573C00FAD911685018A0420BD1206801445018B6
:10574C0083421160DED118685B68014411605360BC
:10575C00D8E702D90C232B60D4E7206821188B42A0
:10576C0001BF19685B680918216063605460C9E760
:10577C0038BD00BF2C050020F8B5CD1C25F0030565
:10578C0008350C2D38BF0C25002D064601DBA9422F
:10579C0003D90C2333600020F8BD00F069F82149CF
:1057AC000A6814469CB9204F3B6823B92146304601
:1057BC0000F044F838602946304600F03FF8431CAE
:1057CC0023D10C233046336000F058F8E3E723680C
:1057DC005B1B17D40B2B03D923601C44256004E0FE
:1057EC006368A2420CBF0B605360304600F046F871
:1057FC0004F10B00231D20F00700C21ACCD01B1A99
:10580C00A350C9E722466468CCE7C41C24F0030407
:10581C00A042E3D0211A304600F010F80130DDD15F
:10582C00CFE700BF2C05002030050020024B0A46B4
:10583C000146186800F028B86C00002038B5002329
:10584C00054D044608462B60FCF7B6FD431C02D1FF
:10585C002B6803B1236038BD38050020034611F8CE
:10586C00012B03F8012B002AF9D1704770477047C0
:10587C000148FFF7FBBF00BF400500200148FFF7C0
:10588C00F6BF00BF40050020F8B5074614460E468B
:10589C0021B91146BDE8F840FFF76EBF22B9FFF7FA
:1058AC001FFF25462846F8BD00F014F8A0420FD281
:1058BC0021463846FFF760FF05460028F2D03146F6
:1058CC002246FFF7F7FE31463846FFF709FFE9E7B6
:1058DC003546E7E751F8043C181F002BBCBF0B58AA
:1058EC00C01870472DE9F047089E0D4604468E46B9
:1058FC00002B40F083808A42174647D9B2FA82F3D4
:10590C004BB1C3F1200105FA03FE20FA01F19F40CF
:10591C0041EA0E0E9C404FEA1748BEFBF8FC1FFAFA
:10592C0087F908FB1CE20CFB09F0210C41EA02424E
:10593C0090420AD9BA180CF1FF3180F018819042CC
:10594C0040F21581ACF1020C3A44121AB2FBF8F099
:10595C0008FB102200FB09F1A4B244EA0244A14264
:10596C0009D93C1900F1FF3280F00381A14240F2C9
:10597C00008102383C44641A002140EA0C401EB1FC
:10598C000022DC40C6E90042BDE8F08702B9FFDE28
:10599C00B2FA82F3002B4FD18D1A01214FEA124E2D
:1059AC001FFA82F8B5FBFEFC0EFB1C5508FB0CF035
:1059BC00220C42EA0545A84207D97D190CF1FF32A9
:1059CC0002D2A84200F2E98094462D1AB5FBFEF0F3
:1059DC000EFB105508FB00F8A4B244EA0544A045A0
:1059EC0007D93C1900F1FF3202D2A04500F2D98050
:1059FC001046A4EB080440EA0C40C0E78B4208D9DF
:105A0C00002E00F0B1800021C6E900050846BDE873
:105A1C00F087B3FA83F100294BD1AB4202D3824217
:105A2C0000F2B980841A65EB030301209E46002E18
:105A3C00AAD0C6E9004EA7E79F40C3F12002D1408F
:105A4C004FEA174EB1FBFEF01FFA87F80EFB101150
:105A5C0024FA02F29D4000FB08FC2A43150C45EA8F
:105A6C000145AC4504FA03F409D97D1900F1FF3165
:105A7C0080F08F80AC4540F28C8002383D44A5EB21
:105A8C000C05B5FBFEF10EFB115C01FB08F995B2A0
:105A9C0045EA0C45A94507D97D1901F1FF3274D2AD
:105AAC00A94572D902393D44A5EB090541EA0041EB
:105ABC0078E7C1F120078B4022FA07FC4CEA030C73
:105ACC0025FA07F44FEA1C4EB4FBFEF91FFA8CF8CA
