:020000022000DC
:1070000000000420E1720200097302000B73020009
:107010000D7302000F7302001173020000000000E4
:1070200000000000000000000000000013730200D8
:1070300015730200000000001773020019730200AC
:10704000A18102001B730200818A02001B730200EF
:107050001B7302001B730200AD8502001B7302004C
:107060001B7302001B7302001B7302001B730200E0
:107070001B730200C98B02001B7302001B7302000A
:107080001B73020015A702001B7302001B73020092
:107090001B7302001B73020099F302001B730200B2
:1070A0001B7302001B7302001B7302001B730200A0
:1070B0001B7302001B7302000000000000000000B0
:1070C0001B7302001B7302001B7302001B73020080
:1070D0001B7302001B7302001B7302001B73020070
:1070E0001B7302001B73020089A90300000000004B
:1070F000000000001B730200000000001B73020070
:10710000000000000000000000000000000000007F
:10711000000000000000000000000000000000006F
:10712000000000000000000000000000000000005F
:10713000000000000000000000000000000000004F
:10714000000000000000000000000000000000003F
:10715000000000000000000000000000000000002F
:10716000000000000000000000000000000000001F
:10717000000000000000000000000000000000000F
:1071800000000000000000000000000000000000FF
:1071900000000000000000000000000000000000EF
:1071A00000000000000000000000000000000000DF
:1071B00000000000000000000000000000000000CF
:1071C00000000000000000000000000000000000BF
:1071D00000000000000000000000000000000000AF
:1071E000000000000000000000000000000000009F
:1071F000000000000000000000000000000000008F
:1072000010B5054C237833B9044B13B10448AFF3E0
:1072100000800123237010BD582F002000000000C3
:10722000DC3F04000C4B43B10C480D4910B5AFF3E3
:1072300000800C48036823B910BD0A48036833B9BD
:107240007047094B002BF7D0BDE810401847064B9C
:10725000002BF5D0184700BF00000000DC3F040001
:107260005C2F00203C2F002000000000154B002B5D
:1072700008BF134B9D46A3F5803A00218B460F466D
:107280001348144A121A17F09BFA0F4B002B00D028
:1072900098470E4B002B00D0984700200021040097
:1072A0000D000D48002802D00C48AFF3008017F005
:1072B0000FFA2000290007F03DFD17F0F5F900BF97
:1072C0000000080000000420000000000000000092
:1072D000582F0020146E0020000000000000000065
:1072E0000649074A074B9B1A03DD043BC858D05098
:1072F000FBDC02F011FAFFF7B9FF0000B041040017
:10730000E02B0020582F0020FEE7FEE7FEE7FEE717
:10731000FEE7FEE7FEE7FEE7FEE7FEE7022000F0FD
:1073200011BD00BF2DE9F0410C46054600F02EFDD1
:10733000B8B9012C19D00BD3022C14D1144B5C78A2
:107340007CB1144B1B6863B12046BDE8F04118477F
:10735000114803F005F80E4A104B94781B78A342AD
:10736000EED0BDE8F081BDE8F081094E7378347845
:107370001BB90A4BB2781A70E2E7094F06483A4641
:107380004FF4804102F086FF0028F2D13D70F0E713
:10739000782F0020842F0020002C00208C2F00202C
:1073A000742F002010B5007800F0F0FC40B9054BB8
:1073B000587828B1044B1B6813B1BDE8104018473A
:1073C00010BD00BF782F0020842F0020B44B1B6815
:1073D000DB0700D4704770B5B24EB34D33782C78CC
:1073E000FBB9172C1CD8DFE814F0F10017011701C6
:1073F00063007600830096005D0039002C003900A0
:107400002C00A300A800A800A800A800A800CE0097
:10741000DE00040146001800180000F07BFC2C7010
:1074200070BDA24B1B7800203070002B00F008814B
:1074300000F044FC012000F041FC032000F03EFC81
:10744000CFE701231846337000F07CFC00224FF494
:1074500000519748BDE8704002F01CBF0123184658
:10746000337000F06FFC002240F266619048BDE886
:10747000704002F00FBF8D4B1B78002B00F0018194
:10748000002000F01BFC012000F018FC032000F09D
:1074900015FC002000F0FEFB012000F0FBFB152393
:1074A0002B7070BD002000F0F5FB07232B7070BD22
:1074B000002000F0DBFB002800F0D680002000F068
:1074C000FDFB43F2333103232B7000227848BDE8E3
:1074D000704002F0DFBE002000F0C8FB002800F082
:1074E000C880002000F0EAFB4FF480310423EBE772
:1074F000002000F0BBFB002800F0C080002000F05E
:10750000DDFB05232B70002240F6CD416848BDE825
:10751000704002F0BFBE002000F014FC06232B7068
:10752000002240F266616248BDE8704002F0B2BEDF
:1075300000F0F0FB0C232B7070BD5E4802F010FFD2
:10754000D4F1110405467ED000287CD1012C13D043
:10755000C82303FB04F44FF47A704FF40043002176
:10756000C3FB04014FF4FA62002317F049F92A46DD
:107570000146504802F08EFE022000F08BFB4B4B80
:1075800001221A7070BD494B1B78002B7CD0002063
:1075900000F094FB012000F091FB032000F08EFB33
:1075A00012232B7070BD414B1B78002B72D0002032
:1075B00000F084FB012000F081FB032000F07EFB43
:1075C000002000F067FB13232B7070BD374B1B7836
:1075D000002B5CD0002000F071FB012000F06EFB5E
:1075E000032000F06BFB324802F0BAFE00232B7040
:1075F00070BD2E4B1B78002B4FD0002000F05EFB9F
:10760000012000F05BFB032000F058FB012000F09C
:1076100041FB14232B7070BD002000F027FBC8B184
:10762000002000F04BFB022C47F2333118BF4FF41F
:1076300080312C7000221E48BDE8704002F02ABE46
:1076400000F050FBCDE6022000F038FB174B002283
:107650001A7070BD00F01EFB41F69A1140F6CD4342
:10766000022C08BF1946E4E700F014FB40F6CD41B8
:1076700029E700F00FFB41F69A1137E700F00AFB0B
:107680003FE700F02FFB04E700F02CFB88E700F059
:1076900029FBA8E700F026FB92E700F023FBB5E703
:1076A0007C2F0020802F0020882F0020752F0020A5
:1076B000202C0020E02B002008B10020704700F0B3
:1076C0005BBB00BF38B5C54B1C6814F0010401D189
:1076D000204638BDC24C23780546E3B9172D00F289
:1076E0008981DFE815F00B013501350169007D0066
:1076F0009100A5005B003500280035002800B3008C
:10770000BA00BA00BA00BA00BA00E300F6002001DD
:10771000420063006300B34B1B7800202070002BF5
:1077200000F02B8100F0CAFA012000F0C7FA032014
:1077300000F0C4FAD2E701231846237000F002FBE0
:1077400000224FF40051A848BDE8384002F0A2BD25
:1077500001231846237000F0F5FA002240F266611A
:10776000A148BDE8384002F095BD9E4B1B78002B28
:1077700000F02481002000F0A1FA012000F09EFA20
:10778000032000F09BFA002000F084FA012000F0B2
:1077900081FA964B15221A70002499E7002000F018
:1077A00079FA924B07221A70002491E700F0B2FA9E
:1077B0008E4B00241D708BE7002000F057FA002844
:1077C00000F0E580002000F079FA43F23331874B76
:1077D000854803241C700022BDE8384002F05ABDE1
:1077E000002000F043FA002800F0E080002000F0C4
:1077F00065FA4FF480317D4B7B4804241C700022D5
:10780000BDE8384002F046BD002000F02FFA002805
:1078100000F0D180002000F051FA744B724805242A
:107820001C70002240F6CD41BDE8384002F032BD68
:10783000002000F087FA6D4B6B4806241C70002274
:1078400040F26661BDE8384002F024BD00F062FA03
:10785000664B0C221A7000243AE7654802F080FD5E
:107860000446D5F1110000F08B80002C40F0888098
:10787000012814D0C82505FB00F54FF400434FF450
:107880007A700021C3FB05014FF4FA62002316F061
:10789000B7FF22460146564802F0FCFC044602208F
:1078A00000F0F8F94F4B01221A7011E74D4B1B788D
:1078B000002B00F08680002000F000FA012000F08C
:1078C000FDF9032000F0FAF9484B12221A70002447
:1078D000FEE6444B1B78002B79D0002000F0EEF937
:1078E000012000F0EBF9032000F0E8F9002000F09F
:1078F000D1F93E4B13221A700024E9E6394B1B786C
:10790000002B61D0002000F0D9F9012000F0D6F959
:10791000032000F0D3F9344802F022FD334B00225B
:1079200004461A70D4E62F4B1B78002B52D000204F
:1079300000F0C4F9012000F0C1F9032000F0BEF905
:10794000012000F0A7F9294B14221A700024BFE689
:10795000002000F08BF9F8B1002000F0AFF9022D03
:1079600047F2333118BF4FF48031204B1E481D7051
:107970000022BDE8384002F08DBC00F0B3F9ADE65E
:10798000022000F09BF9174B00221A70A0E600F0CD
:1079900081F940F6CD411AE700F07CF941F69A11E1
:1079A00040F6CD43022D08BF1946DEE700F072F91C
:1079B00041F69A111FE700F06DF92EE700F092F9F9
:1079C000E1E600F08FF97FE700F08CF9A3E700F023
:1079D00089F98BE700F086F9B2E700BF7C2F002021
:1079E000802F0020752F0020202C0020882F0020C1
:1079F000E02B002000246BE638B5224B224A1960A8
:107A00008107044610600ED5204B21480E251D70BD
:107A100040F23332012102F041F90546C0B1E307DB
:107A20002AD4284638BD10F00105FAD0012000F014
:107A3000B5F9184A1848002102F016FC054600283E
:107A4000EFD1164A16480121BDE8384002F00CBCBF
:107A500002F07EF905460028E1D10146114A12489C
:107A600002F002FCE2070546DBD5012000F096F9A2
:107A7000002DDED0284638BD012000F08FF92846C1
:107A800038BD00BF842F00207C2F0020782F0020DD
:107A900028EB0300CD73020038EB03001D730200D6
:107AA00030EB0300A573020034EB030008B107209C
:107AB0007047012A0CD001290FD005D30229F6D135
:107AC000084B00205A707047064B00209A70704790
:107AD000012901D00246EEE70E22024B00201A7067
:107AE000704700BF782F002008B10620704708B506
:107AF00000F052F91F2886BF0A4B00F01F004FF01C
:107B0000A04303EB80030020D3F8002722F4403287
:107B1000C3F80027D3F8002742F44032C3F8002707
:107B200008BD00BF0003005010B50388102B08D01B
:107B3000112B05D1264B18680138186038B110BDDB
:107B400010BD234C216881B10131216010BD01229B
:107B50000221FFF7ABFF48B3072827D01D4B1B6856
:107B6000002BECD0BDE81040184701220846FFF773
:107B70009DFF48B1072807D0164B1B6803B19847F3
:107B800021680131216010BD072202210120FFF789
:107B90008DFF08B10728EFD1042202210020FFF752
:107BA00085FF0028ECD00728E6D1E9E7072202216B
:107BB0000120FFF77BFF08B10728CFD1002108463D
:107BC0000A22FFF773FF0028B9D00728C6D110BDDD
:107BD000942F0020902F002008B50020FFF784FF8D
:107BE00010B1062800D008BD0120FFF77DFF002856
:107BF000F9D0062808BF002008BD00BF194B10B5FA
:107C0000186031B101200C46FFF756FD30B1022358
:107C10002370154B186848B1002010BDFFF74CFDCC
:107C2000E8B9114B207018680028F5D10122022113
:107C3000FFF73CFF08B10728EFD1072202210120FE
:107C4000FFF734FF08B10728E7D1002108460A22D0
:107C5000FFF72CFF0028DFD00728DED1DCE70B235D
:107C60002370D6E7902F0020942F0020074B1B5C39
:107C70001F2B8ABF064A4FF0A04203F01F03D2F821
:107C80000405D840C04300F0010070473CEB0300FE
:107C900000030050074B1B5C1F2B86BF03F01F0324
:107CA00005494FF0A041012202FA03F3C1F80C3557
:107CB000704700BF3CEB030000030050074B1B5C08
:107CC0001F2B86BF03F01F0305494FF0A04101227F
:107CD00002FA03F3C1F80835704700BF3CEB03001C
:107CE0000003005030B44FF0A043094940254FF441
:107CF00080744FF400704FF48052C3F80855C3F8F5
:107D00000845C1F80805C3F8082530BC704700BF16
:107D10000003005030B44FF0A043094940254FF410
:107D200080744FF400704FF48052C3F80C55C3F8C0
:107D30000C45C1F80C05C3F80C2530BC704700BFDA
:107D4000000300500A4B195C1F298ABF09484FF0F5
:107D5000A04001F01F01D0F8043501228A4022EA38
:107D600003011340C0F80815C0F80C35704700BF78
:107D70003CEB030000030050034BD3F810056FEAFF
:107D8000901000F00100704700030050263818BF23
:107D90004FF0FF30704700BF26207047C30706D45E
:107DA000830742BF2E4B0C22C3F818277047F0B44C
:107DB0004FF08043D3F84036D90722D44FF0A04388
:107DC00027490322C3F818274027C3F820274FF478
:107DD0008076C1F824274FF40075C3F830274FF49C
:107DE00080548207C3F80875C3F80865C1F80855C0
:107DF000C3F8084503D51A4B0C22C3F81827F0BC6A
:107E000070474FF01023D3F8043303F00703072B18
:107E1000D4D1144B0122C3F80425D3F80024002A3E
:107E2000FBD04FF010210020D1F804230D4C22F09C
:107E3000070242F00402C1F80423C3F80405D4F891
:107E40000034002BFBD0BFF34F8F0749074BCA68A4
:107E500002F4E0621343CB60BFF34F8F00BFFDE736
:107E60000003005000E0014000ED00E00400FA05CE
:107E700010B568B101280AD10C4C2369A07033B148
:107E80000CCB0120226198472369002BF8D110BD4B
:107E9000064CA36801226270002BF8D00CCB0020A6
:107EA000A2609847A368002BF8D110BD982F00203E
:107EB00068B910B5064CA3680122627033B10CCBCF
:107EC0000020A2609847A368002BF8D110BD70472E
:107ED000982F002030B5012883B027D01CD3032869
:107EE00018D100F02FF902A80023254C00F8013D1D
:107EF00002F07CFAE368013BE360E36833B9214BAD
:107F0000D3F8005415B900F02FF9A5709DF80700BB
:107F100002F092FA03B030BD1B4B0122C3F880205F
:107F2000BFF34F8FBFF36F8F03B030BD02A80023A4
:107F3000134C00F8013D02F059FA237853B1E3687D
:107F40009DF8070001330122E360A27002F074FA89
:107F500003B030BD0D486360A3602361E36000F0AF
:107F6000E3F807F013FA40B10123064A2370D2F870
:107F70000024002AE3D0A370E1E700F0E3F8F3E780
:107F8000982F00200000014000E100E0717E020017
:107F900000B585B004AB002203F8012D8DF8070071
:107FA000184602F023FA07F0F1F930B19DF80F00FE
:107FB00002F042FA05B05DF804FB0DF10701084834
:107FC00005F04EF9064805F03DF90028EED000F026
:107FD000D1FD9DF80F0002F02FFA05B05DF804FB0B
:107FE0004040040000B583B090B103280DD102A831
:107FF000002300F8013D02F0F9F90D480378012B48
:108000000FD09DF8070002F017FA03B05DF804FBEB
:10801000074B1B78012BF8D100F0ACFD00F0B6FD4A
:10802000F3E70449013000F063FD00F091FDE8E75B
:10803000FC2F0020917F020070B50A4A0A4B067897
:1080400045688468C06853F8213052F8211084B024
:1080500003908DF8006001958DF8084068469847B8
:1080600004B070BD003000200830002070B50A4A0E
:108070000A4B067845688468C06853F8213052F886
:10808000211084B003908DF8006001958DF80840B0
:108090006846984704B070BD0030002008300020CA
:1080A0002DE9F043DFF8748006784B7F08F806303E
:1080B0000D46074694460FCD89B06C460FC495E82F
:1080C0000F003D78DFF85890DFF858E018F80550B9
:1080D00049F826C084E80F004EF82600049665B1E2
:1080E000BCF1000F0B4A694607F1040008BF0022EB
:1080F00001F0F4F809B0BDE8F083BCF1000F064AC6
:10810000694607F10C0008BF002200F059FE09B0D3
:10811000BDE8F083398002006D800200E46D00202C
:108120000830002000300020054A13790BB185206B
:10813000704701211060537118461171704700BFDC
:1081400010300020074B1A68D20704D4C02283F8ED
:10815000002301221A604FF080430122C3F8182542
:10816000704700BF00E100E010B40B4B0B494FF02B
:10817000804200200224C2F8084383B018601B68C4
:108180000193012301980B60D2F81834DB03FBD470
:1081900003B05DF8044B7047040100400C00004040
:1081A00010B5144B1A6882B062B10021124A1960EE
:1081B0001B68507900934FF080410123009CC1F867
:1081C000083390B10D4B1A686AB100221A601B681F
:1081D00001934FF080420221074B0198C2F8081327
:1081E0001B680120984702B010BD11685371884781
:1081F000E8E700BF0001004010300020040100400B
:1082000070B5294D95F86A3082B013B1082002B0DC
:1082100070BD05F130014FF0FF32FF264FF6FF74BD
:1082200006E05A09012A0CBF22464FF0FF32013105
:1082300003F01F00C240D20748BF0E702F2B03F17E
:108240000103EED14FF0FF33FF240622002117482F
:108250002B606B60AB60EB602B616B61AB61EB61C2
:108260002B6285F860306B62AB6285F86230EB623E
:1082700085F8633085F8614016F0A2FA0C4BC022F5
:1082800083F8062340221A600A4B0B4A002018602C
:108290001B680193019C01214FF0004385F86A108F
:1082A000C2F8043302B070BD183000207C300020CA
:1082B00000E100E07C61004000600040034B93F867
:1082C0006A00003018BF0120704700BF183000203E
:1082D000F0B56D4C231893F93050002D01DB0820C8
:1082E000F0BD91F802E0CEF3400EBEF1000F50D089
:1082F0002568013500F0C2800125082654F8253094
:1083000001334CD06B1C54F82370013748D0AB1CA0
:10831000B3423CD254F82370013741D0EB1CB34236
:1083200035D254F8237001373AD02B1DB3422ED2E8
:1083300054F82370013733D06B1DB34227D254F861
:10834000237001372CD0AB1DB34220D254F82370D8
:10835000013725D0EB1DB34219D254F823700137F1
:108360001ED005F10803B34211D254F8237001372F
:1083700016D005F10903B34209D254F8237001372E
:108380000ED00A35B54202D2E36A013374D004201C
:10839000F0BD256A01353AD009250C26AEE72B46FB
:1083A00026185DB244F8232086F83050BEF1000F45
:1083B00033D08B785A071CD4DE074ED51F2887BFD1
:1083C000324B00F01F0202464FF0A04303EB820342
:1083D000D3F8002722F00202C3F800272C4EC2086F
:1083E00000F0070EB75C012303FA0EF33B43B354CE
:1083F0008B7813F0020314D1083D2C44097894F8CB
:10840000602042EA811284F860201846F0BD0826F8
:1084100083F83060354622623346234483F858009F
:10842000C7E7AD0005F1804505F5C0450A78D5F8E8
:10843000101521F44F3121F44071C5F810150302D5
:108440001204D5F8101502F4403203F47C531343A0
:108450000B43C5F810350020F0BD1F284A7887BFB0
:108460000A4E00F01F0303464FF0A04603F5E073E9
:10847000920046F82320B1E70B2391E70025226004
:1084800083F8305095E700BF1830002000030050FB
:108490007C300020F0B43A4D2E1882B096F930307E
:1084A000072B20DD2B4493F858309B09032B45D034
:1084B000012B14BF4FF440314FF400311F284DD928
:1084C00000F01F002F4B03EB8000D0F8002722F4B0
:1084D0004032C0F80027D0F800370B43C0F800370F
:1084E00002B0F0BC7047DAB2072AF9D8980000F160
:1084F000804000F5C04003F140029200D0F81045E2
:1085000092B202F18042002744F0010402F5C04219
:10851000C0F810450197019817600029E0D096F93E
:10852000302055F82220002ADAD00122164902FA1A
:1085300003F3C1F8043302B0F0BC70471F2810D910
:10854000104BD3F8103500F01F00C340DB0748BFC5
:108550004FF44031B6D44FF40031B3E74FF0A043AD
:10856000B1E74FF0A0421346D2F81025C24012F0F6
:10857000010F14BF4FF440314FF40031A3E700BFA7
:108580001830002000030050006000401F288ABF00
:10859000054B4FF0A04300F01F00D3F8103523FA2D
:1085A00000F000F001007047000300502DE9F04793
:1085B00084B00023664A039302931168012900F0F6
:1085C000BB801E46634B1A68012A00F0A780624BED
:1085D0001A68012A00F09480604B1A68012A00F0A2
:1085E00081805F4B1A68012A6FD05E4B1A68012A9E
:1085F0005ED05D4B1A68012A4DD05C4B1A68012A87
:108600003CD05B4B1A68012A23D016F0FF0F1AD01A
:10861000584F01250024A30003F180432E4203F5A7
:10862000C0434FEA45050BD0D3F8100557F8242076
:10863000D3F81015C0F30520C1F3014102B19047F2
:108640000134082CE7D1002EC0F29A8004B0BDE8B6
:10865000F08700221A601B6801934FF0A042019B33
:10866000D2F82015444B0291C2F82015D3F82025EA
:10867000039246F00046C3F82025C6E73F4AD2F8E9
:1086800004231106BDD500221A601B680093009BCD
:1086900046F08006B5E7394AD2F804235006ACD537
:1086A00000221A601B680093009B46F04006A4E776
:1086B000324AD2F8042394069BD500221A601B6824
:1086C0000093009B46F0200693E72C4AD2F804233F
:1086D000D5068AD500221A601B680093009B46F0DD
:1086E000100682E7254AD2F8042317077FF579AFF1
:1086F00000221A601B680093009B46F0080670E792
:108700001E4AD2F8042352077FF566AF00221A6092
:108710001B680093009B46F004065DE7174AD2F8F9
:10872000042391077FF553AF00221A601B68009362
:10873000009B46F002064AE71049D1F8046316F0A0
:1087400001063FF43FAF136013680093009B39E7C5
:108750000061004004610040086100400C6100407D
:108760001061004014610040186100401C6100402D
:108770007C61004018300020000300500060004081
:10878000BD4CBE4E01254FF0A04794F960305A1CF5
:1087900046D0DBB204AA23F0C00002EBD00103F004
:1087A000070211F8081C05FA02F2114238D01F28FE
:1087B0004FEA931900F2238103464FF0A04A0AEBD7
:1087C00083022118D2F800E7D2F800C72CF4403C0D
:1087D000C2F800C7CEF3014E91F930C0D2F80017AD
:1087E00054F82C80BEF1020F14BF4FF4003C4FF43C
:1087F000403C05FA03F34CEA0101C2F80017CAF83D
:108800002035B8F1000F0BD0B9F1030F00F00B8148
:10881000BEF1020F00F02681BEF1030F00F0FF80D1
:1088200094F96130581C46D0DBB204AA23F0C00092
:1088300002EBD00103F0070211F8081C05FA02F25E
:10884000114238D01F284FEA931900F2DC8003460A
:108850004FF0A04A0AEB83022118D2F800E7D2F8C1
:1088600000C72CF4403CC2F800C7CEF3014E91F98A
:1088700030C0D2F8001754F82C80BEF1020F14BF9C
:108880004FF4003C4FF4403C05FA03F34CEA01017D
:10889000C2F80017CAF82035B8F1000F0BD0B9F1B3
:1088A000030F00F0C780BEF1020F00F0D280BEF1CE
:1088B000030F00F0BB8094F96230591C45D0DBB245
:1088C00004AA23F0C00002EBD00103F0070211F864
:1088D000081C05FA02F2114237D01F284FEA9319FB
:1088E00000F2958003464FF0A04A0AEB830221185C
:1088F000D2F800E7D2F800C72CF4403CC2F800C719
:10890000CEF3014E91F930C0D2F8001754F82C8004
:10891000BEF1020F14BF4FF4003C4FF4403C05FA87
:1089200003F34CEA0101C2F80017CAF82035B8F188
:10893000000F0AD0B9F1030F00F08280BEF1020FE0
:1089400000F09580BEF1030F77D094F963305A1C84
:1089500042D0DBB204AA23F0C00002EBD00103F046
:10896000070211F8081C05FA02F2114234D01F2840
:108970004FEA93194FD803464FF0A04A0AEB8302FF
:108980002118D2F800E7D2F800C72CF4403CC2F816
:1089900000C7CEF3014E91F930C0D2F8001754F859
:1089A0002C80BEF1020F14BF4FF4003C4FF4403C4A
:1089B00005FA03F34CEA0101C2F80017CAF82035A2
:1089C000B8F1000F08D0B9F1030F3FD0BEF1020F8C
:1089D00044D0BEF1030F36D0D7F820350293C7F844
:1089E0002035D6F820250392C6F82025002B7FF4E9
:1089F000CCAE002A7FF4C9AE04B0BDE8F08703F026
:108A00001F03B246DBE603F01F03B24622E703F082
:108A10001F03B24669E703F01F03B246AEE7B9F1A0
:108A2000020F7FF4FDAE4946C047F9E6B9F1020FE7
:108A30007FF441AF4946C0473DE7B9F1020F84D109
:108A40004946C04781E7B9F1020FC5D14946C04741
:108A5000C2E7B9F1010F7FF42EAFEBE7B9F1010FD7
:108A6000BAD1F3E7B9F1010F7FF4DAAEDBE7B9F180
:108A7000010F7FF46AAFE3E71830002000030050D5
:108A8000014B1B68184700BF84300020104B9842F0
:108A900001D00020704730B583B002A8002300F851
:108AA000013D0D4601F0A2FC0A4B1C7934B19DF842
:108AB000070001F0C1FC112003B030BD01229DF878
:108AC00007001D601A7101F0B7FC204603B030BDED
:108AD0000020004084300020034B984203D1034B18
:108AE00000221A601A717047002000408430002074
:108AF000134B1A780AB18520704710B40278114CD4
:108B0000D207216006D51049D1F8042542F00102B0
:108B1000C1F804250C4C0D49D4F8002222F00102C2
:108B2000C4F8002242785201D2B281F80D234FF4EA
:108B300000520A6001221A7000205DF8044B704751
:108B4000903000208C30002000D0004000E100E098
:108B5000064A074B0021116082B012680192019908
:108B60000122C3F804231A6002B0704700D100400C
:108B700000D000400349044A0123C1F808331360C0
:108B8000704700BF00D0004004D0004010B40A4835
:108B90000A4C0B4A01234FF40051C4F80833036018
:108BA000C2F88010BFF34F8FBFF36F8F054B0022C9
:108BB0001A705DF8044B704704D0004000D00040AC
:108BC00000E100E09030002000B5084B0849094A58
:108BD0000020186083B01B680193019BD1F8080541
:108BE0001368C0B2984703B05DF804FB00D10040A1
:108BF00000D000408C30002030B56F4AD2F80433EA
:108C000099058BB05BD5D2F82431002B57D00023C7
:108C1000C2F82431D2F8243101934FF40171674B2B
:108C20000198C2F8081393F8291009B9012151607D
:108C3000614902228DF81820D1F88024C1F88024DF
:108C40009869D96809920022089007919A6193E87F
:108C50001200DA6106A8A047574AD2F81C31C3B106
:108C6000564B5869196A884265D993F8281001F063
:108C7000FF0000295FD1C2F81C01D2F81C1103913A
:108C800003999C68186A196A205C01311962C2F85C
:108C90001C05494AD2F844317BB10021474BC2F848
:108CA0004411D2F8440193F829100090009809B1BA
:108CB000012111609A69002A54D10BB030BD3E4A9F
:108CC000D2F804335B07C7D5D2F80831002BC3D0E4
:108CD0003A4B9969002954D00021C2F80811D2F802
:108CE000081104910499D868596AD2F81825425499
:108CF0005A6A996901325A625A6A8A42ACD1DA696F
:108D0000002A47D193F8292012B92B4A012151603A
:108D1000294A4FF40171C2F80813596ADA680891B8
:108D20000024012007928DF8180093E806009C614A
:108D300006A8904790E7204A0021C2F81C11D2F8FB
:108D40001C210292029A5A69002AA2D058699A6894
:108D50008DF8181008905961079206A893E806004C
:108D6000904796E70022586AD9689A6101220890D4
:108D700007918DF8182006A893E8060090470BB0DD
:108D800030BDC2F80811D2F8080105900598D2F854
:108D90001825B1E7DD685C6A18699A610121002233
:108DA000D860DA615A628DF818100795089493E834
:108DB000060006A890474FE70020004094300020AE
:108DC0002DE9F041704E05792C2303FB056382B039
:108DD00093F82A301BB1082002B0BDE8F0810F469D
:108DE00004466A4900689046FFF750FE18B111200A
:108DF00002B0BDE8F0813B68591C19D01F2B4FF021
:108E000001028ABF62494FF0A04103F01F0302FA3A
:108E100003F3C1F808353B681F2B86BF03F01F031F
:108E20005B4A4FF0A04203F5E073032142F82310A0
:108E30007B685A1C0BD01F2B86BF03F01F03544ABC
:108E40004FF0A04203F5E073002142F8231023689D
:108E5000BA69C3F82425397D7B7D22680B43C2F8AB
:108E60006C3597E806002368C3F81425C3F80C1581
:108E70003B7D012B4BD02C2303FB05F3F218C2F8EA
:108E800004803A69F250B8F1000F2FD022683B7F7E
:108E9000404F0021C2F81C11D2F81C210092226818
:108EA000DDF800E0C2F84411D2F8441122680191C3
:108EB0000199C2F804732168090B4AB2002A5ADBEF
:108EC00002F1604202F561425B01DBB282F80033DD
:108ED00021680A0B53B2002B09DB01215B092E4FDD
:108EE00002F01F0201FA02F247F8232021682C2326
:108EF00003FB0563002201250424C1F8004583F823
:108F00002A509A61DA6183F829205A6164E7BB68C4
:108F1000591C0BD01F2B86BF03F01F031C494FF0B9
:108F2000A04103F5E073002241F82320FB685A1C9E
:108F30001AD01F2B8ABF16494FF0A04103F01F0320
:108F4000012202FA03F3C1F80835FB681F2B88BF22
:108F500003F01F0303F5E0738CBF0D494FF0A041F0
:108F6000032241F82320FB682268B968C2F808355B
:108F7000C2F810157FE7094A01F00F015B010A44AE
:108F8000DBB21376A4E700BF94300020F98B020017
:108F9000000300508000020000E100E0FCEC00E073
:108FA000F8B53D4F047902682C2303FB04730021BC
:108FB0005B68C2F80015B3B10368384AC3F80823E8
:108FC0000368190B4AB2002A0EDB52092032012332
:108FD000334D01F01F0103FA01F145F82210BFF3F0
:108FE0004F8FBFF36F8F0368D3F80C65D3F8145518
:108FF000D3F80825D3F810154FF0FF3EC3F814E559
:10900000C3F80CE503687645C3F808E5C3F810E536
:109010000CD01F2E86BF06F01F06224B4FF0A04338
:1090200006F5E0764FF0020E43F826E06E1C0BD0FA
:109030001F2D86BF05F01F051A4B4FF0A04305F505
:10904000E075022643F825604D1C0BD01F2986BF12
:1090500001F01F01134B4FF0A04301F5E071022511
:1090600043F82150531C0BD01F2A86BF02F01F0269
:109070000C4B4FF0A04302F5E072022143F822109E
:109080000068FFF729FD2C2303FB0474002384F8F8
:109090002A306360F8BD00BF9430002084020200D3
:1090A00000E100E000030050F0B5304E05792C23BC
:1090B00003FB056385B05C6914B1112005B0F0BDF8
:1090C0005A6199601C6283F828400268C2F81C410A
:1090D000D2F81C11026802910121029F916002687E
:1090E000D3F808E0C2F81C41D2F81C110191019993
:1090F000D3F820C0196A5F681EF80CC001311962EC
:10910000C2F81CC517B1204605B0F0BD5C691A6AEB
:109110000168944203D819E093F82820F2B9D1F8F5
:109120001C21002AF8D0C1F81C71D1F81C2103922F
:10913000039AD3F820C01A6A1EF80CC001321A62D2
:10914000C1F81CC51A6A9442E9D80168D1F81C31EB
:10915000002BFBD00123CB60002000E00F202C234C
:1091600003FB056300225A61A8E700BF943000208A
:1091700070B5584BD3F824218AB0002A65D1D3F8B2
:10918000101100292FD1534BD3F8442152B10021A3
:10919000514AC3F84411D3F8444190690394039CA5
:1091A00000287BD14B4BD3F8202162B10021C3F8BA
:1091B0002011D3F8202102920120474A029CD86056
:1091C000506900285DD1434BD3F858214AB10021A2
:1091D000C3F85811D3F858013F4A019001985069DB
:1091E00028BB0AB070BDC3F81021D3F810113A485B
:1091F000059105998469D3F83C15A142C3D1C4698E
:10920000002C5AD0D3F80062C568846126F020068D
:10921000C3F800620369C26101220891C36001685A
:10922000436807958DF8182006A89847ABE7D3F850
:109230004C05936808908DF818105161079306A8A3
:1092400092E80A0098470AB070BD0021C3F82411C3
:10925000D3F82421049202228DF81820049AD3F81E
:1092600080041D4AC3F880040990D3F83C05D368F4
:1092700008909161D16107931168536806A89847D7
:1092800081E7D3F84C05936808908DF81810516168
:10929000079306A892E80A00984794E7D3F83C356C
:1092A000D068089301239161D16107908DF818303F
:1092B00006A892E80A00984774E7C268846101230F
:1092C00008918DF81830079290E80A0006A8984790
:1092D00059E700BF00200040C03000202DE9F043D6
:1092E0000479844EE7003B1906EB830387B093F8BB
:1092F00020301BB1082007B0BDE8F0838946054641
:109300007D4900689046FFF7C1FB18B1112007B0F6
:10931000BDE8F083D9F80030591C1AD01F2B4FF04C
:1093200001028ABF75494FF0A04103F01F0302FA02
:1093300003F3C1F80835D9F800301F2B86BF03F0BE
:109340001F036E4A4FF0A04203F5E073032142F879
:109350002310D9F804305A1C0BD01F2B86BF03F002
:109360001F03664A4FF0A04203F5E073002142F864
:1093700023102B68D9F81820C3F8242599F8141065
:1093800099F815202B680A43C3F86C252A68D9F888
:109390000030D9F80410C2F80C35C2F8141599F849
:1093A0001430012B64D03A199200B318C3F804802A
:1093B000D9F81030B350B8F1000F4AD0296899F8A5
:1093C0001C30DFF840E10022C1F81021D1F8101163
:1093D00001912968DDF804C0C1F82021D1F82011DD
:1093E00002912968DDF808C0C1F82421D1F82411C0
:1093F00003912968DDF80CC0C1F84421D1F844116B
:1094000004912968DDF810C0C1F85821D1F858112D
:109410002A6805910599C2F804E32968090B4AB244
:10942000002A5EDB02F1604202F561425B01DBB2C1
:1094300082F800332A68110B4BB2002B0ADB0122A1
:109440005B09DFF8C4E001F01F0102FA01F14EF8F8
:1094500023102A683C4406EB8404002301250821DC
:10946000C2F8001584F82050A361E361636142E70C
:10947000D9F80830591C0BD01F2B86BF03F01F03EF
:109480001E494FF0A04103F5E073002241F823206C
:10949000D9F80C305A1C1CD01F2B8ABF17494FF02B
:1094A000A04103F01F03012202FA03F3C1F80835BB
:1094B000D9F80C301F2B88BF03F01F0303F5E073AE
:1094C0008CBF0E494FF0A041032241F82320D9F868
:1094D0000C302A68D9F80810C2F80835C2F81015FF
:1094E00061E7074A01F00F015B010A44DBB2137622
:1094F000A0E700BFC03000207191020000030050BF
:10950000FCEC00E01003420000E100E02DE9F04136
:109510000679544C0268F500AB1904EB830382B062
:109520005B68B3B1504BC2F8083303681B0B59B2E8
:1095300000290EDB490920310127DFF834E103F06F
:109540001F0307FA03F34EF82130BFF34F8FBFF329
:109550006F8FA91904EB8101D2F80032896923F0D9
:109560002003C2F8003241B10023C2F84431D2F8DE
:10957000443100930123009953600023C2F858310D
:10958000D2F858310193AB19012104EB8303019FF9
:10959000D1609969D2F85831002BFBD019B1D2F8BB
:1095A0004431002BF6D00023C2F8003503684FF099
:1095B000FF38D3F80CC5D3F814E5D3F80815D3F861
:1095C0001075C3F80C85C3F814850368C445C3F847
:1095D0000885C3F810850CD0BCF11F0F86BF0CF0B6
:1095E0001F0C22484FF0A0400CF5E07C022340F80D
:1095F0002C30BEF1FF3F0CD0BEF11F0F86BF0EF026
:109600001F0E1A484FF0A0400EF5E07E022340F8EE
:109610002E30781C0BD01F2F86BF07F01F07134872
:109620004FF0A04007F5E077022340F827304B1CAD
:109630000BD01F2986BF01F01F010C4B4FF0A04338
:1096400001F5E071022043F821001046FFF744FACB
:10965000354404EB8504002384F82030636002B0B5
:10966000BDE8F081C030002010034200000300502C
:1096700000E100E001F06043B3F1005F01D0102091
:109680007047F0B50579234EEF007C1906EB840492
:1096900083B0636913B1112003B0F0BD6261A160B2
:1096A0000268C2F82031D2F820E10268CDF804E067
:1096B000DDF804E0C2F85831D2F85821009202686F
:1096C000DDF800E0D4F814E0C2F84415C2F848E52B
:1096D00002680121916062680AB11846DCE70368FC
:1096E00000E0A1B9D3F82021D3F85811002AF8D00E
:1096F00069B90122DA600268D2F85831002BFBD038
:1097000000207B1906EB830300225A61C4E70F2077
:10971000F7E700BFC030002010B4894B1B68082B4E
:1097200021D0884AD2F8883043F47003C2F88830D8
:10973000BFF34F8FBFF36F8F814B1B68082B00F077
:10974000AD804FF01023D3F80022002AC0F2C18070
:10975000D3F80432002BC0F2BC807B4B7B4A1A60EA
:109760005DF8044B70474FF080414FF0805200206D
:10977000C1F80C01764BC1F81001C1F83805D2F8D8
:109780000414C3F82015D2F80814C3F82415D2F82D
:109790000C14C3F82815D2F81014C3F82C15D2F8FD
:1097A0001414C3F83015D2F81814C3F83415D2F8CD
:1097B0001C14C3F84015D2F82014C3F84415D2F88D
:1097C0002414C3F84815D2F82814C3F84C15D2F85D
:1097D0002C14C3F85015D2F83014C3F85415D2F82D
:1097E0003414C3F86015D2F83814C3F86415D2F8ED
:1097F0003C04C3F868055749D2F84004C3F86C0527
:109800000968D2F84424C3F8702505293AD8524B88
:109810005B5C13B1514B524A1A60524B5B5C002B9C
:1098200000F08B80464B50491B684A4AFB20C1F828
:109830001805082B12687FF474AF052A22D84B4B09
:109840009B5C002B76D04A494A4B3D480A681B680E
:109850000068404C22F00F0203F00F031343082866
:1098600024680B607FF45DAF052C0BD8424B1B5D69
:1098700043B1334B414A1B684FF40071082B116010
:109880007FF44FAF4FF08043D3F80024D2077FF529
:1098900048AF6FF00102C3F8002442E72D4B1B686C
:1098A000052B08D94FF010224FF08043D2F8082240
:1098B000C3F8582545E7324AD35C002B3FF441AF4B
:1098C0004FF010224FF08043D2F80822C3F85825F9
:1098D00037E72C4B0122C3F80425D3F80024002AD3
:1098E000FBD04FF0102312222649C3F80022D1F8F2
:1098F0000034002BFBD04FF010221221214BC2F874
:109900000412D3F80024002AFBD000221D49C3F81A
:109910000425D1F80034002BFBD0BFF34F8F094949
:10992000194BCA6802F4E0621343CB60BFF34F8F58
:1099300000BFFDE7074B1C6898E7064B1A687EE7F7
:109940003001001000ED00E0402C00200090D0031A
:1099500000C000403401001074EB03008C5600403E
:109960004881030074EB030000F0004074EB030037
:10997000E40E00405802001074EB030040960240D1
:109980007CEB030000E001400400FA0570B51A4BBF
:109990001D789DB1194B1C682378C0B2984210D035
:1099A00004F10802002306E014F833108142164641
:1099B00002F1080206D001339D42F5D100231B7845
:1099C000FFDE2646FEF7E2FD7378A3F10103B3FA4A
:1099D00083F35B09834200D070BD094BD3E90023B8
:1099E0001343F9D1074B0848196800224908BDE81C
:1099F000704000F04FBC00BFE43000201831002060
:109A0000F0300020E8300020482C00202DE9F04FF5
:109A10009C4E337887B0002B00F02E81DFF87892CF
:109A2000994F9A4D4FF0000B4FF001083C6814F825
:109A30003B00FEF7ABFD04EBCB0314F83B405B7837
:109A40004FEA540E14F0010C15F80E10A3F10103A7
:109A5000B3FA83F314BF0A0901F00F025B09042A69
:109A600000F2B280DFE802F07A68382603009842FC
:109A700040F0AC80BCF1000F14BF0F23F02303EAC9
:109A8000010314BF30210321194305F80E10327869
:109A90000BF1010B9345C9DBD9E90023134306D031
:109AA0007B4B7C4819680022490800F0F3FB07B0A3
:109AB000BDE8F08F984200F08780BCF1000F0CBF2A
:109AC000F0230F2303EA01030CBF042140211943B3
:109AD00005F80E103278DBE7984240F0B580BCF113
:109AE000000F14BF0F23F02303EA0103327814BFE1
:109AF00030210321194305F80E10002ACCD0D7F8E5
:109B000000E09EF80030A34200F0B9800EF1080199
:109B10000023013393428C4601F10801B8D01EF8AE
:109B20003300A042F5D1DCF80430002BB0D0204641
:109B3000012198473278ABE7984213BF00232023D6
:109B400002221A46BCF1000F12BF0F20F02013466C
:109B500001400B4305F80E30327899E7984233D133
:109B6000BCF1000F0CBFF0230F2303EA01030CBF6D
:109B70000121102119434FF000030DF117008DF85A
:109B800017300023019305F80E1000F02FFCA4F10C
:109B9000200308FA03F301930198C4F1200128FA85
:109BA00001F1084308FA04F101900091D9E900237A
:109BB000DDE900011043194302460B469DF81700EA
:109BC000C9E9002300F038FC327861E7BCF1000FEE
:109BD0000CBFF0230F233078194005F80E1098B110
:109BE000D7F800E09EF80030A3423CD00EF1080206
:109BF000002303E01EF83310A14235D00133834225
:109C0000944602F10802F5D14FF000030DF1170060
:109C10008DF817300023039300F0E8FBA4F1200235
:109C2000C4F1200328FA03F308FA02F21A4308FAEF
:109C300004F103920291D9E90023DDE9020122EA4D
:109C4000000023EA0101B7E7BCF1000F0CBFF023CD
:109C50000F2303EA01030CBF01211021194305F86A
:109C60000E10327814E7F446DCF80430002BCBD029
:109C7000002120469847C7E7DFF81C900CE7F44620
:109C800051E700BFE430002018310020F8300020F8
:109C9000E8300020482C0020F0300020092A01D8AC
:109CA00007207047F0B583B00E4605461446FEF710
:109CB00005FB18B9FEF7A4FA002831D11C4A1D4B48
:109CC0001D4F156000211D481C6020223E7014F0BD
:109CD00077FD1B4B00200021741EC3E90001E4B294
:109CE00006B3184F032601E0FF2C1BD022B29DF8CB
:109CF000063015F832008DF8046005EBC20203F05F
:109D0000FC0392788DF805206FF382033A4601A98F
:109D10008DF80630FEF7DCFA013CE4B20028E3D00F
:109D200003B0F0BD084A0948002100F09DFAF7E7AA
:109D300018310020E8300020E4300020F830002006
:109D4000F03000208D9902000D9A020084EB030090
:109D500070B5084D2B785BB1074E002433680121A4
:109D600013F83400FEF796FB2B780134A342F5D8A4
:109D7000002070BDE43000201831002000B585B00F
:109D800000230390194601AA44F2010001930293B3
:109D900000F004F805B05DF804FB00BF10B572B622
:109DA00004F0DEF903F058FD0028FBD1104B114CF4
:109DB0001149E41AE408240444F0010003F072FE9F
:109DC0000E4B1B68DB0700D500BE44F002000C49B7
:109DD00003F068FEBFF34F8F0A490B4BCA6802F4C9
:109DE000E0621343CB60BFF34F8F00BFFDE700BFBE
:109DF000A0400400D040040094EB0300F0ED00E02C
:109E0000A0EB030000ED00E00400FA05D0E9022316
:109E1000D1E90201994208BF90422CBF01200020E5
:109E2000704700BF2DE9F04F87B0029000F030FC82
:109E300040B1B049D1E9002312F1807443F100052B
:109E4000C1E9004500210298DFF8C48200F03CFC23
:109E5000002854D0D8F80030002B50D0A64BD8F8AA
:109E600000401B783BB334B3A44800F03DFCA14A4A
:109E7000A34BD2E90067D3E9002316EB000947F1B1
:109E8000000A9A4508BF91454846514603D219F148
:109E900080704AF10001D4E90223994208BF904240
:109EA00080F06F81013308BFB2F1FF3F03D021463C
:109EB000944803F06DFA05AB039300230121029847
:109EC000C8F8003000F000FC08B38C488C4E00F05D
:109ED0000BFC884BD3E90045D6E9002314EB0009BD
:109EE00045F1000A9A4508BF91454846514603D2BC
:109EF00019F180704AF10001C6E9000107E005ABE5
:109F000001210298039300F0DFFB0028DDD10399C3
:109F10007D4801F049FF20B37B4EDDF80C904FF0F7
:109F2000FF344FF0FF350378012B00F09480C0F030
:109F30009B80022B0BD1734F01E0C0E902453846EC
:109F400003F03AFA0028F8D16B4B01221A70494607
:109F5000304601F059FF4946304601F025FF002800
:109F6000E1D1DFF8A091654DDFF888A1484603F004
:109F700029FA00285AD0D0E90223591C08BFB2F1AF
:109F8000FF3F7ED0D8F80010A9B1D8F80010D1E971
:109F900002018B4208BF824255D2D8F80030D3E983
:109FA0000223013308BFB2F1FF3F04D0D8F80010FC
:109FB000484603F0EDF9484603F0FEF90446D4E9BB
:109FC00002232846CDE9002300F08EFBDAE90023C6
:109FD0004B4E121843F1000393469C46D6E90023EA
:109FE0009C4508BF9345DDE9002303D21BF1807B2C
:109FF0004CF1000CB2EB0B0063EB0C01012871F18A
:10A00000000742DB414FB84220D84FF496030021AD
:10A01000284600F0B5FA80B10D283AD00023484612
:10A02000C8F8003003F0CEF90028A4D1D8F80030E9
:10A030004BB9029800F07AFA05E0D8F80030002B0E
:10A0400054D0C8F8004007B0BDE8F08F284600F0B3
:10A050004BFBC219D9E74168D8F80030994241D08A
:10A06000284803F0B3F972E74168D1E902230133CC
:10A0700008BFB2F1FF3F3FF46AAF224803F088F90E
:10A0800065E7484603F098F970E70021284600F09C
:10A090000FFB194B1B78002BC0D0284600F024FB87
:10A0A000DAE90023D6E9006712EB000B43F1000C5C
:10A0B000BC4508BFB3455846614603D21BF18070CA
:10A0C0004CF10001D4E90223994208BF904221D209
:10A0D000013308BFB2F1FF3FA0D02146484603F04C
:10A0E00057F99BE70023C8F8003030E7029800F0EA
:10A0F00019FAA6E72031002028310020682C002022
:10A1000098310020B4EB030084310020FFFFB4003D
:10A11000A0310020002303988DF8143000F066F978
:10A1200023692BB94FF0FF324FF0FF33C4E902230C
:10A130009DF8140000F080F96369A0699847002336
:10A1400003988DF8143000F051F92369A3B1D4E9D4
:10A1500002677A1C08BFB6F1FF3F0DD0F01847F137
:10A160000001C4E902019DF8140000F065F92146E0
:10A17000484603F00DF951E79DF8140000F05CF932
:10A180004CE706AB1A46002302F8043D1046039242
:10A1900000F02CF923692BB94FF0FF324FF0FF3359
:10A1A000C4E902239DF8140000F046F96369A06930
:10A1B0009847002303988DF8143000F017F92169AF
:10A1C000A1B1D4E90256701C08BFB5F1FF3F0DD014
:10A1D0006A1846F10003C4E902239DF8140000F058
:10A1E0002BF92146044803F0D3F866E69DF81400E5
:10A1F00000F022F961E600BFB4EB030010B5134B89
:10A2000013491B68134882B058220193082301F0B8
:10A2100053FD044610B1204602B010BD0E4A0F484F
:10A2200001A900F021F904460028F4D101210B48CE
:10A2300000F024FA01231946094A084800F07AF987
:10A24000084B012220461A7002B010BDB0EB03008B
:10A250002C31002084310020259E0200682C002033
:10A26000FFFF7F00283100208AB130B403684FF02F
:10A27000FF344FF0FF35A1F10101B1FA81F1C3E9DB
:10A28000024549095A611961002030BC7047072016
:10A29000704700BF2DE9F04F83B002AD002405F8F0
:10A2A000044D8246284617460E4600F09FF8DAE92C
:10A2B0000223013308BFB2F1FF3F07D09DF804002D
:10A2C00000F0BAF8204603B0BDE8F08F204800F057
:10A2D0000BFA204B2049D3E90023D1E9008912EB86
:10A2E000000B43F1000CCC4508BFC34558466146FE
:10A2F00003D21BF180704CF10001801941F1000183
:10A30000CAE902019DF8040000F096F8DAF810306E
:10A31000CAF818700BB1CAF8106029460F4801F04E
:10A3200005FD80B10024C0F804A0047029460B4844
:10A3300001F02AFD0028C6D0054800F0D9F92046D2
:10A3400003B0BDE8F08F042003B0BDE8F08F00BF7C
:10A35000682C00202031002098310020843100201A
:10A3600070B582B002AC002504F8045D06462046B4
:10A3700000F03CF8D6E90223013308BFB2F1FF3FF9
:10A380001ED04FF0FF324FF0FF339DF80400C6E9B6
:10A39000022300F051F821460D4801F0C7FC60B1DE
:10A3A0000123466003702146094801F0EDFC28B105
:10A3B000084800F09DF9284600E0042002B070BD76
:10A3C0009DF8040000F038F8284602B070BD00BFC8
:10A3D00084310020682C0020401A20F07F40704714
:10A3E000014800F081B900BF682C002070B4EFF381
:10A3F000108472B60D4B9A68AAB90D490D4E01250D
:10A400009D60D1F8805035401D60C1F88060D1F862
:10A4100084505D604FF0FF33C1F88430027004B99E
:10A4200062B670BC704701230370F8E7E86D002046
:10A4300000E100E0FC06FFBD094B9A6872B168B903
:10A4400010B4EFF3108172B6064A1C6814605C68A1
:10A450005460986001B962B65DF8044B704700BF64
:10A46000E86D002000E100E070B5264C4379264EEF
:10A4700004EBC30546F823202D797DBB03680A88C9
:10A48000C3F8082590F904308A78002B32DB03F1F9
:10A49000604303F561435201D2B283F8002390F97F
:10A4A0000430002B07DB194903F01F0501225B096B
:10A4B000AA4041F823204279154B164D44F832004A
:10A4C000581B04EBC204C008012300041249237185
:10A4D00040F0030003F0E6FA002070BD0D4B0C487D
:10A4E0000E49C01AC008000440F0020003F0DAFA76
:10A4F000082070BD0A4903F00F0352011944D2B27B
:10A500000A76CCE7A4310020AC31002000E100E065
:10A51000E0400400A0400400FCEB0300D8EB030083
:10A52000FCEC00E0036801221A6070470368012216
:10A530005A607047F0B404684FF480358D40C4F819
:10A54000085306688C00C6F8485304F5A0740668E2
:10A55000A4B20027375182B036590468019601F53C
:10A56000A87122F07F42019E44F821200268C2F8BF
:10A57000445313B10368C3F8045302B0F0BC7047EE
:10A580002DE9F04104464FF4803600688E40C0F853
:10A5900048632068C0F8086320688D004719D0F828
:10A5A00004E5D7F84005C7F840E505F5A075ADB25C
:10A5B00027684FF0000847F8058084B0A0EB0E0034
:10A5C0007F59029720F07F40012822F07F47029AAE
:10A5D00031D02268D2F80455C2F844637A1B22F0C5
:10A5E0007F42012A01F5A87136D0226842F8217015
:10A5F0002268D2F80455781BC3F1FF13013803F524
:10A600007F4320F07F40834203D20D2004B0BDE899
:10A61000F08138B9013742F821702268D2F8043548
:10A620009D42F2D1C2F8446323680020C3F804635A
:10A6300004B0BDE8F081104A8DE80A0042F0010242
:10A640004FF480609047226842F805805259039287
:10A65000039A9DE80A00BCE72068074B013740F8E1
:10A66000217043F001034FF4806098472268D2F8CC
:10A6700004359D42C9D1D5E7D0EB0300026802231F
:10A68000C2F8443311B10268C2F80433704700BF06
:10A690000368D3F8040148B10022C3F8042182B052
:10A6A000D3F804310193019B012002B0704700BF31
:10A6B0004FF48033026803FA01F1C2F848130368CB
:10A6C000C3F80813704700BF890001F5A07189B273
:10A6D0000368585838B100225A5082B05B58019331
:10A6E000019B012002B070470368D3F8040570474E
:10A6F00090F90430002B09DB5A09403203F01F03A4
:10A700000121034801FA03F340F82230704700BFEB
:10A7100000E100E0024A034B10681B68184700BFC5
:10A72000A4310020AC310020F0B5344C344EB4F8E4
:10A7300002E062684FEA8E0707EB0E0306EB830325
:10A7400083B0596801F58050002A53D053880333F1
:10A7500002EB8302904231D9136801332ED0538823
:10A76000033302EB8303984228D34FF6FF7C95888E
:10A77000654517D01588ADB19568013512D0626076
:10A780005388204D2048AE882968033300259BB2AA
:10A7900000959B0001EB86010325257002F044F82B
:10A7A00003B0F0BD984209D91A6801321A4605D0A3
:10A7B0005D88033503EB85039842D8D2774406EBD6
:10A7C0008706F3686BB10F4D0F48296802270526ED
:10A7D00000230122AF80267003B0BDE8F04002F0F4
:10A7E000C5B8094804250122257003B0BDE8F04032
:10A7F00002F0BCB801F10802ACE700BFD431002080
:10A80000F0310020B8320020402F00202DE9F04325
:10A81000436889464BB13E4AD468A34205D31269C6
:10A82000934202D813F0030553D00023DFF8E8E089
:10A83000A9F8003001274FF6FF75DEF8046000220A
:10A8400006F580540836002A41D05388033302EBC2
:10A8500083039C420AD87B1CA9F800709FB2032F87
:10A860000EF1140EE9D10020BDE8F0831A68013220
:10A87000F1D05A88033203EB82029442EBD3B3F84F
:10A8800004C0AC4514D0B3F800C0BCF1000F0FD029
:10A89000D3F80880B8F1FF3F0AD0016841451A4655
:10A8A000D1D11C4A4360138903810120BDE8F083A4
:10A8B000A242D0D2136801331346CCD0B2F802C002
:10A8C0000CF1030C02EB8C02A242C4D8D7E733464A
:10A8D000BFE7104A048912899442A6D104689A6895
:10A8E0009442A2D10C484268934203D902F58052A7
:10A8F000934207D382699342B5D902F580529342BD
:10A90000B1D20125A9F800500120BDE8F08300BFB5
:10A91000402F0020D4310020F03100202DE9F047F5
:10A92000B3F804E0BEF1010F24D8344F0EEB8E04CF
:10A93000924607EB84074FF6FF7C4FF000083C7807
:10A940006CB91C687D6805F58056002C52D065886E
:10A95000033504EB8504A64210D8C3F800800EF13D
:10A96000010E1FFA8EFEBEF1020FA3F804E007F1FC
:10A970001407E4D148F20960BDE8F0872568013585
:10A98000EBD06588033504EB8505AE42E5D3B4F81A
:10A990000490E1451FD0B4F80090B9F1000F1AD02F
:10A9A000A268013217D01C6018B1A6880588AE4293
:10A9B000C8D119B126880D88AE42C3D1A168CAF8A2
:10A9C000001019680E4BCAF804101B89AAF8083049
:10A9D0000020BDE8F087AE42BFD92C6801342C4678
:10A9E000BBD0B5F8029009F1030905EB8905AE4229
:10A9F000B3D3CCE705F10804ADE700BFF031002088
:10AA0000D43100202DE9F04FAC4DDFF8D0A2DFF8B3
:10AA1000D0928BB007462C68002C00F0C6802278BC
:10AA2000531E052B00F22783DFE803F05E2929136C
:10AA30001303002F00F0C7800DF114080023C8F89D
:10AA400008300593C8F80C30C8F810304FF40643AE
:10AA500040E0002FF0D12679012E00F0D1820DF1D7
:10AA60001408C0F00D81022E0597C8F80870C8F8C8
:10AA70000C70C8F8107040F008833B462AE0B4F828
:10AA80001480002F00F0B480A37D022B40F2C98017
:10AA90004FEA88068A4FE38806EB080207EB82023A
:10AAA000033311890B4413814644E38807EB86077F
:10AAB000C3F57F437A890DF11408FD331344002256
:10AAC0007B81C8F808200592C8F80C20C8F810202F
:10AAD0004FF4064306932378023B042B1BD8DFE890
:10AAE00003F04C3458144800002F65D00DF11408C1
:10AAF000744A002353600593C8F80830C8F80C3036
:10AB0000C8F810304FF40643E4E704238DF81430FE
:10AB1000E388ADF820306C4C04F1100654F8043B87
:10AB2000404603B19847A642F8D15146002748460F
:10AB30002F6001F069F90121644801F035FA00281D
:10AB40007FF469AF0BB0BDE8F08F02238DF81430AD
:10AB50002389ADF82030A388ADF82230E36807934D
:10AB6000A37DA3F10603B3FA83F35B098DF82430C8
:10AB7000D1E705238DF81430CDE701238DF814308B
:10AB80002389ADF82030A388ADF82230E36807931D
:10AB9000C1E703238DF81430E388ADF82030238912
:10ABA000ADF82230E3680793B5E75146484601F017
:10ABB000FBF80446286032E72379032B42D8DFE80C
:10ABC00003F0919D34B5424B1B7B002B49D0404B89
:10ABD0003F4A1B781773013B062B00F24C82DFE8DB
:10ABE00013F0E101B501C100DB004A02B9019B018C
:10ABF0004FEA8806324FA17D06EB080307EB83037B
:10AC0000B3F808B05B6803EB8B0B062900F2DA821D
:10AC1000DFE811F0DB005B016E0118012B0142013E
:10AC20001501274F4FEA88063EE72A4A2A4811684D
:10AC30000023237102249480012201F097FE002852
:10AC400080D02C681F4A0DF114080023536005932F
:10AC5000C8F80830C8F80C30C8F8103048F20D6356
:10AC600038E71B4B1B78072B00F26082DFE813F0FC
:10AC700010025E025E0263012602540154013B028F
:10AC8000022323710597C8F80470C8F80870E368B8
:10AC9000059340460DF11201FFF7B8FD002840F082
:10ACA0005D820597C8F80470C8F80870C8F80C7081
:10ACB000C8F8107048F209630CE700BFEC310020BF
:10ACC000F0310020CC310020BC310020B432002013
:10ACD000D4310020B8320020402F0020E431002081
:10ACE000A4320020A54BA64A1968A6480123237167
:10ACF00000230093082301F097FDA0E7A24F3B78C3
:10AD0000022B00F05D823B7D022B00F046829F4AC1
:10AD10000DF1140801231370002353600593C8F844
:10AD20000830C8F80C30C8F81030D3E6984B964F6E
:10AD30005B88924E03EB830307EB830000222271B2
:10AD400034680092B18807F8232043680181022704
:10AD5000336044608F4AB78021460823894801F058
:10AD600063FD6CE78A4B85485A688488016853887C
:10AD7000874E844801EB84010333002400949BB286
:10AD800003249B00347001F04FFD0346002B3FF479
:10AD9000D9AE0DF114083FE07D4B7B4F5B8803EB90
:10ADA000830307EB8307FB68002B00F0D381734B11
:10ADB0007448196802229A8005240023744E0122E7
:10ADC000347001F0D3FD0346E0E702230022A375AF
:10ADD000042300925946E2186A4801F025FD002834
:10ADE0003FF4B0AEA17D48F20D63022908D906EB0D
:10ADF000080107EB8101E2880889033202440A81D5
:10AE0000464407EB8607E2887989C2F57F42FD3226
:10AE10000A447A810DF1140841F61D5100228B423B
:10AE2000C8F80020C8F80420C8F80820C8F80C208A
:10AE3000C8F8102040F0F78013462C684AE641F627
:10AE40001D53D4E7E38822694E484FF0010E84F881
:10AE500016E04FF0000E0BF10C019B00CDF800E066
:10AE600001F0E2FC0028BDD16CE64B4BA2691A60F0
:10AE70001846002249495A60FFF7C8FC0028A4D1AF
:10AE80000DF114080590C8F80800C8F80C00C8F8BF
:10AE9000100048F209631DE6404B3F4AB3F800B08A
:10AEA000516838483E4A00234FF0060E84F816E0F9
:10AEB0000093042301F0B8FC002893D10BEB8B0B1B
:10AEC00007EB8B0701233B743CE6032A14BF0623E0
:10AED00005230022A3750BF104010092042304F161
:10AEE0000802284801F0A0FC00287FF47BAF29E687
:10AEF00023692448002B0CBF012303230022A375E0
:10AF00000BF108010092042304F10C0201F08CFC07
:10AF100000287FF467AF15E6184B1D4E1968184AD4
:10AF2000184800230724009373603470082301F04D
:10AF30007BFC03462AE7164B104A596893884988D8
:10AF400003330B449380124B02211970FFF7ECFB83
:10AF500003461BE70E4B0C4F5A889300134407EB34
:10AF600083070B4E79680B4A06480023062400939A
:10AF70000823347001F058FC034607E7B83200207C
:10AF80001CEC0300402F0020F0310020CC310020C9
:10AF9000D431002014EC0300B0310020C432002072
:10AFA00010EC0300894B9B7A3BB1894F8749FB68C2
:10AFB00000228A72002B00F09B80844BDB7A7BB1ED
:10AFC000834F82493B6A0022CA724BB997F82430FA
:10AFD00033B101237D4A5380FFF7A6FB0346D5E634
:10AFE0000DF11408794A2C680023C8F80830137052
:10AFF000538053600593C8F80C30C8F8103069E5E9
:10B00000744B1B788BB90DF114080822394672482D
:10B0100013F0D6FB48F201630597C8F80870C8F82A
:10B020000C70C8F810702C6854E5DFF8ACB10DF165
:10B030001408A01D5B4642463946FFF76FFC002806
:10B040005BD100970699654A6548BBF80440042324
:10B0500001F0EAFB002800F09980C8F80070C8F8F9
:10B060000470C8F80870C8F80C70C8F810702C6824
:10B0700048F20D632EE50DF114080023C8F80830DE
:10B080000593C8F80C30C8F8103048F20E6321E57B
:10B090004F4F4E4B3A7D19893B784C4CB2FA82F2B5
:10B0A0005209B3FA83F300205B090131E2720122F5
:10B0B000A372218160802073227075E7434B444F57
:10B0C0005A8848489300991807EB810106684C6834
:10B0D000B0F804E04E60046000260224A1F808E005
:10B0E0000E7484803AE7394A01231370937A5BE740
:10B0F0003A7C002A3FF461AF6CE70390082258467F
:10B10000394613F05DFB039B48F2096293427FF4DA
:10B1100083AEC8F80070C8F80470C8F80870C8F8A2
:10B120000C70C8F810703B462C68D3E4013B062B2A
:10B13000A1D801A252F823F0A5AF02004DAF020042
:10B1400065AD020099AD020077B0020055AF020074
:10B1500019AF02007968224804242FE606991F4A95
:10B160008B88E3800B8823811D4800970423BDF85A
:10B17000124001F059FB00287FF46FAF144B04EB31
:10B18000840403EB840401232374DBE4104B04EBFD
:10B19000840403EB84042674D4E401239A001A4443
:10B1A00007EB8203002059680090082307F822006B
:10B1B0000D4A0B4801F038FB00287FF442ADC1E492
:10B1C0000023EBE748F20E630FE600BFD431002006
:10B1D000F0310020CC310020C832002010EC0300F8
:10B1E000402F0020B832002014EC03004068FFF725
:10B1F00009BC00BF2DE9F04782B0002A61D0B2F847
:10B20000008057880E46054601A94748994600F038
:10B210008DFD1C220446002113F0D2FA002C2FD001
:10B220004FF0000A84F80090A4F8148084F816A067
:10B230007368236101213D4800F0A8FEE060338877
:10B2400023817388A380B9F1030FE7802ED0A4F87F
:10B250000AA001A9344800F097FD3DB100236B60BE
:10B26000E168334A29601289AB722A810121314891
:10B2700000F07EFE044698B1002002B0BDE8F087E1
:10B280002D4A08EB880802EB8802C7F57F435189F5
:10B29000FD330B4448F20760538102B0BDE8F087EC
:10B2A000FFF7B0FB204602B0BDE8F0870423A3758A
:10B2B0002B68A36101A9A4F80AA01B4800F064FD53
:10B2C000CCE70F89FA1C92B240F2FE34A24202D9B6
:10B2D00048F20860D1E7184C94F80080B8F1000FEC
:10B2E00007D16689258935441544ADB2B5F5806F1F
:10B2F0000CD9257D3DB9E68BA58B35441544ADB2FF
:10B30000B5F5806F0BD948F20660B6E7C6464FEA3E
:10B310008E05754404EB85043244628172E74FF078
:10B320000108C646F3E700BFA4320020E831002040
:10B33000D4310020B4320020F031002038B5094B60
:10B340001A68042A02D148F20B6038BD1D68064C09
:10B3500002460121184644F8252000F017FE00207F
:10B3600038BD00BFC0320020BC3100202DE9F04FB5
:10B37000A44C8BB02278002306930593079308937F
:10B38000099372B1A04C04F1100554F8043B05A8D0
:10B3900003B19847A542F8D1002528460BB0BDE877
:10B3A000F08F201D02F0FF0600F00CFE074600287B
:10B3B000F2D140F6F8731B685D1C00F064814FF019
:10B3C000805211695269DFF864829049C8F81030E0
:10B3D0004046A3F540530022C8F80C3001F0F6F9BE
:10B3E00005460028D9D11C238C2289498948DFF8D9
:10B3F00040A200F061FCD8F80C30DFF838820396E8
:10B4000003F5405103F10802009103210191AB467D
:10B41000BC46964602955EF8082C002B00F03E8153
:10B420007D498A4268D001320AD103F6FC701A467F
:10B4300002E0904200F03A8152F8041F0131F8D046
:10B44000764A0BEB8B0102EB8100019A4360013AD3
:10B4500092B20192714A03250BF1010B02F82150BF
:10B460001FFA8BFB03F58050009A82420EF5805E36
:10B470000346D0D1019B029D012B40F240815FFA2F
:10B480008CF7022F00F03B81062F00F02981002F5E
:10B4900000F0358104A95F4800F048FC1C220446F6
:10B4A000002113F08DF9002C00F031810123013FC0
:10B4B00023700A2F09D8DFE807F0190819081608C1
:10B4C00016081C061C000223237104A9514800F031
:10B4D0005BFC0121524800F04BFD00287FF45CAF7B
:10B4E000FFF790FA59E701232371EEE70023237158
:10B4F000EBE703232371E8E75A684A498A4258D0A8
:10B5000001318A4291D1039A9AB10BEB8B02434EDF
:10B510004249022001EB820106F82200424ED8F88F
:10B520000020A6F802B00BF101054A601FFA85FB66
:10B5300008810221C8F80030A8F804109A68013286
:10B5400003F5805000F0E18003F1080253880333D3
:10B5500002EB8305A84207D24FF48063A8F80430B9
:10B5600008234CEA030C7FE795884FF6FF76B54237
:10B570000CD0158855B195686E1C07D0DAF80060BC
:10B58000AE4203D2CAF80050538803330B4499B239
:10B59000A8F804105588033502EB8502904204D8C0
:10B5A000022900F0B2800823DBE713680133CDD114
:10B5B000F6E71A484FEA8B0505EB0B0200EB820613
:10B5C000002100F822100222736032819968013153
:10B5D00003F580500FD008335988CF1C03EB870741
:10B5E000B84229D20D4B5D4403EB850501224FF48F
:10B5F00080632A742B810BF1010B1FFA8BFB4CF03B
:10B60000020C31E7CC310020BC3100203CEE0300BD
:10B6100018320020A4320020DEC0ADDEF031002060
:10B62000B4320020FE011EF1D4310020402F002052
:10B63000E8310020B83200209F884FF6FF794F454F
:10B640001BD01F88CFB19F68B7F1FF3F15D0DAF844
:10B650000090B94503D2CAF80070598832890A446B
:10B66000033292B232815988033103EB810398424D
:10B67000C1D919680131AFD1BDE74FF00102327471
:10B6800059883289EBE7274B4FF080521B681169CC
:10B690005269581C08BF02FB01F394E6511C3FF4A9
:10B6A000C4AE21498A423FF4C0AEC9E6D8F80020B2
:10B6B00082B31E491E4E0BEB8B0201EB820002216E
:10B6C000436001811948A6F802B00BF1010500F8AA
:10B6D00022101FFA85FB4CF0010C03F58050C3E6E5
:10B6E000144D01220023227005F11006636055F805
:10B6F000043B05A803B19847AE42F8D14CE60023BD
:10B70000237048F20A65636047E6042329E748F29C
:10B71000076542E60222A8F804200122C8F800309A
:10B720000392D8E714100010DEC0ADDEF031002027
:10B73000D4310020BC31002068B161B170B582B055
:10B740000C460DF106010546FFF760F830B948F2E6
:10B75000096002B070BD48F204607047BDF8060091
:10B76000084B6E6800EB800003EB80000C30012179
:10B7700000F00CFC26606B6801220C336360002033
:10B78000AA72E6E7F031002058B110B582B00DF191
:10B7900006010446FFF73AF830B948F2096002B0F2
:10B7A00010BD48F204607047BDF806300A4A03EB4A
:10B7B000830302EB8303DA681AB948F2056002B02A
:10B7C00010BDA27A002AF8D0DA680021013ADA60C6
:10B7D0000846A172E3E700BFF0310020114B1B784F
:10B7E00013B948F20160704761B110B40C884FF68C
:10B7F000FF739C4201D04B883BB948F203605DF86F
:10B80000044B704748F2046070474A6812F0030224
:10B8100002D048F20260F2E702235DF8044BFFF722
:10B82000E9BC00BFCC31002028B1124A12782AB9F5
:10B8300048F20160704748F2046070470029FAD06E
:10B8400010B40C884FF6FF72944201D04A8822B996
:10B8500048F203605DF8044B70474A6812F0030237
:10B8600002D048F20260F5E703235DF8044BFFF7CE
:10B87000C1BC00BFCC310020194B1B7813B948F272
:10B88000016070474FF6FF73984202D148F203609F
:10B89000704770B582B001A90446124800F046FA1C
:10B8A0001C220546002112F08BFF85B105230126DD
:10B8B000EC8001A92B702E710A4800F065FA314620
:10B8C000094800F055FB044628B1002001E048F289
:10B8D000076002B070BDFFF795F82046F9E700BF9A
:10B8E000CC310020A4320020B4320020164B1B784B
:10B8F00013B948F20160704710B582B001A913482E
:10B9000000F014FA1C220446002112F059FF8CB1F9
:10B910000623237001A90D4800F036FA0C4B1A7863
:10B920005AB901210B4800F023FB044640B1002026
:10B9300002B010BD48F20760FAE701221A73F0E77F
:10B94000FFF760F82046F3E7CC310020A432002056
:10B95000D4310020B432002010B50C4C82B0ADF8C8
:10B9600006002078ADF8041018B948F2016002B062
:10B9700010BD3AB133B101A90DF10600FEF7CEFFBB
:10B9800002B010BD48F2046002B010BDCC310020FE
:10B99000344B1B7813B948F20160704779B372B326
:10B9A0002DE9F041B2F804E0BEF1010F23D82E4E8C
:10B9B0000EEB8E0306EB83064FF6FF7C4FF000087C
:10B9C00033786BB91468736803F58055002C46D042
:10B9D0006388033304EB83039D4213D8C2F80080CD
:10B9E0000EF1010E1FFA8EFEBEF1020FA2F804E066
:10B9F00006F11406E4D148F20960BDE8F08148F28E
:10BA0000046070471C680134E8D05C88033403EBA1
:10BA10008404AC42E2D89F88674513D01F888FB159
:10BA20009F6801370ED013601D8885421C46CAD11D
:10BA30009B680B6012680D4B4A601B890B810020CC
:10BA4000BDE8F081AC42C9D2236801332346C5D09A
:10BA50006788033704EB8704A542BFD3DBE70833CD
:10BA6000BAE700BFCC310020F0310020D4310020F3
:10BA7000324B1B7813B948F201607047E1B1DAB17B
:10BA80002DE9F0419688012E12D82D4B06EB860E3B
:10BA900003EB8E0E4FF6FF7C4FF000089EF800304F
:10BAA0006BB10136B6B2022E96800EF1140EF5D1AE
:10BAB00048F20960BDE8F08148F2046070471468FC
:10BAC000DEF8043003F58055002C35D0638803334D
:10BAD00004EB83039D4202D8C2F80080E1E71C68B2
:10BAE0000134F9D05C88033403EB8404AC42F3D80E
:10BAF0009F88674513D01F888FB19F6801370ED08C
:10BB000013609D8885421C46DAD19B680B601268E1
:10BB10000C4B4A601B890B810020BDE8F081AC42D0
:10BB2000DAD2236801332346D6D06788033704EB83
:10BB30008704A542D0D3DBE70833CBE7CC31002024
:10BB4000F0310020D431002020B119B103680B601E
:10BB50000020704748F20460704700BF534B1B78C9
:10BB600013B948F2016070472DE9F04F044683B0E5
:10BB7000002879D01222002112F022FEDFF8308155
:10BB8000608821896689DFF82CA1ADF800100323B5
:10BB90004246238000254FF0010C4FF6FF7E814680
:10BBA00013895089576803449BB217B138685045D0
:10BBB00073D020880138208005EB850008EB8000D9
:10BBC0001E44C7680099A089B944A4F80290578917
:10BBD0006681C3F580639BB23944984238BFA38124
:10BBE00021815768ADF80010B968013107F10803E9
:10BBF00007F580502FD07F89033703EB8707B842C2
:10BC00001ED3BDF800109F88774535D01F88002FC0
:10BC100032D09F6801372FD0A7880137A7805F886F
:10BC2000033703EB8703984223D91F68013720D0DD
:10BC30005F88033703EB8707B842E4D2ADF8001002
:10BC4000B4F80EB0E78884F810C0C31A0BEBA30356
:10BC50000137E381E7800135022D02F114029FD103
:10BC6000002003B0BDE8F08F48F2046003B0BDE8E7
:10BC7000F08FADF80010EEE7B4F806B0E7890BF1ED
:10BC8000010BA4F806B0B3F802B003375F44E781B4
:10BC90005F88033703EB8703C5E7786800F16E60C0
:10BCA00000F5FF300230012886D982E7CC31002030
:10BCB000F0310020DEC0ADDE99B110B4B2FBF3F478
:10BCC00003FB1424A4B21CB109205DF8044B704797
:10BCD00080E8120084608281C38120465DF8044BB5
:10BCE00070470E20704700BF82B050E8022FC18815
:10BCF000B2EB324F4FF0000317BF92B241EA01415D
:10BD000042EA014104E04268B2EB324F08BF01232E
:10BD100040E80212002AE8D18DF807309DF807307C
:10BD2000002B0CBF1120002002B0704730B482B04D
:10BD300050E8013F9DB2C48925448489A54228BFAB
:10BD40002D1B0489A54202BFBFF32F8F002207E0FD
:10BD5000C5EA030540E80154002CE9D14FF0010287
:10BD60008DF803200193019B9DF803200B602AB1FD
:10BD70000B880068184402B030BC704702F0FF0323
:10BD8000184602B030BC70470A884B889A4201D0EE
:10BD90000020704750E8012FC2EA024240E8012328
:10BDA000002BF7D10120704730B482B050E8023F39
:10BDB0001FFAA3F5C488A54202BFBFF32F8F00224C
:10BDC0000DE0C48925448489A54228BF2D1BC3EA00
:10BDD000054540E80254002CE8D14FF001028DF8EF
:10BDE00003200193019B9DF803200B602AB14B882F
:10BDF0000068184402B030BC704702F0FF031846D8
:10BE000002B030BC704700BF0A884B889A4201D00C
:10BE10000020704750E8022FC2EA224240E8022385
:10BE2000002BF7D10120704701F01F024B090121BF
:10BE300000EB8300914000F07FB800BF10B50123F4
:10BE400001F01F04490900EB810003FA04F100F03E
:10BE500065F8E04000F0010010BD00BF01F01F02D6
:10BE600001234909934000EB8100D94300F072B8E7
:10BE70004B0901F01F0150F82300C84000F00100F9
:10BE8000704700BF2DE9F84F01F1FF394FEA59190A
:10BE900009F101090E46074600EB890982464FF079
:10BEA000000B4FF001080EE0DAF80030DB4393FAA4
:10BEB000A3F3B3FA83F55D447BB90AF1040AD145D3
:10BEC0000BF1200B1AD0DAF80050ED4395FAA5F5E6
:10BED000002DF2D0B5FA85F55D44AE42EDD905F0FE
:10BEE0001F04680908FA04F107EB800000F016F857
:10BEF000E040C307D8D42846BDE8F88F3546284629
:10BF0000BDE8F88F00B550E8002F0B4640E8003E32
:10BF10009EF0000FF7D110465DF804FB00B550E825
:10BF2000002F42EA010340E8003E9EF0000FF6D1E8
:10BF300010465DF804FB00BF00B550E8003F43EA3F
:10BF4000010240E8002E9EF0000FF6D110465DF889
:10BF500004FB00BF00B550E8003F03EA010240E8DF
:10BF6000002E9EF0000FF6D110465DF804FB00BFD6
:10BF700000B550E8002F02EB010340E8003E9EF0C0
:10BF8000000FF6D110465DF804FB00BF00B550E885
:10BF9000003F03EB010240E8002E9EF0000FF6D1B7
:10BFA00010465DF804FB00BF00B550E8003FA3EB6E
:10BFB000010240E8002E9EF0000FF6D110465DF819
:10BFC00004FB00BF00B5012350E800EF4EEA030276
:10BFD00040E8002191F0000FF6D170465DF804FBB7
:10BFE00000B5012350E8002F42EA030E40E800E1CB
:10BFF00091F0000FF6D170465DF804FB00B5002308
:10C0000050E800EF0EEA030240E8002191F0000F33
:10C01000F6D170465DF804FBB8B130B4416882686F
:10C020000468521AD2B2531E2160DBB242B10168D9
:10C030000A685C1E551C0D601370E3B2FF2BF6D12D
:10C0400003680020187130BC70470E20704700BF95
:10C05000F0B583B002AB002503F8015D0446184635
:10C06000FEF7C4F9236861681A688A4210D9511E24
:10C0700019602168A3680E6812F8015C0A79278AA2
:10C08000E0689B1BDBB29A4207FB050538BF0B71CA
:10C090009DF80700FEF7D0F9284603B0F0BD00BFB9
:10C0A00030B583B002AB002203F8012D05461846D7
:10C0B0000C46FEF79BF92A681368591C1160E96861
:10C0C0002A8A641AB4FBF2F41C709DF80700FEF78C
:10C0D000B3F903B030BD00BF826802B9704710B534
:10C0E000044643690168006998470023A36010BDB6
:10C0F0000EB400B582B0039929B102AA04AB42F88C
:10C10000043D00F0A3F802B05DF804EB03B0704703
:10C110002DE9F04F164683B0B1428A46054698464F
:10C12000DDF830B00D9AC0F08D800B460127B3FBCF
:10C13000F6F39E4207F10107F9D9474538BF474654
:10C1400012F00103009302D1BBF1000F59D1A8688E
:10C15000012403E008F1FF3806FB04F4B8F1010FF5
:10C16000F8D8BAFBF4F29642F6D9DFF8DC904FF03B
:10C170000D0810E02968421CAA600B54AA686B687D
:10C180009A4202D32846FFF7A7FFB4FBF6F4C4B1E6
:10C19000BAFBF4F2A86819F802300A2B04FB12AAC1
:10C1A000E8D12968421CAA6001F80080A8686A6882
:10C1B0009042DFD328460193FFF78EFFA868019BCA
:10C1C000D8E7009BB3B1BBF1000F13D0BB4588BFCC
:10C1D00020240FD9AB682A68591CA960D454AA68D6
:10C1E0006B689A420BF1FF3B07D2BBF1000F01D005
:10C1F000BB45EFD103B0BDE8F08F2846FFF76CFFD9
:10C20000F3E7930718D42024BB45A0D9A8682A686F
:10C21000431CAB601454A8686A6890420BF1FF3B62
:10C2200005D2BBF1000F93D0BB45F0D190E7284673
:10C23000FFF752FFA868F4E7B8F1000F0CBF3024F5
:10C240002024E1E7012778E730EC0300002900F023
:10C25000B9822DE9F04FDFF870A50D7885B006465C
:10C2600091460C460134002D00F0A080252D40F0B1
:10C27000A2814FF00008214614F8012B2D2A00F06E
:10C280009481302A00F094812B2A00F086812A2A9A
:10C2900000F0A181A2F13005EBB2092B98BF01316A
:10C2A00002D9CAE1A3F130050C4611F8012BA2F125
:10C2B000300005EB8503092802EB4303F2D92E2A4F
:10C2C00000F09581002701E014F8012F02F0FB0334
:10C2D000682BF9D0253A532A63D8DFE812F04001E1
:10C2E000620062006200620062006200620062003E
:10C2F000620062006200620062006200620062002E
:10C30000620062006200620062006200620062001D
:10C31000620062006200620062006200620062000D
:10C3200062006200620062006200620062006200FD
:10C3300062006200620062006200620062006200ED
:10C34000620062004F0162006200620062006200EF
:10C35000620062006200620062002901D100620096
:10C36000620062006200D10062006200620062004E
:10C3700062006200AC00620062006E006200540065
:10C38000620062004F01D9F800301A1DC9F8002080
:10C390001968CDF804803B4600950A223046FFF725
:10C3A000B7FE01342578002D7FF45CAF337B002B82
:10C3B00040F0BD8105B0BDE8F08FD9F800301A1DFE
:10C3C000C9F8002018F0010F1F6840F03981002FD4
:10C3D00000F0D881384612F0FBF98046454515D962
:10C3E000A5B14FF0200B00E085B1B2683368511C55
:10C3F000B16003F802B0B26873689A4205F1FF3584
:10C4000002D33046FFF768FE4545EDD1013F17F8EE
:10C41000015F002DC5D00A2DB36800F07881326825
:10C42000591CB160D554B26873689A42EFD3304654
:10C43000FFF752FEEBE7D9F80020131DC9F80030D2
:10C44000B36831681568581C3022B060CA54B368AC
:10C450007268934280F027813268581C7821B0605E
:10C46000D154B26873689A4280F022810022082376
:10C4700001922946009310223046FFF749FE90E7CB
:10C48000D9F800301A1DC9F80020D3F800B08BEAA3
:10C49000EB73A3EBEB73092B4FF0010108DD8AFB73
:10C4A0000302DB17C3EBA203092B01F10101F6DC48
:10C4B000B94238BF39462DB3BBF1000F02DB18F08B
:10C4C000040F00D0013D18F0020F00D0D7B118F0D2
:10C4D000010F17D1002D00F04981A94238BF202358
:10C4E00010D2B268501CB06030688354B268706873
:10C4F000824205F1FF3580F03B81002D00F036814E
:10C50000A942EED1BBF1000FC0F23E8118F0040F3A
:10C5100040F0138108F00303022B00F0CD808DE87A
:10C5200020013B4659460A223046FFF7F1FD38E725
:10C53000D9F800301A1DC9F800201D78B3680A2DFB
:10C5400000F030813268591CB160D554B26873680C
:10C550009A42FFF426AF3046FFF7BEFD21E7B368ED
:10C560003268581C2521B060D154B26873689A4271
:10C57000FFF417AF3046FFF7AFFD12E7D9F80030F0
:10C580001A1DC9F800201968CDF804803B460095B3
:10C5900010223046FFF7BCFD03E7214614F8012BBB
:10C5A0002D2A48F004087FF46CAE48F0010862E6DA
:10C5B00048F002085FE60A2DB3682FD03268591C94
:10C5C000B160D554B26873689A42FFF4EBAE30465E
:10C5D000FFF782FDE6E6D9F800301A1DC9F8002001
:10C5E0004A781D682E2A01F101047FF46BAE62784F
:10C5F000A2F13003092B04F101044FF000073FF6CC
:10C6000065AE07EB870702EB470714F8012FA2F18D
:10C610003003092BA7F13007F3D957E6591C3268CC
:10C62000B1604FF00D01D154B36872689342C5D325
:10C630003046FFF751FDB368C0E70C4600253EE6E3
:10C64000B846A8EB070B18F8013B9BB10A2BB16861
:10C650004CD03268481CB0605354B26873689A4238
:10C66000EFD33046FFF738FDA8EB070B18F8013B76
:10C67000002BEBD15D457FF694AE202702E0002D24
:10C680003FF48FAEB2683368511CB1609F54B268FA
:10C6900073689A4205F1FF3502D33046FFF71CFD5F
:10C6A0005D45ECD17DE63046FFF716FDB368D3E675
:10C6B0003046FFF711FDD9E6002F7FF430AF002D93
:10C6C0005ED0A94238BF3023BFF429AFB268501CF6
:10C6D000B06030688354B2687068824205F1FF35FB
:10C6E0003CD2002D4CD0A942F0D118E7481C32684A
:10C6F000B0604FF00D005054B16872689142A8D3F9
:10C7000030460293FFF7E8FCB168029BA1E7591C91
:10C710003268B1604FF00D01D154B3687268934232
:10C72000FFF47DAE3046FFF7D7FCB36877E63046BE
:10C7300005B0BDE8F04FFFF7CFBCB268531CB36043
:10C7400033682B209854B26873689A42FFF4E2AEC3
:10C7500030460291FFF7C0FC0299DBE630460393B6
:10C760000291FFF7B9FC039B0299BAE70025C9E6DD
:10C77000304603930291FFF7AFFC039B0299BCE69E
:10C780000025CCE6B84629E6B268531CB36033688E
:10C790002D209854B26873689A42CBF1000BFFF4D5
:10C7A000B9AED5E7591C3268B1604FF00D01D154D4
:10C7B000B36872689342FFF4C5AE3046FFF78CFC55
:10C7C000B368BFE6704700BF6766666610B582B0A3
:10C7D000C0B131B101600B68114602B0BDE8104034
:10C7E00018470B480B4C0C4B0C4A0D49001BC0085A
:10C7F0000E24000440F00100009401F0BFFA0E2066
:10C8000002B010BD0248034C034B064AEDE700BFDF
:10C8100010410400A040040040EC030028ED030098
:10C82000FCEC0300F4EC03002DE9F04383B0DDF8E9
:10C83000288000283FD01646002A4ED0D0F800E0CD
:10C84000BEF1000F4ED01C46F3B14768D7F80490F4
:10C85000B3FBF9F709FB173747BB11F0030F51D1B1
:10C86000B60766D1C668B1425ED301F1FF3C0569E7
:10C870006444AC4258D8CDF82880DEF80C40A44679
:10C8800003B0BDE8F04360472C482D4C2D4B2E4A99
:10C890002E49001BC0080924000440F00100009448
:10C8A00001F06CFA204603B0BDE8F0832348244C25
:10C8B000244B274AECE72148214C224B254A2349A7
:10C8C000001BC0080E24000440F00100009401F099
:10C8D00055FA204603B0BDE8F0831848184C194BB0
:10C8E0001D4AECE7164C1548164B1C4A1749001B0D
:10C8F000C0080824000440F00100009401F03EFA52
:10C900002046D0E70D480E4C0E4B154A0F49001B30
:10C91000C0081024000440F00100009401F02EFA39
:10C92000204603B0BDE8F0830448054C054B0D4A92
:10C93000ECE70248024C034B0B4AE7E710410400C6
:10C94000A040040054EC030038ED0300FCEC0300AD
:10C9500090ED0300F4EC030088ED03007CED030090
:10C96000BCED0300F8ED0300D4ED0300F0B583B097
:10C97000002843D0D0F800E0BEF1000F4FD0B2B194
:10C980004768D7F800C00CF1FF370F4231D1C768B4
:10C99000B9421DD34E1E04690CFB0265A54217D88F
:10C9A000DEF81040A44603B0BDE8F0406047244CD8
:10C9B0002448254B254A2649001BC00809240004A9
:10C9C00040F00100009401F0D9F9204603B0F0BD19
:10C9D0001C481B4C1C4B1F4A1D49001BC00810243F
:10C9E000000440F00100009401F0C8F9204603B0B3
:10C9F000F0BD1448124C144B174AEDE7104C114887
:10CA0000114B164A1249001BC0080E24000440F0C6
:10CA10000100009401F0B2F9204603B0F0BD084CCB
:10CA20000848094B0E4A0A49001BC00808240004A4
:10CA300040F00100009401F0A1F9204603B0F0BDE0
:10CA4000A04004001041040068EC030038ED03002E
:10CA5000FCEC0300A4EC03007CEC0300F4EC03000A
:10CA60007CED030029DF704728DF704708467047D8
:10CA700000207047024B187A003018BF0120704721
:10CA80006C330020034B187A0122B0FA80F05A74FC
:10CA9000400970476C33002008B510461A4611F063
:10CAA0006AFE002008BD00BF08B51422002104481A
:10CAB00011F086FE0348FFF717F9002008BD00BFFC
:10CAC0006C3300205C33002010B5094C094B4360E7
:10CAD0002046FFF777FA40B902F058FC1C23207477
