:020000040800F2
:1000000000000320412B0008F11C0008FF1C000821
:10001000051D00080B1D0008111D00080000000050
:10002000000000000000000000000000171D000894
:10003000251D000800000000331D0008411D0008B8
:10004000952B0008952B0008952B00084D1D0008E6
:10005000952B0008952B0008DB1D0008E91D000802
:10006000952B0008952B0008CD1D0008952B000846
:10007000952B0008952B0008591D0008952B0008AA
:10008000952B0008952B0008952B0008952B000850
:10009000952B0008952B0008952B0008952B000840
:1000A000952B0008952B0008952B0008952B000830
:1000B000952B0008952B0008952B0008952B000820
:1000C000952B0008952B0008952B0008952B000810
:1000D0006D1D0008811D0008952B0008952B000858
:1000E000952B0008952B0008952B0008952B0008F0
:1000F000951D0008A11D0008AD1D0008952B0008E6
:10010000952B0008952B0008952B0008952B0008CF
:10011000952B0008952B0008952B0008952B0008BF
:10012000952B0008952B0008B91D0008952B000899
:0C013000952B0008952B0008952B00086B
:10013C0010B5054C237833B9044B13B10448AFF315
:10014C0000800123237010BDC401002000000000BA
:10015C005C89000808B5034B1BB103490348AFF396
:10016C00008008BD00000000C80100205C89000868
:10017C00034613F8012B002AFBD1181A01387047DB
:10018C0080B483B000AF7860064BD3F8902005495B
:10019C007B681343C1F8903000BF0C37BD465DF847
:1001AC00047B70470008005880B485B000AF7860BD
:1001BC004FF0B043DA6C4FF0B0417B681343CB6423
:1001CC004FF0B043DA6C7B681340FB60FB6800BFF8
:1001DC001437BD465DF8047B704780B485B000AF22
:1001EC0078604FF0B043D3F84C214FF0B0417B68AE
:1001FC001343C1F84C314FF0B043D3F84C217B681A
:10020C001340FB60FB6800BF1437BD465DF8047BF0
:10021C00704780B500AF02F0B7FE02F0BBFE4FF4A2
:10022C008030FFF7ADFF00F021F800F0C3F800BFFD
:10023C0080BD0000B0B588B000AF0B4B3C1D1D4617
:10024C000FCD0FC495E8070003C422800234130CB1
:10025C00237008F047F83B1D184607F09CFA00BFC6
:10026C002037BD46B0BD00BF7489000880B588B08A
:10027C0000AF3B1D00221A605A609A60DA601A6166
:10028C000023BB8300237B8300233B830023FB776A
:10029C0038E0FB7F444ADB0013449B79002B2BD0C6
:1002AC00FB7F414A52F83330404A93421BD03F4ABD
:1002BC00934223D8B3F1904F03D03D4A934209D0D7
:1002CC001CE0FB7F384ADB0013449A88BB8B13433A
:1002DC00BB8314E0FB7F344ADB0013449A887B8B8E
:1002EC0013437B830BE0FB7F2F4ADB0013449A887C
:1002FC003B8B13433B8302E000BF00E000BFFB7F5E
:10030C000133FB77FB7F252BC3D90023FB60012333
:10031C00BB6003233B61BB8B002B14D0BB8B7B607E
:10032C000120FFF741FF0120FFF757FF3B1D194646
:10033C004FF0904003F03AF9BB8B002219464FF076
:10034C00904003F0A3FA7B8B002B12D07B8B7B604D
:10035C000220FFF729FF0220FFF73FFF3B1D194644
:10036C00134803F023F97B8B00221946104803F045
:10037C008DFA3B8B002B13D03B8B7B600420FFF75B
:10038C0013FF0420FFF729FF3B1D1946074803F014
:10039C000DF93B8B00221946044803F077FA00BF95
:1003AC0000BF2037BD4680BDF88900080008004812
:1003BC000004004880B400AF00BFBD465DF8047B6C
:1003CC007047000080B483B000AF7860074BD3F85F
:1003DC00803023F0070205497B681343C1F8803055
:1003EC0000BF0C37BD465DF8047B70470004005815
:1003FC0080B483B000AF7860064BD3F890200549E9
:10040C007B681343C1F8903000BF0C37BD465DF8D4
:10041C00047B70470008005880B483B000AF78604C
:10042C004FF0B0430A4AC3F89C204FF0B043D3F8C6
:10043C009C3023F47C527B681B024FF0B041134379
:10044C00C1F89C3000BF0C37BD465DF8047B70478B
:10045C00FECAFECA80B483B000AF78604FF0B043E0
:10046C009B6823F400424FF0B0417B6813438B60D0
:10047C0000BF0C37BD465DF8047B704780B400AFFD
:10048C004FF0B043D3F890304FF0B04243F4803388
:10049C00C2F8903000BFBD465DF8047B704780B455
:1004AC0000AF4FF0B043D3F890304FF0B04223F48C
:1004BC008033C2F8903000BFBD465DF8047B7047B6
:1004CC0080B400AF4FF0B043D3F8943003F08063A6
:1004DC00B3F1806F01D1012300E000231846BD4623
:1004EC005DF8047B704780B400AF4FF0B043D3F895
:1004FC00943003F08053B3F1805F01D1012300E00D
:10050C0000231846BD465DF8047B704780B485B067
:10051C0000AF78604FF0B0431A6D4FF0B0417B687C
:10052C0013430B654FF0B0431A6D7B681340FB60AF
:10053C00FB6800BF1437BD465DF8047B70470000B4
:10054C0080B400AF044B1B681B0C9BB21846BD4615
:10055C005DF8047B704700BF002004E080B483B0DA
:10056C0000AF786039607B685A683B681B041A439B
:10057C007B685A6000BF0C37BD465DF8047B704742
:10058C0080B483B000AF786039607B685A683B6890
:10059C001A437B685A6000BF0C37BD465DF8047B7C
:1005AC00704780B483B000AF786039607B685A695B
:1005BC003B681B041A437B685A6100BF0C37BD466D
:1005CC005DF8047B704780B483B000AF786039600D
:1005DC007B685A693B681A437B685A6100BF0C37C9
:1005EC00BD465DF8047B704780B483B000AF786083
:1005FC0039607B683A689A6000BF0C37BD465DF87D
:10060C00047B704780B483B000AF786039607B683E
:10061C003A689A6100BF0C37BD465DF8047B7047A1
:10062C0080B400AF054B1B69044A23F0040313612B
:10063C0000BFBD465DF8047B704700BF00ED00E0D5
:10064C0080B483B000AF78607B68FF225A6200BF31
:10065C000C37BD465DF8047B704780B483B000AFA7
:10066C0078607B68CA225A627B6853225A6200BF48
:10067C000C37BD465DF8047B704780B483B000AF87
:10068C00786039607B689B6823F007023B681A43EB
:10069C007B689A6000BF0C37BD465DF8047B7047E1
:1006AC0080B500AF044B4FF400421A6100F02EF8F5
:1006BC0000F06EF800BF80BD0040005880B500AF60
:1006CC0000F07AF800F092F80849002000F02CFEB7
:1006DC00FFF79FFD0121012007F0A2FE00F059F960
:1006EC0000F067F900F090F800BF80BDC80400204E
:1006FC0080B400AF00BFBD465DF8047B704780B589
:10070C0000AF0020FFF774FE00BF80BD80B500AFC6
:10071C0000F004F800F01AF800BF80BD80B500AFFF
:10072C00FFF7CEFE0346002B0DD0FFF7DCFE034691
:10073C00002B08D103F084F903F082F9FFF79EFE39
:10074C00FFF7ADFE00BF00BF80BD000080B500AF5D
:10075C004FF48010FFF7DAFE3F210C48FFF744FFFF
:10076C003F210A48FFF74EFF3F210848FFF7F6FEEE
:10077C003F210648FFF715FF3F210448FFF700FF14
:10078C003F210248FFF71FFF00BF80BD000C00583F
:10079C0080B582B000AF002006F098FE78607B68D0
:1007AC00002B05D07B689B791846FFF735FE00BF00
:1007BC0000BF0837BD4680BD80B500AFFFF798FF7E
:1007CC00FFF79DFF00F002F800BF80BD80B500AFC1
:1007DC000548FFF742FF00210348FFF74EFF024890
:1007EC00FFF72EFF00BF80BD0028004080B500AF92
:1007FC004FF40040FFF72EFE07F000FE0420FFF739
:10080C00E1FD00BF80BD000080B588B000AF07F0EF
:10081C00B3FB114A0021202007F01CFF0F4B3B605B
:10082C000F4B7B603B4619460E4807F08FF80E4B7A
:10083C00BB600E4BFB600E4B3B6140F23C537B614B
:10084C0007F10803184607F0D9FC07F08FFB00BF2F
:10085C002037BD4680BD00BF9179000824070320D6
:10086C0081080008990800083C090320300803207F
:10087C00E801032080B483B000AF0346FB7100BFD6
:10088C000C37BD465DF8047B7047000080B588B01E
:10089C0000AF78607B685B680B33FB6107F10C037E
:1008AC00184606F0A5FFFB691B889BB2A3F5124303
:1008BC00072B1BD801A252F823F000BFE90800084F
:1008CC00F1080008F9080008F9080008F908000800
:1008DC00F9080008F9080008F9080008786800F021
:1008EC001CF804E0786800F007F800E000BF00BFD7
:1008FC002037BD4680BD00BF80B485B000AF7860A6
:10090C007B685B680B33FB60FB680233BB6000BF2A
:10091C001437BD465DF8047B704780B58AB000AFD4
:10092C00786007F10C0300221A605A609A609A8171
:10093C0000237B627B685B680B333B623B6A023350
:10094C00FB61FB691B78002B17D1FFF773FC0D23A0
:10095C003B737F23BB73FFF7F3FD78627B6A9BB21B
:10096C003B8307F10C03184606F02CFF01F062FAEA
:10097C000021012007F054FD07E0FB691B78012BD7
:10098C0003D17B6800221A7000BF00BF2837BD4618
:10099C0080BD80B500AF002002F010F9012002F0FC
:1009AC000DF9022002F00AF9012002F041F900BF12
:1009BC0080BD80B500AF0121002002F06DF901214E
:1009CC00012002F069F90121022002F065F900BF53
:1009DC0080BD80B584B000AF786002F0B1FAB86029
:1009EC007B68FB60FB68B3F1FF3F0AD002F0C0FAF2
:1009FC0003461A46FB681344FB6002E0FFF710FE47
:100A0C0030BF02F09DFA0246BB68D31AFA689A42CC
:100A1C00F4D800BF00BF1037BD4680BD80B500AF15
:100A2C004FF0FF3007F02CFD00BF80BD80B400AF4D
:100A3C0000BFBD465DF8047B704780B582B000AF47
:100A4C00786039604FF0FF3007F01AFD00BF0837AF
:100A5C00BD4680BD80B582B000AF786000212020FB
:100A6C0007F01AFE00BF0837BD4680BD80B582B0C6
:100A7C0000AF7860022007F07BFE00BF0837BD4650
:100A8C0080BD80B582B000AF7860022007F090FE88
:100A9C0000BF0837BD4680BD80B582B000AF0346AD
:100AAC00FB80FB88102B06D0102B0DDC012B05D006
:100ABC00022B06D008E001F00FFB06E001F012FB60
:100ACC0003E001F016FB00E000BF00BF0837BD4695
:100ADC0080BD000080B483B000AF7860064BD3F8C3
:100AEC00802005497B681343C1F8803000BF0C3768
:100AFC00BD465DF8047B70470008005880B483B095
:100B0C0000AF7860054B1A6804497B6813430B608F
:100B1C0000BF0C37BD465DF8047B704700080058D9
:100B2C0080B483B000AF0D4B9B6A9BB27B600B4BC8
:100B3C009B6A9BB23B6005E03B687B60074B9B6A02
:100B4C009BB23B607A683B689A42F5D13B68184689
:100B5C000C37BD465DF8047B704700BF0028004091
:100B6C0080B485B000AF03460A46FB711346BB71D7
:100B7C00BA791D4913465B001344DB000B44153353
:100B8C001B78FB73FB7B062B09D0FA7B16491346AB
:100B9C005B001344DB000B441433FA791A70FA79B6
:100BAC00114913465B001344DB000B441533FA7BED
:100BBC001A70FA790C4913465B001344DB000B44A2
:100BCC001433BA791A70BA79074913465B00134487
:100BDC00DB000B441533FA791A7000BF1437BD468D
:100BEC005DF8047B704700BF4400002080B485B0E2
:100BFC0000AF03460A46FB711346BB71294B1B78A9
:100C0C00DBB2BA799A4232D0BA79274913465B00E3
:100C1C001344DB000B4414331B78FB73FA7B22491F
:100C2C0013465B001344DB000B441533FA791A703E
:100C3C00FA791D4913465B001344DB000B44153352
:100C4C00BA791A70FA79184913465B001344DB0021
:100C5C000B441433FA7B1A70BA79134913465B00B0
:100C6C001344DB000B441433FA791A7014E0FA794C
:100C7C000D4913465B001344DB000B441533BA7962
:100C8C001A70BA79084913465B001344DB000B4415
:100C9C001433FA791A7000BF1437BD465DF8047B23
:100CAC00704700BFD40000204400002080B584B001
:100CBC0000AF0346FB714E4B1B78DBB2062B18D1F1
:100CCC004B4B1B78DAB24B4B1A70494AFB791370B9
:100CDC00FA79494913465B001344DB000B44153386
:100CEC0006221A70454B4FF0FF321A600023FB812D
:100CFC0078E000F009F90346FB81FA793E49134686
:100D0C005B001344DB000B4408331968FB89FA7948
:100D1C001944394813465B001344DB000344083381
:100D2C001960FA79344913465B001344DB000B4419
:100D3C0008331B68BB602E4B1B78DBB219462E4A5E
:100D4C000B465B000B44DB00134408331B68BA688A
:100D5C009A4237D3264B1B787B737A7B26491346F2
:100D6C005B001344DB000B4415331B783B7313E01F
:100D7C007A7B214913465B001344DB000B4415338B
:100D8C001B787B737A7B1C4913465B001344DB0096
:100D9C000B4415331B783B733B7B062B0BD03A7BF8
:100DAC00154913465B001344DB000B4408331B68E6
:100DBC00BA689A42DCD27A7BFB7911461846FFF767
:100DCC00CFFE0FE00A4B1B78DAB2FB7911461846BE
:100DDC00FFF70CFF064B1B78DAB2064B1A70044A6D
:100DEC00FB791370FB8918461037BD4680BD00BFD8
:100DFC00D4000020D500002044000020D8000020A2
:100E0C0080B485B000AF03460A46FB711346BB7134
:100E1C00394B1B78DBB2FA799A4211D1364B1B78DD
:100E2C00DAB2364B1A70FA79354913465B00134423
:100E3C00DB000B4415331B78DAB22F4B1A703EE0F3
:100E4C00FA792F4913465B001344DB000B4414332F
:100E5C001B78FB73FA792A4913465B001344DB00B9
:100E6C000B4415331B78BB73F979FA7B24480B467A
:100E7C005B000B44DB00034415331B78D8B22049CC
:100E8C0013465B001344DB000B44153302461A7007
:100E9C00BB7B062B13D0F979BA7B19480B465B0048
:100EAC000B44DB00034414331B78D8B214491346AB
:100EBC005B001344DB000B44143302461A70FA79BE
:100ECC000F4913465B001344DB000B440C33012227
:100EDC001A70094B1B78DBB2062B07D1BB79002BA0
:100EEC0004D1084B4FF0FF321A6000BF00BF14371B
:100EFC00BD465DF8047B7047D4000020D50000206F
:100F0C0044000020D800002080B582B000AF1A4BFE
:100F1C001B68B3F1FF3F26D0FFF702FE7860164B3B
:100F2C001B687A689A4205D8134B1A687B68D31AE7
:100F3C007B600AE0114B1B881A467B68D31A3B6016
:100F4C000D4B1B683A6813447B600D4B1B781A469B
:100F5C007B6802FB03F37B600A4B1B781A467B68A9
:100F6C00D3407B6001E000237B607B689BB218461A
:100F7C000837BD4680BD00BFD8000020E601002028
:100F8C00E5010020E401002080B582B000AF0346EB
:100F9C00FB80FB88002B08D1FFF7C2FD0346244AD7
:100FAC001360032002F079F93EE0FB88012B03D893
:100FBC00204B1B78012B02D0FB88013BFB8000BF30
:100FCC001D4B1B681B68DB6803F00403002BF7D078
:100FDC00194B1B681B68DB68DAB2174B1B681B6864
:100FEC0062F49062DA60154B4FF40022DA60032051
:100FFC0002F061F9124B5B691B0C1B04FA88104957
:10100C0013434B61FFF78CFD0346094A13600A4BEF
:10101C001B681B689A68084B1B681B6842F480624B
:10102C009A60AFF3008000BF0837BD4680BD00BF9B
:10103C00D8000020E4010020E00100200008005846
:10104C000028004080B584B000AF474B9B6803F488
:10105C008063B3F5806F08D100BF444B1B681B68DD
:10106C00DB6803F00403002BF7D1404B1B681B68B3
:10107C009A683E4B1B681B6822F480629A603C4B5A
:10108C001B78FB73FA7B3B4913465B001344DB0074
:10109C000B4408331B68BB60FFF736FF0346FB802D
:1010AC00FB88BA689A4205D20023BB81324B0122DD
:1010BC001A704DE0FB88314A128892B213441A46DA
:1010CC00BB68934206D92D4B1B88BB812A4B00224F
:1010DC001A703DE0BB689AB2FB88D31ABB81264BD1
:1010EC0001221A7034E0FA7B224913465B00134448
:1010FC00DB000B4408331A68FB889A420AD2FA7B4D
:10110C001C4913465B001344DB000B4408330022DC
:10111C001A6013E0FA7B174913465B001344DB009B
:10112C000B4408331968FB88FA7BC91A114813461B
:10113C005B001344DB00034408331960FA7B0D4950
:10114C0013465B001344DB000B4415331B78FB7315
:10115C00FB7B062BC7D1BB891846FFF715FF00BFD9
:10116C001037BD4680BD00BF00280040E0010020C4
:10117C00D400002044000020DC000020E801002006
:10118C0080B58AB000AFEFF310837B617B697B6223
:10119C0072B600BF5F4B1B681B68CA225A625D4B5C
:1011AC001B681B6853225A625A4B1B681B689A684F
:1011BC00584B1B681B6822F480629A60564B1B7854
:1011CC0087F8233097F82320544913465B001344C7
:1011DC00DB000B440C331B78DBB2022B72D197F87B
:1011EC0023204E4913465B001344DB000B441B6861
:1011FC00FB6197F82320494913465B001344DB003D
:10120C000B4410331B68BB61454B1B78DBB2002BC6
:10121C0050D097F82320414913465B001344DB0060
:10122C000B440D331B78DBB2012B26D197F82330FE
:10123C0001211846FFF7E4FD7B6A3B613B6983F3B0
:10124C00108800BF97F82320344913465B001344E1
:10125C00DB000B4404331A6897F823301146184608
:10126C0000F04EFA2B4B1B681B68CA225A62294BA2
:10127C001B681B6853225A6214E07B6AFB60FB6894
:10128C0083F3108800BF97F82330184600F0ACF9B0
:10129C00204B1B681B68CA225A621E4B1B681B68BA
:1012AC0053225A6297F82330FA691946B86900F04C
:1012BC00AFFA25E0FFF7C6FE7B6ABB60BB6883F321
:1012CC0010881DE000BF134B1B681B68DB6803F024
:1012DC000403002BF7D00F4B1B681B68DB68DAB2DA
:1012EC000C4B1B681B6862F49062DA600D4B4FF478
:1012FC000022DA607B6A7B607B6883F3108800BF16
:10130C00044B1B681B68FF225A6200BF2837BD467E
:10131C0080BD00BFE0010020D4000020440000206C
:10132C00DC0000200008005880B588B000AF0346F0
:10133C003960FB71644A3B681360634B1B681B6824
:10134C00CA225A62604B1B681B6853225A625F4B5D
:10135C009B685E4A43F0200393605C4B9B68DBB256
:10136C0003F00703DBB2C3F10403DAB2584B1A7073
:10137C00564B1B6903F4FE034FF4FE023A613A69C3
:10138C0092FAA2F2FA60FA687A617A69002A01D1BB
:10139C00202203E07A69B2FA82F2D2B2D340DBB2F5
:1013AC000133DAB24B4B1A70484B1B699BB2C3F337
:1013BC000E039BB201339AB2474B1A80464B1B88E3
:1013CC00013B444A127802FB03F3A3F5A073404A95
:1013DC001278D340BB61BB694FF6FE72934204D9BD
:1013EC003E4B4FF6FF721A8003E0BB699AB23B4B3F
:1013FC001A804FF40020FFF781FB4FF40020FFF719
:10140C0069FBFB79002B43D1354B01221A70354B0C
:10141C004FF0FF321A600023FB770CE0FA7F324961
:10142C0013465B001344DB000B440C3300221A7090
:10143C00FB7F0133FB77FB7F052BEFD92B4B062270
:10144C001A70214B1B681B689A681F4B1B681B6822
:10145C0022F480629A601C4B1B681B68DB68DAB252
:10146C00194B1B681B6862F49062DA60204B4FF4D6
:10147C000022DA60032001F01EFF134B1B681B686F
:10148C009A68114B1B681B6842F480429A600AE010
:10149C000D4B1B681B68DB6803F48063002B02D0C8
:1014AC00032001F0FAFE084B1B681B68FF225A62EE
:1014BC0000220321032001F0AEFE032001F0C5FE43
:1014CC0000BF2037BD4680BDE00100200028004051
:1014DC00E4010020E5010020E6010020E8010020E5
:1014EC00DC000020D800002044000020D4000020A4
:1014FC000008005880B48BB000AFF860B9603B6056
:10150C001346FB71002387F82630EFF31083FB6141
:10151C00FB693B6272B600BF04E097F826300133DA
:10152C0087F8263097F82630052B0CD897F826200C
:10153C002C4913465B001344DB000B440C331B7823
:10154C00DBB2002BE9D197F82630062B38D097F870
:10155C002620244913465B001344DB000B440C3358
:10156C0001221A703B6ABB61BB6983F3108800BF10
:10157C0097F826201B4913465B001344DB000B44F1
:10158C001033FA681A6097F82620164913465B0048
:10159C001344DB000B440D33FA791A7097F82620AC
:1015AC00104913465B001344DB000B443A681A6085
:1015BC00BB6897F826201A70002387F8273008E0BC
:1015CC003B6A7B617B6983F3108800BF012387F83A
:1015DC00273097F8273018462C37BD465DF8047B2A
:1015EC00704700BF4400002080B586B000AF0346B2
:1015FC00FB71EFF31083FB60FB687B6172B600BF7D
:10160C00032001F030FE384B1B681B68CA225A625B
:10161C00354B1B681B6853225A62FA7933491346BF
:10162C005B001344DB000B440C331B78DBB2022B46
:10163C0048D1FB7900211846FFF7E2FB2C4B1B78B5
:10164C00FB74FB7C062B35D12A4B9B6803F480631F
:10165C00B3F5806F08D100BF234B1B681B68DB6898
:10166C0003F00403002BF7D11F4B1B681B689A680F
:10167C001D4B1B681B6822F480629A6000BF1A4BDA
:10168C001B681B68DB6803F00403002BF7D0164BB8
:10169C001B681B68DB68DAB2134B1B681B6862F4AF
:1016AC009062DA60144B4FF40022DA60032001F0F0
:1016BC0002FE07E0114B1B78DBB2FA7C9A4201D098
:1016CC00FFF7C0FC084B1B681B68FF225A62032003
:1016DC0001F0BBFD7B69BB60BB6883F3108800BF66
:1016EC0000BF1837BD4680BDE0010020440000203B
:1016FC00D40000200028004000080058D50000202D
:10170C0080B586B000AF03463960FB71FA793C496D
:10171C0013465B001344DB000B440C331B78DBB229
:10172C00022B03D1FB791846FFF75EFFEFF3108312
:10173C00FB60FB687B6172B600BF032001F093FD78
:10174C00304B1B681B68CA225A622E4B1B681B68E5
:10175C0053225A62FA792A4913465B001344DB0080
:10176C000B440C3302221A70FA79254913465B009C
:10177C001344DB000B4408333A681A60FA792049A9
:10178C0013465B001344DB000B4404333A681A60C5
:10179C00FB791846FFF78AFA03467B821A4B1B78B3
:1017AC007B741A4B1B78DBB27A7C9A4202D0FFF71F
:1017BC0049FC13E0FA79124913465B001344DB0031
:1017CC000B44083319687B8AFA79C91A0C481346FA
:1017DC005B001344DB00034408331960094B1B689E
:1017EC001B68FF225A62032001F02FFD7B69BB604E
:1017FC00BB6883F3108800BF00BF1837BD4680BD9F
:10180C0044000020E0010020D4000020D50000207E
:10181C0080B584B000AFF8600B467A60FB727B68D1
:10182C00984700BF1037BD4680BD80B483B000AF71
:10183C00786000BF00BF0C37BD465DF8047B704775
:10184C0080B483B000AF78604FF0B043D3F89030E1
:10185C0023F018024FF0B0417B681343C1F890306D
:10186C0000BF0C37BD465DF8047B704780B485B073
:10187C0000AF78604FF0B0439A6C4FF0B0417B688A
:10188C0013438B644FF0B0439A6C7B681340FB603E
:10189C00FB6800BF1437BD465DF8047B704780B40D
:1018AC0085B000AF78604FF0B043DA6C4FF0B041C8
:1018BC007B681343CB644FF0B043DA6C7B68134006
:1018CC00FB60FB6800BF1437BD465DF8047B7047B6
:1018DC0080B500AF01F0C6FAFEF7E2FE00F014F896
:1018EC0000F070F800F08EF800F00FF900F0F0F84E
:1018FC0000F09CF800F0B8F800F0A0F8FEF7DEFE5F
:10190C00FFF78CF8FCE7000080B59AB000AF07F148
:10191C00200348220021184607F012F83B1D002234
:10192C001A605A609A60DA601A615A619A6102F020
:10193C0087F80020FFF784FF214B1B6823F4C0635A
:10194C001F4A43F4007313601D4B1B6803F4C06300
:10195C003B603B6847233B624FF480337B6201233F
:10196C00BB624FF48073FB620123BB6440233B6377
:10197C000023FB6407F12003184602F0DDFB03464D
:10198C00002B01D000F0CEF86F237B600223BB60EC
:10199C000023FB6000233B6100237B610023BB61C0
:1019AC000023FB613B1D0121184602F051FF034649
:1019BC00002B01D000F0B6F800BF6837BD4680BDE3
:1019CC000004005880B594B000AF3B465022002173
:1019DC00184606F0B5FF4FF440533B604FF480437C
:1019EC007B640223BB641023FB643B46184603F064
:1019FC0044FB0346002B01D000F094F800BF503795
:101A0C00BD4680BD80B500AF064B074A1A6005483D
:101A1C0001F090FF0346002B01D000F083F800BFCB
:101A2C0080BD00BF0C030020000C005880B400AF38
:101A3C0000BFBD465DF8047B7047000080B500AF69
:101A4C00074B084A1A60064B00225A60044803F000
:101A5C009BFD0346002B01D000F064F800BF80BD55
:101A6C004C0500200010005880B500AF164B174AEB
:101A7C001A60154B00225A60134B0F229A60124BBE
:101A8C0047F6FF72DA60104B00221A610E4B0022EF
:101A9C009A610D4B0022DA610B4B00225A610A4805
:101AAC0003F0A7FD0346002B01D000F03BF8002209
:101ABC000021054803F08CFE0346002B01D000F0FA
:101ACC0031F800BF80BD00BFC804002000280040D2
:101ADC0080B500AF0420FFF7C9FE0120FFF7C6FE5A
:101AEC000220FFF7C3FE00220F210E2001F093FB12
:101AFC000E2001F0AAFB00220F213A2001F08BFBF3
:101B0C003A2001F0A2FB00BF80BD80B500AF0420DD
:101B1C00FFF7C5FE0120FFF7C2FE0220FFF7BFFE54
:101B2C0000BF80BD80B400AF00BFBD465DF8047B34
:101B3C00704780B400AF4FF0B043D3F890304FF003
:101B4C00B04243F40043C2F8903000BFBD465DF88C
:101B5C00047B704780B485B000AF78604FF0B04321
:101B6C001A6D4FF0B0417B6813430B654FF0B043D7
:101B7C001A6D7B681340FB60FB6800BF1437BD46D1
:101B8C005DF8047B704780B485B000AF78604FF08F
:101B9C00B0439A6D4FF0B0417B6813438B654FF0A7
:101BAC00B0439A6D7B681340FB60FB6800BF143731
:101BBC00BD465DF8047B704780B500AF4FF4002044
:101BCC00FFF7C8FF002200212E2001F024FB2E205D
:101BDC0001F03BFB00BF80BD80B582B000AF7860E8
:101BEC007B681B680D4A934213D14FF48010FFF7AA
:101BFC00B1FF002200212C2001F00DFB2C2001F064
:101C0C0024FB002200212D2001F005FB2D2001F0EA
:101C1C001CFB00BF0837BD4680BD00BF000C005840
:101C2C0080B596B000AF786007F108035022002110
:101C3C00184606F085FE7B681B680D4A934213D14B
:101C4C004FF40073BB604FF080533B6407F1080303
:101C5C00184603F012FA0346002B01D0FFF762FF7F
:101C6C004FF48020FFF776FF00BF5837BD4680BD8C
:101C7C000010005880B596B000AF786007F10803EB
:101C8C0050220021184606F05BFE7B681B68144A44
:101C9C00934220D14FF40063BB604FF48073BB645C
:101CAC0007F10803184603F0E8F90346002B01D0AE
:101CBC00FFF738FFFFF73DFF4FF48060FFF763FF3E
:101CCC0000220021032001F0A6FA032001F0BDFA46
:101CDC00786803F039FE00BF5837BD4680BD00BFA1
:101CEC000028004080B400AF00BFBD465DF8047B07
:101CFC00704780B400AFFEE780B400AFFEE780B45D
:101D0C0000AFFEE780B400AFFEE780B400AF00BFC9
:101D1C00BD465DF8047B704780B400AF00BFBD4684
:101D2C005DF8047B704780B400AF00BFBD465DF822
:101D3C00047B704780B500AF01F0EEF800BF80BDAA
:101D4C0080B500AFFFF71CFA00BF80BD80B500AFB7
:101D5C00024801F07CFB00BF80BD00BFEC040020FA
:101D6C0080B500AF024803F025FE00BF80BD00BF68
:101D7C003804002080B500AF024803F01BFE00BF02
:101D8C0080BD00BF4803002080B500AF00F082FD8D
:101D9C0000BF80BD80B500AF00F0B4FD00BF80BDBA
:101DAC0080B500AF01F0A2FD00BF80BD80B500AFD3
:101DBC00024801F04CFB00BF80BD00BFD8030020DF
:101DCC0080B500AF102001F079FD00BF80BD80B55B
:101DDC0000AF012001F072FD00BF80BD80B500AFE7
:101DEC00022001F06BFD00BF80BD000080B400AF8D
:101DFC00034B1B681846BD465DF8047B704700BF5B
:101E0C008075FF1F80B400AF034B1B68DBB2184614
:101E1C00BD465DF8047B70478475FF1F80B400AF2E
:101E2C00034B1B681B0A1846BD465DF8047B7047C4
:101E3C008475FF1FB0B58EB000AF2A4B3C1D1D46FC
:101E4C000FCD0FC40FCD0FC40FCD0FC42B68237053
:101E5C0000F056F90121022006F0E2FA224A002194
:101E6C00022006F0F7FB3B1D184605F07DFC0346EF
:101E7C00002B01D0FFF756FE00F058F905F0D0FF0B
:101E8C001A4B002283F88020184B4FF6FF72DA822F
:101E9C00174A0021012006F0DDFB062005F022F890
:101EAC0000F0A0FB134B002213490020FFF722FB8C
:101EBC00124B002212490020FFF71CFB0B4B002297
:101ECC005A760A4B00221A760E4B80221A800E4B41
:101EDC00A0221A80012000F0DDF900BF3837BD4682
:101EEC00B0BD00BF90890008A5710008E00000207B
:101EFC000924000841240008610100205124000835
:101F0C0062010020640100206601002080B58CB0C5
:101F1C0000AF7860922387F82F307B680133BB6267
:101F2C00BB6A1B78FF2B76D0FF2B00F3C980052BE7
:101F3C0002D03E2B20D0C3E0BB6A02333B613B692D
:101F4C00B3F801309AB2624BDB8A9A4206D1604BED
:101F5C000022DA825E4B002283F88020012000F000
:101F6C0099F95C4B01221A70594BDA8A594B5A80F9
:101F7C00584800F023FBA6E0BB6A0233FB61FB6907
:101F8C001B780C2B05D00C2B41DC012B17D0032B11
:101F9C003DE0FB690133BB614D4BDB8A07F10E025F
:101FAC0007F10F01184605F00BF8034687F82F30A0
:101FBC0097F82F30002B2CD1FB7B022B29E0FB69EF
:101FCC0001337B61424B93F881301846FFF70CFBD1
:101FDC003F4B93F88030042B04D13D4B062283F801
:101FEC00802003E03A4B052283F880207B69B3F80C
:101FFC0001309AB2364BDA82364B00221A70344BCF
:10200C00DA8A344B5A80334800F0D8FA02E000BF29
:10201C0059E000BF57E0BB6A02337B627B6A1B88C6
:10202C009BB2B3F5006F47D0B3F5006F4ADC042BBD
:10203C0037D0042B46DB40F20A42934242DCB3F524
:10204C00806F3FDBA3F580630A2B3BD801A252F8CB
:10205C0023F000BFC9200008A7200008C9200008F1
:10206C00C9200008C92000088D200008D1200008D4
:10207C00C9200008C920000899200008C9200008C0
:10208C00134BDB8A184604F087FB18E0104BDB8AF5
:10209C000121184604F0CAFB11E07B6A02333B6253
:1020AC000DE0012000F0C4FD094B93F882300A21A9
:1020BC001846FFF725FB02E000BF03E000BF01E07C
:1020CC0000BF00E000BF012318463037BD4680BD7D
:1020DC00E00000206005002080B500AF00F0AAFAF7
:1020EC0000BF80BD80B400AF00BFBD465DF8047B6F
:1020FC00704780B400AF00BFBD465DF8047B7047ED
:10210C0080B582B000AF064B3B60064B7B603B4614
:10211C001946054805F024F800BF0837BD4680BDB8
:10212C0028000320DB240008A3240008F0B58DB0A0
:10213C0006AF0023BB8004F01FFF00F01BF9786191
:10214C007A690621002004F00DFE7B695A794B4B0D
:10215C001A727B691A79494B5A727B69DA78474B48
:10216C009A727B699A78454BDA727B695A78434B41
:10217C001A737B691A78414B5A73414A1021182003
:10218C0004F0F0FD3F4A1021082004F0EBFD18216B
:10219C00012004F050FE04F0A0FB0023FB74FB7C38
:1021AC0043F00103FB74FB7C002B1DD0364BFB6012
:1021BC0007F10A02F87CBB1D019307F10803009399
:1021CC0013460722002104F0DCF97C893D89F8686C
:1021DC00FDF7CEFF0346DAB2FB68009313460022EC
:1021EC002946204604F037FD7889F9883B1D009379
:1021FC000223002204F02FFD02220221002004F011
:10220C0047FF224B01221A70204B1B78184604F012
:10221C00C6F81E4B01225A701C4B08221A711B4B1C
:10222C0010225A71194B0022DA70184B184A9A6016
:10223C00164B01229A70154B9C78144B5D78134BFE
:10224C001B79124A52791149C978104880680026C6
:10225C0004960390029101920093002301222946D7
:10226C00204604F0E6F8094B9B78002B01D004F0D3
:10227C006FFA00BF1C37BD46F0BD00BF0800002040
:10228C00308B0008408B0008C4890008E000002057
:10229C0007B2010080B58CB008AF0346FB719223E6
:1022AC00FB72FB79012B06D12B4B1B88FB812B4B33
:1022BC001B88BB8105E04FF4C863FB814FF47A6344
:1022CC00BB81274B93F881301846FFF78DF9FB79CA
:1022DC00022B0DD1224B93F88030012B04D0204BD4
:1022EC0093F88030022B03D103F057FF0346FB72A7
:1022FC001B4AFB7982F88030194B1B7EBA89F9890D
:10230C000020069000200590164804900393164B6D
:10231C00029308230193002300930023002003F071
:10232C0060FF0346FB7211490E2004F0B5F9034619
:10233C00FB72FB7A002B0AD1FB79012B07D1084BDE
:10234C0093F881300A491846FFF7DAF900BF00BF4D
:10235C001037BD4680BD00BF64010020660100201F
:10236C00E0000020F9000020508B0008080000203D
:10237C0046E0010080B586B000AFFFF737FD38614D
:10238C003B69B3F1FF3F23D0FFF748FDB860FFF77F
:10239C0039FD78603B69DAB2164B1A703B691B0A3F
:1023AC00DAB2144B5A707B68DAB2124B9A70BB6873
:1023BC00DAB2104BDA70BB681B0ADAB20D4B1A7129
:1023CC00BB681B0CDAB20B4B5A710A4B7B610BE0EE
:1023DC00002005F07BF8F860FB68002B02D0FB684E
:1023EC007B6101E0044B7B617B6918461837BD4665
:1023FC0080BD00BFEC010020288B000880B582B0A6
:10240C0000AF012000F02EFC094B93F88030052B17
:10241C000AD00023FB7103F0C0FE0346FB71044B92
:10242C00002283F8802000BF00BF0837BD4680BD66
:10243C00E000002080B500AF0021012006F02CF94F
:10244C0000BF80BD80B500AF012000F00BFC00BFC9
:10245C0080BD80B582B000AF78600021022006F00C
:10246C001BF900BF0837BD4680BD80B582B000AFF8
:10247C007860012006F07CF900BF0837BD4680BDAE
:10248C0080B582B000AF7860012006F091F900BFF2
:10249C000837BD4680BD80B584B000AF78607B68DE
:1024AC00FB60FB685B680833184605F00BFD0346C0
:1024BC00FB72FB7A002B03D0FB6801221A7003E03D
:1024CC00FB6800221A7000BF1037BD4680BD80B576
:1024DC0084B000AF0346FB71FB79002B02D0012BBB
:1024EC0006D00BE01F23FB60F86806F001F905E04D
:1024FC001F23FB60F86806F01BF900BF00BF103704
:10250C00BD4680BD80B582B000AF78607B681B781B
:10251C00032B0ED0032B47DC002B02D0012B04D055
:10252C0042E0254B01221A7041E0234B00221A7025
:10253C003DE07B685B681B78002B17D17B685B6880
:10254C0001331B78012B05D1002000F071FB1A4BD5
:10255C0001229A707B685B6801331B78002B05D1D4
:10256C00002000F07FFB144B00229A707B685B68A4
:10257C001B78012B1AD17B685B6801331B78012B0C
:10258C0005D1002000F054FB0B4B01229A707B68A4
:10259C005B6801331B78002B08D1002000F062FB34
:1025AC00054B00229A7001E000BF00E000BF00BFA5
:1025BC000837BD4680BD00BF6801002080B582B0E1
:1025CC0000AF78607B681B78002B05D0012B00D006
:1025DC0003E000F019F800E000BF00BF0837BD466B
:1025EC0080BD000080B500AF054A0021042006F034
:1025FC0031F8044B00221A7000F006F800BF80BDC1
:10260C00512600086801002080B500AF002000F0C2
:10261C0029FB074B01225A70054B00229A70044B80
:10262C000122DA70024B00221A7100BF80BD00BF7C
:10263C006801002080B500AF0021042006F02CF8C2
:10264C0000BF80BD80B500AF0B4B1B79002B03D1B5
:10265C00094B01221A7102E0074B00221A71064B3A
:10266C001B78002B05D005494FF6426005F05AF84F
:10267C0000BF00BF80BD00BF680100206B010020BF
:10268C0080B400AF054BDB68044A43F40043D360CD
:10269C0000BFBD465DF8047B704700BF00040058C6
:1026AC0080B483B000AF7860064BD3F8D4200549D2
:1026BC007B681343C1F8D43000BF0C37BD465DF8BE
:1026CC00047B70470008005880B483B000AF78607A
:1026DC00054B1A6A04497B6813430B6200BF0C3725
:1026EC00BD465DF8047B70470008005880B485B087
:1026FC0000AF78604FF0B0431A6D4FF0B0417B687B
:10270C0013430B654FF0B0431A6D7B681340FB60AD
:10271C00FB6800BF1437BD465DF8047B704780B47E
:10272C0085B000AF78604FF0B043D3F850214FF034
:10273C00B0417B681343C1F850314FF0B043D3F82C
:10274C0050217B681340FB60FB6800BF1437BD460B
:10275C005DF8047B704780B483B000AF78607B6811
:10276C001B6843F480327B681A6000BF0C37BD468F
:10277C005DF8047B704780B483B000AF78607B68F1
:10278C001B6843F001027B681A6000BF0C37BD4622
:10279C005DF8047B704780B483B000AF786039601B
:1027AC007B685A683B681B04DB431A407B685A60A1
:1027BC0000BF0C37BD465DF8047B704780B483B016
:1027CC0000AF786039607B685A683B681B041A4319
:1027DC007B685A6000BF0C37BD465DF8047B7047C0
:1027EC0080B483B000AF786039607B685A683B680E
:1027FC00DB431A407B685A6000BF0C37BD465DF85E
:10280C00047B704780B483B000AF786039607B681C
:10281C003A689A6000BF0C37BD465DF8047B704780
:10282C0080B483B000AF786039603B681A047B6871
:10283C009A6000BF0C37BD465DF8047B704780B4CE
:10284C0083B000AF786039607B68DA683B6813400E
:10285C003A689A4201D1012300E0002318460C3754
:10286C00BD465DF8047B704780B483B000AF7860E0
:10287C0039607B68DA693B6813403A689A4201D147
:10288C00012300E0002318460C37BD465DF8047B9D
:10289C007047000080B500AF02211948FFF7E4FF34
:1028AC000346002B09D0164B5B68DB4303F0020395
:1028BC00002B02D000F0DAF81FE001211048FFF7DE
:1028CC00D3FF0346002B08D00D4B5B6803F00103CC
:1028DC00002B02D100F08EF80FE008210848FFF71A
:1028EC00C3FF0346002B09D0054B5B68DB4303F0A9
:1028FC000803002B02D000F005F900BF00BF80BD1B
:10290C00000C005880B500AF02211A48FFF797FF62
:10291C000346002B09D1174B5B68DB4303F40033F0
:10292C00002B02D000F096F820E008211148FFF7A8
:10293C0086FF0346002B09D10E4B5B68DB4303F487
:10294C000023002B02D000F0BFF80FE02021094833
:10295C00FFF775FF0346002B09D1064B5B68DB4381
:10296C0003F40013002B02D000F050F800BF00BF9E
:10297C0080BD00BF000C005880B500AF4FF4801034
:10298C00FFF7CDFE4FF40070FFF78AFE4FF4007096
:10299C00FFF79AFE40BF20BFFFF772FE00BF80BD5D
:1029AC0080B500AF4FF48010FFF7A0FE0648FFF78C
:1029BC00E2FE0548FFF7CFFE2C2000F046FC2D2050
:1029CC0000F043FC00BF80BD000C005880B500AF88
:1029DC0001210248FFF704FF00BF80BD000C005826
:1029EC0080B500AF01210248FFF71AFF00BF80BD80
:1029FC00000C005880B500AF05F048FB01210248DF
:102A0C00FFF700FF00BF80BD000C005880B500AF81
:102A1C0020210348FFF7D2FE05F068FB00BF80BD04
:102A2C00000C005880B500AF02210248FFF7D8FE19
:102A3C0000BF80BD000C005880B500AF02210448D7
:102A4C00FFF7EEFE02210248FFF7A5FE00BF80BD96
:102A5C00000C005880B500AF02210348FFF7AEFE12
:102A6C0005F094FB00BF80BD000C005880B500AF92
:102A7C0005F0A2FB02210248FFF7C4FE00BF80BD97
:102A8C00000C005880B582B000AF786008210C486B
:102A9C00FFF7D5FE0346002B07D00A4A7B6813606C
:102AAC0008210748FFF777FE06E07B689847082166
:102ABC000348FFF7B5FE00BF0837BD4680BD00BF19
:102ACC00000C0058F401002080B500AF0821064826
:102ADC00FFF774FE054B1B68984708210248FFF767
:102AEC009FFE00BF80BD00BF000C0058F401002009
:102AFC0080B500AF08210248FFF772FE00BF80BD11
:102B0C00000C005880B500AF05F0FEFB0821024810
:102B1C00FFF778FE00BF80BD000C0058D458C4509D
:102B2C000433C4188C42F9D37047036004308842D4
:102B3C00FBD370470C4885460C480D490D4A0023C1
:102B4C00FFF7EFFF0C480D490023FFF7F0FF0C488F
:102B5C000C490023FFF7EBFF00F00EF905F0BEFE69
:102B6C00FEF7B6FEFEE70000000003200800002080
:102B7C0044000020048C0008C401002068050020DB
:102B8C00E0010320570A0320FEE780B485B000AFB4
:102B9C0078604FF0B043DA6C4FF0B0417B68134370
:102BAC00CB644FF0B043DA6C7B681340FB60FB687E
:102BBC0000BF1437BD465DF8047B704780B588B004
:102BCC0000AF0346FB7107F10C0300221A605A6038
:102BDC009A60DA601A610220FFF7D7FFFB79124A7C
:102BEC0032F81330FB6001233B6100237B6102232D
:102BFC00BB61FB790D4A52F8233007F10C021146E8
:102C0C00184600F0D3FCFB79084A52F82300FB79F4
:102C1C00054A32F813300022194600F037FE00BF87
:102C2C002037BD4680BD00BF588B0008180000201F
:102C3C0080B582B000AF0346FB71FB79074A52F8AE
:102C4C002300FB79064A32F813300122194600F0B2
:102C5C001DFE00BF0837BD4680BD00BF1800002018
:102C6C00588B000880B582B000AF0346FB71FB792E
:102C7C00074A52F82300FB79064A32F81330002237
:102C8C00194600F003FE00BF0837BD4680BD00BFEB
:102C9C0018000020588B000880B588B000AF0346A0
:102CAC000A46FB711346BB7107F10C0300221A6034
:102CBC005A609A60DA601A61FB79002B03D1042008
:102CCC00FFF763FF0CE0FB79012B03D10820FFF722
:102CDC005CFF05E0FB79022B02D10820FFF755FFC2
:102CEC00BB79002B17D1FB79204A32F81330FB60EB
:102CFC0000233B6101237B610223BB61FB791C4AEE
:102D0C0052F8233007F10C021146184600F04EFC25
:102D1C000120FDF75EFEBB79012B23D1FB79134A11
:102D2C0032F81330FB6001237B614FF404133B61D9
:102D3C00FB790F4A52F8233007F10C021146184662
:102D4C0000F034FCFB790B4AD35C5BB200220F2100
:102D5C00184600F060FAFB79064AD35C5BB2184661
:102D6C0000F073FA00BF2037BD4680BD608B0008B1
:102D7C0024000020688B000880B400AF264B002292
:102D8C009A60254BD3F88830234A43F47003C2F879
:102D9C0088304FF0B0431B684FF0B04243F0010352
:102DAC0013604FF0B0434FF4E0229A604FF0B04301
:102DBC001A684FF0B041194B13400B604FF0B04301
:102DCC00D3F894304FF0B04223F00503C2F894309E
:102DDC004FF0B043D3F898304FF0B04223F00103DA
:102DEC00C2F898304FF0B0430D4ADA604FF0B04360
:102DFC000B4A1A614FF0B0431B684FF0B04223F4FA
:102E0C00802313604FF0B04300229A6100BFBD468F
:102E1C005DF8047B704700BF00ED00E0FBFEF6FAA6
:102E2C000010042280B400AF054B5B68044A43F0E9
:102E3C000103536000BFBD465DF8047B704700BFC3
:102E4C00002004E080B400AF054B5B68044A43F0FB
:102E5C000203536000BFBD465DF8047B704700BFA2
:102E6C00002004E080B582B000AF0023FB710C4B56
:102E7C001B680B4A43F480731360032000F0C0F905
:102E8C00002000F00FF80346002B02D00123FB7149
:102E9C0001E0FEF791FEFB7918460837BD4680BD70
:102EAC000040005880B584B000AF78600023FB73FD
:102EBC00174B1B78002B24D001F076FE0246144BE6
:102ECC001B7819464FF47A73B3FBF1F3B2FBF3F3AF
:102EDC00184600F0D6F90346002B0FD17B680F2B58
:102EEC0009D8002279684FF0FF3000F094F9094AB4
:102EFC007B68136007E00123FB7304E00123FB7381
:102F0C0001E00123FB73FB7B18461037BD4680BDE7
:102F1C00380000203400002080B400AF064B1B7832
:102F2C001A46064B1B681344044A136000BFBD4687
:102F3C005DF8047B704700BF38000020640500205A
:102F4C0080B400AF034B1B681846BD465DF8047B8C
:102F5C00704700BF6405002080B400AF034B1B68B2
:102F6C001846BD465DF8047B704700BF3400002056
:102F7C0080B400AF034B1B781846BD465DF8047B4C
:102F8C00704700BF3800002080B500AFFFF74AFF44
:102F9C0000BF80BD80B500AFFFF754FF00BF80BD00
:102FAC0080B485B000AF78607B6803F00703FB60EA
:102FBC000C4BDB68BB60BA684FF6FF031340BB6079
:102FCC00FB681A02BB68134343F0BF6343F400333E
:102FDC00BB60044ABB68D36000BF1437BD465DF8C4
:102FEC00047B704700ED00E080B400AF044BDB685D
:102FFC001B0A03F007031846BD465DF8047B7047B7
:10300C0000ED00E080B483B000AF0346FB7197F98C
:10301C000730002B0BDBFB7903F01F02074997F9F4
:10302C0007305B09012000FA02F241F8232000BFAF
:10303C000C37BD465DF8047B704700BF00E100E033
:10304C0080B483B000AF0346FB7197F90730002BB7
:10305C0012DBFB7903F01F020A4997F907305B0971
:10306C00012000FA02F2203341F82320BFF34F8FE6
:10307C0000BFBFF36F8F00BF00BF0C37BD465DF8BC
:10308C00047B704700E100E080B483B000AF0346DE
:10309C00FB7197F90730002B0CDBFB7903F01F0257
:1030AC00074997F907305B09012000FA02F2403317
:1030BC0041F8232000BF0C37BD465DF8047B7047F8
:1030CC0000E100E080B483B000AF0346FB7197F9D8
:1030DC000730002B0CDBFB7903F01F02074997F933
:1030EC0007305B09012000FA02F2603341F823201B
:1030FC0000BF0C37BD465DF8047B704700E100E073
:10310C0080B483B000AF03463960FB7197F9073088
:10311C00002B0ADB3B68DAB20C4997F90730120135
:10312C00D2B20B4483F800230AE03B68DAB20849B8
:10313C00FB7903F00F03043B1201D2B20B441A7655
:10314C0000BF0C37BD465DF8047B704700E100E022
:10315C0000ED00E080B489B000AFF860B9607A602F
:10316C00FB6803F00703FB61FB69C3F10703042B46
:10317C0028BF0423BB61FB690433062B02D9FB690E
:10318C00033B00E000237B614FF0FF32BB6902FA86
:10319C0003F3DA43BB681A407B699A404FF0FF3166
:1031AC007B6901FA03F3D9437B680B401343184640
:1031BC002437BD465DF8047B7047000080B582B0B3
:1031CC0000AF78607B68013BB3F1807F01D30123B2
:1031DC000FE00A4A7B68013B53600F214FF0FF3030
:1031EC00FFF78EFF054B00229A60044B07221A60F2
:1031FC00002318460837BD4680BD00BF10E000E034
:10320C0080B582B000AF78607868FFF7C9FE00BF68
:10321C000837BD4680BD80B586B000AF0346B960A7
:10322C007A60FB73FFF7E0FE78617A68B9687869B9
:10323C00FFF790FF024697F90F3011461846FFF73B
:10324C005FFF00BF1837BD4680BD80B582B000AFB0
:10325C000346FB7197F907301846FFF7D3FE00BF02
:10326C000837BD4680BD80B582B000AF0346FB7108
:10327C0097F907301846FFF7E3FE00BF0837BD4645
:10328C0080BD80B582B000AF78607868FFF796FF9C
:10329C00034618460837BD4680BD80B582B000AFE6
:1032AC000346FB7197F907301846FFF7EDFE00BF98
:1032BC000837BD4680BD80B582B000AF0346FB71B8
:1032CC0097F907301846FFF7FDFE00BF0837BD46DB
:1032DC0080BD80B483B000AF78607B68002B01D1D7
:1032EC0001234FE07B6893F82530DBB2022B08D02A
:1032FC007B680422DA637B68002283F82420012394
:10330C0040E07B681B681A687B681B6822F00E0221
:10331C001A607B689B6C1A687B689B6C22F48072C9
:10332C001A607B681B681A687B681B6822F00102B4
:10333C001A607B685B6C03F01C027B681B6C0121C0
:10334C0001FA02F25A607B68DB6C7A68126D5A6083
:10335C007B685B6D002B0CD07B685B6D1A687B689F
:10336C005B6D22F480721A607B689B6D7A68D26DFB
:10337C005A607B68012283F825207B68002283F841
:10338C002420002318460C37BD465DF8047B70479B
:10339C0080B584B000AF78600023FB737B6893F832
:1033AC002530DBB2022B05D07B680422DA630123C3
:1033BC00FB7347E07B681B681A687B681B6822F00C
:1033CC000E021A607B681B681A687B681B6822F007
:1033DC0001021A607B689B6C1A687B689B6C22F4F8
:1033EC0080721A607B685B6C03F01C027B681B6C40
:1033FC00012101FA02F25A607B68DB6C7A68126D6B
:10340C005A607B685B6D002B0CD07B685B6D1A6817
:10341C007B685B6D22F480721A607B689B6D7A68A6
:10342C00D26D5A607B68012283F825207B680022CC
:10343C0083F824207B689B6B002B03D07B689B6BF1
:10344C0078689847FB7B18461037BD4680BD80B521
:10345C0084B000AF78607B681B6C1B68FB607B687A
:10346C001B681B68BB607B685B6C03F01C0304224D
:10347C009A40FB681340002B26D0BB6803F0040372
:10348C00002B21D07B681B681B6803F02003002BEA
:10349C0007D17B681B681A687B681B6822F00402E2
:1034AC001A607B685B6C03F01C027B681B6C04214C
:1034BC0001FA02F25A607B681B6B002B71D07B689F
:1034CC001B6B786898476CE07B685B6C03F01C03A3
:1034DC0002229A40FB681340002B2ED0BB6803F0ED
:1034EC000203002B29D07B681B681B6803F02003A8
:1034FC00002B0BD17B681B681A687B681B6822F059
:10350C000A021A607B68012283F825207B685B6CB9
:10351C0003F01C027B681B6C022101FA02F25A6058
:10352C007B68002283F824207B68DB6A002B38D070
:10353C007B68DB6A7868984733E07B685B6C03F0E8
:10354C001C0308229A40FB681340002B2AD0BB684E
:10355C0003F00803002B25D07B681B681A687B6876
:10356C001B6822F00E021A607B685B6C03F01C0275
:10357C007B681B6C012101FA02F25A607B68012204
:10358C00DA637B68012283F825207B68002283F8AC
:10359C0024207B685B6B002B04D07B685B6B7868AA
:1035AC00984700BF00BF1037BD4680BD80B487B0C0
:1035BC0000AF7860396000237B614CE13B681A688E
:1035CC0001217B6901FA03F31340FB60FB68002BBC
:1035DC0000F03E813B685B6803F00303012B05D0D0
:1035EC003B685B6803F00303022B30D17B689B685C
:1035FC003B617B695B00032202FA03F3DB433A690C
:10360C0013403B613B68DA687B695B0002FA03F3A9
:10361C003A6913433B617B683A699A607B685B68E3
:10362C003B6101227B6902FA03F3DB433A691340E5
:10363C003B613B685B681B0903F001027B6902FA82
:10364C0003F33A6913433B617B683A695A603B6800
:10365C005B6803F00303032B17D07B68DB683B61CB
:10366C007B695B00032202FA03F3DB433A691340E4
:10367C003B613B689A687B695B0002FA03F33A6929
:10368C0013433B617B683A69DA603B685B6803F023
:10369C000303022B23D17B69DA087B68083253F8C9
:1036AC0022303B617B6903F007039B000F2202FA77
:1036BC0003F3DB433A6913403B613B681A697B694E
:1036CC0003F007039B0002FA03F33A6913433B61CF
:1036DC007B69DA087B680832396943F822107B6809
:1036EC001B683B617B695B00032202FA03F3DB433B
:1036FC003A6913403B613B685B6803F003027B69EA
:10370C005B0002FA03F33A6913433B617B683A6945
:10371C001A603B685B6803F44033002B00F0988020
:10372C00544A7B699B08023352F823303B617B6916
:10373C0003F003039B000F2202FA03F3DB433A6905
:10374C0013403B617B68B3F1904F19D07B684A4AB8
:10375C00934213D07B68494A93420DD07B68484A08
:10376C00934207D07B68474A934201D1042308E077
:10377C00072306E0032304E0022302E0012300E018
:10378C0000237A6902F00302920093403A691343D2
:10379C003B6138497B699B0802333A6941F8232025
:1037AC00394B1B683B61FB68DB433A6913403B6157
:1037BC003B685B6803F48013002B03D03A69FB6809
:1037CC0013433B61304A3B6913602F4B5B683B6191
:1037DC00FB68DB433A6913403B613B685B6803F46D
:1037EC000013002B03D03A69FB6813433B61264A54
:1037FC003B695360244BD3F880303B61FB68DB435F
:10380C003A6913403B613B685B6803F48033002BDF
:10381C0003D03A69FB6813433B611B4A3B69C2F80E
:10382C008030194BD3F884303B61FB68DB433A6939
:10383C0013403B613B685B6803F40033002B03D0FF
:10384C003A69FB6813433B610F4A3B69C2F8843009
:10385C007B6901337B613B681A687B6922FA03F34D
:10386C00002B7FF4ABAE00BF00BF1C37BD465DF82C
:10387C00047B704700000140000400480008004829
:10388C00000C0048001000480008005880B483B0B9
:10389C0000AF78600B467B8013467B707B78002BE7
:1038AC0003D07A887B689A6102E07A887B689A6296
:1038BC0000BF0C37BD465DF8047B704780B582B005
:1038CC0000AF0346FB80084BDA68FB881340002BE3
:1038DC0006D0054AFB88D360FB881846FDF7DCF858
:1038EC0000BF0837BD4680BD0008005880B582B0C7
:1038FC0000AF0A4BDB687B60084B1A687B68DB43C4
:10390C00064913400B60054A7B685360786800F0E9
:10391C0007F800BF0837BD4680BD00BF0015005832
:10392C0080B483B000AF786000BF0C37BD465DF843
:10393C00047B704780B584B000AF78600023FB73C4
:10394C007B68002B1ED0134BBB607B6893F8383020
:10395C00DBB2002B02D17868FEF73EF9B86800F0B4
:10396C005BF8BB681B6843F00112BB681A6078688F
:10397C0000F02CF87B6800225A637B68012283F8E4
:10398C00382001E00123FB73FB7B18461037BD4642
:10399C0080BD00BF000C005880B485B000AFF8604B
:1039AC00B9601346FB7100BF1437BD465DF8047B4C
:1039BC00704780B485B000AFF860B9601346FB71F6
:1039CC0000BF1437BD465DF8047B704780B485B0EA
:1039DC0000AF78600023FB600FE07A68FB689B0007
:1039EC0013440B4A5A607A68FB6806339B001344F5
:1039FC00084A5A60FB680133FB60FB68052BECD965
:103A0C0000BF00BF1437BD465DF8047B704700BF94
:103A1C00A5390008BF39000880B483B000AF7860C6
:103A2C007B6800221A607B684FF03F125A607B68FB
:103A3C003F229A6000BF0C37BD465DF8047B70478F
:103A4C0080B400AF054B1B68044A43F480731360C9
:103A5C0000BFBD465DF8047B704700BF00040058F2
:103A6C0080B400AF044B1B6803F4C0631846BD461A
:103A7C005DF8047B704700BF0004005880B400AFB1
:103A8C004FF0B0431B6803F48013B3F5801F01D1D2
:103A9C00012300E000231846BD465DF8047B704707
:103AAC0080B400AF4FF0B0431B684FF0B04243F40A
:103ABC008033136000BFBD465DF8047B704780B453
:103ACC0000AF4FF0B0431B684FF0B04223F480338B
:103ADC00136000BFBD465DF8047B704780B400AF37
:103AEC004FF0B0431B6803F40033B3F5003F01D132
:103AFC00012300E000231846BD465DF8047B7047A7
:103B0C0080B400AF4FF0B0431B684FF0B04243F4A9
:103B1C008073136000BFBD465DF8047B704780B4B2
:103B2C0000AF4FF0B0431B684FF0B04223F48073EA
:103B3C00136000BFBD465DF8047B704780B400AFD6
:103B4C004FF0B0431B6803F48063B3F5806F01D171
:103B5C00012300E000231846BD465DF8047B704746
:103B6C0080B483B000AF78604FF0B0435B6823F053
:103B7C00FE427B681B064FF0B04113434B6000BF05
:103B8C000C37BD465DF8047B704780B400AF4FF036
:103B9C00B043D3F898304FF0B04243F00103C2F871
:103BAC00983000BFBD465DF8047B704780B400AF11
:103BBC004FF0B043D3F898304FF0B04223F00103EC
:103BCC00C2F8983000BFBD465DF8047B704780B4E6
:103BDC0000AF4FF0B043D3F8983003F00203022B40
:103BEC0001D1012300E000231846BD465DF8047B9B
:103BFC00704780B400AF4FF0B043D3F890304FF023
:103C0C00B04243F00103C2F8903000BFBD465DF8EE
:103C1C00047B704780B400AF4FF0B043D3F89030C2
:103C2C004FF0B04223F00103C2F8903000BFBD4604
:103C3C005DF8047B704780B400AF4FF0B043D3F80D
:103C4C0090304FF0B04243F00403C2F8903000BF04
:103C5C00BD465DF8047B704780B400AF4FF0B043B5
:103C6C00D3F890304FF0B04223F00403C2F89030F8
:103C7C0000BFBD465DF8047B704780B400AF4FF0C9
:103C8C00B043D3F8903003F00203022B01D101238F
:103C9C0000E000231846BD465DF8047B704780B4F5
:103CAC0000AF4FF0B043D3F894304FF0B04243F034
:103CBC000103C2F8943000BFBD465DF8047B704729
:103CCC0080B400AF4FF0B043D3F894304FF0B04213
:103CDC0023F00103C2F8943000BFBD465DF8047BAD
:103CEC00704780B400AF4FF0B043D3F8943003F07A
:103CFC000203022B01D1012300E000231846BD462C
:103D0C005DF8047B704780B400AF4FF0B043D3F83C
:103D1C0094304FF0B04243F00403C2F8943000BF2B
:103D2C00BD465DF8047B704780B400AF4FF0B043E4
:103D3C00D3F894304FF0B04223F00403C2F894301F
:103D4C0000BFBD465DF8047B704780B400AF4FF0F8
:103D5C00B043D3F8943003F00803082B01D10123AE
:103D6C0000E000231846BD465DF8047B704780B424
:103D7C0083B000AF78604FF0B043D3F8943023F4A5
:103D8C0070627B681B024FF0B0411343C1F8943052
:103D9C0000BF0C37BD465DF8047B704780B400AFA4
:103DAC004FF0B0431B684FF0B04243F00103136077
:103DBC0000BFBD465DF8047B704780B400AF4FF088
:103DCC00B0431B684FF0B04223F00103136000BFF7
:103DDC00BD465DF8047B704780B400AF4FF0B04334
:103DEC001B6803F00203022B01D1012300E0002326
:103DFC001846BD465DF8047B704780B483B000AFB5
:103E0C0078604FF0B0431B6823F0F0024FF0B041E4
:103E1C007B6813430B6000BF0C37BD465DF8047B19
:103E2C00704780B483B000AF4FF0B0431B6803F011
:103E3C00F0037B607B68B02B01D9B0237B607B687F
:103E4C0018460C37BD465DF8047B704780B483B0D0
:103E5C0000AF78604FF0B0435B6823F47F427B681F
:103E6C001B024FF0B04113434B6000BF0C37BD46F3
:103E7C005DF8047B704780B483B000AF78604FF07E
:103E8C00B0439B6823F003024FF0B0417B681343AF
:103E9C008B6000BF0C37BD465DF8047B704780B467
:103EAC0000AF4FF0B0439B6803F00C031846BD46BF
:103EBC005DF8047B704780B483B000AF78604FF03E
:103ECC00B0439B6823F0F0024FF0B0417B68134382
:103EDC008B6000BF0C37BD465DF8047B704780B427
:103EEC0083B000AF78604FF0B043D3F8083123F0C3
:103EFC00F0024FF0B0417B681343C1F8083100BFAA
:103F0C000C37BD465DF8047B704780B483B000AFBE
:103F1C0078604FF0B043D3F8083123F00F027B6880
:103F2C001B094FF0B0411343C1F8083100BF0C37E7
:103F3C00BD465DF8047B704780B483B000AF7860F9
:103F4C004FF0B0439B6823F4E0624FF0B0417B68C4
:103F5C0013438B6000BF0C37BD465DF8047B704784
:103F6C0080B483B000AF78604FF0B0439B6823F40B
:103F7C0060524FF0B0417B6813438B6000BF0C372D
:103F8C00BD465DF8047B704780B400AF4FF0B04382
:103F9C009B6803F0F0031846BD465DF8047B704740
:103FAC0080B400AF4FF0B043D3F808311B0103F0DD
:103FBC00F0031846BD465DF8047B704780B400AF33
:103FCC004FF0B0431B684FF0B04243F08073136066
:103FDC0000BFBD465DF8047B704780B400AF4FF066
:103FEC00B0431B684FF0B04223F08073136000BFE6
:103FFC00BD465DF8047B704780B400AF4FF0B04312
:10400C001B6803F00073B3F1007F01D1012300E0C2
:10401C0000231846BD465DF8047B704780B400AFA2
:10402C004FF0B043DB681B0A03F07F031846BD4614
:10403C005DF8047B704780B400AF4FF0B043DB6891
:10404C0003F060431846BD465DF8047B704780B4AE
:10405C0000AF4FF0B043DB6803F070031846BD4669
:10406C005DF8047B704780B400AF4FF0B043DB6861
:10407C0003F003031846BD465DF8047B704780B41B
:10408C0000AF4FF0B0439B6803F48033B3F5803F2F
:10409C0001D1012300E000231846BD465DF8047BE6
:1040AC00704780B400AF4FF0B043D3F8083103F43D
:1040BC000033B3F5003F01D1012300E00023184683
:1040CC00BD465DF8047B704780B400AF4FF0B04341
:1040DC00D3F8083103F48033B3F5803F01D10123C9
:1040EC0000E000231846BD465DF8047B704780B4A1
:1040FC0000AF4FF0B0439B6803F40033B3F5003FBF
:10410C0001D1012300E000231846BD465DF8047B75
:10411C00704780B400AF4FF0B0439B6803F480232A
:10412C00B3F5802F01D1012300E000231846BD46D2
:10413C005DF8047B7047000090B58DB000AF7860DF
:10414C007B68002B01D101237EE37B681B6803F0A5
:10415C002003002B00F09280FFF7A1FEF862FFF71E
:10416C0082FFB862FB6A002B05D0FB6A0C2B4CD18A
:10417C00BB6A012B49D1FFF72FFE0346002B05D05C
:10418C007B68DB69002B01D101235DE37B685C6AF2
:10419C00FFF747FE03469C4214D97B685B6A1846BE
:1041AC0000F016FD0346002B01D001234CE37B6885
:1041BC005B6A1846FFF721FE7B681B6A1846FFF7FF
:1041CC0045FE13E07B685B6A1846FFF716FE7B68BA
:1041DC001B6A1846FFF73AFE7B685B6A184600F0CC
:1041EC00F7FC0346002B01D001232DE300F0DCFC8F
:1041FC000346B34A1360B34B1B681846FEF752FED6
:10420C000346002B39D001231EE37B68DB69002BAE
:10421C001ED0FFF7C3FDFEF793FE786208E0FEF7B1
:10422C008FFE02467B6AD31A022B01D903230BE3C0
:10423C00FFF7D2FD0346002BF1D07B685B6A184672
:10424C00FFF7DBFD7B681B6A1846FFF7FFFD15E0E7
:10425C00FFF7B3FDFEF774FE786208E0FEF770FE20
:10426C0002467B6AD31A022B01D90323ECE2FFF737
:10427C00B3FD0346002BF1D100E000BF7B681B6847
:10428C0003F00103002B4ED0FFF709FE3862FFF755
:10429C00EAFEF8613B6A082B05D03B6A0C2B0DD16A
:1042AC00FB69032B0AD1FFF719FC0346002B39D00D
:1042BC007B685B68002B35D10123C5E27B685B68AA
:1042CC00B3F5803F02D1FFF7EBFB01E0FFF7F7FB03
:1042DC007B685B68002B12D0FEF732FE786208E038
:1042EC00FEF72EFE02467B6AD31A642B01D90323F8
:1042FC00AAE2FFF7F3FB0346002BF1D013E0FEF725
:10430C001FFE786208E0FEF71BFE02467B6AD31A9A
:10431C00642B01D9032397E2FFF7E0FB0346002B44
:10432C00F1D100E000BF7B681B6803F00203002B97
:10433C0051D0FFF7B4FDB861FFF795FE7861BB690A
:10434C00042B05D0BB690C2B13D17B69022B10D12C
:10435C00FFF7F4FB0346002B05D07B68DB68002BD2
:10436C0001D1012370E27B681B691846FFF7F8FB4B
:10437C0031E07B68DB68002B19D0FFF7C1FBFEF73F
:10438C00DFFD786208E0FEF7DBFD02467B6AD31A9C
:10439C00022B01D9032357E2FFF7D0FB0346002B76
:1043AC00F1D07B681B691846FFF7DAFB13E0FFF7C7
:1043BC00B6FBFEF7C5FD786208E0FEF7C1FD0246CC
:1043CC007B6AD31A022B01D903233DE2FFF7B6FB1C
:1043DC000346002BF1D17B681B6803F00803002B0C
:1043EC0006D17B681B6803F01003002B00F0A38040
:1043FC007B685B69002B76D07B681B6803F010032D
:10440C00002B46D0FFF76DFC0346002B13D1FFF7B2
:10441C0046FCFEF795FD786208E0FEF791FD02463A
:10442C007B6AD31A022B01D903230DE2FFF759FC47
:10443C000346002BF1D0FFF766FCFEF781FD786296
:10444C0008E0FEF77DFD02467B6AD31A032B01D9E7
:10445C000323F9E1FFF779FC0346002BF1D07B68CD
:10446C009B691846FFF783FCFFF72AFCFEF768FDF3
:10447C00786208E0FEF764FD02467B6AD31A022BD1
:10448C0001D90323E0E1FFF72CFC0346002BF1D10B
:10449C0051E0FFF704FCFEF753FD786208E0FEF7ED
:1044AC004FFD02467B6AD31A022B01D90323CBE1C1
:1044BC00FFF717FC0346002BF1D0FFF735FC0CE09F
:1044CC003000002034000020FEF73AFD02467B6AE3
:1044DC00D31A032B01D90323B6E1FFF736FC0346AD
:1044EC00002BF1D127E0FFF71FFCFEF729FD7862C6
:1044FC0008E0FEF725FD02467B6AD31A032B01D98F
:10450C000323A1E1FFF721FC0346002BF1D1FFF7B8
:10451C00D7FBFEF715FD786208E0FEF711FD0246A9
:10452C007B6AD31A022B01D903238DE1FFF7D9FB48
:10453C000346002BF1D17B681B6803F00403002BAE
:10454C005BD0B54B1B6803F48073002B14D1FFF7C1
:10455C0077FAFEF7F5FC786208E0FEF7F1FC02460C
:10456C007B6AD31A022B01D903236DE1AA4B1B687A
:10457C0003F48073002BF0D07B689B68012B02D175
:10458C00FFF737FB0CE07B689B68052B04D1FFF72A
:10459C0052FBFFF72EFB03E0FFF73CFBFFF75CFB46
:1045AC007B689B68002B14D0FEF7CAFC78620AE08B
:1045BC00FEF7C6FC02467B6AD31A41F2883293425C
:1045CC0001D9032340E1FFF758FB0346002BEFD042
:1045DC0013E0FEF7B5FC78620AE0FEF7B1FC024688
:1045EC007B6AD31A41F28832934201D903232BE11F
:1045FC00FFF743FB0346002BEFD17B681B6803F0EE
:10460C004003002B2CD07B689B6A002B14D0FFF747
:10461C00BCFAFEF795FC786208E0FEF791FC0246C6
:10462C007B6AD31A022B01D903230DE1FFF7CFFAD2
:10463C000346002BF1D013E0FFF7B8FAFEF780FC2D
:10464C00786208E0FEF77CFC02467B6AD31A022BE8
:10465C0001D90323F8E0FFF7BAFA0346002BF1D196
:10466C007B68DB6A002B00F0EE80FFF718FC3861EA
:10467C004FF0B043DB68FB607B68DB6A022B40F0D9
:10468C00AF80FB6803F003027B681B6B9A4223D15B
:10469C00FB6803F070027B685B6B9A421CD1FB6871
:1046AC001B0A03F07F027B689B6B9A4214D1FB6858
:1046BC0003F478127B68DB6B9A420DD1FB6803F034
:1046CC0060627B681B6C9A4206D1FB6803F0604207
:1046DC007B685B6C9A425DD03B690C2B58D04FF0D9
:1046EC00B0431B6803F08063002B01D00123ABE0C7
:1046FC00FFF773FCFEF724FC786208E0FEF720FC61
:10470C0002467B6AD31A022B01D903239CE04FF09B
:10471C00B0431B6803F00073002BEFD14FF0B04394
:10472C00DA683E4B13407A68116B7A68526B11430E
:10473C007A68926B120211437A68D26B11437A68D1
:10474C00126C11437A68526C0A434FF0B041134318
:10475C00CB60FFF733FC4FF0B043DB684FF0B04257
:10476C0043F08053D360FEF7EBFB786208E0FEF772
:10477C00E7FB02467B6AD31A022B01D9032363E0C1
:10478C004FF0B0431B6803F00073002BEFD05AE0DE
:10479C00012359E04FF0B0431B6803F00073002B6A
:1047AC0051D1FFF70BFC4FF0B043DB684FF0B04238
:1047BC0043F08053D360FEF7C3FB786208E0FEF74A
:1047CC00BFFB02467B6AD31A022B01D903233BE0C1
:1047DC004FF0B0431B6803F00073002BEFD032E0B6
:1047EC003B690C2B2DD0FFF7F8FB4FF0B043DB6887
:1047FC004FF0B04223F00303D3604FF0B043DB68BB
:10480C004FF0B04223F0885323F48033D360FEF78B
:10481C0097FB78620DE000BF000400588C80C1113A
:10482C00FEF78EFB02467B6AD31A022B01D90323B7
:10483C000AE04FF0B0431B6803F00073002BEFD17C
:10484C0001E0012300E0002318463437BD4690BD3B
:10485C0080B584B000AF786039607B68002B01D1E3
:10486C0001232DE1984B1B6803F007033A689A4229
:10487C001BD9954B1B6823F0070293493B681343E4
:10488C000B60FEF75DFBF86008E0FEF759FB024693
:10489C00FB68D31A022B01D9032311E18A4B1B6845
:1048AC0003F007033A689A42EFD17B681B6803F068
:1048BC000203002B16D07B689B681846FFF7FBFAA7
:1048CC00FEF73EFBF86008E0FEF73AFB0246FB6899
:1048DC00D31A022B01D90323F2E0FFF7D0FB0346D6
:1048EC00002BF1D07B681B6803F02003002B16D043
:1048FC007B685B691846FFF7F2FAFEF721FBF8605C
:10490C0008E0FEF71DFB0246FB68D31A022B01D907
:10491C000323D5E0FFF7C5FB0346002BF1D07B68E2
:10492C001B6803F04003002B16D07B689B6918466C
:10493C00FFF7EBFAFEF704FBF86008E0FEF700FB6C
:10494C000246FB68D31A022B01D90323B8E0FFF708
:10495C00BBFB0346002BF1D07B681B6803F0040300
:10496C00002B16D07B68DB681846FFF7E5FAFEF7DC
:10497C00E7FAF86008E0FEF7E3FA0246FB68D31AA0
:10498C00022B01D903239BE0FFF7B1FB0346002B5D
:10499C00F1D07B681B6803F00803002B17D07B68F1
:1049AC001B69DB001846FFF7DBFAFEF7C9FAF86063
:1049BC0008E0FEF7C5FA0246FB68D31A022B01D9B0
:1049CC0003237DE0FFF7A5FB0346002BF1D07B68AA
:1049DC001B6803F00103002B43D07B685B68022B40
:1049EC0006D1FFF77BF80346002B1ED1012367E0AD
:1049FC007B685B68032B06D1FFF7FEFA0346002B9E
:104A0C0013D101235CE07B685B68002B06D1FFF7B8
:104A1C00E3F90346002B08D1012351E0FFF78EF890
:104A2C000346002B01D101234AE07B685B681846E2
:104A3C00FFF721FAFEF784FAF8600AE0FEF780FA35
:104A4C000246FB68D31A41F28832934201D9032300
:104A5C0036E0FFF724FA02467B685B689B009A42BB
:104A6C00ECD1194B1B6803F007033A689A421BD22E
:104A7C00154B1B6823F0070213493B6813430B606B
:104A8C00FEF75EFAF86008E0FEF75AFA0246FB6899
:104A9C00D31A022B01D9032312E00B4B1B6803F032
:104AAC0007033A689A42EFD100F07EF80346074AB2
:104ABC001360FEF751FA03461846FEF7F3F9034666
:104ACC0018461037BD4680BD00400058300000200D
:104ADC0090B585B000AFFFF7E2F978607B68002BEA
:104AEC000AD1FFF79EF903461B0903F00F032B4A6B
:104AFC0052F82330FB604BE07B68042B02D1284B2F
:104B0C00FB6045E07B68082B0AD1FEF7B7FF034634
:104B1C00012B02D1224BFB603AE0224BFB6037E0C9
:104B2C00FFF7A1FA38603B68022B03D03B68032BDC
:104B3C0003D00DE01A4BBB6015E0FEF79FFF034658
:104B4C00012B02D1164BBB600DE0164BBB600AE08B
:104B5C00FFF767F903461B0903F00F030F4A52F8DE
:104B6C002330BB6000BFFFF759FA0246BB6803FB5A
:104B7C0002F4FFF76CFA03461B090133B4FBF3F4A0
:104B8C00FFF759FA03465B0F0133B4FBF3F3FB60F9
:104B9C00FB6818461437BD4690BD00BFAC8B0008AF
:104BAC000024F4000048E80198B500AFFFF790FF2F
:104BBC000446FFF7E9F903461B0903F00F03034A08
:104BCC0052F82330B4FBF3F3184698BD6C8B0008F5
:104BDC0090B585B000AF78607B68B02B03D9154BCE
:104BEC00DB6AFB6007E07B681B0903F00F03114ACB
:104BFC0052F82330FB60FFF7D3F903461B0903F08F
:104C0C000F030D4A52F82330FA68B2FBF3F3BB6082
:104C1C00BB680A4AA2FB03239C0CFEF721FF034648
:104C2C001946204600F00CF8034618461437BD46CA
:104C3C0090BD00BFAC8B00086C8B000883DE1B435F
:104C4C0090B593B000AF78603960394B07F1280408
:104C5C000FCB84E80F00374A07F11C0307CA83E81F
:104C6C000700354B07F10C040FCB84E80F00002331
:104C7C007B643B68B3F5007F1CD100233B6415E0DB
:104C8C003B6C9B0007F14802134453F8203C7A68B4
:104C9C009A4208D83B6C9B0007F14802134453F826
:104CAC003C3C7B6422E03B6C01333B643B6C032B50
:104CBC00E6D91BE00023FB6315E0FB6B9B0007F1BF
:104CCC004802134453F82C3C7A689A4208D8FB6B80
:104CDC009B0007F14802134453F83C3C7B6405E00D
:104CEC00FB6B0133FB63FB6B022BE6D9134B1B688D
:104CFC0023F0070211497B6C13430B60FEF720F97C
:104D0C00B86308E0FEF71CF90246BB6BD31A022B02
:104D1C0001D9032307E0094B1B6803F007037A6CE6
:104D2C009A42EFD1002318464C37BD4690BD00BFC8
:104D3C00CC890008DC890008E8890008004000588C
:104D4C0080B400AF4FF0B043D3F8903003F00103C0
:104D5C00012B01D1012300E000231846BD465DF86C
:104D6C00047B704780B400AF4FF0B043D3F8903061
:104D7C0003F00203022B01D1012300E000231846AB
:104D8C00BD465DF8047B704780B483B000AF78609B
:104D9C004FF0B043D3F8943023F440424FF0B0417D
:104DAC007B681343C1F8943000BF0C37BD465DF8E7
:104DBC00047B704780B483B000AF78604FF0B04391
:104DCC005B6A23F003024FF0B0417B6813434B62E4
:104DDC0000BF0C37BD465DF8047B704780B483B0D0
:104DEC0000AF78604FF0B0435B6A23F030024FF0B5
:104DFC00B0417B6813434B6200BF0C37BD465DF876
:104E0C00047B704780B483B000AF78604FF0B04340
:104E1C00D3F8883023F003024FF0B0417B68134382
:104E2C00C1F8883000BF0C37BD465DF8047B704775
:104E3C0080B483B000AF78604FF0B043D3F88830C3
:104E4C0023F440624FF0B0417B681343C1F88830C3
:104E5C0000BF0C37BD465DF8047B704780B483B04F
:104E6C0000AF78604FF0B043D3F888207B681B0903
:104E7C0003F47F23DB431A407B681B0103F47F237D
:104E8C004FF0B0411343C1F8883000BF0C37BD461A
:104E9C005DF8047B704780B483B000AF78604FF04E
:104EAC00B043D3F888207B681B0C1B04DB431A40EF
:104EBC007B681B044FF0B0411343C1F8883000BF2E
:104ECC000C37BD465DF8047B704780B483B000AFEF
:104EDC0078604FF0B043D3F8883023F440024FF0A1
:104EEC00B0417B681343C1F8883000BF0C37BD4616
:104EFC005DF8047B704780B483B000AF78604FF0EE
:104F0C00B043D3F8883023F040424FF0B0417B6877
:104F1C001343C1F8883000BF0C37BD465DF8047BE5
:104F2C00704780B483B000AF78604FF0B043D3F8D3
:104F3C00883023F040624FF0B0417B681343C1F8D6
:104F4C00883000BF0C37BD465DF8047B704780B5D8
:104F5C0082B000AF78607868FFF7E3FF00BF0837D6
:104F6C00BD4680BD80B483B000AF78604FF0B043D5
:104F7C00D3F8883023F040524FF0B0417B68134394
:104F8C00C1F8883000BF0C37BD465DF8047B704714
:104F9C0080B483B000AF78604FF0B043D3F890305A
:104FAC0023F440724FF0B0417B681343C1F890304A
:104FBC0000BF0C37BD465DF8047B704780B400AF72
:104FCC004FF0B043D3F8903003F440731846BD460D
:104FDC005DF8047B704780B400AF4FF0B043D3F85A
:104FEC0090304FF0B04243F48033C2F8903000BFA1
:104FFC00BD465DF8047B704780B400AF4FF0B04302
:10500C00D3F890304FF0B04223F48033C2F8903094
:10501C0000BFBD465DF8047B704780B400AF4FF015
:10502C00B0431B684FF0B04243F08063136000BF85
:10503C00BD465DF8047B704780B400AF4FF0B043C1
:10504C001B684FF0B04223F08063136000BFBD4675
:10505C005DF8047B704780B400AF4FF0B0431B6821
:10506C0003F00063B3F1006F01D1012300E00023D2
:10507C001846BD465DF8047B704780B588B000AF1C
:10508C0078600023FB770023BB777B681B6803F0F9
:10509C004003002B34D07B681B6BB3F5400F21D041
:1050AC00B3F5400F1BD8B3F5000F1DD0B3F5000FAF
:1050BC0015D8002B0BD0B3F5800F10D14FF0B043A7
:1050CC00DB684FF0B04243F48033D3600DE07B6873
:1050DC000433184600F047F90346FB7705E001233B
:1050EC00FB7702E000BF00E000BFFB7F002B05D187
:1050FC007B681B6B1846FFF7E8FE01E0FB7FBB7774
:10510C007B681B6803F40063002B46D0FFF756FF47
:10511C00B8617B681B6CBA699A423CD0FEF790FC74
:10512C00BB69002B05D17B681B6C1846FFF730FF61
:10513C002EE04FF0B043D3F890307B61FFF74BFF7C
:10514C00FFF75AFF7B6923F440727B681B6C134397
:10515C007B614FF0B0427B69C2F89030FFF7F0FDF5
:10516C000346012B14D1FDF7EBFE38610BE0FDF784
:10517C00E7FE02463B69D31A41F28832934202D9C8
:10518C000323FB7704E0FFF7EDFD0346012BEED183
:10519C00FB7FBB7701E0FB7FBB777B681B6803F071
:1051AC000103002B04D07B689B691846FFF72AFE8D
:1051BC007B681B6803F00203002B04D07B68DB695F
:1051CC001846FFF735FE7B681B6803F01003002BB5
:1051DC0004D07B689B6A1846FFF75DFE7B681B68F2
:1051EC0003F02003002B04D07B68DB6A1846FFF722
:1051FC0052FE7B681B6803F00403002B04D07B6811
:10520C001B6A1846FFF72AFE7B681B6803F008032D
:10521C00002B04D07B685B6A1846FFF71FFE7B6887
:10522C001B6803F48073002B22D07B685B6B1846E1
:10523C00FFF78DFE7B685B6BB3F1006F07D14FF00E
:10524C00B043DB684FF0B04243F08073D3607B68AF
:10525C005B6BB3F1806F0BD17B680433184600F0A5
:10526C00DDF80346FB77FB7F002B01D0FB7FBB7780
:10527C007B681B6803F40073002B2BD07B689B6B43
:10528C00B3F1804F08D07B689B6BB3F1004F03D018
:10529C007B689B6B002B05D17B689B6B1846FFF7DB
:1052AC002AFE0AE07B689B6B23F08053FB60002096
:1052BC00FFF721FEF868FFF734FE7B689B6BB3F1B8
:1052CC00C05F07D14FF0B043DB684FF0B04243F002
:1052DC008073D3607B681B6803F48063002B22D03F
:1052EC007B68DB6B1846FFF73DFE7B68DB6BB3F12D
:1052FC00005F07D14FF0B043DB684FF0B04243F48E
:10530C008033D3607B68DB6BB3F1805F0BD17B6840
:10531C000433184600F0DDF80346FB77FB7F002BC7
:10532C0001D0FB7FBB777B681B6803F48053002B99
:10533C0004D07B685B6C1846FFF726FD7B681B6806
:10534C0003F40053002B09D07B68DB6C1846FFF785
:10535C0045FD7B689B6C1846FFF72CFDBB7F184600
:10536C002037BD4680BD80B584B000AF7860002387
:10537C00FB73FFF761FEFDF7E3FDB86009E0FDF795
:10538C00DFFD0246BB68D31A022B02D90323FB7341
:10539C0004E0FFF760FE0346002BF0D1FB7B002BF3
:1053AC0037D14FF0B0431B6923F4FE427B681B6876
:1053BC001B024FF0B04113430B614FF0B0431B691C
:1053CC0023F478127B685B684FF0B04113430B6198
:1053DC00FFF723FEFDF7B4FDB86009E0FDF7B0FD63
:1053EC000246BB68D31A022B02D90323FB7304E0D9
:1053FC00FFF731FE0346012BF0D1FB7B002B08D1CC
:10540C004FF0B0431A697B681B694FF0B0411343EE
:10541C000B61FB7B18461037BD4680BD80B584B050
:10542C0000AF78600023FB73FFF706FEFDF788FDE5
:10543C00B86009E0FDF784FD0246BB68D31A022B65
:10544C0002D90323FB7304E0FFF705FE0346002B90
:10545C00F0D1FB7B002B37D14FF0B0431B6923F409
:10546C00FE427B681B681B024FF0B04113430B617B
:10547C004FF0B0431B6923F060627B689B684FF070
:10548C00B04113430B61FFF7C8FDFDF759FDB86040
:10549C0009E0FDF755FD0246BB68D31A022B02D971
:1054AC000323FB7304E0FFF7D6FD0346012BF0D179
:1054BC00FB7B002B08D14FF0B0431A697B681B694A
:1054CC004FF0B04113430B61FB7B18461037BD46C0
:1054DC0080BD80B584B000AF78600023FB73FFF70C
:1054EC00ABFDFDF72DFDB86009E0FDF729FD024687
:1054FC00BB68D31A022B02D90323FB7304E0FFF71A
:10550C00AAFD0346002BF0D1FB7B002B37D14FF0CB
:10551C00B0431B6923F4FE427B681B681B024FF0EF
:10552C00B04113430B614FF0B0431B6923F0604251
:10553C007B68DB684FF0B04113430B61FFF76DFDE7
:10554C00FDF7FEFCB86009E0FDF7FAFC0246BB680B
:10555C00D31A022B02D90323FB7304E0FFF77BFD64
:10556C000346012BF0D1FB7B002B08D14FF0B0434D
:10557C001A697B681B694FF0B04113430B61FB7BCD
:10558C0018461037BD4680BD80B582B000AF78603C
:10559C007B68002B01D1012327E07B685B7ADBB2AF
:1055AC00002B05D17B6800221A727868FCF738FB57
:1055BC007B6802225A727B681B681B6823F02001EF
:1055CC007B685A687B681B680A431A607B681B6897
:1055DC001A687B681B6842F004021A607B6801221F
:1055EC005A727B680022DA60002318460837BD46E1
:1055FC0080BD80B582B000AF78607B68002B01D194
:10560C00012390E07B6893F82130DBB2002B06D1AC
:10561C007B68002283F820207868FCF72BFB7B68E2
:10562C00022283F821207B681B68CA225A627B689D
:10563C001B6853225A62786800F09FF80346002BCF
:10564C0009D07B681B68FF225A627B68042283F8AE
:10565C002120012367E07B681B689B687A681268CD
:10566C0023F4E00323F0400393607B681B68996884
:10567C007B685A687B681B691A437B689B691A4371
:10568C007B681B680A439A607B681B687A68D268DF
:10569C001A617B681B6819697B689B681A047B68B4
:1056AC001B680A431A617B681B68DA687B681B6895
:1056BC0022F08002DA607B681B68DA6C7B681B68FE
:1056CC0022F00302DA647B681B68D96C7B68DA69A8
:1056DC007B685B691A437B681B680A43DA647B68E6
:1056EC001B689B6803F02003002B13D1786800F033
:1056FC001EF80346002B0DD07B681B68FF225A62F4
:10570C007B68042283F821207B68002283F8202008
:10571C00012308E07B681B68FF225A627B68012228
:10572C0083F82120002318460837BD4680BD80B57C
:10573C0084B000AF78607B681B68DA687B681B6894
:10574C0022F0A002DA60FDF7FBFBF86009E0FDF740
:10575C00F7FB0246FB68D31AB3F57A7F01D9032312
:10576C0007E07B681B68DB6803F02003002BEED09E
:10577C00002318461037BD4680BD80B584B000AFFD
:10578C0078607B681B68DB6803F04003002B19D141
:10579C007B681B684FF0FF32DA60FDF7D1FBF860D5
:1057AC0009E0FDF7CDFB0246FB68D31AB3F57A7F0F
:1057BC0001D9032307E07B681B68DB6803F0400317
:1057CC00002BEED0002318461037BD4680BD0000DC
:1057DC0080B586B000AFF860B9607A60FB6893F86A
:1057EC002030012B01D10223A8E0FB68012283F8B1
:1057FC002020FB68022283F82120FB681B68CA2248
:10580C005A62FB681B6853225A62FB681B689B68D0
:10581C0003F48063002B20D0FDF792FB786115E038
:10582C00FDF78EFB02467B69D31AB3F57A7F0DD94F
:10583C00FB681B68FF225A62FB68032283F8212055
:10584C00FB68002283F82020032377E0FB681B68A9
:10585C00DB6803F00403002BE2D1FB681B689A6839
:10586C00FB681B6822F480629A60FB681B68DB682B
:10587C00DAB2FB681B6862F49062DA60FDF760FBD9
:10588C00786115E0FDF75CFB02467B69D31AB3F532
:10589C007A7F0DD9FB681B68FF225A62FB680322D2
:1058AC0083F82120FB68002283F82020032345E0A5
:1058BC00FB681B68DB6803F00403002BE2D0FB6879
:1058CC001B68BA685A61FB681B689A68FB681B689E
:1058DC0022F007029A60FB681B689968FB681B68DA
:1058EC007A680A439A60174BD3F88030154A43F410
:1058FC000023C2F88030134B1B68124A43F4002378
:10590C001360FB681B689A68FB681B6842F4804252
:10591C009A60FB681B689A68FB681B6842F480629B
:10592C009A60FB681B68FF225A62FB68012283F8AD
:10593C002120FB68002283F820200023184618370A
:10594C00BD4680BD0008005880B483B000AF7860BD
:10595C007B6893F82030012B01D1022324E07B6873
:10596C00012283F820207B68022283F821207B68A7
:10597C001B68CA225A627B681B6853225A627B6876
:10598C001B689A687B681B6842F020029A607B68EF
:10599C001B68FF225A627B68012283F821207B68F6
:1059AC00002283F82020002318460C37BD465DF8F2
:1059BC00047B704780B5BAB000AF78607B681B6819
:1059CC00DB69C7F8E4307B681B681B68C7F8E030FC
:1059DC007B681B689B68C7F8DC30D7F8E42040F67E
:1059EC000F031340C7F8D830D7F8D830002B1BD191
:1059FC00D7F8E43003F02003002B15D0D7F8E030B3
:105A0C0003F02003002B05D1D7F8DC3003F08053D2
:105A1C00002B09D07B681B6F002B00F0D6827B68B3
:105A2C001B6F78689847D0E2D7F8D830002B00F07D
:105A3C001F81D7F8DC208B4B1340002B06D1D7F8F5
:105A4C00E020894B1340002B00F01281D7F8E43092
:105A5C0003F00103002B11D0D7F8E03003F480736E
:105A6C00002B0BD07B681B6801221A627B68D3F871
:105A7C008C3043F001027B68C3F88C20D7F8E430FB
:105A8C0003F00203002B11D0D7F8DC3003F0010334
:105A9C00002B0BD07B681B6802221A627B68D3F840
:105AAC008C3043F004027B68C3F88C20D7F8E430C8
:105ABC0003F00403002B11D0D7F8DC3003F0010302
:105ACC00002B0BD07B681B6804221A627B68D3F80E
