:020000022000DC
:1070000000000420E1720200097302000B73020009
:107010000D7302000F7302001173020000000000E4
:1070200000000000000000000000000013730200D8
:1070300015730200000000001773020019730200AC
:10704000AD8F02001B730200E19402001B7302006B
:107050001B7302001B7302000D9002001B730200E1
:107060001B7302001B7302001B7302001B730200E0
:107070001B7302001B7302001B7302001B730200D0
:107080001B730200917E02001B7302001B7302003F
:107090001B7302001B730200D9A302001B730200C2
:1070A0001B7302001B7302001B7302001B730200A0
:1070B0001B7302001B7302000000000000000000B0
:1070C0001B7302001B7302001B7302001B73020080
:1070D0001B7302001B7302001B7302001B73020070
:1070E0001B7302001B7302001B73020000000000F0
:1070F000000000001B730200000000001B73020070
:10710000000000000000000000000000000000007F
:10711000000000000000000000000000000000006F
:10712000000000000000000000000000000000005F
:10713000000000000000000000000000000000004F
:10714000000000000000000000000000000000003F
:10715000000000000000000000000000000000002F
:10716000000000000000000000000000000000001F
:10717000000000000000000000000000000000000F
:1071800000000000000000000000000000000000FF
:1071900000000000000000000000000000000000EF
:1071A00000000000000000000000000000000000DF
:1071B00000000000000000000000000000000000CF
:1071C00000000000000000000000000000000000BF
:1071D00000000000000000000000000000000000AF
:1071E000000000000000000000000000000000009F
:1071F000000000000000000000000000000000008F
:1072000010B5054C237833B9044B13B10448AFF3E0
:1072100000800123237010BD08250020000000001D
:1072200004A902000C4B43B10C480D4910B5AFF353
:1072300000800C48036823B910BD0A48036833B9BD
:107240007047094B002BF7D0BDE810401847064B9C
:10725000002BF5D0184700BF0000000004A9020071
:107260000C2500200025002000000000154B002BFD
:1072700008BF134B9D46A3F5803A00218B460F466D
:107280001348144A121A03F076F90F4B002B00D062
:1072900098470E4B002B00D0984700200021040097
:1072A0000D000D48002802D00C48AFF3008003F019
:1072B00013F92000290002F0DBFE03F0F9F800BF0B
:1072C0000000080000000420000000000000000092
:1072D00008250020442C00200000000000000000D1
:1072E0000649074A074B9B1A03DD043BC858D05098
:1072F000FBDC01F041FBFFF7B9FF0000DCA9020055
:107300000023002008250020FEE7FEE7FEE7FEE759
:10731000FEE7FEE7FEE7FEE7FEE7FEE7F0B595B025
:10732000002415460F4608461E4601F07DFA3846F1
:1073300023460822089505A91A9D09960D950A94D9
:107340008DF82C400C9401F0CBFA9DF8143007987E
:1073500006998DF8114003F00302012A029003916F
:1073600028D0022A04D0384601F062FA15B0F0BDE8
:10737000BDF81650C3F3C2038DF81030C5F389155C
:107380000826082D2C4628BF0824334622460EA97D
:10739000384601F0A5FA2D1B214608AB02AA0EA81B
:1073A000264400F085FB002DEBD1384601F040FA71
:1073B00015B0F0BDBDF81460059DC6F38316C3F388
:1073C000C204B2000EA9384608238DF81040C5F358
:1073D000952501F085FA08AB0093324628460EA9A0
:1073E00002AB00F0BFFABEE7704700BF00B583B044
:1073F000044B0093044A4023FFF790FF03B05DF86D
:1074000004FB00BF0D7402002825002038B50E488B
:107410000E4D03780E4CEB5C00252570D2B253B9AB
:107420000C3002F0EDFA58B90A4B1B7813B12378EF
:10743000002BFCD038BD043002F0C8FD0028F3D08A
:1074400000F0E8FBF0E700BF00230020402C002004
:10745000682500202425002070B51348134A0378BE
:10746000D35C88B0DBB90C3002F046FA104D0FCD7A
:107470006C460FC495E80F0008AD1F2645F8206D37
:1074800084E80F0029460022074801F00FFD08B1EB
:1074900000F0C0FB074B00221A7008B070BD04302A
:1074A00002F0E0FCE2E700BF00230020402C0020B7
:1074B000CCA502002425002070B5324D84B005F51E
:1074C000836000F08FFD05F2144000F08BFDAB6887
:1074D000D8B2C11C05EB810215F8214014F0040458
:1074E0000ED0117801F0030101293AD0022903F1ED
:1074F000020600F1030126D005EB8102002CF0D139
:1075000005EB80005A1CC1680191D2B205EB8202E2
:1075100001F00301D2680292012903F1020428D08C
:10752000022924D1BDF80630BDF80A60C3F38913DF
:10753000033304EB9304144800F062FD00B1AC6027
:10754000304604B070BD538806EB9313D8B2C11C0B
:1075500005EB810215F8214004F00404002CC0D191
:10756000CEE712880233C2F383121344EEE70026FB
:10757000E1E7BDF80430BDF80A60C3F383131C448F
:10758000D9E700BF3C260020502A002021B9114B2A
:1075900003EBC0000068704730B40F4A0D4C121B5B
:1075A000D2080CD00D4D2B88834210D0002303E06D
:1075B00035F82310814205D001339A42F8D10020DA
:1075C00030BC704704EBC300006830BC70472046F5
:1075D000FAE700BF4CA90200C4A90200042500205C
:1075E000094B013903EBC00003290BD8DFE801F098
:1075F00002080604022070474079704700797047FE
:1076000004207047002070474CA90200704700BF5B
:107610002DE9F0438B4C6268A3689A4285B000F074
:10762000C3800023C4F81834BFF34F8FA368D9B2C6
:10763000CA1C04EB820514F82220500719D566688D
:107640002A7802F00302012A43D0022A03F102023F
:1076500002D16B8802EB9313D9B2D4F81804CA1C78
:1076600004EB820528B99E4239D914F8222052072A
:10767000E6D404EB81015A1CC9680191D2B204EB33
:10768000820201F00301D2680292022903F102058D
:1076900029D0012900F08C80D4F810543DB12B681A
:1076A00028469B689847EB681D68002DF7D166480F
:1076B000664B6749C01AC008000440F0020000F0A1
:1076C000CDF8A0686368C01A18BF012005B0BDE8F6
:1076D000F0832A880233C2F383121344BCE7A66006
:1076E00005B0BDE8F083BDF806305A48C3F38918E9
:1076F000B8F1500FC146A8BF4FF0500969F38F137E
:1077000009F10801ADF8063001F046F806460028F8
:10771000C2D001F089F8002301A90822304601F007
:10772000A9F8EB43DBB201339F00B945E9B27AD93E
:10773000A9EB0709033104EB810108233A463046DF
:107740005FFA89F901F096F84A4607F108034249C1
:10775000304601F08FF808F1030705EB9707D4F8DE
:107760001834002B68D1D4F810545DB1EB685A7905
:10777000314628461AB12B681B689847EB681D688C
:10778000002DF3D1304601F053F804A8002300F88F
:107790000D3D00F029FBD4F8183403B9A7609DF81B
:1077A000030000F047FB8CE7002005B0BDE8F08344
:1077B000BDF804302748C3F38312062A28BF0622E7
:1077C000911C62F389138900ADF8043000F0E4FFE6
:1077D000064600283FF460AF01F026F80023082297
:1077E00001A9304601F046F8BDF8043013F4707F6B
:1077F00026D04FF000094FF00808E9B203314346A4
:1078000004EB81010422304601F034F8BDF8043065
:1078100009F10109C3F383136F1C4B4508F10408F8
:107820003D46EAD89BE703314A4604EB8101082331
:10783000304601F01FF88EE7304600F0F9FF40E7D0
:107840002F468CE73C26002074A902004CA90200B8
:107850000CA6020038A90200482600202DE9F041BC
:1078600082B002AB002203F8012D324C07461846C5
:10787000884600F0B9FAA368666803F580739B1B1D
:10788000012B55D804F21C450121284600F08EFB3F
:10789000FFF712FE0146284600F088FBA3686268E5
:1078A00003F580739B1A012BEED90125D3B2033364
:1078B00045F0040102326FF389119DF8070044F886
:1078C0002310626000F0B6FA00211B4800F046FB6E
:1078D00080F310007319DBB204EB83030004F6B2EB
:1078E000033640EA1740D86014F8263067F3C50322
:1078F00004F8263034F826306FF3891324F8263044
:1079000054F8262068F39F22134665F301036FF3B2
:10791000820344F8262004F8263023781BB1FFF7B1
:1079200077FE0028FBD1FFF771FE02B0BDE8F081C1
:107930003246BAE73C260020582A002038B5084BCA
:10794000D3F8104401251D704CB1E3685D712368C4
:1079500020465B689847E3681C68002CF5D138BD69
:107960003C2600202DE9F04784B01D460C9C0023E6
:1079700094F80C802373EB8881460E461746002B43
:107980003BD1297A05290FD06B7A002B3DD1404B92
:10799000A88853F821A00021FFF7F8FD52460346BE
:1079A0003C49204600F08AFB062F0FD8DFE807F09D
:1079B000484D535A04633900F168B06896E80C00EA
:1079C000019100904946204600F078FB2B7A052B68
:1079D00005D06B7A5BB93049204600F06FFB20463A
:1079E00000F060FB84F80C8004B0BDE8F0872B4AFF
:1079F0002B49204600F062FBEDE7284A0092294916
:107A0000294A204600F05AFBBBE7A888FFF7E8FDAB
:107A1000264B234953F82020204600F04FFB297ABB
:107A2000B5E77069316996E80C000390B068F768B3
:107A300002918DE881004946204600F03FFBC5E7F2
:107A40004946204600F03AFBC0E7326849462046E6
:107A500000F034FBBAE7494696E80C00204600F0F7
:107A60002DFBB3E7B16896E80C002046009149462B
:107A700000F024FBAAE7B068F768316996E80C00CB
:107A800002918DE881004946204600F017FB9DE7F2
:107A900098A6020088A6020094A602007CA6020016
:107AA00084A6020064A602005CA6020024A60200CE
:107AB000082900D970472DE9F04F1D469046002354
:107AC0002A7B2B7385B0B8F80630039207460E4622
:107AD000002B6FD198F80810052911D098F80930BB
:107AE000002B6FD13E4BB8F8040053F82140002121
:107AF000FFF74CFD224603463A49284600F0DEFADD
:107B0000DFF800B1DFF800910024A642494628467C
:107B100039D93A5D013400F0D1FA082CF5D1324957
:107B2000DFF8E8B0DFF8E890284600F0C7FA002454
:107B30000CE017F804A0BAF17E0F2CD92E2249468A
:107B40002846013400F0BAFA082C08D0A642F0D832
:107B500059462846013400F0B1FA082CF6D198F8BD
:107B60000830052B02D098F80930EBB91F49284698
:107B700000F0A4FA284600F095FA9DF80C302B731B
:107B800005B0BDE8F08F01345946284600F096FA5A
:107B9000082CBAD1C3E702F0C3FC504452464378E4
:107BA00013F0970FCAD0CAE7114A1249284600F0CD
:107BB00085FADBE70E4A00920F49104A284600F08A
:107BC0007DFA87E7B8F80400FFF70AFD0C4B094976
:107BD00053F82020284600F071FA98F8081081E741
:107BE00098A6020088A6020054A6020094A60200ED
:107BF0007CA6020084A6020064A602005CA6020025
:107C000024A6020050A6020048A6020090A6020088
:107C100058A6020000B585B000230390194601AABA
:107C200044F201000193029300F004F805B05DF8FE
:107C300004FB00BF10B572B6FFF780FEFFF7E8FC4B
:107C40000028FBD1104B114C1149E41AE40824041C
:107C500044F00100FFF702FE0E4B1B68DB0700D566
:107C600000BE44F002000C49FFF7F8FDBFF34F8F50
:107C70000A490B4BCA6802F4E0621343CB60BFF3BE
:107C80004F8F00BFFDE700BF4CA9020074A902009E
:107C900010A70200F0ED00E01CA7020000ED00E0DC
:107CA0000400FA052DE9F04F83B002AD002405F879
:107CB000044D8246284617460E4600F095F8DAE94C
:107CC0000223013308BFB2F1FF3F07D09DF8040043
:107CD00000F0B0F8204603B0BDE8F08F204800F077
:107CE000C1F8204B2049D3E90023D1E9008912EBE8
:107CF000000B43F1000CCC4508BFC3455846614614
:107D000003D21BF180704CF10001801941F1000198
:107D1000CAE902019DF8040000F08CF8DAF810308E
:107D2000CAF818700BB1CAF8106029460F4800F065
:107D3000B9F880B10024C0F804A0047029460B48AB
:107D400000F0DEF80028C6D0054800F08FF8204685
:107D500003B0BDE8F08F042003B0BDE8F08F00BF92
:107D60001C230020602A0020782A0020682A002096
:107D700070B582B002AC002504F8045D06462046CA
:107D800000F032F8D6E90223013308BFB2F1FF3F19
:107D90001ED04FF0FF324FF0FF339DF80400C6E9CC
:107DA000022300F047F821460D4800F07BF860B14F
:107DB0000123466003702146094800F0A1F828B16C
:107DC000084800F053F8284600E0042002B070BDD7
:107DD0009DF8040000F02EF8284602B070BD00BFE8
:107DE000682A00201C23002070B4EFF3108472B6C0
:107DF0000D4B9A68AAB90D490D4E01259D60D1F829
:107E0000805035401D60C1F88060D1F884505D60BD
:107E10004FF0FF33C1F88430027004B962B670BC11
:107E2000704701230370F8E7342C002000E100E0E4
:107E3000FC06FFBD094B9A6872B168B910B4EFF344
:107E4000108172B6064A1C6814605C6854609860C1
:107E500001B962B65DF8044B704700BF342C0020B6
:107E600000E100E00368D3F80405704790F904309E
:107E7000002B09DB5A09403203F01F03012103489C
:107E800001FA03F340F82230704700BF00E100E040
:107E9000024A034B10681B68184700BF802A002065
:107EA000882A002030B482B050E8013F9DB2C489D6
:107EB00025448489A54228BF2D1B0489A54202BF01
:107EC000BFF32F8F002207E0C5EA030540E8015405
:107ED000002CE9D14FF001028DF803200193019BA2
:107EE0009DF803200B602AB10B880068184402B08B
:107EF00030BC704702F0FF03184602B030BC704738
:107F00000A884B889A4201D00020704750E8012F20
:107F1000C2EA024240E80123002BF7D1012070475A
:107F200001F01F024B09012100EB8300914000F09A
:107F300021B800BF01F01F0201234909934000EB63
:107F40008100D94300F024B84B0901F01F0150F81B
:107F50002300C84000F00100704700BF00B550E8A2
:107F6000002F0B4640E8003E9EF0000FF7D1104670
:107F70005DF804FB00B550E8003F43EA010240E829
:107F8000002E9EF0000FF6D110465DF804FB00BFF6
:107F900000B550E8003F03EA010240E8002E9EF0E1
:107FA000000FF6D110465DF804FB00BF00B550E8A5
:107FB000003F03EB010240E8002E9EF0000FF6D1D7
:107FC00010465DF804FB00BF00B550E8003FA3EB8E
:107FD000010240E8002E9EF0000FF6D110465DF839
:107FE00004FB00BF00B5012350E8002F42EA030E56
:107FF00040E800E191F0000FF6D170465DF804FB17
:1080000000B5002350E800EF0EEA030240E800212B
:1080100091F0000FF6D170465DF804FBF0B583B027
:1080200002AB002503F8015D04461846FFF7DCFEAD
:10803000236861681A688A4210D9511E1960216844
:10804000A3680E6812F8015C0A79278AE0689B1B16
:10805000DBB29A4207FB050538BF0B719DF807009C
:10806000FFF7E8FE284603B0F0BD00BF30B583B08F
:1080700002AB002203F8012D054618460C46FFF717
:10808000B3FE2A681368591C1160E9682A8A641AC9
:10809000B4FBF2F41C709DF80700FFF7CBFE03B0B1
:1080A00030BD00BF826802B9704710B5044643690D
:1080B0000168006998470023A36010BD0EB400B5A5
:1080C00082B0039929B102AA04AB42F8043D00F042
:1080D000A3F802B05DF804EB03B070472DE9F04F50
:1080E000164683B0B1428A4605469846DDF830B060
:1080F0000D9AC0F08D800B460127B3FBF6F39E422C
:1081000007F10107F9D9474538BF474612F0010387
:10811000009302D1BBF1000F59D1A868012403E0FC
:1081200008F1FF3806FB04F4B8F1010FF8D8BAFBE8
:10813000F4F29642F6D9DFF8DC904FF00D0810E02B
:108140002968421CAA600B54AA686B689A4202D341
:108150002846FFF7A7FFB4FBF6F4C4B1BAFBF4F26C
:10816000A86819F802300A2B04FB12AAE8D1296882
:10817000421CAA6001F80080A8686A689042DFD3B8
:1081800028460193FFF78EFFA868019BD8E7009B64
:10819000B3B1BBF1000F13D0BB4588BF20240FD96A
:1081A000AB682A68591CA960D454AA686B689A42C3
:1081B0000BF1FF3B07D2BBF1000F01D0BB45EFD164
:1081C00003B0BDE8F08F2846FFF76CFFF3E7930795
:1081D00018D42024BB45A0D9A8682A68431CAB60EA
:1081E0001454A8686A6890420BF1FF3B05D2BBF1BA
:1081F000000F93D0BB45F0D190E72846FFF752FF20
:10820000A868F4E7B8F1000F0CBF30242024E1E7A0
:10821000012778E738A70200002900F0B9822DE98C
:10822000F04FDFF870A50D7885B0064691460C46F4
:108230000134002D00F0A080252D40F0A2814FF0E8
:108240000008214614F8012B2D2A00F09481302AD1
:1082500000F094812B2A00F086812A2A00F0A18167
:10826000A2F13005EBB2092B98BF013102D9CAE166
:10827000A3F130050C4611F8012BA2F1300005EBFB
:108280008503092802EB4303F2D92E2A00F09581D9
:10829000002701E014F8012F02F0FB03682BF9D04E
:1082A000253A532A63D8DFE812F0400162006200E9
:1082B00062006200620062006200620062006200AE
:1082C000620062006200620062006200620062009E
:1082D000620062006200620062006200620062008E
:1082E000620062006200620062006200620062007E
:1082F000620062006200620062006200620062006E
:10830000620062006200620062006200620062005D
:108310004F0162006200620062006200620062005F
:108320006200620062002901D10062006200620006
:108330006200D100620062006200620062006200BE
:10834000AC00620062006E006200540062006200D5
:108350004F01D9F800301A1DC9F800201968CDF86E
:1083600004803B4600950A223046FFF7B7FE0134F1
:108370002578002D7FF45CAF337B002B40F0BD816E
:1083800005B0BDE8F08FD9F800301A1DC9F80020FB
:1083900018F0010F1F6840F03981002F00F0D881DC
:1083A000384602F0F0F88046454515D9A5B14FF0A2
:1083B000200B00E085B1B2683368511CB16003F84E
:1083C00002B0B26873689A4205F1FF3502D33046B5
:1083D000FFF768FE4545EDD1013F17F8015F002D1D
:1083E000C5D00A2DB36800F078813268591CB1609D
:1083F000D554B26873689A42EFD33046FFF752FE05
:10840000EBE7D9F80020131DC9F80030B3683168D4
:108410001568581C3022B060CA54B3687268934221
:1084200080F027813268581C7821B060D154B2683E
:1084300073689A4280F02281002208230192294623
:10844000009310223046FFF749FE90E7D9F800303C
:108450001A1DC9F80020D3F800B08BEAEB73A3EB28
:10846000EB73092B4FF0010108DD8AFB0302DB17D8
:10847000C3EBA203092B01F10101F6DCB94238BFBD
:1084800039462DB3BBF1000F02DB18F0040F00D00A
:10849000013D18F0020F00D0D7B118F0010F17D12D
:1084A000002D00F04981A94238BF202310D2B268C4
:1084B000501CB06030688354B2687068824205F125
:1084C000FF3580F03B81002D00F03681A942EED1CE
:1084D000BBF1000FC0F23E8118F0040F40F0138191
:1084E00008F00303022B00F0CD808DE820013B460D
:1084F00059460A223046FFF7F1FD38E7D9F8003037
:108500001A1DC9F800201D78B3680A2D00F03081CB
:108510003268591CB160D554B26873689A42FFF44E
:1085200026AF3046FFF7BEFD21E7B3683268581C1E
:108530002521B060D154B26873689A42FFF417AF36
:108540003046FFF7AFFD12E7D9F800301A1DC9F821
:1085500000201968CDF804803B4600951022304673
:10856000FFF7BCFD03E7214614F8012B2D2A48F044
:1085700004087FF46CAE48F0010862E648F0020897
:108580005FE60A2DB3682FD03268591CB160D5540C
:10859000B26873689A42FFF4EBAE3046FFF782FD93
:1085A000E6E6D9F800301A1DC9F800204A781D689F
:1085B0002E2A01F101047FF46BAE6278A2F1300340
:1085C000092B04F101044FF000073FF665AE07EBFD
:1085D000870702EB470714F8012FA2F13003092B9C
:1085E000A7F13007F3D957E6591C3268B1604FF054
:1085F0000D01D154B36872689342C5D33046FFF77A
:1086000051FDB368C0E70C4600253EE6B846A8EB2E
:10861000070B18F8013B9BB10A2BB1684CD03268AC
:10862000481CB0605354B26873689A42EFD3304626
:10863000FFF738FDA8EB070B18F8013B002BEBD137
:108640005D457FF694AE202702E0002D3FF48FAE0B
:10865000B2683368511CB1609F54B26873689A4223
:1086600005F1FF3502D33046FFF71CFD5D45ECD127
:108670007DE63046FFF716FDB368D3E63046FFF7D8
:1086800011FDD9E6002F7FF430AF002D5ED0A94256
:1086900038BF3023BFF429AFB268501CB0603068D7
:1086A0008354B2687068824205F1FF353CD2002DD8
:1086B0004CD0A942F0D118E7481C3268B0604FF0A6
:1086C0000D005054B16872689142A8D330460293AD
:1086D000FFF7E8FCB168029BA1E7591C3268B16062
:1086E0004FF00D01D154B36872689342FFF47DAE30
:1086F0003046FFF7D7FCB36877E6304605B0BDE8F3
:10870000F04FFFF7CFBCB268531CB36033682B2027
:108710009854B26873689A42FFF4E2AE3046029110
:10872000FFF7C0FC0299DBE6304603930291FFF7A6
:10873000B9FC039B0299BAE70025C9E630460393CA
:108740000291FFF7AFFC039B0299BCE60025CCE643
:10875000B84629E6B268531CB36033682D2098549C
:10876000B26873689A42CBF1000BFFF4B9AED5E75B
:10877000591C3268B1604FF00D01D154B368726872
:108780009342FFF4C5AE3046FFF78CFCB368BFE6FA
:10879000704700BF676666662DE9F041B0F810804B
:1087A000CF1CA8F1040847440646B7FBF8F7FFF7CB
:1087B00035FC80B3FFB200250123013F0446A0F839
:1087C000068006600571437128D0804609E0637910
:1087D000AF4203F101036371C8F8000006608046F0
:1087E0001CD03046FFF71AFC01350028EFD166791E
:1087F000721E16D02346013082421B68FBD81F68C8
:108800004EB1214600250C6801353846FFF72EFC95
:10881000AE422146F7D10020BDE8F0812046BDE8F8
:10882000F0812768EDE700BF04300121FFF7BEBBF0
:10883000F8B5012104460430FFF7C6FBC0B200B111
:10884000F8BD6679721E12D02346013082421B6841
:10885000FBD81F68002EF3D0214600240D68013498
:108860003846FFF703FCA6422946F7D1F8BD276832
:10887000F2E700BF2DE9F843C78890F805E01546F8
:1088800007FB0EFEEC18AEF1040E1A1DA645884635
:10889000B2FBF7F638BFAEEB030507FB1621044623
:1088A00016B1013E2468FCD17E1AAE4228BF2E4686
:1088B0009DB14FF00009081DAD1B08EB09012044D4
:1088C000324601F04DFEAF42B14424683E464FF0BF
:1088D000000128BF2E46002DEDD1BDE8F88300BF72
:1088E0002DE9F843C78890F805E0154607FB0EFE12
:1088F000EC18AEF1040E1A1DA6458846B2FBF7F639
:1089000038BFAEEB030507FB1621044616B1013E46
:108910002468FCD17E1AAE4228BF2E469DB14FF08E
:10892000000904312144AD1B324608EB090001F077
:1089300017FEAF42B14424683E464FF0000128BF05
:108940002E46002DEDD1BDE8F88300BF01600B6815
:1089500043604A68934204BF00234360704700BFEE
:10896000436843B1026891680B4443605268934284
:1089700004BF00234360704710B4894B1B68082B69
:1089800021D0884AD2F8883043F47003C2F8883086
:10899000BFF34F8FBFF36F8F814B1B68082B00F025
:1089A000AD804FF01023D3F80022002AC0F2C1801E
:1089B000D3F80432002BC0F2BC807B4B7B4A1A6098
:1089C0005DF8044B70474FF080414FF0805200201B
:1089D000C1F80C01764BC1F81001C1F83805D2F886
:1089E0000414C3F82015D2F80814C3F82415D2F8DB
:1089F0000C14C3F82815D2F81014C3F82C15D2F8AB
:108A00001414C3F83015D2F81814C3F83415D2F87A
:108A10001C14C3F84015D2F82014C3F84415D2F83A
:108A20002414C3F84815D2F82814C3F84C15D2F80A
:108A30002C14C3F85015D2F83014C3F85415D2F8DA
:108A40003414C3F86015D2F83814C3F86415D2F89A
:108A50003C04C3F868055749D2F84004C3F86C05D4
:108A60000968D2F84424C3F8702505293AD8524B36
:108A70005B5C13B1514B524A1A60524B5B5C002B4A
:108A800000F08B80464B50491B684A4AFB20C1F8D6
:108A90001805082B12687FF474AF052A22D84B4BB7
:108AA0009B5C002B76D04A494A4B3D480A681B68BC
:108AB0000068404C22F00F0203F00F031343082814
:108AC00024680B607FF45DAF052C0BD8424B1B5D17
:108AD00043B1334B414A1B684FF40071082B1160BE
:108AE0007FF44FAF4FF08043D3F80024D2077FF5D7
:108AF00048AF6FF00102C3F8002442E72D4B1B681A
:108B0000052B08D94FF010224FF08043D2F80822ED
:108B1000C3F8582545E7324AD35C002B3FF441AFF8
:108B20004FF010224FF08043D2F80822C3F85825A6
:108B300037E72C4B0122C3F80425D3F80024002A80
:108B4000FBD04FF0102312222649C3F80022D1F89F
:108B50000034002BFBD04FF010221221214BC2F821
:108B60000412D3F80024002AFBD000221D49C3F8C8
:108B70000425D1F80034002BFBD0BFF34F8F0949F7
:108B8000194BCA6802F4E0621343CB60BFF34F8F06
:108B900000BFFDE7074B1C6898E7064B1A687EE7A5
:108BA0003001001000ED00E0242300200090D003ED
:108BB00000C000403401001060A702008C56004045
:108BC0004881030060A7020000F0004060A7020097
:108BD000E40E00405802001060A7020040960240D8
:108BE00068A7020000E001400400FA05074B1B5C87
:108BF0001F2B86BF03F01F0305494FF0A041012240
:108C000002FA03F3C1F80C35704700BF70A70200E9
:108C100000030050074B1B5C1F2B86BF03F01F0394
:108C200005494FF0A041012202FA03F3C1F80835CB
:108C3000704700BF70A7020000030050034BD3F839
:108C400010056FEA901000F001007047000300501B
:108C5000C30706D4830742BF2E4B0C22C3F8182744
:108C60007047F0B44FF08043D3F84036D90722D490
:108C70004FF0A04327490322C3F818274027C3F821
:108C800020274FF48076C1F824274FF40075C3F8ED
:108C900030274FF480548207C3F80875C3F808657D
:108CA000C1F80855C3F8084503D51A4B0C22C3F880
:108CB0001827F0BC70474FF01023D3F8043303F0AB
:108CC0000703072BD4D1144B0122C3F80425D3F892
:108CD0000024002AFBD04FF010210020D1F80423FB
:108CE0000D4C22F0070242F00402C1F80423C3F83D
:108CF0000405D4F80034002BFBD0BFF34F8F074995
:108D0000074BCA6802F4E0621343CB60BFF34F8F96
:108D100000BFFDE70003005000E0014000ED00E06F
:108D20000400FA0510B568B101280AD10C4C23697A
:108D3000A07033B10CCB0120226198472369002B2E
:108D4000F8D110BD064CA36801226270002BF8D048
:108D50000CCB0020A2609847A368002BF8D110BD6F
:108D60008C2A002068B910B5064CA36801226270F5
:108D700033B10CCB0020A2609847A368002BF8D138
:108D800010BD70478C2A002030B5012883B027D051
:108D90001CD3032818D100F0DBF802A80023254CCF
:108DA00000F8013DFFF720F8E368013BE360E3686A
:108DB00033B9214BD3F8005415B900F0DBF8A57096
:108DC0009DF80700FFF736F803B030BD1B4B0122BA
:108DD000C3F88020BFF34F8FBFF36F8F03B030BD58
:108DE00002A80023134C00F8013DFEF7FDFF237895
:108DF00053B1E3689DF8070001330122E360A270DC
:108E0000FFF718F803B030BD0D486360A36023611D
:108E1000E36000F08FF801F0D9FA40B10123064A6F
:108E20002370D2F80024002AE3D0A370E1E700F019
:108E30008FF8F3E78C2A00200000014000E100E0F9
:108E4000258D020070B50A4A0A4B06784568846889
:108E5000C06853F8213052F8211084B003908DF887
:108E6000006001958DF808406846984704B070BDD1
:108E7000A02A0020A82A002070B50A4A0A4B0678CA
:108E800045688468C06853F8213052F8211084B0D6
:108E900003908DF8006001958DF80840684698476A
:108EA00004B070BDA02A0020A82A00202DE9F043BC
:108EB000DFF8748006784B7F08F806300D460746C9
:108EC00094460FCD89B06C460FC495E80F003D78ED
:108ED000DFF85890DFF858E018F8055049F826C038
:108EE00084E80F004EF82600049665B1BCF1000F2F
:108EF0000B4A694607F1040008BF002200F09AFE01
:108F000009B0BDE8F083BCF1000F064A694607F1DD
:108F10000C0008BF002200F0FFFB09B0BDE8F083A1
:108F2000458E0200798E0200402C0020A82A0020E5
:108F3000A02A0020054A13790BB185207047012132
:108F40001060537118461171704700BFB02A00209D
:108F5000074B1A68D20704D4C02283F800230122E9
:108F60001A604FF080430122C3F81825704700BFF4
:108F700000E100E010B40B4B0B494FF080420020A1
:108F80000224C2F8084383B018601B6801930123D0
:108F900001980B60D2F81834DB03FBD403B05DF802
:108FA000044B7047040100400C00004010B5144B06
:108FB0001A6882B062B10021124A19601B685079A8
:108FC00000934FF080410123009CC1F8083390B119
:108FD0000D4B1A686AB100221A601B6801934FF0AA
:108FE00080420221074B0198C2F808131B68012038
:108FF000984702B010BD116853718847E8E700BF79
:1090000000010040B02A0020040100402DE9F04793
:1090100084B00023664A039302931168012900F08B
:10902000BB801E46634B1A68012A00F0A780624B82
:109030001A68012A00F09480604B1A68012A00F037
:1090400081805F4B1A68012A6FD05E4B1A68012A33
:109050005ED05D4B1A68012A4DD05C4B1A68012A1C
:109060003CD05B4B1A68012A23D016F0FF0F1AD0B0
:10907000584F01250024A30003F180432E4203F53D
:10908000C0434FEA45050BD0D3F8100557F824200C
:10909000D3F81015C0F30520C1F3014102B1904788
:1090A0000134082CE7D1002EC0F29A8004B0BDE84C
:1090B000F08700221A601B6801934FF0A042019BC9
:1090C000D2F82015444B0291C2F82015D3F8202580
:1090D000039246F00046C3F82025C6E73F4AD2F87F
:1090E00004231106BDD500221A601B680093009B63
:1090F00046F08006B5E7394AD2F804235006ACD5CD
:1091000000221A601B680093009B46F04006A4E70B
:10911000324AD2F8042394069BD500221A601B68B9
:109120000093009B46F0200693E72C4AD2F80423D4
:10913000D5068AD500221A601B680093009B46F072
:10914000100682E7254AD2F8042317077FF579AF86
:1091500000221A601B680093009B46F0080670E727
:109160001E4AD2F8042352077FF566AF00221A6028
:109170001B680093009B46F004065DE7174AD2F88F
:10918000042391077FF553AF00221A601B680093F8
:10919000009B46F002064AE71049D1F8046316F036
:1091A00001063FF43FAF136013680093009B39E75B
:1091B0000061004004610040086100400C61004013
:1091C0001061004014610040186100401C610040C3
:1091D0007C610040B82A002000030050006000407D
:1091E000BD4CBE4E01254FF0A04794F960305A1C8B
:1091F00046D0DBB204AA23F0C00002EBD00103F09A
:10920000070211F8081C05FA02F2114238D01F2893
:109210004FEA931900F2238103464FF0A04A0AEB6C
:1092200083022118D2F800E7D2F800C72CF4403CA2
:10923000C2F800C7CEF3014E91F930C0D2F8001742
:1092400054F82C80BEF1020F14BF4FF4003C4FF4D1
:10925000403C05FA03F34CEA0101C2F80017CAF8D2
:109260002035B8F1000F0BD0B9F1030F00F00B81DE
:10927000BEF1020F00F02681BEF1030F00F0FF8067
:1092800094F96130581C46D0DBB204AA23F0C00028
:1092900002EBD00103F0070211F8081C05FA02F2F4
:1092A000114238D01F284FEA931900F2DC800346A0
:1092B0004FF0A04A0AEB83022118D2F800E7D2F857
:1092C00000C72CF4403CC2F800C7CEF3014E91F920
:1092D00030C0D2F8001754F82C80BEF1020F14BF32
:1092E0004FF4003C4FF4403C05FA03F34CEA010113
:1092F000C2F80017CAF82035B8F1000F0BD0B9F149
:10930000030F00F0C780BEF1020F00F0D280BEF163
:10931000030F00F0BB8094F96230591C45D0DBB2DA
:1093200004AA23F0C00002EBD00103F0070211F8F9
:10933000081C05FA02F2114237D01F284FEA931990
:1093400000F2958003464FF0A04A0AEB83022118F1
:10935000D2F800E7D2F800C72CF4403CC2F800C7AE
:10936000CEF3014E91F930C0D2F8001754F82C809A
:10937000BEF1020F14BF4FF4003C4FF4403C05FA1D
:1093800003F34CEA0101C2F80017CAF82035B8F11E
:10939000000F0AD0B9F1030F00F08280BEF1020F76
:1093A00000F09580BEF1030F77D094F963305A1C1A
:1093B00042D0DBB204AA23F0C00002EBD00103F0DC
:1093C000070211F8081C05FA02F2114234D01F28D6
:1093D0004FEA93194FD803464FF0A04A0AEB830295
:1093E0002118D2F800E7D2F800C72CF4403CC2F8AC
:1093F00000C7CEF3014E91F930C0D2F8001754F8EF
:109400002C80BEF1020F14BF4FF4003C4FF4403CDF
:1094100005FA03F34CEA0101C2F80017CAF8203537
:10942000B8F1000F08D0B9F1030F3FD0BEF1020F21
:1094300044D0BEF1030F36D0D7F820350293C7F8D9
:109440002035D6F820250392C6F82025002B7FF47E
:10945000CCAE002A7FF4C9AE04B0BDE8F08703F0BB
:109460001F03B246DBE603F01F03B24622E703F018
:109470001F03B24669E703F01F03B246AEE7B9F136
:10948000020F7FF4FDAE4946C047F9E6B9F1020F7D
:109490007FF441AF4946C0473DE7B9F1020F84D19F
:1094A0004946C04781E7B9F1020FC5D14946C047D7
:1094B000C2E7B9F1010F7FF42EAFEBE7B9F1010F6D
:1094C000BAD1F3E7B9F1010F7FF4DAAEDBE7B9F116
:1094D000010F7FF46AAFE3E7B82A002000030050D1
:1094E000014B1B68184700BF242B0020104B9842EB
:1094F00001D00020704730B583B002A8002300F8E7
:10950000013D0D46FEF770FC0A4B1C7934B19DF805
:109510000700FEF78FFC112003B030BD01229DF83B
:1095200007001D601A71FEF785FC204603B030BDB0
:1095300000200040242B0020034B984203D1034B12
:1095400000221A601A71704700200040242B00206E
:1095500030B56F4AD2F8043399058BB05BD5D2F899
:109560002431002B57D00023C2F82431D2F8243103
:1095700001934FF40171674B0198C2F8081393F8F7
:10958000291009B901215160614902228DF8182082
:10959000D1F88024C1F880249869D9680992002202
:1095A000089007919A6193E81200DA6106A8A04733
:1095B000574AD2F81C31C3B1564B5869196A8842D0
:1095C00065D993F8281001F0FF0000295FD1C2F897
:1095D0001C01D2F81C11039103999C68186A196A3E
:1095E000205C01311962C2F81C05494AD2F84431A5
:1095F0007BB10021474BC2F84411D2F8440193F8E3
:1096000029100090009809B1012111609A69002A7F
:1096100054D10BB030BD3E4AD2F804335B07C7D5F6
:10962000D2F80831002BC3D03A4B9969002954D0A5
:109630000021C2F80811D2F8081104910499D868E1
:10964000596AD2F8182542545A6A996901325A6205
:109650005A6A8A42ACD1DA69002A47D193F82920A4
:1096600012B92B4A01215160294A4FF40171C2F805
:109670000813596ADA6808910024012007928DF8CE
:10968000180093E806009C6106A8904790E7204ADE
:109690000021C2F81C11D2F81C210292029A5A69C8
:1096A000002AA2D058699A688DF81810089059615C
:1096B000079206A893E80600904796E70022586AAA
:1096C000D9689A610122089007918DF8182006A8A0
:1096D00093E8060090470BB030BDC2F80811D2F8ED
:1096E000080105900598D2F81825B1E7DD685C6A95
:1096F00018699A6101210022D860DA615A628DF8F6
:1097000018100795089493E8060006A890474FE7BD
:10971000002000402C2B00202DE9F041704E0579EF
:109720002C2303FB056382B093F82A301BB1082079
:1097300002B0BDE8F0810F4604466A4900689046D1
:10974000FFF7D4FE18B1112002B0BDE8F0813B68EC
:10975000591C19D01F2B4FF001028ABF62494FF0EC
:10976000A04103F01F0302FA03F3C1F808353B6878
:109770001F2B86BF03F01F035B4A4FF0A04203F587
:10978000E073032142F823107B685A1C0BD01F2B77
:1097900086BF03F01F03544A4FF0A04203F5E07365
:1097A000002142F823102368BA69C3F82425397DC3
:1097B0007B7D22680B43C2F86C3597E8060023686E
:1097C000C3F81425C3F80C153B7D012B4BD02C237B
:1097D00003FB05F3F218C2F804803A69F250B8F1BD
:1097E000000F2FD022683B7F404F0021C2F81C1190
:1097F000D2F81C2100922268DDF800E0C2F8441182
:10980000D2F84411226801910199C2F804732168C9
:10981000090B4AB2002A5ADB02F1604202F56142AA
:109820005B01DBB282F8003321680A0B53B2002BD4
:1098300009DB01215B092E4F02F01F0201FA02F23F
:1098400047F8232021682C2303FB05630022012510
:109850000424C1F8004583F82A509A61DA6183F83C
:1098600029205A6164E7BB68591C0BD01F2B86BFA7
:1098700003F01F031C494FF0A04103F5E0730022E1
:1098800041F82320FB685A1C1AD01F2B8ABF1649A7
:109890004FF0A04103F01F03012202FA03F3C1F8C5
:1098A0000835FB681F2B88BF03F01F0303F5E07327
:1098B0008CBF0D494FF0A041032241F82320FB68E3
:1098C0002268B968C2F80835C2F810157FE7094A5E
:1098D00001F00F015B010A44DBB21376A4E700BF7D
:1098E0002C2B002051950200000300508000020044
:1098F00000E100E0FCEC00E0F8B53D4F04790268BF
:109900002C2303FB047300215B68C2F80015B3B17C
:109910000368384AC3F808230368190B4AB2002ABF
:109920000EDB520920320123334D01F01F0103FAEF
:1099300001F145F82210BFF34F8FBFF36F8F03681B
:10994000D3F80C65D3F81455D3F80825D3F81015BF
:109950004FF0FF3EC3F814E5C3F80CE50368764505
:10996000C3F808E5C3F810E50CD01F2E86BF06F03B
:109970001F06224B4FF0A04306F5E0764FF0020E93
:1099800043F826E06E1C0BD01F2D86BF05F01F0587
:109990001A4B4FF0A04305F5E075022643F8256009
:1099A0004D1C0BD01F2986BF01F01F01134B4FF038
:1099B000A04301F5E071022543F82150531C0BD060
:1099C0001F2A86BF02F01F020C4B4FF0A04302F586
:1099D000E072022143F822100068FFF7ADFD2C234E
:1099E00003FB0474002384F82A306360F8BD00BFD1
:1099F0002C2B00208402020000E100E00003005054
:109A0000F0B5304E05792C2303FB056385B05C6906
:109A100014B1112005B0F0BD5A6199601C6283F841
:109A200028400268C2F81C41D2F81C110268029159
:109A30000121029F91600268D3F808E0C2F81C413E
:109A4000D2F81C1101910199D3F820C0196A5F68FE
:109A50001EF80CC001311962C2F81CC517B12046AE
:109A600005B0F0BD5C691A6A0168944203D819E038
:109A700093F82820F2B9D1F81C21002AF8D0C1F8B7
:109A80001C71D1F81C210392039AD3F820C01A6AE2
:109A90001EF80CC001321A62C1F81CC51A6A944241
:109AA000E9D80168D1F81C31002BFBD00123CB6031
:109AB000002000E00F202C2303FB056300225A61E5
:109AC000A8E700BF2C2B002070B5584BD3F82421F9
:109AD0008AB0002A65D1D3F8101100292FD1534B39
:109AE000D3F8442152B10021514AC3F84411D3F8AC
:109AF000444190690394039C00287BD14B4BD3F8DD
:109B0000202162B10021C3F82011D3F82021029254
:109B10000120474A029CD860506900285DD1434B20
:109B2000D3F858214AB10021C3F85811D3F858018D
:109B30003F4A01900198506928BB0AB070BDC3F834
:109B40001021D3F810113A48059105998469D3F88A
:109B50003C15A142C3D1C469002C5AD0D3F800628D
:109B6000C568846126F02006C3F800620369C261FB
:109B700001220891C3600168436807958DF8182099
:109B800006A89847ABE7D3F84C05936808908DF882
:109B900018105161079306A892E80A0098470AB086
:109BA00070BD0021C3F82411D3F8242104920222AD
:109BB0008DF81820049AD3F880041D4AC3F8800455
:109BC0000990D3F83C05D36808909161D16107935F
:109BD0001168536806A8984781E7D3F84C05936845
:109BE00008908DF818105161079306A892E80A00B2
:109BF000984794E7D3F83C35D068089301239161E6
:109C0000D16107908DF8183006A892E80A009847AD
:109C100074E7C2688461012308918DF818300792B7
:109C200090E80A0006A8984759E700BF00200040C6
:109C3000582B00202DE9F0430479844EE7003B19AE
:109C400006EB830387B093F820301BB1082007B0E0
:109C5000BDE8F083894605467D4900689046FFF7D8
:109C600045FC18B1112007B0BDE8F083D9F80030E9
:109C7000591C1AD01F2B4FF001028ABF75494FF0B3
:109C8000A04103F01F0302FA03F3C1F80835D9F825
:109C900000301F2B86BF03F01F036E4A4FF0A04217
:109CA00003F5E073032142F82310D9F804305A1C5D
:109CB0000BD01F2B86BF03F01F03664A4FF0A04254
:109CC00003F5E073002142F823102B68D9F818201F
:109CD000C3F8242599F8141099F815202B680A4325
:109CE000C3F86C252A68D9F80030D9F80410C2F8F6
:109CF0000C35C2F8141599F81430012B64D03A19B8
:109D00009200B318C3F80480D9F81030B350B8F1FA
:109D1000000F4AD0296899F81C30DFF840E1002292
:109D2000C1F81021D1F8101101912968DDF804C0A3
:109D3000C1F82021D1F8201102912968DDF808C06E
:109D4000C1F82421D1F8241103912968DDF80CC051
:109D5000C1F84421D1F8441104912968DDF810C0FC
:109D6000C1F85821D1F858112A6805910599C2F80F
:109D700004E32968090B4AB2002A5EDB02F1604263
:109D800002F561425B01DBB282F800332A68110BF5
:109D90004BB2002B0ADB01225B09DFF8C4E001F0C3
:109DA0001F0102FA01F14EF823102A683C4406EB29
:109DB0008404002301250821C2F8001584F82050EE
:109DC000A361E361636142E7D9F80830591C0BD005
:109DD0001F2B86BF03F01F031E494FF0A04103F560
:109DE000E073002241F82320D9F80C305A1C1CD013
:109DF0001F2B8ABF17494FF0A04103F01F03012218
:109E000002FA03F3C1F80835D9F80C301F2B88BFCC
:109E100003F01F0303F5E0738CBF0E494FF0A04120
:109E2000032241F82320D9F80C302A68D9F8081009
:109E3000C2F80835C2F8101561E7074A01F00F01B2
:109E40005B010A44DBB21376A0E700BF582B002069
:109E5000C99A020000030050FCEC00E0100342002D
:109E600000E100E02DE9F0410679544C0268F5006C
:109E7000AB1904EB830382B05B68B3B1504BC2F8FB
:109E8000083303681B0B59B200290EDB4909203146
:109E90000127DFF834E103F01F0307FA03F34EF85C
:109EA0002130BFF34F8FBFF36F8FA91904EB8101EE
:109EB000D2F80032896923F02003C2F8003241B1A0
:109EC0000023C2F84431D2F84431009301230099B1
:109ED00053600023C2F85831D2F858310193AB19BE
:109EE000012104EB8303019FD1609969D2F85831B5
:109EF000002BFBD019B1D2F84431002BF6D000234F
:109F0000C2F8003503684FF0FF38D3F80CC5D3F81A
:109F100014E5D3F80815D3F81075C3F80C85C3F809
:109F200014850368C445C3F80885C3F810850CD0B0
:109F3000BCF11F0F86BF0CF01F0C22484FF0A04051
:109F40000CF5E07C022340F82C30BEF1FF3F0CD032
:109F5000BEF11F0F86BF0EF01F0E1A484FF0A04033
:109F60000EF5E07E022340F82E30781C0BD01F2F18
:109F700086BF07F01F0713484FF0A04007F5E077B2
:109F8000022340F827304B1C0BD01F2986BF01F05D
:109F90001F010C4B4FF0A04301F5E071022043F884
:109FA00021001046FFF7C8FA354404EB850400236E
:109FB00084F82030636002B0BDE8F081582B0020A7
:109FC000100342000003005000E100E001F0604394
:109FD000B3F1005F01D010207047F0B50579234E32
:109FE000EF007C1906EB840483B0636913B1112080
:109FF00003B0F0BD6261A1600268C2F82031D2F8FE
:10A0000020E10268CDF804E0DDF804E0C2F8583140
:10A01000D2F8582100920268DDF800E0D4F814E08C
:10A02000C2F84415C2F848E50268012191606268EF
:10A030000AB11846DCE7036800E0A1B9D3F8202193
:10A04000D3F85811002AF8D069B90122DA60026801
:10A05000D2F85831002BFBD000207B1906EB83038C
:10A0600000225A61C4E70F20F7E700BF582B0020F9
:10A0700008B50320FEF7ECFD0020FEF7DFFD38B148
:10A080000220FEF7B3FD0020FEF7D8FD0028F7D12F
:10A090000220FEF7BFFDEFE7F0B50288112A83B07A
:10A0A00003463ED02BD9122A08D0502A04D1684D3D
:10A0B000C188EA89914246D003B0F0BD654C8288E0
:10A0C00021889142F8D1E189B1F5FA7F61D2002669
:10A0D00058896589854248D8A589854245D39B8999
:10A0E0009E4242D801F2F31199423ED3584B5B692C
:10A0F0000121002061722072002B78D1DCE7102A48
:10A10000DAD1C27B012AD7D1524C21884FF6FF7297
:10A11000914242D04E4B9B69002BCDD004209847F2
:10A12000CAE74C4C828823889A42C5D16068FDF703
:10A130001FFE18B1464B9B6903B198474FF6FF735A
:10A14000238003B0F0BD028A022AB5D1414C868833
:10A150002788BE42B0D1123000F034F900285AD11D
:10A160006068FDF705FE70B9A6E7394D267A6B6881
:10A17000A9686068002E08BF194600236372FDF7C6
:10A1800091FD002898D0AB69002B95D0984703B07B
:10A19000F0BD6FF4F9700E189AE72F4D8288228077
:10A1A00003CDC4F80E10E589C4F80A000021B5F506
:10A1B000FA7F217202D36FF4F976A919588A668959
:10A1C00086421AD8A689864217D39B8A8B4214D31B
:10A1D00005F2F3159D4210D31D4BD8890121617200
:10A1E00000287FF469AF5B69002B3FF465AF8DF801
:10A1F0000410ADF8062001A8C8E7154DEB89002131
:10A200006172002B7FF458AF60686968FDF74AFD02
:10A210000028B8D150E7637A63B96B68A968277AD8
:10A2200060683246002F08BF1946FDF73BFD002845
:10A23000A9D141E76B6900222272002B3FF43CAFA9
:10A240000122ADF806708DF8042001A8984733E785
:10A250007C2B0020982B0020AC2B00202DE9F04F08
:10A260000388B0F804A0103B99B081460A2B1BD894
:10A27000DFE803F02F281A1A1A1A1A1A1A1D0600F4
:10A28000047A48482409032C51466AD8FDF752FE47
:10A29000032C68D051464448FDF74CFE022C66D092
:10A2A00051464248FDF746FE19B0BDE8F08F037AEB
:10A2B000002BF9D1437A3B481B0751466FD4FDF779
:10A2C00039FEF1E751463A48FDF734FE19B0BDE8D2
:10A2D000F08F384A936818A8DB4340F8603D516816
:10A2E000FDF756FE009B0193019B8BB34FF00008D6
:10A2F0004446214601A8FDF727FE30B118AB03EB19
:10A30000480308F1010823F8284C0134142CF0D13B
:10A31000CDF834800DAD0FCD02AC0FC40FCD0FC4FE
:10A3200095E8070084E80700B8F1000F10D0224E2E
:10A330000DF10A0B00273BF8025F204C204629460E
:10A340000434FDF7F7FDA642F8D101374745F2D1B5
:10A35000BAF1130F12D90420FDF75CFC19B0BDE867
:10A36000F08FFDF7DDFD51460F48FDF7D9FD514651
:10A370000E48FDF7D5FD19B0BDE8F08F51460C48E9
:10A38000FDF7CEFD51460D48FDF7CAFD99F80F3097
:10A39000022B89D151460A48FDF7C2FD84E7FDF73B
:10A3A000BFFD81E7CC2B0020C82B0020C42B002050
:10A3B000BC2B0020B42B0020302C0020B82B002018
:10A3C000C02B0020007800F001007047014B187886
:10A3D000704700BF302C002000B583B068460849A4
:10A3E000FEF7B4FA019B43B158681A689047684673
:10A3F000FEF7B6FA019B002BF6D103B05DF804FB23
:10A40000B0A7020061DF7047134B1B781BB330B558
:10A41000124D91B034240DF1020103A8ADF80240B1
:10A42000FFF7F0FF88B9294601A8FEF78FFA029BD3
:10A43000002BF0D01A68596803A8904701A8FEF7CE
:10A440008FFA029B002BF5D1E5E7052801D0FDF737
:10A45000E1FB11B030BD7047312C0020C4A70200D1
:10A460004BDF704710B5114C84B001A8FFF7F8FF1F
:10A47000A8B9214602A8FEF769FA039B002BF4D085
:10A480001A6859680198904702A8FEF769FA039B79
:10A49000002BF5D101A8FFF7E3FF0028E9D005283C
:10A4A00001D0FDF7B7FB04B010BD00BFDCA7020070
:10A4B00008B5074B044613B10021AFF30080054BEC
:10A4C0001868836A03B19847204600F071F800BF0E
:10A4D00000000000F4A7020070B50D4E0D4CA41B47
:10A4E000A4100025A54209D10B4E0C4C00F062F8D7
:10A4F000A41BA4100025A54205D170BD56F8253037
:10A5000098470135EEE756F8253098470135F2E7D0
:10A51000F8240020F8240020F8240020FC24002047
:10A52000044B054A1B681B6A002B08BF1346D3F86F
:10A53000EC007047282300208C23002082B001B952
:10A5400001A942B14BB113780B601278101C18BFEF
:10A55000012002B070471046FBE76FF00100F8E7FA
:10A5600010B5431E0A44914200D110BD11F8014BB1
:10A5700003F8014FF7E702440346934200D17047C6
:10A5800003F8011BF9E7034613F8012B002AFBD15E
:10A59000181A0138704749B1FF2A85BF8A23036022
:10A5A0000A704FF0FF3098BF01207047084670478F
:10A5B000FEE700BFF8B500BFF8BC08BC9E46704778
:10A5C000F8B500BFF8BC08BC9E467047FFFFFFFF10
:10A5D000FFFFFFFFFFFFFFFFFFFFFFFF0000000087
:10A5E000000000000000D60106010000ED7302002B
:10A5F00059740200E9730200756172745F6C6F67D1
:10A600005F6261636B656E64000000004261636BB2
:10A61000656E647320666C75736865640000000085
:10A62000617070007CA60200ACA602005CA602006D
:10A63000B4A60200BCA60200C4A60200CCA602007A
:10A64000D4A60200DCA602002025303278000000EB
:10A65000202020007C000000256300001B5B313BB4
:10A6600033316D0025734C6F67732064726F7070A7
:10A670006564202825642925730D0A001B5B306D55
:10A6800000000000257300003C25733E2025733A2E
:10A69000200000000D0A000000000000E4A60200F7
:10A6A000ECA60200F4A60200FCA602001B5B313BF4
:10A6B00033306D001B5B313B33326D001B5B313B34
:10A6C00033336D001B5B313B33346D001B5B313B1F
:10A6D00033356D001B5B313B33366D001B5B313B0B
:10A6E00033376D006572726F720000007761726EB1
:10A6F000696E6700696E666F0000000064656275D0
:10A70000670000006170705F627574746F6E0000A6
:10A71000466174616C206572726F72005379737454
:10A72000656D207265736574000000006170705F74
:10A7300074696D657200000030313233343536375C
:10A7400038394142434445467077725F6D676D7496
:10A7500000000000736F72746C6973740000000075
:10A7600001000000000000000000000001010000E6
:10A770000608290C636C6F636B000000434C4F4369
:10A780004B0000004750494F5445000050525300C1
:10A7900055415254000000005541525445000000FC
:10A7A0006E72665F626C655F6761747400000000C2
:10A7B00028A9020038A90200080000006E72665F36
:10A7C0007364680010A9020020A9020008000000BC
:10A7D0006E72665F7364685F626C650008A9020050
:10A7E00010A90200080000006E72665F7364685F63
:10A7F000736F63002C2300204300504F53495800CF
:10A800002E0000202020202020202020282828285A
:10A810002820202020202020202020202020202030
:10A820002020208810101010101010101010101080
:10A830001010100404040404040404040410101090
:10A84000101010104141414141410101010101013C
:10A8500001010101010101010101010101011010CA
:10A860001010101042424242424202020202020210
:10A87000020202020202020202020202020210109C
:10A880001010200000000000000000000000000088
:10A8900000000000000000000000000000000000B8
:10A8A00000000000000000000000000000000000A8
:10A8B0000000000000000000000000000000000098
:10A8C0000000000000000000000000000000000088
:10A8D0000000000000000000000000000000000078
:10A8E0000000000000000000000000000000000068
:10A8F0000000000000000000000000000000000058
:08A9000000000000000000004F
:08A90800658D02000000000053
:10A910005DA202000000000099A0020000000000FB
:08A92000898D02000000000017
:10A9280009A402000000000065A402000000000065
:10A938006C250020342600203C26002074250020A9
:04A9480018000000F3
:10A94C007CA702000000000084A7020000000000A9
:10A95C008CA702000000000090A70200000000007D
:10A96C0098A702000000000020A6020000000303CC
:10A97C0004A70200000000002CA702000000000049
:10A98C0074A7020000000000A0A70200000003034F
:10A99C00BCA7020000000303D0A7020000000303C1
:10A9AC00E8A702000000030348A702000000000013
:08A9BC0054A702000000000096
:10A9C400ECA5020000000000F8A5020014230020FA
:08A9D40098C8FF7F010000009C
:10A9DC0000000000002000400000000000200040AB
:10A9EC000000000000000000FF000000001001400B
:10A9FC00110004000090D0032C2300200000000064
:10AA0C00000000000000000000000000000000003A
:10AA1C00000000000000000000000000000000002A
:10AA2C00000000000000000000000000000000001A
:10AA3C00000000000000000000000000000000000A
:10AA4C0000000000000000000000000000000000FA
:10AA5C0000000000000000000000000043000000A7
:10AA6C0000000000000000000000000000000000DA
:10AA7C000000000000000000000000004300000087
:10AA8C0000000000000000000000000000000000BA
:10AA9C000000000000000000000000004300000067
:10AAAC00000000000000000000000000000000009A
:10AABC000000000000000000000000004300000047
:10AACC00000000000000000000000000000000007A
:10AADC000000000000000000000000004300000027
:10AAEC00000000000000000000000000000000005A
:10AAFC000000000000000000000000004300000007
:10AB0C000000000000000000000000000000000039
:10AB1C0000000000000000000000000043000000E6
:10AB2C000000000000000000000000000000000019
:10AB3C0000000000000000000000000097A50200CB
:10AB4C003DA502000000000002A8020000A80200BF
:10AB5C0001A8020001A8020001A8020001A802003D
:10AB6C0001A8020001A8020001A8020001A802002D
:10AB7C0001A80200FFFFFFFFFFFFFFFFFFFFFFFF2A
:10AB8C00FFFF000001004153434949000000000051
:10AB9C0000000000000000000000000000000000A9
:10ABAC000000000000004153434949000000000030
:10ABBC000000000000000000000000000000000089
:10ABCC00000000000000000025720200017202006B
:04ABDC000000000075
:04000003200072E186
:00000001FF
