:020000040800F2
:1000000000500020D93700082138000821380008A6
:1000100021380008213800082138000800000000BD
:10002000000000000000000000000000213800086F
:10003000213800080000000021380008BB2D00080E
:10004000213800082138000821380008213800082C
:100050002138000821380008893600088F3600084A
:10006000953600089B360008A136000821380008A4
:1000700021380008213800082138000821380008FC
:1000800021380008213800082138000821380008EC
:10009000954700082138000821380008A7360008D5
:1000A00021380008D53A000821380008E93A00084C
:1000B000ED3A0008013B0008153B00082138000814
:1000C00021380008213800082138000821380008AC
:1000D00021380008A1350008B9350008D1350008DD
:1000E000BD360008A9320008A14700080000000042
:1000F0000000000000000000000000000000000000
:0C01000000000000000000005FF808F1A3
:10010C00034613F8012B002AFBD1181A013870474B
:10011C0053B94AB9002908BF00281CBF4FF0FF3162
:10012C004FF0FF3000F00CB8ADF1080C6DE904CEC7
:10013C0004F0A6FFDDF804E0DDE9022304B070470B
:10014C00704700BF10B5054C237833B9044B13B17D
:10015C000448AFF300800123237010BD0802002077
:10016C00000000005053000808B5034B1BB10349B5
:10017C000348AFF3008008BD000000000C02002013
:10018C005053000807B503688DF8071001225B680F
:10019C000DF10701984703B05DF804FB704741600F
:1001AC0002720BB9437205E0012BFBD0022BF9D084
:1001BC00032BF7D07047000038B500254FF47A7345
:1001CC00C0E901530C4B044601220C4940F8103B8A
:1001DC002B46FFF7E4FF18221123C4E9072315234C
:1001EC0020462946C4E90935C4E90B55656303F07B
:1001FC00D8FC204638BD00BF7053000800127A00AE
:10020C00C0E9071243627047F0B504460F46164624
:10021C0087B00021C06903F069FB03AB04F1100245
:10022C0007CA83E80700059A0F4D009228460CCBAD
:10023C00232100F081FA3A4601232321284600F0BD
:10024C00CFFA324601232321284600F0C9FA06468C
:10025C002321284600F0A4FAE069012103F046FBB3
:10026C00304607B0F0BD00BF68020020002201F04C
:10027C007F01FFF7C9BF10B504461321FFF7F6FF46
:10028C00E36AC01A10BD036810B59B680446984712
:10029C0038B1E36A002101332046E362FFF7E6FF41
:1002AC0010BD4FF0FF30FBE710B5832281210446CF
:1002BC00FFF7AAFF12212046FFF7D8FF030702D44D
:1002CC0003F0A9FAF6E7082292212046FFF79CFFDB
:1002DC00012010BD2DE9F0410C46222115460746A0
:1002EC00FFF7C4FF06464319FF2B88BFC0F1FF057B
:1002FC0004EB0508444506D08021384614F8012B40
:10030C00FFF782FFF6E77219A2213846D2B2FFF747
:10031C007BFF2846BDE8F081036870B59B680546F5
:10032C00984780B10D212846FFF7A0FF0021064613
:10033C002846FFF79BFF044632468D212846FFF7DF
:10034C0063FF204670BD4FF0FF30FBE78122114662
:10035C00FFF75ABF80228121FFF756BF38B5CB1764
:10036C00DD040446002381620C4AC80445EA51317D
:10037C00FFF7CEFE0546C0F3074286212046FFF765
:10038C0043FFC5F3072287212046FFF73DFF204698
:10039C00EAB28821BDE83840FFF736BF0048E801D3
:1003AC00002310B51D2103630446FFF75FFF9D2159
:1003BC0000F0FE022046BDE81040FFF725BF0123E8
:1003CC0010B51D2103630446FFF750FF40F00102F6
:1003DC009D212046BDE81040D2B2FFF715BF38B5BD
:1003EC0004460D46FFF7B2FF20466DB1FFF7E7FF5D
:1003FC0000228D212046FFF707FF0022A221204674
:10040C00FFF702FF012038BDFFF7CAFFF0E700003D
:10041C0038B504460D46C069012103F019FAE069AC
:10042C00012103F063FA206A431C10D0012103F070
:10043C000FFA0021206A03F059FA0A2003F07EFA21
:10044C00206A012103F052FA0A2003F077FA2321E3
:10045C001A4800F049F942212046FFF707FF1228FD
:10046C002AD12046FFF776FF29462046FFF776FF74
:10047C0000228E212046FFF7C7FE00228F21204646
:10048C00FFF7C2FE0C212046FFF7F0FE40F00302FE
:10049C008C21D2B22046FFF7B7FE0422A6212046BB
:1004AC00FFF7B2FE8F2289212046FFF7ADFE2046D2
:1004BC00FFF74CFF012038BD0020FCE7680200204C
:1004CC000148FFF779BE00BF2402002038B505466D
:1004DC00064C00212046FFF782FF2946204603F0F8
:1004EC001DFB2046BDE83840FFF7DEBE240200208D
:1004FC0070B52F4C00210B208AB003F0F7F923685C
:10050C002C4A2D4DB3FBF2F369685B006A68521AF2
:10051C009342FBDC01210B2003F0E8F92268254B08
:10052C006968B2FBF3F30A225A43234E73685B1AD1
:10053C009A42FBDC00210B2003F0D8F946F2A812FA
:10054C0001210C2003F0BCFB0546B8B901210C209D
:10055C0003F07EF929460C2003F0C8F92268154BEC
:10056C007168B2FBF3F3C8225A43134843685B1A11
:10057C009A42FBDC00210C2003F06AF90F4901A818
:10058C0003F056FB0E4904A803F052FB04A907A87C
:10059C0003F06FFB07A8FFF799FF07A803F003FB15
:1005AC0004A803F000FB01A803F0FDFA0AB070BD2B
:1005BC002000002040420F00001000E0BB53000858
:1005CC009053000808B50121112003F041F90121D5
:1005DC000B2003F03DF900210C2003F039F9182110
:1005EC00054815231222FFF70BFE04490248FFF7BA
:1005FC000FFF00B9FEE708BD24020020400ECF1902
:10060C001FB50121112003F071F94FF4FA7003F0BA
:10061C0095F90B4901A803F00BFB01A8FFF756FF56
:10062C0001A803F0C0FAFFF763FF0021112003F0CB
:10063C005DF94FF4FA7003F081F905B05DF804FB35
:10064C009C5300080149024803F0F2BABB5300085E
:10065C005C020020014803F0A6BA00BF5C02002037
:10066C00232970B504461BD800230C2505FB03F683
:10067C00A65FD8B2B1420DD00133042BF6D1012ABA
:10068C000CD100230C2505FB03F2A65ED8B2013673
:10069C0001D1A15270BD0133042BF4D11846F9E7F6
:1006AC000420F7E770B503464FF6FF7201250024CE
:1006BC000B4E00F130011A805E601D725C720C33BF
:1006CC008B42F8D1074B0286998EA0F89010D98EE8
:1006DC00A0F892105B8EA0F89620A0F8943070BD14
:1006EC0000093D00C0560008232970B505460E468A
:1006FC0021D80122FFF7B4FF032804461BD8232E70
:10070C000BD0B5F99630013307D10121304603F0F7
:10071C009FF80121304603F0E9F80C20002300FB80
:10072C00045485F88530627A237A616805F13400C7
:10073C0000F0D0F82E8670BD82B0F8B5232906AC37
:10074C0005460E4684E80C0026D80122FFF788FFE8
:10075C000328044620D80C2707FB0057079B232EA1
:10076C007B60BDF820303B810BD0B5F9963001335E
:10077C0007D10121304603F06BF80121304603F01C
:10078C00B5F80C2000FB04547968237A627A05F1E1
:10079C00340000F09FF82E86BDE8F84002B0704798
:1007AC002329F0B519D803464FF6FF74012600270C
:1007BC000A4D00F13002B3F900C00C338C4501BF77
:1007CC0023F80C4C43F8085C03F8046C03F8037C26
:1007DC009342F0D14FF6FF730386F0BD00093D0044
:1007EC0070B586B08DF80F200022232905460C46E3
:1007FC001E468DF8172039D8B0F93030994212D0F6
:10080C00FFF72EFF032803D99DF8170006B070BD23
:10081C000C2303FB0050037A427A416805F1340043
:10082C0000F058F82C86232C07D0B5F996300133FC
:10083C0003D10021204603F059F84FF47A730DF1DF
:10084C00170200930DF10F01012305F1340000F0A4
:10085C0069F9232CD8D0012ED6D1B5F996300133B5
:10086C00D2D13146204603F041F8CDE71046CDE712
:10087C000148FFF717BF00BF6802002070B50D0ECE
:10088C00445991FAA1F3B3FA83F30F269B0006FAAD
:10089C0003F324EA030491FAA1F1B1FA81F189007E
:1008AC0002FA01F12143415170BD00000346074A91
:1008BC00106853B1064A934205D002F57842934230
:1008CC0003D101F0F9B901F0E7B97047200000201D
:1008DC00003800402DE9F74F0D4617469846044660
:1008EC00002800F0D0808649B0F95E0002F0BAFC16
:1008FC0084498146B4F95C0002F0B4FC824982461A
:10090C00B4F9600002F0AEFC80490646B4F962000E
:10091C0002F0A8FC8346B9F1000F00F0B480BAF1E4
:10092C00000F00F0B080002E00F0AD80514648461C
:10093C0002F09EFC59468246304602F099FC014674
:10094C008146504602F094FCA065BAF1000F00F00D
:10095C009A80B9F1000F00F09680002800F0938087
:10096C00B4F9623020605A1C14BF4FF480234FF44A
:10097C000073A3614FF482736360FFF797FFB5EBCD
:10098C00500FC0F083800023002617F0FD0FE361A9
:10099C000CBF33460123022F636134BF334602235D
:1009AC0023610723B045E36214BF33468023B4F9B7
:1009BC005E00C4E90836A660A662E660504902F003
:1009CC0031FCB4F95C004F4902F02CFCB4F9600026
:1009DC004D4902F027FC2369B342B4F9603008BFDB
:1009EC000225C3F3031218BF0125042A8CBF30461D
:1009FC00474903F00F0398BF51F82200454A52F8BB
:100A0C0023100B0EC65891FAA1F2B2FA82F39A0097
:100A1C000F239340334091FAA1F2B2FA82F2022DE5
:100A2C004FEA820223FA02F34FEA11254DD0042B30
:100A3C0002D10822FFF722FFC26822EA050295FACA
:100A4C00A5F50123B5FA85F503FA05F51543C5603F
:100A5C002E49B4F9620002F0E5FB23682E4A93425A
:100A6C003FD12E4B9A6942F480529A619B6903F4F0
:100A7C0080530093009B204601F008FA226813680B
:100A8C0043F04003136003B0BDE8F08FB5EB900F5B
:100A9C0001D3082378E7B5EBD00F01D3102373E70C
:100AAC00B5EB101F01D318236EE7B5EB501F01D324
:100ABC00202369E7B5EB901F01D3282364E7B5EB3E
:100ACC00D01F2CBF302338235EE7042B02D1082221
:100ADC00FFF7D4FEC36823EA050395FAA5F5C360B6
:100AEC00B6E70F4A9342C6D10C4BDA6942F4804206
:100AFC00DA61DB6903F480430193019BBBE700BF20
:100B0C000C560008DC5500083C5600086C560008D2
:100B1C000C0000203454000800300140001002404A
:100B2C000038004013B538B133B1049C009401F087
:100B3C00E8F9032803D000B1022002B010BD012057
:100B4C00FBE7000003460A4910B508680344EFF3BD
:100B5C000882934205D90C224FF0FF30054B1A60E6
:100B6C0010BD054A054C121B9342F4D20B60F7E7FB
:100B7C0000000020980E002000500020000400000F
:100B8C007047000038B50E4B054618784FF47A7351
:100B9C00B3FBF0F30B4A1068B0FBF3F000F08CF8E9
:100BAC00044658B90F2D09D8024629464FF0FF309C
:100BBC0000F042F82046044B1D6038BD0120FCE7D4
:100BCC00040000202000002008000020074A08B57F
:100BDC001368032043F01003136000F01BF800208F
:100BEC00FFF7D0FFFFF7CCFF002008BD002002402C
:100BFC00034A044B11681B780B441360704700BF09
:100C0C00A404002004000020014B1868704700BFAA
:100C1C00A404002007490302CA6803F4E06322F429
:100C2C00E0621204120C134343F0BF6343F400332D
:100C3C00CB60704700ED00E0164B30B5DC68C4F3B8
:100C4C000224C4F10703251D042B28BF0423062D01
:100C5C004FF0FF3598BF002405FA03F388BF033C1F
:100C6C0021EA0303A34005FA04F422EA0402002853
:100C7C0043EA0203ACBF00F16040074A4FEA03139A
:100C8C00DBB2ABBF00F5614000F00F0080F8003321
:100C9C00135430BD00ED00E014ED00E0002808DB3B
:100CAC000123420900F01F0003FA00F0014B43F846
:100CBC002200704700E100E00138B0F1807F0AD2D9
:100CCC00F021064B064A586082F8231000200722B8
:100CDC0098601A6070470120704700BF10E000E078
:100CEC0000ED00E0002809DB0122430900F01F00A1
:100CFC0002FA00F0024A603342F82300704700BF4A
:100D0C0000E100E0704708B5FFF7FCFF08BD0000EC
:100D1C0008B590F82130022B03D004238363012003
:100D2C0008BD03681A6822F00E021A601A6822F0D5
:100D3C0001021A60174A93421CD0143293421BD002
:100D4C00143293421AD0143293421AD01432934272
:100D5C001AD0143293420CBF4FF480134FF08073AF
:100D6C000D4A53604FF480730384436B7BB19847F7
:100D7C000020D5E70123F3E71023F1E74FF480734C
:100D8C00EEE74FF48053EBE74FF48033E8E7184677
:100D9C00C6E700BF0800024000000240044A08B544
:100DAC005169014202D0506102F052FC08BD00BFF3
:100DBC0000040140F0B5044687B0002867D090F8D5
:100DCC00A93403F0FF021BB980F8A82403F046FCF9
:100DDC00032325466E4684F8A93455F8100B01F010
:100DEC00C3FB0FCD0FC62B68271D336097E80E0091
:100DFC00206801F0A9FB0021206801F0BFFB002155
:100E0C00234622460126084604F1100582F82810D4
:100E1C00918601310F29C2E90E0082F8296082F80F
:100E2C002B001064A2F84800A2F84A0002F1240238
:100E3C00ECD100210A4683F86812A3F87412013130
:100E4C000F29C3E99E2283F8692283F86B22C3F829
:100E5C008022A3F88822A3F88A2203F12403EAD182
:100E6C006E460FCD0FC62B68336097E80E002068D6
:100E7C0001F086FB4FF0000384F824300123206836
:100E8C0084F8A93401F085FE002007B0F0BD0120E4
:100E9C00FBE710B590F8A8340446012B0ED00121C5
:100EAC0080F8A81400F085FC206801F070FE206822
:100EBC0001F051FB002084F8A80410BD0220FCE7CF
:100ECC0010B590F8A8240446012A0BD0012280F812
:100EDC00241080F8A824006801F053FE002084F848
:100EEC00A80410BD0220FCE710B50446242011F024
:100EFC00800F1BBF01F07F0100FB014100FB014192
:100F0C00283108BF01F51A710A61CB7094F8A83426
:100F1C00012B09D00123206884F8A83401F04CFB84
:100F2C00002084F8A80410BD0220FCE7242310B58F
:100F3C0011F0800F1ABF01F07F0103FB010103FBCD
:100F4C00010190F8A83414BF283101F51A71012B56
:100F5C00044609D0012380F8A834006801F0D2FCC3
:100F6C00002084F8A80410BD0220FCE72DE9F04F06
:100F7C00242701F07F067743C119C1E99F23002381
:100F8C0007F51A790546814485B00068C1F88432AA
:100F9C0036B9494601F013FE002005B0BDE8F08FCC
:100FAC0091F8683230F823309BB2ADF80C30BDF8B4
:100FBC000C30580632D5B1F88A324FF0240B4FF66C
:100FCC00FE780BFB065407F5227A07F28A27AA440F
:100FDC002F440BB1434524D10BFB065696F87232C5
:100FEC00002BD9D1D6F87C32002BD5D0D6F8803254
:100FFC00002BD1D096F868122A6832F8213023F4ED
:10100C00804323F070031B041B0C83F4405343F404
:10101C00004343F0800322F82130BDE7B1F8883259
:10102C00CBE7D4F87C120029B6D0D4F88002002883
:10103C00B2D04FF6FF7CBDF80C2052064BBFB4F873
:10104C007022B4F86E22A4F88A82A4F888826345D0
:10105C0006D0984205D24946286801F01EFD9BE750
:10106C0000232868019301F01CFE019BD4F8842214
:10107C001A44C4F88422D4F87C221A44C4F87C2282
:10108C00D4F88022D21AC4F880221AB1D4F878226B
:10109C00934204D2284694F8681203F02FFB94F87C
:1010AC0069327BBB94F868122A6832F8213023F03D
:1010BC00F0031B051B0D43F4004343F0C00322F85F
:1010CC002130BDF80C30002213F0400F0CBF5146FC
:1010DC003946D1E85F3F9BB2ADF80E30BDF80E300B
:1010EC009BB243451ED094F868222B6833F822300B
:1010FC009BB2ADF80C30BDF80C305B0617D4B4F8CD
:10110C00883266E7012BDCD194F868122A6832F831
:10111C00213023F0F0031B051B0D43F4404343F037
:10112C008003CCE7C1E8532F002BD2D1DBE7B4F816
:10113C008A324EE7242301F00F0103FB0101B1F8C1
:10114C008402704738B501F07F04242100256143E7
:10115C00441828310144C4E90F236564006801F088
:10116C002EFD284638BD00002DE9F74304460068E3
:10117C0001F011FD020440F13B8100237E4FDFF8AA
:10118C00FC81DFF8FC91ADF80430ADF80630206836
:10119C00B0F844309BB21A04ADF8043040F1288109
:1011AC00BDF8046016F00F0640F0AB80BDF80410DB
:1011BC00038811F010019BB226D13B400380B0F89C
:1011CC00503094F828209BB203EBC20300EB430091
:1011DC00D0F80434E26BC3F3090363641344E36390
:1011EC00204603F094FA94F82430002BCFD0226CD4
:1011FC00002ACCD194F82430216843F08003A1F864
:10120C004C3084F82420C2E7ADF80630BDF8063027
:10121C001B051FD5B0F8503094F868229BB203EB35
:10122C00C20300EB4303D3F80C34B4F86C22C3F3C1
:10123C000903C4F8843204F2AC4101F032FD226897
:10124C002046138823F070031B051B0D138003F03D
:10125C004FFA9CE7BDF806301E0498D5038823F09E
:10126C0070031B051B0D0380B0F8503094F86822F6
:10127C009BB203EBC20300EB4303D3F80C34C3F370
:10128C000903C4F8843263B1B4F86C22D4F87C122C
:10129C0001F007FDD4F87C32D4F884221344C4F84E
:1012AC007C320021204603F029FA2268D4F87852C7
:1012BC00B2F850103E2D89B201F1060102F58060A2
:1012CC0017D9C5F34F13ED0604BF03F1FF339BB2DF
:1012DC0049EA83239BB240F8113013889BB203EA8E
:1012EC00080383F4405343F4004343F0800313801A
:1012FC004DE7C5F34F03EE0744BF01339BB29B028E
:10130C00E8E730F826309BB2ADF80630BDF8063071
:10131C001D0440F14781242230F8263002FB06429E
:10132C0023F070031B051B0D20F8263092F8723247
:10133C0000F5806533BBB0F8503092F868129BB260
:10134C00063303EBC10355F81350C5F30905002D03
:10135C0000F00981B2F86CE22421714304EB010C1A
:10136C00DCF880329D4240F2788101F51A712144FB
:10137C0001F093FB3CE000BF0F8FFFFF8FBFFFFF1F
:10138C000080FFFFBDF80630590640F1C980B2F865
:10139C008AC2BCFA8CFC4FEA5C1C242101FB06417E
:1013AC0091F86832D1F880224FEAC30EB0F8503071
:1013BC009BB27344BCF1000F00F03281063355F838
:1013CC001350B1F870E2C5F309053AB1D1F87C328B
:1013DC0023B1BDF806305A0600F1AA804FF6FF7310
:1013EC00002D08BF1D46242303FB0646A6F88A528F
:1013FC00206801F0D0FB43050FD522682046B2F8D7
:10140C00443023F480631B041B0CA2F8443003F01B
:10141C008AF900212046FFF753FD206801F0BBFB41
:10142C00470408D52268B2F8443023F480431B04E7
:10143C001B0CA2F84430206801F0ADFB860408D5E3
:10144C002268B2F8443023F400531B041B0CA2F89E
:10145C004430206801F09FFBC5041CD5226820464F
:10146C00B2F8403023F004031B041B0CA2F84030EC
:10147C00B2F8403023F008031B041B0CA2F84030D8
:10148C0003F06EF92268B2F8443023F480531B0445
:10149C001B0CA2F84430206801F07DFB00051DD523
:1014AC002068B0F840309BB243F00803A0F84030FD
:1014BC00B0F8443023F400631B041B0CA0F8443038
:1014CC00B0F840309BB243F00403A0F8403001F078
:1014DC0062FBC10402D4204603F032F9206801F00B
:1014EC005AFB82050BD522682046B2F8443023F40F
:1014FC0000731B041B0CA2F8443003F010F9206895
:10150C0001F049FBC30508D52268B2F8443023F436
:10151C0080731B041B0CA2F8443003B0BDE8F083AD
:10152C00B2F888C2BCF1000C18BF4FF0010C34E7C4
:10153C000023A1F88832002D7FF40EAF242303FB87
:10154C00064393F8722272B193F86812226832F84B
:10155C00213023F0F0031B051B0D43F4004343F033
:10156C00C00322F82130242303FB0643D3F8842242
:10157C002A44C3F88422D3F87C222A44C3F87C2260
:10158C00D3F88022521BC3F880221AB1D3F87822E8
:10159C00954269D2242303FB0643204693F8681234
:1015AC0003F0ACF8BDF806301D067FF5F0AD242035
:1015BC00236800FB064033F8262003F5806192B2C5
:1015CC003A4023F8262090F83220002A61D1B3F853
:1015DC00502090F8285092B2023202EBC50251F81A
:1015EC001220C2F309024264242202FB0646B3F81D
:1015FC00503096F828209BB2023303EBC20351F80B
:10160C001320F36BC2F3090272641A44336C204644
:10161C0096F82810F263002B61D103F078F8B6E548
:10162C00023355F81350B1F86EE2C5F3090532B127
:10163C00D1F87C321BB1BDF806305B060AD54FF6EB
:10164C00FF73002D08BF1D46242303FB0646A6F896
:10165C008852CDE6A1F88AC26DE72B467246DCF8BB
:10166C007C1201F01EFB69E793F87222002A99D1D3
:10167C0093F86812226832F821309BB203EA08030F
:10168C0083F4405343F4004343F0800322F82130A9
:10169C0088E790F8282033F82250D000B3F8502077
:1016AC0092B2024468064FF0240048BF023200FB9D
:1016BC00064058BF063251F81220C2F309024264A8
:1016CC0090F8280033F8202022F0F0021205120DB9
:1016DC0042F4404242F0800223F8202084E7FFF7D6
:1016EC0031FD54E538B50D46242311F0800F0DBFA4
:1016FC0003FB050301F07F0103FB010103F51A71E4
:10170C004FF0010318BF28318B7090F8A8240446C1
:10171C009A420FD080F8A834006801F0BEF96B062D
:10172C0004D1206804F2AC4101F039FA002084F8AD
:10173C00A80438BD0220FCE738B52423002511F09D
:10174C00800F1BBF01F07F0103FB010103FB0101B3
:10175C00283108BF01F51A718D7090F8A834044631
:10176C00012B09D0012380F8A834006801F0C7F9D7
:10177C00284684F8A85438BD0220FCE710B5242470
:10178C0011F0800F1BBF01F07F0104FB010004FB73
:10179C000100283008BF00F51A7099B21AB982728C
:1017AC008180002010BD01221B0C8272C18003813C
:1017BC00F7E770472DE9F341054638B30368DB07BB
:1017CC0010D42B689F075ED42B68190700F1958005
:1017DC002B685A0700F1BF80E869002840F02C8183
:1017EC00002029E08F4C636803F00C03042B07D016
:1017FC00636803F00C03082B0AD16368DE0307D57A
:10180C0023689C03DDD56B68002BDAD1012013E033
:10181C006B68B3F5803F12D1236843F480332360A7
:10182C00FFF7F2F9064623689803CAD4FFF7ECF9E0
:10183C00801B6428F7D9032002B0BDE8F0819BB966
:10184C00236823F480332360236823F480232360EC
:10185C00FFF7DAF9064623689903B2D5FFF7D4F9F6
:10186C00801B6428F7D9E6E7B3F5A02F236803D1D2
:10187C0043F480232360CFE723F480332360236871
:10188C0023F48023CBE7674C636813F00C0F07D06D
:10189C00636803F00C03082B10D16368DA030DD4D2
:1018AC0023689B0702D52B69012BAFD123686A698A
:1018BC0023F0F80343EAC203236085E72A695A4BF5
:1018CC006AB101221A60FFF79FF9064623689F0749
:1018DC00ECD4FFF799F9801B0228F7D9ABE71A6013
:1018EC00FFF792F90646236898077FF56DAFFFF76F
:1018FC008BF9801B0228F6D99DE7AA69494E4B4B00
:10190C00DAB101221A60FFF77FF90446736A9B076C
:10191C000DD54FF4FA52464B1B68B3FBF2F301930F
:10192C0000BF019B5A1E0192002BF9D150E7FFF723
:10193C006BF9001B0228E9D97DE71A60FFF764F9FF
:10194C000446736A9F077FF543AFFFF75DF9001BF1
:10195C000228F6D96FE7334CE369D80024D4012769
:10196C00E36943F08053E361E36903F08053009330
:10197C00009B304E3368D90518D5EB68012B26D166
:10198C00236A43F001032362FFF73EF941F28838E2
:10199C000646236A9B073FD5002F3FF41DAFE36932
:1019AC0023F08053E36117E70027E2E7336843F441
:1019BC0080733360FFF728F980463368DA05DCD48E
:1019CC00FFF722F9A0EB08006428F6D933E7ABB98E
:1019DC00236A41F2883823F001032362236A23F03F
:1019EC0004032362FFF710F90646236A9807D3D540
:1019FC00FFF70AF9801B4045F7D91CE7052B236A32
:101A0C0003D143F004032362BAE723F001032362FA
:101A1C00236A23F00403B6E7FFF7F6F8801B404572
:101A2C00B7D908E70010024000004242800442424D
:101A3C0020000020007000402A4B5A681C4602F01F
:101A4C000C02082A3DD00023274E022833602BD1EC
:101A5C00FFF7DAF80746236899011FD42B6AB3F510
:101A6C00803F05D16268A96822F400320A436260A3
:101A7C00696A62680B4322F4741213436360012396
:101A8C003360FFF7C1F8054623689A013FF5A8AE0D
:101A9C00FFF7BAF8401B0228F6D9CCE6FFF7B4F8EA
:101AAC00C01B0228D7D9C6E6FFF7AEF80546236857
:101ABC009B017FF595AEFFF7A7F8401B0228F6D9DE
:101ACC00B9E601283FF4B8AE5B682A6A03F48031AA
:101ADC0091427FF49BAE6A6A03F4701393423FF415
:101AEC007FAE93E6001002406000424230B5184BC6
:101AFC0087B002AC03F11005224618685968083308
:101B0C0003C2AB421446F7D140F201231149ADF8A0
:101B1C0004304B6803F00C02082A17D1C3F383423C
:101B2C0006A80244DB0312F8102C0CD54B680A48AB
:101B3C00C3F34043504306AA134413F8143CB0FBC0
:101B4C00F3F007B030BD05485043FAE70248F8E718
:101B5C00AB5300080010024000127A0000093D004F
:101B6C002DE9F0410D46044610B90120BDE8F08185
:101B7C00444A136803F007038B4228D321688E076D
:101B8C0030D4CA0743D43F4A136803F00703AB426F
:101B9C0065D822683C4D12F0040F6CD1130706D5A2
:101BAC006B68226923F4605343EAC2036B60FFF74E
:101BBC009DFF6B68354AC3F30313D35CD840344B99
:101BCC001860344B1868FEF7DDFF0020CEE7136871
:101BDC0023F007030B431360136803F007038B42D6
:101BEC00C3D1CBE7284B11F0040F1EBF5A6842F447
:101BFC00E0625A60080742BF5A6842F460525A6069
:101C0C005A68A06822F0F00202435A60B9E7626891
:101C1C001D4E012A33681AD113F4003FA5D0736806
:101C2C0041F2883823F0030313437360FEF7ECFF93
:101C3C0007467368626803F00C03B3EB820FA2D003
:101C4C00FEF7E2FFC01B4045F3D903208EE7022AC2
:101C5C0002D113F0007FE1E713F0020FDEE7136807
:101C6C0023F007032B431360136803F00703AB4205
:101C7C007FF47BAF8DE76B68E16823F4E0630B4383
:101C8C006B608BE700200240001002407454000887
:101C9C002000002008000020044B054A5B68C3F3B9
:101CAC000223D35C034A1068D840704700100240EE
:101CBC008454000820000020044B054A5B68C3F3E1
:101CCC00C223D35C034A1068D8407047001002400E
:101CDC00845400082000002003682DE9F341D90743
:101CEC00054620D5354CE369DA0032D40127E36987
:101CFC0043F08053E361E36903F080530193019B4C
:101D0C002F4E3368DB0526D5236A13F4407336D186
:101D1C00236A6A6823F44073134323621FB1E36997
:101D2C0023F08053E3612868830706D52349AB6809
:101D3C004A6822F440421A434A6010F010001BD04B
:101D4C001E4AE9685368002023F480030B43536058
:101D5C0012E00027D4E7336843F480733360FEF756
:101D6C0053FF80463368D805CED4FEF74DFFA0EB69
:101D7C0008006428F6D9032002B0BDE8F0816A6837
:101D8C0002F440729A42C3D001200E4A236A1060BA
:101D9C00002023F4407110602162D907B8D5FEF7FA
:101DAC0033FF41F288380646236A9A07B0D4FEF70F
:101DBC002BFF801B4045F7D9DDE700BF0010024028
:101DCC000070004040044242036810B51A68044693
:101DDC00920708D55B689B0705D501F053FA6FF0A5
:101DEC00020223685A604FF40032024B5A610123FD
:101DFC00637410BD00040140F8B504460E46154648
:101E0C001F462268936836EA030301D000202DE0B8
:101E1C006B1CF7D0FEF7F8FEC01B8542F1D8236887
:101E2C005A6822F0E0025A606268B2F5827F0AD1E9
:101E3C00A268B2F5004F02D0B2F5806F03D11A68D8
:101E4C0022F040021A60A26AB2F5005F07D11A684C
:101E5C0022F400521A601A6842F400521A600123EC
:101E6C0084F851300023032084F85030F8BD10B5AD
:101E7C0013460A4680210446FFF7BEFF20B103201B
:101E8C00636D43F02003636510BD704710B50446C5
:101E9C00002834D00023836290F8513003F0FF0205
:101EAC001BB980F85020FFF7F0FF0223226884F85A
:101EBC0051301368A16923F040031360D4E9013059
:101ECC000343E06803432069034360690343E0690B
:101EDC000343206A0343A06A034301F40070090C16
:101EEC00034301F0040113605160D369002023F413
:101EFC000063D3610123606584F8513010BD01206B
:101F0C00FCE72DE9F7431E4690F850300446012BB0
:101F1C000D469146DDF8288000F0E080012380F822
:101F2C005030FEF771FE94F851300746012B626871
:101F3C00D9B20AD0B2F5827F40F0CE80A368002BD4
:101F4C0040F0CA80042940F0C780002D3FD0B9F181
:101F5C00000F3CD0002E3AD094F85130C4F8389091
:101F6C00042B1CBF052384F8513000236365C4E99E
:101F7C0010332368E687E6861968A687490658BF9A
:101F8C001968256358BF41F04001A68658BF1960F7
:101F9C00E168B1F5006F51D10AB1012E07D135F8C6
:101FAC00022BDA60E38E2563013B9BB2E3860125AD
:101FBC00E38E9BB26BB9E38F9BB253B93A46414661
:101FCC002046FFF754FF00287BD0202363650120B7
:101FDC002BE021688B689A070DD5E38E9BB253B129
:101FEC004DB10025236B33F8022BCA602363E38EBB
:101FFC00013B9BB2E3868A6812F001020CD0E38F9E
:10200C009BB24BB11546C968A36B23F8021BA363A3
:10201C00E38F013B9BB2E387FEF7F6FDC01B404507
:10202C00C6D3B8F1FF3FC3D00320012384F851304D
:10203C00002384F8503003B0BDE8F0830AB1012EC0
:10204C0008D12A781A73236B01332363E38E013B87
:10205C009BB2E3860125E38E9BB21BB9E38F9BB247
:10206C00002BABD0226893689B070ED5E38E9BB2F6
:10207C005BB155B10025236B1B781373236B0133B4
:10208C002363E38E013B9BB2E3862268916811F0D7
:10209C0001010DD0E38F9BB253B10D46D268A36BF7
:1020AC001A70A36B0133A363E38F013B9BB2E387ED
:1020BC00FEF7AAFDC01B4045CDD3B8F1FF3FCAD0F7
:1020CC00B2E7A368002BB0D123680190DA680192C3
:1020DC009B680193019BA8E70220A6E70220AAE7D0
:1020EC0070477047036810B51A69044691070ED5FE
:1020FC00DA6892070BD56FF002021A61012202779F
:10210C009B699B0777D001F0D9FC002323772368C8
:10211C001A69500710D5DA6851070DD56FF0040213
:10212C001A61022222779B69204613F4407F68D003
:10213C0001F0C4FC0023237723681A6912070FD51A
:10214C00DA6810070CD56FF008021A6104222277A6
:10215C00DB69204699075AD001F0B0FC00232377A5
:10216C0023681A69D20610D5DA68D0060DD56FF03F
:10217C0010021A6108222277DB69204613F4407F93
:10218C004BD001F09BFC0023237723681A69D107FD
:10219C0008D5DA68D20705D56FF0010220461A611E
:1021AC0001F090FC23681A69100608D5DA6811064C
:1021BC0005D56FF0800220461A6100F088F823687C
:1021CC001A69520608D5DA68500605D56FF0400238
:1021DC0020461A61FFF785FF23681A69910622D5FC
:1021EC00DA6892061FD56FF020022046BDE8104039
:1021FC001A6100F06BB801F063FC2046FFF770FF2A
:10220C0083E701F05DFC2046FFF76AFF92E701F0DF
:10221C0057FC2046FFF764FFA0E701F051FC204675
:10222C00FFF75EFFAFE710BD1A4A036890420AD071
:10223C00B0F1804F07D0A2F59432904203D002F552
:10224C008062904215D14A6823F070031343114AFF
:10225C0090420AD0B0F1804F07D0A2F59432904250
:10226C0003D002F58062904203D1CA6823F4407314
:10227C0013434A6923F08003134303608B68C362E2
:10228C000B688362034B984204BF0B690363012301
:10229C0043617047002C014010B50446A0B190F882
:1022AC003D3003F0FF021BB980F83C2001F0E4F84C
:1022BC000223206884F83D30211DFFF7B5FF012370
:1022CC00002084F83D3010BD0120FCE770477047BA
:1022DC000368DA6822F49072DA605A6922F001021B
:1022EC005A61202380F83A30704790F83930202B0F
:1022FC0018D1A9B1A2B190F83830012B12D0C284F8
:10230C0000238284212201620168C36380F8383083
:10231C0080F83920CA68184642F08002CA607047BB
:10232C00012070470220704790F83A30202B20D1C2
:10233C00E9B1E2B190F83830012B1AD0C285828510
:10234C0000232222C36380F83A20026880F83830D8
:10235C008162D168184641F48071D160516941F0B5
:10236C0001015161D16841F02001D1607047012019
:10237C0070470220704710B590F83A30222B33D1B9
:10238C0081680469B1F5805F836A026823D1526861
:10239C00ECB9C2F3080223F8022B8362C48D013C12
:1023AC00A4B2C4858CB90368DA6822F02002DA6022
:1023BC00DA6822F48072DA605A6922F001025A61FA
:1023CC00202380F83A3001F091F800200DE0D2B2D1
:1023DC0023F8012BE1E7591C526881620CB91A7081
:1023EC00DCE702F07F02FAE7022010BD036870B54B
:1023FC001A6804461607D9685D6907D1960659D53F
:10240C008D0657D5BDE87040FFF7B5BF05F001004C
:10241C0001F4907505434DD0D60705D5CD0542BFC7
:10242C00E36B43F00103E363530704D518B1E36B8B
:10243C0043F00203E363960704D518B1E36B43F052
:10244C000403E363150704D518B1E36B43F00803E9
:10245C00E363E36B4BB3900604D5890602D52046A3
:10246C00FFF789FF236820465B69E56B03F04003A7
:10247C0005F008051D4319D0FFF72AFF23685A6998
:10248C0052060FD55A69606B22F040025A6148B16E
:10249C00254B4363FEF73CFC38B1606BBDE87040E4
:1024AC00436B1847204601F037F870BD01F034F843
:1024BC00E563FAE7160628D50D0626D594F83920DB
:1024CC00212AF2D1A168226AB1F5805F18D1118856
:1024DC00C1F308015960216981B902322262E28C90
:1024EC00013A92B2E284002ADFD1DA6822F080024B
:1024FC00DA60DA6842F04002DA60D6E70132EDE7E2
:10250C00511C216212785A60E9E75006CDD54A0673
:10251C00CBD5DA68204622F04002DA60202384F81A
:10252C00393000F0E6FFC0E73925000808B5002374
:10253C00406AC385C38400F0EFFF08BD90F83920D2
:10254C0090F83A001043704784B001A880E80E0060
:10255C0004B000207047B0F840309BB243F43F43C6
:10256C00A0F8403000207047B0F8403023F474538A
:10257C005B045B0CA0F840300020704700207047D3
:10258C0084B010B5044603A880E80E000020012397
:10259C00A4F84030A4F84000A4F84400A4F850007B
:1025AC00B4F840309BB243F43F43A4F84030BDE84C
:1025BC00104004B07047000070B5CB780A78032B3C
:1025CC000FD8DFE803F00266525B30F8223023F4B8
:1025DC00EC4323F070031B041B0C43F4007320F832
:1025EC00223040F60F720C7830F82430134023431D
:1025FC0043F4004343F0800320F824308C7A0D78A8
:10260C0000F58063002C40F092808C884E78640832
:10261C00012E4FEA44044FEAC50545D1B0F850608D
:10262C00B6B2354443F815400C7830F824305D06CA
:10263C0008D530F824301A4042F4004242F0C0026F
:10264C0020F824200A7830F8223023F4E04323F0D9
:10265C0040031B041B0C83F0200343F4004343F0A2
:10266C00800320F82230002070BD30F8223023F493
:10267C00EC4323F070031B041B0CB0E730F8223042
:10268C0023F4EC4323F070031B041B0C43F4C063D2
:10269C00A5E730F8223023F4EC4323F070031B043D
:1026AC001B0C43F480639AE7B0F8502092B22A4492
:1026BC00043243F81240B0F850400D690A78A4B2C5
:1026CC0006343E2D04EBC20429D9C5F34F16EA0695
:1026DC0004BF06F1FF3296B2894A42EA862292B2D0
:1026EC0043F814200A7830F822305B040BD530F80C
:1026FC00223023F0F0031B051B0D43F4404343F041
:10270C00800320F822300A7830F8223023F48043FA
:10271C0023F070031B041B0C83F400539DE7C5F3DB
:10272C004F02ED0744BF013292B29202D7E730F864
:10273C00254024F4F8742405240D44F4014444F099
:10274C00800420F82540B0F850400D78A4B204EB7A
:10275C00C504CD886D086D0043F81450B0F8504096
:10276C000D78A4B2043404EBC5040D896D086D001A
:10277C0043F814504C780D78012C3AD130F82530B0
:10278C005E0408D530F82530134043F4404343F041
:10279C00800320F825300A7830F822305C060BD5FF
:1027AC0030F8223023F0F0031B051B0D43F40043DB
:1027BC0043F0C00320F8223048F280020C7830F845
:1027CC00243023F4E04323F040031B041B0C83F060
:1027DC003003134320F82430097830F8213023F4E7
:1027EC00804323F070031B041B0C134320F821308F
:1027FC0039E7ACB9B0F85040A4B2023404EBC504CC
:10280C000D693E2D60D9C5F34F16EA0604BF06F1DB
:10281C00FF3296B23A4A42EA862292B243F8142028
:10282C004C780A78002C5FD1B0F850400D69A4B2F6
:10283C0006343E2D04EBC2044ED9C5F34F16EA06FE
:10284C0004BF06F1FF3296B22D4A42EA862292B2BA
:10285C0043F814200A7830F822305C040BD530F899
:10286C00223023F0F0031B051B0D43F4404343F0CF
:10287C00800320F822300A7830F822305B060BD522
:10288C0030F8223023F0F0031B051B0D43F40043FA
:10289C0043F0C00320F8223048F280020C7830F864
:1028AC00243023F4804323F070031B041B0C83F4AB
:1028BC004053134320F82430097830F8213023F4A6
:1028CC00E04323F040038EE7C5F34F02ED0744BF0E
:1028DC00013292B29202A0E7C5F34F02ED0744BF5A
:1028EC00013292B29202B2E7012CB3D1B0F850404F
:1028FC000D69A4B2023404EBC20443F81450A9E7E6
:10290C000080FFFF10B58C7A4A780B78C4BB012A83
:10291C0030F823201ED152060BD530F8232022F09C
:10292C00F0021205120D42F4004242F0C00220F8EF
:10293C0023200A7830F8223023F4E04323F04003BC
:10294C001B041B0C43F4004343F0800320F822309B
:10295C00002010BD54040BD530F8232022F0F002D7
:10296C001205120D42F4404242F0800220F823205E
:10297C000A7830F8223023F4804323F07003DFE729
:10298C00012A30F8232046D152040BD530F82320ED
:10299C0022F0F0021205120D42F4404242F0800285
:1029AC0020F823200A7830F822305C060BD530F85A
:1029BC00223023F0F0031B051B0D43F4004343F0BE
:1029CC00C00320F822300A7830F8223023F0F003CC
:1029DC001B051B0D43F4404343F0800320F82230C9
:1029EC0048F280020C7830F8243023F4E04323F0D2
:1029FC0040031B041B0C134320F82430097830F8D7
:102A0C00213023F4804323F070031B041B0C13436D
:102A1C0020F821309CE752040BD530F8232022F00B
:102A2C00F0021205120D42F4404242F0800220F8EE
:102A3C0023200A7830F822305B060BD530F8223090
:102A4C0023F0F0031B051B0D43F4004343F0C003BC
:102A5C0020F822300A7830F8223023F0F0031B05DE
:102A6C001B0D43F4004343F0C00320F8223048F21E
:102A7C0080020C7830F8243023F4804323F0700368
:102A8C001B041B0C134320F82430097830F8213038
:102A9C0023F4E04323F04003B7E70A788AB90388AC
:102AAC0023F4804323F040031B041B0C83F480535A
:102ABC0083F0100343F4004343F0800303800020B1
:102ACC0070474B7883B130F8223023F4E04323F085
:102ADC0040031B041B0C83F0100343F4004343F02E
:102AEC00800320F82230EAE730F8223023F48043C8
:102AFC0023F070031B041B0C83F48053EDE74B781D
:102B0C000A7813B330F822305B060BD530F822303C
:102B1C0023F0F0031B051B0D43F4004343F0C003EB
:102B2C0020F822300A7830F8223023F4E04323F0E6
:102B3C0040031B041B0C83F0300343F4004343F0AD
:102B4C00800320F822300020704730F822305B04DC
:102B5C000BD530F8223023F0F0031B051B0D43F48A
:102B6C00404343F0800320F822300A7830F82230BA
:102B7C0023F4804323F070031B041B0C83F4405399
:102B8C00DBE711B98023A0F84C30002070470020FF
:102B9C00704700207047B0F8440080B270470020A6
:102BAC007047013300F580605B1000EB420203B903
:102BBC00704731F8020B013B22F8040BF7E770B5B4
:102BCC000C4663780546012B097859D1A369226913
:102BDC00A67A934294BF0020981AA06188BF13462E
:102BEC0005F58060CA00F6B9B5F8501089B20A44F0
:102BFC00023240F81230A2889BB228466169FFF776
:102C0C00D0FFA37AFBB9227835F8223023F4E043C5
:102C1C0023F040031B041B0C83F0300343F40043EC
:102C2C0043F080031CE035F8211011F0400FB5F88B
:102C3C00501089B20A4402F1020240F8123014BF5B
:102C4C002289E288D8E7637873B9227835F8223084
:102C5C0023F0F0031B051B0D43F4004343F0C003AA
:102C6C0025F82230002070BD012BFBD1227835F8DD
:102C7C00223023F0F0031B051B0D43F44043CFE738
:102C8C0030F8213023F4804323F070031B041B0C19
:102C9C0083F4405343F4004343F0800320F8213085
:102CAC00E0E710B50024013300F580605B1000EB09
:102CBC0042009C4200D110BD50F8242021F8142071
:102CCC000134F6E786B0042841D8DFE800F00310A1
:102CDC001C2834001F4B20489A6942F004029A6168
:102CEC009B6903F004030193019B06B07047194BD9
:102CFC001A489A6942F008029A619B6903F008032A
:102D0C000293029BF1E7134B15489A6942F01002AB
:102D1C009A619B6903F010030393039BE5E70D4B4A
:102D2C0010489A6942F020029A619B6903F02003D3
:102D3C000493049BD9E7074B0B489A6942F0400275
:102D4C009A619B6903F040030593059BCDE7002036
:102D5C00CBE700BF0010024000080140000C01400E
:102D6C0000100140001401400018014037B50D4D12
:102D7C002B68FDF749FF6C68AB680134E31A0193CB
:102D8C002B68DB0304D5FDF73FFFAB68E31A019317
:102D9C004FF47A72019B5343B3FBF4F302FB003004
:102DAC0003B030BD10E000E0FDF72EBF704708B552
:102DBC00FDF71EFFFDF7A7FFFFF7F8FF08BD0000AA
:102DCC000B4BDA68D2015EBFDA6842F08072DA60CF
:102DDC000022084B5A601A6842F001021A6000BFC8
:102DEC0000BF00BF5868B0FA80F04009704700BFC0
:102DFC00F0ED00E0001000E008B5FFF7E1FFFDF793
:102E0C00E5FE00F0B3FCBDE8084000F01FBD70B556
:102E1C000D0E445991FAA1F3B3FA83F30F269B00DC
:102E2C0006FA03F324EA030491FAA1F1B1FA81F151
:102E3C00890002FA01F12143415170BD70B50D0EAC
:102E4C00445991FAA1F3B3FA83F304269B0006FAD2
:102E5C0003F324EA030491FAA1F1B1FA81F1890098
:102E6C0002FA01F12143415170BD431C04D00C31D5
:102E7C0031F90C3C5A1C01D100207047834201F1FE
:102E8C000C01F5D101207047B24B2DE9F74F00F042
:102E9C000F0253F822B0431C06460D4601F00707FB
:102EAC00C0F303141FFA80F903D14721AA4800F09C
:102EBC00FBF92046FFF706FF012F0446DFF8A0823E
:102ECC004FEA1B6A46D150F80A109BFAABF3B3FADF
:102EDC0083F303229B0002FA03F321EA03039BFA18
:102EEC00ABF1B1FA81F189008A401343012240F819
:102EFC000A3059462046013FFFF789FF012F06D8BB
:102F0C0015F0080218BF04225946FFF797FF54F832
:102F1C000A10C5F301159BFAABF2B2FA82F39A00D0
:102F2C000F2393400B409BFAABF2B2FA82F2012DC5
:102F3C004FEA820223FA02F300F02381022D00F003
:102F4C004F81082B40F03281042259462046FFF76E
:102F5C005EFF2BE1032F00F20C81DFE817F010016C
:102F6C00040006000E013A46C3E7D8F81830C5F342
:102F7C00062243F00103C8F81830D8F8183003F0D3
:102F8C0001030093009B531E232B2CD8DFE813F076
:102F9C0024002D0034003B00400047004C0053003F
:102FAC005800600069006E0075007E0083008A0086
:102FBC0093009C00A100A800B100B600BD002B003E
:102FCC002B002B00C200C9002B002B002B002B0068
:102FDC00CE00D300DA00EA00604A536843F0E063A5
:102FEC0043F001035360092283E75C4A536823F0E2
:102FFC00010343F0E063F5E7584A536843F0E0639C
:10300C0043F00203EEE7554A536823F00203F0E75E
:10301C00524A536843F0E06343F00403E2E74F4A3B
:10302C00536823F00403E4E74C4A536843F0E0632D
:10303C0043F00803D6E7494A536823F00803D8E75E
:10304C0046494B6843F0E06343F030034B6050E774
:10305C00424A536823F0300343F0E06343F010031B
:10306C00C0E73E4A536823F03003C2E73B4A53683B
:10307C0043F0E06343F0C003B4E7384A536823F0ED
:10308C00C00343F0E06343F04003ABE7334A5368BB
:10309C0023F0C003ADE7314A536843F0E06343F4D7
:1030AC0040739FE72D4A536823F4407343F0E06369
:1030BC0043F4007396E7294A536823F4407343F0B2
:1030CC00E06343F480738DE7244A536823F4407320
:1030DC008FE7224A536843F0E06343F4406381E78F
:1030EC001E4A536823F4406343F0E06343F40063E7
:1030FC0078E71A4A536823F440637AE7174A53680F
:10310C0043F0E06343F480536CE7144A536823F4B0
:10311C0080536EE7114A536843F0E06343F4004375
:10312C0060E70E4A536823F4004362E70B4A536886
:10313C0023F0E06356E7094A536823F0E06343F059
:10314C0080734FE7054A536823F0E06343F0007344
:10315C0048E700BF34540008BC530008000001408D
:10316C00001002402D4A536823F0E06343F0806363
:10317C0038E771212A4800F097F80022B9E60822B6
:10318C00B7E6042B04D1082259462046FFF73FFE30
:10319C00E3684FEA1B2223EA1B2B92FAA2F3B3FA41
:1031AC0083F20123934043EA0B03E360D8F8183011
:1031BC0043F00103C8F81830D8F8183003F00103B5
:1031CC000193019BA9F10D03012B18D8134A5368E5
:1031DC0023F0E06343F08063536003B0BDE8F08FED
:1031EC00042B04D1082259462046FFF710FEE36851
:1031FC004FEA1B2223EA1B2392FAA2F2D5E70F2EE9
:10320C0004D0A9F11309B9F1010FE6D8034A5368A8
:10321C0023F0E06343F00073DEE700BF00000140E1
:10322C00BC530008431C06D17047834202D1896805
:10323C00FFF72ABE0C31B1F900305A1CF5D19D2193
:10324C00014800F031B800BFBC530008B1F90030A0
:10325C005A1C01D100207047834201D14868704745
:10326C000C31F3E7431C01D0FFF7F0BF002070478F
:10327C0003468B42084604D01BB100290CBF1846EC
:10328C0000207047034B1B6813B1034A10681847A2
:10329C00704700BF00030020180300200148FEF710
:1032AC0093BD00BF04030020FEE700000F4B1A681B
:1032BC0042F001021A6059680D4A0A405A601A68B5
:1032CC0022F0847222F480321A601A6822F480226E
:1032DC001A605A6822F4FE025A604FF41F029A6078
:1032EC004FF00062034B9A60704700BF0010024021
:1032FC000000FFF800ED00E00438704703681D4A39
:10330C0084B093420BD11C4B9A6942F400629A61CF
:10331C009B6903F400630093009B04B07047B3F106
:10332C00804F10D0154A934218D0154A9342F4D1CD
:10333C00114BDA6942F00402DA61DB6903F0040331
:10334C000393039BE9E70C4BDA6942F00102DA6163
:10335C00DB6903F001030193019BDEE7064BDA699D
:10336C0042F00202DA61DB6903F002030293029B72
:10337C00D3E700BF002C01400010024000040040C5
:10338C00000800400368124A934206D102F56442D9
:10339C00936923F4006393617047B3F1804F06D0B7
:1033AC000C4A934209D00C4A93420BD070470B4AFB
:1033BC00D36923F00103D3617047084AD36923F022
:1033CC000203F8E7054AD36923F00403F3E700BFCF
:1033DC00002C014000040040000800400010024096
:1033EC0008B5431C01460DD00D4B984212D00CD899
:1033FC00B0F1804F10D0A3F5806398420ED00948ED
:10340C00FFF752FF6FF00D0008BD074B9842F6D145
:10341C001920F9E71E20F7E71C20F5E71D20F3E73C
:10342C00000800408C540008002C014008B5431CD7
:10343C0001460DD00D4B984212D00CD8B0F1804FF4
:10344C0010D0A3F5806398420ED00948FFF72CFFEB
:10345C006FF00D0008BD074B9842F6D11B20F9E721
:10346C001E20F7E71C20F5E71D20F3E700080040BD
:10347C008C540008002C014038B50446FFF73EFF81
:10348C000068FFF7ADFFD4E91012FDF7D5FB2068FB
:10349C00FFF7A6FFFDF702FC2068FFF7C7FF054604
:1034AC002068FFF79DFF85420DD02068FFF7BEFF17
:1034BC00D4E91012FDF7C0FB2068FFF7B7FFBDE899
:1034CC003840FDF7EBBB38BD08B5074B90F85120E1
:1034DC0053F82200FFF732F800F02200A0F122038B
:1034EC005842584108BD00BF1C030020036C04382F
:1034FC00184710B5436C04460438984701300AD07D
:10350C00B4F85E30616D9BB22046BDE810400122DC
:10351C001944FEF7EABE10BD1FB5036804461868CF
:10352C0010F0010013D0002200921A6800925B6820
:10353C000093009B201FFFF7C7FF40BB01222046D2
:10354C0004F14E0104B0BDE81040FEF7EDBE196861
:10355C0011F0020106D001901A6801925B68019388
:10356C00019BE7E71A6812F0040206D002911A6870
:10357C0002925B680293029BDCE719680907D9D5B4
:10358C0003921A6803925B680393039BD2E704B01F
:10359C0010BD000008B52520FDF7A4FB024B1868F0
:1035AC00BDE80840FEF722BF1C03002008B526200A
:1035BC00FDF798FB024B5868BDE80840FEF716BFB4
:1035CC001C030020272008B5FDF78CFB034B9868E3
:1035DC0018B1BDE80840FEF709BF08BD1C03002068
:1035EC00F8B514490646FFF73DFE00F0F1F9124C10
:1035FC00054654F8203073B90E493046FFF732FEB9
:10360C0007466C2000F058FB0646394600F0FCF9E2
:10361C0054F825301E6054F825301C6844B12046FF
:10362C0000F038FA2046BDE8F8406C2100F046BBAB
:10363C00F8BD00BFA454000868040020836810B5CE
:10364C00044613B1032201469847204610BD0000E2
:10365C000023012803F1010202D013464008F8E7C9
:10366C001421DBB24B43044A181D1044816811B17C
:10367C001A44136918477047280300200120FDF7EE
:10368C008DBB0220FDF78ABB0420FDF787BB082009
:10369C00FDF784BB1020FDF781BB38B50524202530
:1036AC00A8B2FDF77BFB013C4FEA4505F8D138BDCC
:1036BC0038B506244FF48065A8B2FDF76FFB013CCA
:1036CC004FEA4505F8D138BD0721204B0622197564
:1036DC00082183F82810092183F83C100A2183F86B
:1036EC00501017211A7083F86410002283F8781098
:1036FC0083F88C1083F8A01083F8B4102821DA60BA
:10370C001A625A639A64DA651A67C3F88420C3F89C
:10371C009820C3F8AC20C3F8C02083F8C810C3F8B5
:10372C00D42083F8DC10C3F8E82083F8F010C3F839
:10373C00FC2083F80411C3F8102183F81811C3F886
:10374C00242183F82C11C3F838217047280300205A
:10375C0038B5054CA4F5A075143C201DFFF76EFF81
:10376C00AC42F9D138BD00BF6804002010B54FF44D
:10377C0080330122022494B00021CDE90A23CDE943
:10378C0011434FF4E0130AA80C910E921393FEF719
:10379C0011F800B1FEE70F23CDE905344FF4806337
:1037AC000790CDE90830214605A8FEF7D9F900B1FC
:1037BC00FEE7122301934FF40043CDE9033001A837
:1037CC00FEF78AFA00B1FEE714B010BD002103E049
:1037DC000B4B5B58435004310A480B4B42189A422E
:1037EC00F6D30A4A02E0002342F8043B084B9A4203
:1037FC00F9D3FFF75BFD01F0FFFA00F04DFA7047CB
:10380C00A85900080000002008020020080200202F
:10381C00A80E0020FEE7704708B501210C20FFF729
:10382C0033FB084B0A201A68074B1B6BC3F30F239F
:10383C00536100F083F8BDE8084000210C20FFF72D
:10384C0023BB00BF0C0000203454000800F0DCBA8D
:10385C0022282DE9F0410E463DD8204B33F910407B
:10386C00621C38D01E4DC4F3031755F8273004F0F2
:10387C000F0823FA08F3DB0710D520461949FFF788
:10388C00F4FA10B12046FFF7ABFE012303FA08F25D
:10389C0055F8273023EA020345F82730052E14D8B3
:1038AC00DFE806F0030F090B0D1100212046BDE8DF
:1038BC00F041FFF7E9BA1021F8E72021F6E70321E0
:1038CC00F4E70121F2E70921F0E74921BDE8F041D5
:1038DC000548FFF7E9BCBDE8F08100BFC056000801
:1038EC0088040020A45400080657000822288EBF24
:1038FC004FF0FF330C4B33F91030C3F30312042A8F
:10390C0098BF0A4803F00F0398BF50F822200848CC
:10391C0088BF002250F82330C3F30F2309B1136181
:10392C0070475361704700BFC05600080C00002060
:10393C0034540008FFF738BAFFF718BA38B5044604
:10394C0048B1FFF731FA0546FFF765FFFFF72CFA90
:10395C00431BA342F8D338BD10B5044620B940F23E
:10396C00CB310648FFF7A0FC2046FFF7C5FC0068EA
:10397C00436D13B1BDE81040184710BD73570008D4
:10398C0070B5054620B940F2DE311048FFF78CFCCB
:10399C002B7F013B072B17D8DFE803F0140416101C
:1039AC001616161202242846FFF7A6FC006800EB38
:1039BC008404636D43B1BDE8704018470324F2E7FB
:1039CC000424F0E70124EEE770BD00BF7357000834
:1039DC000B4B98420ED0B0F1804F0DD0A3F5943321
:1039EC0098420BD04FF6FF73064A904214BF18460C
:1039FC000320704700207047012070470220704759
:103A0C00002C01400008004070B5044608460D46E5
:103A1C00FFF7DEFF4FF6FF739842064603D13221C3
:103A2C001A48FFF741FC1A4B04F1080243F8262010
:103A3C00E5600E23002504F10C063046C4E913356D
:103A4C00C4E90B55C4E90D55C4E90F5584F8285049
:103A5C00656484F8485084F84950A460FFF74EFC24
:103A6C004FF6FF733046C4E91555C4E91755C4E940
:103A7C001955C4E90055C4E90553C4E90755256136
:103A8C006562FEF709FC204670BD00BF7357000845
:103A9C0068040020014638B5044651F80C0FFFF7B6
:103AAC0097FF05460846FFF76DFC0022024B2046A7
:103ABC0043F8252038BD00BF68040020FFF760BF25
:103ACC00FFF75EBFFFF748BF034B186810B1043017
:103ADC00FEF708BB704700BF68040020FFF7F4BF77
:103AEC00034B586810B10430FEF7FCBA704700BFA6
:103AFC0068040020034B986810B10430FEF7F2BA4A
:103B0C00704700BF68040020034BD86810B1043024
:103B1C00FEF7E8BA704700BF6804002003688A68A3
:103B2C005B680968184710B50446FFF703FFE060AF
:103B3C0023682046DB689847002808DAFFF7FAFE6E
:103B4C00E368C01AA3689842F2D34FF0FF3010BD5F
:103B5C00F8B506460D4617460024BC4207D0304641
:103B6C00FFF7E1FF031E02DB2B550134F5E720467E
:103B7C00F8BD2DE9F0410746884616461D4673B13F
:103B8C0000243846FFF7CFFF031E05DB434503D067
:103B9C0033550134A542F4D12046BDE8F0811C46D2
:103BAC00FAE78160704710B50446006801F050F9DF
:103BBC00204610BD10B50446006808B101F048F964
:103BCC000023C4E90133236010BD38B504460D460B
:103BDC000068013101F0F8F910B1C4E900050120C9
:103BEC0038BD036810B5044623B143688B4201D33A
:103BFC00012010BD2046FFF7E8FF0028F9D0A3688C
:103C0C00002BF5D122681370F2E770B50E46114601
:103C1C0004461546FFF7E5FF20B92046FFF7CAFF1B
:103C2C00204670BD31462068A56001F0E5F9F7E744
:103C3C0038B5002304460D46C0E90033836039B122
:103C4C000846FCF75DFA294602462046FFF7DDFFE1
:103C5C00204638BD884210B50B46044604D009688E
:103C6C0021B19A68FFF7D1FF204610BDFFF7A2FFE4
:103C7C00FAE7002310B50446C0E900338360FFF770
:103C8C00E9FF204610BD704708B50320FCF7C2FFC2
:103C9C00BDE8084000F064B808B5FFF7F4FFFCF786
:103CAC0091FC044CFCF7ACFC002CFBD0AFF3008077
:103CBC00F8E700BF0000000001F0C2B801F0C8B87E
:103CCC0022282DE9F8430C46164621D80125224B13
:103CDC0033F9103003F00F02C3F30313042B05FA6E
:103CEC0002F517D81D4A52F82380002C18BF2C4619
:103CFC00FFF722FE0746D8F808302B40A3420CD120
:103D0C00FFF71AFEC01BB042F5D90020BDE8F883BE
:103D1C004FF400454FF00008E7E7D8F808302B4087
:103D2C00A34205D0FFF708FEC01BB042F5D9ECE763
:103D3C00FFF702FE8146D8F808302B40A34205D18C
:103D4C00FFF7FAFDC01BB042F5D9DEE7FFF7F4FD33
:103D5C00A0EB0900DAE700BFC05600080C000020F9
:103D6C00FFF74AB80020704710B5094C094800F01D
:103D7C002FFE204600F057FE0122074B20461A70FA
:103D8C0000F05AFE0146054800F0F2FF002010BD7D
:103D9C002E050020A804002040000020F40500207F
:103DAC0021280ED022281DD0202808D10A68134BB8
:103DBC001A600A791A714A795A718A799A710020B3
:103DCC0070470E4B1A680A701A68120A4A705A88A1
:103DDC008A70DA78CA701A790A715A794A719B79A1
:103DEC008B71ECE74B88064A03F0010313601368F0
:103DFC00002BE4D00022034B1A60E0E738000020CF
:103E0C007C0400208004002010B50C4C22789AB958
:103E1C000B490C4800F084F870B90B49094800F0C4
:103E2C0094F848B90949074800F093FF20B90548B0
:103E3C0000F092F80123237010BD00BF780400201D
:103E4C0058000020F40500209400002024000020DD
:103E5C0037B50F4CD4F8B832D3F81432ABB90D488F
:103E6C000DF1060100F0BAFDBDF80630054663B150
:103E7C00FCF7CAFE084B29461860BDF80620204600
:103E8C0000F06EFF204600F079FF03B030BD00BF9C
:103E9C00F4050020A80400208004002010B50024A4
:103EAC00044B05481C6000F0B4FDFFF7D1FF204621
:103EBC0010BD00BF80040020A804002038B50A4DB6
:103ECC002B780BB1002038BD084800F0B5FD014639
:103EDC000028F7D0012406482C7000F049FF044854
:103EEC0000F065FF2046EEE7400000202E05002084
:103EFC00F405002008B50988064800F0D6FD00221C
:103F0C00054B1A70FFF7DAFF10B9044800F066FF92
:103F1C00002008BD2E05002040000020F4050020E4
:103F2C0008B580B1D0F8B43213B10023C0F8B43264
:103F3C0009B1C0F8B0120123027080F89C3200F075
:103F4C003FFC002008BD0220FCE719B1C0F8B412F8
:103F5C00002070470220704708B500F067FC002075
:103F6C0008BD08B5D0F8B4320BB9022008BD1B68E7
:103F7C0098470028FAD0F8E708B5D0F8B4325B6857
:103F8C009847002008BD38B500F52A750446284628
:103F9C0000F0E8FA012394F8A812C4F89432B4F8AB
:103FAC00AE32C4F8983201F01F03012B08D0022B5B
:103FBC000BD07BB92946204600F0FCF8002038BD18
:103FCC002946204600F020FAF8E72946204600F062
:103FDC003FFAF3E7204601F0800100F03FFCEDE7EB
:103FEC0070B5044616460D4639BBD0F89432032BF7
:103FFC001CD1D0E9581291420BD9891A8A42C0F8C7
:10400C0060118CBF8AB292B2314600F008FB284690
:10401C0070BDD0F8B4321B6923B190F89C22032AEE
:10402C0000D19847204600F002FBF0E7052BEED1BB
:10403C00C4F8941200F012FCE9E7D0F8B4329B6992
:10404C0033B190F89C22032A02D198470025DEE771
:10405C000225DCE7F8B5044617460D46002947D182
:10406C00D0F89432022B3CD1D0E908639E4214D98B
:10407C00F31A394603629AB200F0BCFA2B462A4670
:10408C002946204600F018FC94F8A032012B02D1EE
:10409C00002384F8A0322846F8BDC269B2FBF3F6BF
:1040AC0003FB16265EB9934209D8D0F898329A428F
:1040BC0005D20A4600F09EFAC4F89852DEE794F84E
:1040CC009C32032B09D1D4F8B432DB680BB12046F7
:1040DC0098478021204600F0C1FB204600F0B2FA40
:1040EC00D2E733F00403CFD1802100F0B7FBCBE74C
:1040FC00D0F8B4325B6933B190F89C22032A02D118
:10410C0098470025C7E70225C5E7002270B504468D
:10411C00012540261146402300F08FFB33468021B9
:10412C0000222046C4F85851C4F8646100F085FBA5
:10413C000021D4F8B832A561666284F89C52C4F8A8
:10414C0094126160C4F8A41223B1D4F8B43220469E
:10415C005B689847002070BD01740020704790F890
:10416C009C3280F89D32042380F89C3200207047EA
:10417C0090F89C32042B04BF90F89D3280F89C324E
:10418C000020704708B590F89C22032A04D1D0F87F
:10419C00B432DB6903B19847002008BD10B5044662
:1041AC00802100F05BFB2046BDE81040002100F0B0
:1041BC0055BB000037B50B78044603F06003202B89
:1041CC000D4612D0402B10D0002B51D14B78092B1F
:1041DC004ED8DFE813F0EE000A014D0003014D004C
:1041EC00870013004D00D600A300D4F8B432294642
:1041FC0020469B689847002003B030BD0023ADF8E3
:10420C0006304B881A0A013A062A31D8DFE802F048
:10421C000416233030485200D0F8B0321B68207C92
:10422C000DF106019847BDF80620002A56D0EB8800
:10423C00002B4AD1204600F0FAF9DCE7027CD0F8DA
:10424C00B43232B99B6A0DF10600984702234370D1
:10425C00E9E7DB6AF7E7DBB2052B09D8DFE803F007
:10426C00030C1014181CD0F8B0325B68002BD6D19C
:10427C002046FFF793FFBEE7D0F8B0329B68F5E716
:10428C00D0F8B032DB68F1E7D0F8B0321B69EDE75B
:10429C00D0F8B0325B69E9E7D0F8B0329B69E5E75A
:1042AC00037C002BE4D1D0F8B4320DF106005B6B2B
:1042BC009847B8E7037C002BDAD1D0F8B4320DF173
:1042CC0006001B6B98470723C1E79A4228BF1A4682
:1042DC0001462046ADF8062000F07FF9EB88002B54
:1042EC0089D1A7E78B88002BC2D1CB88002BBFD1FB
:1042FC004D887F2DBCD890F89C32032BB8D0E9B2F6
:10430C0080F89E1200F0CAFA204600F090F91DB118
:10431C00022384F89C326EE70123FAE78978394D41
:10432C0001292970A4D890F89C32022B08D0032BB9
:10433C0015D0FFF733FF20462978FFF71DFE5AE70B
:10434C0000293FF477AF01210323416080F89C32B0
:10435C002046FFF706FE02287FF46CAF88E731B9E0
:10436C000223416080F89C32FFF706FE62E7416849
:10437C0001293FF45FAFC9B2FFF7FEFD29786160F8
:10438C00E6E7CA88012A7FF473AF90F89C32022BBF
:10439C000AD8002B3FF46CAF0146002341F8083FCC
:1043AC00204600F01AF926E7032B7FF461AF011DBC
:1043BC00F6E790F89C32013B022B3FF659AFCB88C5
:1043CC00022B7FF455AF0123C360D0F8A4320BB19C
:1043DC000323C360022204F10C01E1E74B88012B9B
:1043EC007FF409AFC4F8A43224E790F89C32013B67
:1043FC00022B3FF63DAF4B88012B7FF4FCAE002324
:10440C00F0E700BF8404002038B50B78044603F0B5
:10441C006002402A0D4601D05B0615D494F89C32FC
:10442C00013B022B10D82B79022B0DD8D4F8B432C7
:10443C0029469B6820469847EB881BB910B9204643
:10444C0000F0F5F8002038BD2046FFF7A7FEF9E78D
:10445C0038B50A78044602F06002202A0B4627D0B1
:10446C00402A25D092BB5A788D88012A09793DD0F3
:10447C00032A25D052BB90F89C32022B4DD0032B33
:10448C0024D1142201F00F0315F0800F02FB03035B
:10449C0054D09B69D3B1142301F07F0505FB033382
:1044AC00C51811F07F0355D12B600222294641E03B
:1044BC00D4F8B4221946204692689047002038BDA3
:1044CC0090F89C22022A1FD0032A03D02046FFF723
:1044DC0065FEF3E75A882AB94A0603D0DB880BB984
:1044EC0000F0BCF9204600F0A2F8E7E790F89C2217
:1044FC00022A09D0032AE9D15B88002BDED14D06B4
:10450C00F0D000F0B2F9EDE74B06DFD000F0A6F9E1
:10451C008021204600F0A2F9D0E74A06D6D12B061E
:10452C004FF000034FF002024CBF00F1140100F5F4
:10453C00AA710B60204600F050F8BFE7D3F8583151
:10454C00002BC3D0142301F07F0503FB050505F5F3
:10455C00AA75A6E7204600F08FF908B10123A3E75E
:10456C002860A2E70B7803704B784370CA788B787D
:10457C0003EB022343804A790B7903EB02238380FC
:10458C00CA798B7903EB0223C380704710B50446BC
:10459C00802100F063F92046BDE81040002100F0B6
:1045AC005DB930B588B1002501382B460135445D25
:1045BC00002CFAD1DBB201335B0013800B700323A8
:1045CC004B70022310F8015F05B930BD5A1CCD5455
:1045DC00D2B20233DBB28C54F4E71346022210B58C
:1045EC00C0E90733C0F894220A46002100F05DF9B7
:1045FC00002010BD08B513460A46002100F055F9FD
:10460C00002008BD1346032210B5C0E95733C0F88B
:10461C0094220A46002100F04FF9002010BD08B585
:10462C0013460A46002100F047F9002008BD08B5E2
:10463C000423C0F8943200231A46194600F035F9C9
:10464C00002008BD08B50523C0F8943200231A4693
:10465C00194600F031F9002008BD000037B5204B99
:10466C00026804469A4239D11E4D03E0A968FEF750
:10467C000BFC0C35B5F90000431CF7D11A4B01218A
:10468C00DA69142042F40002DA61DB69002203F4D7
:10469C0000030193019BFCF7CFFA1420FCF7FEFA00
:1046AC00A369012B1AD14FF48022104B2A205A6196
:1046BC00DA6822F48022DA609A6842F480229A60E6
:1046CC001A6842F480221A60FCF7E8FA00222A20C9
:1046DC00114603B0BDE83040FCF7AEBA03B030BDB4
:1046EC00005C00409C560008001002400004014091
:1046FC0000F2AC41D0F8DC04FFF745BC242303FBEB
:10470C000103D0F8DC04D3F87C22FFF769BC242326
:10471C0003FB0103D0F8DC04DA6BFFF79BBCD0F889
:10472C00DC04FFF72FBD10B50446D0F8DC04FFF70E
:10473C00ECFCD4F8DC040121BDE81040FFF70CBD03
:10474C0010B50446D0F8DC04FFF709FDA36923B1CA
:10475C00024A136943F00603136110BD00ED00E03B
:10476C00836910B5044633B1FFF700F8054A1369A5
:10477C0023F006031361D4F8DC04BDE81040FFF706
:10478C00F7BC00BF00ED00E00148FCF7EDBC00BF3A
:10479C00B808002008B5074B9B6933B1064A13696A
:1047AC0023F006031361FEF7E1FF4FF48022034B65
:1047BC005A6108BDB808002000ED00E0000401407B
:1047CC0070B50446FFF728F804231448436000230F
:1047DC00C0E90733C0E90533C360114BC0F8DC44B2
:1047EC0003600223C4F8C00203618360FCF7E2FAA1
:1047FC0020B14FF4FC710B48FEF756FD00250A4C16
:10480C00064E63682289218830460135FCF7B6FFD5
:10481C00052D04F10C04F4D1002070BDB808002063
:10482C00005C0040E1570008E058000808B5D0F8DB
:10483C00C002FCF72EFB002008BD10B51446D0F8C2
:10484C00C0021A462346FCF74FFB002010BD08B5EA
:10485C00D0F8C002FCF76AFB002008BD08B5D0F800
:10486C00C002FCF73FFF002008BD08B5D0F8C0021D
:10487C00FCF762FF002008BD242211F0800FD0F855
:10488C00C0321BBF01F07F0102FB013102FB013181
:10489C0091F82A0008BF91F86A02704708B5D0F861
:1048AC00C002FCF70DFB002008BD08B5D0F8C00213
:1048BC00FCF748FC002008BD08B5D0F8C002FCF796
:1048CC0055FB002008BD08B5D0F8C002FCF732FC3F
:1048DC0008BD0000122301480B80704744000020E3
:1048EC00042301480B80704774000020002370B52E
:1048FC001E464D1C040FB0F1204F34BF30343734FA
:10490C0001F8134005F813600133DCB294424FEA0E
:10491C000010EFD370BD00001A2310B50B80094BAB
:10492C00186808331B68C0180AD0074B08221C688B
:10493C000649FFF7DBFF042220460549FFF7D6FFA7
:10494C00044810BDE8F7FF1FECF7FF1F7A000020AA
:10495C008A0000207800002010B5044C0A46044858
:10496C002146FFF71EFE204610BD00BF980D00200B
:10497C00535800080A4608B5044920B90448FFF703
:10498C0010FE024808BD0348F9E700BF980D00204F
:10499C00665800088558000810B5044C0A460448AF
:1049AC002146FFF7FEFD204610BD00BF980D0020EC
:1049BC00A458000810B5044C0A4604482146FFF7D9
:1049CC00F0FD204610BD00BF980D0020BF58000818
:1049DC000023A0F88230A0F880307047B0F8802017
:1049EC00B0F8823092B29BB29A422BBFB0F88030B2
:1049FC00B0F88230B0F88220C3F1800328BF9B1A34
:104A0C009BB20B80A0F88430B0F882309BB2184473
:104A1C007047B0F88220B0F88430134403F07F0361
:104A2C00A0F8823070470023A0F8C230A0F8C03044
:104A3C00C023A0F8C4307047B0F8C23082B09BB22B
:104A4C00ADF80630B0F8C010BDF8063089B29BB294
:104A5C009942B0F8C03002469BB21ED37F2B08D9C6
:104A6C00B0F8C0309BB2802B09D1BDF806309BB298
:104A7C002BB1B2F8C0309BB2D01802B07047BDF861
:104A8C00063000209BB2402BF7D9B2F8C0309BB255
:104A9C00A2F8C430A2F8C000EBE7BDF80610403312
:104AAC0089B28B42E5D30020E7E7B0F8C030194457
:104ABC0089B2A0F8C010B0F8C020B0F8C43092B2DF
:104ACC009BB29A4224BFC023A0F8C430B0F8C030C7
:104ADC009BB2BF2B84BF0023A0F8C0307047D0F826
:104AEC00BC3210B56BB1D0F8B84294F80002FF2874
:104AFC0007D09B68214694F801229847FF2384F83D
:104B0C000032002010BD0000432303800048704792
:104B1C00CC00002043230380004870471001002084
:104B2C004323038000487047600100200A23038060
:104B3C00004870475401002038B50446D0F8B852EC
:104B4C00FFF7C1FED4F8B832C5F80C024BB1D4F85B
:104B5C00BC32D5F80402DB6805F5037198470020D8
:104B6C0038BD0220FCE7D0F8B822F8B505460AB3E8
:104B7C00142707FB0107FB6993B14FF0240CD0F805
:104B8C00C0420CFB0146B66BB3FBF6F406FB1434C7
:104B9C0034B923462246FC61FFF787FE2046F8BD58
:104BAC000024D5F8BC32C2F8144218690028F6D09B
:104BBC008047F3E70220F2E72DE9F7434FF00008B6
:104BCC000A78054612F060040E46D0F8B8728DF8DB
:104BDC000580ADF8068028D0202C42D1CC884B78AB
:104BEC00E4B1120611D5D0F8BC223946D2F808909F
:104BFC0018462246C84739462846F288FFF7EDFC8E
:104C0C004446204603B0BDE8F0832246394687F877
:104C1C00003287F80142FFF7F5FCF1E7D0F8BC222F
:104C2C00184695682246A847EBE74B780A2B0CD020
:104C3C000B2B12D0ABB990F89C32032B11D1022262
:104C4C000DF10601FFF7C9FCDBE790F89C32032B52
:104C5C0007D101220DF10501F4E790F89C32032BEA
:104C6C00CFD031462846FFF791FC0224C9E738B56E
:104C7C00044600258221FFF7EAFD01212046256428
:104C8C00FFF7E5FD83212046C4F86C51FFF7DFFDEB
:104C9C00D4F8B83265654BB1D4F8BC325B68984730
:104CAC00D4F8B80200F0D4F8C4F8B852002038BDDB
:104CBC002DE9F041037C0446BBBB4FF40073022288
:104CCC0082210125FFF7B9FD4FF4007325640127FC
:104CDC00294602222046FFF7B0FD08230322832138
:104CEC00C4F86C512046FFF7A8FD4FF407706765B8
:104CFC0000F0A6F80546C4F8B80240B34FF000081F
:104D0C00D4F8BC321B689847267CC5F81482C5F8C9
:104D1C0018829EB94FF4007339462046D5F8042208
:104D2C00FFF7CAFD3046BDE8F08101254023022281
:104D3C008221FFF782FD40232564C8E740233946D2
:104D4C002046D5F80422FFF7B7FD4646EAE73E4673
:104D5C00E8E719B1C0F8BC12002070470220704778
:104D6C00D0F8B8320020C3F80812C3F810227047EC
:104D7C00D0F8B8320020C3F804127047D0F8B8222B
:104D8C0010B582B1D2F81442012374B9C2F81432AE
:104D9C00D2F8103282214364D2F808229BB2FFF77A
:104DAC0084FD204610BD0220FCE71846FAE7D0F837
:104DBC00B82210B582B1047CD2F8042234B94FF475
:104DCC0000730121FFF778FD204610BD402301211F
:104DDC00FFF772FD0024F7E70224F5E708B5D0F8D9
:104DEC00B83233B1002301211A46FFF765FD0020CC
:104DFC0008BD0220FCE7000070B500260C4D0D4CE0
:104E0C00641BA410A64209D100F09CFA00260A4D9E
:104E1C000A4C641BA410A64205D170BD55F8043B86
:104E2C0098470136EEE755F8043B98470136F2E710
:104E3C008459000884590008845900089C590008BA
:104E4C00024B0146186800F065B800BFA4010020B1
:104E5C00024B0146186800F011B800BFA4010020F5
:104E6C000A44914200F1FF3300D1704710B511F89C
:104E7C00014B914203F8014FF9D110BD38B50546ED
:104E8C00002943D051F8043C0C1F002BB8BFE41888
:104E9C0000F0BCF81E4A1368104633B96360146006
:104EAC002846BDE8384000F0B7B8A3420AD92168BB
:104EBC006218934201BF1A685B68521822606360E3
:104ECC000460EDE71A465B680BB1A342FAD911688E
:104EDC005018A0420BD12068014450188342116035
:104EEC00DED118685B68014411605360D8E702D9C1
:104EFC000C232B60D4E7206821188B4201BF196862
:104F0C005B680918216063605460C9E738BD00BF55
:104F1C009C040020F8B5CD1C25F0030508350C2D9C
:104F2C0038BF0C25002D064601DBA94203D90C2302
:104F3C0033600020F8BD00F069F821490A68144676
:104F4C009CB9204F3B6823B92146304600F044F809
:104F5C0038602946304600F03FF8431C23D10C231F
:104F6C003046336000F058F8E3E723685B1B17D436
:104F7C000B2B03D923601C44256004E06368A24218
:104F8C000CBF0B605360304600F046F804F10B0088
:104F9C00231D20F00700C21ACCD01B1AA350C9E75E
:104FAC0022466468CCE7C41C24F00304A042E3D07E
:104FBC00211A304600F010F80130DDD1CFE700BFE8
:104FCC009C040020A0040020024B0A4601461868ED
:104FDC0000F028B8A401002038B50023054D044684
:104FEC0008462B60FBF7AEFD431C02D12B6803B1C6
:104FFC00236038BD980E0020034611F8012B03F8EE
:10500C00012B002AF9D17047704770470148FFF710
:10501C00FBBF00BFA00E00200148FFF7F6BF00BF8A
:10502C00A00E0020F8B5074614460E4621B91146CD
:10503C00BDE8F840FFF76EBF22B9FFF71FFF25460A
:10504C002846F8BD00F014F8A0420FD2214638468D
:10505C00FFF760FF05460028F2D031462246FFF7E5
:10506C00FFFE31463846FFF709FFE9E73546E7E72B
:10507C0051F8043C181F002BBCBF0B58C0187047CC
:10508C002DE9F047089E0D4604468E46002B40F055
:10509C0083808A42174647D9B2FA82F34BB1C3F1E7
:1050AC00200105FA03FE20FA01F19F4041EA0E0EA1
:1050BC009C404FEA1748BEFBF8FC1FFA87F908FB27
:1050CC001CE20CFB09F0210C41EA024290420AD985
:1050DC00BA180CF1FF3180F01881904240F2158122
:1050EC00ACF1020C3A44121AB2FBF8F008FB102295
:1050FC0000FB09F1A4B244EA0244A14209D93C19CB
:10510C0000F1FF3280F00381A14240F200810238AD
:10511C003C44641A002140EA0C401EB10022DC40E1
:10512C00C6E90042BDE8F08702B9FFDEB2FA82F3AD
:10513C00002B4FD18D1A01214FEA124E1FFA82F823
:10514C00B5FBFEFC0EFB1C5508FB0CF0220C42EAD6
:10515C000545A84207D97D190CF1FF3202D2A842AD
:10516C0000F2E98094462D1AB5FBFEF00EFB1055AB
:10517C0008FB00F8A4B244EA0544A04507D93C1941
:10518C0000F1FF3202D2A04500F2D9801046A4EB08
:10519C00080440EA0C40C0E78B4208D9002E00F00E
:1051AC00B1800021C6E900050846BDE8F087B3FAD6
:1051BC0083F100294BD1AB4202D3824200F2B98079
:1051CC00841A65EB030301209E46002EAAD0C6E983
:1051DC00004EA7E79F40C3F12002D1404FEA174E83
:1051EC00B1FBFEF01FFA87F80EFB101124FA02F245
:1051FC009D4000FB08FC2A43150C45EA0145AC45D3
:10520C0004FA03F409D97D1900F1FF3180F08F8085
:10521C00AC4540F28C8002383D44A5EB0C05B5FB47
:10522C00FEF10EFB115C01FB08F995B245EA0C4549
:10523C00A94507D97D1901F1FF3274D2A94572D95C
:10524C0002393D44A5EB090541EA004178E7C1F17B
:10525C0020078B4022FA07FC4CEA030C25FA07F4D2
:10526C004FEA1C4EB4FBFEF91FFA8CF80EFB1944E6
:10527C0020FA07F309FB08FA8D401D432B0C43EA77
:10528C000444A24502FA01F200FA01F309D91CEB1D
:10529C00040409F1FF3048D2A24546D9A9F102090C
:1052AC006444A4EB0A04B4FBFEF00EFB104400FBB8
:1052BC0008FAADB245EA0444A24508D91CEB040433
:1052CC0000F1FF352DD2A2452BD90238644440EAB7
:1052DC000940A0FB0289A4EB0A044C45C6464D4686
:1052EC0019D316D05EB1B3EB0E0264EB050404FACD
:1052FC0007F722FA01F31F43CC40C6E900740021E2
:10530C00BDE8F087314630460CE78C46EBE610469C
:10531C00FFE64345E6D2B8EB020E69EB0C0501380B
:10532C00E0E72846D3E711468CE78146B9E7084603
:10533C0073E7084649E7ACF1020C3D4413E7023829
:10534C003C4424E7F8B500BFF8BC08BC9E46704747
:0C535C00F8B500BFF8BC08BC9E467047C6
:10536800000000000000000091010008E1020008B0
:10537800830200089302000825030008A901000819
:105388005D3B00087F3B000848656C6C6F20576FD9
:10539800726C640048656C6C6F20576F726C642E79
:1053A8002E2E0002030405060708090A0B0C0D0E31
:1053B8000F1010002F686F6D652F736172626A6538
:1053C80065742F736E61702F61726475696E6F2FCB
:1053D80034312F2E61726475696E6F31352F7061AB
:1053E800636B616765732F53544D33322F68617255
:1053F80064776172652F73746D33322F312E382EB6
:10540800302F6C69627261726965732F53726357CA
:105418007261707065722F7372632F73746D33329B
:105428002F70696E6D61702E63000000010100002D
:105438000202000004040000080800001010000028
:10544800202000004040000080800000010001048E
:1054580002000204040004040800080410001004F8
:105468002000200440004004800080040000000068
:1054780000000000010203040607080900000000FC
:105488000102030454494D3A20556E6B6E6F776ED6
:105498002074696D6572204952516E000000000049
:1054A80000000040128000000100000000000040E1
:1054B80012000100020000000000004012800100FC
:1054C8000300000000000040120002000600000077
:1054D80000040040128000000700000000040040A3
:1054E8001200010008000000002C0140128000009A
:1054F80009000000002C0140120001000A00000011
:10550800002C0140128001000B000000002C01401B
:10551800120002000F00000000000040128F00007F
:10552800100000000004004012800100110000007B
:1055380000040040120002001300000000000040B8
:10554800120F010014000000000400401294000033
:1055580015000000000400401214010016000000AD
:1055680000080040128000001700000000080040FA
:10557800120001001800000000080040128001001D
:105588001900000000080040120002001A00000084
:1055980000000040128F01001B00000000000040C6
:1055A800120F02001D000000002C014012801000A4
:1055B8001E000000002C0140120011001F00000016
:1055C800002C014012801100FFFF000000000000C5
:1055D800000000000600000000300140120000003A
:1055E8001400000000300140120100001E000000FD
:1055F8000038004012000000FFFF0000000000001B
:105608000000000007000000003001401200000008
:105618001500000000300140120100001F000000CA
:105628000038004012000000FFFF000000000000EA
:1056380000000000050000000030014012000000DA
:105648001300000000300140120100001D0000009E
:105658000038004012000000FFFF000000000000BA
:1056680000000000040000000030014012000000AB
:105678000F00000000300140120100001C00000073
:105688000038004012000000FFFF0000000000008A
:10569800000000000B000000005C0040000000005B
:1056A8000C000000005C004000000000FFFF00004C
:1056B8000000000000000000190018001700160084
:1056C8001500140013000F000C000B000A0009005D
:1056D80008001F001E001D001C002D002E002F00BA
:1056E8000000010002000300040005000600070096
:1056F800100011001A001B0012000D000E002F6888
:105708006F6D652F736172626A6565742F736E6160
:10571800702F61726475696E6F2F34312F2E61722C
:105728006475696E6F31352F7061636B616765737E
:105738002F53544D33322F68617264776172652F2D
:1057480073746D33322F312E382E302F636F72659C
:10575800732F61726475696E6F2F776972696E67EE
:105768005F6469676974616C2E63002F686F6D658B
:105778002F736172626A6565742F736E61702F6131
:10578800726475696E6F2F34312F2E61726475697A
:105798006E6F31352F7061636B616765732F53547A
:1057A8004D33322F68617264776172652F73746D3F
:1057B80033322F312E382E302F636F7265732F617D
:1057C800726475696E6F2F4861726477617265548F
:1057D800696D65722E637070002F686F6D652F7329
:1057E8006172626A6565742F736E61702F6172648D
:1057F80075696E6F2F34312F2E61726475696E6F03
:1058080031352F7061636B616765732F53544D3366
:10581800322F68617264776172652F73746D3332E9
:105828002F312E382E302F636F7265732F6172649B
:1058380075696E6F2F73746D33322F7573622F75A0
:105848007362645F636F6E662E630053544D6963C1
:10585800726F656C656374726F6E69637300424C36
:10586800554550494C4C5F4631303343382043440A
:105878004320696E204853204D6F646500424C55A3
:105888004550494C4C5F46313033433820434443FC
:1058980020696E204653204D6F646500424C554583
:1058A80050494C4C5F463130334338204344432001
:1058B800436F6E66696700424C554550494C4C5FD2
:1058C8004631303343382043444320496E7465726F
:1058D8006661636500000000000000002000000011
:1058E80000000000800000006000000000000000D0
:1058F80001000000E000A00001000000820000009C
:1059080020010000000000008300000028010000C2
:10591800000000000000000000000000000000007F
:10592800000000000000000000000000000000006F
:10593800000000000000000000000000000000005F
:10594800000000000000000000000000000000004F
:10595800000000000000000000000000000000003F
:10596800000000000000000000000000000000002F
:04597800000000002B
:08597C0010F7FF7F010000009D
:10598400953C000875010008CD0400085106000884
:085994007D080008D53600086B
:0C599C0051010008610600085D3700089A
:1059A800A80E0020010000001000000000080140BF
:1059B800000C014000100140001401400018014093
:1059C8000024F400753D0008713D0008AD3D000855
:1059D800013F0008A93E000800C2010000000800BD
:1059E8000100000012010002020200408304405737
:1059F8000002010203010000E1480008ED48000828
:105A0800654900088149000825490008A54900089A
:105A1800C1490008040309041A030000000000003B
:105A2800000000000000000000000000000000006E
:105A380000000000BD4C00087B4C0008C54B000866
:105A480000000000EB4A0008734B0008454B0008B3
:105A5800000000000000000000000000214B0008CA
:105A6800154B00082D4B0008394B0008090243006C
:105A7800020100C0320904000001020201000524ED
:105A88000010010524010001042402020524060077
:105A9800010705830308001009040100020A000039
:105AA80000070501024000000705820240000000CF
:105AB80009024300020100C0320904000001020289
:105AC800010005240010010524010001042402023C
