:020000040800F2
:1000000000500020714B0008B94B0008B94B0008A4
:10001000B94B0008B94B0008B94B000800000000BC
:10002000000000000000000000000000B94B0008C4
:10003000B94B000800000000B94B0008534100080C
:10004000B94B0008B94B0008B94B0008B94B000880
:10005000B94B0008B94B0008214A0008274A00089C
:100060002D4A0008334A0008394A0008B94B0008F5
:10007000B94B0008B94B0008B94B0008B94B000850
:10008000B94B0008B94B0008B94B0008B94B000840
:10009000795B0008B94B0008B94B00083F4A0008DB
:1000A000B94B00086D4E0008B94B0008814E00089E
:1000B000854E0008994E0008AD4E0008B94B000867
:1000C000B94B0008B94B0008B94B0008B94B000800
:1000D000B94B00083949000851490008694900082E
:1000E000554A000841460008855B000800000000F2
:1000F0000000000000000000000000000000000000
:0C01000000000000000000005FF808F1A3
:10010C00034613F8012B002AFBD1181A013870474B
:10011C004FF0FF0C1CEAD0521EBF1CEAD15392EADE
:10012C000C0F93EA0C0F6FD01A4480EA010C4002BA
:10013C0018BF5FEA41211ED04FF0006343EA501014
:10014C0043EA5111A0FB01310CF00040B1F5000F56
:10015C003EBF490041EAD3715B0040EA010062F105
:10016C007F02FD2A1DD8B3F1004F40EBC25008BFEF
:10017C0020F00100704790F0000F0CF0004C08BF0D
:10018C0049024CEA502040EA51207F3AC2BFD2F1DA
:10019C00FF0340EAC250704740F400004FF00003E8
:1001AC00013A5DDC12F1190FDCBF00F00040704722
:1001BC00C2F10002410021FA02F1C2F1200200FA60
:1001CC0002FC5FEA310040F1000053EA4C0308BF27
:1001DC0020EADC70704792F0000F00F0004C02BF78
:1001EC00400010F4000F013AF9D040EA0C0093F0F3
:1001FC00000F01F0004C02BF490011F4000F013B4D
:10020C00F9D041EA0C018FE70CEAD15392EA0C0FBA
:10021C0018BF93EA0C0F0AD030F0004C18BF31F025
:10022C00004CD8D180EA010000F00040704790F0FB
:10023C00000F17BF90F0004F084691F0000F91F09F
:10024C00004F14D092EA0C0F01D142020FD193EA65
:10025C000C0F03D14B0218BF084608D180EA0100ED
:10026C0000F0004040F0FE4040F40000704740F0C9
:10027C00FE4040F44000704781F0004102E000BFB6
:10028C0083F0004330B54FEA41044FEA430594EA4A
:10029C00050F08BF90EA020F1FBF54EA000C55EA85
:1002AC00020C7FEA645C7FEA655C00F0E2804FEA56
:1002BC005454D4EB5555B8BF6D420CDD2C4480EA38
:1002CC00020281EA030382EA000083EA010180EA68
:1002DC00020281EA0303362D88BF30BD11F0004FB6
:1002EC004FEA01314FF4801C4CEA113102D04042EC
:1002FC0061EB410113F0004F4FEA03334CEA133327
:10030C0002D0524263EB430394EA050F00F0A7803E
:10031C00A4F10104D5F1200E0DDB02FA0EFC22FA39
:10032C0005F2801841F1000103FA0EF2801843FA2D
:10033C0005F359410EE0A5F120050EF1200E012A1E
:10034C0003FA0EFC28BF4CF0020C43FA05F3C0185C
:10035C0051EBE37101F0004507D54FF0000EDCF1D5
:10036C00000C7EEB00006EEB0101B1F5801F1BD37E
:10037C00B1F5001F0CD349085FEA30004FEA3C0C82
:10038C0004F101044FEA445212F5800F80F09A8078
:10039C00BCF1004F08BF5FEA500C50F1000041EB7C
:1003AC00045141EA050130BD5FEA4C0C404141EB80
:1003BC000101013C28BFB1F5801FE9D291F0000F7B
:1003CC0004BF01460020B1FA81F308BF2033A3F12A
:1003DC000B03B3F120020CDA0C3208DD02F1140C21
:1003EC00C2F10C0201FA0CF021FA02F10CE002F15C
:1003FC001402D8BFC2F1200C01FA02F120FA0CFC55
:10040C00DCBF41EA0C019040E41AA2BF01EB04519D
:10041C00294330BD6FEA04041F3C1CDA0C340EDC9B
:10042C0004F11404C4F1200220FA04F001FA02F3DE
:10043C0040EA030021FA04F345EA030130BDC4F19C
:10044C000C04C4F1200220FA02F001FA04F340EA91
:10045C000300294630BD21FA04F0294630BD94F042
:10046C00000F83F4801306BF81F480110134013D29
:10047C004EE77FEA645C18BF7FEA655C29D094EA9A
:10048C00050F08BF90EA020F05D054EA000C04BF18
:10049C001946104630BD91EA030F1EBF0021002003
:1004AC0030BD5FEA545C05D14000494128BF41F0A2
:1004BC00004130BD14F580043CBF01F5801130BD06
:1004CC0001F0004545F0FE4141F470014FF0000091
:1004DC0030BD7FEA645C1ABF194610467FEA655C42
:1004EC001CBF0B46024650EA013406BF52EA0335E4
:1004FC0091EA030F41F4002130BD00BF90F0000FD2
:10050C0004BF0021704730B54FF4806404F132040D
:10051C004FF000054FF0000150E700BF90F0000FC6
:10052C0004BF0021704730B54FF4806404F13204ED
:10053C0010F0004548BF40424FF000013EE700BFBD
:10054C0042004FEAE2014FEA31014FEA02701FBF4D
:10055C0012F07F4393F07F4F81F06051704732F07F
:10056C007F4208BF704793F07F4F04BF41F40021D6
:10057C00704730B54FF4607401F0004521F0004134
:10058C001CE700BF50EA010208BF704730B54FF0BE
:10059C0000050AE050EA010208BF704730B511F0BF
:1005AC00004502D5404261EB41014FF4806404F1F7
:1005BC0032045FEA915C3FF4D8AE4FF003025FEA7D
:1005CC00DC0C18BF03325FEADC0C18BF033202EB01
:1005DC00DC02C2F1200300FA03FC20FA02F001FA5B
:1005EC0003FE40EA0E0021FA02F11444BDE600BFFE
:1005FC0070B54FF0FF0C4CF4E06C1CEA11541DBFAD
:10060C001CEA135594EA0C0F95EA0C0F00F0DEF877
:10061C002C4481EA030621EA4C5123EA4C5350EA5C
:10062C00013518BF52EA033541F4801143F48013AD
:10063C0038D0A0FB02CE4FF00005E1FB02E506F03E
:10064C000042E0FB03E54FF00006E1FB03569CF093
:10065C00000F18BF4EF0010EA4F1FF04B6F5007F99
:10066C0064F5407404D25FEA4E0E6D4146EB06060B
:10067C0042EAC62141EA55514FEAC52040EA5E5094
:10068C004FEACE2EB4F1FD0C88BFBCF5E06F1ED83E
:10069C00BEF1004F08BF5FEA500E50F1000041EB75
:1006AC00045170BD06F0004646EA010140EA020022
:1006BC0081EA0301B4EB5C04C2BFD4EB0C0541EA44
:1006CC00045170BD41F480114FF0000E013C00F359
:1006DC00AB8014F1360FDEBF002001F0004170BD7D
:1006EC00C4F10004203C35DA0C341BDC04F1140496
:1006FC00C4F1200500FA05F320FA04F001FA05F222
:10070C0040EA020001F0004221F0004110EBD370EE
:10071C0021FA04F642EB06015EEA430E08BF20EA1A
:10072C00D37070BDC4F10C04C4F1200500FA04F3BD
:10073C0020FA05F001FA04F240EA020001F000414F
:10074C0010EBD37041F100015EEA430E08BF20EAC2
:10075C00D37070BDC4F1200500FA05F24EEA020E0A
:10076C0020FA04F301FA05F243EA020321FA04F039
:10077C0001F0004121FA04F220EA020000EBD370F0
:10078C005EEA430E08BF20EAD37070BD94F0000FF0
:10079C000FD101F00046400041EB010111F4801F24
:1007AC0008BF013CF7D041EA060195F0000F18BFD5
:1007BC00704703F00046520043EB030313F4801F11
:1007CC0008BF013DF7D043EA0603704794EA0C0FCB
:1007DC000CEA135518BF95EA0C0F0CD050EA4106E1
:1007EC0018BF52EA4306D1D181EA030101F000415E
:1007FC004FF0000070BD50EA410606BF1046194686
:10080C0052EA430619D094EA0C0F02D150EA013691
:10081C0013D195EA0C0F05D152EA03361CBF1046D2
:10082C0019460AD181EA030101F0004141F0FE4171
:10083C0041F470014FF0000070BD41F0FE4141F4F5
:10084C00780170BD70B54FF0FF0C4CF4E06C1CEAF5
:10085C0011541DBF1CEA135594EA0C0F95EA0C0FAA
:10086C0000F0A7F8A4EB050481EA030E52EA033565
:10087C004FEA013100F088804FEA03334FF0805586
:10088C0045EA131343EA12634FEA022245EA1115B3
:10089C0045EA10654FEA00260EF000419D4208BF64
:1008AC00964244F1FD0404F5407402D25B084FEA11
:1008BC003202B61A65EB03055B084FEA32024FF4BD
:1008CC0080104FF4002CB6EB020E75EB030E22BF1A
:1008DC00B61A754640EA0C005B084FEA3202B6EBDA
:1008EC00020E75EB030E22BFB61A754640EA5C0089
:1008FC005B084FEA3202B6EB020E75EB030E22BF19
:10090C00B61A754640EA9C005B084FEA3202B6EB19
:10091C00020E75EB030E22BFB61A754640EADC00D8
:10092C0055EA060E18D04FEA051545EA16754FEA3A
:10093C0006164FEAC30343EA52734FEAC2025FEA58
:10094C001C1CC0D111F4801F0BD141EA00014FF0E7
:10095C0000004FF0004CB6E711F4801F04BF0143B8
:10096C000020B4F1FD0C88BFBCF5E06F3FF6AFAED4
:10097C00B5EB030C04BFB6EB020C5FEA500C50F164
:10098C00000041EB045170BD0EF0004E4EEA1131E7
:10099C0014EB5C04C2BFD4EB0C0541EA045170BDEE
:1009AC0041F480114FF0000E013C90E645EA060E32
:1009BC008DE60CEA135594EA0C0F08BF95EA0C0F60
:1009CC003FF43BAF94EA0C0F0AD150EA01347FF4A8
:1009DC0034AF95EA0C0F7FF425AF104619462CE77F
:1009EC0095EA0C0F06D152EA03353FF4FDAE1046E2
:1009FC00194622E750EA410618BF52EA43067FF433
:100A0C00C5AE50EA41047FF40DAF52EA43057FF4C2
:100A1C00EBAE12E74FF0FF3C06E000BF4FF0010CCD
:100A2C0002E000BF4FF0010C4DF804CD4FEA410C31
:100A3C007FEA6C5C4FEA430C18BF7FEA6C5C1BD0FE
:100A4C0001B050EA410C0CBF52EA430C91EA030F7F
:100A5C0002BF90EA020F0020704710F1000F91EADC
:100A6C00030F58BF994208BF90422CBFD8176FEAAA
:100A7C00E37040F0010070474FEA410C7FEA6C5C78
:100A8C0002D150EA013C07D14FEA430C7FEA6C5C7F
:100A9C00D6D152EA033CD3D05DF8040B704700BFAB
:100AAC008446104662468C461946634600E000BFF9
:100ABC0001B5FFF7B7FF002848BF10F1000F01BDCB
:100ACC004DF808EDFFF7F4FF0CBF012000205DF896
:100ADC0008FB00BF4DF808EDFFF7EAFF34BF01201B
:100AEC0000205DF808FB00BF4DF808EDFFF7E0FFB4
:100AFC0094BF012000205DF808FB00BF4DF808ED05
:100B0C00FFF7CEFF94BF012000205DF808FB00BF6B
:100B1C004DF808EDFFF7C4FF34BF012000205DF84D
:100B2C0008FB00BF4FEA4102B2F1E04324BFB3F52A
:100B3C00001CDCF1FE5C0DD901F0004C4FEAC00248
:100B4C004CEA5070B2F1004F40EB830008BF20F02C
:100B5C000100704711F0804F21D113F13872BCBFE6
:100B6C0001F00040704741F480114FEA5252C2F13B
:100B7C001802C2F1200C10FA0CF320FA02F018BF84
:100B8C0040F001004FEAC1234FEAD32303FA0CFCD7
:100B9C0040EA0C0023FA02F34FEA4303CCE77FEA66
:100BAC00625307D150EA01331EBF4FF0FE4040F4B0
:100BBC004000704701F0004040F0FE4040F400005F
:100BCC00704700BF80F0004002E000BF81F00041A0
:100BDC0042001FBF5FEA410392EA030F7FEA226CD7
:100BEC007FEA236C6AD04FEA1262D2EB1363C1BF67
:100BFC00D218414048404140B8BF5B42192B88BFD6
:100C0C00704710F0004F40F4000020F07F4018BFF8
:100C1C00404211F0004F41F4000121F07F4118BF18
:100C2C00494292EA030F3FD0A2F1010241FA03FCC0
:100C3C0010EB0C00C3F1200301FA03F100F00043A8
:100C4C0002D5494260EB4000B0F5000F13D3B0F170
:100C5C00807F06D340084FEA310102F10102FE2ADF
:100C6C0051D2B1F1004F40EBC25008BF20F001004F
:100C7C0040EA03007047490040EB0000013A28BFEE
:100C8C00B0F5000FEDD2B0FA80FCACF1080CB2EB71
:100C9C000C0200FA0CF0AABF00EBC25052421843EF
:100CAC00BCBFD0401843704792F0000F81F4000194
:100CBC0006BF80F400000132013BB5E74FEA410367
:100CCC007FEA226C18BF7FEA236C21D092EA030FD3
:100CDC0004D092F0000F08BF0846704790EA010F4D
:100CEC001CBF0020704712F07F4F04D1400028BF7A
:100CFC0040F00040704712F100723CBF00F500005C
:100D0C00704700F0004343F0FE4040F40000704791
:100D1C007FEA226216BF08467FEA2363014642023D
:100D2C0006BF5FEA412390EA010F40F48000704750
:100D3C004FF0000304E000BF10F0004348BF4042F6
:100D4C005FEA000C08BF704743F0964301464FF032
:100D5C0000001CE050EA010208BF70474FF000038E
:100D6C000AE000BF50EA010208BF704711F00043CF
:100D7C0002D5404261EB41015FEA010C02BF84469F
:100D8C000146002043F0B64308BFA3F18053A3F5FE
:100D9C000003BCFA8CF2083AA3EBC25310DB01FA45
:100DAC0002FC634400FA02FCC2F12002BCF1004FC9
:100DBC0020FA02F243EB020008BF20F0010070475A
:100DCC0002F1200201FA02FCC2F1200250EA4C00AE
:100DDC0021FA02F243EB020008BF20EADC707047F4
:100DEC004FF0FF3C06E000BF4FF0010C02E000BFEB
:100DFC004FF0010C4DF804CD4FEA40024FEA41038D
:100E0C007FEA226C18BF7FEA236C11D001B052EA42
:100E1C00530C18BF90EA010F58BFB2EB030088BF08
:100E2C00C81738BF6FEAE17018BF40F00100704777
:100E3C007FEA226C02D15FEA402C05D17FEA236C59
:100E4C00E4D15FEA412CE1D05DF8040B704700BFA0
:100E5C00844608466146FFE70FB5FFF7C9FF002837
:100E6C0048BF10F1000F0FBD4DF808EDFFF7F4FF70
:100E7C000CBF012000205DF808FB00BF4DF808ED09
:100E8C00FFF7EAFF34BF012000205DF808FB00BF2C
:100E9C004DF808EDFFF7E0FF94BF012000205DF84E
:100EAC0008FB00BF4DF808EDFFF7D2FF94BF0120FF
:100EBC0000205DF808FB00BF4DF808EDFFF7C8FFF8
:100ECC0034BF012000205DF808FB00BF42000ED2A9
:100EDC00B2F1FE4F0BD34FF09E03B3EB126209D469
:100EEC004FEA002343F0004323FA02F070474FF01F
:100EFC000000704712F1610F01D1420202D14FF094
:100F0C00FF3070474FF00000704700BF53B94AB92B
:100F1C00002908BF00281CBF4FF0FF314FF0FF30F5
:100F2C0000F00CB8ADF1080C6DE904CE05F09AFA9E
:100F3C00DDF804E0DDE9022304B07047704700BF20
:100F4C0010B5054C237833B9044B13B10448AFF3F7
:100F5C0000800123237010BD50020020000000000F
:100F6C003467000808B5034B1BB103490348AFF3C2
:100F7C00008008BD00000000540200203467000807
:100F8C0007B503688DF8071001225B680DF10701A6
:100F9C00984703B05DF804FB7047416002720BB9CF
:100FAC00437205E0012BFBD0022BF9D0032BF7D0B9
:100FBC007047000038B500254FF47A73C0E901532F
:100FCC000C4B044601220C4940F8103B2B46FFF712
:100FDC00E4FF18221123C4E90723152320462946D0
:100FEC00C4E90935C4E90B55656303F0A6FF204637
:100FFC0038BD00BF5467000800127A00C0E9071220
:10100C0043627047F0B504460F46164687B0002180
:10101C00C06903F037FE03AB04F1100207CA83E882
:10102C000700059A0F4D009228460CCB232100F0A7
:10103C004FFD3A4601232321284600F09DFD324600
:10104C0001232321284600F097FD0646232128463C
:10105C0000F072FDE069012103F014FE304607B088
:10106C00F0BD00BFB0020020002201F07F01FFF7AD
:10107C00C9BF10B504461321FFF7F6FFE36AC01A87
:10108C0010BD036810B59B680446984738B1E36AF5
:10109C00002101332046E362FFF7E6FF10BD4FF05D
:1010AC00FF30FBE710B5832281210446FFF7AAFF2E
:1010BC0012212046FFF7D8FF030702D403F077FD77
:1010CC00F6E7082292212046FFF79CFF012010BD75
:1010DC002DE9F0410C46222115460746FFF7C4FFC7
:1010EC0006464319FF2B88BFC0F1FF0504EB05082A
:1010FC00444506D08021384614F8012BFFF782FFB7
:10110C00F6E77219A2213846D2B2FFF77BFF2846C8
:10111C00BDE8F081036870B59B680546984780B1BF
:10112C000D212846FFF7A0FF002106462846FFF7B1
:10113C009BFF044632468D212846FFF763FF20466D
:10114C0070BD4FF0FF30FBE781221146FFF75ABF0D
:10115C0080228121FFF756BF38B5CB17DD0404463A
:10116C00002381620C4AC80445EA5131FFF7CEFED8
:10117C000546C0F3074286212046FFF743FFC5F31F
:10118C00072287212046FFF73DFF2046EAB288213F
:10119C00BDE83840FFF736BF0048E801002310B522
:1011AC001D2103630446FFF75FFF9D2100F0FE0243
:1011BC002046BDE81040FFF725BF012310B51D21C7
:1011CC0003630446FFF750FF40F001029D212046C7
:1011DC00BDE81040D2B2FFF715BF38B504460D4636
:1011EC00FFF7B2FF20466DB1FFF7E7FF00228D211C
:1011FC002046FFF707FF0022A2212046FFF702FF3F
:10120C00012038BDFFF7CAFFF0E7000038B50446EF
:10121C000D46C069012103F0E7FCE069012103F0F0
:10122C0031FD206A431C10D0012103F0DDFC0021AC
:10123C00206A03F027FD0A2003F04CFD206A0121EF
:10124C0003F020FD0A2003F045FD23211A4800F08D
:10125C0017FC42212046FFF707FF12282AD120460F
:10126C00FFF776FF29462046FFF776FF00228E21F6
:10127C002046FFF7C7FE00228F212046FFF7C2FE53
:10128C000C212046FFF7F0FE40F003028C21D2B275
:10129C002046FFF7B7FE0422A6212046FFF7B2FE38
:1012AC008F2289212046FFF7ADFE2046FFF74CFF29
:1012BC00012038BD0020FCE7B00200200148FFF7F8
:1012CC0079BE00BF6C0200200346B0F90A0008B1D9
:1012DC0003EB0010704738B500250446436A011D26
:1012EC0003441D71006803F0B1FE656238BDF8B5AA
:1012FC00044616460D468F18BD420DD0636A15F88C
:10130C00011B5A1C6262E21802331F2B1171F3D9B4
:10131C002046FFF7E0FFEFE73046F8BD38B505464D
:10132C00064C00212046FFF758FF2946204603F0C3
:10133C00C1FD2046BDE83840FFF7B4BE6C0200206A
:10134C0008B501210B2003F04FFC00210C2003F009
:10135C004BFC1821054814231122FFF74FFE0449BA
:10136C000248FFF753FF00B9FEE708BD6C020020EE
:10137C00400ECF19034630B5D2E901041030844237
:10138C0012D3A4F1100090605A685AB1851A2D112D
:10139C0055815860002344F8041C24F8063C04F8DA
:1013AC00083C30BD1860F4E70020FAE738B5044675
:1013BC0008460D46FEF7A4FE294602462046FFF7D6
:1013CC0096FFA36A0344A36238BD436A10B55A1C46
:1013DC004262C21802331F2B0446117101D9FFF768
:1013EC007AFFA36A0133A36210BD000070B50D46ED
:1013FC0022210446FFF7E9FF013D15F8011F79B1E1
:10140C000A4B9E7846B1DA7802338A42F9D15C21D4
:10141C002046FFF7DAFF31462046FFF7D6FFECE710
:10142C0022212046FFF7D1FF70BD00BF7467000872
:10143C00000000002DE9F04706230D468372074695
:10144C0052492846FFF72EFD0446002840D00526B9
:10145C0000244FF02008DFF83891DFF838A1294636
:10146C0059F82600FFF714FD38B128465AF8261013
:10147C00FEF74EFE0546444424B2013E4FEA68088E
:10148C00EDD200212846FFF717FD28B32846FFF7B9
:10149C0057F83CA3D3E90023FFF726FBE0B1DFF8B4
:1014AC00F890DFF8ECA0330616D4294659F826003C
:1014BC00FFF702FD40B128465AF82610FEF728FE29
:1014CC000546A4EB080424B24FEA6808013EEAE79B
:1014DC004FF020080526D4E728463C81FFF7F6FCA0
:1014EC000A2106460346DFF8B4803860092B07D979
:1014FC00BA7AB8FBF1F8013AB3FBF1F3BA72F5E73B
:10150C003046FFF715FC01462846FFF75FFB054602
:10151C004046FFF70DFC01462846FEF7F9FD8146D3
:10152C00FFF7D4FC0546FFF703FC01464846FFF7DE
:10153C004DFB0146FFF74CFBFFF7C8FC2844404528
:10154C000FD278600A217B68B3FBF1F201FB1233F6
:10155C00A3B997F90A30002B10DD013B7A60BB72FE
:10156C00F1E7002301367B603E60002CEAD0092EA7
:10157C0081BF012301343C813B60E3E73846BDE881
:10158C00F08700BFF168E388B5F8E43E8096184B0D
:10159C0030000020180000200000002040420F0006
:1015AC0010B50446521AFFF7A2FEA36A0344A362C5
:1015BC0010BD70B586B00B460DF116010A460A2611
:1015CC00B3FBF6F506FB1534303401F8014D1C461F
:1015DC00092C2B46F4D8FFF7E3FF06B070BD0000D2
:1015EC0070B505468AB008460C46FFF73DFC28B995
:1015FC0028463F49FFF7DAFE0AB070BD00212046AD
:10160C00FFF732FC48B921462046FFF7E1FA0146C4
:10161C002046FFF729FC0028EAD100212046FFF7DD
:10162C002DFC28B12D212846FFF7CFFE04F10044F4
:10163C00214601A8FFF7FEFE01992846FFF7B9FFE6
:10164C009DF90E10E1B10A460A26029B0DF11F040A
:10165C00013A52B2501C08D0B3FBF6F006FB103323
:10166C00303304F801390346F2E7C9B208AA2E2038
:10167C00531AC94303F8010C11442846FFF790FF95
:10168C00BDF90C30002B17DA1A492846FFF78EFEED
:10169C000DF126010A460A24BDF90C305B4293FB7E
:1016AC00F4F004FB1033303301F8013D03460028FD
:1016BC00F5D12846FFF774FFBDF90C30002B9BDDEC
:1016CC0065212846FFF781FE0DF126010A460A2402
:1016DC00BDF90C3093FBF4F004FB1033303301F8FC
:1016EC00013D03B20028F5D12846FFF759FF83E7E7
:1016FC00856700088A67000838B5027A054602F04B
:10170C007F030C2B0C460DD812F07E0F0ED0023B33
:10171C000A2B0BD8DFE803F04D4D4848620A600AEB
:10172C00560A0C00202B21D0402B06D0304958E013
:10173C0001682046FFF754FF38BD5B212046FFF7B8
:10174C0044FE2D686DB128462146FFF7D5FF28468B
:10175C00FFF7BAFD054620B12C212046FFF735FED8
:10176C00F0E75D212046FFF730FEE5E77B212046C0
:10177C00FFF72BFE2D68ADB1E9682046FFF736FE6A
:10178C003A212046FFF721FE28462146FFF7B4FFF9
:10179C002846FFF799FD054620B12C212046FFF77E
:1017AC0014FEE8E77D21DDE701682046FFF71EFE09
:1017BC00C2E7D0E900122046FFF799FDA36A034463
:1017CC00A362B9E705682D212046FFF7FEFD2946E7
:1017DC002046FFF7EEFEAFE70168F9E7036823B197
:1017EC0004492046FFF7E2FDA6E70349F9E700BFED
:1017FC00856700088D67000892670008F0B5694C92
:10180C0000210B20F3B003F03DFA2368664A674DC4
:10181C00B3FBF2F369685B006A68521A9342FBDC13
:10182C0001210B2003F02EFA22685F4B6968B2FB92
:10183C00F3F30A225A435D4E73685B1A9A42FBDC3F
:10184C0000210B2003F01EFA46F2A81201210C20F5
:10185C0003F028FC0546B8B901210C2003F0C4F9AB
:10186C0029460C2003F00EFA22684F4B7168B2FB2C
:10187C00F3F3C8225A434D4843685B1A9A42FBDC87
:10188C0000210C2003F0B0F94949684603F09CFB99
:10189C0040ABCDE9393372ABCDE93B339DF8FC302D
:1018AC00444923F07F0343F020038DF8FC300023E0
:1018BC0039AA3DA8CDE93D33FFF75CFD0446A0B144
:1018CC00037A23F07F0343F00C0303722846FEF7E0
:1018DC0015FE32A3D3E90023FEF78AFE0022364B15
:1018EC00FEF786FEFFF71EF9206003AF384633493A
:1018FC0003F06AFB4FF0000C0697CDF83CC010AC1F
:10190C0006AD0FCD0FC40FCD0FC495E8030084E8CE
:10191C0003001AAD10AE0FCE0FC50FCE0FC594E855
:10192C00030085E8030024AC1AAE0FCE0FC40FCE13
:10193C000FC495E8030084E803002EAD24AE0FCE4F
:10194C000FC50FCE0FC594E8030085E8030024A84B
:10195C00CDF8E0C0FFF7BFFC1AA8FFF7BCFC2EA91E
:10196C003DA8FFF7C9FE2EA8FFF7B5FC10A8FFF79E
:10197C00B2FC06A8FFF7AFFC39462EA803F045FBD6
:10198C002EA8FFF7CBFC2EA803F0D9FA384603F0AB
:10199C00D6FA684603F0D3FA73B0F0BD9CC420B0FD
:1019AC007268A13F6800002040420F00001000E068
:1019BC0084670008986700080000E03FA1670008F2
:1019CC0008B54FF4FA7003F085F9FFF717FFBDE87F
:1019DC0008404FF4FA7003F07DB900000149024849
:1019EC0003F0F2BA84670008A4020020014803F057
:1019FC00A6BA00BFA4020020232970B504461BD848
:101A0C0000230C2505FB03F6A65FD8B2B1420DD01E
:101A1C000133042BF6D1012A0CD100230C2505FB34
:101A2C0003F2A65ED8B2013601D1A15270BD0133CA
:101A3C00042BF4D11846F9E70420F7E770B50346F8
:101A4C004FF6FF72012500240B4E00F130011A8075
:101A5C005E601D725C720C338B42F8D1074B0286B0
:101A6C00998EA0F89010D98EA0F892105B8EA0F8E9
:101A7C009620A0F8943070BD00093D00C06A0008A3
:101A8C00232970B505460E4621D80122FFF7B4FF75
:101A9C00032804461BD8232E0BD0B5F996300133FE
:101AAC0007D10121304603F09FF80121304603F0A5
:101ABC00E9F80C20002300FB045485F88530627A89
:101ACC00237A616805F1340000F0D0F82E8670BDE1
:101ADC0082B0F8B5232906AC05460E4684E80C0006
:101AEC0026D80122FFF788FF0328044620D80C27AC
:101AFC0007FB0057079B232E7B60BDF820303B81F2
:101B0C000BD0B5F99630013307D10121304603F0E3
:101B1C006BF80121304603F0B5F80C2000FB04549F
:101B2C007968237A627A05F1340000F09FF82E86EA
:101B3C00BDE8F84002B070472329F0B519D8034628
:101B4C004FF6FF74012600270A4D00F13002B3F95D
:101B5C0000C00C338C4501BF23F80C4C43F8085CD7
:101B6C0003F8046C03F8037C9342F0D14FF6FF7337
:101B7C000386F0BD00093D0070B586B08DF80F20CE
:101B8C000022232905460C461E468DF8172039D80D
:101B9C00B0F93030994212D0FFF72EFF032803D949
:101BAC009DF8170006B070BD0C2303FB0050037AA0
:101BBC00427A416805F1340000F058F82C86232C49
:101BCC0007D0B5F99630013303D10021204603F03C
:101BDC0059F84FF47A730DF1170200930DF10F01C0
:101BEC00012305F1340000F069F9232CD8D0012E23
:101BFC00D6D1B5F996300133D2D13146204603F017
:101C0C0041F8CDE71046CDE70148FFF717BF00BFFD
:101C1C00B002002070B50D0E445991FAA1F3B3FA3D
:101C2C0083F30F269B0006FA03F324EA030491FACC
:101C3C00A1F1B1FA81F1890002FA01F1214341517C
:101C4C0070BD00000346074A106853B1064A934220
:101C5C0005D002F57842934203D101F0F9B901F0B5
:101C6C00E7B9704768000020003800402DE9F74FB5
:101C7C000D46174698460446002800F0D080864949
:101C8C00B0F95E0002F0BAFC84498146B4F95C00FC
:101C9C0002F0B4FC82498246B4F9600002F0AEFC5A
:101CAC0080490646B4F9620002F0A8FC8346B9F1FB
:101CBC00000F00F0B480BAF1000F00F0B080002EDD
:101CCC0000F0AD805146484602F09EFC59468246D3
:101CDC00304602F099FC01468146504602F094FCD5
:101CEC00A065BAF1000F00F09A80B9F1000F00F076
:101CFC009680002800F09380B4F9623020605A1C62
:101D0C0014BF4FF480234FF40073A3614FF482731C
:101D1C006360FFF797FFB5EB500FC0F08380002393
:101D2C00002617F0FD0FE3610CBF33460123022F91
:101D3C00636134BF3346022323610723B045E3625A
:101D4C0014BF33468023B4F95E00C4E90836A6609C
:101D5C00A662E660504902F031FCB4F95C004F49D0
:101D6C0002F02CFCB4F960004D4902F027FC236909
:101D7C00B342B4F9603008BF0225C3F3031218BF95
:101D8C000125042A8CBF3046474903F00F0398BF46
:101D9C0051F82200454A52F823100B0EC65891FAFE
:101DAC00A1F2B2FA82F39A000F239340334091FAD6
:101DBC00A1F2B2FA82F2022D4FEA820223FA02F366
:101DCC004FEA11254DD0042B02D10822FFF722FF38
:101DDC00C26822EA050295FAA5F50123B5FA85F544
:101DEC0003FA05F51543C5602E49B4F9620002F0FB
:101DFC00E5FB23682E4A93423FD12E4B9A6942F45D
:101E0C0080529A619B6903F480530093009B204697
:101E1C0001F008FA2268136843F04003136003B022
:101E2C00BDE8F08FB5EB900F01D3082378E7B5EB45
:101E3C00D00F01D3102373E7B5EB101F01D3182378
:101E4C006EE7B5EB501F01D3202369E7B5EB901F6C
:101E5C0001D3282364E7B5EBD01F2CBF30233823E4
:101E6C005EE7042B02D10822FFF7D4FEC36823EAF5
:101E7C00050395FAA5F5C360B6E70F4A9342C6D1A0
:101E8C000C4BDA6942F48042DA61DB6903F480437B
:101E9C000193019BBBE700BF0C6A0008DC690008DA
:101EAC003C6A00086C6A0008540000203468000882
:101EBC0000300140001002400038004013B538B12A
:101ECC0033B1049C009401F0E8F9032803D000B16D
:101EDC00022002B010BD0120FBE7000003460A49B6
:101EEC0010B508680344EFF30882934205D90C221D
:101EFC004FF0FF30054B1A6010BD054A054C121B04
:101F0C009342F4D20B60F7E748000020E00E00206B
:101F1C0000500020000400007047000038B50E4B44
:101F2C00054618784FF47A73B3FBF0F30B4A10683C
:101F3C00B0FBF3F000F08CF8044658B90F2D09D81B
:101F4C00024629464FF0FF3000F042F82046044B81
:101F5C001D6038BD0120FCE74C000020680000200B
:101F6C0050000020074A08B51368032043F0100303
:101F7C00136000F01BF80020FFF7D0FFFFF7CCFF39
:101F8C00002008BD00200240034A044B11681B7856
:101F9C000B441360704700BFEC0400204C00002081
:101FAC00014B1868704700BFEC040020074903027E
:101FBC00CA6803F4E06322F4E0621204120C1343C7
:101FCC0043F0BF6343F40033CB60704700ED00E097
:101FDC00164B30B5DC68C4F30224C4F10703251D8D
:101FEC00042B28BF0423062D4FF0FF3598BF002487
:101FFC0005FA03F388BF033C21EA0303A34005FA67
:10200C0004F422EA0402002843EA0203ACBF00F104
:10201C006040074A4FEA0313DBB2ABBF00F56140E7
:10202C0000F00F0080F80033135430BD00ED00E0D9
:10203C0014ED00E0002808DB0123420900F01F002A
:10204C0003FA00F0014B43F82200704700E100E076
:10205C000138B0F1807F0AD2F021064B064A586055
:10206C0082F823100020072298601A607047012024
:10207C00704700BF10E000E000ED00E0002809DB35
:10208C000122430900F01F0002FA00F0024A6033FB
:10209C0042F82300704700BF00E100E0704708B52C
:1020AC00FFF7FCFF08BD000008B590F82130022BAB
:1020BC0003D004238363012008BD03681A6822F04F
:1020CC000E021A601A6822F001021A60174A934233
:1020DC001CD0143293421BD0143293421AD01432B7
:1020EC0093421AD0143293421AD0143293420CBF3A
:1020FC004FF480134FF080730D4A53604FF480738C
:10210C000384436B7BB198470020D5E70123F3E7A9
:10211C001023F1E74FF48073EEE74FF48053EBE7B5
:10212C004FF48033E8E71846C6E700BF08000240CA
:10213C0000000240044A08B55169014202D05061C6
:10214C0002F052FC08BD00BF00040140F0B504468B
:10215C0087B0002867D090F8A93403F0FF021BB9B0
:10216C0080F8A82403F06CFC032325466E4684F803
:10217C00A93455F8100B01F0C3FB0FCD0FC62B681B
:10218C00271D336097E80E00206801F0A9FB0021A1
:10219C00206801F0BFFB0021234622460126084699
:1021AC0004F1100582F82810918601310F29C2E93B
:1021BC000E0082F8296082F82B001064A2F8480007
:1021CC00A2F84A0002F12402ECD100210A4683F85D
:1021DC006812A3F8741201310F29C3E99E2283F807
:1021EC00692283F86B22C3F88022A3F88822A3F813
:1021FC008A2203F12403EAD16E460FCD0FC62B6859
:10220C00336097E80E00206801F086FB4FF0000366
:10221C0084F824300123206884F8A93401F085FE69
:10222C00002007B0F0BD0120FBE710B590F8A834F2
:10223C000446012B0ED0012180F8A81400F085FC77
:10224C00206801F070FE206801F051FB002084F83A
:10225C00A80410BD0220FCE710B590F8A824044691
:10226C00012A0BD0012280F8241080F8A8240068E1
:10227C0001F053FE002084F8A80410BD0220FCE7F6
:10228C0010B50446242011F0800F1BBF01F07F0114
:10229C0000FB014100FB0141283108BF01F51A7117
:1022AC000A61CB7094F8A834012B09D00123206863
:1022BC0084F8A83401F04CFB002084F8A80410BD6D
:1022CC000220FCE7242310B511F0800F1ABF01F097
:1022DC007F0103FB010103FB010190F8A83414BF3B
:1022EC00283101F51A71012B044609D0012380F81D
:1022FC00A834006801F0D2FC002084F8A80410BDBA
:10230C000220FCE72DE9F04F242701F07F067743EC
:10231C00C119C1E99F23002307F51A7905468144A9
:10232C0085B00068C1F8843236B9494601F013FE15
:10233C00002005B0BDE8F08F91F8683230F82330FA
:10234C009BB2ADF80C30BDF80C30580632D5B1F854
:10235C008A324FF0240B4FF6FE780BFB065407F530
:10236C00227A07F28A27AA442F440BB1434524D181
:10237C000BFB065696F87232002BD9D1D6F87C326C
:10238C00002BD5D0D6F88032002BD1D096F868121D
:10239C002A6832F8213023F4804323F070031B04A5
:1023AC001B0C83F4405343F4004343F0800322F8A6
:1023BC002130BDE7B1F88832CBE7D4F87C12002984
:1023CC00B6D0D4F880020028B2D04FF6FF7CBDF80E
:1023DC000C2052064BBFB4F87022B4F86E22A4F84D
:1023EC008A82A4F88882634506D0984205D2494671
:1023FC00286801F01EFD9BE700232868019301F07B
:10240C001CFE019BD4F884221A44C4F88422D4F80C
:10241C007C221A44C4F87C22D4F88022D21AC4F844
:10242C0080221AB1D4F87822934204D2284694F828
:10243C00681203F055FB94F869327BBB94F8681270
:10244C002A6832F8213023F0F0031B051B0D43F4EE
:10245C00004343F0C00322F82130BDF80C300022B9
:10246C0013F0400F0CBF51463946D1E85F3F9BB289
:10247C00ADF80E30BDF80E309BB243451ED094F82B
:10248C0068222B6833F822309BB2ADF80C30BDF8C3
:10249C000C305B0617D4B4F8883266E7012BDCD11C
:1024AC0094F868122A6832F8213023F0F0031B05E7
:1024BC001B0D43F4404343F08003CCE7C1E8532F9A
:1024CC00002BD2D1DBE7B4F88A324EE7242301F09B
:1024DC000F0103FB0101B1F88402704738B501F01C
:1024EC007F04242100256143441828310144C4E9A8
:1024FC000F236564006801F02EFD284638BD0000EE
:10250C002DE9F7430446006801F011FD020440F187
:10251C003B8100237E4FDFF8FC81DFF8FC91ADF8A6
:10252C000430ADF806302068B0F844309BB21A0481
:10253C00ADF8043040F12881BDF8046016F00F06A8
:10254C0040F0AB80BDF80410038811F010019BB271
:10255C0026D13B400380B0F8503094F828209BB231
:10256C0003EBC20300EB4300D0F80434E26BC3F37B
:10257C00090363641344E363204603F0BAFA94F846
:10258C002430002BCFD0226C002ACCD194F82430EC
:10259C00216843F08003A1F84C3084F82420C2E772
:1025AC00ADF80630BDF806301B051FD5B0F850301D
:1025BC0094F868229BB203EBC20300EB4303D3F8FD
:1025CC000C34B4F86C22C3F30903C4F8843204F25B
:1025DC00AC4101F032FD22682046138823F07003D1
:1025EC001B051B0D138003F075FA9CE7BDF8063034
:1025FC001E0498D5038823F070031B051B0D038064
:10260C00B0F8503094F868229BB203EBC20300EB95
:10261C004303D3F80C34C3F30903C4F8843263B115
:10262C00B4F86C22D4F87C1201F007FDD4F87C329B
:10263C00D4F884221344C4F87C320021204603F0E1
:10264C004FFA2268D4F87852B2F850103E2D89B265
:10265C0001F1060102F5806017D9C5F34F13ED06A1
:10266C0004BF03F1FF339BB249EA83239BB240F8CA
:10267C00113013889BB203EA080383F4405343F4EC
:10268C00004343F0800313804DE7C5F34F03EE077F
:10269C0044BF01339BB29B02E8E730F826309BB273
:1026AC00ADF80630BDF806301D0440F147812422F8
:1026BC0030F8263002FB064223F070031B051B0D7D
:1026CC0020F8263092F8723200F5806533BBB0F8F2
:1026DC00503092F868129BB2063303EBC10355F8E5
:1026EC001350C5F30905002D00F00981B2F86CE216
:1026FC002421714304EB010CDCF880329D4240F242
:10270C00788101F51A71214401F093FB3CE000BF84
:10271C000F8FFFFF8FBFFFFF0080FFFFBDF806305C
:10272C00590640F1C980B2F88AC2BCFA8CFC4FEA57
:10273C005C1C242101FB064191F86832D1F88022FF
:10274C004FEAC30EB0F850309BB27344BCF1000F8B
:10275C0000F03281063355F81350B1F870E2C5F32E
:10276C0009053AB1D1F87C3223B1BDF806305A06CE
:10277C0000F1AA804FF6FF73002D08BF1D462423DD
:10278C0003FB0646A6F88A52206801F0D0FB4305ED
:10279C000FD522682046B2F8443023F480631B0422
:1027AC001B0CA2F8443003F0B0F900212046FFF7CF
:1027BC0053FD206801F0BBFB470408D52268B2F832
:1027CC00443023F480431B041B0CA2F844302068D3
:1027DC0001F0ADFB860408D52268B2F8443023F42E
:1027EC0000531B041B0CA2F84430206801F09FFB23
:1027FC00C5041CD522682046B2F8403023F00403EF
:10280C001B041B0CA2F84030B2F8403023F0080334
:10281C001B041B0CA2F8403003F094F92268B2F8A8
:10282C00443023F480531B041B0CA2F84430206862
:10283C0001F07DFB00051DD52068B0F840309BB23F
:10284C0043F00803A0F84030B0F8443023F40063A0
:10285C001B041B0CA0F84430B0F840309BB243F082
:10286C000403A0F8403001F062FBC10402D42046FE
:10287C0003F058F9206801F05AFB82050BD5226849
:10288C002046B2F8443023F400731B041B0CA2F84E
:10289C00443003F036F9206801F049FBC30508D534
:1028AC002268B2F8443023F480731B041B0CA2F88A
:1028BC00443003B0BDE8F083B2F888C2BCF1000C20
:1028CC0018BF4FF0010C34E70023A1F88832002D1B
:1028DC007FF40EAF242303FB064393F8722272B1EC
:1028EC0093F86812226832F8213023F0F0031B05AC
:1028FC001B0D43F4004343F0C00322F82130242382
:10290C0003FB0643D3F884222A44C3F88422D3F869
:10291C007C222A44C3F87C22D3F88022521BC3F8B1
:10292C0080221AB1D3F87822954269D2242303FB72
:10293C000643204693F8681203F0D2F8BDF806302F
:10294C001D067FF5F0AD2420236800FB064033F80C
:10295C00262003F5806192B23A4023F8262090F8A5
:10296C003220002A61D1B3F8502090F8285092B24E
:10297C00023202EBC50251F81220C2F30902426482
:10298C00242202FB0646B3F8503096F828209BB25E
:10299C00023303EBC20351F81320F36BC2F30902A9
:1029AC0072641A44336C204696F82810F263002B9C
:1029BC0061D103F09EF8B6E5023355F81350B1F827
:1029CC006EE2C5F3090532B1D1F87C321BB1BDF80A
:1029DC0006305B060AD54FF6FF73002D08BF1D4667
:1029EC00242303FB0646A6F88852CDE6A1F88AC23A
:1029FC006DE72B467246DCF87C1201F01EFB69E792
:102A0C0093F87222002A99D193F86812226832F84E
:102A1C0021309BB203EA080383F4405343F4004390
:102A2C0043F0800322F8213088E790F8282033F80F
:102A3C002250D000B3F8502092B2024468064FF0F6
:102A4C00240048BF023200FB064058BF063251F842
:102A5C001220C2F30902426490F8280033F82020B7
:102A6C0022F0F0021205120D42F4404242F08002B4
:102A7C0023F8202084E7FFF731FD54E538B50D46E7
:102A8C00242311F0800F0DBF03FB050301F07F0120
:102A9C0003FB010103F51A714FF0010318BF283134
:102AAC008B7090F8A82404469A420FD080F8A83472
:102ABC00006801F0BEF96B0604D1206804F2AC4149
:102ACC0001F039FA002084F8A80438BD0220FCE794
:102ADC0038B52423002511F0800F1BBF01F07F01B6
:102AEC0003FB010103FB0101283108BF01F51A7139
:102AFC008D7090F8A8340446012B09D0012380F87E
:102B0C00A834006801F0C7F9284684F8A85438BDE9
:102B1C000220FCE710B5242411F0800F1BBF01F03C
:102B2C007F0104FB010004FB0100283008BF00F505
:102B3C001A7099B21AB982728180002010BD0122DC
:102B4C001B0C8272C1800381F7E770472DE9F341BA
:102B5C00054638B30368DB0710D42B689F075ED497
:102B6C002B68190700F195802B685A0700F1BF807C
:102B7C00E869002840F02C81002029E08F4C636824
:102B8C0003F00C03042B07D0636803F00C03082B31
:102B9C000AD16368DE0307D523689C03DDD56B6817
:102BAC00002BDAD1012013E06B68B3F5803F12D112
:102BBC00236843F480332360FFF7F2F90646236859
:102BCC009803CAD4FFF7ECF9801B6428F7D90320CB
:102BDC0002B0BDE8F0819BB9236823F480332360F5
:102BEC00236823F480232360FFF7DAF90646236871
:102BFC009903B2D5FFF7D4F9801B6428F7D9E6E71F
:102C0C00B3F5A02F236803D143F480232360CFE7CF
:102C1C0023F480332360236823F48023CBE7674CB1
:102C2C00636813F00C0F07D0636803F00C03082BD8
:102C3C0010D16368DA030DD423689B0702D52B6986
:102C4C00012BAFD123686A6923F0F80343EAC2036E
:102C5C00236085E72A695A4B6AB101221A60FFF793
:102C6C009FF9064623689F07ECD4FFF799F9801B60
:102C7C000228F7D9ABE71A60FFF792F906462368EA
:102C8C0098077FF56DAFFFF78BF9801B0228F6D9FB
:102C9C009DE7AA69494E4B4BDAB101221A60FFF746
:102CAC007FF90446736A9B070DD54FF4FA52464BD5
:102CBC001B68B3FBF2F3019300BF019B5A1E0192F8
:102CCC00002BF9D150E7FFF76BF9001B0228E9D96B
:102CDC007DE71A60FFF764F90446736A9F077FF576
:102CEC0043AFFFF75DF9001B0228F6D96FE7334CB1
:102CFC00E369D80024D40127E36943F08053E361EE
:102D0C00E36903F080530093009B304E3368D90580
:102D1C0018D5EB68012B26D1236A43F001032362FB
:102D2C00FFF73EF941F288380646236A9B073FD5E8
:102D3C00002F3FF41DAFE36923F08053E36117E7E5
:102D4C000027E2E7336843F480733360FFF728F918
:102D5C0080463368DA05DCD4FFF722F9A0EB0800D3
:102D6C006428F6D933E7ABB9236A41F2883823F0EB
:102D7C0001032362236A23F004032362FFF710F993
:102D8C000646236A9807D3D5FFF70AF9801B4045FE
:102D9C00F7D91CE7052B236A03D143F00403236204
:102DAC00BAE723F001032362236A23F00403B6E796
:102DBC00FFF7F6F8801B4045B7D908E70010024032
:102DCC000000424280044242680000200070004033
:102DDC002A4B5A681C4602F00C02082A3DD00023EC
:102DEC00274E022833602BD1FFF7DAF80746236809
:102DFC0099011FD42B6AB3F5803F05D16268A9688D
:102E0C0022F400320A436260696A62680B4322F45E
:102E1C0074121343636001233360FFF7C1F8054656
:102E2C0023689A013FF5A8AEFFF7BAF8401B0228B9
:102E3C00F6D9CCE6FFF7B4F8C01B0228D7D9C6E602
:102E4C00FFF7AEF8054623689B017FF595AEFFF7BB
:102E5C00A7F8401B0228F6D9B9E601283FF4B8AE12
:102E6C005B682A6A03F4803191427FF49BAE6A6AF4
:102E7C0003F4701393423FF47FAE93E600100240CC
:102E8C006000424230B5184B87B002AC03F110051C
:102E9C00224618685968083303C2AB421446F7D16E
:102EAC0040F201231149ADF804304B6803F00C02D9
:102EBC00082A17D1C3F3834206A80244DB0312F895
:102ECC00102C0CD54B680A48C3F34043504306AA58
:102EDC00134413F8143CB0FBF3F007B030BD0548B5
:102EEC005043FAE70248F8E7AD67000800100240CB
:102EFC0000127A0000093D002DE9F0410D46044610
:102F0C0010B90120BDE8F081444A136803F00703AF
:102F1C008B4228D321688E0730D4CA0743D43F4A4A
:102F2C00136803F00703AB4265D822683C4D12F0DE
:102F3C00040F6CD1130706D56B68226923F4605318
:102F4C0043EAC2036B60FFF79DFF6B68354AC3F31E
:102F5C000313D35CD840344B1860344B1868FEF71D
:102F6C00DDFF0020CEE7136823F007030B4313604B
:102F7C00136803F007038B42C3D1CBE7284B11F046
:102F8C00040F1EBF5A6842F4E0625A60080742BF41
:102F9C005A6842F460525A605A68A06822F0F002F3
:102FAC0002435A60B9E762681D4E012A33681AD190
:102FBC0013F4003FA5D0736841F2883823F0030363
:102FCC0013437360FEF7ECFF07467368626803F007
:102FDC000C03B3EB820FA2D0FEF7E2FFC01B4045FF
:102FEC00F3D903208EE7022A02D113F0007FE1E728
:102FFC0013F0020FDEE7136823F007032B43136073
:10300C00136803F00703AB427FF47BAF8DE76B686B
:10301C00E16823F4E0630B436B608BE70020024014
:10302C000010024074680008680000205000002066
:10303C00044B054A5B68C3F30223D35C034A106854
:10304C00D8407047001002408468000868000020D7
:10305C00044B054A5B68C3F3C223D35C034A106874
:10306C00D8407047001002408468000868000020B7
:10307C0003682DE9F341D907054620D5354CE369A2
:10308C00DA0032D40127E36943F08053E361E3694A
:10309C0003F080530193019B2F4E3368DB0526D53B
:1030AC00236A13F4407336D1236A6A6823F440739D
:1030BC00134323621FB1E36923F08053E361286853
:1030CC00830706D52349AB684A6822F440421A4369
:1030DC004A6010F010001BD01E4AE96853680020AB
:1030EC0023F480030B43536012E00027D4E73368CA
:1030FC0043F480733360FEF753FF80463368D80582
:10310C00CED4FEF74DFFA0EB08006428F6D90320BF
:10311C0002B0BDE8F0816A6802F440729A42C3D0F2
:10312C0001200E4A236A1060002023F440711060C5
:10313C002162D907B8D5FEF733FF41F2883806462D
:10314C00236A9A07B0D4FEF72BFF801B4045F7D9B2
:10315C00DDE700BF00100240007000404004424216
:10316C00036810B51A680446920708D55B689B077C
:10317C0005D501F053FA6FF0020223685A604FF440
:10318C000032024B5A610123637410BD00040140EC
:10319C00F8B504460E4615461F462268936836EA73
:1031AC00030301D000202DE06B1CF7D0FEF7F8FED6
:1031BC00C01B8542F1D823685A6822F0E0025A609D
:1031CC006268B2F5827F0AD1A268B2F5004F02D0D4
:1031DC00B2F5806F03D11A6822F040021A60A26A1D
:1031EC00B2F5005F07D11A6822F400521A601A680F
:1031FC0042F400521A60012384F85130002303205A
:10320C0084F85030F8BD10B513460A4680210446A8
:10321C00FFF7BEFF20B10320636D43F0200363650D
:10322C0010BD704710B50446002834D000238362CB
:10323C0090F8513003F0FF021BB980F85020FFF7D3
:10324C00F0FF0223226884F851301368A16923F03F
:10325C0040031360D4E901300343E0680343206961
:10326C00034360690343E0690343206A0343A06A94
:10327C00034301F40070090C034301F004011360D3
:10328C005160D369002023F40063D361012360658E
:10329C0084F8513010BD0120FCE72DE9F7431E46A0
:1032AC0090F850300446012B0D469146DDF82880ED
:1032BC0000F0E080012380F85030FEF771FE94F8A6
:1032CC0051300746012B6268D9B20AD0B2F5827F21
:1032DC0040F0CE80A368002B40F0CA80042940F057
:1032EC00C780002D3FD0B9F1000F3CD0002E3AD052
:1032FC0094F85130C4F83890042B1CBF052384F883
:10330C00513000236365C4E910332368E687E686F1
:10331C001968A687490658BF1968256358BF41F03C
:10332C004001A68658BF1960E168B1F5006F51D114
:10333C000AB1012E07D135F8022BDA60E38E256332
:10334C00013B9BB2E3860125E38E9BB26BB9E38F05
:10335C009BB253B93A4641462046FFF754FF00282A
:10336C007BD02023636501202BE021688B689A07B2
:10337C000DD5E38E9BB253B14DB10025236B33F8C1
:10338C00022BCA602363E38E013B9BB2E3868A68FF
:10339C0012F001020CD0E38F9BB24BB11546C968F9
:1033AC00A36B23F8021BA363E38F013B9BB2E38760
:1033BC00FEF7F6FDC01B4045C6D3B8F1FF3FC3D0A6
:1033CC000320012384F85130002384F8503003B0DB
:1033DC00BDE8F0830AB1012E08D12A781A73236B49
:1033EC0001332363E38E013B9BB2E3860125E38E1D
:1033FC009BB21BB9E38F9BB2002BABD022689368B6
:10340C009B070ED5E38E9BB25BB155B10025236BA8
:10341C001B781373236B01332363E38E013B9BB245
:10342C00E3862268916811F001010DD0E38F9BB205
:10343C0053B10D46D268A36B1A70A36B0133A3630F
:10344C00E38F013B9BB2E387FEF7AAFDC01B40450F
:10345C00CDD3B8F1FF3FCAD0B2E7A368002BB0D1EF
:10346C0023680190DA6801929B680193019BA8E79D
:10347C000220A6E70220AAE770477047036810B540
:10348C001A69044691070ED5DA6892070BD56FF0CE
:10349C0002021A61012202779B699B0777D001F027
:1034AC00D9FC0023237723681A69500710D5DA68F2
:1034BC0051070DD56FF004021A61022222779B6925
:1034CC00204613F4407F68D001F0C4FC002323771E
:1034DC0023681A6912070FD5DA6810070CD56FF03C
:1034EC0008021A6104222277DB69204699075AD018
:1034FC0001F0B0FC0023237723681A69D20610D59B
:10350C00DA68D0060DD56FF010021A610822227706
:10351C00DB69204613F4407F4BD001F09BFC002369
:10352C00237723681A69D10708D5DA68D20705D53D
:10353C006FF0010220461A6101F090FC23681A69B1
:10354C00100608D5DA68110605D56FF08002204602
:10355C001A6100F088F823681A69520608D5DA68EF
:10356C00500605D56FF0400220461A61FFF785FF23
:10357C0023681A69910622D5DA6892061FD56FF076
:10358C0020022046BDE810401A6100F06BB801F033
:10359C0063FC2046FFF770FF83E701F05DFC2046DB
:1035AC00FFF76AFF92E701F057FC2046FFF764FF34
:1035BC00A0E701F051FC2046FFF75EFFAFE710BD1E
:1035CC001A4A036890420AD0B0F1804F07D0A2F596
:1035DC009432904203D002F58062904215D14A6831
:1035EC0023F070031343114A90420AD0B0F1804F7C
:1035FC0007D0A2F59432904203D002F5806290423B
:10360C0003D1CA6823F4407313434A6923F080033F
:10361C00134303608B68C3620B688362034B98424D
:10362C0004BF0B690363012343617047002C014005
:10363C0010B50446A0B190F83D3003F0FF021BB961
:10364C0080F83C2001F0E4F80223206884F83D3037
:10365C00211DFFF7B5FF0123002084F83D3010BD7C
:10366C000120FCE7704770470368DA6822F4907217
:10367C00DA605A6922F001025A61202380F83A304C
:10368C00704790F83930202B18D1A9B1A2B190F81D
:10369C003830012B12D0C284002382842122016293
:1036AC000168C36380F8383080F83920CA6818463E
:1036BC0042F08002CA6070470120704702207047B8
:1036CC0090F83A30202B20D1E9B1E2B190F83830A3
:1036DC00012B1AD0C285828500232222C36380F875
:1036EC003A20026880F838308162D168184641F47B
:1036FC008071D160516941F001015161D16841F093
:10370C002001D1607047012070470220704710B52E
:10371C0090F83A30222B33D181680469B1F5805F7F
:10372C00836A026823D15268ECB9C2F3080223F809
:10373C00022B8362C48D013CA4B2C4858CB903688E
:10374C00DA6822F02002DA60DA6822F48072DA6039
:10375C005A6922F001025A61202380F83A3001F0B4
:10376C0091F800200DE0D2B223F8012BE1E7591CAF
:10377C00526881620CB91A70DCE702F07F02FAE73A
:10378C00022010BD036870B51A6804461607D96884
:10379C005D6907D1960659D58D0657D5BDE87040A1
:1037AC00FFF7B5BF05F0010001F4907505434DD04E
:1037BC00D60705D5CD0542BFE36B43F00103E363A8
:1037CC00530704D518B1E36B43F00203E363960788
:1037DC0004D518B1E36B43F00403E363150704D578
:1037EC0018B1E36B43F00803E363E36B4BB3900650
:1037FC0004D5890602D52046FFF789FF23682046A9
:10380C005B69E56B03F0400305F008051D4319D017
:10381C00FFF72AFF23685A6952060FD55A69606B65
:10382C0022F040025A6148B1254B4363FEF73CFC41
:10383C0038B1606BBDE87040436B1847204601F00F
:10384C0037F870BD01F034F8E563FAE7160628D5B1
:10385C000D0626D594F83920212AF2D1A168226AC6
:10386C00B1F5805F18D11188C1F308015960216945
:10387C0081B902322262E28C013A92B2E284002ACD
:10388C00DFD1DA6822F08002DA60DA6842F04002B6
:10389C00DA60D6E70132EDE7511C216212785A60EA
:1038AC00E9E75006CDD54A06CBD5DA68204622F09A
:1038BC004002DA60202384F8393000F0E6FFC0E7DC
:1038CC00D138000808B50023406AC385C38400F0D2
:1038DC00EFFF08BD90F8392090F83A00104370477C
:1038EC0084B001A880E80E0004B000207047B0F846
:1038FC0040309BB243F43F43A0F840300020704767
:10390C00B0F8403023F474535B045B0CA0F84030E7
:10391C00002070470020704784B010B5044603A8FF
:10392C0080E80E0000200123A4F84030A4F84000E9
:10393C00A4F84400A4F85000B4F840309BB243F40F
:10394C003F43A4F84030BDE8104004B0704700007D
:10395C0070B5CB780A78032B0FD8DFE803F002663A
:10396C00525B30F8223023F4EC4323F070031B0439
:10397C001B0C43F4007320F8223040F60F720C78C5
:10398C0030F824301340234343F4004343F08003C6
:10399C0020F824308C7A0D7800F58063002C40F0F0
:1039AC0092808C884E786408012E4FEA44044FEACA
:1039BC00C50545D1B0F85060B6B2354443F8154052
:1039CC000C7830F824305D0608D530F824301A40D5
:1039DC0042F4004242F0C00220F824200A7830F869
:1039EC00223023F4E04323F040031B041B0C83F030
:1039FC00200343F4004343F0800320F822300020DE
:103A0C0070BD30F8223023F4EC4323F070031B0418
:103A1C001B0CB0E730F8223023F4EC4323F0700396
:103A2C001B041B0C43F4C063A5E730F8223023F4CD
:103A3C00EC4323F070031B041B0C43F480639AE7E4
:103A4C00B0F8502092B22A44043243F81240B0F835
:103A5C0050400D690A78A4B206343E2D04EBC20422
:103A6C0029D9C5F34F16EA0604BF06F1FF3296B208
:103A7C00894A42EA862292B243F814200A7830F836
:103A8C0022305B040BD530F8223023F0F0031B05F9
:103A9C001B0D43F4404343F0800320F822300A7896
:103AAC0030F8223023F4804323F070031B041B0CEA
:103ABC0083F400539DE7C5F34F02ED0744BF013279
:103ACC0092B29202D7E730F8254024F4F87424051A
:103ADC00240D44F4014444F0800420F82540B0F84F
:103AEC0050400D78A4B204EBC504CD886D086D0070
:103AFC0043F81450B0F850400D78A4B2043404EBE1
:103B0C00C5040D896D086D0043F814504C780D7880
:103B1C00012C3AD130F825305E0408D530F8253028
:103B2C00134043F4404343F0800320F825300A78D7
:103B3C0030F822305C060BD530F8223023F0F0033D
:103B4C001B051B0D43F4004343F0C00320F8223047
:103B5C0048F280020C7830F8243023F4E04323F050
:103B6C0040031B041B0C83F03003134320F8243058
:103B7C00097830F8213023F4804323F070031B04C0
:103B8C001B0C134320F8213039E7ACB9B0F8504086
:103B9C00A4B2023404EBC5040D693E2D60D9C5F303
:103BAC004F16EA0604BF06F1FF3296B23A4A42EAD1
:103BBC00862292B243F814204C780A78002C5FD1FC
:103BCC00B0F850400D69A4B206343E2D04EBC2048B
:103BDC004ED9C5F34F16EA0604BF06F1FF3296B272
:103BEC002D4A42EA862292B243F814200A7830F821
:103BFC0022305C040BD530F8223023F0F0031B0587
:103C0C001B0D43F4404343F0800320F822300A7824
:103C1C0030F822305B060BD530F8223023F0F0035D
:103C2C001B051B0D43F4004343F0C00320F8223066
:103C3C0048F280020C7830F8243023F4804323F0CF
:103C4C0070031B041B0C83F44053134320F82430E3
:103C5C00097830F8213023F4E04323F040038EE759
:103C6C00C5F34F02ED0744BF013292B29202A0E7B6
:103C7C00C5F34F02ED0744BF013292B29202B2E794
:103C8C00012CB3D1B0F850400D69A4B2023404EB4E
:103C9C00C20443F81450A9E70080FFFF10B58C7ADA
:103CAC004A780B78C4BB012A30F823201ED1520667
:103CBC000BD530F8232022F0F0021205120D42F43D
:103CCC00004242F0C00220F823200A7830F822305B
:103CDC0023F4E04323F040031B041B0C43F4004388
:103CEC0043F0800320F82230002010BD54040BD583
:103CFC0030F8232022F0F0021205120D42F440425B
:103D0C0042F0800220F823200A7830F8223023F485
:103D1C00804323F07003DFE7012A30F8232046D1DB
:103D2C0052040BD530F8232022F0F0021205120DAC
:103D3C0042F4404242F0800220F823200A7830F806
:103D4C0022305C060BD530F8223023F0F0031B0533
:103D5C001B0D43F4004343F0C00320F822300A78D3
:103D6C0030F8223023F0F0031B051B0D43F44043C5
:103D7C0043F0800320F8223048F280020C7830F8AF
:103D8C00243023F4E04323F040031B041B0C1343A7
:103D9C0020F82430097830F8213023F4804323F0C4
:103DAC0070031B041B0C134320F821309CE75204B6
:103DBC000BD530F8232022F0F0021205120D42F43C
:103DCC00404242F0800220F823200A7830F822305A
:103DDC005B060BD530F8223023F0F0031B051B0DCE
:103DEC0043F4004343F0C00320F822300A7830F843
:103DFC00223023F0F0031B051B0D43F4004343F06A
:103E0C00C00320F8223048F280020C7830F82430BD
:103E1C0023F4804323F070031B041B0C134320F882
:103E2C002430097830F8213023F4E04323F04003A8
:103E3C00B7E70A788AB9038823F4804323F0400358
:103E4C001B041B0C83F4805383F0100343F40043D6
:103E5C0043F080030380002070474B7883B130F827
:103E6C00223023F4E04323F040031B041B0C83F0AB
:103E7C00100343F4004343F0800320F82230EAE7B8
:103E8C0030F8223023F4804323F070031B041B0C06
:103E9C0083F48053EDE74B780A7813B330F8223073
:103EAC005B060BD530F8223023F0F0031B051B0DFD
:103EBC0043F4004343F0C00320F822300A7830F872
:103ECC00223023F4E04323F040031B041B0C83F04B
:103EDC00300343F4004343F0800320F822300020E9
:103EEC00704730F822305B040BD530F8223023F0C9
:103EFC00F0031B051B0D43F4404343F0800320F8F3
:103F0C0022300A7830F8223023F4804323F07003F7
:103F1C001B041B0C83F44053DBE711B98023A0F87E
:103F2C004C30002070470020704700207047B0F8DC
:103F3C00440080B2704700207047013300F5806068
:103F4C005B1000EB420203B9704731F8020B013BE6
:103F5C0022F8040BF7E770B50C4663780546012B85
:103F6C00097859D1A3692269A67A934294BF00209B
:103F7C00981AA06188BF134605F58060CA00F6B98F
:103F8C00B5F8501089B20A44023240F81230A288B7
:103F9C009BB228466169FFF7D0FFA37AFBB9227860
:103FAC0035F8223023F4E04323F040031B041B0CB0
:103FBC0083F0300343F4004343F080031CE035F8F6
:103FCC00211011F0400FB5F8501089B20A4402F1DB
:103FDC00020240F8123014BF2289E288D8E76378D5
:103FEC0073B9227835F8223023F0F0031B051B0D32
:103FFC0043F4004343F0C00325F82230002070BD89
:10400C00012BFBD1227835F8223023F0F0031B056D
:10401C001B0D43F44043CFE730F8213023F48043A9
:10402C0023F070031B041B0C83F4405343F4004334
:10403C0043F0800320F82130E0E710B50024013371
:10404C0000F580605B1000EB42009C4200D110BD7B
:10405C0050F8242021F814200134F6E786B0042807
:10406C0041D8DFE800F003101C2834001F4B204817
:10407C009A6942F004029A619B6903F0040301936C
:10408C00019B06B07047194B1A489A6942F0080216
:10409C009A619B6903F008030293029BF1E7134BAF
:1040AC0015489A6942F010029A619B6903F010035B
:1040BC000393039BE5E70D4B10489A6942F02002ED
:1040CC009A619B6903F020030493049BD9E7074B87
:1040DC000B489A6942F040029A619B6903F04003D5
:1040EC000593059BCDE70020CBE700BF00100240F5
:1040FC0000080140000C0140001001400014014078
:10410C000018014037B50D4D2B68FDF749FF6C6861
:10411C00AB680134E31A01932B68DB0304D5FDF77C
:10412C003FFFAB68E31A01934FF47A72019B534340
:10413C00B3FBF4F302FB003003B030BD10E000E041
:10414C00FDF72EBF704708B5FDF71EFFFDF7A7FF63
:10415C00FFF7F8FF08BD00000B4BDA68D2015EBF19
:10416C00DA6842F08072DA600022084B5A601A68F2
:10417C0042F001021A6000BF00BF00BF5868B0FADD
:10418C0080F04009704700BFF0ED00E0001000E047
:10419C0008B5FFF7E1FFFDF7E5FE00F0B3FCBDE865
:1041AC00084000F01FBD70B50D0E445991FAA1F3F3
:1041BC00B3FA83F30F269B0006FA03F324EA0304F5
:1041CC0091FAA1F1B1FA81F1890002FA01F12143CE
:1041DC00415170BD70B50D0E445991FAA1F3B3FA6B
:1041EC0083F304269B0006FA03F324EA030491FAF2
:1041FC00A1F1B1FA81F1890002FA01F12143415197
:10420C0070BD431C04D00C3131F90C3C5A1C01D14B
:10421C0000207047834201F10C01F5D10120704759
:10422C00B24B2DE9F74F00F00F0253F822B0431CAC
:10423C0006460D4601F00707C0F303141FFA80F978
:10424C0003D14721AA4800F0FBF92046FFF706FFEF
:10425C00012F0446DFF8A0824FEA1B6A46D150F8C2
:10426C000A109BFAABF3B3FA83F303229B0002FA16
:10427C0003F321EA03039BFAABF1B1FA81F1890054
:10428C008A401343012240F80A3059462046013F28
:10429C00FFF789FF012F06D815F0080218BF04227A
:1042AC005946FFF797FF54F80A10C5F301159BFA0E
:1042BC00ABF2B2FA82F39A000F2393400B409BFAB5
:1042CC00ABF2B2FA82F2012D4FEA820223FA02F328
:1042DC0000F02381022D00F04F81082B40F0328139
:1042EC00042259462046FFF75EFF2BE1032F00F214
:1042FC000C81DFE817F01001040006000E013A46AD
:10430C00C3E7D8F81830C5F3062243F00103C8F808
:10431C001830D8F8183003F001030093009B531E9B
:10432C00232B2CD8DFE813F024002D0034003B00A5
:10433C00400047004C0053005800600069006E00BC
:10434C0075007E0083008A0093009C00A100A800E9
:10435C00B100B600BD002B002B002B00C200C90021
:10436C002B002B002B002B00CE00D300DA00EA0030
:10437C00604A536843F0E06343F001035360092241
:10438C0083E75C4A536823F0010343F0E063F5E7ED
:10439C00584A536843F0E06343F00203EEE7554A92
:1043AC00536823F00203F0E7524A536843F0E0638A
:1043BC0043F00403E2E74F4A536823F00403E4E7B5
:1043CC004C4A536843F0E06343F00803D6E7494A8C
:1043DC00536823F00803D8E746494B6843F0E06381
:1043EC0043F030034B6050E7424A536823F03003EC
:1043FC0043F0E06343F01003C0E73E4A536823F0F8
:10440C003003C2E73B4A536843F0E06343F0C00318
:10441C00B4E7384A536823F0C00343F0E06343F039
:10442C004003ABE7334A536823F0C003ADE7314A8E
:10443C00536843F0E06343F440739FE72D4A53689D
:10444C0023F4407343F0E06343F4007396E7294A86
:10445C00536823F4407343F0E06343F480738DE7B7
:10446C00244A536823F440738FE7224A536843F07D
:10447C00E06343F4406381E71E4A536823F44063CE
:10448C0043F0E06343F4006378E71A4A536823F47B
:10449C0040637AE7174A536843F0E06343F4805370
:1044AC006CE7144A536823F480536EE7114A53683F
:1044BC0043F0E06343F4004360E70E4A536823F48F
:1044CC00004362E70B4A536823F0E06356E7094A5E
:1044DC00536823F0E06343F080734FE7054A536859
:1044EC0023F0E06343F0007348E700BF3468000832
:1044FC00BE67000800000140001002402D4A5368BE
:10450C0023F0E06343F0806338E771212A4800F020
:10451C0097F80022B9E60822B7E6042B04D108224A
:10452C0059462046FFF73FFEE3684FEA1B2223EA79
:10453C001B2B92FAA2F3B3FA83F20123934043EAC2
:10454C000B03E360D8F8183043F00103C8F81830B7
:10455C00D8F8183003F001030193019BA9F10D0366
:10456C00012B18D8134A536823F0E06343F080639F
:10457C00536003B0BDE8F08F042B04D108225946D8
:10458C002046FFF710FEE3684FEA1B2223EA1B23A9
:10459C0092FAA2F2D5E70F2E04D0A9F11309B9F1C2
:1045AC00010FE6D8034A536823F0E06343F000732D
:1045BC00DEE700BF00000140BE670008431C06D1C7
:1045CC007047834202D18968FFF72ABE0C31B1F9DA
:1045DC0000305A1CF5D19D21014800F031B800BFC4
:1045EC00BE670008B1F900305A1C01D10020704799
:1045FC00834201D1486870470C31F3E7431C01D06A
:10460C00FFF7F0BF0020704703468B42084604D0EA
:10461C001BB100290CBF184600207047034B1B68C8
:10462C0013B1034A10681847704700BF48030020B5
:10463C00600300200148FEF793BD00BF4C0300202F
:10464C00FEE700000F4B1A6842F001021A6059682D
:10465C000D4A0A405A601A6822F0847222F48032A1
:10466C001A601A6822F480221A605A6822F4FE0238
:10467C005A604FF41F029A604FF00062034B9A602D
:10468C00704700BF001002400000FFF800ED00E092
:10469C000438704703681D4A84B093420BD11C4BFD
:1046AC009A6942F400629A619B6903F40063009377
:1046BC00009B04B07047B3F1804F10D0154A934261
:1046CC0018D0154A9342F4D1114BDA6942F0040226
:1046DC00DA61DB6903F004030393039BE9E70C4BFA
:1046EC00DA6942F00102DA61DB6903F0010301933C
:1046FC00019BDEE7064BDA6942F00202DA61DB6904
:10470C0003F002030293029BD3E700BF002C01408D
:10471C000010024000040040000800400368124AE8
:10472C00934206D102F56442936923F400639361CA
:10473C007047B3F1804F06D00C4A934209D00C4A13
:10474C0093420BD070470B4AD36923F00103D3611A
:10475C007047084AD36923F00203F8E7054AD36986
:10476C0023F00403F3E700BF002C014000040040D9
:10477C00000800400010024008B5431C01460DD053
:10478C000D4B984212D00CD8B0F1804F10D0A3F53D
:10479C00806398420ED00948FFF752FF6FF00D006E
:1047AC0008BD074B9842F6D11920F9E71E20F7E710
:1047BC001C20F5E71D20F3E7000800408C6800087A
:1047CC00002C014008B5431C01460DD00D4B9842FE
:1047DC0012D00CD8B0F1804F10D0A3F58063984262
:1047EC000ED00948FFF72CFF6FF00D0008BD074BEA
:1047FC009842F6D11B20F9E71E20F7E71C20F5E7BD
:10480C001D20F3E7000800408C680008002C0140D4
:10481C0038B50446FFF73EFF0068FFF7ADFFD4E95B
:10482C001012FDF7D5FB2068FFF7A6FFFDF702FC81
:10483C002068FFF7C7FF05462068FFF79DFF8542FC
:10484C000DD02068FFF7BEFFD4E91012FDF7C0FBB6
:10485C002068FFF7B7FFBDE83840FDF7EBBB38BD6C
:10486C0008B5074B90F8512053F82200FFF732F8A7
:10487C0000F02200A0F122035842584108BD00BFAD
:10488C0064030020036C0438184710B5436C0446CD
:10489C000438984701300AD0B4F85E30616D9BB291
:1048AC002046BDE8104001221944FEF7EABE10BDB7
:1048BC001FB503680446186810F0010013D00022DD
:1048CC0000921A6800925B680093009B201FFFF710
:1048DC00C7FF40BB0122204604F14E0104B0BDE8E5
:1048EC001040FEF7EDBE196811F0020106D00190E0
:1048FC001A6801925B680193019BE7E71A6812F052
:10490C00040206D002911A6802925B680293029B21
:10491C00DCE719680907D9D503921A6803925B681A
:10492C000393039BD2E704B010BD000008B525200B
:10493C00FDF7A4FB024B1868BDE80840FEF722BF48
:10494C006403002008B52620FDF798FB024B58683D
:10495C00BDE80840FEF716BF64030020272008B509
:10496C00FDF78CFB034B986818B1BDE80840FEF7C7
:10497C0009BF08BD64030020F8B514490646FFF7CB
:10498C003DFE00F0F1F9124C054654F8203073B995
:10499C000E493046FFF732FE07466C2000F07EFBD6
:1049AC000646394600F0FCF954F825301E6054F8E0
:1049BC0025301C6844B1204600F038FA2046BDE88A
:1049CC00F8406C2100F06CBBF8BD00BFA468000877
:1049DC00B0040020836810B5044613B103220146CD
:1049EC009847204610BD00000023012803F1010266
:1049FC0002D013464008F8E71421DBB24B43044ABB
:104A0C00181D1044816811B11A4413691847704776
:104A1C00700300200120FDF78DBB0220FDF78ABB3F
:104A2C000420FDF787BB0820FDF784BB1020FDF7A1
:104A3C0081BB38B505242025A8B2FDF77BFB013CD2
:104A4C004FEA4505F8D138BD38B506244FF48065DA
:104A5C00A8B2FDF76FFB013C4FEA4505F8D138BD14
:104A6C000721204B06221975082183F828100921EB
:104A7C0083F83C100A2183F8501017211A7083F820
:104A8C006410002283F8781083F88C1083F8A0103F
:104A9C0083F8B4102821DA601A625A639A64DA65D2
:104AAC001A67C3F88420C3F89820C3F8AC20C3F865
:104ABC00C02083F8C810C3F8D42083F8DC10C3F8E6
:104ACC00E82083F8F010C3F8FC2083F80411C3F835
:104ADC00102183F81811C3F8242183F82C11C3F882
:104AEC00382170477003002038B5054CA4F5A0752B
:104AFC00143C201DFFF76EFFAC42F9D138BD00BF4E
:104B0C00B004002010B54FF480330122022494B07D
:104B1C000021CDE90A23CDE911434FF4E0130AA893
:104B2C000C910E921393FEF711F800B1FEE70F23D0
:104B3C00CDE905344FF480630790CDE90830214668
:104B4C0005A8FEF7D9F900B1FEE7122301934FF443
:104B5C000043CDE9033001A8FEF78AFA00B1FEE765
:104B6C0014B010BD002103E00B4B5B5843500431D3
:104B7C000A480B4B42189A42F6D30A4A02E0002329
:104B8C0042F8043B084B9A42F9D3FFF75BFD01F066
:104B9C0025FB00F073FA7047A86D00080000002098
:104BAC005002002050020020F00E0020FEE770475B
:104BBC0008B501210C20FFF733FB084B0A201A68BB
:104BCC00074B1B6BC3F30F23536100F083F8BDE855
:104BDC00084000210C20FFF723BB00BF540000202D
:104BEC003468000800F002BB22282DE9F0410E4683
:104BFC003DD8204B33F91040621C38D01E4DC4F305
:104C0C00031755F8273004F00F0823FA08F3DB07D5
:104C1C0010D520461949FFF7F4FA10B12046FFF7DA
:104C2C00ABFE012303FA08F255F8273023EA0203FE
:104C3C0045F82730052E14D8DFE806F0030F090BD2
:104C4C000D1100212046BDE8F041FFF7E9BA102113
:104C5C00F8E72021F6E70321F4E70121F2E7092127
:104C6C00F0E74921BDE8F0410548FFF7E9BCBDE894
:104C7C00F08100BFC06A0008D0040020A4680008BE
:104C8C00066B000822288EBF4FF0FF330C4B33F914
:104C9C001030C3F30312042A98BF0A4803F00F0321
:104CAC0098BF50F82220084888BF002250F82330C3
:104CBC00C3F30F2309B1136170475361704700BFF1
:104CCC00C06A00085400002034680008FFF738BAA6
:104CDC00FFF718BA38B5044648B1FFF731FA054664
:104CEC00FFF765FFFFF72CFA431BA342F8D338BD3F
:104CFC0010B5044620B940F2CB310648FFF7A0FCB2
:104D0C002046FFF7C5FC0068436D13B1BDE81040A9
:104D1C00184710BD736B000870B5054620B940F2FA
:104D2C00DE311048FFF78CFC2B7F013B072B17D88B
:104D3C00DFE803F014041610161616120224284687
:104D4C00FFF7A6FC006800EB8404636D43B1BDE87B
:104D5C00704018470324F2E70424F0E70124EEE73F
:104D6C0070BD00BF736B00080B4B98420ED0B0F1B6
:104D7C00804F0DD0A3F5943398420BD04FF6FF73B0
:104D8C00064A904214BF1846032070470020704713
:104D9C000120704702207047002C014000080040A1
:104DAC0070B5044608460D46FFF7DEFF4FF6FF735D
:104DBC009842064603D132211A48FFF741FC1A4BA0
:104DCC0004F1080243F82620E5600E23002504F1C7
:104DDC000C063046C4E91335C4E90B55C4E90D552E
:104DEC00C4E90F5584F82850656484F8485084F859
:104DFC004950A460FFF74EFC4FF6FF733046C4E9F0
:104E0C001555C4E91755C4E91955C4E90055C4E949
:104E1C000553C4E9075525616562FEF709FC204678
:104E2C0070BD00BF736B0008B0040020014638B59C
:104E3C00044651F80C0FFFF797FF05460846FFF79D
:104E4C006DFC0022024B204643F8252038BD00BFE4
:104E5C00B0040020FFF760BFFFF75EBFFFF748BF4D
:104E6C00034B186810B10430FEF708BB704700BF45
:104E7C00B0040020FFF7F4BF034B586810B10430A6
:104E8C00FEF7FCBA704700BFB0040020034B9868D3
:104E9C0010B10430FEF7F2BA704700BFB004002026
:104EAC00034BD86810B10430FEF7E8BA704700BF66
:104EBC00B004002003688A685B680968184710B55D
:104ECC000446FFF703FFE06023682046DB68984741
:104EDC00002808DAFFF7FAFEE368C01AA3689842C4
:104EEC00F2D34FF0FF3010BDF8B506460D4617460D
:104EFC000024BC4207D03046FFF7E1FF031E02DB63
:104F0C002B550134F5E72046F8BD2DE9F041074655
:104F1C00884616461D4673B100243846FFF7CFFF6E
:104F2C00031E05DB434503D033550134A542F4D1B0
:104F3C002046BDE8F0811C46FAE78160704710B549
:104F4C000446006801F076F9204610BD10B5044601
:104F5C00006808B101F06EF90023C4E90133236045
:104F6C0010BD38B504460D460068013101F01EFA3B
:104F7C0010B1C4E90005012038BD036810B5044622
:104F8C0023B143688B4201D3012010BD2046FFF7AB
:104F9C00E8FF0028F9D0A368002BF5D12268137024
:104FAC00F2E770B50E46114604461546FFF7E5FFCD
:104FBC0020B92046FFF7CAFF204670BD3146206855
:104FCC00A56001F00BFAF7E738B5002304460D464F
:104FDC00C0E90033836039B10846FBF791F82946E4
:104FEC0002462046FFF7DDFF204638BD884210B54B
:104FFC000B46044604D0096821B19A68FFF7D1FF2B
:10500C00204610BDFFF7A2FFFAE7002310B50446B7
:10501C00C0E900338360FFF7E9FF204610BD70B58F
:10502C0005460E4609B9002070BD6AB18468144467
:10503C002146FFF7A2FF0028F5D02868AB6831465F
:10504C00184401F0CBF9AC600120EDE738B505460A
:10505C000C46084641B1FBF753F821460246284658
:10506C00BDE83840FFF7DBBF38BD704708B50320FB
:10507C00FCF79CFFBDE8084000F064B808B5FFF7EA
:10508C00F4FFFCF75DF9044CFCF79AFC002CFBD008
:10509C00AFF30080F8E700BF0000000001F0C2B8D9
:1050AC0001F0C8B822282DE9F8430C46164621D841
:1050BC000125224B33F9103003F00F02C3F3031315
:1050CC00042B05FA02F517D81D4A52F82380002C40
:1050DC0018BF2C46FFF7FCFD0746D8F808302B40CC
:1050EC00A3420CD1FFF7F4FDC01BB042F5D9002050
:1050FC00BDE8F8834FF400454FF00008E7E7D8F817
:10510C0008302B40A34205D0FFF7E2FDC01BB04294
:10511C00F5D9ECE7FFF7DCFD8146D8F808302B40D9
:10512C00A34205D1FFF7D4FDC01BB042F5D9DEE791
:10513C00FFF7CEFDA0EB0900DAE700BFC06A00085C
:10514C0054000020FFF724B80020704710B5094C1C
:10515C00094800F02FFE204600F057FE0122074BB5
:10516C0020461A7000F05AFE0146054800F0F2FF86
:10517C00002010BD76050020F004002088000020DF
:10518C003C06002021280ED022281DD0202808D132
:10519C000A68134B1A600A791A714A795A718A791A
:1051AC009A71002070470E4B1A680A701A68120A1E
:1051BC004A705A888A70DA78CA701A790A715A79E0
:1051CC004A719B798B71ECE74B88064A03F001031B
:1051DC0013601368002BE4D00022034B1A60E0E745
:1051EC0080000020C4040020C804002010B50C4C22
:1051FC0022789AB90B490C4800F084F870B90B4925
:10520C00094800F094F848B90949074800F093FFA1
:10521C0020B9054800F092F80123237010BD00BF9F
:10522C00C0040020A00000203C060020DC00002070
:10523C006C00002037B50F4CD4F8B832D3F81432C8
:10524C00ABB90D480DF1060100F0BAFDBDF8063002
:10525C00054663B1FCF7A4FE084B29461860BDF85F
:10526C000620204600F06EFF204600F079FF03B0C8
:10527C0030BD00BF3C060020F0040020C804002014
:10528C0010B50024044B05481C6000F0B4FDFFF77A
:10529C00D1FF204610BD00BFC8040020F004002040
:1052AC0038B50A4D2B780BB1002038BD084800F0FA
:1052BC00B5FD01460028F7D0012406482C7000F0FB
:1052CC0049FF044800F065FF2046EEE78800002007
:1052DC00760500203C06002008B50988064800F039
:1052EC00D6FD0022054B1A70FFF7DAFF10B90448FF
:1052FC0000F066FF002008BD760500208800002025
:10530C003C06002008B580B1D0F8B43213B10023AC
:10531C00C0F8B43209B1C0F8B0120123027080F8A1
:10532C009C3200F03FFC002008BD0220FCE719B1C4
:10533C00C0F8B412002070470220704708B500F086
:10534C0067FC002008BD08B5D0F8B4320BB90220B8
:10535C0008BD1B6898470028FAD0F8E708B5D0F8C4
:10536C00B4325B689847002008BD38B500F52A7543
:10537C000446284600F0E8FA012394F8A812C4F871
:10538C009432B4F8AE32C4F8983201F01F03012BFA
:10539C0008D0022B0BD07BB92946204600F0FCF834
:1053AC00002038BD2946204600F020FAF8E72946AF
:1053BC00204600F03FFAF3E7204601F0800100F0B0
:1053CC003FFCEDE770B5044616460D4639BBD0F8E8
:1053DC009432032B1CD1D0E9581291420BD9891A63
:1053EC008A42C0F860118CBF8AB292B2314600F08A
:1053FC0008FB284670BDD0F8B4321B6923B190F875
:10540C009C22032A00D19847204600F002FBF0E7CB
:10541C00052BEED1C4F8941200F012FCE9E7D0F899
:10542C00B4329B6933B190F89C22032A02D198477D
:10543C000025DEE70225DCE7F8B5044617460D46E5
:10544C00002947D1D0F89432022B3CD1D0E9086323
:10545C009E4214D9F31A394603629AB200F0BCFA90
:10546C002B462A462946204600F018FC94F8A03218
:10547C00012B02D1002384F8A0322846F8BDC26962
:10548C00B2FBF3F603FB16265EB9934209D8D0F8AB
:10549C0098329A4205D20A4600F09EFAC4F8985205
:1054AC00DEE794F89C32032B09D1D4F8B432DB68D4
:1054BC000BB1204698478021204600F0C1FB2046C6
:1054CC0000F0B2FAD2E733F00403CFD1802100F020
:1054DC00B7FBCBE7D0F8B4325B6933B190F89C22C0
:1054EC00032A02D198470025C7E70225C5E7002209
:1054FC0070B50446012540261146402300F08FFB71
:10550C003346802100222046C4F85851C4F8646107
:10551C0000F085FB0021D4F8B832A561666284F8EE
:10552C009C52C4F894126160C4F8A41223B1D4F84C
:10553C00B43220465B689847002070BD017400208F
:10554C00704790F89C3280F89D32042380F89C328E
:10555C000020704790F89C32042B04BF90F89D32C9
:10556C0080F89C320020704708B590F89C22032AE2
:10557C0004D1D0F8B432DB6903B19847002008BDE0
:10558C0010B50446802100F05BFB2046BDE81040BE
:10559C00002100F055BB000037B50B78044603F032
:1055AC006003202B0D4612D0402B10D0002B51D174
:1055BC004B78092B4ED8DFE813F0EE000A014D00B2
:1055CC0003014D00870013004D00D600A300D4F852
:1055DC00B432294620469B689847002003B030BD62
:1055EC000023ADF806304B881A0A013A062A31D846
:1055FC00DFE802F00416233030485200D0F8B03205
:10560C001B68207C0DF106019847BDF80620002A86
:10561C0056D0EB88002B4AD1204600F0FAF9DCE793
:10562C00027CD0F8B43232B99B6A0DF1060098476F
:10563C0002234370E9E7DB6AF7E7DBB2052B09D8F5
:10564C00DFE803F0030C1014181CD0F8B0325B68C0
:10565C00002BD6D12046FFF793FFBEE7D0F8B0322F
:10566C009B68F5E7D0F8B032DB68F1E7D0F8B032E0
:10567C001B69EDE7D0F8B0325B69E9E7D0F8B032DE
:10568C009B69E5E7037C002BE4D1D0F8B4320DF133
:10569C0006005B6B9847B8E7037C002BDAD1D0F897
:1056AC00B4320DF106001B6B98470723C1E79A42F1
:1056BC0028BF1A4601462046ADF8062000F07FF9B7
:1056CC00EB88002B89D1A7E78B88002BC2D1CB8824
:1056DC00002BBFD14D887F2DBCD890F89C32032B6A
:1056EC00B8D0E9B280F89E1200F0CAFA204600F059
:1056FC0090F91DB1022384F89C326EE70123FAE77E
:10570C008978394D01292970A4D890F89C32022B44
:10571C0008D0032B15D0FFF733FF20462978FFF76D
:10572C001DFE5AE700293FF477AF012103234160A6
:10573C0080F89C322046FFF706FE02287FF46CAFFF
:10574C0088E731B90223416080F89C32FFF706FEEE
:10575C0062E7416801293FF45FAFC9B2FFF7FEFD74
:10576C0029786160E6E7CA88012A7FF473AF90F864
:10577C009C32022B0AD8002B3FF46CAF014600235D
:10578C0041F8083F204600F01AF926E7032B7FF476
:10579C0061AF011DF6E790F89C32013B022B3FF6FE
:1057AC0059AFCB88022B7FF455AF0123C360D0F8DF
:1057BC00A4320BB10323C360022204F10C01E1E714
:1057CC004B88012B7FF409AFC4F8A43224E790F87E
:1057DC009C32013B022B3FF63DAF4B88012B7FF4F3
:1057EC00FCAE0023F0E700BFCC04002038B50B78EA
:1057FC00044603F06002402A0D4601D05B0615D426
:10580C0094F89C32013B022B10D82B79022B0DD82B
:10581C00D4F8B43229469B6820469847EB881BB9CC
:10582C0010B9204600F0F5F8002038BD2046FFF7EF
:10583C00A7FEF9E738B50A78044602F06002202A80
:10584C000B4627D0402A25D092BB5A788D88012A46
:10585C0009793DD0032A25D052BB90F89C32022BFB
:10586C004DD0032B24D1142201F00F0315F0800F1F
:10587C0002FB030354D09B69D3B1142301F07F05C1
:10588C0005FB0333C51811F07F0355D12B600222A1
:10589C00294641E0D4F8B422194620469268904734
:1058AC00002038BD90F89C22022A1FD0032A03D076
:1058BC002046FFF765FEF3E75A882AB94A0603D05B
:1058CC00DB880BB900F0BCF9204600F0A2F8E7E742
:1058DC0090F89C22022A09D0032AE9D15B88002B7C
:1058EC00DED14D06F0D000F0B2F9EDE74B06DFD07B
:1058FC0000F0A6F98021204600F0A2F9D0E74A0674
:10590C00D6D12B064FF000034FF002024CBF00F132
:10591C00140100F5AA710B60204600F050F8BFE7A7
:10592C00D3F85831002BC3D0142301F07F0503FBAF
:10593C00050505F5AA75A6E7204600F08FF908B114
:10594C000123A3E72860A2E70B7803704B78437020
:10595C00CA788B7803EB022343804A790B7903EBEB
:10596C0002238380CA798B7903EB0223C3807047AF
:10597C0010B50446802100F063F92046BDE81040C4
:10598C00002100F05DB930B588B1002501382B46F7
:10599C000135445D002CFAD1DBB201335B0013807E
:1059AC000B7003234B70022310F8015F05B930BD57
:1059BC005A1CCD54D2B20233DBB28C54F4E71346EA
:1059CC00022210B5C0E90733C0F894220A46002120
:1059DC0000F05DF9002010BD08B513460A46002101
:1059EC0000F055F9002008BD1346032210B5C0E99C
:1059FC005733C0F894220A46002100F04FF90020DA
:105A0C0010BD08B513460A46002100F047F90020E6
:105A1C0008BD08B50423C0F8943200231A46194671
:105A2C0000F035F9002008BD08B50523C0F8943204
:105A3C0000231A46194600F031F9002008BD000079
:105A4C0037B5204B026804469A4239D11E4D03E00B
:105A5C00A968FEF7E5FB0C35B5F90000431CF7D13E
:105A6C001A4B0121DA69142042F40002DA61DB6975
:105A7C00002203F400030193019BFCF7A9FA142004
:105A8C00FCF7D8FAA369012B1AD14FF48022104BE2
:105A9C002A205A61DA6822F48022DA609A6842F489
:105AAC0080229A601A6842F480221A60FCF7C2FACB
:105ABC0000222A20114603B0BDE83040FCF788BA1A
:105ACC0003B030BD005C00409C6A0008001002402E
