:1010000000000420E1120000091300000B1300008F
:101010000D1300000F13000011130000000000006A
:10102000000000000000000000000000131300009A
:101030001513000000000000171300001913000032
:101040001B1300001B1300001B1300001B130000E8
:101050001B1300001B1300001B1300001B130000D8
:101060001B1300001B1300001B1300001B130000C8
:101070001B1300001B1300001B1300001B130000B8
:101080001B1300001B1300001B1300001B130000A8
:101090001B1300001B1300001B1300001B13000098
:1010A0001B1300001B1300001B1300001B13000088
:1010B0001B1300001B1300000000000000000000D4
:1010C0001B1300001B1300001B1300001B13000068
:1010D0001B1300001B1300001B1300001B13000058
:1010E0001B1300001B1300001B1300000000000076
:1010F000000000001B130000000000001B13000094
:1011000000000000000000000000000000000000DF
:1011100000000000000000000000000000000000CF
:1011200000000000000000000000000000000000BF
:1011300000000000000000000000000000000000AF
:10114000000000000000000000000000000000009F
:10115000000000000000000000000000000000008F
:10116000000000000000000000000000000000007F
:10117000000000000000000000000000000000006F
:10118000000000000000000000000000000000005F
:10119000000000000000000000000000000000004F
:1011A000000000000000000000000000000000003F
:1011B000000000000000000000000000000000002F
:1011C000000000000000000000000000000000001F
:1011D000000000000000000000000000000000000F
:1011E00000000000000000000000000000000000FF
:1011F00000000000000000000000000000000000EF
:1012000010B5054C237833B9044B13B10448AFF340
:1012100000800123237010BD780000200000000032
:101220008C1700000C4B43B10C480D4910B5AFF3BF
:1012300000800C48036823B910BD0A48036833B91D
:101240007047094B002BF7D0BDE810401847064BFC
:10125000002BF5D0184700BF000000008C170000DD
:101260007C0000207400002000000000154B002BC3
:1012700008BF134B9D46A3F5803A00218B460F46CD
:101280001348144A121A00F057FA0F4B002B00D0E3
:1012900098470E4B002B00D09847002000210400F7
:1012A0000D000D48002802D00C48AFF3008000F07C
:1012B0001FFA2000290000F0B5F800F005FA00BF81
:1012C00000000800000004200000000000000000F2
:1012D00078000020940000200000000000000000C2
:1012E0000649074A074B9B1A03DD043BC858D050F8
:1012F000FBDC00F0AFF8FFF7B9FF00009817000023
:101300000800002078000020FEE7FEE7FEE7FEE789
:10131000FEE7FEE7FEE7FEE7FEE7FEE70A4B195CA5
:101320001F298ABF09484FF0A04001F01F01D0F8E3
:10133000043501228A4022EA03011340C0F808154F
:10134000C0F80C35704700BF641700000003005060
:10135000C30706D4830742BF2E4B0C22C3F81827BD
:101360007047F0B44FF08043D3F84036D90722D409
:101370004FF0A04327490322C3F818274027C3F89A
:1013800020274FF48076C1F824274FF40075C3F866
:1013900030274FF480548207C3F80875C3F80865F6
:1013A000C1F80855C3F8084503D51A4B0C22C3F8F9
:1013B0001827F0BC70474FF01023D3F8043303F024
:1013C0000703072BD4D1144B0122C3F80425D3F80B
:1013D0000024002AFBD04FF010210020D1F8042374
:1013E0000D4C22F0070242F00402C1F80423C3F8B6
:1013F0000405D4F80034002BFBD0BFF34F8F07490E
:10140000074BCA6802F4E0621343CB60BFF34F8F0F
:1014100000BFFDE70003005000E0014000ED00E0E8
:101420000400FA0570B50120094DFFF791FF45F062
:10143000010500263046FFF771FF4FF4FA744FF4B0
:101440007A40A847013CFAD10136042EF2D1F0E7E8
:101450007017000010B4894B1B68082B21D0884AF4
:10146000D2F8883043F47003C2F88830BFF34F8F4E
:10147000BFF36F8F814B1B68082B00F0AD804FF0DE
:101480001023D3F80022002AC0F2C180D3F804321E
:10149000002BC0F2BC807B4B7B4A1A605DF8044B8A
:1014A00070474FF080414FF080520020C1F80C018E
:1014B000764BC1F81001C1F83805D2F80414C3F80E
:1014C0002015D2F80814C3F82415D2F80C14C3F868
:1014D0002815D2F81014C3F82C15D2F81414C3F838
:1014E0003015D2F81814C3F83415D2F81C14C3F808
:1014F0004015D2F82014C3F84415D2F82414C3F8C8
:101500004815D2F82814C3F84C15D2F82C14C3F897
:101510005015D2F83014C3F85415D2F83414C3F867
:101520006015D2F83814C3F86415D2F83C04C3F837
:1015300068055749D2F84004C3F86C050968D2F829
:101540004424C3F8702505293AD8524B5B5C13B18B
:10155000514B524A1A60524B5B5C002B00F08B805F
:10156000464B50491B684A4AFB20C1F81805082B16
:1015700012687FF474AF052A22D84B4B9B5C002B7A
:1015800076D04A494A4B3D480A681B680068404C7F
:1015900022F00F0203F00F031343082824680B60A6
:1015A0007FF45DAF052C0BD8424B1B5D43B1334B31
:1015B000414A1B684FF40071082B11607FF44FAF54
:1015C0004FF08043D3F80024D2077FF548AF6FF087
:1015D0000102C3F8002442E72D4B1B68052B08D9F4
:1015E0004FF010224FF08043D2F80822C3F858255C
:1015F00045E7324AD35C002B3FF441AF4FF0102255
:101600004FF08043D2F80822C3F8582537E72C4B17
:101610000122C3F80425D3F80024002AFBD04FF0A0
:10162000102312222649C3F80022D1F80034002BDF
:10163000FBD04FF010221221214BC2F80412D3F834
:101640000024002AFBD000221D49C3F80425D1F84C
:101650000034002BFBD0BFF34F8F0949194BCA68E8
:1016600002F4E0621343CB60BFF34F8F00BFFDE78E
:10167000074B1C6898E7064B1A687EE7300100109C
:1016800000ED00E0080000200090D00300C0004002
:1016900034010010781700008C5600404881030088
:1016A0007817000000F0004078170000E40E0040BA
:1016B0005802001078170000409602408017000082
:1016C00000E001400400FA0508B5074B044613B1D9
:1016D0000021AFF30080054B1868836A03B1984777
:1016E000204600F031F800BF00000000881700001D
:1016F00070B50D4E0D4CA41BA4100025A54209D1B8
:101700000B4E0C4C00F022F8A41BA4100025A5429F
:1017100005D170BD56F8253098470135EEE756F8EB
:10172000253098470135F2E76C0000206C0000205E
:101730006C0000207000002002440346934200D158
:10174000704703F8011BF9E7FEE700BFF8B500BFDB
:10175000F8BC08BC9E467047F8B500BFF8BC08BC92
:101760009E4670470608290C00000000000000009B
:101770000338FDD8704700000100000000000000A1
:1017800000000000010100000C000020000000002B
:08179000DCFAFF7F01000000FC
:101798000090D003000000000000000000000000DE
:1017A8000000000000000000000000000000000031
:1017B8000000000000000000000000000000000021
:1017C8000000000000000000000000000000000011
:1017D8000000000000000000000000000000000001
:1017E80000000000000000000000000000000000F1
:1017F8000000000025120000011200000000000097
:04000003000012E106
:00000001FF
