:020000040800F2
:100000000050002059750008A1750008A17500086E
:10001000A1750008A1750008A17500080000000086
:10002000000000000000000000000000A1750008B2
:10003000A175000800000000A1750008B364000865
:10004000A1750008A1750008A1750008A175000838
:10005000A1750008A1750008097400080F74000854
:10006000157400081B74000821740008A1750008AD
:10007000A1750008A1750008A1750008A175000808
:10008000A1750008A1750008A1750008A1750008F8
:10009000A1750008A1750008A17500082774000863
:1000A000A1750008997A0008A1750008AD7A0008CA
:1000B000B17A0008C57A0008D97A0008951E0008B0
:1000C000A11E0008AD1E0008B91E0008A175000899
:1000D000A175000849710008617100087971000874
:1000E0003D740008A56D0008A1750008000000001F
:1000F0000000000000000000000000000000000000
:0C01000000000000000000005FF808F1A3
:10010C0010F8012B11F8013B012A28BF9A42F7D0B5
:10011C00D01A7047034613F8012B002AFBD1181A8A
:10012C000138704781F0004102E000BF83F00043CA
:10013C0030B54FEA41044FEA430594EA050F08BF76
:10014C0090EA020F1FBF54EA000C55EA020C7FEA3A
:10015C00645C7FEA655C00F0E2804FEA5454D4EBB7
:10016C005555B8BF6D420CDD2C4480EA020281EA81
:10017C00030382EA000083EA010180EA020281EAB9
:10018C000303362D88BF30BD11F0004F4FEA01310B
:10019C004FF4801C4CEA113102D0404261EB41011A
:1001AC0013F0004F4FEA03334CEA133302D05242A0
:1001BC0063EB430394EA050F00F0A780A4F101045C
:1001CC00D5F1200E0DDB02FA0EFC22FA05F2801896
:1001DC0041F1000103FA0EF2801843FA05F359417C
:1001EC000EE0A5F120050EF1200E012A03FA0EFCFB
:1001FC0028BF4CF0020C43FA05F3C01851EBE37125
:10020C0001F0004507D54FF0000EDCF1000C7EEB41
:10021C0000006EEB0101B1F5801F1BD3B1F5001F7F
:10022C000CD349085FEA30004FEA3C0C04F101049E
:10023C004FEA445212F5800F80F09A80BCF1004FC7
:10024C0008BF5FEA500C50F1000041EB045141EA49
:10025C00050130BD5FEA4C0C404141EB0101013C12
:10026C0028BFB1F5801FE9D291F0000F04BF014601
:10027C000020B1FA81F308BF2033A3F10B03B3F1D3
:10028C0020020CDA0C3208DD02F1140CC2F10C0263
:10029C0001FA0CF021FA02F10CE002F11402D8BFC1
:1002AC00C2F1200C01FA02F120FA0CFCDCBF41EA8D
:1002BC000C019040E41AA2BF01EB0451294330BD5C
:1002CC006FEA04041F3C1CDA0C340EDC04F1140439
:1002DC00C4F1200220FA04F001FA02F340EA030010
:1002EC0021FA04F345EA030130BDC4F10C04C4F156
:1002FC00200220FA02F001FA04F340EA0300294636
:10030C0030BD21FA04F0294630BD94F0000F83F47F
:10031C00801306BF81F480110134013D4EE77FEA62
:10032C00645C18BF7FEA655C29D094EA050F08BFAE
:10033C0090EA020F05D054EA000C04BF194610468F
:10034C0030BD91EA030F1EBF0021002030BD5FEAD3
:10035C00545C05D14000494128BF41F0004130BDFB
:10036C0014F580043CBF01F5801130BD01F000454F
:10037C0045F0FE4141F470014FF0000030BD7FEAC2
:10038C00645C1ABF194610467FEA655C1CBF0B46BD
:10039C00024650EA013406BF52EA033591EA030FD4
:1003AC0041F4002130BD00BF90F0000F04BF0021CC
:1003BC00704730B54FF4806404F132044FF00005FF
:1003CC004FF0000150E700BF90F0000F04BF002178
:1003DC00704730B54FF4806404F1320410F00045DE
:1003EC0048BF40424FF000013EE700BF42004FEAD9
:1003FC00E2014FEA31014FEA02701FBF12F07F4356
:10040C0093F07F4F81F06051704732F07F4208BF0C
:10041C00704793F07F4F04BF41F40021704730B513
:10042C004FF4607401F0004521F000411CE700BF5F
:10043C0050EA010208BF704730B54FF000050AE0E2
:10044C0050EA010208BF704730B511F0004502D5E3
:10045C00404261EB41014FF4806404F132045FEAE5
:10046C00915C3FF4D8AE4FF003025FEADC0C18BF8E
:10047C0003325FEADC0C18BF033202EBDC02C2F180
:10048C00200300FA03FC20FA02F001FA03FE40EA12
:10049C000E0021FA02F11444BDE600BF4FF0FF3C00
:1004AC0006E000BF4FF0010C02E000BF4FF0010C62
:1004BC004DF804CD4FEA410C7FEA6C5C4FEA430CDB
:1004CC0018BF7FEA6C5C1BD001B050EA410C0CBF2A
:1004DC0052EA430C91EA030F02BF90EA020F00208C
:1004EC00704710F1000F91EA030F58BF994208BFF3
:1004FC0090422CBFD8176FEAE37040F001007047B0
:10050C004FEA410C7FEA6C5C02D150EA013C07D106
:10051C004FEA430C7FEA6C5CD6D152EA033CD3D051
:10052C005DF8040B704700BF8446104662468C464B
:10053C001946634600E000BF01B5FFF7B7FF00287E
:10054C0048BF10F1000F01BD4DF808EDFFF7F4FFA7
:10055C000CBF012000205DF808FB00BF4DF808ED32
:10056C00FFF7EAFF34BF012000205DF808FB00BF55
:10057C004DF808EDFFF7E0FF94BF012000205DF877
:10058C0008FB00BF4DF808EDFFF7CEFF94BF01202C
:10059C0000205DF808FB00BF4DF808EDFFF7C4FF25
:1005AC0034BF012000205DF808FB00BF80F0004044
:1005BC0002E000BF81F0004142001FBF5FEA41032F
:1005CC0092EA030F7FEA226C7FEA236C6AD04FEA2F
:1005DC001262D2EB1363C1BFD21841404840414074
:1005EC00B8BF5B42192B88BF704710F0004F40F426
:1005FC00000020F07F4018BF404211F0004F41F442
:10060C00000121F07F4118BF494292EA030F3FD00D
:10061C00A2F1010241FA03FC10EB0C00C3F1200320
:10062C0001FA03F100F0004302D5494260EB4000AF
:10063C00B0F5000F13D3B0F1807F06D340084FEA1A
:10064C00310102F10102FE2A51D2B1F1004F40EB0F
:10065C00C25008BF20F0010040EA03007047490077
:10066C0040EB0000013A28BFB0F5000FEDD2B0FA14
:10067C0080FCACF1080CB2EB0C0200FA0CF0AABF37
:10068C0000EBC25052421843BCBFD04018437047D5
:10069C0092F0000F81F4000106BF80F400000132DB
:1006AC00013BB5E74FEA41037FEA226C18BF7FEAB2
:1006BC00236C21D092EA030F04D092F0000F08BFF4
:1006CC000846704790EA010F1CBF0020704712F0DB
:1006DC007F4F04D1400028BF40F00040704712F11A
:1006EC0000723CBF00F50000704700F0004343F07F
:1006FC00FE4040F4000070477FEA226216BF0846B5
:10070C007FEA23630146420206BF5FEA412390EA77
:10071C00010F40F4800070474FF0000304E000BF6D
:10072C0010F0004348BF40425FEA000C08BF70471E
:10073C0043F0964301464FF000001CE050EA0102E2
:10074C0008BF70474FF000030AE000BF50EA0102F7
:10075C0008BF704711F0004302D5404261EB4101E4
:10076C005FEA010C02BF84460146002043F0B64309
:10077C0008BFA3F18053A3F50003BCFA8CF2083A2E
:10078C00A3EBC25310DB01FA02FC634400FA02FC37
:10079C00C2F12002BCF1004F20FA02F243EB02003E
:1007AC0008BF20F00100704702F1200201FA02FCA0
:1007BC00C2F1200250EA4C0021FA02F243EB020093
:1007CC0008BF20EADC7070474FF0FF0C1CEAD052D7
:1007DC001EBF1CEAD15392EA0C0F93EA0C0F6FD098
:1007EC001A4480EA010C400218BF5FEA41211ED076
:1007FC004FF0006343EA501043EA5111A0FB013162
:10080C000CF00040B1F5000F3EBF490041EAD37136
:10081C005B0040EA010062F17F02FD2A1DD8B3F1B2
:10082C00004F40EBC25008BF20F00100704790F021
:10083C00000F0CF0004C08BF49024CEA502040EA73
:10084C0051207F3AC2BFD2F1FF0340EAC250704739
:10085C0040F400004FF00003013A5DDC12F1190F77
:10086C00DCBF00F000407047C2F10002410021FAE9
:10087C0002F1C2F1200200FA02FC5FEA310040F101
:10088C00000053EA4C0308BF20EADC70704792F07A
:10089C00000F00F0004C02BF400010F4000F013AB2
:1008AC00F9D040EA0C0093F0000F01F0004C02BFAD
:1008BC00490011F4000F013BF9D041EA0C018FE71C
:1008CC000CEAD15392EA0C0F18BF93EA0C0F0AD022
:1008DC0030F0004C18BF31F0004CD8D180EA010048
:1008EC0000F00040704790F0000F17BF90F0004FE1
:1008FC00084691F0000F91F0004F14D092EA0C0FC3
:10090C0001D142020FD193EA0C0F03D14B0218BF55
:10091C00084608D180EA010000F0004040F0FE409B
:10092C0040F40000704740F0FE4040F44000704737
:10093C004FF0FF0C1CEAD0521EBF1CEAD15392EAB6
:10094C000C0F93EA0C0F69D0A2EB030280EA010CA6
:10095C0049024FEA402037D04FF0805343EA11113F
:10096C0043EA10130CF000408B4238BF5B0042F19D
:10097C007D024FF4000C8B4224BF5B1A40EA0C0042
:10098C00B3EB510F24BFA3EB510340EA5C00B3EB74
:10099C00910F24BFA3EB910340EA9C00B3EBD10F62
:1009AC0024BFA3EBD10340EADC001B0118BF5FEAB4
:1009BC001C1CE0D1FD2A3FF650AF8B4240EBC250DD
:1009CC0008BF20F0010070470CF0004C4CEA50209E
:1009DC007F32C2BFD2F1FF0340EAC250704740F4ED
:1009EC0000004FF00003013A37E792F0000F00F0DF
:1009FC00004C02BF400010F4000F013AF9D040EA5D
:100A0C000C0093F0000F01F0004C02BF490011F4F0
:100A1C00000F013BF9D041EA0C0195E70CEAD153E8
:100A2C0092EA0C0F08D142027FF47DAF93EA0C0FCF
:100A3C007FF470AF084676E793EA0C0F04D14B02B3
:100A4C003FF44CAF08466EE730F0004C18BF31F065
:100A5C00004CCAD130F000427FF45CAF31F000435F
:100A6C007FF43CAF5FE700BF4FF0FF3C06E000BFF8
:100A7C004FF0010C02E000BF4FF0010C4DF804CD1B
:100A8C004FEA40024FEA41037FEA226C18BF7FEA2B
:100A9C00236C11D001B052EA530C18BF90EA010F2D
:100AAC0058BFB2EB030088BFC81738BF6FEAE170BC
:100ABC0018BF40F0010070477FEA226C02D15FEA58
:100ACC00402C05D17FEA236CE4D15FEA412CE1D0C4
:100ADC005DF8040B704700BF844608466146FFE78B
:100AEC000FB5FFF7C9FF002848BF10F1000F0FBD6D
:100AFC004DF808EDFFF7F4FF0CBF012000205DF866
:100B0C0008FB00BF4DF808EDFFF7EAFF34BF0120EA
:100B1C0000205DF808FB00BF4DF808EDFFF7E0FF83
:100B2C0094BF012000205DF808FB00BF4DF808EDD4
:100B3C00FFF7D2FF94BF012000205DF808FB00BF37
:100B4C004DF808EDFFF7C8FF34BF012000205DF819
:100B5C0008FB00BF42000ED2B2F1FE4F0BD34FF098
:100B6C009E03B3EB126209D44FEA002343F0004317
:100B7C0023FA02F070474FF00000704712F1610F3A
:100B8C0001D1420202D14FF0FF3070474FF000000C
:100B9C00704700BF7BB972B90029BEBF00204FF06F
:100BAC00004106E008BF00281CBF6FF000414FF069
:100BBC00FF3000F057B8ADF1080C6DE904CE0029F8
:100BCC0009DB002B1ADB08F0B3FDDDF804E0DDE9EE
:100BDC00022304B07047404261EB4101002B1BDB48
:100BEC0008F0A6FDDDF804E0DDE9022304B0404284
:100BFC0061EB4101524263EB43037047524263EB9A
:100C0C00430308F095FDDDF804E0DDE9022304B0B0
:100C1C00404261EB41017047524263EB430308F0E1
:100C2C0087FDDDF804E0DDE9022304B0524263EBFA
:100C3C004303704753B94AB9002908BF00281CBFA9
:100C4C004FF0FF314FF0FF3000F00CB8ADF1080C55
:100C5C006DE904CE08F06CFDDDF804E0DDE902235B
:100C6C0004B07047704700BF10B5054C237833B9FA
:100C7C00044B13B10448AFF300800123237010BD63
:100C8C004401002000000000009A000808B5034B46
:100C9C001BB103490348AFF3008008BD00000000FE
:100CAC0048010020009A0008BFF34F8F0549064BFE
:100CBC00CA6802F4E0621343CB60BFF34F8F00BFEE
:100CCC00FDE700BF00ED00E00400FA050346B0F9B3
:100CDC000A0008B103EB0010704738B50025044634
:100CEC00436A011D03441D71006807F049F86562F1
:100CFC0038BDF8B5044616460D468F18BD420DD0CA
:100D0C00636A15F8011B5A1C6262E21802331F2B2E
:100D1C001171F3D92046FFF7E0FFEFE73046F8BD3D
:100D2C0038B50546064C0021204601F088FF2946BF
:100D3C00204606F0F6FE2046BDE8384001F0E4BE41
:100D4C00380300201FB50446144906F086FF0A221A
:100D5C00134901A806F0EBFF01A9204606F0CEFFCF
:100D6C0001A806F035FF0A220E4901A806F0DFFFA4
:100D7C0001A9204606F0C2FF01A806F029FF0A22AD
:100D8C00094901A806F0D3FF01A9204606F0B6FFD9
:100D9C0001A806F01DFF204604B010BD5E9A0008A5
:100DAC005000F81F5400F81F6480FF011FB5084C59
:100DBC0023785BB901A8FFF7C5FF01A9054806F028
:100DCC0095FF01A806F004FF0123237004B010BDA9
:100DDC006C0100206001002038B501210C2006F0C8
:100DEC0053FC1B4D642006F09DFC00211F2006F0D7
:100DFC004BFC2B681748184CB3FBF0F3616803EB02
:100E0C0043036268521A9342FBDC01211F2006F057
:100E1C003BFC2A680F4B6168B2FBF3F314225A4374
:100E2C000D4843685B1A9A42FBDC00211F2006F038
:100E3C002BFC00210C2006F027FC0A2446F29052D1
:100E4C0001211E2006F0C8FF013CF7D1002038BD5F
:100E5C006800002040420F00001000E008B501219E
:100E6C000D2006F0C3FB01211F2006F0BFFB002163
:100E7C001E2006F0BBFB00211C2006F0B7FB012155
:100E8C000C2006F0B3FB0B490B4801F0F1FE20B926
:100E9C000A490B4806F052FEFEE77621094A0A4839
:100EAC0001F07DFDFFF782FFBDE80840074801F027
:100EBC004DBF00BF400ECF1938030020249A000804
:100ECC0024050020D4010020700100209003002094
:100EDC00034630B5D2E901041030844212D3A4F198
:100EEC00100090605A685AB1851A2D1155815860BE
:100EFC00002344F8041C24F8063C04F8083C30BDDC
:100F0C001860F4E70020FAE72DE9F0411646044694
:100F1C00002838D00F6897B3D2E900359D420FD91D
:100F2C001A4607F1FF3E92F800801EF801CF1046DA
:100F3C00C44502F101021CD1BCF1000FF3D17BB905
:100F4C008F68B2687B1C2B44934218D87360B5B180
:100F5C003A462846096807F0D1F80023EB552B4692
:100F6C00227A012022F07F0242F0050222722360D5
:100F7C000AE010F8013B002BFBD10346CEE7237AA5
:100F8C0023F07F0323720020BDE8F081F8B5037ACB
:100F9C00174613F07F0202BF23F07F0343F02003B8
:100FAC000372047A054608BFC0E9002214F0200041
:100FBC000E4611D0084679B12C6874B1E168B14283
:100FCC0009D019B13046FFF79BF820B12046FFF746
:100FDC007DFE0446F1E72046F8BD3A4631462846E8
:100FEC00FFF776FFF8E738B5044608460D46FFF7DD
:100FFC0091F8294602462046FFF77BFEA36A03447C
:10100C00A36238BD436A10B55A1C4262C21802333F
:10101C001F2B0446117101D9FFF75FFEA36A013340
:10102C00A36210BD70B50D4622210446FFF7EAFFFE
:10103C00013D15F8011F79B10A4B9E7846B1DA785B
:10104C0002338A42F9D15C212046FFF7DBFF31469F
:10105C002046FFF7D7FFECE722212046FFF7D2FF0F
:10106C0070BD00BF4E9A0008000000002DE9F0474B
:10107C0006230D468372074652492846FFF756FD54
:10108C000446002840D0052600244FF02008DFF845
:10109C003891DFF838A1294659F82600FFF73CFDB6
:1010AC0038B128465AF82610FFF78EFB0546444403
:1010BC0024B2013E4FEA6808EDD200212846FFF722
:1010CC003FFD28B32846FFF791F93CA3D3E9002351
:1010DC00FFF74EFAE0B1DFF8F890DFF8ECA033063A
:1010EC0016D4294659F82600FFF72AFD40B12846A8
:1010FC005AF82610FFF768FB0546A4EB080424B247
:10110C004FEA6808013EEAE74FF020080526D4E7CD
:10111C0028463C81FFF71EFD0A2106460346DFF8F0
:10112C00B4803860092B07D9BA7AB8FBF1F8013AC8
:10113C00B3FBF1F3BA72F5E73046FFF7EDFA01466F
:10114C002846FFF737FA05464046FFF7E5FA014611
:10115C002846FFF739FB8146FFF7FCFC0546FFF7F5
:10116C00DBFA01464846FFF725FA0146FFF724FA59
:10117C00FFF7F0FC284440450FD278600A217B68C9
:10118C00B3FBF1F201FB1233A3B997F90A30002B30
:10119C0010DD013B7A60BB72F1E7002301367B6006
:1011AC003E60002CEAD0092E81BF012301343C8122
:1011BC003B60E3E73846BDE8F08700BFF168E388A1
:1011CC00B5F8E43E8096184B300000201800002043
:1011DC000000002040420F0010B50446521AFFF7E1
:1011EC0088FDA36A0344A36210BD70B586B00B469C
:1011FC000DF116010A460A26B3FBF6F506FB15346B
:10120C00303401F8014D1C46092C2B46F4D8FFF75D
:10121C00E3FF06B070BD000070B505468AB0084605
:10122C000C46FFF765FC28B928463F49FFF7DBFE63
:10123C000AB070BD00212046FFF75AFC48B9214680
:10124C002046FFF7B9F901462046FFF751FC00286C
:10125C00EAD100212046FFF755FC28B12D21284664
:10126C00FFF7D0FE04F10044214601A8FFF7FEFE73
:10127C0001992846FFF7B9FF9DF90E10E1B10A4616
:10128C000A26029B0DF11F04013A52B2501C08D0E1
:10129C00B3FBF6F006FB1033303304F80139034688
:1012AC00F2E7C9B208AA2E20531AC94303F8010C5D
:1012BC0011442846FFF790FFBDF90C30002B17DACC
:1012CC001A492846FFF78FFE0DF126010A460A241B
:1012DC00BDF90C305B4293FBF4F004FB103330335C
:1012EC0001F8013D03460028F5D12846FFF774FFAD
:1012FC00BDF90C30002B9BDD65212846FFF782FEE3
:10130C000DF126010A460A24BDF90C3093FBF4F0CA
:10131C0004FB1033303301F8013D03B20028F5D142
:10132C002846FFF759FF83E75F9A0008649A000884
:10133C0038B5027A054602F07F030C2B0C460DD80B
:10134C0012F07E0F0ED0023B0A2B0BD8DFE803F015
:10135C004D4D4848620A600A560A0C00202B21D0D9
:10136C00402B06D0304958E001682046FFF754FF67
:10137C0038BD5B212046FFF745FE2D686DB1284630
:10138C002146FFF7D5FF2846FFF7A0FC054620B104
:10139C002C212046FFF736FEF0E75D212046FFF7B3
:1013AC0031FEE5E77B212046FFF72CFE2D68ADB121
:1013BC00E9682046FFF736FE3A212046FFF722FE69
:1013CC0028462146FFF7B4FF2846FFF77FFC054669
:1013DC0020B12C212046FFF715FEE8E77D21DDE743
:1013EC0001682046FFF71EFEC2E7D0E90012204636
:1013FC00FFF77FFCA36A0344A362B9E705682D21BC
:10140C002046FFF7FFFD29462046FFF7EEFEAFE72B
:10141C000168F9E7036823B104492046FFF7E3FDAF
:10142C00A6E70349F9E700BF5F9A0008679A00082E
:10143C006C9A0008F0B5F1B03EABCDE9373370AB28
:10144C00CDE939339DF8F430044623F07F038DF851
:10145C00F430484B1B7843B1474937AA3BA8FFF7F8
:10146C0095FD464937AAFFF74FFD454937AA3BA8DA
:10147C00FFF78CFD30B1037A046023F07F0343F057
:10148C000C0303721C2006F09BF83E49044637AA55
:10149C003BA8FFF77BFD30B1037A046023F07F0398
:1014AC0043F008030372384801F07EFA37490446CA
:1014BC0037AA3BA8FFF76AFD30B1037A046023F02A
:1014CC007F0343F00C03037201AF3846304906F03A
:1014DC00C4FB4FF0000C0497CDF834C00EAC04AD37
:1014EC000FCD0FC40FCD0FC495E8030084E80300A3
:1014FC0018AD0EAE0FCE0FC50FCE0FC594E803007E
:10150C0085E8030022AC18AE0FCE0FC40FCE0FC46B
:10151C0095E8030084E803002CAD22AE0FCE0FC576
:10152C000FCE0FC594E8030085E8030022A8CDF880
:10153C00D8C0FFF7D2FB18A8FFF7CFFB2CA93BA80C
:10154C00FFF7F6FE2CA8FFF7C8FB0EA8FFF7C5FBAC
:10155C0004A8FFF7C2FB39462CA806F0BDFB2CA84B
:10156C00FFF7DEFB2CA806F033FB384606F030FB09
:10157C0071B0F0BD6C010020729A0008600100206F
:10158C00759A00087E9A000870010020849A000861
:10159C005E9A000808B501210D2006F075F84FF48D
:1015AC00FA7006F0BFF8FFF717FCFFF743FF0021B6
:1015BC000D2006F069F8642006F0B4F84FF4FA61D7
:1015CC00024801F0F6FBFFF76FFB00BF9003002011
:1015DC0010B5074C0748214606F03FFB064800F0C3
:1015EC00E8FE2146BDE81040044806F036BB00BFBB
:1015FC005E9A00086001002070010020C8010020E4
:10160C0008B5054806F0E4FA044800F0DBFEBDE836
:10161C000840034806F0DCBAC80100207001002025
:10162C0060010020024B1878024B1B78C01A7047DF
:10163C007B02002079020020074A084913780978B8
:10164C00994281BF06490968C85C01338CBF13708D
:10165C004FF0FF30704700BF790200207B02002062
:10166C008C020020054B064A1B7812789A4283BFE5
:10167C00044A1268D05C4FF0FF30704779020020AA
:10168C007B0200208C020020044B1B682BB1002233
:10169C0003490A7003490A701847704784020020F6
:1016AC007A0200207C020020202838BF202038B588
:1016BC00084D04460146286807F05CF818B1064B43
:1016CC0028601C7038BD2146BDE83840034805F041
:1016DC0069BB00BF9002002089020020899A000893
:1016EC0037B5164B04461B788DF80710DBB1144D3B
:1016FC00144A287812780130904201D9FFF7D4FFB0
:10170C00114B186818B90123636003B030BD0F4A40
:10171C009DF807101378C154137801200133DBB204
:10172C0013702B70F1E701220DF10701143000F05A
:10173C009DFAB0FA80F04009E7E700BF780200207C
:10174C007C02002089020020900200207A020020F6
:10175C00044B186820B1044B00211A7806F0DCBC4D
:10176C00704700BF8C02002088020020044B1868D0
:10177C0020B1044B00211A7806F0CEBC704700BF94
:10178C00900200208902002010B50024064B1C702A
:10179C00064B1C70FFF7DCFF054B1C70054B1C70D7
:1017AC00BDE81040FFF7E2BF790200207B02002069
:1017BC007A0200207C020020F8B5164B05461B78F7
:1017CC000F461446EBB1144E144B30781B78104472
:1017DC00984201D9FFF768FF114B1B6823B901220E
:1017EC001C466A602046F8BD0E4D224628783946C4
:1017FC00184406F083FC2B782344DBB22B70337037
:10180C00F0E792B2143000F031FA002818BF00242F
:10181C00E8E700BF780200207C020020890200204B
:10182C00900200207A02002000214FF47A72C0E965
:10183C000112054A0260054A9188A0F86C10D28802
:10184C00A0F86E20704700BF149B000800A1000890
:10185C00F8B500260D4604461746174B1E70174B5D
:10186C001E70FFF775FF164B1E70164B1E70FFF7A0
:10187C007DFF154BA5F133021E706B00554255418F
:10188C00DBB284F8A25004F1140523744FF48042A7
:10189C0028460E4984F8A37000F026F994F8A2307B
:1018AC004BB928460A4900F093FA2846BDE8F8409F
:1018BC00084900F086BAF8BD790200207B020020AE
:1018CC007A0200207C02002078020020A086010011
:1018DC0095160008B91900080A463321FFF7B8BF5E
:1018EC000122054B91401A70044B054A19700023D4
:1018FC001370044A13707047780200209402002081
:10190C007A0200207C02002038B5E9B94FF42A0392
:10191C00436490F8A230012B19D10E4D0E4A0F4999
:10192C002B7812680978143000F00BFA042828BFC1
:10193C00042044B2FFF71AFF0023094A2B701370DE
:10194C00084A1370E0B238BD4FF02A43E0E7042494
:10195C00F8E700BF7C0200209002002094020020D7
:10196C007A020020780200200121FFF7CDBF000091
:10197C0070B50B4D04462B7883420AD2202838BF11
:10198C002024084E2146306806F0F4FE10B1306079
:10199C002C7070BD2146BDE87040034805F002BABA
:1019AC00880200208C020020899A00082DE9F0475B
:1019BC00134D80462B680C46FBB1124A124F10781F
:1019CC0039789146884218D3104E2046FFF7D0FF45
:1019DC00326822B94FF4D1710D4805F0E3F9224673
:1019EC004146306806F08AFB002389F80030204617
:1019FC002B683C70BDE8F0471847BDE8F08700BF86
:101A0C0080020020790200207B0200208C02002042
:101A1C00A19A00082DE9F84F90F8A2B00446BBF14A
:101A2C00010F0F46154699469DF828609DF82CA08D
:101A3C0008D11046FFF79CFF1F4A136890461BB94C
:101A4C00C4F804B0002530E0BEB139462046FFF79B
:101A5C0047FF032E28BF0326013EF6B2FF2E08D007
:101A6C002368F10029FA01F120461B68C9B2984796
:101A7C00F2E700212046FFF747FFBAF1000F17D11C
:101A8C004FF42A037900D8F80020636401F0FE01BA
:101A9C00ABB204F1140000F0FDF80022002818BFCE
:101AAC000025064B1A70064B1D702846BDE8F88FB2
:101ABC004FF02A43E6E700BF8C0200207902002099
:101ACC007B02002007B5019300230093FFF7A2FFD0
:101ADC0003B05DF804FB0123FFF7F4BF0148FFF7E7
:101AEC00A3BE00BFD40100202DE9F3410D461646DC
:101AFC001F460446002800F086805349B0F9580070
:101B0C0004F0BEFF51498046B4F95A0004F0B8FF06
:101B1C000146B8F1000F76D0002874D0404604F08E
:101B2C00D8FF206000286ED0494B04F1040898427D
:101B3C006CD103F5DE33DA6942F40012DA61DA694A
:101B4C0002F400120092009A1A6942F400121A610F
:101B5C001A6922F400121A6142F21F03A4F85C30D5
:101B6C003C4BC3F800803949B4F95A0004F068FFC3
:101B7C00B4F95800344904F063FF374823688542B0
:101B8C00636006D93548854203D93548854288BFFC
:101B9C0000203149FF238D428CBF4FF48045002536
:101BAC00C4E903570025E36194F88F302A46AB4211
:101BBC000CBF2B4640230221C4E90835A0606661A6
:101BCC0094F95C00A56184F8415001F02BFF94F965
:101BDC005C0001F059FF2A46022194F95D0001F0E6
:101BEC0021FF94F95D0001F04FFF404602F024F80C
:101BFC0020B140F2D5211B4805F0D4F80023236610
:101C0C00022384F88D3002B0BDE8F081164B984267
:101C1C00A9D103F5DC33DA6942F48002DA61DA69BE
:101C2C0002F480020192019A1A6942F480021A614C
:101C3C001A6922F480021A6142F22123A4F85C3062
:101C4C00044BC3F804808EE7609E0008309E0008A9
:101C5C000054004098020020A0860100801A060063
:101C6C0040420F00349B000800580040202A30B539
:101C7C000ED800239CB2A24204D8D2B280F88C2099
:101C8C00002030BDCD5CC41884F86C500133F1E7F2
:101C9C000120F6E72DE9F34105460C469846174618
:101CAC0001F05AFB2B6B0435214600930646434644
:101CBC003A46284602F072F9044650B1002002B0B0
:101CCC00BDE8F08101F048FB841B284603F023F8A3
:101CDC0030B9284603F01CF8202801D0632CF1D928
:101CEC00284603F018F8642C07D8820605D443075D
:101CFC0005D40028E2D00420E1E70520DFE703202B
:101D0C00DDE710B564230446043002F035F80228F0
:101D1C000AD0032801D068B910BD94F84130202BAB
:101D2C000CBF02200520F7E794F84130202B18BF98
:101D3C000620F1E794F84130202B0CBF0220042040
:101D4C00EAE72DE9F34105460C4690461F4601F0A3
:101D5C0003FB06463FB901222146284602B0BDE8E6
:101D6C00F041FFF7CEBF2B6B043521460093424662
:101D7C003B46284602F0AAF8044650B1002002B0B7
:101D8C00BDE8F08101F0E8FA841B284602F0C3FF9D
:101D9C0030B9284602F0BCFF202801D0632CF1D9C1
:101DAC00284602F0B8FF642C07D8820605D44307F6
:101DBC0005D40028E2D00420E1E70520DFE703206A
:101DCC00DDE720B119B14166043002F0E3B9704788
:101DDC0020B119B18166043002F0DCB97047C368D8
:101DEC0010B59A4204461CD171B9436E80F8891023
:101DFC0003B19847204694F8882004F16801202309
:101E0C00BDE8104002F050B900230122C36580F8F0
:101E1C008920C16D0423BDE810400144683102F0F3
:101E2C007EB910BD10B590F889300446012B05D150
:101E3C00C36D1BB1C16D036E68309847022384F8E3
:101E4C00893000232046E365BDE8104002F0A2B9BA
:101E5C00C36D1F2BDEBFC36D0133C36590F8893092
:101E6C00012BDAB205D1C16D04230144683102F0B3
:101E7C0056B97047002380F88830704790F88A3044
:101E8C000BB902F087B97047014B186802F080BAA1
:101E9C0098020020014B186802F09EBE98020020A8
:101EAC00014B586802F074BA98020020014B586834
:101EBC0002F092BE98020020232970B504461BD86C
:101ECC0000230C2505FB03F6A65FD8B2B1420DD05A
:101EDC000133042BF6D1012A0CD100230C2505FB70
:101EEC0003F2A65ED8B2013601D1A15270BD013306
:101EFC00042BF4D11846F9E70420F7E770B5034634
:101F0C004FF6FF72012500240B4E00F130011A80B0
:101F1C005E601D725C720C338B42F8D1074B0286EB
:101F2C00998EA0F89010D98EA0F892105B8EA0F824
:101F3C009620A0F8943070BD00093D0000A1000867
:101F4C00232970B505460E4621D80122FFF7B4FFB0
:101F5C00032804461BD8232E0BD0B5F99630013339
:101F6C0007D10121304605F041FB0121304605F037
:101F7C008BFB0C20002300FB045485F88530627A1F
:101F8C00237A616805F1340000F0D0F82E8670BD1C
:101F9C0082B0F8B5232906AC05460E4684E80C0041
:101FAC0026D80122FFF788FF0328044620D80C27E7
:101FBC0007FB0057079B232E7B60BDF820303B812D
:101FCC000BD0B5F99630013307D10121304605F01D
:101FDC000DFB0121304605F057FB0C2000FB04548F
:101FEC007968237A627A05F1340000F09FF82E8626
:101FFC00BDE8F84002B070472329F0B519D8034664
:10200C004FF6FF74012600270A4D00F13002B3F998
:10201C0000C00C338C4501BF23F80C4C43F8085C12
:10202C0003F8046C03F8037C9342F0D14FF6FF7372
:10203C000386F0BD00093D0070B586B08DF80F2009
:10204C000022232905460C461E468DF8172039D848
:10205C00B0F93030994212D0FFF72EFF032803D984
:10206C009DF8170006B070BD0C2303FB0050037ADB
:10207C00427A416805F1340000F058F82C86232C84
:10208C0007D0B5F99630013303D10021204605F075
:10209C00FBFA4FF47A730DF1170200930DF10F0157
:1020AC00012305F1340000F069F9232CD8D0012E5E
:1020BC00D6D1B5F996300133D2D13146204605F050
:1020CC00E3FACDE71046CDE70148FFF717BF00BF95
:1020DC00A002002070B50D0E445991FAA1F3B3FA89
:1020EC0083F30F269B0006FA03F324EA030491FA08
:1020FC00A1F1B1FA81F1890002FA01F121434151B8
:10210C0070BD00000346074A106853B1064A93425B
:10211C0005D002F57842934203D103F0ADB803F039
:10212C009BB8704768000020003800402DE9F74F3D
:10213C000D46174698460446002800F0D080864984
:10214C00B0F95E0004F09CFC84498146B4F95C0053
:10215C0004F096FC82498246B4F9600004F090FCCD
:10216C0080490646B4F9620004F08AFC8346B9F152
:10217C00000F00F0B480BAF1000F00F0B080002E18
:10218C0000F0AD805146484604F0A3FC5946824607
:10219C00304604F09EFC01468146504604F099FC02
:1021AC00A065BAF1000F00F09A80B9F1000F00F0B1
:1021BC009680002800F09380B4F9623020605A1C9D
:1021CC0014BF4FF480234FF40073A3614FF4827358
:1021DC006360FFF797FFB5EB500FC0F083800023CF
:1021EC00002617F0FD0FE3610CBF33460123022FCD
:1021FC00636134BF3346022323610723B045E36296
:10220C0014BF33468023B4F95E00C4E90836A660D7
:10221C00A662E660504904F013FCB4F95C004F4927
:10222C0004F00EFCB4F960004D4904F009FC23697C
:10223C00B342B4F9603008BF0225C3F3031218BFD0
:10224C000125042A8CBF3046474903F00F0398BF81
:10225C0051F82200454A52F823100B0EC65891FA39
:10226C00A1F2B2FA82F39A000F239340334091FA11
:10227C00A1F2B2FA82F2022D4FEA820223FA02F3A1
:10228C004FEA11254DD0042B02D10822FFF722FF73
:10229C00C26822EA050295FAA5F50123B5FA85F57F
:1022AC0003FA05F51543C5602E49B4F9620004F034
:1022BC00C7FB23682E4A93423FD12E4B9A6942F4B6
:1022CC0080529A619B6903F480530093009B2046D3
:1022DC0003F0E6FC2268136843F04003136003B07C
:1022EC00BDE8F08FB5EB900F01D3082378E7B5EB81
:1022FC00D00F01D3102373E7B5EB101F01D31823B4
:10230C006EE7B5EB501F01D3202369E7B5EB901FA7
:10231C0001D3282364E7B5EBD01F2CBF302338231F
:10232C005EE7042B02D10822FFF7D4FEC36823EA30
:10233C00050395FAA5F5C360B6E70F4A9342C6D1DB
:10234C000C4BDA6942F48042DA61DB6903F48043B6
:10235C000193019BBBE700BFF89F0008C89F0008D2
:10236C0028A0000858A0000854000020C89C0008B1
:10237C0000300140001002400038004013B538B165
:10238C0033B1049C009403F0C6FC032803D000B1C5
:10239C00022002B010BD0120FBE7416002720BB9B4
:1023AC00437205E0012BFBD0022BF9D0032BF7D0A5
:1023BC00704700224FF0FF31C0E90222C0E9081239
:1023CC000261704710B50446806810B103685B6801
:1023DC009847E06810B103685B689847206910B1B2
:1023EC0003685B689847204610BD2DE9F04190F9D1
:1023FC002330044601330F4607D1BDE8F0410A46AD
:10240C00012323214068FFF717BE072600254FF054
:10241C000108002194F9230005F036F908FA06F1B9
:10242C0094F92100394005F02FF994F9230001218A
:10243C0005F02AF96D0094F92200EDB205F048F987
:10244C0008B145F00105013EE3D22846BDE8F08114
:10245C002DE9F04190F92030044601330E46154623
:10246C0088B013D1017D0068FFF73AFA2068314635
:10247C0003681B6898472068294603681B689847BF
:10248C002068FFF771FA08B0BDE8F08190F92330AD
:10249C00013314D102AFD0F8048000230122164975
:1024AC003846FFF77AFF97E8070005AB83E807008B
:1024BC00079A2321009240460CCBFFF769FD0021BF
:1024CC0094F9200005F0E0F806F07F012046FFF7B4
:1024DC008CFF29462046FFF788FF012194F9200044
:1024EC0005F0D2F894F923300133CCD12321606864
:1024FC00FFF782FDC7E700BF20A10700F8B504462F
:10250C00DB0002F0070203F03803134343EA8113A4
:10251C009DF8187080F8503090F854309DF81C508D
:10252C009DF8206067F3471380F85430ED0090F865
:10253C004C3006F0070605F0380523F03F03354311
:10254C001D4380F84C500022F421FFF781FF94F8D2
:10255C0054202046F2215209FFF77AFF94F84C20C0
:10256C002046C2F3C20302F007019B0043EA411369
:10257C0043EAD212F521FFF76BFF94F85020204666
:10258C00C2F3C20302F007019B0043EA411343EA82
:10259C009212F421BDE8F840FFF75ABFF0B590F95C
:1025AC002030044601330D4689B018D1017D0068F6
:1025BC00FFF796F92068294603681B68984720683E
:1025CC00FFF7D2F90122217D2068FFF784FA2068F9
:1025DC000368DB689847C5B2284609B0F0BD90F98E
:1025EC002330013313D102AE476800230122164970
:1025FC003046FFF7D2FE96E8070005AB83E80700EC
:10260C00079A2321009238460CCBFFF7C1FC00211E
:10261C0094F9200005F038F845F080012046FFF7CA
:10262C00E4FE00212046FFF7E0FE0121054694F967
:10263C00200005F029F894F923300133CCD1232163
:10264C006068FFF7D9FCC7E720A10700F0B590F947
:10265C002030044601330D4689B01FD1017D00683E
:10266C00FFF73EF92068294603681B6898472068E5
:10267C00FFF77AF90222217D2068FFF72CFA2068F7
:10268C000368DB689847054620680368DB68984751
:10269C0040EA052085B2284609B0F0BD90F92330F8
:1026AC00013313D102AE4768002301221949304689
:1026BC00FFF773FE96E8070005AB83E80700079A5F
:1026CC002321009238460CCBFFF762FC002194F9D1
:1026DC00200004F0D9FF45F080012046FFF785FE6D
:1026EC0000212046FFF781FE002105462046FFF71A
:1026FC007CFE40EA0520012185B294F9200004F00B
:10270C00C3FF94F923300133C5D123216068FFF74F
:10271C0073FCC0E720A1070008B5FFF797FF40BA8C
:10272C0080B208BDF0B590F92030044601330D4657
:10273C0089B023D1017D0068FFF7D2F820682946C3
:10274C0003681B6898472068FFF70EF90322217D68
:10275C002068FFF7C0F920680368DB68984705021A
:10276C0020680368DB689847054320682D020368DE
:10277C00DB6898470543284609B0F0BD90F9233033
:10278C00013313D102AE4768002301221B493046A6
:10279C00FFF703FE96E8070005AB83E80700079AEE
:1027AC002321009238460CCBFFF7F2FB002194F961
:1027BC00200004F069FF45F080012046FFF715FE6C
:1027CC0000212046FFF711FE002105022046FFF7ED
:1027DC000CFE002105432046FFF707FE2D020121C8
:1027EC00054394F9200004F04FFF94F92330013392
:1027FC00C1D123216068FFF7FFFBBCE720A10700D4
:10280C0038B588210446FFF787FF8A2120852046AA
:10281C00FFF782FF8C2160852046FFF77DFF8E211C
:10282C00A0852046FFF778FF9021E0852046FFF732
:10283C0073FF922120862046FFF76EFF942160865D
:10284C002046FFF769FF9621A0862046FFF764FF1C
:10285C009821E0862046FFF75FFF9A2120872046CB
:10286C00FFF75AFF9C2160872046FFF755FF9E21FA
:10287C00A0872046FFF750FFA121E0872046FFF7F5
:10288C008DFEE12184F840002046FFF745FFE3214F
:10289C00A4F842002046FFF781FEE42184F84400AE
:1028AC002046FFF77BFEE52105462046FFF776FE26
:1028BC006DB200F00F0040EA0510E621A4F84600C6
:1028CC002046FFF76BFEE52105462046FFF766FE26
:1028DC006DB2001140EA0510A4F84800E72120462B
:1028EC00FFF75CFE84F84A0038BDF32108B5FFF70A
:1028FC0055FE00F0010008BD30B5044690F92000EB
:10290C0085B0421C2AD100212068FEF7E5FFD021BA
:10291C002046FFF743FE6028A0613ED1B622E0219D
:10292C002046FFF795FD0A2004F0FCFE2046FFF739
:10293C00DCFF05460028F6D12046FFF761FF052392
:10294C0003211A4620460093CDE90155FFF7D6FD29
:10295C00642004F0E7FE012005B030BD012104F035
:10296C0093FE94F92000012104F040FE94F9230019
:10297C00431C04D123216068FFF7E2FAC7E7012169
:10298C0004F034FE94F92100012104F02FFE002103
:10299C0094F9220004F02AFEB9E70020DCE7017567
:1029AC000260FFF7A9BF000010B5FA210446FFF73B
:1029BC00B9FEB0F5000F1ED0218DB4F92A30C1EB51
:1029CC00202252434900C1EBE0115943B4F92C3099
:1029DC0012135343606A9B1303EBE1230344E3613B
:1029EC0003EB830303F180000012FDF799FE03490A
:1029FC00FDF79EFF10BD0248FCE700BF0000C84277
:102A0C000000C07F07B503688DF8071001225B68D2
:102A1C000DF10701984703B05DF804FB7047000007
:102A2C0038B500254FF47A73C0E901530C4B0446BA
:102A3C0001220C4940F8103B2B46FFF7AEFC182244
:102A4C001123C4E90723152320462946C4E9093577
:102A5C00C4E90B55656305F0B9F8204638BD00BFD5
:102A6C00AC9B000800127A00F0B504460F461646DF
:102A7C0087B00021C06904F007FE03AB04F110021B
:102A8C0007CA83E80700059A0F4D009228460CCB25
:102A9C002321FFF77DFA3A46012323212846FFF72D
:102AAC00CBFA3246012323212846FFF7C5FA064606
:102ABC0023212846FFF7A0FAE069012104F0E4FD88
:102ACC00304607B0F0BD00BFA0020020002201F08C
:102ADC007F01FFF7C9BF10B504461321FFF7F6FFBE
:102AEC00E36AC01A10BD036810B59B68044698478A
:102AFC0038B1E36A002101332046E362FFF7E6FFB9
:102B0C0010BD4FF0FF30FBE710B583228121044646
:102B1C00FFF7AAFF12212046FFF7D8FF030702D4C4
:102B2C0004F039FDF6E7082292212046FFF79CFFBE
:102B3C00012010BD2DE9F0410C4622211546074617
:102B4C00FFF7C4FF06464319FF2B88BFC0F1FF05F2
:102B5C0004EB0508444506D08021384614F8012BB7
:102B6C00FFF782FFF6E77219A2213846D2B2FFF7BF
:102B7C007BFF2846BDE8F081036870B59B6805466D
:102B8C00984780B10D212846FFF7A0FF002106468B
:102B9C002846FFF79BFF044632468D212846FFF757
:102BAC0063FF204670BD4FF0FF30FBE781221146DA
:102BBC00FFF75ABF80228121FFF756BF38B5CB17DC
:102BCC00DD040446002381620C4AC80445EA5131F5
:102BDC00FEF730F80546C0F3074286212046FFF782
:102BEC0043FFC5F3072287212046FFF73DFF204610
:102BFC00EAB28821BDE83840FFF736BF0048E8014B
:102C0C00002310B51D2103630446FFF75FFF9D21D0
:102C1C0000F0FE022046BDE81040FFF725BF01235F
:102C2C0010B51D2103630446FFF750FF40F001026D
:102C3C009D212046BDE81040D2B2FFF715BF38B534
:102C4C0004460D46FFF7B2FF20466DB1FFF7E7FFD4
:102C5C0000228D212046FFF707FF0022A2212046EB
:102C6C00FFF702FF012038BDFFF7CAFFF0E70000B5
:102C7C0038B504460D46C069012104F0B7FCE06983
:102C8C00012104F001FD206A431C10D0012104F045
:102C9C00ADFC0021206A04F0F7FC0A2004F042FD90
:102CAC00206A012104F0F0FC0A2004F03BFD2321F2
:102CBC001A48FFF745F942212046FFF707FF122873
:102CCC002AD12046FFF776FF29462046FFF776FFEC
:102CDC0000228E212046FFF7C7FE00228F212046BE
:102CEC00FFF7C2FE0C212046FFF7F0FE40F0030276
:102CFC008C21D2B22046FFF7B7FE0422A621204633
:102D0C00FFF7B2FE8F2289212046FFF7ADFE204649
:102D1C00FFF74CFF012038BD0020FCE7A00200208B
:102D2C000148FFF77DBE00BF38030020054A064866
:102D3C00136813F0010301BF0349CB760123136021
:102D4C00704700BF700300207403002010B50446C8
:102D5C0003F032FC0123237010BDF7B50E46144668
:102D6C00FFF7E4FF054600F049F8012C014602D9B3
:102D7C00032808BF0021284600F020FABEB14FF40A
:102D8C007A74B6FBF4F701A9284600F071F904FB3C
:102D9C00176301990F220B44A34224BFA3F57A7346
:102DAC00013701933918019B284600F0A7F803B0AE
:102DBC00F0BD10B5044609B9037A1BB102222046B6
:102DCC00FFF7CBFF6068BDE8104003F017BC0000B4
:102DDC000022024B1A705A601A727047900300203E
:102DEC0038B5054D04462B7823B103F001FF0023C1
:102DFC002B70A37638BD00BF9C030020C07E7047AB
:102E0C001FB5164B04461B7803B30729417607D828
:102E1C0007291BD8DFE801F01C0A1A0A1A1A1A0A29
:102E2C003F2903D001F0EF030F2B0FD1237E02912A
:102E3C00003B18BF012301936369A27C0093617C62
:102E4C00E37C207C03F05CFF0123A37604B010BD6F
:102E5C0004B0BDE8104003F06FBF00BF9C0300201E
:102E6C00034B1B781BB1B1F57A7F38BF41617047BA
:102E7C009C030020034B1B7813B13B2998BFC174F2
:102E8C00704700BF9C030020034B1B7813B13B29F8
:102E9C0098BF8174704700BF9C030020044B1B78C3
:102EAC002BB10378172998BF417403B90276704788
:102EBC009C030020F8B51D460A4B16461B78069F4E
:102ECC009DF81C2063B1FFF7E9FF3146FFF7DCFFEB
:102EDC002946FFF7CFFF3946BDE8F840FFF7C0BFE2
:102EEC00F8BD00BF9C030020034B1B781BB14B1E8D
:102EFC001E2B98BF017470479C0300202DE9F341F1
:102F0C001F46144B04461B78164603B34FF00008BB
:102F1C00114B684699422CBF00910093CDF8048068
:102F2C0004F0F6FF0546017B2046FFF7DDFF424625
:102F3C00297AFFF7B3FF2979FFF7A6FF2978FFF766
:102F4C0099FF3946FFF78CFF3146FFF759FF02B066
:102F5C00BDE8F0819C03002080436D381FB50C4BFD
:102F6C0004461B7893B100238DF80F300DF10F033D
:102F7C000093021D00F10803C11C023003F066FE31
:102F8C009DF80F30003B18BF0123637004B010BDD7
:102F9C009C0300202DE9F0471F46164B04461B7876
:102FAC000D461646DDF820809DF8249003B3FFF7FC
:102FBC00D5FFB8F57A7F38BFC4F808803B2F98BF8F
:102FCC00277123783B2E98BFE670172D98BFA570FC
:102FDC000BB984F8019063782279003B18BF012368
:102FEC00E1780893A078A368BDE8F04703F010BE21
:102FFC00BDE8F0879C030020064B1B7843B100F121
:10300C000F0300F10E0200F10D010C3003F05ABE5B
:10301C00704700BF9C0300202DE9F0411D46134B67
:10302C0004461B780F4616469DF81880E3B1FFF74F
:10303C00E3FF7B1E062B06F1FF3398BFE7731E2BB5
:10304C0005F1FF3398BFA6730B2B98BF6573B8F1CE
:10305C00630F98BF84F80C80E37BA27B617B207BA1
:10306C00BDE8F04103F00CBEBDE8F0819C030020EC
:10307C0030B504468BB00D46FFF7BEFF2046FFF778
:10308C006DFF00234FF0FF320793CDE90832237B0D
:10309C0064330693637B013B0593A37B0493A37872
:1030AC000393E3780293237901930DB1A3682B600A
:1030BC0001A805F011F90BB030BD000010B51A4B8A
:1030CC0004461B7886B013B300238DF816300DF12F
:1030DC00170302930DF11603019300F114030093EF
:1030EC0000F1120200F1130300F11101103003F092
:1030FC002DFE9DF81630003B18BF012323769DF85A
:10310C0017301F2B0DD8022B03D808D0637606B0CE
:10311C0010BD0121054A99400A40002AF6D100232E
:10312C00F4E73F2BFBD1F1E79C0300208880008063
:10313C0038B5184D04462A7812BB0170081EE17E82
:10314C0018BF0120022902D0032918BF0021124BFD
:10315C001A7803F0C9FC012320462B70FFF7FEFE02
:10316C002046FFF749FFA37B2374A3786374E378AD
:10317C00A3742379E374A36863616378237638BD01
:10318C00FFF7ECFE2046FFF737FF2046BDE838403E
:10319C00FFF794BF9C0300209D0300200B461146B3
:1031AC00044A13701BB10023034A83761370FFF794
:1031BC00BFBF00BF9D0300209C0300202DE9F04FF2
:1031CC00334B04461B788DB033B9C17601210DB059
:1031DC00BDE8F04FFFF7ACBFC37E0B918B4253D0D1
:1031EC00037E90F819900293837E0393037C0493DF
:1031FC00437C0593837C0693C37C0793FFF7FCFE0B
:10320C00237B2046E67BA77B94F80D800993FFF780
:10321C00A5FE237920460A93A3686578089394F851
:10322C0002A094F803B0FFF7DBFD0B990122E176C5
:10323C00291E18BF01212046FFF7B0FF089B5A46F4
:10324C0051462046009301950A9BFFF7A3FE099B6C
:10325C003A463146204600934346FFF7DDFE0023F5
:10326C000193029B204605990093DDE90623FFF7A5
:10327C0021FE0499FFF738FE039B2BB149460DB094
:10328C00BDE8F04FFFF7BCBD0DB0BDE8F08F00BF3F
:10329C009C03002003460A4910B508680344EFF369
:1032AC000882934205D90C224FF0FF30054B1A606F
:1032BC0010BD054A054C121B9342F4D20B60F7E784
:1032CC004800002068060020005000200004000088
:1032DC007047000038B50E4B054618784FF47A73DA
:1032EC00B3FBF0F30B4A1068B0FBF3F000F0EEFB0D
:1032FC00044658B90F2D09D8024629464FF0FF3025
:10330C0000F090FB2046044B1D6038BD0120FCE70B
:10331C004C0000206800002050000020074A08B52F
:10332C001368032043F01003136000F069FB0020C6
:10333C00FFF7D0FFFFF7CCFF002008BD00200240B4
:10334C00034A044B11681B780B441360704700BF91
:10335C00640600204C000020014B1868704700BF29
:10336C006406002038B50446FFF7F6FF0546631CDB
:10337C001EBF044B1B78E418FFF7EEFF431BA34260
:10338C00FAD338BD4C000020F7B5002604460D4694
:10339C000196FFF7E1FF236807469A68D20508D526
:1033AC000120A36A84F8246043F02003A36203B0D5
:1033BC00F0BD5A68D60503D4DB6A13F4700F3AD00B
:1033CC00394B02201E6801F0DFFF2368374A196968
:1033DC00B6FBF0F61142364A4DD1D8683549084251
:1033EC0049D11969114257D1DA68334B1A4214BFCB
:1033FC00292314235E43019BB34220D26A1C05D0BF
:10340C0085B1FFF7A9FFC01BA8420BD8019B013364
:10341C000193F0E7681C0FD025B1FFF79DFFC01B8F
:10342C00A84208D9A36A032043F00403A362002333
:10343C0084F82430BBE7226813689907EAD56FF04B
:10344C00120322681360A36A43F40073A3629368A7
:10345C0003F46023B3F5602F24D1207B10BBA36A47
:10346C0023F48073A362A36ADB041BD4A36A43F026
:10347C000103A3629BE71969114203D1D9680E4A73
:10348C0011420BD019690D4A114209D1DB68134264
:10349C0014BFFC235423ADE72923ABE75423A9E73E
:1034AC00FC23A7E7002082E768000020244992242F
:1034BC0092244912244992009224490049922400F2
:1034CC000368D86C70470000002373B5019390F823
:1034DC0024300446012B6CD0012380F824304D6835
:1034EC000268062D086805EB850322D81F26556B4C
:1034FC00053B9E4025EA060500FA03F32B43536374
:10350C0009288B6800EB40054FF0070129D9D668D4
:10351C001E3DA94026EA0101AB400B43D360A0F14C
:10352C001003012B25D90020002384F8243002B08D
:10353C0070BD0C2D4FF01F0509D8166B233B9D4019
:10354C0026EA050500FA03F32B431363D8E7D66A82
:10355C00413B9D4026EA050500FA03F32B43D36259
:10356C00CEE71069A94020EA0101AB400B4313617F
:10357C00D9E7114B9A4216D193681B02D3D49368A6
:10358C00102843F400039360CDD10C4B0C4A1B68FC
:10359C00B3FBF2F20A2353430193019B002BC2D0DD
:1035AC00019B013BF8E7A36A012043F02003A362CF
:1035BC00BAE70220BBE700BF0024014068000020EE
:1035CC0040420F00806A7047002373B50193036873
:1035DC0004469A68D20702D5002002B070BD9A68E2
:1035EC0042F001029A60124B124A1B68B3FBF2F3D1
:1035FC000193019BC3B9FFF7AFFE064623689D6894
:10360C0015F00105E8D1FFF7A7FE801B0228F5D9BC
:10361C00A36A012043F01003A362E36A84F82450E8
:10362C0043F00103E362D8E7019B013BE0E700BFF5
:10363C006800002040420F0010B590F8243004467A
:10364C00012B54D0012380F82430FFF7BDFF002854
:10365C0049D1A36A274A23F4407323F0010343F4AE
:10366C008073A3622368934204D123494A6812F4FD
:10367C00702F2ED1A26A22F48012A2625A685205CF
:10368C0041BFA26A22F4405242F48052A262A26A62
:10369C0012F480521CBFE26A22F00602E26200229F
:1036AC0084F824206FF002021A609A6802F46022F7
:1036BC00B2F5602F13D10F4A934205D1A2F5806267
:1036CC00526812F4702F0AD19A6842F4A0029A60E0
:1036DC0010BDA26A42F48012A2624A68CFE79A68CF
:1036EC0042F48012F3E7002384F82430F0E7022040
:1036FC00EEE700BF002801400024014038B5036804
:10370C0004469A68D20701D4002038BD9A6822F08A
:10371C0001029A60FFF720FE054623689B68DB07D1
:10372C00F2D5FFF719FE401B0228F6D9A36A012037
:10373C0043F01003A362E36A43F00103E362E4E79E
:10374C00F8B5044600286ED0836A23B9C36280F8AA
:10375C00243003F019FD2046FFF7D0FFA36A13F0C5
:10376C00100362D1002860D1A26AE569616822F475
:10377C00885222F0020242F002022943A568A2629A
:10378C00227BB5F5807F41EA420137D0012D14BF71
:10379C0000274FF48077267D012E06D182BBA269CB
:1037AC00013A47EA423646F400672268B5F5807F55
:1037BC00566826F4694646EA0706566097681D4E19
:1037CC0006EA070646EA0106966001D0012D02D1F1
:1037DC002369013B1B05D56A25F470052B43D36285
:1037EC009268154B1340994213D10023E362A36AEC
:1037FC0023F0030343F00103A362F8BD2F46CAE78D
:10380C00A26A42F02002A262E26A42F00102E26283
:10381C00CBE7A36A23F0120343F01003A362E36A1D
:10382C0043F00103E3620120E7E7A36A43F01003CE
:10383C00A362F8E7FDF7E1FFFE0E1FFF38B5044663
:10384C00002850D0836A43F002038362FFF756FFCF
:10385C000546002842D16FF01F02236823481A60E6
:10386C005968234A0A405A609968224A0A409A6069
:10387C00DA6802F07F42DA601A6902F040421A619B
:10388C0059691D4A11405961996911409961D96969
:10389C001140D961196A11401962596A1140596273
:1038AC00996A0A409A62DA6A02F07F42DA62DA6A4C
:1038BC0002F07F42DA621A6B02F040421A635A6BD2
:1038CC0002F040425A63996B014099639A6B024033
:1038DC009A63204603F08AFCE562A562002384F813
:1038EC002430284638BD0125FBE700BF0000C0FF8F
:1038FC0000003FFFF00601FF00F0FFFF10B590F84D
:10390C0024300446012B11D0012380F82430FFF71A
:10391C00F5FE38B9A36A23F4885323F0010343F06E
:10392C000103A362002384F8243010BD0220FCE7BD
:10393C00002373B5019390F824300446012B5AD020
:10394C00012380F82430FFF7D9FE0546002832D138
:10395C00A36A022023F4885323F0020343F00203EA
:10396C00A362264B1E6801F00FFDB6FBF0F6760045
:10397C000196019B1BBB2046FFF726FE226893682D
:10398C0043F008039360FFF7E7FC064623689A6848
:10399C00120718D49A6842F004029A60FFF7DCFC14
:1039AC00064623689B685B071FD4A36A23F00303B6
:1039BC0043F00103A362002384F8243012E0019B3E
:1039CC00013B0193D5E7FFF7C7FC801B0A28DDD923
:1039DC00A36A012523F0120343F01003A362002312
:1039EC0084F82430284602B070BDFFF7B5FC801B6C
:1039FC000A28D6D9ECE70225F4E700BF68000020BE
:103A0C0007490302CA6803F4E06322F4E06212047B
:103A1C00120C134343F0BF6343F40033CB60704785
:103A2C0000ED00E0164B30B5DC68C4F30224C4F1A1
:103A3C000703251D042B28BF0423062D4FF0FF354B
:103A4C0098BF002405FA03F388BF033C21EA030363
:103A5C00A34005FA04F422EA0402002843EA020314
:103A6C00ACBF00F16040074A4FEA0313DBB2ABBFB7
:103A7C0000F5614000F00F0080F80033135430BDA6
:103A8C0000ED00E014ED00E0002808DB0123420902
:103A9C0000F01F0003FA00F0014B43F822007047BE
:103AAC0000E100E000280DDB0122430900F01F00BB
:103ABC0002FA00F0044A203342F82300BFF34F8F80
:103ACC00BFF36F8F704700BF00E100E00138B0F129
:103ADC00807F0AD2F021064B064A586082F82310E8
:103AEC000020072298601A6070470120704700BFC1
:103AFC0010E000E000ED00E0002809DB01224309A2
:103B0C0000F01F0002FA00F0024A603342F8230072
:103B1C00704700BF00E100E0704708B5FFF7FCFFFD
:103B2C0008BD000008B590F82130022B03D0042307
:103B3C008363012008BD03681A6822F00E021A6024
:103B4C001A6822F001021A60174A93421CD01432F0
:103B5C0093421BD0143293421AD0143293421AD08F
:103B6C00143293421AD0143293420CBF4FF4801388
:103B7C004FF080730D4A53604FF480730384436B92
:103B8C007BB198470020D5E70123F3E71023F1E739
:103B9C004FF48073EEE74FF48053EBE74FF4803330
:103BAC00E8E71846C6E700BF0800024000000240E4
:103BBC0090F8210070470000044A08B55169014291
:103BCC0002D0506103F004FC08BD00BF00040140AA
:103BDC002DE9F84606460F4691461D464FEA114A16
:103BEC003368BAF1010F0CBF5C699C6927EA0404C5
:103BFC00A4B2B4FA84F46409A14501D0002017E002
:103C0C006A1CEED0FFF7A8FB089BC01AA84201D88B
:103C1C00002DE5D1002320220120336386F83D20BE
:103C2C0086F83E30326C86F83C3042F0200232642A
:103C3C00BDE8F8867047000070B5044608B901204D
:103C4C0070BD90F83D3003F0FF021BB980F83C20AA
:103C5C00FFF7F0FF2423226884F83D30136823F02B
:103C6C000103136001F0F8FA3F4A6368934294BF72
:103C7C003E4A3F4A90428CBF00220122002ADED1EC
:103C8C003C4E2268B0FBF6F65168013821F03F013A
:103C9C00314351603449156A8B4281BF4FF49671A0
:103CAC0071434FF47A76B1FBF6F125F03F0594BFE2
:103CBC00711C013129431162D1692B4D21F44F4103
:103CCC00AB4221F0FF0132D85B00B0FBF3F0431C98
:103CDC0040F6FC70034242D0C3F30B030B43D36199
:103CEC001168D4E9073021F0C00103430B43136082
:103CFC009168D4E9030321F40341034321F0FF014C
:103D0C000B439360D168D4E9053021F0FF010343E4
:103D1C000B43D3601368002043F00103136020238E
:103D2C00206484F83D30206384F83E0088E7A56861
:103D3C0055B903EB4303B0FBF3F30133C3F30B03AC
:103D4C007BB143F40043C9E719256B43B0FBF3F394
:103D5C000133C3F30B0323B143F44043BEE7042305
:103D6C00BCE70123BAE700BFA08601007F841E00D8
:103D7C00FF083D0040420F002DE9F04F044685B08E
:103D8C001E460F469146FFF7E7FA94F83D3005467C
:103D9C00202B03D0022005B0BDE8F08F0090192332
:103DAC00012220464849FFF713FF0028F2D194F86E
:103DBC003C30012BEED0012384F83C3023684FF0CB
:103DCC00010A1A68DFF800B1D20758BF1A6807F069
:103DDC00FE075CBF42F001021A601A6822F400620E
:103DEC001A60242384F83D3000232364A3F5803328
:103DFC00E36222684FF001111368204643F480738C
:103E0C001360334600220095FFF7E2FE08B1012053
:103E1C00C1E723684FF0A0081F61FFF79DFA054624
:103E2C0023685A695B69C2F34002C3F3802394F898
:103E3C003D10A02901D0134321D04FF02008236856
:103E4C0084F83D805A6912F0020F1A6842F400722D
:103E5C001A6024D0002203925A69204603929B696F
:103E6C0001220393039B184919230095FFF7B0FE19
:103E7C000028CCD184F83D8084F83C008BE7FFF718
:103E8C006BFA401BB04200D80EB984F83D80236811
:103E9C005A695B69C2F34002C3F38023C7E76FF42E
:103EAC00806259465A612046192301220095FFF77A
:103EBC008FFE0028ABD10AF1010ACA4599D384F8C8
:103ECC003D8084F83C00A2E70200100073B500248A
:103EDC000094019490F83D40069D202C02D00220C5
:103EEC0002B070BD082D01D0012D1FD146F2A816CD
:103EFC00294C2468B4FBF6F6192474430194019CF4
:103F0C00013C0194019C6CB92023046380F83D3082
:103F1C0080F83E40036C80F83C4043F0200303647F
:103F2C000120DDE70468A469A407E8D490F83C40BC
:103F3C00012CD4D004682668F6075EBF266846F0CC
:103F4C0001062660266826F400662660212680F885
:103F5C003D60102680F83E60002606644385438D44
:103F6C00C56241640385036B42620093009B112B75
:103F7C0005D1B5F52A0F02D0B5F12A4F03D123682C
:103F8C0043F480732360002380F83C306268184649
:103F9C0042F4E0626260A3E76800002073B500247D
:103FAC000094019490F83D40069D202C02D00220F4
:103FBC0002B070BD082D01D0012D1FD146F2A816FC
:103FCC00384C2468B4FBF6F6192474430194019C14
:103FDC00013C0194019C6CB92023046380F83D30B2
:103FEC0080F83E40036C80F83C4043F020030364AF
:103FFC000120DDE70468A469A407E8D490F83C40EC
:10400C00012CD4D0012480F83C4004682668F607C3
:10401C005EBF266846F001062660266826F4006618
:10402C002660222680F83D60102680F83E6000262F
:10403C0006644385438DC56241640385036B42620C
:10404C000093438D9BB2022B25D1202D01D0102D36
:10405C0021D1009B122B23681ED14FF4407123F405
:10406C0080632360236843F400632360009B122B5E
:10407C0005D1B5F52A0F02D0B5F12A4F03D123682B
:10408C0043F480732360002380F83C306268184648
:10409C000A4362608CE7236843F480634FF4E06169
:1040AC002360E3E76800002037B590F83D4004F04A
:1040BC002804282C31D100292DD0002A2BD090F89F
:1040CC003C40012C29D005682C68E4075EBF2C68A5
:1040DC0044F001042C602C6824F400642C60292426
:1040EC0080F83D40202480F83E4000240464428542
:1040FC00428DC36201946B6941620193AB69028585
:10410C0080F83C4020460193019B6B6843F4E063CC
:10411C006B6003B030BD0120FBE70220F9E737B537
:10412C0090F83D4004F02804282C31D100292DD0E2
:10413C00002A2BD090F83C40012C29D005682C6823
:10414C00E4075EBF2C6844F001042C602C6824F456
:10415C0000642C602A2480F83D40202480F83E40E6
:10416C00002404644285428DC36201946B694162F0
:10417C000193AB69028580F83C4020460193019B7A
:10418C006B6843F4E0636B6003B030BD0120FBE768
:10419C000220F9E790F83D30202B14D1282380F829
:1041AC003D30036800201A68D2075EBF1A6842F0DF
:1041BC0001021A601A6842F480621A605A6842F46A
:1041CC0040725A60704702207047704770477047C2
:1041DC0070477047002370B5406A026890F83D1034
:1041EC001468466B856B24F48064B362AB62146014
:1041FC0043851468736324F001046B63146090F8B6
:10420C003D40C9B2602C08D1202280F83D2080F8B6
:10421C003E300364FFF7DDFF70BD01F02801282953
:10422C000DD1146844F001041460146844F48064E3
:10423C001460036380F83D10FDF720FEECE72022AC
:10424C0080F83D2080F83E30F6E7000010B590F87D
:10425C003D2090F83E10044610290368D2B212D1CA
:10426C00222A10D1196821F40061196059680905D6
:10427C0004D4602A1CBF202284F83D200022226333
:10428C0084F83E2007E002F028012829EED1002214
:10429C00226384F83D105A6812F400624CD05A68BC
:1042AC00606B22F400625A6090F82130012B364B7F
:1042BC0028D04363FFF736FC50B12268606B13685B
:1042CC0023F001031360202384F83D30436B98479F
:1042DC0094F83D30226CDBB2520712D5282B10D14A
:1042EC0022682046536823F4E0635360274B202256
:1042FC00E3620023236384F83D2084F83E30FDF70D
:10430C0091FD10BDA06B4363FFF70CFC0028DFD0C0
:10431C0023685A69520605D51A69636A1A70636A6A
:10432C00013363622268A06B136823F001031360EE
:10433C00202384F83D30C9E794F83D10602915D14D
:10434C00202184F83D1022645A69500605D51A695B
:10435C00636A1A70636A01336362226820461368C9
:10436C0023F001031360FFF734FFB1E75A695106DC
:10437C0005D51A69636A1A70636A01336362204651
:10438C00FDF77CFDA4E700BFE14100080000FFFF42
:10439C0070B5036804465A68C16A90F83E5090F8AC
:1043AC003D00102D8CB0EEB2C0B202D0402E40F0C9
:1043BC00B7829D695869C60707D4B1F52A0F02D098
:1043CC00B1F12A4F52D10CB070BD91054ED5E26AB5
:1043DC00B2F52A0F0CD10122E26294F83E20402A59
:1043EC0011D1226D52B9626C02F0FE021A61EAE739
:1043FC00E26AB2F12A4FF0D10822EDE7626C42F08A
:10440C000102D2B2F2E72269B2F5804F1BD194F8C7
:10441C003D20212A626C12D102F0FE021A61626BFD
:10442C0012B9A16B0029CED0926A1AB9A26B926A0A
:10443C00002AC8D05A6842F400625A60C3E742F0BE
:10444C000102D2B2EAE7226D32B9626CD21102F0EB
:10445C00060242F0F002C9E7226D012AB3D1626C68
:10446C00D21102F0060242F0F102BFE7060703D5B3
:10447C00910501D5626CE4E7860740F1E680910571
:10448C0040F1E38094F83E10E26A256B94F83D000D
:10449C00C9B2222840F0D180206D40B9402906D104
:1044AC0000905A6900929B690093009B8BE7216DE9
:1044BC0081B92069B0F5404F0CD101915A69019234
:1044CC009A690192019A1A6842F480721A60236DFB
:1044DC00013328E0618D89B251B902915A69029277
:1044EC009A690292029A1A6842F400721A6019E0F0
:1044FC00618D89B201294AD112F5803F1CD11A680D
:10450C0022F480621A605A6812F400620DD01A68A4
:10451C0022F480621A60002203925A6903929B690A
:10452C000393039B002323654DE704925A6904927D
:10453C009A690492049AD6E7082A1CD0202A1AD029
:10454C00122D0DD1012A16D11A6822F480621A603C
:10455C00002205925A6905929B690593059BE1E738
:10456C00102AF1D88F4921FA02F2D607ECD51A6835
:10457C0042F48062EBE71A6822F480621A6000222F
:10458C0006925A6906929A690692069AABE7618D71
:10459C0089B2022933D1102A05D88249D140C943A6
:1045AC0011F0010120D0196841F40061196000215B
:1045BC00079159690791996907910799196821F42D
:1045CC008061196059680D05ACD512F5803F06D095
:1045DC00511E1F29A6D8744ACA40D007A2D55A68C2
:1045EC0042F480525A609DE7186840F4806018606D
:1045FC00089159690891996908910899E2E7196835
:10460C0041F480611960596809050ED512F5803F97
:10461C0007D0013A1F2A08D8634921FA02F2D607BB
:10462C0003D55A6842F480525A60002209925A69A2
:10463C0009929B690993099B74E700220A925A69B3
:10464C000A929B690A930A9BBDE66D07596840F173
:10465C00AD800E053FF5B7AE0506C0F3800169D5F8
:10466C00500567D5002968D194F83D20258D94F824
:10467C003E10D2B2E06AC9B2C5B9212A18D10828B5
:10468C0078D0202876D010F5803F73D05A6822F469
:10469C00E0625A6011232363002384F83E30202308
:1046AC00204684F83D30FFF790FD8CE6212A05D09A
:1046BC0040297FF488AE222A7FF485AE628D92B2B7
:1046CC001AB95A6822F48062B7E694F83E20402A60
:1046DC0026D1226D62B9E26C012AA26C04D1D2B24D
:1046EC001A61236D02331EE7C2F307221A61EEE64C
:1046FC00226D012A02D1A26CD2B2F7E7226D022AF6
:10470C007FF461AE94F83D20222A04D11A6842F459
:10471C0080721A6057E694F83D20212A7FF453AE3C
:10472C00626A12F8011B19616262638D013B9BB2D4
:10473C00638548E600293FF446AE92057FF543AE0B
:10474C00E16A94F83D20212A7FF43DAE628D92B24D
:10475C00002AE5D108290DD020290BD011F5803F76
:10476C0008D0596821F4E06159601123236384F85F
:10477C003E2094E75A68204622F4E0625A601A6898
:10478C0042F400721A6000232022236384F83D2037
:10479C0094F83E2084F83E30402A84D1FFF717FD70
:1047AC0011E600BF14000100818000800E053FF56A
:1047BC000AAE4506C0F3800148D5500546D5002900
:1047CC0047D194F83D20222A7FF4FDAD628D92B240
:1047DC00032A14D91A69636A1A70636A0133636213
:1047EC00638D013B9BB26385638D9BB2032B7FF47E
:1047FC00EAAD2268536823F480635360E3E5E06A12
:10480C0002283FF4E0AD012A3FF6DDAD1A6822F430
:10481C0080621A605A6822F4E0625A601A69636A0C
:10482C001A70636A01336362638D013B9BB26385CB
:10483C00202384F83D3094F83E3084F83E10402B11
:10484C0068D121632046FFF7C3FCBCE500293FF487
:10485C00BAAD92057FF5B7ADE26A608D616A80B240
:10486C00042809D15A6822F480625A601B690B70C3
:10487C00636A0133636258E7608D80B203280CD100
:10488C005868042A20F480605860EFD0022AEDD0DA
:10489C001A6822F480621A60E8E7608D80B2022800
:1048AC00E4D1012A01D0102A28D11A6822F480629E
:1048BC001A601B690B70626A531C6362638D013B47
:1048CC009BB2638523681B695370636A226801334A
:1048DC006362638D013B9BB26385536823F4407321
:1048EC005360202384F83D3094F83E30402B4FF039
:1048FC00000384F83E300DD12363A3E7042A01D0D2
:10490C00022A03D11A6842F48062D1E71A6842F491
:10491C000072CDE7122320462363FFF757FC52E5C4
:10492C00216C11B3002559698E0728D5960526D51B
:10493C00226C02B19D6994F83D2002F02802282ACD
:10494C0016D15A686FEA950122F480625A602B06E0
:10495C004FF00003204654BFA289228B01F00101C5
:10496C0084F83C30FDF73BFA2DE59D695969DBE78E
:10497C006FF002025A61002384F83C3023E5CE0626
:10498C0040F1B180950540F1AE8094F83D505A68E5
:10499C00EDB222F4E0625A6000220B925A690B923B
:1049AC001A6842F001021A600B9A1A6822F48062AB
:1049BC001A605A68120520D505F0F702222A4AD14E
:1049CC00A06B0268526892B26285628D92B21AB183
:1049DC00226C42F0040222645A6822F400625A608B
:1049EC00FFF7E6F8012808D0A06B794B4363FFF77B
:1049FC0099F810B1A06B436B9847638D9BB213B3BE
:104A0C0023685A69560709D51A69636A1A70636A6A
:104A1C0001336362638D013B9BB2638523685A69E2
:104A2C00500609D51A69636A1A70636A01336362A6
:104A3C00638D013B9BB26385638D9BB21BB1236C71
:104A4C0043F004032364236C13B320460CB0BDE87D
:104A5C007040FFF7FBBB606B0268526892B26285D4
:104A6C00628D92B21AB1226C42F0040222645A682E
:104A7C0022F400625A60FFF79BF80128BDD0606BEE
:104A8C00534B4363FFF74EF80028B6D0606BB2E788
:104A9C002A2D06D123632823204684F83D30FDF7C8
:104AAC00D7F994F83D30282B0CD14A4B2022E362E5
:104ABC0000232046236384F83D2084F83E30FDF724
:104ACC00B1F980E4236B222B02D0222D7FF47BAC36
:104ADC0000232022236384F83D2084F83E302046B6
:104AEC00FDF7B6F96FE400F0F7002128C1F380055B
:104AFC0035D1090627D5560525D53DBB94F83D1073
:104B0C00628DC9B292B2002A3FF45DAC626A12F8AF
:104B1C00015B1D616262628D013A92B26285628DA7
:104B2C0092B2002A7FF44FAC29297FF44CAC5A681E
:104B3C0022F480625A6028232063204684F83D309A
:104B4C00FDF798F93FE4002D3FF43DAC95057FF55A
:104B5C003AAC628D92B2002A3FF435ACE0E54806DF
:104B6C0027D5510525D53DBB94F83D20618DD2B29A
:104B7C0089B200293FF427AC1969636A1970636A1A
:104B8C0001336362638D013B9BB26385638D9BB282
:104B9C00002B7FF418AC2A2A7FF415AC22685368DA
:104BAC0023F48063536022232363282384F83D304D
:104BBC0095E7002D3FF407AC92057FF504AC628DB0
:104BCC0092B2002A3FF4FFAB1A69636A1A704FE67F
:104BDC00E14100080000FFFFF8B5036804465F6977
:104BEC005E68FA05C7F300250BD5F005C6F3002562
:104BFC0007D56FF4807201255A611A6842F400429D
:104C0C001A60B90506D5F20542BF6FF4007245F083
:104C1C0002055A61780537D5F10535D594F83EC0B3
:104C2C00618D94F83D20BCF1200F206B89B2D2B27B
:104C3C005AD1002958D102F0F701212903D0282A92
:104C4C0052D1212850D194F83D20E16AD2B20829E2
:104C5C0001D020292AD1282A28D12C4A2046E262C8
:104C6C005A6822F4E0625A606FF480625A611A68E2
:104C7C0022F480621A6000232022236384F83D20F2
:104C8C0084F83E30FDF7CEF83A053BD5F30539D51F
:104C9C006FF40062236845F008055A61236C2046C6
:104CAC001D432564BDE8F840FFF7D0BA212A17D17F
:104CBC0016492046E1622263202284F83D2000221E
:104CCC0084F83E205A6822F4E0625A606FF48062E5
:104CDC005A611A6822F480621A60FDF7CBF8D3E7A8
:104CEC006FF480625A61CFE76FF480625A6194F876
:104CFC003E2045F00405102A02BF1A6842F40072E7
:104D0C001A60C1E7002DC9D1F8BD00BF0000FFFF3C
:104D1C0090F83D007047006C704720BF00BF704793
:104D2C000122014B1A60704720000E420F4A10B549
:104D3C001468012924F002041460136823F00103A1
:104D4C0043EA000313600A4B1A6942F004021A6129
:104D5C0005D130BF1A6922F004021A6110BD40BFA0
:104D6C00FFF7DBFFFFF7D9FFF4E700BF007000404F
:104D7C0000ED00E02DE9F341054638B30368DB078D
:104D8C0010D42B689F075ED42B68190700F195800F
:104D9C002B685A0700F1BF80E869002840F02C818D
:104DAC00002029E08F4C636803F00C03042B07D020
:104DBC00636803F00C03082B0AD16368DE0307D584
:104DCC0023689C03DDD56B68002BDAD1012013E03E
:104DDC006B68B3F5803F12D1236843F480332360B2
:104DEC00FEF7BAFA064623689803CAD4FEF7B4FA5B
:104DFC00801B6428F7D9032002B0BDE8F0819BB971
:104E0C00236823F480332360236823F480232360F6
:104E1C00FEF7A2FA064623689903B2D5FEF79CFA70
:104E2C00801B6428F7D9E6E7B3F5A02F236803D1DC
:104E3C0043F480232360CFE723F48033236023687B
:104E4C0023F48023CBE7674C636813F00C0F07D077
:104E5C00636803F00C03082B10D16368DA030DD4DC
:104E6C0023689B0702D52B69012BAFD123686A6994
:104E7C0023F0F80343EAC203236085E72A695A4BFF
:104E8C006AB101221A60FEF767FA064623689F078B
:104E9C00ECD4FEF761FA801B0228F7D9ABE71A6055
:104EAC00FEF75AFA0646236898077FF56DAFFEF7B2
:104EBC0053FA801B0228F6D99DE7AA69494E4B4B41
:104ECC00DAB101221A60FEF747FA0446736A9B07AF
:104EDC000DD54FF4FA52464B1B68B3FBF2F301931A
:104EEC0000BF019B5A1E0192002BF9D150E7FEF72F
:104EFC0033FA001B0228E9D97DE71A60FEF72CFA79
:104F0C000446736A9F077FF543AFFEF725FA001B33
:104F1C000228F6D96FE7334CE369D80024D4012773
:104F2C00E36943F08053E361E36903F0805300933A
:104F3C00009B304E3368D90518D5EB68012B26D170
:104F4C00236A43F001032362FEF706FA41F2883824
:104F5C000646236A9B073FD5002F3FF41DAFE3693C
:104F6C0023F08053E36117E70027E2E7336843F44B
:104F7C0080733360FEF7F0F980463368DA05DCD4D1
:104F8C00FEF7EAF9A0EB08006428F6D933E7ABB9D1
:104F9C00236A41F2883823F001032362236A23F049
:104FAC0004032362FEF7D8F90646236A9807D3D583
:104FBC00FEF7D2F9801B4045F7D91CE7052B236A75
:104FCC0003D143F004032362BAE723F00103236205
:104FDC00236A23F00403B6E7FEF7BEF9801B4045B5
:104FEC00B7D908E700100240000042428004424258
:104FFC0068000020007000402A4B5A681C4602F0E2
:10500C000C02082A3DD00023274E022833602BD1F6
:10501C00FEF7A2F90746236899011FD42B6AB3F552
:10502C00803F05D16268A96822F400320A436260AD
:10503C00696A62680B4322F47412134363600123A0
:10504C003360FEF789F9054623689A013FF5A8AE4F
:10505C00FEF782F9401B0228F6D9CCE6FEF77CF964
:10506C00C01B0228D7D9C6E6FEF776F90546236899
:10507C009B017FF595AEFEF76FF9401B0228F6D920
:10508C00B9E601283FF4B8AE5B682A6A03F48031B4
:10509C0091427FF49BAE6A6A03F4701393423FF41F
:1050AC007FAE93E6001002406000424230B5184BD0
:1050BC0087B002AC03F11005224618685968083312
:1050CC0003C2AB421446F7D140F201231149ADF8AB
:1050DC0004304B6803F00C02082A17D1C3F3834247
:1050EC0006A80244DB0312F8102C0CD54B680A48B6
:1050FC00C3F34043504306AA134413F8143CB0FBCB
:10510C00F3F007B030BD05485043FAE70248F8E722
:10511C00CC9B00080010024000127A0000093D00F0
:10512C002DE9F0410D46044610B90120BDE8F0818F
:10513C00444A136803F007038B4228D321688E0777
:10514C0030D4CA0743D43F4A136803F00703AB4279
:10515C0065D822683C4D12F0040F6CD1130706D5AC
:10516C006B68226923F4605343EAC2036B60FFF758
:10517C009DFF6B68354AC3F30313D35CD840344BA3
:10518C001860344B1868FEF7A5F80020CEE71368BA
:10519C0023F007030B431360136803F007038B42E0
:1051AC00C3D1CBE7284B11F0040F1EBF5A6842F451
:1051BC00E0625A60080742BF5A6842F460525A6073
:1051CC005A68A06822F0F00202435A60B9E762689C
:1051DC001D4E012A33681AD113F4003FA5D0736811
:1051EC0041F2883823F0030313437360FEF7B4F8DD
:1051FC0007467368626803F00C03B3EB820FA2D00E
:10520C00FEF7AAF8C01B4045F3D903208EE7022A0B
:10521C0002D113F0007FE1E713F0020FDEE7136811
:10522C0023F007032B431360136803F00703AB420F
:10523C007FF47BAF8DE76B68E16823F4E0630B438D
:10524C006B608BE700200240001002407B9D000841
:10525C006800002050000020044B054A5B68C3F333
:10526C000223D35C034A1068D840704700100240F8
:10527C008B9D000868000020044B054A5B68C3F353
:10528C00C223D35C034A1068D84070470010024018
:10529C008B9D00086800002003682DE9F341D907B5
:1052AC00054620D5354CE369DA0032D40127E36991
:1052BC0043F08053E361E36903F080530193019B56
:1052CC002F4E3368DB0526D5236A13F4407336D191
:1052DC00236A6A6823F44073134323621FB1E369A2
:1052EC0023F08053E3612868830706D52349AB6814
:1052FC004A6822F440421A434A6010F010001BD056
:10530C001E4AE9685368002023F480030B43536062
:10531C0012E00027D4E7336843F480733360FEF760
:10532C001BF880463368D805CED4FEF715F8A0EBF1
:10533C0008006428F6D9032002B0BDE8F0816A6841
:10534C0002F440729A42C3D001200E4A236A1060C4
:10535C00002023F4407110602162D907B8D5FDF705
:10536C00FBFF41F288380646236A9A07B0D4FDF752
:10537C00F3FF801B4045F7D9DDE700BF001002406A
:10538C000070004040044242024670B5344B86B077
:10539C0002AD03F110062C4618685968083303C493
:1053AC00B3422546F7D140F20123022AADF804306E
:1053BC0049D0102A03D0012A26D0002038E0294BEE
:1053CC005968186810F0807032D0C1F3834206A877
:1053DC00024412F8100CCA0341BF5A6806A9C2F362
:1053EC004042521844BF12F8141C1F4A5B684CBF51
:1053FC00B2FBF1F21D4A5B0202FB00F018D403234E
:10540C004000B0FBF3F013E040F20231154A136A8E
:10541C001940B1F5817F1FD003F44073B3F5007FC1
:10542C0008D149F64043506A10F0020018BF1846E4
:10543C0006B070BDB3F5407FBFD110684FF2244366
:10544C0010F40030F2E7FFF717FF064B5B68C3F36D
:10545C00813301335B00D4E74FF40040E8E700BF31
:10546C00CC9B00080010024000127A0000093D009D
:10547C00036830B59A69D869996995B28CB2A5421E
:10548C0017BFD86980B280B240EA014008BF40EA39
:10549C00024030BD0368186A5B6A9BB243EA004065
:1054AC0070470023092803D840EA0310C0B27047A4
:1054BC000A380133C0B2F5E70A22030900F00F00E5
:1054CC0002FB0300C0B2704730B5034600F5FA6426
:1054DC001720092548430229B0FBF5F517D80432EB
:1054EC0010194FF4C87203F2CF73B3FBF2F22844D5
:1054FC0000EB930010446422B3FBF2F3C01A0723B1
:10550C00B0FBF3F3C3EBC303C01AC0B230BD4FF40E
:10551C00C873901C64222044B4FBF3F3284400EBC2
:10552C009400B4FBF2F41844001BE8E738B50446C9
:10553C00FDF712FF054623685A68920605D5002030
:10554C005A6842F010025A6038BDFDF705FF401B47
:10555C00B0F57A7FEFD90320F6E7026838B55368C7
:10556C00044623F010035360FDF7F6FE054623684E
:10557C005B689B0601D5002038BDFDF7EDFE401B96
:10558C00B0F57A7FF3D90320F6E738B505460C461B
:10559C00FFF7CCFF58B92B68220CA4B29A612846AD
:1055AC00DC61FFF7DAFF003818BF012038BD01209D
:1055BC00FCE738B505460C46FFF7B8FF58B92B6821
:1055CC00220CA4B21A6228465C62FFF7C6FF0038B0
:1055DC0018BF012038BD0120FCE77047704770B53B
:1055EC000446E0B1D9B1037C0225012B46D001233E
:1055FC004574037408784D78897892B93C264FF439
:10560C0061636E4303FB0060461831462046FFF78A
:10561C00BCFF0546B0B10423637400232374012539
:10562C002CE0FFF749FF06462846FFF745FF3C23D1
:10563C0043434FF4616000FB06360846FFF73CFF1E
:10564C000644E2E722682046536823F005035360C2
:10565C00FFF720FF431C0DD086420BD900F5A83173
:10566C0001F5C0712046FFF7A4FF18B1042325747F
:10567C006374D4E70123637400232374284670BD3C
:10568C002DE9F0470E461746054610B90120BDE836
:10569C00F0870029FAD003685B6813F00408F5D191
:1056AC00FFF7E6FE4FF46163B0FBF3F23C2403FB1F
:1056BC0012038246B3FBF4F004FB1033B3704A4B75
:1056CC0070709A4540F286801823B2FBF3F903FB05
:1056DC00192228463270FFF7DDFE411C044605D026
:1056EC0082452CBF4FF0FF34A0EB0A043F4800FB6F
:1056FC0019AA28465146FFF748FF0028C6D1621C5C
:10570C0027D00AEB04012846FFF753FF0028BDD130
:10571C0064224FF4C87140F2D52CE87B6C7BAB7BD8
:10572C00C14518D1E1B2DAB2E8736973AA73FFF715
:10573C00CBFE28735FB13078FFF7B3FE3070707812
:10574C00FFF7AFFE7070B078FFF7ABFEB0700020C3
:10575C009DE72146D7E704F1FF3EBEF1090F0ED9B4
:10576C000C2C39D024F0020EBEF1040F02D0BEF185
:10577C00090F0BD11D2B0DD90123013431E02CFA6B
:10578C000EFE1EF0010FEDD01E2BF4E7022C28D1DB
:10579C001B2B01D8013324E01C2B14D183071FFAD7
:1057AC0080FE12D1BEFBF2F302FB13E39BB27BB97A
:1057BC00BEFBF1F301FB13E39BB2002B16BF0123DD
:1057CC001D2303240DE01D2B0BD10123032408E022
:1057DC001D2306E03270ADE71E2BDBD901231C46DE
:1057EC00013008F101089BE77F5101008051010055
:1057FC0070B50D46044650B349B3037C0220012B0F
:10580C004AD0012360742374C87812BBE0734B78C0
:10581C0063738B78A373A27B617BE07BFFF754FEF1
:10582C00207328702046FFF723FE1C4B98422FD97B
:10583C001B49B0FBF1F601FB160620463146FFF77B
:10584C00A4FE054688B1042363740023237401204D
:10585C0022E0FFF731FEE0734878FFF72DFE60730E
:10586C008878FFF729FEA073D5E72046FFF712FED4
:10587C00431C0DD086420BD900F5A83101F5C0713F
:10588C002046FFF796FE18B1042325746374DEE7F7
:10589C00012300206374207470BD00BF8F5F010072
:1058AC0080510100F7B5164600220C460546ADF8AE
:1058BC0004208DF8062018B90121084603B0F0BD6C
:1058CC000029F9D001A9FFF7DBFE01460028F3D12E
:1058DC002B7B2370E87BE0706F7B6770AA7BA270D8
:1058EC00002EEAD0FFF7DDFDE0703846FFF7D9FD5A
:1058FC0060701046FFF7D5FDA070DEE72DE9F34789
:10590C00914600220D460446ADF804208DF8062081
:10591C0018B9012002B0BDE8F0870029F9D0037C4A
:10592C00012B4FF0020352D001214374017401A9E1
:10593C00FFF7A6FE0028ECD13C274FF461689DF8D8
:10594C0005309DF804607B4308FB06369DF8063055
:10595C00287895F801A01E44AD78B9F1000F13D149
:10596C0007FB0AF108FB00112944B1423CBF01F5C9
:10597C00A83101F5C0712046FFF71BFE90B104233E
:10598C00637400232374C4E7FFF796FD0146504669
:10599C00FFF792FD784308FB01012846FFF78CFDC9
:1059AC000144E2E76FF0020223685A601A6842F081
:1059BC0002021A60074B1A6842F400321A609A68A5
:1059CC0042F400329A60012320746374A2E71846F3
:1059DC00A0E700BF000401401A4670B538B331B3DC
:1059EC00FFF758FD4FF461660546B0FBF6F418203E
:1059FC00B4FBF0F300FB1343D8B206FB14533C2664
:105A0C00B3FBF6F4E5B206FB1434E4B208704D7047
:105A1C008C7072B1FFF745FD08702846FFF741FD09
:105A2C0048702046FFF73DFD8870002070BD0120B6
:105A3C00FCE71046FAE770B50446A0B1037C012BD5
:105A4C004FF002032DD001250268057443741368CE
:105A5C0023F002031360FFF769FD064628B1042307
:105A6C0063740023237401201AE06FF00202236890
:105A7C0020465A604FF6FF721A625A6202F1804257
:105A8C00D2F8013402F2014223F400331360FFF721
:105A9C0064FD18B1042326746374E4E76574207400
:105AAC0070BD1846FCE70000036810B51A68044680
:105ABC00920708D55B689B0705D501F061F96FF07B
:105ACC00020223685A604FF40032024B5A610123E0
