:020000022000DC
:1070000000000420B5720200DD720200DF7202008F
:10701000E1720200E3720200E5720200000000006B
:10702000000000000000000000000000E772020005
:10703000E972020000000000EB720200ED72020033
:10704000C1900200EF720200E1930200EF720200B1
:10705000EF720200EF72020025910200EF7202004F
:10706000EF720200EF720200EF720200EF72020094
:10707000EF720200EF720200EF720200EF72020084
:10708000EF7202007D7E0200EF720200EF720200DA
:10709000EF720200EF720200D9A20200EF7202004A
:1070A000EF720200EF720200EF720200EF72020054
:1070B000EF720200EF72020000000000000000000A
:1070C000EF720200EF720200EF720200EF72020034
:1070D000EF720200EF720200EF720200EF72020024
:1070E000EF720200EF720200EF7202000000000077
:1070F00000000000EF72020000000000EF720200CA
:10710000000000000000000000000000000000007F
:10711000000000000000000000000000000000006F
:10712000000000000000000000000000000000005F
:10713000000000000000000000000000000000004F
:10714000000000000000000000000000000000003F
:10715000000000000000000000000000000000002F
:10716000000000000000000000000000000000001F
:10717000000000000000000000000000000000000F
:1071800000000000000000000000000000000000FF
:1071900000000000000000000000000000000000EF
:1071A00000000000000000000000000000000000DF
:1071B00000000000000000000000000000000000CF
:1071C00000000000000000000000000000000000BF
:1071D00000000000000000000000000000000000AF
:1071E000000000000000000000000000000000009F
:1071F000000000000000000000000000000000008F
:1072000010B5054C237833B9044B13B10448AFF3E0
:1072100000800123237010BD002500200000000025
:1072200004A8020008B5034B1BB103490348AFF3A0
:10723000008008BD000000000425002004A8020012
:10724000154B002B08BF134B9D46A3F5803A002138
:107250008B460F461348144A121A03F00CF90F4BD1
:10726000002B00D098470E4B002B00D098470020F1
:10727000002104000D000D48002802D00C48AFF397
:10728000008003F0A9F82000290002F06DFE03F051
:107290008FF800BF0000080000000420000000007C
:1072A00000000000002500203C2C00200000000011
:1072B000000000000649074A074B9B1A03DD043B08
:1072C000C858D050FBDC01F0EBFBFFF7B9FF000022
:1072D000DCA802000023002000250020FEE7FEE7D6
:1072E000FEE7FEE7FEE7FEE7FEE7FEE7FEE7FEE776
:1072F000F0B595B0002415460F4608461E4601F02D
:107300002BFB384623460895082205A91A9D0996A5
:107310000D950A948DF82C400C9401F077FB9DF8A4
:1073200014308DF81140DDE9061003F00302012A44
:10733000CDE9020127D0022A04D0384601F010FB23
:1073400015B0F0BDBDF81650C3F3C2038DF8103070
:10735000AD090826082D2C4628BF082433462246AE
:107360000EA9384601F052FB2D1B214608AB02AA9C
:107370000EA8264400F092FB002DEBD1384601F018
:10738000EFFA15B0F0BDBDF81460059DC6F3831685
:10739000C3F3C204B2000EA9384608238DF810408A
:1073A000C5F3952501F032FB08AB324628460EA9FD
:1073B000009302AB00F0CCFA384601F0D1FA15B0D8
:1073C000F0BD00BF704700BF00B583B0044B009311
:1073D000044A4023FFF78CFF03B05DF804FB00BFB5
:1073E000E97302002025002038B50E480E4D0378C1
:1073F0000E4CEB5C0025D2B2257053B90C3002F074
:107400007FFA58B90A4B1B7813B12378002BFCD0B4
:1074100038BD043002F052FD0028F3D000F0EEFB3E
:10742000F0E700BF00230020382C0020602500205A
:107430001C25002070B51348134A0378D35C88B02C
:10744000DBB90C3002F0D8F9104D0FCD6C460FC4EB
:1074500095E80F0008AD1F2645F8206D84E80F0061
:1074600029460022074801F0ABFD08B100F0C6FB39
:10747000074B00221A7008B070BD043002F06AFC9D
:10748000E2E700BF00230020382C0020CCA402003B
:107490001C250020F0B52F4C85B004F5836000F06A
:1074A0008BFD04F2144000F087FDA368DAB2D01C13
:1074B00004EB800114F8200010F0040041D09F1C60
:1074C0000E7806F00306012E3D4633D0022E02F15F
:1074D000030621D004EB86010028F1D104EB8202DF
:1074E0000133D2680192DBB204EB830302F00302A2
:1074F000012ADE6827D0022A21D1BDF806309B0977
:107500000333360C05EB9305134800F061FD00B121
:10751000A560304605B0F0BD4B8807EB9313DAB297
:10752000D11C9F1C14F821003D4604EB810100F0A2
:107530000400D1E70B88C3F383133B44EFE7002635
:10754000E2E79D1CCAE7BDF80430C3F38313360C91
:107550001D44D9E734260020482A002021B9124BC7
:1075600003EBC00000687047104A0F49521AD20856
:1075700015D030B40E4D2B88834212D0002303E087
:1075800035F82340844205D001339A42F8D10020D7
:1075900030BC704701EBC300006830BC7047104638
:1075A00070470846F8E700BF4CA80200C4A80200D4
:1075B00000250020094B013903EBC00003290BD83B
:1075C000DFE801F0020806040220704740797047A6
:1075D0000079704704207047002070474CA80200D3
:1075E000704700BF2DE9F04182B002AB002203F8E2
:1075F000012D334C07461846884600F0EBFBD4E9D2
:10760000015303F580735B1B012B56D804F21C4613
:107610000121304600F0B8FCFFF73CFF0146304640
:1076200000F0B2FCD4E9012303F580739B1A012B0F
:10763000EED9D3B20333023205219DF8070044F896
:107640002310626000F0ECFB00211E4800F07AFC81
:1076500080F310006B1CDBB204EB83030004EDB27B
:10766000033540EA1740D86014F8253067F3C503A6
:1076700004F8253034F825306FF3891324F82530C9
:1076800054F8252068F39F221346012161F301037A
:107690006FF3820344F8252004F8253023781BB9C2
:1076A00006E000F011F818B1D4E901329A42F8D19D
:1076B000FFF796FF02B0BDE8F0812A46B9E700BFA8
:1076C00034260020502A00202DE9F0438A4C002364
:1076D00085B0C4F81834BFF34F8FA568EAB2D31C45
:1076E00004EB830114F82330580718D566680B782B
:1076F00003F00303012B42D0022B03D14B88023548
:1077000005EB9315EAB2D4F81804D31C04EB8301FB
:1077100028B9AE4239D914F823305B07E7D404EB1B
:1077200082026B1CD2680192DBB204EB830302F08D
:107730000302DB680293022A05F1020600F08C8046
:10774000012A26D0D4F810543DB12B6828469B68F6
:107750009847EB681D68002DF7D16848684B694968
:10776000C01AC008000440F00200FFF73BFFD4E954
:107770000130C01A18BF012005B0BDE8F0830B88A6
:107780000235C3F383131D44BCE7A66005B0BDE812
:10779000F083BDF804205C48C2F38313062B28BF96
:1077A000062363F3891202339900ADF8042001F037
:1077B00091F807460028C5D001F0CEF80023082232
:1077C00001A9384601F0EEF8BDF8043013F4707FDB
:1077D00000F08F806FF00109A9EB05090825F1B2CF
:1077E00003312B46042204EB8101384601F0DAF81C
:1077F000BDF8043006F1010809EB0802C3F3831356
:107800009342464605F10405E9D8D4F81834002B14
:1078100065D1D4F8105465B1EB685A7928463946D9
:10782000002A58D02B681B689847EB681D68002D0C
:10783000F2D1384601F094F804A8002300F80D3D79
:1078400000F0C8FAD4F818340BB9C4F808809DF8D1
:10785000030000F0E5FA8AE7BDF806302A484FEA4F
:1078600093194D46502D28BF502565F38F1305F110
:107870000801ADF8063001F02DF8074600283FF466
:1078800061AF6FEA06085FFA88F801F065F808F161
:10789000010801A900230822384601F083F84FEAC5
:1078A0008808F1B20331454504EB81011BD9A5EBF2
:1078B0000805082342463846EDB201F073F82A461F
:1078C00008F108031149384601F06CF809F1030882
:1078D00006EB980899E71D68002D9DD1A9E7384669
:1078E00001F03EF843E72A460823384601F05AF8EB
:1078F000ECE7B04689E700BF3426002074A80200F8
:107900004CA802000CA5020038A802004026002066
:10791000044BD3E901239A4201D0FFF7D5BE0020E2
:10792000704700BF3426002038B5084BD3F8104408
:1079300001251D704CB1E3685D71236820465B68CA
:107940009847E3681C68002CF5D138BD3426002028
:107950002DE9F04784B01D460C9C002394F80C8060
:107960002373EB8881460E461746002B40D1297AB7
:1079700005290ED06B7AA88873BB404B53F821A021
:107980000021FFF7EBFD524603463D49204600F03B
:107990007BFB062F09D8DFE807F0046A4249525DF5
:1079A00033004946204600F06FFB2B7A052B05D0AB
:1079B0006B7A5BB93349204600F066FB204600F045
:1079C00057FB84F80C8004B0BDE8F0872E4A2F499D
:1079D000204600F059FBEDE7FFF7ECFD2C4B2B495F
:1079E00053F82020204600F04FFB297AA888C4E7EE
:1079F000254A00922749284A204600F045FBB6E771
:107A0000D6E90410D6E900230390D6E902070291D3
:107A1000CDE900074946204600F036FBC5E7494658
:107A2000D6E90023204600F02FFBBEE7B168D6E977
:107A3000002320460091494600F026FBB5E7D6E931
:107A40000201D6E90023019100904946204600F04A
:107A50001BFBAAE7D6E90371B068D6E900230291BF
:107A6000CDE900074946204600F00EFB9DE732684D
:107A70004946204600F008FB97E700BF98A50200A2
:107A800088A5020094A502007CA5020084A502003E
:107A900024A5020064A502005CA50200082900D903
:107AA00070472DE9F04F1D46904600232A7B2B732B
:107AB00085B0B8F80630039207460E46002B7BD1FE
:107AC00098F80810052911D098F80930B8F8040082
:107AD000002B63D13C4B53F821400021FFF73EFDC2
:107AE000224603463949284600F0CEFADFF8FCB0BA
:107AF000DFF8FC90002405E03A5D013400F0C4FAA0
:107B0000082C09D0A64249462846F5D859460134E2
:107B100000F0BAFA082CF5D12D49DFF8D8B0DFF81B
:107B2000D890284600F0B0FA00240CE017F804A022
:107B3000BAF17E0F23D92E2249462846013400F09F
:107B4000A3FA082C08D0A642F0D85946284601349A
:107B500000F09AFA082CF6D198F80830052B02D0DC
:107B600098F80930A3B91B49284600F08DFA284639
:107B700000F07EFA039B2B7305B0BDE8F08F02F096
:107B80004FFC50445246437813F0970FD3D0D3E7BD
:107B9000114A1249284600F077FAE4E7FFF70AFD98
:107BA0000F4B0E4953F82020284600F06DFA98F844
:107BB0000810B8F804008DE7074A009209490A4AFC
:107BC000284600F061FA7BE798A5020088A502002C
:107BD00054A5020094A502007CA5020084A5020021
:107BE00024A5020064A502005CA5020050A50200C5
:107BF00048A5020090A5020058A5020000B585B076
:107C000000230390194601AA44F20100CDE9013393
:107C100000F004F805B05DF804FB00BF10B572B6C3
:107C2000FFF782FEFFF774FE0028FBD1104B114CCA
:107C30001149E41AE408240444F00100FFF7D2FCDF
:107C40000E4B1B68DB0700D500BE44F002000C4958
:107C5000FFF7C8FCBFF34F8F0A490B4BCA6802F409
:107C6000E0621343CB60BFF34F8F00BFFDE700BF5F
:107C70004CA8020074A8020010A60200F0ED00E07B
:107C80001CA6020000ED00E00400FA052DE9F04F0B
:107C900083B002AD002405F8044D824628461746FD
:107CA0000E4600F097F8DAE90223013308BFB2F17B
:107CB000FF3F07D09DF8040000F0B2F8204603B063
:107CC000BDE8F08F204800F0C3F8204B2049D3E9ED
:107CD0000023D1E9008912EB000B43F1000CCC45E5
:107CE00008BFC3455846614603D21BF180704CF172
:107CF0000001831941F10004CAE902349DF804002F
:107D000000F08EF8DAF81030CAF818700BB1CAF823
:107D1000106029460F4800F0BBF880B10024C0F87D
:107D200004A0047029460B4800F0DEF80028C6D0F5
:107D3000054800F091F8204603B0BDE8F08F04201C
:107D400003B0BDE8F08F00BF1C230020582A00209C
:107D5000702A0020602A002070B582B002AC002595
:107D600004F8045D0646204600F034F8D6E9022304
:107D7000013308BFB2F1FF3F18D04FF0FF324FF090
:107D8000FF339DF80400C6E9022300F049F82146BC
:107D90000E4800F07DF880B1012346600370214653
:107DA0000A4800F0A1F858B902B070BD9DF804006F
:107DB00000F036F8284602B070BD042002B070BD55
:107DC000034800F049F82846EEE700BF602A00208B
:107DD0001C23002070B4EFF3108472B60D4B9A6828
:107DE000AAB90D490D4E01259D60D1F8805035404E
:107DF0001D60C1F88060D1F884505D604FF0FF33A2
:107E0000C1F88430027004B962B670BC70470123B7
:107E10000370F8E72C2C002000E100E0FC06FFBD19
:107E2000094B9A687AB170B910B4EFF3108172B649
:107E3000064A1C6814605C685460986001B962B6B8
:107E40005DF8044B704770472C2C002000E100E0E7
:107E50000368D3F80405704790F90430002B09DB60
:107E60005A09403203F01F030121034801FA03F3CA
:107E700040F82230704700BF00E100E0024A034BA7
:107E800010681B68184700BF782A0020802A00204D
:107E900030B482B050E8013F9DB2C4892544848942
:107EA000A54228BF2D1B0489A54202BFBFF32F8F17
:107EB000002207E0C5EA030540E80154002CE9D19F
:107EC0004FF001028DF803200193019B9DF80320E0
:107ED0000B602AB10B880068184402B030BC7047B0
:107EE00002F0FF031846F8E70A884B889A4201D04F
:107EF0000020704750E8012FC2EA024240E8012307
:107F0000002BF7D10120704701F01F024B0901211E
:107F100000EB8300914000F01FB800BF01F01F028A
:107F200001234909934000EB8100D94300F020B8B8
:107F30004B0901F01F0150F82300C84000F0010078
:107F4000704700BF50E8002F0B4640E8003C9CF013
:107F5000000FF7D11046704750E8003F43EA010296
:107F600040E8002C9CF0000FF6D11046704700BF8F
:107F700050E8003F03EA010240E8002C9CF0000FAB
:107F8000F6D11046704700BF50E8003F03EB0102F6
:107F900040E8002C9CF0000FF6D11046704700BF5F
:107FA00050E8003FA3EB010240E8002C9CF0000FDA
:107FB000F6D11046704700BF012350E8002F42EA77
:107FC000030C40E800C191F0000FF6D16046704705
:107FD000002350E800CF0CEA030240E8002191F0B2
:107FE000000FF6D160467047F0B583B002AB0025B4
:107FF00003F8015D04461846FFF7ECFED4E90031B2
:108000001A688A4210D9511E19602168A3680F6846
:1080100012F8015C0A79268AE068DB1BDBB29A421F
:1080200006FB050538BF0B719DF80700FFF7F8FE4A
:10803000284603B0F0BD00BF30B583B002AB0022CC
:1080400003F8012D054618460C46FFF7C3FE2A68C3
:108050001368591C1160E9682A8A641AB4FBF2F4A7
:108060001C709DF80700FFF7DBFE03B030BD00BFBA
:10807000826842B110B504464369016800699847B7
:108080000023A36010BD70470EB400B582B0039901
:1080900029B102AA04AB42F8043D00F0A9F802B0ED
:1080A0005DF804EB03B070472DE9F04F924683B0C2
:1080B00051450F4605461E46DDE90CB2C0F09280E0
:1080C0000B464FF00108B3FBFAF39A4508F101089B
:1080D000F9D9B04538BFB04612F00109A96802D1FC
:1080E000BBF1000F54D1012402E0013E0AFB04F46D
:1080F000012EFAD8B7FBF4F08245F7D93B4E02E0E7
:10810000A968B7FBF4F0335C2A680A2B04FB1077EC
:1081100002EB010E01F1010029D0A8608EF80030B9
:10812000D5E90131994202D32846FFF7A1FFB4FBFC
:10813000FAF4002CE4D1B9F1000F15D0BBF1000F17
:1081400012D0C34510D92024AB682A68591CA960F5
:10815000D454D5E901329A420BF1FF3B14D2BBF162
:10816000000F01D0C345EFD103B0BDE8F08FA86088
:108170004FF00D005054D5E9011088421DD22968F6
:1081800001EB000E0130C8E72846FFF771FFE6E774
:10819000930722D42024C345A5D92B684A1CAA6082
:1081A0005C54D5E9013199420BF1FF3B10D2BBF190
:1081B000000F98D0C345F0D195E728460193FFF70B
:1081C00057FFAA682968019B501C01EB020EA4E727
:1081D0002846FFF74DFFA968E9E7002E0CBF3024C1
:1081E0002024D8E74FF0010873E700BF38A602004B
:1081F000002900F0B9822DE9F04F054687B091467D
:108200000C460E78DFF8C8A64FF00D0B13E0AB68F4
:1082100028680A2E03F1010200EB030100F04B82F3
:10822000AA600E70D5E901329A4280F01B8126784F
:10823000002E00F01E810134002E00F01A81252E40
:10824000E5D12346002713F8012B2D2A00F0E38007
:10825000302A00F0E4802B2A00F0D4802A2A00F093
:108260000D81A2F13006F1B2092903D97DE2A1F115
:1082700030060346184606EB860110F8012BA2F1E2
:108280003004092C02EB4101F1D92E2A00F00281C1
:108290004FF00008013301E013F8012B02F0FB015D
:1082A00068291C46F8D0253A532AC0D801A353F8B0
:1082B00022F000BF9F8602002F8202002F82020060
:1082C0002F8202002F8202002F8202002F820200E2
:1082D0002F8202002F8202002F8202002F820200D2
:1082E0002F8202002F8202002F8202002F820200C2
:1082F0002F8202002F8202002F8202002F820200B2
:108300002F8202002F8202002F8202002F820200A1
:108310002F8202002F8202002F8202002F82020091
:108320002F8202002F8202002F8202002F82020081
:108330002F8202002F8202002F8202002F82020071
:108340002F8202002F8202002F8202002F82020061
:108350002F8202002F8202002F8202002F82020051
:108360002F8202002F8202002F8202002F82020041
:108370002F8202002F8202002F8202002F82020031
:10838000838602002F8202002F8202002F820200C9
:108390002F8202002F8202002F8202002F82020011
:1083A0002F8202002F8202002F8202002784020007
:1083B000098602002F8202002F8202002F82020013
:1083C0002F820200098602002F8202002F82020003
:1083D0002F8202002F8202002F8202002F820200D1
:1083E000718502002F8202002F820200E9840200C0
:1083F0002F820200CD8402002F8202002F82020011
:108400008386020047F004071C46234613F8012B1D
:108410002D2A7FF41DAF47F001071C46F5E747F012
:1084200002071C46F1E7D9F800301A1DC9F80020F0
:108430001E78AB680A2E0CD12A68591CA96002F874
:1084400003B0D5E90123934203D32846FFF710FE7A
:10845000AB682A68591CA960D654D5E901329A4202
:10846000FFF4E5AE2846FFF703FE2678002E7FF4E2
:10847000E2AE2B7B23BB07B0BDE8F08FD9F800201C
:10848000111DC9F80010166862782E2A04F1020046
:108490007FF4FEAE5A78A2F13003092B00F2BD81C1
:1084A0004FF0000808EB880802EB480810F8012F8D
:1084B000A2F13003092BA8F13008F3D90346E9E60D
:1084C000284607B0BDE8F04FFFF7D2BDD9F800301D
:1084D0001A1DC9F8002019680197434600960A2220
:1084E0002846FFF7E1FDA2E6D9F800301A1DC9F8C9
:1084F0000020D3F80080FB0700F1E880B8F1000FFE
:1085000000F0A181404601F0BEFF0746BE4215D9EA
:10851000A6B1202100E08EB1AA682B68501CA8608B
:108520009954D5E901329A4206F1FF3604D3284620
:108530000391FFF79DFD0399BE42ECD108F1FF388E
:1085400018F8016F002E3FF472AEAB6828680A2E4F
:1085500003F1010200EB030100F09081AA600E70AC
:10856000D5E901329A42EBD32846FFF781FDE7E7D0
:10857000D9F80020131DC9F80030AB6829681768C6
:10858000581C3022A860CA54D5E90123934280F0D8
:10859000E6802A68581C7821A860D154D5E90123C7
:1085A000934280F0D7800F2F03D93A4612090F2A41
:1085B000FCD84FF080560DE0AA6081F80080D5E924
:1085C00001329A4202D32846FFF752FD36093FF4A2
:1085D0002EAEAB68B7FBF6F21AF802802868B8F145
:1085E0000A0F06FB127700EB030103F10102E3D14E
:1085F000AA6000F803B0D5E901329A4280F04981BF
:108600002B6899180132D7E7D9F800301A1DC9F83C
:108610000020196881EAE173A3EBE173092B40F3B1
:108620000E81AA480122A0FB03C3DB08092B02F13B
:108630000102F8DC4245134638BF4346039307F076
:108640000203002E40F09580002B00F0B780B8F1B7
:10865000000F00F0F680F80740F1B0800029C0F26A
:10866000FF807A0700F1C88007F00303022B00F0B7
:10867000A780CDE9006743460A222846FFF714FD8C
:10868000D5E5D9F800301A1DC9F8002019680197FE
:108690004346009610222846FFF706FDC7E5AB6863
:1086A0002A68581C2521A860D154D5E901329A4284
:1086B000FFF4BDADD6E6AA6000F803B0D5E90132FB
:1086C0009A423FD2296811440132A9E54146A1EB03
:1086D000080311F8017BD7B1AB68D5F800C00A2FA9
:1086E00003F101020CEB030000F0AF80AA600770F9
:1086F000D5E901329A42EAD328460391FFF7B8FC44
:108700000399A1EB080311F8017B002FE4D19E42ED
:108710007FF68DAD202702E0002E3FF488ADA968DA
:108720002A68481CA8605754D5E90121914206F1F6
:10873000FF3604D328460393FFF79AFC039BB3420A
:10874000EAD174E52846FFF793FCAB6829685A1C08
:10875000194465E52846FFF78BFCAB6823E72846FC
:10876000FFF786FCAB6814E77047184600262346DF
:108770008BE5002920DB7A071ED41BB1B8F1000F6E
:108780003FF46CAFF8073FF569AFBEB1039BB3424E
:10879000BFF464AF2023AA68501CA86028688354E3
:1087A000D5E90102824206F1FF3640D236B1039A82
:1087B000B242F0D1164651E7013EDEE700264DE712
:1087C000B8F1000F7FF455AF002E6AD0039BB3427F
:1087D000BFF44FAF3023AA68501CA86028688354A8
:1087E000D5E90102824206F1FF3618D2002E58D098
:1087F000039AB242EFD13CE7AA68531CAB602B68E6
:108800002B209854D5E901329A42FFF42DAF284627
:108810000491FFF72DFC049926E7034638E5284626
:10882000CDE90413FFF724FCDDE90413DEE7284655
:10883000CDE90413FFF71CFCDDE90413B6E70122C0
:10884000F8E646460AE7474660E6AA600CF803B039
:10885000D5E901329A4226D22B689818013245E7B1
:10886000AA68531CAB602B682D209854D5E90132BF
:108870009A42C1F10001FFF4F7AEC8E7AA6000F820
:1088800003B0D5E901329A4217D229681144013266
:1088900064E62846FFF7ECFBA9682B684A1C1944DC
:1088A0008AE60026E5E628460391FFF7E1FBA86883
:1088B0002B680399421C184418E72846FFF7D8FB99
:1088C000AB6829685A1C194448E600BFCDCCCCCC13
:1088D00038A602002DE9F041058ACE1C043D2E4445
:1088E0000746B6FBF5F6FFF77FFB78B3F6B24FF419
:1088F0008073013E0446C5800760838027D0804690
:10890000002509E06379AE4203F101036371C8F801
:108910000000076080461AD03846FFF765FB013536
:108920000028EFD16679721E14D0234601308242AE
:108930001B68FBD11F684EB1002523682146013515
:1089400038461C46FFF778FBAE42F6D1002420469D
:10895000BDE8F0812768EFE704300121FFF714BB81
:10896000F8B5012104460430FFF71AFBC0B200B18C
:10897000F8BD6679721E12D02346013082421B6810
:10898000FBD11F68002EF3D0002523682146013556
:1089900038461C46FFF750FBAE42F6D1F8BD2768BB
:1089A000F2E700BF2DE9F843C788467907FB06F6D2
:1089B000043E02EB030C0446664503F10400154631
:1089C0008846B0FBF7F238BFF51A07FB120012B168
:1089D000013A2468FCD13E1AAE4228BF2E469DB112
:1089E0004FF000090430AD1B2044324608EB09016A
:1089F00001F036FDAF42B14424683E464FF000001E
:108A000028BF2E46002DEDD1BDE8F8832DE9F843AF
:108A1000C7884679154607FB06F6043E05EB030CAE
:108A20001A1D664504468846B2FBF7F038BFF51AB2
:108A300007FB102110B101382468FCD17E1AAE4228
:108A400028BF2E469DB14FF0000904312144AD1BD3
:108A5000324608EB090001F003FDAF42B14424683F
:108A60003E464FF0000128BF2E46002DEDD1BDE857
:108A7000F88300BF01600B6843604A68934204BFFB
:108A800000234360704700BF436843B102689168A8
:108A90000B4443605268934204BF00234360704715
:108AA00010B4814B1B68082B21D0804AD2F8883043
:108AB00043F47003C2F88830BFF34F8FBFF36F8F5A
:108AC000794B1B68082B00F0AA804FF01023D3F8D5
:108AD0000022002AC0F2B680D3F80432002BC0F284
:108AE000B180734B734A1A605DF8044B70474FF0C6
:108AF00080414FF080520020C1F80C016E4BC1F84C
:108B00001001C1F83805D2F80414C3F82015D2F8C2
:108B10000814C3F82415D2F80C14C3F82815D2F899
:108B20001014C3F82C15D2F81414C3F83015D2F869
:108B30001814C3F83415D2F81C14C3F84015D2F831
:108B40002014C3F84415D2F82414C3F84815D2F8F9
:108B50002814C3F84C15D2F82C14C3F85015D2F8C9
:108B60003014C3F85415D2F83414C3F86015D2F891
:108B70003814C3F86415D2F83C04C3F868054F49AB
:108B8000D2F84004C3F86C050968D2F84424C3F84D
:108B90007025052937D84A4B5B5C13B1494B4A4ACB
:108BA0001A604A4B5B5C63B13F4B49491B68434ABF
:108BB000FB20C1F81805082B11687FF476AF052952
:108BC00021D8444B5B5C93B14348444B364C02681C
:108BD0001B682468394922F00F0203F00F03134386
:108BE000082C096803607FF460AF05290BD83C4B63
:108BF0005B5C43B12C4B3B4A1B684FF40071082B64
:108C000011607FF452AF4FF08043D3F80024D207B5
:108C10007FF54BAF6FF00102C3F8002445E7274B07
:108C20001B68052B08D94FF010224FF08043D2F873
:108C30000822C3F8582548E72B4AD35C002B3FF4A1
:108C400044AFF0E7294B0122C3F80425D3F80024F0
:108C5000002AFBD04FF0102312222449C3F800222F
:108C6000D1F80034002BFBD04FF0102212211F4B03
:108C7000C2F80412D3F80024002AFBD000221B49BA
:108C8000C3F80425D1F80034002BFBD0BFF34F8F7D
:108C90000649174BCA6802F4E0621343CB60BFF386
:108CA0004F8F00BFFDE700BF3001001000ED00E076
:108CB000242300200090D00300C0004034010010A5
:108CC00068A602008C5600404881030068A6020096
:108CD00000F0004068A60200E40E004058020010B8
:108CE00068A602004096024060A6020000E0014033
:108CF0000400FA05074B1B5C1F2B86BF03F01F0304
:108D000005494FF0A041012202FA03F3C1F80C35E6
:108D1000704700BF70A6020000030050074B1B5CA9
:108D20001F2B86BF03F01F0305494FF0A04101220E
:108D300002FA03F3C1F80835704700BF70A60200BD
:108D400000030050034BD3F810056FEA901000F0B9
:108D50000100704700030050C30706D4830742BFD9
:108D60002E4B0C22C3F81827704770B44FF0804385
:108D7000D3F84036DA0722D44FF0A0432749032224
:108D800040264FF480754FF40074C3F81827C3F8D9
:108D90002027C1F82427C3F83027C3F808654FF40B
:108DA0008052C3F80855C1F808458107C3F8082563
:108DB00003D51A4B0C22C3F8182770BC70474FF02C
:108DC0001023D3F8043303F00703072BD4D1144B3B
:108DD0000122C3F80425D3F80024002AFBD04FF069
:108DE00010210020D1F804230D4C22F0070242F09C
:108DF0000402C1F80423C3F80405D4F80034002B9E
:108E0000FBD0BFF34F8F0749074BCA6802F4E062FB
:108E10001343CB60BFF34F8F00BFFDE7000300504B
:108E200000E0014000ED00E00400FA0510B570B16B
:108E300001280BD10D4C2369A0703BB1D3E900236D
:108E40000120226198472369002BF7D110BD074C00
:108E5000A36801226270002BF8D0D3E90023002020
:108E6000A2609847A368002BF7D1EFE7842A00207F
:108E700070B910B5074CA368012262703BB1D3E909
:108E800000230020A2609847A368002BF7D110BDF3
:108E9000704700BF842A002030B5012883B025D058
:108EA0001AD3032816D100F0DDF802A80023264CBF
:108EB00000F8013DFEF78EFFE368013BE360E368E5
:108EC00023B9224BD3F80054002D36D09DF807006B
:108ED000FEF7A6FF03B030BD1D4B0122C3F8802072
:108EE000BFF34F8FBFF36F8F03B030BD02A80023D5
:108EF000154C00F8013DFEF76DFF237853B1E36890
:108F00009DF8070001330122E360A270FEF788FF9D
:108F100003B030BD0F486360A3602361E36000F0DD
:108F200093F801F0D3F960B10123084A2370D2F815
:108F30000024002AE3D0A370E1E700F0A5F8A570B3
:108F4000C4E700F08FF8EFE7842A0020000001401A
:108F500000E100E02D8E020030B585B00478456850
:108F60008DF80040D0E90240064A074B039053F8C1
:108F7000213001958DF8084052F821106846984735
:108F800005B030BD982A0020A02A002030B585B059
:108F9000047845688DF80040D0E90240064A074B46
:108FA000039053F8213001958DF8084052F82110B4
:108FB0006846984705B030BD982A0020A02A0020B6
:108FC0002DE9F043DFF8748006784B7F08F806300F
:108FD0000D46074696460FCD89B06C460FC495E8FE
:108FE0000F003D78DFF85890DFF858C018F80550AA
:108FF00049F826E084E80F004CF82600049665B195
:10900000BEF1000F0B4A694607F1040008BF0022B9
:1090100000F086FD09B0BDE8F083BEF1000F064AFE
:10902000694607F10C0008BF002200F0F1FA09B010
:10903000BDE8F083598F02008D8F0200382C00208C
:10904000A02A0020982A0020054A13792BB9012173
:10905000106053711846117170478520704700BF2A
:10906000A82A0020074B1A68D20704D4C02283F82C
:10907000002301221A604FF080430122C3F8182513
:10908000704700BF00E100E010B40B4B0B494FF0FC
:10909000804200200224C2F8084383B018601B6895
:1090A0000193012301980B60D2F81834DB03FBD441
:1090B00003B05DF8044B7047040100400C00004011
:1090C00010B5154B1A6882B07AB10021134A1960A5
:1090D0001B68507900934FF080410123009CC1F838
:1090E000083310B91168537188470D4B1A6882B163
:1090F00000221A601B6801934FF080420221074B47
:109100000198C2F808131B68012002B0BDE81040A6
:10911000184702B010BD00BF00010040A82A00207F
:10912000040100402DE9F04F002385B0CDE9023362
:109130009D4A1168012900F0C1801E469B4B1A68A8
:10914000012A00F0AD809A4B1A68012A00F09A803B
:10915000984B1A68012A57D0974B1A68012A63D096
:10916000964B1A68012A6FD0954B1A68012A7BD05A
:10917000944B1A68012A3AD0934B1A68012A13D1EA
:1091800000221A601B6801934FF0A042019BD2F8A5
:1091900020158E4B0291C2F82015D3F8202503929A
:1091A00046F00046C3F8202516F0FF0F1AD0884F6E
:1091B00000240125A30003F180432E4203F5C043A0
:1091C0004FEA45050BD0D3F8100557F82420D3F803
:1091D0001015C0F30520C1F3014102B190470134DD
:1091E000082CE7D1002E75DB05B0BDE8F08F794A79
:1091F000D2F804231206BFD500221A601B68009320
:10920000009B46F08006B7E7724AD2F804231507A0
:10921000A2D500221A601B680093009B664B1A6857
:10922000012A46F008069BD16A4AD2F80423D406E4
:1092300096D500221A601B680093009B5F4B1A684A
:10924000012A46F010068FD1624AD2F80423900614
:109250008AD500221A601B680093009B584B1A683D
:10926000012A46F0200683D15A4AD2F80423510637
:109270007FF57EAF00221A601B680093009B46F0CA
:10928000400675E7534AD2F8042357077FF560AFCD
:1092900000221A601B680093009B46F0040657E703
:1092A0004C4AD2F8042392077FF54DAF00221A6092
:1092B0001B680093009B46F0020644E74549D1F83D
:1092C000046316F001063FF439AF1360136800938E
:1092D000009B33E7404EDFF8F480A6F164073F4C73
:1092E000012514F9011B4B1C3CD0C9B204AB21F081
:1092F000C00003EBD00201F0070312F8082C05FAB6
:1093000003F31A422ED01F2887BF01F01F0CC2465C
:1093100084464FF0A04A0AEB8C033A18D3F800E7D2
:10932000D3F8009792F9302029F44039C3F8009718
:10933000CEF3014ED3F8009757F82220BEF1020F6A
:1093400014BF4FF4003B4FF4403B05FA0CFC49EAD4
:109350000B09C3F80097CAF820C51AB18909032977
:1093600015D19047B442BCD14FF0A042D2F820357D
:109370000293C2F82035D8F820250392C8F820259A
:10938000002BACD1002AAAD105B0BDE8F08FBEF108
:10939000020F05D0BEF1030FE4D10229E2D1E0E7CC
:1093A0000129DFD1DDE700BF00610040046100401A
:1093B000086100400C6100401061004014610040F1
:1093C000186100401C6100407C61004000030050B7
:1093D000B02A002000600040142B0020102B002039
:1093E000014B1B68184700BF1C2B0020104B9842F4
:1093F00001D00020704730B583B002A8002300F8E8
:10940000013D0D46FEF7E6FC0A4B1C7934B19DF890
:109410000700FEF705FD112003B030BD01229DF8C5
:1094200007001D601A71FEF7FBFC2046F4E700BF41
:10943000002000401C2B0020034B984203D1034B1B
:1094400000221A601A717047002000401C2B002077
:1094500030B56D4AD2F8043399058BB068D5D2F88F
:109460002431002B64D00023C2F82431D2F82431F7
:1094700001934FF40171654B0198C2F8081393F8FA
:10948000291009B9012151605F4902228DF8182085
:10949000D1F88024C1F880249869D9680992002203
:1094A000CDE90710C3E90622D3E9001406A8A047B6
:1094B000554AD2F81C31CBB1544B5869196A8842CD
:1094C0006BD851490022C1F81C21D1F81C1102911E
:1094D0000299596951B1586999688DF81820089016
:1094E0005A61079106A8D3E900129047464AD2F87C
:1094F0004431DBB10021454BC2F84411D2F844019C
:1095000093F829100090009809B1012111609A691F
:1095100062B10022586AD9689A610122CDE9071028
:109520008DF8182006A8D3E9001290470BB030BD83
:10953000354AD2F804335B07BAD5D2F80831002B8C
:10954000B6D0324B996900293CD00021C2F80811ED
:10955000D2F8081104910499D868596AD2F81825EC
:1095600042545A6A996901325A625A6A8A429FD1B0
:10957000DA691968002A2ED0D8685D6A1C699A6178
:10958000079000220120DC60DA615A628DF8180031
:1095900008955B6806A898478AE793F8281001F0B9
:1095A000FF0000298DD1C2F81C01D2F81C110391D3
:1095B00003999C68186A196A205C01311962C2F823
:1095C0001C0593E7C2F80811D2F808010590059828
:1095D000D2F81825C9E793F8292012B90A4A0120C0
:1095E0005060094A4FF40170C2F80803586ADA68FB
:1095F00008900024012007928DF818005A689C6199
:1096000006A8904754E700BF00200040242B00200C
:109610002DE9F041724F06792C2505FB067582B0C5
:1096200095F82A30002B40F09C800D4604466D4989
:1096300000689046FFF7DAFE002840F08E802B6825
:10964000591C19D01F2B4FF001028ABF66494FF0F9
:10965000A04103F01F0302FA03F3C1F808352B6899
:109660001F2B86BF03F01F035F4A4FF0A04203F594
:10967000E073032142F823106B685A1C0BD01F2B98
:1096800086BF03F01F03584A4FF0A04203F5E07372
:10969000002142F823102368AA69C3F82425297DF4
:1096A0006B7D22680B43C2F86C35D5E90012236844
:1096B000C3F81425C3F80C152B7D012B55D02C2392
:1096C00003FB06F3FA18C2F804802A69FA50B8F1CD
:1096D000000F2FD022682B7F444D0021C2F81C11AF
:1096E000D2F81C2100922268DDF800C0C2F84411B3
:1096F000D2F84411226801910199C2F804532168FB
:10970000090B4AB25B01002ADBB263DB02F1604263
:1097100002F5614282F8003321680A0B53B2002B34
:1097200009DB01215B09324D02F01F0201FA02F24E
:1097300045F8232021682C2303FB06730022012512
:109740000424C1F8004583F82A50C3E9062283F8AF
:1097500029205A6102B0BDE8F081112002B0BDE8B5
:10976000F081082002B0BDE8F081AB68591C0BD035
:109770001F2B86BF03F01F031B4A4FF0A04203F5C7
:10978000E073002142F82310EB685A1C1BD01F2BFA
:109790004FF001028ABF14494FF0A04103F01F03AC
:1097A00002FA03F3C1F80835EB681F2B88BF03F0FA
:1097B0001F0303F5E0738CBF0B4A4FF0A042032157
:1097C00042F82310EB682268A968C2F80835C2F88D
:1097D000101574E7074A01F00F010A4413769BE75E
:1097E000242B00205194020000030050800002004E
:1097F00000E100E0FCEC00E0F8B53D4F04790268C0
:109800002C2303FB047300215B68C2F80015B3B17D
:109810000368384AC3F808230368190B4AB2002AC0
:109820000EDB520920320123334D01F01F0103FAF0
:1098300001F145F82210BFF34F8FBFF36F8F03681C
:10984000D3F80C65D3F81455D3F80825D3F81015C0
:109850004FF0FF3CC3F814C5C3F80CC50368664558
:10986000C3F808C5C3F810C50CD01F2E86BF06F07C
:109870001F06224B4FF0A04306F5E0764FF0020C96
:1098800043F826C06E1C0BD01F2D86BF05F01F05A8
:109890001A4B4FF0A04305F5E075022643F825600A
:1098A0004D1C0BD01F2986BF01F01F01134B4FF039
:1098B000A04301F5E071022543F82150531C0BD061
:1098C0001F2A86BF02F01F020C494FF0A04102F58B
:1098D000E072022341F822300068FFF7ADFD2C232F
:1098E00003FB0474002384F82A306360F8BD00BFD2
:1098F000242B00208402020000E100E0000300505D
:10990000F0B5314E05792C2303FB056385B05C6906
:10991000002C53D15A6199601C6283F82840026878
:10992000C2F81C41D2F81C11026802910121029F69
:1099300091600268D3F808C0C2F81C41D2F81C112B
:1099400001910199D3F820E0196A5F681CF80EE0D4
:1099500001311962C2F81CE517B1204605B0F0BD0F
:109960005C691A6A0168944203D819E093F82820C8
:109970003ABBD1F81C21002AF8D0C1F81C71D1F8EB
:109980001C210392039AD3F820E01A6A1CF80EE017
:1099900001321A62C1F81CE51A6A9442E9D80168DA
:1099A000D1F81C31002BFBD00123CB6000202C23ED
:1099B00003FB056500236B6105B0F0BD112005B008
:1099C000F0BD0F20F3E700BF242B0020F0B5524B71
:1099D000D3F824218BB0002A6ED00021C3F82411C3
:1099E000D3F82421049202228DF81820049AD3F887
:1099F00080044A4AC3F880040990D3F83C05D36830
:109A00000890C2E9061107931168536806A89847A1
:109A1000414BD3F84421BAB10021404AC3F8441164
:109A2000D3F8444190690394039C68B1D3F83C3562
:109A3000D06808930123C2E9061107908DF8183009
:109A400006A8D2E900139847334BD3F82021BAB1C6
:109A50000021C3F82011D3F82021029201202F4ABF
:109A6000029CD860506958B1D3F84C0593680890AF
:109A70008DF818105161079306A8D2E90013984792
:109A8000254BD3F85821AAB10021C3F85811D3F8B7
:109A90005801224A01900198506958B1D3F84C05F9
:109AA000936808908DF818105161079306A8D2E9C1
:109AB000001398470BB0F0BDD3F810110029A7D0C0
:109AC000C3F81021D3F81011144805910599816944
:109AD000D3F83C458C429BD1C569C768D0E90016D4
:109AE0008DB1D3F800C285612CF02005C261C3F8A6
:109AF00000520369C3600122CDE907748DF8182074
:109B000006A8B04784E701238561CDE907748DF885
:109B1000183006A8B0477BE700200040502B0020FB
:109B20002DE9F0430779854E4FEAC70808EB070592
:109B300006EB850587B095F82030002B40F0BA8001
:109B4000894604467E4900681546FFF74FFC002809
:109B500040F0AC80D9F80030591C1AD01F2B4FF0C0
:109B600001028ABF77494FF0A04103F01F0302FAB8
:109B700003F3C1F80835D9F800301F2B86BF03F076
:109B80001F03704A4FF0A04203F5E073032142F82F
:109B90002310D9F804305A1C0BD01F2B86BF03F0BA
:109BA0001F03684A4FF0A04203F5E073002142F81A
:109BB00023102368D9F81820C3F8242599F8141025
:109BC00099F8152023680A43C3F86C25D9E90031B8
:109BD0002268C2F80C35C2F8141599F81430012B1C
:109BE0006CD008EB07029200B3185D60D9F8103012
:109BF000B3502168002D48D0002399F81C20C1F8EB
:109C00001031D1F8101101912168DDF804C0C1F8BC
:109C10002031D1F8201102912168DDF808C0C1F887
:109C20002431D1F8241103912168DDF80CC0C1F86A
:109C30004431D1F8441104912168DDF810C0C1F815
:109C40005831D1F85811236805913F4D0599C3F853
:109C500004532168090B53014AB2002ADBB267DBC7
:109C600002F1604202F5614282F8003321680A0B7A
:109C700053B2002B09DB01215B09344D02F01F02B6
:109C800001FA02F245F82320216808EB070306EBEE
:109C90008303002201250824C1F8004583F82050E1
:109CA000C3E906225A6107B0BDE8F083112007B06E
:109CB000BDE8F083082007B0BDE8F083D9F808308C
:109CC000591C0BD01F2B86BF03F01F031D4A4FF0FA
:109CD000A04203F5E073002142F82310D9F80C30BC
:109CE0005A1C1DD01F2B4FF001028ABF15494FF09F
:109CF000A04103F01F0302FA03F3C1F80835D9F8B5
:109D00000C301F2B88BF03F01F0303F5E0738CBFDB
:109D10000C4A4FF0A042032142F82310D9F80C302E
:109D20002268D9F80810C2F80835C2F8101558E7AB
:109D3000074A01F00F010A44137697E7502B0020E1
:109D4000CD990200000300501003420000E100E042
:109D5000FCEC00E02DE9F0410679544C0268F50076
:109D6000AB1904EB830382B05B68B3B1504BC2F80C
:109D7000083303681B0B59B200290EDB4909203157
:109D80000127DFF834C103F01F0307FA03F34CF88F
:109D90002130BFF34F8FBFF36F8FA91904EB8101FF
:109DA000D2F80032896923F02003C2F8003241B1B1
:109DB0000023C2F84431D2F84431009301230099C2
:109DC00053600023C2F85831D2F858310193AB19CF
:109DD000012104EB8303019FD1609969D2F85831C6
:109DE000002BFBD019B1D2F84431002BF6D0002360
:109DF000C2F8003503684FF0FF38D3F80CE5D3F80C
:109E000014C5D3F80815D3F81075C3F80C85C3F83A
:109E100014850368C645C3F80885C3F810850CD0BF
:109E2000BEF11F0F86BF0EF01F0E224B4FF0A04356
:109E30000EF5E07E022043F82E00BCF1FF3F0CD06F
:109E4000BCF11F0F86BF0CF01F0C1A4B4FF0A04344
:109E50000CF5E07C022043F82C00781C0BD01F2F5F
:109E600086BF07F01F07134B4FF0A04307F5E077BD
:109E7000022043F827004B1C0BD01F2986BF01F09E
:109E80001F010C484FF0A04001F5E071022340F89B
:109E900021301046FFF7D0FA354404EB8504002347
:109EA00084F82030636002B0BDE8F081502B0020C0
:109EB000100342000003005000E100E001F06043A5
:109EC000B3F1005F2CD1F0B40579264EEF007C1978
:109ED00006EB840482B0636923BB6261A1600268FF
:109EE000C2F82031D2F820C10268CDF804C0DDF8F4
:109EF00004C0C2F85831D2F8582100920268DDF847
:109F000000C0D4F814C0C2F84415C2F848C50268AD
:109F10000121916062684AB1184602B0F0BC7047F6
:109F200010207047112002B0F0BC7047036800E0B9
:109F3000B2B9D3F82011D3F858210029F8D07AB952
:109F40000122DA600268D2F85831002BFBD00020E1
:109F50003D4406EB85060023736102B0F0BC7047F8
:109F60000F20F5E7502B002008B50320FEF7F4FE84
:109F70000020FEF7E7FE38B10220FEF7BBFE00200E
:109F8000FEF7E0FE0028F7D10220FEF7C7FEEFE75C
:109F9000F0B50288112A83B0034649D036D9122A77
:109FA00008D0502A04D16C4DC188EA89914251D021
:109FB00003B0F0BD694C828821889142F8D1E189D3
:109FC0006589B1F5FA7F24BF6FF4F9700E185889CE
:109FD00038BF002685424FD8A58985424CD39B893E
:109FE000B34249D301F2F311994245D35A4B5B690D
:109FF0004FF480712181002BDAD00121ADF80620C9
:10A000008DF8041001A8984703B0F0BD102ACFD1F5
:10A01000C27B012ACCD1514C21884FF6FF7291426C
:10A020003CD04D4B9B69002BC2D004209847BFE722
:10A030004A4C828823889A42BAD16068FDF78CFE28
:10A0400018B1454B9B6903B198474FF6FF732380C6
:10A0500003B0F0BD028A022AAAD1404C8688278824
:10A06000B742A5D1123000F02DF9002856D1606812
:10A07000FDF772FE70B99BE7374D267A6068D5E927
:10A080000131002E08BF194600236372FDF7FEFD63
:10A0900000288DD0AB69002BB5D189E7304D82887F
:10A0A000228003CDC4F80E10E689C4F80A00B6F584
:10A0B000FA7F28BF6FF4F9754FF00001588AB4F8A1
:10A0C0000AC0217228BF7119234D8445EF8919D820
:10A0D000B4F80CC0844515D39B8A8B4212D306F288
:10A0E000F3169E420ED301216172002F7FF460AF00
:10A0F0006B69002B3FF45CAF8DF80410ADF80620BF
:10A1000001A880E700236372002F7FF451AF6068DD
:10A110006968FDF7BBFD0028BCD149E7637A63B9E4
:10A12000D5E90131267A60683A46002E08BF194603
:10A13000FDF7ACFD0028ADD13AE76B690022227231
:10A14000002B3FF435AF0122ADF806608DF80420F6
:10A1500001A898472CE700BF742B0020902B00200B
:10A16000A42B00202DE9F0470388B0F80490103BA1
:10A1700098B080460A2B1BD8DFE803F02F281A1A64
:10A180001A1A1A1A1A1D0600047A46482409032CC2
:10A19000494665D8FDF7C2FE032C63D049464248C4
:10A1A000FDF7BCFE022C61D049464048FDF7B6FEE3
:10A1B00018B0BDE8F087037A002BF9D1437A39480B
:10A1C0001B0749466AD4FDF7A9FEF1E7494638481E
:10A1D000FDF7A4FE18B0BDE8F087364A936818A8CA
:10A1E000DB4340F8603D5168FDF7C2FE009B0193E0
:10A1F000019B63B300273C46214601A8FDF798FE6A
:10A2000028B118AB03EB4703013723F8284C01347E
:10A21000142CF1D10D970DAE0FCE02AC0FC40FCEA2
:10A220000FC496E8070084E8070087B10DF10A0A19
:10A23000214E0AEB47073AF8025F204C2046294698
:10A240000434FDF76BFEA642F8D1BA45F3D1B9F15B
:10A25000130F12D90420FDF7D1FC18B0BDE8F08728
:10A26000FDF752FE49461048FDF74EFE49460F489D
:10A27000FDF74AFE18B0BDE8F08749460C48FDF7E7
:10A2800043FE49460D48FDF73FFE98F80F30022B7C
:10A290008ED149460A48FDF737FE89E7FDF734FEBF
:10A2A00086E700BFC42B0020C02B0020BC2B002061
:10A2B000B42B0020AC2B0020282C0020B02B002039
:10A2C000B82B0020007800F001007047014B18788F
:10A2D000704700BF282C002000B583B068460849AD
:10A2E000FEF7C8FB019B43B1D3E9002090476846C5
:10A2F000FEF7CAFB019B002BF6D103B05DF804FB0F
:10A30000B0A6020061DF7047134B1B781BB330B55A
:10A31000124D91B034240DF1020103A8ADF80240B2
:10A32000FFF7F0FF88B9294601A8FEF7A3FB029BBF
:10A33000002BF0D0D3E9002103A8904701A8FEF735
:10A34000A3FB029B002BF5D1E5E7052801D0FDF723
:10A3500055FC11B030BD7047292C0020C4A6020066
:10A360004BDF704710B5114C84B001A8FFF7F8FF20
:10A37000A8B9214602A8FEF77DFB039B002BF4D071
:10A38000D3E900210198904702A8FEF77DFB039BCB
:10A39000002BF5D101A8FFF7E3FF0028E9D005283D
:10A3A00001D0FDF72BFC04B010BD00BFDCA60200FD
:10A3B00008B5074B044613B10021AFF30080054BED
:10A3C0001868836A03B19847204600F071F800BF0F
:10A3D00000000000F4A6020070B50D4E0D4CA41B49
:10A3E000A4100025A54209D10B4E0C4C00F062F8D8
:10A3F000A41BA4100025A54205D170BD56F8253038
:10A4000098470135EEE756F8253098470135F2E7D1
:10A41000F8240020F8240020F8240020FC24002048
:10A42000044B054A1B681B6A002B08BF1346D3F870
:10A43000EC007047282300208C23002082B001B953
:10A4400001A942B14BB113780B601278101C18BFF0
:10A45000012002B070471046FBE76FF00100F8E7FB
:10A4600010B5431E0A44914200D110BD11F8014BB2
:10A4700003F8014FF7E702440346934200D17047C7
:10A4800003F8011BF9E7034613F8012B002AFBD15F
:10A49000181A0138704749B1FF2A85BF8A23036023
:10A4A0000A704FF0FF3098BF012070470846704790
:10A4B000FEE700BFF8B500BFF8BC08BC9E46704779
:10A4C000F8B500BFF8BC08BC9E467047FFFFFFFF11
:10A4D000FFFFFFFFFFFFFFFFFFFFFFFF0000000088
:10A4E000000000000000D60106010000C973020050
:10A4F00035740200C5730200756172745F6C6F671A
:10A500005F6261636B656E64000000004261636BB3
:10A51000656E647320666C75736865640000000086
:10A52000617070007CA50200ACA502005CA5020071
:10A53000B4A50200BCA50200C4A50200CCA502007F
:10A54000D4A50200DCA502002025303278000000EE
:10A55000202020007C000000256300001B5B313BB5
:10A5600033316D0025734C6F67732064726F7070A8
:10A570006564202825642925730D0A001B5B306D56
:10A5800000000000257300003C25733E2025733A2F
:10A59000200000000D0A000000000000E4A50200F9
:10A5A000ECA50200F4A50200FCA502001B5B313BF8
:10A5B00033306D001B5B313B33326D001B5B313B35
:10A5C00033336D001B5B313B33346D001B5B313B20
:10A5D00033356D001B5B313B33366D001B5B313B0C
:10A5E00033376D006572726F720000007761726EB2
:10A5F000696E6700696E666F0000000064656275D1
:10A60000670000006170705F627574746F6E0000A7
:10A61000466174616C206572726F72005379737455
:10A62000656D207265736574000000006170705F75
:10A6300074696D657200000030313233343536375D
:10A6400038394142434445467077725F6D676D7497
:10A6500000000000736F72746C6973740000000076
:10A6600000000000010100000100000000000000E7
:10A670000608290C636C6F636B000000434C4F436A
:10A680004B0000004750494F5445000050525300C2
:10A6900055415254000000005541525445000000FD
:10A6A0006E72665F626C655F6761747400000000C3
:10A6B00028A8020038A80200080000006E72665F39
:10A6C0007364680010A8020020A8020008000000BF
:10A6D0006E72665F7364685F626C650008A8020052
:10A6E00010A80200080000006E72665F7364685F65
:10A6F000736F63002C2300204300504F53495800D0
:10A700002E0000202020202020202020282828285B
:10A710002820202020202020202020202020202031
:10A720002020208810101010101010101010101081
:10A730001010100404040404040404040410101091
:10A74000101010104141414141410101010101013D
:10A7500001010101010101010101010101011010CB
:10A760001010101042424242424202020202020211
:10A77000020202020202020202020202020210109D
:10A780001010200000000000000000000000000089
:10A7900000000000000000000000000000000000B9
:10A7A00000000000000000000000000000000000A9
:10A7B0000000000000000000000000000000000099
:10A7C0000000000000000000000000000000000089
:10A7D0000000000000000000000000000000000079
:10A7E0000000000000000000000000000000000069
:10A7F0000000000000000000000000000000000059
:08A80000000000000000000050
:08A80800718E02000000000047
:10A8100065A1020000000000919F020000000000FE
:08A82000998E02000000000007
:10A8280009A302000000000065A302000000000068
:10A83800642500202C260020342600206C250020CA
:04A8480018000000F4
:10A84C007CA602000000000084A6020000000000AC
:10A85C008CA602000000000090A602000000000080
:10A86C0098A602000000000020A5020000000303CF
:10A87C0004A60200000000002CA60200000000004C
:10A88C0074A6020000000000A0A602000000030352
:10A89C00BCA6020000000303D0A6020000000303C4
:10A8AC00E8A602000000030348A602000000000016
:08A8BC0054A602000000000098
:10A8C400ECA4020000000000F8A4020014230020FD
:08A8D4006CC9FF7F01000000C8
:10A8DC0000000000002000400000000000200040AC
:10A8EC000000000000000000FF000000001001400C
:10A8FC00110004000090D0032C2300200000000065
:10A90C00000000000000000000000000000000003B
:10A91C00000000000000000000000000000000002B
:10A92C00000000000000000000000000000000001B
:10A93C00000000000000000000000000000000000B
:10A94C0000000000000000000000000000000000FB
:10A95C0000000000000000000000000043000000A8
:10A96C0000000000000000000000000000000000DB
:10A97C000000000000000000000000004300000088
:10A98C0000000000000000000000000000000000BB
:10A99C000000000000000000000000004300000068
:10A9AC00000000000000000000000000000000009B
:10A9BC000000000000000000000000004300000048
:10A9CC00000000000000000000000000000000007B
:10A9DC000000000000000000000000004300000028
:10A9EC00000000000000000000000000000000005B
:10A9FC000000000000000000000000004300000008
:10AA0C00000000000000000000000000000000003A
:10AA1C0000000000000000000000000043000000E7
:10AA2C00000000000000000000000000000000001A
:10AA3C0000000000000000000000000097A40200CD
:10AA4C003DA402000000000002A7020000A70200C3
:10AA5C0001A7020001A7020001A7020001A7020042
:10AA6C0001A7020001A7020001A7020001A7020032
:10AA7C0001A70200FFFFFFFFFFFFFFFFFFFFFFFF2C
:10AA8C00FFFF000001004153434949000000000052
:10AA9C0000000000000000000000000000000000AA
:10AAAC000000000000004153434949000000000031
:10AABC00000000000000000000000000000000008A
:10AACC00000000000000000025720200017202006C
:04000003200072B5B2
:00000001FF
