:020000040800F2
:100000000028002095440008DD440008DD44000875
:10001000DD440008DD440008DD4400080000000065
:10002000000000000000000000000000DD440008A7
:10003000DD44000800000000DD4400088F3800089F
:10004000DD440008DD440008DD440008DD4400080C
:10005000DD440008DD440008454300084B43000828
:1000600051430008574300085D430008DD44000881
:10007000DD440008DD440008DD440008DD440008DC
:10008000DD440008DD440008DD440008DD440008CC
:10009000DD440008DD440008DD4400086343000837
:1000A000DD4400087D490008DD440008914900084E
:1000B00095490008A949000800000000DD44000837
:1000C000DD4400080000000000000000DD440008DE
:1000D00000000000A1400008B94000080000000036
:1000E00079430008513D0008DD440008000000008D
:1000F0000000000000000000000000000000000000
:0C01000000000000000000005FF808F1A3
:10010C0010F8012B11F8013B012A28BF9A42F7D0B5
:10011C00D01A7047034613F8012B002AFBD1181A8A
:10012C00013870474FF0FF0C1CEAD0521EBF1CEA7E
:10013C00D15392EA0C0F93EA0C0F6FD01A4480EA59
:10014C00010C400218BF5FEA41211ED04FF0006342
:10015C0043EA501043EA5111A0FB01310CF000406E
:10016C00B1F5000F3EBF490041EAD3715B0040EA94
:10017C00010062F17F02FD2A1DD8B3F1004F40EB64
:10018C00C25008BF20F00100704790F0000F0CF037
:10019C00004C08BF49024CEA502040EA51207F3AFB
:1001AC00C2BFD2F1FF0340EAC250704740F40000D6
:1001BC004FF00003013A5DDC12F1190FDCBF00F0C7
:1001CC0000407047C2F10002410021FA02F1C2F175
:1001DC00200200FA02FC5FEA310040F1000053EA11
:1001EC004C0308BF20EADC70704792F0000F00F05F
:1001FC00004C02BF400010F4000F013AF9D040EA65
:10020C000C0093F0000F01F0004C02BF490011F4F8
:10021C00000F013BF9D041EA0C018FE70CEAD153F6
:10022C0092EA0C0F18BF93EA0C0F0AD030F0004C76
:10023C0018BF31F0004CD8D180EA010000F000402A
:10024C00704790F0000F17BF90F0004F084691F0E8
:10025C00000F91F0004F14D092EA0C0F01D1420222
:10026C000FD193EA0C0F03D14B0218BF084608D1EB
:10027C0080EA010000F0004040F0FE4040F4000035
:10028C00704740F0FE4040F44000704781F0004160
:10029C0002E000BF83F0004330B54FEA41044FEA5F
:1002AC00430594EA050F08BF90EA020F1FBF54EAFA
:1002BC00000C55EA020C7FEA645C7FEA655C00F096
:1002CC00E2804FEA5454D4EB5555B8BF6D420CDD67
:1002DC002C4480EA020281EA030382EA000083EAEA
:1002EC00010180EA020281EA0303362D88BF30BD8A
:1002FC0011F0004F4FEA01314FF4801C4CEA1131E0
:10030C0002D0404261EB410113F0004F4FEA03333E
:10031C004CEA133302D0524263EB430394EA050FC9
:10032C0000F0A780A4F10104D5F1200E0DDB02FA38
:10033C000EFC22FA05F2801841F1000103FA0EF2CC
:10034C00801843FA05F359410EE0A5F120050EF192
:10035C00200E012A03FA0EFC28BF4CF0020C43FAC3
:10036C0005F3C01851EBE37101F0004507D54FF0D0
:10037C00000EDCF1000C7EEB00006EEB0101B1F520
:10038C00801F1BD3B1F5001F0CD349085FEA300066
:10039C004FEA3C0C04F101044FEA445212F5800F71
:1003AC0080F09A80BCF1004F08BF5FEA500C50F10E
:1003BC00000041EB045141EA050130BD5FEA4C0CF1
:1003CC00404141EB0101013C28BFB1F5801FE9D24E
:1003DC0091F0000F04BF01460020B1FA81F308BF71
:1003EC002033A3F10B03B3F120020CDA0C3208DD3D
:1003FC0002F1140CC2F10C0201FA0CF021FA02F118
:10040C000CE002F11402D8BFC2F1200C01FA02F187
:10041C0020FA0CFCDCBF41EA0C019040E41AA2BFAC
:10042C0001EB0451294330BD6FEA04041F3C1CDA74
:10043C000C340EDC04F11404C4F1200220FA04F094
:10044C0001FA02F340EA030021FA04F345EA03013E
:10045C0030BDC4F10C04C4F1200220FA02F001FA00
:10046C0004F340EA0300294630BD21FA04F0294682
:10047C0030BD94F0000F83F4801306BF81F480111B
:10048C000134013D4EE77FEA645C18BF7FEA655C8E
:10049C0029D094EA050F08BF90EA020F05D054EA60
:1004AC00000C04BF1946104630BD91EA030F1EBF65
:1004BC000021002030BD5FEA545C05D14000494169
:1004CC0028BF41F0004130BD14F580043CBF01F55C
:1004DC00801130BD01F0004545F0FE4141F4700142
:1004EC004FF0000030BD7FEA645C1ABF194610461D
:1004FC007FEA655C1CBF0B46024650EA013406BF1E
:10050C0052EA033591EA030F41F4002130BD00BFDC
:10051C0090F0000F04BF0021704730B54FF4806499
:10052C0004F132044FF000054FF0000150E700BF1A
:10053C0090F0000F04BF0021704730B54FF4806479
:10054C0004F1320410F0004548BF40424FF0000166
:10055C003EE700BF42004FEAE2014FEA31014FEAA9
:10056C0002701FBF12F07F4393F07F4F81F06051F8
:10057C00704732F07F4208BF704793F07F4F04BF43
:10058C0041F40021704730B54FF4607401F0004520
:10059C0021F000411CE700BF50EA010208BF704780
:1005AC0030B54FF000050AE050EA010208BF704771
:1005BC0030B511F0004502D5404261EB41014FF4DA
:1005CC00806404F132045FEA915C3FF4D8AE4FF0E2
:1005DC0003025FEADC0C18BF03325FEADC0C18BFC5
:1005EC00033202EBDC02C2F1200300FA03FC20FA16
:1005FC0002F001FA03FE40EA0E0021FA02F1144463
:10060C00BDE600BF70B54FF0FF0C4CF4E06C1CEA7B
:10061C0011541DBF1CEA135594EA0C0F95EA0C0FEC
:10062C0000F0DEF82C4481EA030621EA4C5123EA5F
:10063C004C5350EA013518BF52EA033541F480118E
:10064C0043F4801338D0A0FB02CE4FF00005E1FB41
:10065C0002E506F00042E0FB03E54FF00006E1FB8B
:10066C0003569CF0000F18BF4EF0010EA4F1FF04CE
:10067C00B6F5007F64F5407404D25FEA4E0E6D410E
:10068C0046EB060642EAC62141EA55514FEAC5201F
:10069C0040EA5E504FEACE2EB4F1FD0C88BFBCF59B
:1006AC00E06F1ED8BEF1004F08BF5FEA500E50F14C
:1006BC00000041EB045170BD06F0004646EA010112
:1006CC0040EA020081EA0301B4EB5C04C2BFD4EB44
:1006DC000C0541EA045170BD41F480114FF0000E3D
:1006EC00013C00F3AB8014F1360FDEBF002001F0AB
:1006FC00004170BDC4F10004203C35DA0C341BDC25
:10070C0004F11404C4F1200500FA05F320FA04F0F6
:10071C0001FA05F240EA020001F0004221F000412A
:10072C0010EBD37021FA04F642EB06015EEA430E9D
:10073C0008BF20EAD37070BDC4F10C04C4F12005CD
:10074C0000FA04F320FA05F001FA04F240EA020080
:10075C0001F0004110EBD37041F100015EEA430E51
:10076C0008BF20EAD37070BDC4F1200500FA05F271
:10077C004EEA020E20FA04F301FA05F243EA0203F0
:10078C0021FA04F001F0004121FA04F220EA0200FF
:10079C0000EBD3705EEA430E08BF20EAD37070BD45
:1007AC0094F0000F0FD101F00046400041EB010125
:1007BC0011F4801F08BF013CF7D041EA060195F007
:1007CC00000F18BF704703F00046520043EB0303C1
:1007DC0013F4801F08BF013DF7D043EA06037047AE
:1007EC0094EA0C0F0CEA135518BF95EA0C0F0CD0B9
:1007FC0050EA410618BF52EA4306D1D181EA0301FF
:10080C0001F000414FF0000070BD50EA410606BFF8
:10081C001046194652EA430619D094EA0C0F02D13D
:10082C0050EA013613D195EA0C0F05D152EA033682
:10083C001CBF104619460AD181EA030101F00041A0
:10084C0041F0FE4141F470014FF0000070BD41F0E9
:10085C00FE4141F4780170BD70B54FF0FF0C4CF4C3
:10086C00E06C1CEA11541DBF1CEA135594EA0C0FE2
:10087C0095EA0C0F00F0A7F8A4EB050481EA030E2F
:10088C0052EA03354FEA013100F088804FEA033316
:10089C004FF0805545EA131343EA12634FEA0222E4
:1008AC0045EA111545EA10654FEA00260EF00041A5
:1008BC009D4208BF964244F1FD0404F5407402D2F7
:1008CC005B084FEA3202B61A65EB03055B084FEA88
:1008DC0032024FF480104FF4002CB6EB020E75EB85
:1008EC00030E22BFB61A754640EA0C005B084FEAAD
:1008FC003202B6EB020E75EB030E22BFB61A75462A
:10090C0040EA5C005B084FEA3202B6EB020E75EB74
:10091C00030E22BFB61A754640EA9C005B084FEAEC
:10092C003202B6EB020E75EB030E22BFB61A7546F9
:10093C0040EADC0055EA060E18D04FEA051545EAE8
:10094C0016754FEA06164FEAC30343EA52734FEA91
:10095C00C2025FEA1C1CC0D111F4801F0BD141EA0A
:10096C0000014FF000004FF0004CB6E711F4801F6F
:10097C0004BF01430020B4F1FD0C88BFBCF5E06F4F
:10098C003FF6AFAEB5EB030C04BFB6EB020C5FEA5F
:10099C00500C50F1000041EB045170BD0EF0004EB4
:1009AC004EEA113114EB5C04C2BFD4EB0C0541EAE6
:1009BC00045170BD41F480114FF0000E013C90E6E3
:1009CC0045EA060E8DE60CEA135594EA0C0F08BFA7
:1009DC0095EA0C0F3FF43BAF94EA0C0F0AD150EAA6
:1009EC0001347FF434AF95EA0C0F7FF425AF104639
:1009FC0019462CE795EA0C0F06D152EA03353FF461
:100A0C00FDAE1046194622E750EA410618BF52EADD
:100A1C0043067FF4C5AE50EA41047FF40DAF52EAB1
:100A2C0043057FF4EBAE12E74FF0FF3C06E000BF4E
:100A3C004FF0010C02E000BF4FF0010C4DF804CD5B
:100A4C004FEA410C7FEA6C5C4FEA430C18BF7FEA1B
:100A5C006C5C1BD001B050EA410C0CBF52EA430C49
:100A6C0091EA030F02BF90EA020F0020704710F1C9
:100A7C00000F91EA030F58BF994208BF90422CBF58
:100A8C00D8176FEAE37040F0010070474FEA410C51
:100A9C007FEA6C5C02D150EA013C07D14FEA430C6F
:100AAC007FEA6C5CD6D152EA033CD3D05DF8040BE0
:100ABC00704700BF8446104662468C461946634612
:100ACC0000E000BF01B5FFF7B7FF002848BF10F1E9
:100ADC00000F01BD4DF808EDFFF7F4FF0CBF01202E
:100AEC0000205DF808FB00BF4DF808EDFFF7EAFFAA
:100AFC0034BF012000205DF808FB00BF4DF808ED65
:100B0C00FFF7E0FF94BF012000205DF808FB00BF59
:100B1C004DF808EDFFF7CEFF94BF012000205DF8E3
:100B2C0008FB00BF4DF808EDFFF7C4FF34BF0120F0
:100B3C0000205DF808FB00BF4FEA4102B2F1E04330
:100B4C0024BFB3F5001CDCF1FE5C0DD901F0004CA8
:100B5C004FEAC0024CEA5070B2F1004F40EB8300F8
:100B6C0008BF20F00100704711F0804F21D113F124
:100B7C003872BCBF01F00040704741F480114FEA5D
:100B8C005252C2F11802C2F1200C10FA0CF320FAE6
:100B9C0002F018BF40F001004FEAC1234FEAD32303
:100BAC0003FA0CFC40EA0C0023FA02F34FEA43036D
:100BBC00CCE77FEA625307D150EA01331EBF4FF0F6
:100BCC00FE4040F44000704701F0004040F0FE4011
:100BDC0040F40000704700BF80F0004002E000BF0E
:100BEC0081F0004142001FBF5FEA410392EA030F0C
:100BFC007FEA226C7FEA236C6AD04FEA1262D2EB56
:100C0C001363C1BFD218414048404140B8BF5B425A
:100C1C00192B88BF704710F0004F40F4000020F0F3
:100C2C007F4018BF404211F0004F41F4000121F009
:100C3C007F4118BF494292EA030F3FD0A2F1010253
:100C4C0041FA03FC10EB0C00C3F1200301FA03F191
:100C5C0000F0004302D5494260EB4000B0F5000FB4
:100C6C0013D3B0F1807F06D340084FEA310102F173
:100C7C000102FE2A51D2B1F1004F40EBC25008BF25
:100C8C0020F0010040EA03007047490040EB0000EF
:100C9C00013A28BFB0F5000FEDD2B0FA80FCACF1F0
:100CAC00080CB2EB0C0200FA0CF0AABF00EBC2501D
:100CBC0052421843BCBFD0401843704792F0000F0B
:100CCC0081F4000106BF80F400000132013BB5E75E
:100CDC004FEA41037FEA226C18BF7FEA236C21D0D4
:100CEC0092EA030F04D092F0000F08BF0846704739
:100CFC0090EA010F1CBF0020704712F07F4F04D107
:100D0C00400028BF40F00040704712F100723CBF19
:100D1C0000F50000704700F0004343F0FE4040F443
:100D2C00000070477FEA226216BF08467FEA236301
:100D3C000146420206BF5FEA412390EA010F40F4EC
:100D4C00800070474FF0000304E000BF10F0004338
:100D5C0048BF40425FEA000C08BF704743F096431F
:100D6C0001464FF000001CE050EA010208BF70473A
:100D7C004FF000030AE000BF50EA010208BF7047C1
:100D8C0011F0004302D5404261EB41015FEA010CD6
:100D9C0002BF84460146002043F0B64308BFA3F1CE
:100DAC008053A3F50003BCFA8CF2083AA3EBC253B0
:100DBC0010DB01FA02FC634400FA02FCC2F12002CF
:100DCC00BCF1004F20FA02F243EB020008BF20F006
:100DDC000100704702F1200201FA02FCC2F120026C
:100DEC0050EA4C0021FA02F243EB020008BF20EA61
:100DFC00DC7070474FF0FF3C06E000BF4FF0010C79
:100E0C0002E000BF4FF0010C4DF804CD4FEA400258
:100E1C004FEA41037FEA226C18BF7FEA236C11D0A2
:100E2C0001B052EA530C18BF90EA010F58BFB2EB55
:100E3C00030088BFC81738BF6FEAE17018BF40F0D5
:100E4C00010070477FEA226C02D15FEA402C05D189
:100E5C007FEA236CE4D15FEA412CE1D05DF8040B0E
:100E6C00704700BF844608466146FFE70FB5FFF7A1
:100E7C00C9FF002848BF10F1000F0FBD4DF808ED59
:100E8C00FFF7F4FF0CBF012000205DF808FB00BF4A
:100E9C004DF808EDFFF7EAFF34BF012000205DF8A4
:100EAC0008FB00BF4DF808EDFFF7E0FF94BF0120F1
:100EBC0000205DF808FB00BF4DF808EDFFF7D2FFEE
:100ECC0094BF012000205DF808FB00BF4DF808ED31
:100EDC00FFF7C8FF34BF012000205DF808FB00BFFE
:100EEC0042000ED2B2F1FE4F0BD34FF09E03B3EB88
:100EFC00126209D44FEA002343F0004323FA02F0B4
:100F0C0070474FF00000704712F1610F01D142029F
:100F1C0002D14FF0FF3070474FF00000704700BF18
:100F2C0053B94AB9002908BF00281CBF4FF0FF3144
:100F3C004FF0FF3000F00CB8ADF1080C6DE904CEA9
:100F4C0004F01EF8DDF804E0DDE9022304B070477C
:100F5C00704700BF10B5054C237833B9044B13B15F
:100F6C000448AFF300800123237010BDD80000208B
:100F7C00000000005052000808B5034B1BB1034998
:100F8C000348AFF3008008BD00000000DC00002027
:100F9C00505200080346B0F90A0008B103EB0010E8
:100FAC00704738B500250446436A011D03441D7182
:100FBC00006803F0FCFD656238BDF8B504461646C2
:100FCC000D468F18BD420DD0636A15F8011B5A1CD3
:100FDC006262E21802331F2B1171F3D92046FFF71E
:100FEC00E0FFEFE73046F8BD38B50546064C00216A
:100FFC00204600F02EFD2946204603F0FAFC204640
:10100C00BDE8384000F08ABC0001002008B5012181
:10101C000D2003F089FA01211F2003F085FA00212D
:10102C001E2003F081FA00211C2003F07DFA01211F
:10103C000E2003F079FA0021152003F075FA05490A
:10104C00054800F01FFD20B90449054803F0DEFCFB
:10105C00FEE708BD400ECF190001002068520008C1
:10106C0044030020034630B5D2E901041030844219
:10107C0012D3A4F1100090605A685AB1851A2D1140
:10108C0055815860002344F8041C24F8063C04F8ED
:10109C00083C30BD1860F4E70020FAE700F11C02B0
:1010AC00C0E9002200F1E402C0E90222027E22F033
:1010BC007F0202767047F8B5037A174613F07F0269
:1010CC0002BF23F07F0343F020030372047A05462A
:1010DC0008BFC0E9002214F020000E4611D00846CB
:1010EC0079B12C6874B1E168B14209D019B13046BC
:1010FC00FFF706F820B12046FFF74CFF0446F1E756
:10110C002046F8BD3A4631462846FFF7ABFFF8E7D4
:10111C0038B5044608460D46FEF7FCFF2946024644
:10112C002046FFF74AFFA36A0344A36238BD436A13
:10113C0010B55A1C4262C21802331F2B044611719F
:10114C0001D9FFF72EFFA36A0133A36210BD000083
:10115C0070B50D4622210446FFF7E9FF013D15F855
:10116C00011F79B10A4B9E7846B1DA7802338A4274
:10117C00F9D15C212046FFF7DAFF31462046FFF714
:10118C00D6FFECE722212046FFF7D1FF70BD00BF50
:10119C00925200082DE9F04706230D46837207464C
:1011AC0052492846FFF788FE0446002840D0052601
:1011BC0000244FF02008DFF83891DFF838A12946D9
:1011CC0059F82600FFF76EFE38B128465AF826105B
:1011DC00FEF7A8FF0546444424B2013E4FEA6808D6
:1011EC00EDD200212846FFF771FE28B32846FFF701
:1011FC00B1F93CA3D3E90023FFF780FCE0B1DFF8A1
:10120C00F890DFF8ECA0330616D4294659F82600DE
:10121C00FFF75CFE40B128465AF82610FEF782FF15
:10122C000546A4EB080424B24FEA6808013EEAE73D
:10123C004FF020080526D4E728463C81FFF750FEE6
:10124C000A2106460346DFF8B4803860092B07D91B
:10125C00BA7AB8FBF1F8013AB3FBF1F3BA72F5E7DD
:10126C003046FFF76FFD01462846FFF7B9FC0546EF
:10127C004046FFF767FD01462846FEF753FF8146BF
:10128C00FFF72EFE0546FFF75DFD01464846FFF7CA
:10129C00A7FC0146FFF7A6FCFFF722FE28444045B9
:1012AC000FD278600A217B68B3FBF1F201FB123399
:1012BC00A3B997F90A30002B10DD013B7A60BB72A1
:1012CC00F1E7002301367B603E60002CEAD0092E4A
:1012DC0081BF012301343C813B60E3E73846BDE824
:1012EC00F08700BFF168E388B5F8E43E8096184BB0
:1012FC0030000020180000200000002040420F00A9
:10130C0010B50446521AFFF758FEA36A0344A362B1
:10131C0010BD70B586B00B460DF116010A460A26B3
:10132C00B3FBF6F506FB1534303401F8014D1C46C1
:10133C00092C2B46F4D8FFF7E3FF06B070BD000074
:10134C0070B505468AB008460C46FFF797FD28B9DC
:10135C0028463F49FFF7DCFE0AB070BD002120464D
:10136C00FFF78CFD48B921462046FFF73BFC0146B0
:10137C002046FFF783FD0028EAD100212046FFF725
:10138C0087FD28B12D212846FFF7D1FE04F100443A
:10139C00214601A8FFF7FEFE01992846FFF7B9FF89
:1013AC009DF90E10E1B10A460A26029B0DF11F04AD
:1013BC00013A52B2501C08D0B3FBF6F006FB1033C6
:1013CC00303304F801390346F2E7C9B208AA2E20DB
:1013DC00531AC94303F8010C11442846FFF790FF38
:1013EC00BDF90C30002B17DA1A492846FFF790FE8E
:1013FC000DF126010A460A24BDF90C305B4293FB21
:10140C00F4F004FB1033303301F8013D034600289F
:10141C00F5D12846FFF774FFBDF90C30002B9BDD8E
:10142C0065212846FFF783FE0DF126010A460A24A2
:10143C00BDF90C3093FBF4F004FB1033303301F89E
:10144C00013D03B20028F5D12846FFF759FF83E789
:10145C00A3520008A852000838B5027A054602F0DB
:10146C007F030C2B0C460DD812F07E0F0ED0023BD6
:10147C000A2B0BD8DFE803F04D4D4848620A600A8E
:10148C00560A0C00202B21D0402B06D0304958E0B6
:10149C0001682046FFF754FF38BD5B212046FFF75B
:1014AC0046FE2D686DB128462146FFF7D5FF28462C
:1014BC00FFF770FD054620B12C212046FFF737FEC3
:1014CC00F0E75D212046FFF732FEE5E77B21204661
:1014DC00FFF72DFE2D68ADB1E9682046FFF738FE09
:1014EC003A212046FFF723FE28462146FFF7B4FF9A
:1014FC002846FFF74FFD054620B12C212046FFF76B
:10150C0016FEE8E77D21DDE701682046FFF720FEA7
:10151C00C2E7D0E900122046FFF74FFDA36A03444F
:10152C00A362B9E705682D212046FFF700FE294686
:10153C002046FFF7EEFEAFE70168F9E7036823B139
:10154C0004492046FFF7E4FDA6E70349F9E700BF8D
:10155C00A3520008AB520008B052000870B50C46FC
:10156C00A0B001AD06460FCC0FC50FCC0FC594E84B
:10157C00030085E803000BAC01AD0FCD0FC40FCDFC
:10158C000FC495E8030084E803000BAD15AC0FCD38
:10159C000FC40FCD0FC495E80300002384E80300AB
:1015AC000BA81F93FFF7FDFC01A8FFF7FAFC15A988
:1015BC0006F11000FFF750FF1F9C15A8FFF7F1FC78
:1015CC00204620B070BD70B5002394B06D46064621
:1015DC00099300910AAC0FCD0FC40FCD0FC495E841
:1015EC00030084E803000AA93046FFF7B7FF04465E
:1015FC000AA8FFF7D6FC6846FFF7D3FC204614B0C8
:10160C0070BD000070B54B4C00211F20C2B002F021
:10161C00D9FF2368484A494DB3FBF2F369685B0074
:10162C006A68521A9342FBDC01211F2002F0CAFFA8
:10163C002268414B6968B2FBF3F30A225A433F4ECE
:10164C0073685B1A9A42FBDC00211F2002F0BAFF80
:10165C0046F2A81201211E2003F0D6FA0546B8B9AD
:10166C0001211E2002F060FF29461E2002F0AAFF75
:10167C002268314B7168B2FBF3F3C8225A432F48EE
:10168C0043685B1A9A42FBDC00211E2002F04CFFDF
:10169C002B49684603F049FA09A8FFF7FFFC2949D2
:1016AC0009AA0DA8FFF707FD0446A0B1037A23F0A1
:1016BC007F0343F00C0303722846FEF729FF1BA39C
:1016CC00D3E90023FEF79EFF00221F4BFEF79AFF83
:1016DC00FFF732FA20601C2002F010FF1B49044671
:1016EC0009AA0DA8FFF7E7FC30B1037A046023F0D8
:1016FC007F0343F008030372114903A803F015FAA2
:10170C0003A909A8FFF75FFF03A906A803F02EFAA7
:10171C0006A8FFF769FC06A803F0C2F903A803F0BA
:10172C00BFF9684603F0BCF942B070BD9CC420B050
:10173C007268A13F6400002040420F00001000E0DE
:10174C00A2520008B65200080000E03FBE5200084A
:10175C0010B5C0B007A8FFF7A1FC152002F0CEFE13
:10176C001249044607AA0BA8FFF7A5FC30B1037A6F
:10177C00046023F07F0343F0080303720C4901A8B3
:10178C0003F0D3F901A907A8FFF71DFF01A904A8CD
:10179C0003F0ECF904A8FFF727FC04A803F080F988
:1017AC0001A803F07DF940B010BD00BFC452000881
:1017BC00D352000808B501210D2002F003FF4FF4AD
:1017CC007A7002F027FFFFF7C3FFFFF71BFF0D2016
:1017DC00002102F0F7FEBDE808404FF47A7002F0E9
:1017EC0019BF00000149024803F09FB9A25200083A
:1017FC00F4000020014803F053B900BFF4000020AE
:10180C0007B503688DF8071001225B680DF107011D
:10181C00984703B05DF804FB7047416002720BB946
:10182C00437205E0012BFBD0022BF9D0032BF7D030
:10183C007047000038B500254FF47A73C0E90153A6
:10184C000C4B044601220C4940F8103B2B46FFF789
:10185C00E4FF18221123C4E9072315232046294647
:10186C00C4E90935C4E90B55656303F017F9204643
:10187C0038BD00BFE052000800127A00F0B50446F3
:10188C000F46164687B00021C06902F09BFE03ABE1
:10189C0004F1100207CA83E80700059A0F4D009265
:1018AC0028460CCB232100F0B7F93A46012323211B
:1018BC00284600F005FA324601232321284600F081
:1018CC00FFF906462321284600F0DAF9E0690121E8
:1018DC0002F078FE304607B0F0BD00BF38010020A2
:1018EC00002201F07F01FFF7C9BF10B50446132198
:1018FC00FFF7F6FFE36AC01A10BD036810B59B68CA
:10190C000446984738B1E36A002101332046E3626C
:10191C00FFF7E6FF10BD4FF0FF30FBE710B5832259
:10192C0081210446FFF7AAFF12212046FFF7D8FFBA
:10193C00030702D402F0CDFDF6E7082292212046DF
:10194C00FFF79CFF012010BD2DE9F0410C46222130
:10195C0015460746FFF7C4FF06464319FF2B88BF01
:10196C00C0F1FF0504EB0508444506D0802138463C
:10197C0014F8012BFFF782FFF6E77219A221384603
:10198C00D2B2FFF77BFF2846BDE8F081036870B543
:10199C009B680546984780B10D212846FFF7A0FFAC
:1019AC00002106462846FFF79BFF044632468D2150
:1019BC002846FFF763FF204670BD4FF0FF30FBE772
:1019CC0081221146FFF75ABF80228121FFF756BFB3
:1019DC0038B5CB17DD040446002381620C4AC804D9
:1019EC0045EA5131FFF79CFA0546C0F307428621C0
:1019FC002046FFF743FFC5F3072287212046FFF758
:101A0C003DFF2046EAB28821BDE83840FFF736BFDB
:101A1C000048E801002310B51D2103630446FFF7BD
:101A2C005FFF9D2100F0FE022046BDE81040FFF74D
:101A3C0025BF012310B51D2103630446FFF750FF9A
:101A4C0040F001029D212046BDE81040D2B2FFF7C4
:101A5C0015BF38B504460D46FFF7B2FF20466DB1F1
:101A6C00FFF7E7FF00228D212046FFF707FF00223A
:101A7C00A2212046FFF702FF012038BDFFF7CAFF65
:101A8C00F0E7000038B504460D46C069012102F0AC
:101A9C004BFDE069012102F095FD206A431C10D03A
:101AAC00012102F041FD0021206A02F08BFD0A2089
:101ABC0002F0B0FD206A012102F084FD0A2002F040
:101ACC00A9FD23211A4800F07FF842212046FFF798
:101ADC0007FF12282AD12046FFF776FF2946204619
:101AEC00FFF776FF00228E212046FFF7C7FE00226B
:101AFC008F212046FFF7C2FE0C212046FFF7F0FE97
:101B0C0040F003028C21D2B22046FFF7B7FE04222C
:101B1C00A6212046FFF7B2FE8F2289212046FFF72F
:101B2C00ADFE2046FFF74CFF012038BD0020FCE73E
:101B3C00380100200148FFF77DBE00BF00010020E6
:101B4C00232970B504461BD800230C2505FB03F68E
:101B5C00A65FD8B2B1420DD00133042BF6D1012AC5
:101B6C000CD100230C2505FB03F2A65ED8B201367E
:101B7C0001D1A15270BD0133042BF4D11846F9E701
:101B8C000420F7E770B503464FF6FF7201250024D9
:101B9C000B4E00F130011A805E601D725C720C33CA
:101BAC008B42F8D1074B0286998EA0F89010D98EF3
:101BBC00A0F892105B8EA0F89620A0F8943070BD1F
:101BCC0000093D0074560008232970B505460E46E1
:101BDC0021D80122FFF7B4FF032804461BD8232E7B
:101BEC000BD0B5F99630013307D10121304602F004
:101BFC009BFC0121304602F0E5FC0C20002300FB8D
:101C0C00045485F88530627A237A616805F13400D2
:101C1C0000F0CAF82E8670BD82B0F8B5232906AC48
:101C2C0005460E4684E80C0026D80122FFF788FFF3
:101C3C000328044620D80C2707FB0057079B232EAC
:101C4C007B60BDF820303B810BD0B5F99630013369
:101C5C0007D10121304602F067FC0121304602F029
:101C6C00B1FC0C2000FB04547968237A627A05F1EC
:101C7C00340000F099F82E86BDE8F84002B07047A9
:101C8C002329F0B519D803464FF6FF740126002717
:101C9C000A4D00F13002B3F900C00C338C4501BF82
:101CAC0023F80C4C43F8085C03F8046C03F8037C31
:101CBC009342F0D14FF6FF730386F0BD00093D004F
:101CCC0070B586B08DF80F200022232905460C46EE
:101CDC001E468DF8172039D8B0F93030994212D001
:101CEC00FFF72EFF032803D99DF8170006B070BD2F
:101CFC000C2303FB0050037A427A416805F134004F
:101D0C0000F052F82C86232C07D0B5F9963001330D
:101D1C0003D10021204602F055FC4FF47A730DF1EB
:101D2C00170200930DF10F01012305F1340000F0AF
:101D3C0053F9232CD8D0012ED6D1B5F996300133D6
:101D4C00D2D13146204602F03DFCCDE71046CDE71E
:101D5C000148FFF717BF00BF3801002070B50D0E0A
:101D6C00445991FAA1F3B3FA83F30F269B0006FAB8
:101D7C0003F324EA030491FAA1F1B1FA81F1890089
:101D8C0002FA01F12143415170BD0000044A054B98
:101D9C0090421B6801D101F029B81846704700BF6A
:101DAC0000300140640000202DE9F74F0D46174626
:101DBC0098460446002800F0D3808049B0F95E00B4
:101DCC0001F080FF7E498146B4F95C0001F07AFF96
:101DDC007C498246B4F9600001F074FF7A490646EA
:101DEC00B4F9620001F06EFF8346B9F1000F00F008
:101DFC00B780BAF1000F00F0B380002E00F0B08075
:101E0C005146484601F087FF59468246304601F05C
:101E1C0082FF01468146504601F07DFFA065BAF174
:101E2C00000F00F09D80B9F1000F00F099800028A0
:101E3C0000F09680B4F9623020605A1C14BF4FF445
:101E4C0080234FF40073A3614FF482736360FFF738
:101E5C009DFFB5EB500FC0F086800023002617F0D5
:101E6C00FD0FE3610CBF33460123022F636134BFC6
:101E7C003346022323610723B045E36214BF334684
:101E8C008023B4F95E00C4E90836A660A662E66059
:101E9C004A4901F0F7FEB4F95C00494901F0F2FE41
:101EAC00B4F96000474901F0EDFE2369B342B4F97F
:101EBC00603008BF02254FEA131218BF012512F03B
:101ECC000C0F11BF3046414902F00F0251F82200AD
:101EDC003F4A03F00F0352F823100B0EC65891FA29
:101EEC00A1F2B2FA82F39A000F239340334091FA95
:101EFC00A1F2B2FA82F2022D4FEA820223FA02F325
:101F0C004FEA11254ED0042B02D10822FFF726FFF1
:101F1C00C26822EA050295FAA5F50123B5FA85F502
:101F2C0003FA05F51543C5602749B4F9620001F0C1
:101F3C00A9FE2268274B9A420AD103F560439A699D
:101F4C0042F480529A619B6903F480530193019B84
:101F5C00204601F0A9F82268136843F0400313608F
:101F6C0003B0BDE8F08FB5EB900F01D3082375E7F4
:101F7C00B5EBD00F01D3102370E7B5EB101F01D3D5
:101F8C0018236BE7B5EB501F01D3202366E7B5EBA5
:101F9C00901F01D3282361E7B5EBD01F2CBF302352
:101FAC0038235BE7042B02D10822FFF7D7FEC36866
:101FBC0023EA050395FAA5F5C360B5E7A855000813
:101FCC0084550008CC550008F0550008540000203A
:101FDC00885300080030014013B538B133B1049C6C
:101FEC00009401F09CF8032803D000B1022002B049
:101FFC0010BD0120FBE7000003460A4910B5086834
:10200C000344EFF30882934205D90C224FF0FF30C2
:10201C00054B1A6010BD054A054C121B9342F4D2B5
:10202C000B60F7E7480000205C040020002800202B
:10203C00000400007047000038B50E4B05461878B8
:10204C004FF47A73B3FBF0F30B4A1068B0FBF3F068
:10205C0000F0DCFB044658B90F2D09D8024629467E
:10206C004FF0FF3000F07EFB2046044B1D6038BD66
:10207C000120FCE74C0000206400002050000020F0
:10208C00074A08B51368032043F01003136000F0EF
:10209C0057FB0020FFF7D0FFFFF7CCFF002008BD57
:1020AC0000200240034A044B11681B780B44136058
:1020BC00704700BF580400204C000020014B1868EA
:1020CC00704700BF58040020F7B5002604460D46A3
:1020DC000196FFF7F3FF236807469A68D20508D5E7
:1020EC000120A36A84F8246043F02003A36203B0A8
:1020FC00F0BD5A68D60503D4DB6A13F4700F3AD0DE
:10210C00394B02201E6800F0F9FE2368374A196922
:10211C00B6FBF0F61142364A4DD1D8683549084223
:10212C0049D11969114257D1DA68334B1A4214BF9D
:10213C00292314235E43019BB34220D26A1C05D091
:10214C0085B1FFF7BBFFC01BA8420BD8019B013325
:10215C000193F0E7681C0FD025B1FFF7AFFFC01B50
:10216C00A84208D9A36A032043F00403A362002306
:10217C0084F82430BBE7226813689907EAD56FF01E
:10218C00120322681360A36A43F40073A36293687A
:10219C0003F46023B3F5602F24D1207B10BBA36A1A
:1021AC0023F48073A362A36ADB041BD4A36A43F0F9
:1021BC000103A3629BE71969114203D1D9680E4A46
:1021CC0011420BD019690D4A114209D1DB68134237
:1021DC0014BFFC235423ADE72923ABE75423A9E711
:1021EC00FC23A7E7002082E7640000202449922406
:1021FC0092244912244992009224490049922400C5
:10220C000368D86C70470000002373B5019390F8F5
:10221C0024300446012B6CD0012380F824304D6807
:10222C000268062D086805EB850322D81F26556B1E
:10223C00053B9E4025EA060500FA03F32B43536346
:10224C0009288B6800EB40054FF0070129D9D668A7
:10225C001E3DA94026EA0101AB400B43D360A0F11F
:10226C001003012B25D90020002384F8243002B060
:10227C0070BD0C2D4FF01F0509D8166B233B9D40EC
:10228C0026EA050500FA03F32B431363D8E7D66A55
:10229C00413B9D4026EA050500FA03F32B43D3622C
:1022AC00CEE71069A94020EA0101AB400B43136152
:1022BC00D9E7114B9A4216D193681B02D3D4936879
:1022CC00102843F400039360CDD10C4B0C4A1B68CF
:1022DC00B3FBF2F20A2353430193019B002BC2D0B0
:1022EC00019B013BF8E7A36A012043F02003A362A2
:1022FC00BAE70220BBE700BF0024014064000020C5
:10230C0040420F00806A7047002373B50193036845
:10231C0004469A68D20702D5002002B070BD9A68B4
:10232C0042F001029A60124B124A1B68B3FBF2F3A3
:10233C000193019BC3B9FFF7C1FE064623689D6854
:10234C0015F00105E8D1FFF7B9FE801B0228F5D97D
:10235C00A36A012043F01003A362E36A84F82450BB
:10236C0043F00103E362D8E7019B013BE0E700BFC8
:10237C006400002040420F0010B590F82430044651
:10238C00012B54D0012380F82430FFF7BDFF002827
:10239C0049D1A36A274A23F4407323F0010343F481
:1023AC008073A3622368934204D123494A6812F4D0
:1023BC00702F2ED1A26A22F48012A2625A685205A2
:1023CC0041BFA26A22F4405242F48052A262A26A35
:1023DC0012F480521CBFE26A22F00602E262002272
:1023EC0084F824206FF002021A609A6802F46022CA
:1023FC00B2F5602F13D10F4A934205D1A2F580623A
:10240C00526812F4702F0AD19A6842F4A0029A60B2
:10241C0010BDA26A42F48012A2624A68CFE79A68A1
:10242C0042F48012F3E7002384F82430F0E7022012
:10243C00EEE700BF002801400024014038B50368D6
:10244C0004469A68D20701D4002038BD9A6822F05D
:10245C0001029A60FFF732FE054623689B68DB0792
:10246C00F2D5FFF72BFE401B0228F6D9A36A0120F8
:10247C0043F01003A362E36A43F00103E362E4E771
:10248C00F8B5044600286ED0836A23B9C36280F87D
:10249C00243001F017FE2046FFF7D0FFA36A13F09B
:1024AC00100362D1002860D1A26AE569616822F448
:1024BC00885222F0020242F002022943A568A2626D
:1024CC00227BB5F5807F41EA420137D0012D14BF44
:1024DC0000274FF48077267D012E06D182BBA2699E
:1024EC00013A47EA423646F400672268B5F5807F28
:1024FC00566826F4694646EA0706566097681D4EEC
:10250C0006EA070646EA0106966001D0012D02D1C3
:10251C002369013B1B05D56A25F470052B43D36257
:10252C009268154B1340994213D10023E362A36ABE
:10253C0023F0030343F00103A362F8BD2F46CAE75F
:10254C00A26A42F02002A262E26A42F00102E26256
:10255C00CBE7A36A23F0120343F01003A362E36AF0
:10256C0043F00103E3620120E7E7A36A43F01003A1
:10257C00A362F8E7FDF7E1FFFE0E1FFF38B5044636
:10258C00002850D0836A43F002038362FFF756FFA2
:10259C000546002842D16FF01F02236823481A60B9
:1025AC005968234A0A405A609968224A0A409A603C
:1025BC00DA6802F07F42DA601A6902F040421A616E
:1025CC0059691D4A11405961996911409961D9693C
:1025DC001140D961196A11401962596A1140596246
:1025EC00996A0A409A62DA6A02F07F42DA62DA6A1F
:1025FC0002F07F42DA621A6B02F040421A635A6BA5
:10260C0002F040425A63996B014099639A6B024005
:10261C009A63204601F088FDE562A562002384F8E8
:10262C002430284638BD0125FBE700BF0000C0FF61
:10263C0000003FFFF00601FF00F0FFFF10B590F81F
:10264C0024300446012B11D0012380F82430FFF7ED
:10265C00F5FE38B9A36A23F4885323F0010343F041
:10266C000103A362002384F8243010BD0220FCE790
:10267C00002373B5019390F824300446012B5AD0F3
:10268C00012380F82430FFF7D9FE0546002832D10B
:10269C00A36A022023F4885323F0020343F00203BD
:1026AC00A362264B1E6800F029FCB6FBF0F6760000
:1026BC000196019B1BBB2046FFF726FE2268936800
:1026CC0043F008039360FFF7F9FC064623689A6809
:1026DC00120718D49A6842F004029A60FFF7EEFCD5
:1026EC00064623689B685B071FD4A36A23F0030389
:1026FC0043F00103A362002384F8243012E0019B11
:10270C00013B0193D5E7FFF7D9FC801B0A28DDD9E3
:10271C00A36A012523F0120343F01003A3620023E4
:10272C0084F82430284602B070BDFFF7C7FC801B2C
:10273C000A28D6D9ECE70225F4E700BF6400002094
:10274C0007490302CA6803F4E06322F4E06212044E
:10275C00120C134343F0BF6343F40033CB60704758
:10276C0000ED00E0164B30B5DC68C4F30224C4F174
:10277C000703251D042B28BF0423062D4FF0FF351E
:10278C0098BF002405FA03F388BF033C21EA030336
:10279C00A34005FA04F422EA0402002843EA0203E7
:1027AC00ACBF00F16040074A4FEA0313DBB2ABBF8A
:1027BC0000F5614000F00F0080F80033135430BD79
:1027CC0000ED00E014ED00E0002808DB01234209D5
:1027DC0000F01F0003FA00F0014B43F82200704791
:1027EC0000E100E000280DDB0122430900F01F008E
:1027FC0002FA00F0044A203342F82300BFF34F8F53
:10280C00BFF36F8F704700BF00E100E00138B0F1FB
:10281C00807F0AD2F021064B064A586082F82310BA
:10282C000020072298601A6070470120704700BF93
:10283C0010E000E000ED00E0002809DB0122430974
:10284C0000F01F0002FA00F0024A603342F8230045
:10285C00704700BF00E100E0704708B5FFF7FCFFD0
:10286C0008BD000008B590F82130022B03D00423DA
:10287C008363012008BD03681A6822F00E021A60F7
:10288C001A6822F001021A60174A93421CD01432C3
:10289C0093421BD0143293421AD0143293421AD062
:1028AC00143293421AD0143293420CBF4FF480135B
:1028BC004FF080730D4A53604FF480730384436B65
:1028CC007BB198470020D5E70123F3E71023F1E70C
:1028DC004FF48073EEE74FF48053EBE74FF4803303
:1028EC00E8E71846C6E700BF0800024000000240B7
:1028FC00044A08B55169014202D0506101F006FD4D
:10290C0008BD00BF000401402DE9F341054638B372
:10291C000368DB0710D42B689F075ED42B6819075C
:10292C0000F195802B685A0700F1BF80E8690028F8
:10293C0040F02C81002029E08F4C636803F00C03DD
:10294C00042B07D0636803F00C03082B0AD16368CF
:10295C00DE0307D523689C03DDD56B68002BDAD129
:10296C00012013E06B68B3F5803F12D1236843F468
:10297C0080332360FFF7A2FB064623689803CAD472
:10298C00FFF79CFB801B6428F7D9032002B0BDE83D
:10299C00F0819BB9236823F480332360236823F4EC
:1029AC0080232360FFF78AFB064623689903B2D580
:1029BC00FFF784FB801B6428F7D9E6E7B3F5A02F5B
:1029CC00236803D143F480232360CFE723F48033BF
:1029DC002360236823F48023CBE7674C636813F0F0
:1029EC000C0F07D0636803F00C03082B10D163683D
:1029FC00DA030DD423689B0702D52B69012BAFD1C9
:102A0C0023686A6923F0F80343EAC203236085E76D
:102A1C002A695A4B6AB101221A60FFF74FFB06462E
:102A2C0023689F07ECD4FFF749FB801B0228F7D9DA
:102A3C00ABE71A60FFF742FB0646236898077FF561
:102A4C006DAFFFF73BFB801B0228F6D99DE7AA6907
:102A5C00494E4B4BDAB101221A60FFF72FFB0446AB
:102A6C00736A9B070DD54FF4FA52464B1B68B3FBA8
:102A7C00F2F3019300BF019B5A1E0192002BF9D176
:102A8C0050E7FFF71BFB001B0228E9D97DE71A6012
:102A9C00FFF714FB0446736A9F077FF543AFFFF7FC
:102AAC000DFB001B0228F6D96FE7334CE369D80005
:102ABC0024D40127E36943F08053E361E36903F015
:102ACC0080530093009B304E3368D90518D5EB68C2
:102ADC00012B26D1236A43F001032362FFF7EEFAA0
:102AEC0041F288380646236A9B073FD5002F3FF4F6
:102AFC001DAFE36923F08053E36117E70027E2E79A
:102B0C00336843F480733360FFF7D8FA8046336838
:102B1C00DA05DCD4FFF7D2FAA0EB08006428F6D96A
:102B2C0033E7ABB9236A41F2883823F001032362FF
:102B3C00236A23F004032362FFF7C0FA0646236AD4
:102B4C009807D3D5FFF7BAFA801B4045F7D91CE795
:102B5C00052B236A03D143F004032362BAE723F065
:102B6C0001032362236A23F00403B6E7FFF7A6FAF6
:102B7C00801B4045B7D908E70010024000004242D4
:102B8C008004424264000020007000402A4B5A68C6
:102B9C001C4602F00C02082A3DD00023274E0228C6
:102BAC0033602BD1FFF78AFA0746236899011FD4AB
:102BBC002B6AB3F5803F05D16268A96822F4003214
:102BCC000A436260696A62680B4322F4741213430D
:102BDC00636001233360FFF771FA054623689A019D
:102BEC003FF5A8AEFFF76AFA401B0228F6D9CCE6EF
:102BFC00FFF764FAC01B0228D7D9C6E6FFF75EFAC6
:102C0C00054623689B017FF595AEFFF757FA401BED
:102C1C000228F6D9B9E601283FF4B8AE5B682A6AF7
:102C2C0003F4803191427FF49BAE6A6A03F4701313
:102C3C0093423FF47FAE93E60010024060004242A4
:102C4C0030B5184B87B002AC03F11005224618685A
:102C5C005968083303C2AB421446F7D140F2012342
:102C6C001149ADF804304B6803F00C02082A17D157
:102C7C00C3F3834206A80244DB0312F8102C0CD5D4
:102C8C004B680A48C3F34043504306AA134413F855
:102C9C00143CB0FBF3F007B030BD05485043FAE7E5
:102CAC000248F8E7005300080010024000127A00B6
:102CBC0000093D002DE9F0410D46044610B90120F4
:102CCC00BDE8F081444A136803F007038B4228D314
:102CDC0021688E0730D4CA0743D43F4A136803F0E7
:102CEC000703AB4265D822683C4D12F0040F6CD13F
:102CFC00130706D56B68226923F4605343EAC203B9
:102D0C006B60FFF79DFF6B68354AC3F30313D35C0D
:102D1C00D840344B1860344B1868FFF78DF90020FD
:102D2C00CEE7136823F007030B431360136803F01B
:102D3C0007038B42C3D1CBE7284B11F0040F1EBF06
:102D4C005A6842F4E0625A60080742BF5A6842F47B
:102D5C0060525A605A68A06822F0F00202435A602E
:102D6C00B9E762681D4E012A33681AD113F4003F8B
:102D7C00A5D0736841F2883823F0030313437360C2
:102D8C00FFF79CF907467368626803F00C03B3EB1A
:102D9C00820FA2D0FFF792F9C01B4045F3D9032054
:102DAC008EE7022A02D113F0007FE1E713F0020F45
:102DBC00DEE7136823F007032B431360136803F05B
:102DCC000703AB427FF47BAF8DE76B68E16823F4BC
:102DDC00E0630B436B608BE7002002400010024065
:102DEC00C85300086400002050000020044B054A22
:102DFC005B68C3F3C223D35C034A1068D8407047A6
:102E0C0000100240D85300086400002003682DE92C
:102E1C00F341D907054620D5354CE369DA0032D4A5
:102E2C000127E36943F08053E361E36903F08053C6
:102E3C000193019B2F4E3368DB0526D5236A13F4CF
:102E4C00407336D1236A6A6823F4407313432362B8
:102E5C001FB1E36923F08053E3612868830706D52B
:102E6C002349AB684A6822F440421A434A6010F086
:102E7C0010001BD01E4AE9685368002023F480031D
:102E8C000B43536012E00027D4E7336843F480739C
:102E9C003360FFF713F980463368D805CED4FFF7BB
:102EAC000DF9A0EB08006428F6D9032002B0BDE8A8
:102EBC00F0816A6802F440729A42C3D001200E4A33
:102ECC00236A1060002023F4407110602162D9073E
:102EDC00B8D5FFF7F3F841F288380646236A9A070B
:102EEC00B0D4FFF7EBF8801B4045F7D9DDE700BF06
:102EFC00001002400070004040044242024670B58F
:102F0C00344B86B002AD03F110062C461868596894
:102F1C00083303C4B3422546F7D140F20123022AF9
:102F2C00ADF8043049D0102A03D0012A26D0002055
:102F3C0038E0294B5968186810F0807032D0C1F312
:102F4C00834206A8024412F8100CCA0341BF5A6807
:102F5C0006A9C2F34042521844BF12F8141C1F4A6F
:102F6C005B684CBFB2FBF1F21D4A5B0202FB00F046
:102F7C0018D403234000B0FBF3F013E040F202310D
:102F8C00154A136A1940B1F5817F1FD003F44073C1
:102F9C00B3F5007F08D149F64043506A10F00200A7
:102FAC0018BF184606B070BDB3F5407FBFD110688E
:102FBC004FF2244310F40030F2E7FFF717FF064BF3
:102FCC005B68C3F3813301335B00D4E74FF40040FB
:102FDC00E8E700BF005300080010024000127A001E
:102FEC0000093D00036810B51A680446920708D51D
:102FFC005B689B0705D500F099FE6FF00202236811
:10300C005A604FF40032024B5A610123637410BDB5
:10301C0000040140F8B504460E4615461F462268CA
:10302C00936836EA030301D000202DE06B1CF7D027
:10303C00FFF744F8C01B8542F1D823685A6822F088
:10304C00E0025A606268B2F5827F0AD1A268B2F5DA
:10305C00004F02D0B2F5806F03D11A6822F0400203
:10306C001A60A26AB2F5005F07D11A6822F4005206
:10307C001A601A6842F400521A60012384F8513025
:10308C000023032084F85030F8BD10B513460A46CF
:10309C0080210446FFF7BEFF20B10320636D43F08F
:1030AC002003636510BD704710B50446002834D06A
:1030BC000023836290F8513003F0FF021BB980F8B3
:1030CC005020FFF7F0FF0223226884F85130136878
:1030DC00A16923F040031360D4E901300343E06895
:1030EC0003432069034360690343E0690343206A97
:1030FC000343A06A034301F40070090C034301F07D
:10310C00040113605160D369002023F40063D36180
:10311C000123606584F8513010BD0120FCE72DE9D6
:10312C00F7431E4690F850300446012B0D4691464D
:10313C00DDF8288000F0E080012380F85030FEF7A5
:10314C00BDFF94F851300746012B6268D9B20AD002
:10315C00B2F5827F40F0CE80A368002B40F0CA808D
:10316C00042940F0C780002D3FD0B9F1000F3CD0AE
:10317C00002E3AD094F85130C4F83890042B1CBF70
:10318C00052384F8513000236365C4E910332368A8
:10319C00E687E6861968A687490658BF196825632D
:1031AC0058BF41F04001A68658BF1960E168B1F5DF
:1031BC00006F51D10AB1012E07D135F8022BDA601C
:1031CC00E38E2563013B9BB2E3860125E38E9BB224
:1031DC006BB9E38F9BB253B93A4641462046FFF791
:1031EC0054FF00287BD02023636501202BE021684D
:1031FC008B689A070DD5E38E9BB253B14DB1002568
:10320C00236B33F8022BCA602363E38E013B9BB222
:10321C00E3868A6812F001020CD0E38F9BB24BB1AB
:10322C001546C968A36B23F8021BA363E38F013B0C
:10323C009BB2E387FEF742FFC01B4045C6D3B8F1F3
:10324C00FF3FC3D00320012384F85130002384F8BE
:10325C00503003B0BDE8F0830AB1012E08D12A78B2
:10326C001A73236B01332363E38E013B9BB2E3861A
:10327C000125E38E9BB21BB9E38F9BB2002BABD025
:10328C00226893689B070ED5E38E9BB25BB155B158
:10329C000025236B1B781373236B01332363E38E9D
:1032AC00013B9BB2E3862268916811F001010DD0BD
:1032BC00E38F9BB253B10D46D268A36B1A70A36B0C
:1032CC000133A363E38F013B9BB2E387FEF7F6FE6A
:1032DC00C01B4045CDD3B8F1FF3FCAD0B2E7A368BD
:1032EC00002BB0D123680190DA6801929B6801939E
:1032FC00019BA8E70220A6E70220AAE770477047C7
:10330C00036810B51A69044691070ED5DA6892075E
:10331C000BD56FF002021A61012202779B699B07A1
:10332C0077D001F01FFB0023237723681A6950071D
:10333C0010D5DA6851070DD56FF004021A6102221C
:10334C0022779B69204613F4407F68D001F00AFB7A
:10335C000023237723681A6912070FD5DA68100740
:10336C000CD56FF008021A6104222277DB69204623
:10337C0099075AD001F0F6FA0023237723681A69CB
:10338C00D20610D5DA68D0060DD56FF010021A618E
:10339C0008222277DB69204613F4407F4BD001F0E2
:1033AC00E1FA0023237723681A69D10708D5DA6874
:1033BC00D20705D56FF0010220461A6101F0D6FA4A
:1033CC0023681A69100608D5DA68110605D56FF05E
:1033DC00800220461A6100F082F823681A695206AE
:1033EC0008D5DA68500605D56FF0400220461A6100
:1033FC00FFF785FF23681A69910622D5DA689206D1
:10340C001FD56FF020022046BDE810401A6100F075
:10341C0065B801F0A9FA2046FFF770FF83E701F0C9
:10342C00A3FA2046FFF76AFF92E701F09DFA2046C7
:10343C00FFF764FFA0E701F097FA2046FFF75EFF65
:10344C00AFE710BD164A10B59042036805D0B0F135
:10345C00804F02D0134CA04210D14C6823F0700363
:10346C00904243EA040305D0B0F1804F02D00D4ADC
:10347C00904203D1CA6823F4407313434A6923F082
:10348C008003134303608B68C3620B688362044B35
:10349C00984204BF0B6903630123436110BD00BF55
:1034AC00002C01400004004010B50446A0B190F877
:1034BC003D3003F0FF021BB980F83C2000F006FD04
:1034CC000223206884F83D30211DFFF7BBFF012348
:1034DC00002084F83D3010BD0120FCE77047704798
:1034EC000368DA6822F49072DA605A6922F00102F9
:1034FC005A61202380F83A30704790F83930202BED
:10350C0018D1A9B1A2B190F83830012B12D0C284D5
:10351C0000238284212201620168C36380F8383061
:10352C0080F83920CA68184642F08002CA60704799
:10353C00012070470220704790F83A30202B20D1A0
:10354C00E9B1E2B190F83830012B1AD0C2858285EE
:10355C0000232222C36380F83A20026880F83830B6
:10356C008162D168184641F48071D160516941F093
:10357C0001015161D16841F02001D16070470120F7
:10358C0070470220704710B590F83A30222B33D197
:10359C0081680469B1F5805F836A026823D152683F
:1035AC00ECB9C2F3080223F8022B8362C48D013CF0
:1035BC00A4B2C4858CB90368DA6822F02002DA6000
:1035CC00DA6822F48072DA605A6922F001025A61D8
:1035DC00202380F83A3000F009FD00200DE0D2B233
:1035EC0023F8012BE1E7591C526881620CB91A705F
:1035FC00DCE702F07F02FAE7022010BD036870B529
:10360C001A6804461607D9685D6907D1960659D51C
:10361C008D0657D5BDE87040FFF7B5BF05F001002A
:10362C0001F4907505434DD0D60705D5CD0542BFA5
:10363C00E36B43F00103E363530704D518B1E36B69
:10364C0043F00203E363960704D518B1E36B43F030
:10365C000403E363150704D518B1E36B43F00803C7
:10366C00E363E36B4BB3900604D5890602D5204681
:10367C00FFF789FF236820465B69E56B03F0400385
:10368C0005F008051D4319D0FFF72AFF23685A6976
:10369C0052060FD55A69606B22F040025A6148B14C
:1036AC00254B4363FFF7DEF838B1606BBDE8704023
:1036BC00436B1847204600F0AFFC70BD00F0ACFC2B
:1036CC00E563FAE7160628D50D0626D594F83920B9
:1036DC00212AF2D1A168226AB1F5805F18D1118834
:1036EC00C1F308015960216981B902322262E28C6E
:1036FC00013A92B2E284002ADFD1DA6822F0800229
:10370C00DA60DA6842F04002DA60D6E70132EDE7BF
:10371C00511C216212785A60E9E75006CDD54A0651
:10372C00CBD5DA68204622F04002DA60202384F8F8
:10373C00393000F05EFCC0E74937000808B50023BB
:10374C00406AC385C38400F067FC08BD90F838302C
:10375C00012B11D02423026880F83930D36823F070
:10376C000C0343F00803D360202380F83930002386
:10377C0080F83830184670470220704790F838307F
:10378C00012B11D02423026880F83930D36823F040
:10379C000C0343F00403D360202380F8393000235A
:1037AC0080F83830184670470220704790F839205E
:1037BC0090F83A001043704784B0032834D8DFE8FF
:1037CC0000F0020F1B27194B19489A6942F00402AA
:1037DC009A619B6903F004030093009B04B070474B
:1037EC00124B14489A6942F008029A619B6903F0E3
:1037FC0008030193019BF1E70C4B0F489A6942F0C7
:10380C0010029A619B6903F010030293029BE5E797
:10381C00064B0A489A6942F020029A619B6903F0B0
:10382C0020030393039BD9E70020D7E70010024045
:10383C0000080140000C0140001001400014014040
:10384C0037B50D4D2B68FEF739FC6C68AB6801344D
:10385C00E31A01932B68DB0304D5FEF72FFCAB684E
:10386C00E31A01934FF47A72019B5343B3FBF4F3C5
:10387C0002FB003003B030BD10E000E0FEF71EBCD0
:10388C00704708B5FEF70EFCFEF7E7FFFFF7F8FFF1
:10389C0008BD00000B4BDA68D2015EBFDA6842F05B
:1038AC008072DA600022084B5A601A6842F00102FA
:1038BC001A6000BF00BF00BF5868B0FA80F0400922
:1038CC00704700BFF0ED00E0001000E008B5FFF716
:1038DC00E1FFFEF7D5FBBDE8084000F0A5BD70B5D3
:1038EC000D0E445991FAA1F3B3FA83F30F269B0002
:1038FC0006FA03F324EA030491FAA1F1B1FA81F177
:10390C00890002FA01F12143415170BD70B50D0ED1
:10391C00445991FAA1F3B3FA83F304269B0006FAF7
:10392C0003F324EA030491FAA1F1B1FA81F18900BD
:10393C0002FA01F12143415170BD431C04D00C31FA
:10394C0031F90C3C5A1C01D100207047834201F123
:10395C000C01F5D1012070479F4B2DE9F74F00F07A
:10396C000F0253F822B0431C06460D4601F0070720
:10397C00C0F303141FFA80F903D14721974800F0D4
:10398C00E7F92046FFF718FF012F0446DFF85482B1
:10399C004FEA1B6A46D150F80A109BFAABF3B3FA04
:1039AC0083F303229B0002FA03F321EA03039BFA3D
:1039BC00ABF1B1FA81F189008A401343012240F83E
:1039CC000A3059462046013FFFF789FF012F06D8E0
:1039DC0015F0080218BF04225946FFF797FF54F858
:1039EC000A10C5F301159BFAABF2B2FA82F39A00F6
:1039FC000F2393400B409BFAABF2B2FA82F2012DEB
:103A0C004FEA820223FA02F300F0EE80022D00F05E
:103A1C001A81082B40F0FD80042259462046FFF7FE
:103A2C005EFFF6E0032F00F2CF80DFE817F0D30043
:103A3C0004000600D1003A46C3E7D8F8183043F02A
:103A4C000103C8F81830D8F8183003F001030093BC
:103A5C00009BC5F30623013B232B1AD8DFE803F0A8
:103A6C00121B22292E353A41191919464D565B6203
:103A7C006B7479808919191919198E9519191919D5
:103A8C009A9FA6AD564A536843F0E06343F0010396
:103A9C005360092295E7524A536823F0010343F01F
:103AAC00E063F5E74E4A536843F0E06343F00203EA
:103ABC00EEE74B4A536823F00203F0E7484A536899
:103ACC0043F0E06343F00403E2E7454A536823F014
:103ADC000403E4E7424A536843F0E06343F008030D
:103AEC00D6E73F4A536823F00803D8E73C4A5368AB
:103AFC0043F0E06343F0C003CAE7394A536823F04C
:103B0C00C00343F0E06343F04003C1E7344A536819
:103B1C0023F0C003C3E7324A536843F0E06343F435
:103B2C004073B5E72E4A536823F4407343F0E063C7
:103B3C0043F40073ACE72A4A536823F4407343F010
:103B4C00E06343F48073A3E7254A536823F440737E
:103B5C00A5E7234A536843F0E06343F4406397E7D7
:103B6C001F4A536823F4406343F0E06343F400635B
:103B7C008EE71B4A536823F4406390E7184A536856
:103B8C0043F0E06343F4004382E7154A536823F49F
:103B9C00004384E7124A536823F0E06378E7104A45
:103BAC00536823F0E06343F0807371E70C4A536869
:103BBC0023F0E06343F000736AE7094A536823F08B
:103BCC00E06343F0806363E77121044800F0C0F8C0
:103BDC000022F6E60822F4E6885300081153000888
:103BEC000000014000100240042B04D10822594669
:103BFC002046FFF774FEE3684FEA1B2223EA1B2BD7
:103C0C0092FAA2F3B3FA83F20123934043EA0B0333
:103C1C00E360D8F8183043F00103C8F81830D8F82E
:103C2C00183003F001030193019BA9F10D03012B43
:103C3C0018D8134A536823F0E06343F08063536051
:103C4C0003B0BDE8F08F042B04D10822594620465E
:103C5C00FFF745FEE3684FEA1B2223EA1B2392FA87
:103C6C00A2F2D5E70F2E04D0A9F11309B9F1010F77
:103C7C00E6D8034A536823F0E06343F00073DEE7B1
:103C8C0000000140431C06D17047834202D1896871
:103C9C00FFF762BE0C31B1F900305A1CF5D19D21F1
:103CAC00014800F055B800BF11530008B1F90030BD
:103CBC005A1C01D100207047834201D148687047DB
:103CCC000C31F3E7431C01D0FFF7F0BF0020704725
:103CDC004B6813B94FF0FF307047834202D1B1F9F2
:103CEC00000070470C31F3E708B1FFF7F1BF4FF05C
:103CFC00FF3070470346B1F90000421C00D17047F9
:103D0C00984201D1886870470C31F4E7431C01D00C
:103D1C00FFF7F0BF704703468B42084604D01BB137
:103D2C0000290CBF1846002070470000034B1B688D
:103D3C0013B1034A10681847704700BFD001002028
:103D4C00E80100200148FFF74DB900BFD401002065
:103D5C00FEE700000F4B1A6842F001021A60596826
:103D6C000D4A0A405A601A6822F0847222F480329A
:103D7C001A601A6822F480221A605A6822F4FE0231
:103D8C005A604FF41F029A604FF00062034B9A6026
:103D9C00704700BF001002400000FFF800ED00E08B
:103DAC00043870470368164A84B093420BD1154B04
:103DBC009A6942F400629A619B6903F4006301936F
:103DCC00019B04B07047B3F1804F0DD00E4A934263
:103DDC00F7D10C4BDA6942F00202DA61DB6903F0CD
:103DEC0002030393039BECE7064BDA6942F00102F2
:103DFC00DA61DB6903F001030293029BE1E700BF88
:103E0C00002C0140001002400004004003680E4AE0
:103E1C00934206D102F56442936923F400639361E3
:103E2C007047B3F1804F03D0084A934206D07047D5
:103E3C00074AD36923F00103D3617047044AD3695D
:103E4C0023F00203F8E700BF002C014000040040FF
:103E5C000010024008B5431C01460CD00A4B984296
:103E6C000CD003F5943398420AD0B0F1804F09D0AE
:103E7C000648FFF76DFF6FF00D0008BD1D20FCE735
:103E8C001920FAE71C20F8E700040040E053000872
:103E9C0008B5431C01460CD00A4B98420CD003F5D4
:103EAC00943398420AD0B0F1804F09D00648FFF7FE
:103EBC004FFF6FF00D0008BD1D20FCE71B20FAE73B
:103ECC001C20F8E700040040E053000838B5044615
:103EDC00FFF768FF0068FFF7BDFFD4E91012FEF78B
:103EEC0041FC2068FFF7B6FFFEF76EFC2068FFF779
:103EFC00CFFF05462068FFF7ADFF85420DD0206847
:103F0C00FFF7C6FFD4E91012FEF72CFC2068FFF770
:103F1C00BFFFBDE83840FEF757BC38BD08B5074BAE
:103F2C0090F8512053F82200FFF740FC00F02200DB
:103F3C00A0F122035842584108BD00BFEC010020FB
:103F4C0008B5074B90F8512053F82200FFF72EFCD0
:103F5C0000F02100A0F121035842584108BD00BFD8
:103F6C00EC01002010B50446E8B1816490F95000D2
:103F7C00FEF738FCB4F86230A16D9BB294F8510096
:103F8C001944094B012253F82000FFF7B6FA94F9B3
:103F9C00500000220121FEF7E5FB94F95000BDE82A
:103FAC001040FEF711BC10BDEC01002050B1B0F96F
:103FBC004E30013306D190F85120034B53F82200B8
:103FCC00FFF7C4BB704700BFEC01002050B1B0F943
:103FDC004E30013306D190F85120034B53F8220098
:103FEC00FFF7CCBB704700BFEC010020036C04381A
:103FFC00184710B5436C04460438984701300AD072
:10400C00B4F85E30616D9BB22046BDE810400122D1
:10401C001944FFF772BA10BD1FB50368044618683F
:10402C0010F0010013D0002200921A6800925B6815
:10403C000093009B201FFFF771FF40BB012220461D
:10404C0004F14E0104B0BDE81040FFF775BA1968D1
:10405C0011F0020106D001901A6801925B6801937D
:10406C00019BE7E71A6812F0040206D002911A6865
:10407C0002925B680293029BDCE719680907D9D5A9
:10408C0003921A6803925B680393039BD2E704B014
:10409C0010BD000008B52520FEF7CEFB024B1868BA
:1040AC00BDE80840FFF7AABAEC01002008B52620AD
:1040BC00FEF7C2FB024B5868BDE80840FFF79EBAFA
:1040CC00EC0100200368134A82B0934212D1124BC8
:1040DC009A6942F400729A619B6903F4007300932D
:1040EC00009B0E4BB3F90000C30511D40C4902B070
:1040FC00FFF7C8BD0B4A9342F3D1074B9A6942F4C0
:10410C0080629A619B6903F480630193019BE8E7E9
:10411C0002B07047002401400010024068000020EB
:10412C00F8530008002801400368124A93420DD14D
:10413C00114BDA6842F40072DA60DA6822F4007229
:10414C00DA609A6922F400729A6170470B4A9342C2
:10415C00FBD1094BDA6842F48062DA60DA6822F447
:10416C008062DA609A6922F480629A619A6922F418
:10417C008062E9E700240140001002400028014061
:10418C00F0B591B004463022002104A800F0EEFDF9
:10419C000023E205CDE901330393ADF802300FD5CE
:1041AC00B4F5817F0CDC3A4B049340F201139C4232
:1041BC001CD0B4F5817F0CBF11250025072610E01B
:1041CC0034492046FFF77EFD324904902046FFF724
:1041DC009DFDC0F3C4356B1E102B4FF0020688BF3B
:1041EC000025049B23B9002011B0F0BD1025E5E794
:1041FC00002301274FF46022CDE905338DF81C30E4
:10420C008DF824300A930E930C938DF83430224B96
:10421C0004A808970B921C80FEF732F90028E2D113
:10422C0001A904A8CDE901570396FDF7EDFF00287D
:10423C00D9D104A8FEF71CFA0028D4D104A8FEF7A3
:10424C009BF80028CFD10A2104A8FDF73DFF0028D8
:10425C00C9D104A8FEF756F8830505D504A8FDF7C7
:10426C00CFFF80B2ADF8020004A8FEF7E7F90028F2
:10427C00B9D104A8FEF782F90028B4D1044A936896
:10428C0023F400039360BDF8020080B2ACE700BFDA
:10429C0000240140F853000868000020F8B51449C8
:1042AC000646FFF70FFD00F0EDFA124C054654F8E8
:1042BC00203073B90E493046FFF704FD07466C20D9
:1042CC0000F09EFC0646394600F0F2FA54F8253010
:1042DC001E6054F825301C6844B1204600F02EFBBB
:1042EC002046BDE8F8406C2100F08CBCF8BD00BF46
:1042FC007C54000844040020836810B5044613B1B4
:10430C00032201469847204610BD000000230128D7
:10431C0003F1010202D013464008F8E71421DBB286
:10432C004B43044A181D1044816811B11A44136997
:10433C0018477047F40100200120FEF7D9BA02207B
:10434C00FEF7D6BA0420FEF7D3BA0820FEF7D0BA8F
:10435C001020FEF7CDBA38B505242025A8B2FEF7FB
:10436C00C7FA013C4FEA4505F8D138BD38B50624EB
:10437C004FF48065A8B2FEF7BBFA013C4FEA450545
:10438C00F8D138BD0721204B06221975082183F876
:10439C002810092183F83C100A2183F850101721AA
:1043AC001A7083F86410002283F8781083F88C104C
:1043BC0083F8A01083F8B4102821DA601A625A63CB
:1043CC009A64DA651A67C3F88420C3F89820C3F896
:1043DC00AC20C3F8C02083F8C810C3F8D42083F8ED
:1043EC00DC10C3F8E82083F8F010C3F8FC2083F845
:1043FC000411C3F8102183F81811C3F8242183F891
:10440C002C11C3F838217047F401002038B5054C45
:10441C00A4F5A075143C201DFFF76EFFAC42F9D13A
:10442C0038BD00BF3403002010B54FF48033012297
:10443C00022494B00021CDE90A23CDE911434FF4B5
:10444C00E0130AA80C910E921393FEF75DFA00B1DB
:10445C00FEE70F23CDE905344FF480630790CDE9D7
:10446C000830214605A8FEF725FC00B1FEE7122313
:10447C0001934FF40043CDE9033001A8FEF7C6FCCD
:10448C0000B1FEE714B010BD002103E00B4B5B58EC
:10449C00435004310A480B4B42189A42F6D30A4A4D
:1044AC0002E0002342F8043B084B9A42F9D3FFF791
:1044BC0051FC00F019FC00F093FB704754580008B5
:1044CC0000000020D8000020D80000206C04002040
:1044DC00FEE7704791420FD008D90123891A8B400F
:1044EC00984208D30130C8400138704720B10130E0
:1044FC00511A8840F8E700207047000010B500F012
:10450C00D7FB431C0AD0064C2168FFF739FE054B3C
:10451C0021681A68BDE81040FFF7DCBF002010BD11
:10452C006C0000207000002022282DE9F0410E467E
:10453C003DD8204B33F91040621C38D01E4DC4F3CB
:10454C00031755F8273004F00F0823FA08F3DB079C
:10455C0010D520461949FFF7F0F910B12046FFF7A6
:10456C009DFE012303FA08F255F8273023EA0203D3
:10457C0045F82730052E14D8DFE806F0030F090B99
:10458C000D1100212046BDE8F041FFF7E5B91021DF
:10459C00F8E72021F6E70321F4E70121F2E70921EE
:1045AC00F0E74921BDE8F0410548FFF7D1BBBDE874
:1045BC00F08100BF74560008340300207C540008BE
:1045CC00BA56000822288EBF4FF0FF330C4B33F93C
:1045DC0010301A0912F00C0F02BF0A4802F00F0239
:1045EC0050F82220084803F00F0350F8233018BF6E
:1045FC000022C3F30F2309B1136170475361704755
:10460C00745600085400002088530008FFF736B990
:10461C00FFF716B938B5044648B1FFF72FF9054630
:10462C00FFF757FFFFF72AF9431BA342F8D338BD16
:10463C00B0F86230013303F03F03A0F86230B0F8F9
:10464C006230B0F85E009BB298424FF0FF3018BF5A
:10465C0000207047B0F8F430B0F8F000181A00F0F1
:10466C003F007047B0F8F430B0F8F0209BB29342A2
:10467C001ABFD0F8E830985C4FF0FF30704700005C
:10468C00012370B50374B0F9E230044601330E46D1
:10469C0000F1940508D190F8F8302BB1002380F884
:1046AC00F8302846FFF782FCB4F8F2104B1C03F0EC
:1046BC003F03B4F8F62092B29342FAD0D4F8EC202F
:1046CC0028465654A4F8F230FFF73AFC18B928469D
:1046DC000249FFF747FC012070BD00BF3D460008B2
:1046EC00037C33B1B0F8F220B0F8F6309BB29A42AA
:1046FC00FAD1704700F11103914208BF4FF0FF311E
:10470C00C0F8E8300023A0F8E02000F15102A0F836
:10471C00F430C0E93B23A0F8E210A0F8F630704763
:10472C0070B54FF47A7316460022C0E90123164B7C
:10473C00044603604FF6FF73A0F8E230134B0D46AE
:10474C00984213D1124B9A8AA0F8E220DB8AA0F887
:10475C00E0301EB14FF6FF73A4F8E2302046B4F9F6
:10476C00E020B4F9E210FFF7C5FF70BD09492846F7
:10477C00FFF7BAFA0849A4F8E2002846FFF7B4FAA2
:10478C00A4F8E000E5E700BF305700084403002020
:10479C00745600081456000844560008B0F9E2306C
:1047AC0010B5013304460ED103685B69984794F841
:1047BC00F83043B9012304F1940084F8F830BDE8D3
:1047CC001040FFF703BC10BD10B50446FFF7E6FF21
:1047DC00B4F8F420B4F8F03092B29A4217BFD4F87F
:1047EC00E8204FF0FF30D05C01331CBF03F03F03D7
:1047FC00A4F8F03010BD0000002202490248FFF777
:10480C008FBF00BF003801404403002010B50446A0
:10481C0020B940F2CB310648FFF79AFA2046FFF751
:10482C00BFFA0068436D13B1BDE81040184710BDC6
:10483C005057000870B5054620B940F2DE311048DB
:10484C00FFF786FA2B7F013B072B17D8DFE803F025
:10485C00140416101616161202242846FFF7A0FA96
:10486C00006800EB8404636D43B1BDE870401847E9
:10487C000324F2E70424F0E70124EEE770BD00BF47
:10488C0050570008084B98420AD0B0F1804F09D01D
:10489C004FF6FF73054A904214BF1846022070472A
:1048AC000020704701207047002C0140000400409C
:1048BC0070B5044608460D46FFF7E4FF4FF6FF734C
:1048CC009842064603D132211A48FFF741FA1A4B97
:1048DC0004F1080243F82620E5600E23002504F1BC
:1048EC000C063046C4E91335C4E90B55C4E90D5523
:1048FC00C4E90F5584F82850656484F8485084F84E
:10490C004950A460FFF74EFA4FF6FF733046C4E9E6
:10491C001555C4E91755C4E91955C4E90055C4E93E
:10492C000553C4E9075525616562FEF7BDFD2046B8
:10493C0070BD00BF5057000844040020014638B534
:10494C00044651F80C0FFFF79DFF05460846FFF78C
:10495C005DFA0022024B204643F8252038BD00BFEB
:10496C0044040020FFF766BFFFF764BFFFF74EBF9C
:10497C00034B186810B10430FEF7C2BC704700BF7F
:10498C0044040020FFF7F4BF034B586810B1043007
:10499C00FEF7B6BC704700BF44040020034B986878
:1049AC0010B10430FEF7ACBC704700BF44040020CB
:1049BC00F8B505460E4617460024BC4207D02B68B6
:1049CC0028461B68315D984708B10134F5E720464D
:1049DC00F8BD70B505460C46084649B1FBF79AFB85
:1049EC002B68024621462846BDE870405B68184794
:1049FC0070BD03688A685B680968184708B5024986
:104A0C00FFF7E7FF08BD00BFBE57000838B50546E5
:104A1C00FFF7DFFF04462846FFF7F0FF204438BDC0
:104A2C0010B50446FFF7F2FDE06023682046DB6812
:104A3C009847002808DAFFF7E9FDE368C01AA36875
:104A4C009842F2D34FF0FF3010BDF8B506460D4634
:104A5C0017460024BC4207D03046FFF7E1FF031E87
:104A6C0002DB2B550134F5E72046F8BD2DE9F0416A
:104A7C000746884616461D4673B100243846FFF794
:104A8C00CFFF031E05DB434503D033550134A5424C
:104A9C00F4D12046BDE8F0811C46FAE781607047EE
:104AAC0010B50446006800F04BF9204610BD10B557
:104ABC000446006808B100F043F90023C4E901334F
:104ACC00236010BD38B504460D460068013100F076
:104ADC00FBF910B1C4E90005012038BD036810B51D
:104AEC00044623B143688B4201D3012010BD2046FC
:104AFC00FFF7E8FF0028F9D0A368002BF5D1226856
:104B0C001370F2E770B50E46114604461546FFF7D2
:104B1C00E5FF20B92046FFF7CAFF204670BD31469D
:104B2C002068A56000F0E8F9F7E738B500230446E3
:104B3C000D46C0E90033836039B10846FBF7EAFA49
:104B4C00294602462046FFF7DDFF204638BD884245
:104B5C0010B50B46044604D0096821B19A68FFF7DA
:104B6C00D1FF204610BDFFF7A2FFFAE7002310B5D6
:104B7C000446C0E900338360FFF7E9FF204610BD0F
:104B8C0070B505460E4609B9002070BD6AB184683F
:104B9C0014442146FFF7A2FF0028F5D02868AB6823
:104BAC003146184400F0A8F9AC600120EDE738B5A7
:104BBC0005460C46084641B1FBF7ACFA21460246C5
:104BCC002846BDE83840FFF7DBBF38BD704708B555
:104BDC000320FDF7B5FDBDE8084000F067B8000004
:104BEC0008B5FFF7F3FFFCF711FA044CFCF7E2FDF4
:104BFC00002CFBD0AFF30080F8E700BF00000000F2
:104C0C0000F096B800F09CB822282DE9F8430C4629
:104C1C00164623D80125234B33F9103003F00F022D
:104C2C001B0913F00C0F05FA02F519D11E4A03F0FB
:104C3C000F0352F82380002C18BF2C46FFF7E8FC1A
:104C4C000746D8F808302B40A3420CD1FFF7E0FC04
:104C5C00C01BB042F5D90020BDE8F8834FF40045E5
:104C6C004FF00008E7E7D8F808302B40A34205D0F6
:104C7C00FFF7CEFCC01BB042F5D9ECE7FFF7C8FC40
:104C8C008146D8F808302B40A34205D1FFF7C0FC71
:104C9C00C01BB042F5D9DEE7FFF7BAFCA0EB090068
:104CAC00DAE700BF7456000854000020FEF70EBE71
:104CBC000928034603D9222808D8024601E000F14E
:104CCC001402084931F91200421C0AD1242B06D0D7
:104CDC00262B14BF4FF0FF304FF48170704740F219
:104CEC00011070477456000870B500260C4D0D4C21
:104CFC00641BA410A64209D100F0A4FA00260A4DA8
:104D0C000A4C641BA410A64205D170BD55F8043B97
:104D1C0098470136EEE755F8043B98470136F2E721
:104D2C002C5800082C5800082C580008485800082B
:104D3C00024B0146186800F06DB800BF74000020EB
:104D4C00024B0146186800F019B800BF740000202F
:104D5C000A44914200F1FF3300D1704710B511F8AD
:104D6C00014B914203F8014FF9D110BD03460244A7
:104D7C00934200D1704703F8011BF9E738B505469B
:104D8C00002943D051F8043C0C1F002BB8BFE41889
:104D9C0000F0BCF81E4A1368104633B96360146007
:104DAC002846BDE8384000F0B7B8A3420AD92168BC
:104DBC006218934201BF1A685B68521822606360E4
:104DCC000460EDE71A465B680BB1A342FAD911688F
:104DDC005018A0420BD12068014450188342116036
:104DEC00DED118685B68014411605360D8E702D9C2
:104DFC000C232B60D4E7206821188B4201BF196863
:104E0C005B680918216063605460C9E738BD00BF56
:104E1C0050040020F8B5CD1C25F0030508350C2DE9
:104E2C0038BF0C25002D064601DBA94203D90C2303
:104E3C0033600020F8BD00F069F821490A68144677
:104E4C009CB9204F3B6823B92146304600F044F80A
:104E5C0038602946304600F03FF8431C23D10C2320
:104E6C003046336000F058F8E3E723685B1B17D437
:104E7C000B2B03D923601C44256004E06368A24219
:104E8C000CBF0B605360304600F046F804F10B0089
:104E9C00231D20F00700C21ACCD01B1AA350C9E75F
:104EAC0022466468CCE7C41C24F00304A042E3D07F
:104EBC00211A304600F010F80130DDD1CFE700BFE9
:104ECC005004002054040020024B0A460146186886
:104EDC0000F028B87400002038B50023054D0446B6
:104EEC0008462B60FDF788F8431C02D12B6803B1F0
:104EFC00236038BD5C040020034611F8012B03F835
:104F0C00012B002AF9D17047704770470148FFF711
:104F1C00FBBF00BF640400200148FFF7F6BF00BFD1
:104F2C0064040020F8B5074614460E4621B9114614
:104F3C00BDE8F840FFF76EBF22B9FFF71FFF25460B
:104F4C002846F8BD00F014F8A0420FD2214638468E
:104F5C00FFF760FF05460028F2D031462246FFF7E6
:104F6C00F7FE31463846FFF709FFE9E73546E7E734
:104F7C0051F8043C181F002BBCBF0B58C0187047CD
:104F8C002DE9F047089E0D4604468E46002B40F056
:104F9C0083808A42174647D9B2FA82F34BB1C3F1E8
:104FAC00200105FA03FE20FA01F19F4041EA0E0EA2
:104FBC009C404FEA1748BEFBF8FC1FFA87F908FB28
:104FCC001CE20CFB09F0210C41EA024290420AD986
:104FDC00BA180CF1FF3180F01881904240F2158123
:104FEC00ACF1020C3A44121AB2FBF8F008FB102296
:104FFC0000FB09F1A4B244EA0244A14209D93C19CC
:10500C0000F1FF3280F00381A14240F200810238AE
:10501C003C44641A002140EA0C401EB10022DC40E2
:10502C00C6E90042BDE8F08702B9FFDEB2FA82F3AE
:10503C00002B4FD18D1A01214FEA124E1FFA82F824
:10504C00B5FBFEFC0EFB1C5508FB0CF0220C42EAD7
:10505C000545A84207D97D190CF1FF3202D2A842AE
:10506C0000F2E98094462D1AB5FBFEF00EFB1055AC
:10507C0008FB00F8A4B244EA0544A04507D93C1942
:10508C0000F1FF3202D2A04500F2D9801046A4EB09
:10509C00080440EA0C40C0E78B4208D9002E00F00F
:1050AC00B1800021C6E900050846BDE8F087B3FAD7
:1050BC0083F100294BD1AB4202D3824200F2B9807A
:1050CC00841A65EB030301209E46002EAAD0C6E984
:1050DC00004EA7E79F40C3F12002D1404FEA174E84
:1050EC00B1FBFEF01FFA87F80EFB101124FA02F246
:1050FC009D4000FB08FC2A43150C45EA0145AC45D4
:10510C0004FA03F409D97D1900F1FF3180F08F8086
:10511C00AC4540F28C8002383D44A5EB0C05B5FB48
:10512C00FEF10EFB115C01FB08F995B245EA0C454A
:10513C00A94507D97D1901F1FF3274D2A94572D95D
:10514C0002393D44A5EB090541EA004178E7C1F17C
:10515C0020078B4022FA07FC4CEA030C25FA07F4D3
:10516C004FEA1C4EB4FBFEF91FFA8CF80EFB1944E7
:10517C0020FA07F309FB08FA8D401D432B0C43EA78
:10518C000444A24502FA01F200FA01F309D91CEB1E
:10519C00040409F1FF3048D2A24546D9A9F102090D
:1051AC006444A4EB0A04B4FBFEF00EFB104400FBB9
:1051BC0008FAADB245EA0444A24508D91CEB040434
:1051CC0000F1FF352DD2A2452BD90238644440EAB8
:1051DC000940A0FB0289A4EB0A044C45C6464D4687
:1051EC0019D316D05EB1B3EB0E0264EB050404FACE
:1051FC0007F722FA01F31F43CC40C6E900740021E3
:10520C00BDE8F087314630460CE78C46EBE610469D
:10521C00FFE64345E6D2B8EB020E69EB0C0501380C
:10522C00E0E72846D3E711468CE78146B9E7084604
:10523C0073E7084649E7ACF1020C3D4413E702382A
:10524C003C4424E7F8B500BFF8BC08BC9E46704748
:0C525C00F8B500BFF8BC08BC9E467047C7
:105268004C6F526120696E6974206661696C65646F
:105278002E20436865636B20796F757220636F6EAB
:105288006E656374696F6E732E002F2F22225C5C2B
:105298006208660C6E0A720D7409006E756C6C00FB
:1052A800652D00747275650066616C7365006469CC
:1052B8007374616E63006C6967687400626174740A
:1052C8006572795F73746174757300200000000063
:1052D80000000000000000000D1800085519000823
:1052E800F718000807190008991900082518000878
:1052F800574A0008794A0008020304050607080906
:105308000A0B0C0D0E0F1010002F686F6D652F73B0
:105318006172626A6565742F736E61702F61726461
:1053280075696E6F2F35302F2E61726475696E6FD7
:1053380031352F7061636B616765732F53544D333B
:10534800322F68617264776172652F73746D3332BE
:105358002F312E382E302F6C696272617269657335
:105368002F537263577261707065722F7372632F57
:1053780073746D33322F70696E6D61702E63000027
:1053880001010000020200000404000008080000F7
:105398001010000020200000404000008080000025
:1053A80001000104020002040400040408000804C7
:1053B80010001004200020044000400480008004F5
:1053C80000000000000000000102030406070809AD
:1053D800000000000102030454494D3A20556E6B49
:1053E8006E6F776E2074696D6572204952516E0038
:1053F800000000000024014003000000010000003C
:105408000024014003800000020000000024014045
:105418000300010003000000002401400380010094
:105428000400000000240140030002000500000001
:10543800002401400380020006000000002401400F
:10544800030003000700000000240140038003005C
:1054580010000000002401400300040011000000B7
:105468000024014003800400FFFF0000000000004A
:105478000000000000000000000000401280000052
:1054880001000000000000401200010002000000BE
:1054980000000040128001000300000000000040EE
:1054A8001200020006000000000400401280000004
:1054B800070000000004004012000100080000007E
:1054C800002C01401280000009000000002C01405F
:1054D800120001000A000000002C014012800100A7
:1054E8000B000000002C0140120002000F00000019
:1054F80000000040128F000010000000000400406F
:105508001280010011000000000400401200020097
:105518001300000000000040120F010014000000FA
:105528000004004012940000150000000004004030
:10553800121401001A00000000000040128F010040
:105548001B00000000000040120F02001D000000B8
:10555800002C0140128010001E000000002C0140A9
:10556800120011001F000000002C014012801100E1
:10557800FFFF00000000000000000000060000001F
:10558800003001401200000014000000003001400B
:1055980012010000FFFF00000000000000000000F2
:1055A8000700000000300140120000001500000054
:1055B8000030014012010000FFFF00000000000061
:1055C800000000000500000000300140120000004B
:1055D800130000000030014012010000FFFF00002E
:1055E800000000000000000004000000003001403E
:1055F800120000000F0000000030014012010000FE
:10560800FFFF000000000000000000000300000091
:1056180000440040100000000A000000003801406B
:1056280010000000170000000038014010050000BD
:10563800FFFF000000000000000000000200000062
:10564800004400401200000009000000003801403A
:10565800120000001600000000380140120500008A
:10566800FFFF000000000000000000001900180003
:10567800170016001500140013000F000C000B0093
:105688000A00090008001F001E001D001C002D0054
:105698002E002F0000000100020003000400050096
:1056A80006000700100011001A001B0012000D0070
:1056B8000E002F686F6D652F736172626A6565747D
:1056C8002F736E61702F61726475696E6F2F35303C
:1056D8002F2E61726475696E6F31352F7061636B3F
:1056E800616765732F53544D33322F686172647745
:1056F8006172652F73746D33322F312E382E302F2F
:10570800636F7265732F61726475696E6F2F776945
:1057180072696E675F6469676974616C2E63000003
:1057280000000000000000008D460008BD49000888
:1057380061460008D547000871460008ED46000894
:10574800574A0008794A00082F686F6D652F736102
:1057580072626A6565742F736E61702F6172647509
:10576800696E6F2F35302F2E61726475696E6F31D7
:10577800352F7061636B616765732F53544D3332F6
:105788002F68617264776172652F73746D33322F7D
:10579800312E382E302F636F7265732F61726475E6
:1057A800696E6F2F486172647761726554696D65BF
:1057B800722E637070000D0A0000000000000000E7
:1057C80000000000000000000000000000000000D1
:1057D80000000000000000000000000000000000C1
:1057E80000000000000000000000000000000000B1
:1057F80000000000000000000000000000000000A1
:105808000000000000000000000000000000000090
:0C58180000000000000000000000000084
:0858240068F7FF7F010000009E
:10582C00DB4B0008850F0008F1170008411B00082E
:0C583C005D1D00089143000805480008AD
:0C584800610F0008011800081944000856
:105854000000803FCDCCCC3D6F12833A95BFD63348
:105864007D1D9026B3CE010CCDCCCC3D0AD7233C74
:1058740017B7D13877CC2B329595E6241FB14F0A50
:10588400000020410000C84200401C4620BCBE4C21
:10589400CA1B0E5AAEC59D7470040020010000009E
:1058A4001000000000080140000C014000100140FD
:1058B400001401400024F400FFFF00000C0000006D
:1058C4000A0000007800002000000000E4570008EF
:1058D40004580008C457000800000000000000003D
:1058E40000000000000000000000000000000000B4
:1058F40000000000000000000000000000000000A4
:105904000000000000000000000000000000000093
:105914000000000000000000000000000000000083
:0859240000000000000000007B
:040000050800449516
:00000001FF
