:020000040800F2
:1000000000500020DD67000825680008256800080A
:100010002568000825680008256800080000000021
:10002000000000000000000000000000256800083B
:10003000256800080000000025680008F75A00083D
:10004000256800082568000825680008256800085C
:1000500025680008256800088D660008936600087A
:10006000996600089F660008A566000825680008D4
:10007000256800082568000825680008256800082C
:10008000256800082568000825680008256800081C
:10009000256800082568000825680008AB66000888
:1000A000256800081D6D000825680008316D0008EE
:1000B000356D0008496D00085D6D000829220008B3
:1000C00035220008412200084D220008256800085A
:1000D00025680008CD630008E5630008FD6300089B
:1000E000C1660008296000082568000800000000BB
:1000F0000000000000000000000000000000000000
:0C01000000000000000000005FF808F1A3
:10010C0010F8012B11F8013B012A28BF9A42F7D0B5
:10011C00D01A7047034613F8012B002AFBD1181A8A
:10012C000138704781F0004102E000BF83F00043CA
:10013C0030B54FEA41044FEA430594EA050F08BF76
:10014C0090EA020F1FBF54EA000C55EA020C7FEA3A
:10015C00645C7FEA655C00F0E2804FEA5454D4EBB7
:10016C005555B8BF6D420CDD2C4480EA020281EA81
:10017C00030382EA000083EA010180EA020281EAB9
:10018C000303362D88BF30BD11F0004F4FEA01310B
:10019C004FF4801C4CEA113102D0404261EB41011A
:1001AC0013F0004F4FEA03334CEA133302D05242A0
:1001BC0063EB430394EA050F00F0A780A4F101045C
:1001CC00D5F1200E0DDB02FA0EFC22FA05F2801896
:1001DC0041F1000103FA0EF2801843FA05F359417C
:1001EC000EE0A5F120050EF1200E012A03FA0EFCFB
:1001FC0028BF4CF0020C43FA05F3C01851EBE37125
:10020C0001F0004507D54FF0000EDCF1000C7EEB41
:10021C0000006EEB0101B1F5801F1BD3B1F5001F7F
:10022C000CD349085FEA30004FEA3C0C04F101049E
:10023C004FEA445212F5800F80F09A80BCF1004FC7
:10024C0008BF5FEA500C50F1000041EB045141EA49
:10025C00050130BD5FEA4C0C404141EB0101013C12
:10026C0028BFB1F5801FE9D291F0000F04BF014601
:10027C000020B1FA81F308BF2033A3F10B03B3F1D3
:10028C0020020CDA0C3208DD02F1140CC2F10C0263
:10029C0001FA0CF021FA02F10CE002F11402D8BFC1
:1002AC00C2F1200C01FA02F120FA0CFCDCBF41EA8D
:1002BC000C019040E41AA2BF01EB0451294330BD5C
:1002CC006FEA04041F3C1CDA0C340EDC04F1140439
:1002DC00C4F1200220FA04F001FA02F340EA030010
:1002EC0021FA04F345EA030130BDC4F10C04C4F156
:1002FC00200220FA02F001FA04F340EA0300294636
:10030C0030BD21FA04F0294630BD94F0000F83F47F
:10031C00801306BF81F480110134013D4EE77FEA62
:10032C00645C18BF7FEA655C29D094EA050F08BFAE
:10033C0090EA020F05D054EA000C04BF194610468F
:10034C0030BD91EA030F1EBF0021002030BD5FEAD3
:10035C00545C05D14000494128BF41F0004130BDFB
:10036C0014F580043CBF01F5801130BD01F000454F
:10037C0045F0FE4141F470014FF0000030BD7FEAC2
:10038C00645C1ABF194610467FEA655C1CBF0B46BD
:10039C00024650EA013406BF52EA033591EA030FD4
:1003AC0041F4002130BD00BF90F0000F04BF0021CC
:1003BC00704730B54FF4806404F132044FF00005FF
:1003CC004FF0000150E700BF90F0000F04BF002178
:1003DC00704730B54FF4806404F1320410F00045DE
:1003EC0048BF40424FF000013EE700BF42004FEAD9
:1003FC00E2014FEA31014FEA02701FBF12F07F4356
:10040C0093F07F4F81F06051704732F07F4208BF0C
:10041C00704793F07F4F04BF41F40021704730B513
:10042C004FF4607401F0004521F000411CE700BF5F
:10043C0050EA010208BF704730B54FF000050AE0E2
:10044C0050EA010208BF704730B511F0004502D5E3
:10045C00404261EB41014FF4806404F132045FEAE5
:10046C00915C3FF4D8AE4FF003025FEADC0C18BF8E
:10047C0003325FEADC0C18BF033202EBDC02C2F180
:10048C00200300FA03FC20FA02F001FA03FE40EA12
:10049C000E0021FA02F11444BDE600BF70B54FF016
:1004AC00FF0C4CF4E06C1CEA11541DBF1CEA1355F4
:1004BC0094EA0C0F95EA0C0F00F0DEF82C4481EA5C
:1004CC00030621EA4C5123EA4C5350EA013518BF7C
:1004DC0052EA033541F4801143F4801338D0A0FB69
:1004EC0002CE4FF00005E1FB02E506F00042E0FB16
:1004FC0003E54FF00006E1FB03569CF0000F18BF1C
:10050C004EF0010EA4F1FF04B6F5007F64F54074C3
:10051C0004D25FEA4E0E6D4146EB060642EAC62156
:10052C0041EA55514FEAC52040EA5E504FEACE2EC3
:10053C00B4F1FD0C88BFBCF5E06F1ED8BEF1004FC6
:10054C0008BF5FEA500E50F1000041EB045170BD42
:10055C0006F0004646EA010140EA020081EA030186
:10056C00B4EB5C04C2BFD4EB0C0541EA045170BD82
:10057C0041F480114FF0000E013C00F3AB8014F1FC
:10058C00360FDEBF002001F0004170BDC4F1000445
:10059C00203C35DA0C341BDC04F11404C4F12005C6
:1005AC0000FA05F320FA04F001FA05F240EA020021
:1005BC0001F0004221F0004110EBD37021FA04F657
:1005CC0042EB06015EEA430E08BF20EAD37070BD11
:1005DC00C4F10C04C4F1200500FA04F320FA05F070
:1005EC0001FA04F240EA020001F0004110EBD37072
:1005FC0041F100015EEA430E08BF20EAD37070BDE2
:10060C00C4F1200500FA05F24EEA020E20FA04F3BA
:10061C0001FA05F243EA020321FA04F001F0004169
:10062C0021FA04F220EA020000EBD3705EEA430EDA
:10063C0008BF20EAD37070BD94F0000F0FD101F009
:10064C000046400041EB010111F4801F08BF013C42
:10065C00F7D041EA060195F0000F18BF704703F080
:10066C000046520043EB030313F4801F08BF013D07
:10067C00F7D043EA0603704794EA0C0F0CEA1355C3
:10068C0018BF95EA0C0F0CD050EA410618BF52EA7D
:10069C004306D1D181EA030101F000414FF0000083
:1006AC0070BD50EA410606BF1046194652EA430691
:1006BC0019D094EA0C0F02D150EA013613D195EA05
:1006CC000C0F05D152EA03361CBF104619460AD14D
:1006DC0081EA030101F0004141F0FE4141F4700157
:1006EC004FF0000070BD41F0FE4141F4780170BD47
:1006FC0070B54FF0FF0C4CF4E06C1CEA11541DBFAC
:10070C001CEA135594EA0C0F95EA0C0F00F0A7F8AD
:10071C00A4EB050481EA030E52EA03354FEA0131DA
:10072C0000F088804FEA03334FF0805545EA1313ED
:10073C0043EA12634FEA022245EA111545EA1065B5
:10074C004FEA00260EF000419D4208BF964244F14C
:10075C00FD0404F5407402D25B084FEA3202B61A6B
:10076C0065EB03055B084FEA32024FF480104FF43F
:10077C00002CB6EB020E75EB030E22BFB61A7546B3
:10078C0040EA0C005B084FEA3202B6EB020E75EB46
:10079C00030E22BFB61A754640EA5C005B084FEAAE
:1007AC003202B6EB020E75EB030E22BFB61A75467B
:1007BC0040EA9C005B084FEA3202B6EB020E75EB86
:1007CC00030E22BFB61A754640EADC0055EA060E47
:1007DC0018D04FEA051545EA16754FEA06164FEA8A
:1007EC00C30343EA52734FEAC2025FEA1C1CC0D136
:1007FC0011F4801F0BD141EA00014FF000004FF0C3
:10080C00004CB6E711F4801F04BF01430020B4F183
:10081C00FD0C88BFBCF5E06F3FF6AFAEB5EB030C3B
:10082C0004BFB6EB020C5FEA500C50F1000041EB38
:10083C00045170BD0EF0004E4EEA113114EB5C0405
:10084C00C2BFD4EB0C0541EA045170BD41F48011D8
:10085C004FF0000E013C90E645EA060E8DE60CEAE0
:10086C00135594EA0C0F08BF95EA0C0F3FF43BAFFD
:10087C0094EA0C0F0AD150EA01347FF434AF95EAB4
:10088C000C0F7FF425AF104619462CE795EA0C0F98
:10089C0006D152EA03353FF4FDAE1046194622E765
:1008AC0050EA410618BF52EA43067FF4C5AE50EA3F
:1008BC0041047FF40DAF52EA43057FF4EBAE12E72F
:1008CC004FF0FF3C06E000BF4FF0010C02E000BF10
:1008DC004FF0010C4DF804CD4FEA410C7FEA6C5CF3
:1008EC004FEA430C18BF7FEA6C5C1BD001B050EA96
:1008FC00410C0CBF52EA430C91EA030F02BF90EA81
:10090C00020F0020704710F1000F91EA030F58BF3F
:10091C00994208BF90422CBFD8176FEAE37040F0A1
:10092C00010070474FEA410C7FEA6C5C02D150EA3F
:10093C00013C07D14FEA430C7FEA6C5CD6D152EAFA
:10094C00033CD3D05DF8040B704700BF84461046BF
:10095C0062468C461946634600E000BF01B5FFF7BE
:10096C00B7FF002848BF10F1000F01BD4DF808ED8E
:10097C00FFF7F4FF0CBF012000205DF808FB00BF5F
:10098C004DF808EDFFF7EAFF34BF012000205DF8B9
:10099C0008FB00BF4DF808EDFFF7E0FF94BF012006
:1009AC0000205DF808FB00BF4DF808EDFFF7CEFF07
:1009BC0094BF012000205DF808FB00BF4DF808ED46
:1009CC00FFF7C4FF34BF012000205DF808FB00BF17
:1009DC004FEA4102B2F1E04324BFB3F5001CDCF155
:1009EC00FE5C0DD901F0004C4FEAC0024CEA50708D
:1009FC00B2F1004F40EB830008BF20F001007047BC
:100A0C0011F0804F21D113F13872BCBF01F00040BE
:100A1C00704741F480114FEA5252C2F11802C2F1F0
:100A2C00200C10FA0CF320FA02F018BF40F0010071
:100A3C004FEAC1234FEAD32303FA0CFC40EA0C0023
:100A4C0023FA02F34FEA4303CCE77FEA625307D160
:100A5C0050EA01331EBF4FF0FE4040F44000704797
:100A6C0001F0004040F0FE4040F40000704700BF31
:100A7C0080F0004002E000BF81F0004142001FBF47
:100A8C005FEA410392EA030F7FEA226C7FEA236C50
:100A9C006AD04FEA1262D2EB1363C1BFD218414045
:100AAC0048404140B8BF5B42192B88BF704710F0DB
:100ABC00004F40F4000020F07F4018BF404211F07E
:100ACC00004F41F4000121F07F4118BF494292EAE6
:100ADC00030F3FD0A2F1010241FA03FC10EB0C0012
:100AEC00C3F1200301FA03F100F0004302D549429F
:100AFC0060EB4000B0F5000F13D3B0F1807F06D34C
:100B0C0040084FEA310102F10102FE2A51D2B1F143
:100B1C00004F40EBC25008BF20F0010040EA030038
:100B2C007047490040EB0000013A28BFB0F5000FB8
:100B3C00EDD2B0FA80FCACF1080CB2EB0C0200FA6E
:100B4C000CF0AABF00EBC25052421843BCBFD040BD
:100B5C001843704792F0000F81F4000106BF80F437
:100B6C0000000132013BB5E74FEA41037FEA226CFA
:100B7C0018BF7FEA236C21D092EA030F04D092F0C5
:100B8C00000F08BF0846704790EA010F1CBF0020F9
:100B9C00704712F07F4F04D1400028BF40F0004056
:100BAC00704712F100723CBF00F50000704700F076
:100BBC00004343F0FE4040F4000070477FEA22629D
:100BCC0016BF08467FEA23630146420206BF5FEA6E
:100BDC00412390EA010F40F4800070474FF000036E
:100BEC0004E000BF10F0004348BF40425FEA000C35
:100BFC0008BF704743F0964301464FF000001CE0DD
:100C0C0050EA010208BF70474FF000030AE000BF32
:100C1C0050EA010208BF704711F0004302D5404270
:100C2C0061EB41015FEA010C02BF844601460020E2
:100C3C0043F0B64308BFA3F18053A3F50003BCFAFD
:100C4C008CF2083AA3EBC25310DB01FA02FC6344AA
:100C5C0000FA02FCC2F12002BCF1004F20FA02F2B1
:100C6C0043EB020008BF20F00100704702F12002A4
:100C7C0001FA02FCC2F1200250EA4C0021FA02F205
:100C8C0043EB020008BF20EADC7070474FF0FF0C0A
:100C9C001CEAD0521EBF1CEAD15392EA0C0F93EA05
:100CAC000C0F6FD01A4480EA010C400218BF5FEAA7
:100CBC0041211ED04FF0006343EA501043EA51111A
:100CCC00A0FB01310CF00040B1F5000F3EBF490014
:100CDC0041EAD3715B0040EA010062F17F02FD2A18
:100CEC001DD8B3F1004F40EBC25008BF20F00100FB
:100CFC00704790F0000F0CF0004C08BF49024CEA12
:100D0C00502040EA51207F3AC2BFD2F1FF0340EAA3
:100D1C00C250704740F400004FF00003013A5DDC14
:100D2C0012F1190FDCBF00F000407047C2F1000255
:100D3C00410021FA02F1C2F1200200FA02FC5FEA42
:100D4C00310040F1000053EA4C0308BF20EADC708C
:100D5C00704792F0000F00F0004C02BF400010F4FE
:100D6C00000F013AF9D040EA0C0093F0000F01F0AB
:100D7C00004C02BF490011F4000F013BF9D041EACD
:100D8C000C018FE70CEAD15392EA0C0F18BF93EACF
:100D9C000C0F0AD030F0004C18BF31F0004CD8D1F9
:100DAC0080EA010000F00040704790F0000F17BF80
:100DBC0090F0004F084691F0000F91F0004F14D0C6
:100DCC0092EA0C0F01D142020FD193EA0C0F03D11E
:100DDC004B0218BF084608D180EA010000F0004021
:100DEC0040F0FE4040F40000704740F0FE4040F4FC
:100DFC00400070474FF0FF0C1CEAD0521EBF1CEA9B
:100E0C00D15392EA0C0F93EA0C0F69D0A2EB0302B8
:100E1C0080EA010C49024FEA402037D04FF0805352
:100E2C0043EA111143EA10130CF000408B4238BF17
:100E3C005B0042F17D024FF4000C8B4224BF5B1A25
:100E4C0040EA0C00B3EB510F24BFA3EB510340EA73
:100E5C005C00B3EB910F24BFA3EB910340EA9C0021
:100E6C00B3EBD10F24BFA3EBD10340EADC001B0191
:100E7C0018BF5FEA1C1CE0D1FD2A3FF650AF8B4235
:100E8C0040EBC25008BF20F0010070470CF0004C42
:100E9C004CEA50207F32C2BFD2F1FF0340EAC2506D
:100EAC00704740F400004FF00003013A37E792F02E
:100EBC00000F00F0004C02BF400010F4000F013A8C
:100ECC00F9D040EA0C0093F0000F01F0004C02BF87
:100EDC00490011F4000F013BF9D041EA0C0195E7F0
:100EEC000CEAD15392EA0C0F08D142027FF47DAF89
:100EFC0093EA0C0F7FF470AF084676E793EA0C0F79
:100F0C0004D14B023FF44CAF08466EE730F0004C76
:100F1C0018BF31F0004CCAD130F000427FF45CAF06
:100F2C0031F000437FF43CAF5FE700BF4FF0FF3C74
:100F3C0006E000BF4FF0010C02E000BF4FF0010CC7
:100F4C004DF804CD4FEA40024FEA41037FEA226C90
:100F5C0018BF7FEA236C11D001B052EA530C18BFB2
:100F6C0090EA010F58BFB2EB030088BFC81738BF17
:100F7C006FEAE17018BF40F0010070477FEA226C05
:100F8C0002D15FEA402C05D17FEA236CE4D15FEA01
:100F9C00412CE1D05DF8040B704700BF8446084635
:100FAC006146FFE70FB5FFF7C9FF002848BF10F1F6
:100FBC00000F0FBD4DF808EDFFF7F4FF0CBF01203B
:100FCC0000205DF808FB00BF4DF808EDFFF7EAFFC5
:100FDC0034BF012000205DF808FB00BF4DF808ED80
:100FEC00FFF7E0FF94BF012000205DF808FB00BF75
:100FFC004DF808EDFFF7D2FF94BF012000205DF8FB
:10100C0008FB00BF4DF808EDFFF7C8FF34BF012007
:10101C0000205DF808FB00BF42000ED2B2F1FE4F7B
:10102C000BD34FF09E03B3EB126209D44FEA0023AB
:10103C0043F0004323FA02F070474FF00000704772
:10104C0012F1610F01D1420202D14FF0FF30704713
:10105C004FF00000704700BF53B94AB9002908BFD0
:10106C0000281CBF4FF0FF314FF0FF3000F00CB8E0
:10107C00ADF1080C6DE904CE06F05AF9DDF804E088
:10108C00DDE9022304B07047704700BF10B5054C72
:10109C00237833B9044B13B10448AFF30080012318
:1010AC00237010BDDC00002000000000007600085A
:1010BC0008B5034B1BB103490348AFF3008008BDCF
:1010CC0000000000E0000020007600080346B0F9A4
:1010DC000A0008B103EB0010704738B50025044630
:1010EC00436A011D03441D71006805F03AFF6562F7
:1010FC0038BDF8B5044616460D468F18BD420DD0C6
:10110C00636A15F8011B5A1C6262E21802331F2B2A
:10111C001171F3D92046FFF7E0FFEFE73046F8BD39
:10112C0038B50546064C0021204601F052FF2946F1
:10113C00204605F038FE2046BDE8384001F0AEBE32
:10114C006403002008B501210D2005F091FB01215D
:10115C001F2005F08DFB00211E2005F089FB0021CE
:10116C001C2005F085FB01210E2005F081FB0021E0
:10117C000B4800F04FFD0B49094800F04FFD0A49A0
:10118C000A4801F03FFF20B909490A4805F018FE4A
:10119C00FEE77621BDE80840074A084801F0C9BDC2
:1011AC00F8000020801A0600400ECF1964030020BE
:1011BC001876000818050020000200209C01002071
:1011CC00034630B5D2E901041030844212D3A4F1A5
:1011DC00100090605A685AB1851A2D1155815860CB
:1011EC00002344F8041C24F8063C04F8083C30BDE9
:1011FC001860F4E70020FAE7F8B5037A174613F005
:10120C007F0202BF23F07F0343F020030372047AB2
:10121C00054608BFC0E9002214F020000E4611D08C
:10122C00084679B12C6874B1E168B14209D019B1A2
:10123C003046FEF765FF20B12046FFF747FF044616
:10124C00F1E72046F8BD3A4631462846FFF7B8FF8D
:10125C00F8E738B5044608460D46FEF75BFF29460D
:10126C0002462046FFF745FFA36A0344A36238BD3C
:10127C00436A10B55A1C4262C21802331F2B044633
:10128C00117101D9FFF729FFA36A0133A36210BDC5
:10129C0070B50D4622210446FFF7EAFF013D15F813
:1012AC00011F79B10A4B9E7846B1DA7802338A4233
:1012BC00F9D15C212046FFF7DBFF31462046FFF7D2
:1012CC00D7FFECE722212046FFF7D2FF70BD00BF0D
:1012DC00427600082DE9F04706230D468372074637
:1012EC0052492846FFF784FE0446002840D00526C4
:1012FC0000244FF02008DFF83891DFF838A1294698
:10130C0059F82600FFF76AFE38B128465AF826101D
:10131C00FFF7BCFC0546444424B2013E4FEA680882
:10132C00EDD200212846FFF76DFE28B32846FFF7C3
:10133C005DF83CA3D3E90023FFF72CFBE0B1DFF809
:10134C00F890DFF8ECA0330616D4294659F826009D
:10135C00FFF758FE40B128465AF82610FFF796FCC6
:10136C000546A4EB080424B24FEA6808013EEAE7FC
:10137C004FF020080526D4E728463C81FFF74CFEA9
:10138C000A2106460346DFF8B4803860092B07D9DA
:10139C00BA7AB8FBF1F8013AB3FBF1F3BA72F5E79C
:1013AC003046FFF71BFC01462846FFF765FB054658
:1013BC004046FFF713FC01462846FFF767FC8146C1
:1013CC00FFF72AFE0546FFF709FC01464846FFF7E2
:1013DC0053FB0146FFF752FBFFF71EFE2844404526
:1013EC000FD278600A217B68B3FBF1F201FB123358
:1013FC00A3B997F90A30002B10DD013B7A60BB7260
:10140C00F1E7002301367B603E60002CEAD0092E08
:10141C0081BF012301343C813B60E3E73846BDE8E2
:10142C00F08700BFF168E388B5F8E43E8096184B6E
:10143C0030000020180000200000002040420F0067
:10144C0010B50446521AFFF754FEA36A0344A36274
:10145C0010BD70B586B00B460DF116010A460A2672
:10146C00B3FBF6F506FB1534303401F8014D1C4680
:10147C00092C2B46F4D8FFF7E3FF06B070BD000033
:10148C0070B505468AB008460C46FFF793FD28B99F
:10149C0028463F49FFF7DDFE0AB070BD002120460B
:1014AC00FFF788FD48B921462046FFF7E7FA0146C9
:1014BC002046FFF77FFD0028EAD100212046FFF7E8
:1014CC0083FD28B12D212846FFF7D2FE04F10044FC
:1014DC00214601A8FFF7FEFE01992846FFF7B9FF48
:1014EC009DF90E10E1B10A460A26029B0DF11F046C
:1014FC00013A52B2501C08D0B3FBF6F006FB103385
:10150C00303304F801390346F2E7C9B208AA2E2099
:10151C00531AC94303F8010C11442846FFF790FFF6
:10152C00BDF90C30002B17DA1A492846FFF791FE4B
:10153C000DF126010A460A24BDF90C305B4293FBDF
:10154C00F4F004FB1033303301F8013D034600285E
:10155C00F5D12846FFF774FFBDF90C30002B9BDD4D
:10156C0065212846FFF784FE0DF126010A460A2460
:10157C00BDF90C3093FBF4F004FB1033303301F85D
:10158C00013D03B20028F5D12846FFF759FF83E748
:10159C00537600085876000838B5027A054602F0F2
:1015AC007F030C2B0C460DD812F07E0F0ED0023B95
:1015BC000A2B0BD8DFE803F04D4D4848620A600A4D
:1015CC00560A0C00202B21D0402B06D0304958E075
:1015DC0001682046FFF754FF38BD5B212046FFF71A
:1015EC0047FE2D686DB128462146FFF7D5FF2846EA
:1015FC00FFF76CFD054620B12C212046FFF738FE85
:10160C00F0E75D212046FFF733FEE5E77B2120461E
:10161C00FFF72EFE2D68ADB1E9682046FFF738FEC6
:10162C003A212046FFF724FE28462146FFF7B4FF57
:10163C002846FFF74BFD054620B12C212046FFF72D
:10164C0017FEE8E77D21DDE701682046FFF720FE65
:10165C00C2E7D0E900122046FFF74BFDA36A034412
:10166C00A362B9E705682D212046FFF701FE294644
:10167C002046FFF7EEFEAFE70168F9E7036823B1F8
:10168C0004492046FFF7E5FDA6E70349F9E700BF4B
:10169C00537600085B76000860760008F0B5794C4C
:1016AC0000211F20F3B005F031F92368764A774DFD
:1016BC00B3FBF2F369685B006A68521A9342FBDC75
:1016CC0001211F2005F022F922686F4B6968B2FBDB
:1016DC00F3F30A225A436D4E73685B1A9A42FBDC91
:1016EC0000211F2005F012F946F2A81201211E203C
:1016FC0005F064FC0546B8B901211E2005F0B8F8C8
:10170C0029461E2005F002F922685F4B7168B2FB76
:10171C00F3F3C8225A435D4843685B1A9A42FBDCD8
:10172C0000211E2005F0A4F85949684605F0D7FBA6
:10173C0040ABCDE9393372ABCDE93B339DF8FC308E
:10174C00544923F07F0339AA3DA88DF8FC30FFF7EC
:10175C0053FD0446A0B1037A23F07F0343F00C033E
:10176C0003722846FEF720FE44A3D3E90023FEF7BC
:10177C0095FE0022484BFEF791FEFFF729F92060F9
:10178C001C2005F05FF84549044639AA3DA8FFF72F
:10179C0033FD30B1037A046023F07F0343F0080378
:1017AC0003723F4801F0CAFA3E4939AA3DA8FFF737
:1017BC0023FD38B1037A23F07F0343F0080303724F
:1017CC000123036003AF3846314905F088FB4FF025
:1017DC00000C0697CDF83CC010AC06AD0FCD0FC475
:1017EC000FCD0FC495E8030084E803001AAD10AECA
:1017FC000FCE0FC50FCE0FC594E8030085E803008C
:10180C0024AC1AAE0FCE0FC40FCE0FC495E8030054
:10181C0084E803002EAD24AE0FCE0FC50FCE0FC53E
:10182C0094E8030085E8030024A8CDF8E0C0FFF796
:10183C0054FC1AA8FFF751FC2EA93DA8FFF7ACFEEB
:10184C002EA8FFF74AFC10A8FFF747FC06A8FFF7E5
:10185C0044FC39462EA805F063FB2EA8FFF760FC6C
:10186C002EA805F0F7FA384605F0F4FA684605F0AC
:10187C00F1FA73B0F0BD00BFAFF300809CC420B090
:10188C007268A13F6800002040420F00001000E089
:10189C0052760008667600080000E03F6F7600087C
:1018AC009C0100207576000808B501210D2005F07B
:1018BC002DF84FF47A7005F077F8FFF7EFFE0D2056
:1018CC00002105F023F8BDE808404FF47A7005F0CC
:1018DC006BB8000008B502210322064800F036F967
:1018EC00054800F030FFBDE808400449044805F005
:1018FC00F6BA00BFF80000209C01002052760008C8
:10190C00F401002008B5044805F0A4FABDE808402D
:10191C00024800F021BF00BFF40100209C01002010
:10192C00024B1878024B1B78C01A7047A702002094
:10193C00A5020020074A084913780978994281BF0B
:10194C0006490968C85C01338CBF13704FF0FF3037
:10195C00704700BFA5020020A7020020B80200209B
:10196C00054B064A1B7812789A4283BF044A1268C8
:10197C00D05C4FF0FF307047A5020020A70200207A
:10198C00B8020020044B1B682BB1002203490A70DB
:10199C0003490A7018477047B0020020A6020020C5
:1019AC00A8020020202838BF202038B5084D044656
:1019BC000146286805F060FC18B1064B28601C70C5
:1019CC0038BD2146BDE83840034804F02DBB00BFAC
:1019DC00BC020020B50200207A76000837B5164B01
:1019EC0004461B788DF80710DBB1144D144A287887
:1019FC0012780130904201D9FFF7D4FF114B1868CF
:101A0C0018B90123636003B030BD0F4A9DF807106D
:101A1C001378C154137801200133DBB213702B708F
:101A2C00F1E701220DF10701143000F0E9FAB0FAE8
:101A3C0080F04009E7E700BFA4020020A8020020C4
:101A4C00B5020020BC020020A6020020044B18683E
:101A5C0020B1044B00211A7805F060BB704700BF21
:101A6C00B8020020B4020020044B186820B1044BCB
:101A7C0000211A7805F052BB704700BFBC02002051
:101A8C00B502002010B50024064B1C70064B1C70D0
:101A9C00FFF7DCFF054B1C70054B1C70BDE81040BC
:101AAC00FFF7E2BFA5020020A7020020A60200203B
:101ABC00A8020020F8B5164B05461B780F461446B5
:101ACC00EBB1144E144B30781B781044984201D96A
:101ADC00FFF768FF114B1B6823B901221C466A6093
:101AEC002046F8BD0E4D224628783946184405F09C
:101AFC0007FB2B782344DBB22B703370F0E792B2E8
:101B0C00143000F07DFA002818BF0024E8E700BF6D
:101B1C00A4020020A8020020B5020020BC02002074
:101B2C00A602002000214FF47A72C0E90112054A86
:101B3C000260054A9188A0F86C10D288A0F86E203B
:101B4C00704700BF04770008087C00084FF0000CB9
:101B5C004FF47A73C0E901C30A4B222903608EBF8C
:101B6C004FF0FF33084B33F91130222AA0F86C30B8
:101B7C008EBF4FF0FF33044B33F91230A0F86E30A8
:101B8C00704700BF04770008087C0008F8B50026F1
:101B9C000D4604461746174B1E70174B1E70FFF769
:101BAC0055FF164B1E70164B1E70FFF75DFF154B45
:101BBC00A5F133021E706B0055425541DBB284F81F
:101BCC00A25004F1140523744FF4804228460E49A8
:101BDC0084F8A37000F02AF994F8A2304BB9284687
:101BEC000A4900F0BFFA2846BDE8F840084900F061
:101BFC00B2BAF8BDA5020020A7020020A602002060
:101C0C00A8020020A4020020A0860100911900085F
:101C1C00FD1C00080A463321FFF7B8BF143000F052
:101C2C00C7B900000122054B91401A70044B054ABC
:101C3C00197000231370044A13707047A40200201B
:101C4C00C0020020A6020020A802002038B5E9B985
:101C5C004FF42A03436490F8A230012B19D10E4D96
:101C6C000E4A0F492B7812680978143000F033FAB9
:101C7C00042828BF042044B2FFF7F6FE0023094ACB
:101C8C002B701370084A1370E0B238BD4FF02A4322
:101C9C00E0E70424F8E700BFA8020020BC02002003
:101CAC00C0020020A6020020A40200200121FFF7A0
:101CBC00CDBF000070B50B4D04462B7883420AD281
:101CCC00202838BF2024084E2146306805F0D4FA6D
:101CDC0010B130602C7070BD2146BDE870400348D7
:101CEC0004F0A2B9B4020020B80200207A760008F1
:101CFC002DE9F047134D80462B680C46FBB1124A78
:101D0C00124F107839789146884218D3104E2046DD
:101D1C00FFF7D0FF326822B94FF4D1710D4804F0AF
:101D2C0083F922464146306805F0EAF9002389F828
:101D3C00003020462B683C70BDE8F0471847BDE8E2
:101D4C00F08700BFAC020020A5020020A7020020F3
:101D5C00B8020020927600082DE9F84F90F8A2B056
:101D6C000446BBF1010F0F46154699469DF82860B5
:101D7C009DF82CA008D11046FFF79CFF1F4A136852
:101D8C0090461BB9C4F804B0002530E0BEB139460A
:101D9C002046FFF747FF032E28BF0326013EF6B26D
:101DAC00FF2E08D02368F10029FA01F120461B68A8
:101DBC00C9B29847F2E700212046FFF747FFBAF176
:101DCC00000F17D14FF42A037900D8F80020636470
:101DDC0001F0FE01ABB204F1140000F025F9002271
:101DEC00002818BF0025064B1A70064B1D7028469C
:101DFC00BDE8F88F4FF02A43E6E700BFB802002099
:101E0C00A5020020A702002007B501930023009330
:101E1C00FFF7A2FF03B05DF804FB0123FFF7F4BF4B
:101E2C000148FFF77FBE00BF000200202DE9F341FF
:101E3C000D4616461F460446002800F0868053497E
:101E4C00B0F9580004F0AAF851498046B4F95A0088
:101E5C0004F0A4F80146B8F1000F76D0002874D035
:101E6C00404604F0C4F8206000286ED0494B04F1C1
:101E7C00040898426CD103F5DE33DA6942F400129F
:101E8C00DA61DA6902F400120092009A1A6942F4DB
:101E9C0000121A611A6922F400121A6142F21F032D
:101EAC00A4F85C303C4BC3F800803949B4F95A00B3
:101EBC0004F054F8B4F95800344904F04FF837489A
:101ECC0023688542636006D93548854203D9354875
:101EDC00854288BF00203149FF238D428CBF4FF4CF
:101EEC0080450025C4E903570025E36194F88F3041
:101EFC002A46AB420CBF2B4640230221C4E90835CD
:101F0C00A060666194F95C00A56184F8415001F011
:101F1C008DFC94F95C0001F0BBFC2A46022194F97B
:101F2C005D0001F083FC94F95D0001F0B1FC4046CA
:101F3C0001F086FD20B140F2D5211B4804F074F865
:101F4C0000232366022384F88D3002B0BDE8F081B3
:101F5C00164B9842A9D103F5DC33DA6942F48002BE
:101F6C00DA61DA6902F480020192019A1A6942F488
:101F7C0080021A611A6922F480021A6142F221234A
:101F8C00A4F85C30044BC3F804808EE76879000831
:101F9C003879000800540040C4020020A0860100DB
:101FAC00801A060040420F002477000800580040B9
:101FBC00104B10B59942044606D90F4B994203D9E0
:101FCC000E4B994288BF00236068026822F0010220
:101FDC000260A360074B201D99428CBF4FF48041D7
:101FEC000021E16001F02CFD6268136843F00103ED
:101FFC00136010BDA0860100801A060040420F003D
:10200C00202A30B50ED800239CB2A24204D8D2B2FA
:10201C0080F88C20002030BDCD5CC41884F86C5046
:10202C000133F1E70120F6E72DE9F34105460C46B3
:10203C009846174601F0A6F82B6B04352146009301
:10204C00064643463A46284601F0ACFE044650B1DB
:10205C00002002B0BDE8F08101F094F8841B284602
:10206C0002F05DFD30B9284602F056FD202801D063
:10207C00632CF1D9284602F052FD642C07D8820655
:10208C0005D4430705D40028E2D00420E1E705205D
:10209C00DFE70320DDE710B564230446043001F0CC
:1020AC006FFD02280AD0032801D068B910BD94F83E
:1020BC004130202B0CBF02200520F7E794F841306B
:1020CC00202B18BF0620F1E794F84130202B0CBFD1
:1020DC0002200420EAE72DE9F34105460C46904620
:1020EC001F4601F04FF806463FB90122214628460B
:1020FC0002B0BDE8F041FFF7CEBF2B6B0435214693
:10210C00009342463B46284601F0E4FD044650B19C
:10211C00002002B0BDE8F08101F034F8841B2846A1
:10212C0002F0FDFC30B9284602F0F6FC202801D064
:10213C00632CF1D9284602F0F2FC642C07D88206F5
:10214C0005D4430705D40028E2D00420E1E705209C
:10215C00DFE70320DDE720B119B14166043001F05F
:10216C001DBF704720B119B18166043001F016BF54
:10217C007047C36810B59A4204461CD171B9436EBE
:10218C0080F8891003B19847204694F8882004F110
:10219C0068012023BDE8104001F08ABE0023012213
:1021AC00C36580F88920C16D0423BDE8104001444B
:1021BC00683101F0B8BE10BD10B590F889300446F6
:1021CC00012B05D1C36D1BB1C16D036E68309847EF
:1021DC00022384F8893000232046E365BDE81040D3
:1021EC0001F0DCBEC36D1F2BDEBFC36D0133C365B5
:1021FC0090F88930012BDAB205D1C16D042301446A
:10220C00683101F090BE7047002380F88830704729
:10221C0090F88A300BB901F0C1BE7047014B1868B9
:10222C0001F0BABFC4020020014B186802F0D8BB01
:10223C00C4020020014B586801F0AEBFC40200205C
:10224C00014B586802F0CCBBC4020020232970B5A6
:10225C0004461BD800230C2505FB03F6A65FD8B259
:10226C00B1420DD00133042BF6D1012A0CD100233D
:10227C000C2505FB03F2A65ED8B2013601D1A152A2
:10228C0070BD0133042BF4D11846F9E70420F7E7AD
:10229C0070B503464FF6FF72012500240B4E00F17A
:1022AC0030011A805E601D725C720C338B42F8D167
:1022BC00074B0286998EA0F89010D98EA0F8921038
:1022CC005B8EA0F89620A0F8943070BD00093D00FC
:1022DC00087C0008232970B505460E4621D801223A
:1022EC00FFF7B4FF032804461BD8232E0BD0B5F9F7
:1022FC009630013307D10121304604F0B9FA01219F
:10230C00304604F003FB0C20002300FB045485F83A
:10231C008530627A237A616805F1340000F0D0F8D8
:10232C002E8670BD82B0F8B5232906AC05460E4644
:10233C0084E80C0026D80122FFF788FF0328044606
:10234C0020D80C2707FB0057079B232E7B60BDF87A
:10235C0020303B810BD0B5F99630013307D10121E8
:10236C00304604F085FA0121304604F0CFFA0C20F7
:10237C0000FB04547968237A627A05F1340000F08A
:10238C009FF82E86BDE8F84002B070472329F0B5BF
:10239C0019D803464FF6FF74012600270A4D00F1A9
:1023AC003002B3F900C00C338C4501BF23F80C4C40
:1023BC0043F8085C03F8046C03F8037C9342F0D1F7
:1023CC004FF6FF730386F0BD00093D0070B586B073
:1023DC008DF80F200022232905460C461E468DF849
:1023EC00172039D8B0F93030994212D0FFF72EFFB0
:1023FC00032803D99DF8170006B070BD0C2303FB0E
:10240C000050037A427A416805F1340000F058F824
:10241C002C86232C07D0B5F99630013303D100213B
:10242C00204604F073FA4FF47A730DF117020093FF
:10243C000DF10F01012305F1340000F069F9232C93
:10244C00D8D0012ED6D1B5F996300133D2D1314640
:10245C00204604F05BFACDE71046CDE70148FFF7C4
:10246C0017BF00BFCC02002070B50D0E445991FA75
:10247C00A1F3B3FA83F30F269B0006FA03F324EAC5
:10248C00030491FAA1F1B1FA81F1890002FA01F188
:10249C002143415170BD00000346074A106853B1F7
:1024AC00064A934205D002F57842934203D102F0DA
:1024BC00BBBD02F0A9BD7047680000200038004089
:1024CC002DE9F74F0D46174698460446002800F0B4
:1024DC00D0808649B0F95E0003F060FD84498146E6
:1024EC00B4F95C0003F05AFD82498246B4F96000ED
:1024FC0003F054FD80490646B4F9620003F04EFD2A
:10250C008346B9F1000F00F0B480BAF1000F00F06F
:10251C00B080002E00F0AD805146484603F067FDB8
:10252C0059468246304603F062FD014681465046CC
:10253C0003F05DFDA065BAF1000F00F09A80B9F1CF
:10254C00000F00F09680002800F09380B4F9623000
:10255C0020605A1C14BF4FF480234FF40073A36106
:10256C004FF482736360FFF797FFB5EB500FC0F029
:10257C0083800023002617F0FD0FE3610CBF334668
:10258C000123022F636134BF3346022323610723E7
:10259C00B045E36214BF33468023B4F95E00C4E94E
:1025AC000836A660A662E660504903F0D7FCB4F981
:1025BC005C004F4903F0D2FCB4F960004D4903F0C4
:1025CC00CDFC2369B342B4F9603008BF0225C3F3D4
:1025DC00031218BF0125042A8CBF3046474903F06B
:1025EC000F0398BF51F82200454A52F823100B0EE6
:1025FC00C65891FAA1F2B2FA82F39A000F239340D3
:10260C00334091FAA1F2B2FA82F2022D4FEA820221
:10261C0023FA02F34FEA11254DD0042B02D10822E4
:10262C00FFF722FFC26822EA050295FAA5F50123FD
:10263C00B5FA85F503FA05F51543C5602E49B4F9CD
:10264C00620003F08BFC23682E4A93423FD12E4B41
:10265C009A6942F480529A619B6903F48053009307
:10266C00009B204602F03EFE2268136843F04003B4
:10267C00136003B0BDE8F08FB5EB900F01D30823C6
:10268C0078E7B5EBD00F01D3102373E7B5EB101F30
:10269C0001D318236EE7B5EB501F01D3202369E754
:1026AC00B5EB901F01D3282364E7B5EBD01F2CBFEB
:1026BC00302338235EE7042B02D10822FFF7D4FE27
:1026CC00C36823EA050395FAA5F5C360B6E70F4A7C
:1026DC009342C6D10C4BDA6942F48042DA61DB6971
:1026EC0003F480430193019BBBE700BF007B000810
:1026FC00D07A0008307B0008607B00085400002072
:10270C0044780008003001400010024000380040BE
:10271C0013B538B133B1049C009402F01EFE0328AB
:10272C0003D000B1022002B010BD0120FBE74160D4
:10273C0002720BB9437205E0012BFBD0022BF9D0CE
:10274C00032BF7D0704700224FF0FF31C0E9022273
:10275C00C0E908120261704710B50446806810B1D8
:10276C0003685B689847E06810B103685B6898473A
:10277C00206910B103685B689847204610BD2DE9AD
:10278C00F04190F92330044601330F4607D1BDE8E0
:10279C00F0410A46012323214068FFF717BE0726A4
:1027AC0000254FF00108002194F9230004F0AEF845
:1027BC0008FA06F194F92100394004F0A7F894F9CD
:1027CC002300012104F0A2F86D0094F92200EDB26F
:1027DC0004F0C0F808B145F00105013EE3D22846EB
:1027EC00BDE8F0812DE9F04190F920300446013329
:1027FC000E46154688B013D1017D0068FFF712FA1A
:10280C002068314603681B6898472068294603688E
:10281C001B6898472068FFF749FA08B0BDE8F081BB
:10282C0090F92330013314D102AFD0F80480002387
:10283C00012216493846FFF77AFF97E8070005ABE7
:10284C0083E80700079A2321009240460CCBFFF740
:10285C0069FD002194F9200004F058F806F07F017E
:10286C002046FFF78CFF29462046FFF788FF012101
:10287C0094F9200004F04AF894F923300133CCD1B8
:10288C0023216068FFF782FDC7E700BF20A1070086
:10289C00F8B50446DB0002F0070203F038031343DB
:1028AC0043EA81139DF8187080F8503090F854303A
:1028BC009DF81C509DF8206067F3471380F8543046
:1028CC00ED0090F84C3006F0070605F0380523F0C3
:1028DC003F0335431D4380F84C500022F421FFF791
:1028EC0081FF94F854202046F2215209FFF77AFF19
:1028FC0094F84C202046C2F3C20302F007019B005F
:10290C0043EA411343EAD212F521FFF76BFF94F827
:10291C0050202046C2F3C20302F007019B0043EA99
:10292C00411343EA9212F421BDE8F840FFF75ABF75
:10293C00F0B590F92030044601330D4689B018D11A
:10294C00017D0068FFF76EF92068294603681B6853
:10295C0098472068FFF7AAF90122217D2068FFF72C
:10296C005CFA20680368DB689847C5B2284609B052
:10297C00F0BD90F92330013313D102AE4768002328
:10298C00012216493046FFF7D2FE96E8070005AB48
:10299C0083E80700079A2321009238460CCBFFF7F7
:1029AC00C1FC002194F9200003F0B0FF45F0800138
:1029BC002046FFF7E4FE00212046FFF7E0FE012150
:1029CC00054694F9200003F0A1FF94F9233001335C
:1029DC00CCD123216068FFF7D9FCC7E720A1070001
:1029EC00F0B590F92030044601330D4689B01FD163
:1029FC00017D0068FFF716F92068294603681B68FB
:102A0C0098472068FFF752F90222217D2068FFF7D2
:102A1C0004FA20680368DB68984705462068036859
:102A2C00DB68984740EA052085B2284609B0F0BD1E
:102A3C0090F92330013313D102AE476800230122F1
:102A4C0019493046FFF773FE96E8070005AB83E89B
:102A5C000700079A2321009238460CCBFFF762FC43
:102A6C00002194F9200003F051FF45F0800120462D
:102A7C00FFF785FE00212046FFF781FE0021054669
:102A8C002046FFF77CFE40EA0520012185B294F92F
:102A9C00200003F03BFF94F923300133C5D12321EF
:102AAC006068FFF773FCC0E720A1070008B5FFF7CB
:102ABC0097FF40BA80B208BDF0B590F920300446BB
:102ACC0001330D4689B023D1017D0068FFF7AAF8C8
:102ADC002068294603681B6898472068FFF7E6F8CA
:102AEC000322217D2068FFF798F920680368DB68D2
:102AFC009847050220680368DB68984705432068FF
:102B0C002D020368DB6898470543284609B0F0BDE1
:102B1C0090F92330013313D102AE47680023012210
:102B2C001B493046FFF703FE96E8070005AB83E828
:102B3C000700079A2321009238460CCBFFF7F2FBD3
:102B4C00002194F9200003F0E1FE45F080012046BD
:102B5C00FFF715FE00212046FFF711FE00210502AC
:102B6C002046FFF70CFE002105432046FFF707FE29
:102B7C002D020121054394F9200003F0C7FE94F9BE
:102B8C0023300133C1D123216068FFF7FFFBBCE781
:102B9C0020A1070038B588210446FFF787FF8A215A
:102BAC0020852046FFF782FF8C2160852046FFF7A9
:102BBC007DFF8E21A0852046FFF778FF9021E085D0
:102BCC002046FFF773FF922120862046FFF76EFF09
:102BDC00942160862046FFF769FF9621A086204647
:102BEC00FFF764FF9821E0862046FFF75FFF9A21EC
:102BFC0020872046FFF75AFF9C2160872046FFF76D
:102C0C0055FF9E21A0872046FFF750FFA121E087AA
:102C1C002046FFF78DFEE12184F840002046FFF7A7
:102C2C0045FFE321A4F842002046FFF781FEE42192
:102C3C0084F844002046FFF77BFEE521054620463C
:102C4C00FFF776FE6DB200F00F0040EA0510E621AA
:102C5C00A4F846002046FFF76BFEE521054620460A
:102C6C00FFF766FE6DB2001140EA0510A4F84800AB
:102C7C00E7212046FFF75CFE84F84A0038BDF321BB
:102C8C0008B5FFF755FE00F0010008BD30B504464D
:102C9C0090F9200085B0421C2AD100212068FEF753
:102CAC00B9FFD0212046FFF743FE6028A0613ED13A
:102CBC00B622E0212046FFF795FD0A2003F074FEB2
:102CCC002046FFF7DCFF05460028F6D12046FFF72B
:102CDC0061FF052303211A4620460093CDE90155D7
:102CEC00FFF7D6FD642003F05FFE012005B030BD78
:102CFC00012103F00BFE94F92000012103F0B8FD33
:102D0C0094F92300431C04D123216068FFF7E2FAF5
:102D1C00C7E7012103F0ACFD94F92100012103F078
:102D2C00A7FD002194F9220003F0A2FDB9E70020D1
:102D3C00DCE701750260FFF7A9BF000010B5FA21AE
:102D4C000446FFF7B9FEB0F5000F1ED0218DB4F983
:102D5C002A30C1EB202252434900C1EBE011594308
:102D6C00B4F92C3012135343606A9B1303EBE12329
:102D7C000344E36103EB830303F180000012FDF7CE
:102D8C0031FF0349FEF736F810BD0248FCE700BFDF
:102D9C000000C8420000C07F07B503688DF807101B
:102DAC0001225B680DF10701984703B05DF804FB45
:102DBC007047000038B500254FF47A73C0E9015311
:102DCC000C4B044601220C4940F8103B2B46FFF7F4
:102DDC00AEFC18221123C4E90723152320462946EB
:102DEC00C4E90935C4E90B55656304F031F8204694
:102DFC0038BD00BF9C77000800127A00F0B504467D
:102E0C000F46164687B00021C06903F07FFD03AB67
:102E1C0004F1100207CA83E80700059A0F4D0092CF
:102E2C0028460CCB2321FFF77DFA3A4601232321B8
:102E3C002846FFF7CBFA3246012323212846FFF719
:102E4C00C5FA064623212846FFF7A0FAE0690121BE
:102E5C0003F05CFD304607B0F0BD00BFCC02002093
:102E6C00002201F07F01FFF7C9BF10B50446132102
:102E7C00FFF7F6FFE36AC01A10BD036810B59B6834
:102E8C000446984738B1E36A002101332046E362D7
:102E9C00FFF7E6FF10BD4FF0FF30FBE710B58322C4
:102EAC0081210446FFF7AAFF12212046FFF7D8FF25
:102EBC00030702D403F0B1FCF6E708229221204666
:102ECC00FFF79CFF012010BD2DE9F0410C4622219B
:102EDC0015460746FFF7C4FF06464319FF2B88BF6C
:102EEC00C0F1FF0504EB0508444506D080213846A7
:102EFC0014F8012BFFF782FFF6E77219A22138466E
:102F0C00D2B2FFF77BFF2846BDE8F081036870B5AD
:102F1C009B680546984780B10D212846FFF7A0FF16
:102F2C00002106462846FFF79BFF044632468D21BA
:102F3C002846FFF763FF204670BD4FF0FF30FBE7DC
:102F4C0081221146FFF75ABF80228121FFF756BF1D
:102F5C0038B5CB17DD040446002381620C4AC80443
:102F6C0045EA5131FEF778F80546C0F30742862151
:102F7C002046FFF743FFC5F3072287212046FFF7C2
:102F8C003DFF2046EAB28821BDE83840FFF736BF46
:102F9C000048E801002310B51D2103630446FFF728
:102FAC005FFF9D2100F0FE022046BDE81040FFF7B8
:102FBC0025BF012310B51D2103630446FFF750FF05
:102FCC0040F001029D212046BDE81040D2B2FFF72F
:102FDC0015BF38B504460D46FFF7B2FF20466DB15C
:102FEC00FFF7E7FF00228D212046FFF707FF0022A5
:102FFC00A2212046FFF702FF012038BDFFF7CAFFD0
:10300C00F0E7000038B504460D46C069012103F015
:10301C002FFCE069012103F079FC206A431C10D0DD
:10302C00012103F025FC0021206A03F06FFC0A202B
:10303C0003F0BAFC206A012103F068FC0A2003F0BB
:10304C00B3FC23211A48FFF745F942212046FFF72C
:10305C0007FF12282AD12046FFF776FF2946204683
:10306C00FFF776FF00228E212046FFF7C7FE0022D5
:10307C008F212046FFF7C2FE0C212046FFF7F0FE01
:10308C0040F003028C21D2B22046FFF7B7FE042297
:10309C00A6212046FFF7B2FE8F2289212046FFF79A
:1030AC00ADFE2046FFF74CFF012038BD0020FCE7A9
:1030BC00CC0200200148FFF77DBE00BF6403002056
:1030CC0003460A4910B508680344EFF3088293429B
:1030DC0005D90C224FF0FF30054B1A6010BD054A84
:1030EC00054C121B9342F4D20B60F7E7480000200A
:1030FC00340600200050002000040000704700003F
:10310C0038B50E4B054618784FF47A73B3FBF0F3D1
:10311C000B4A1068B0FBF3F000F0DCFB044658B926
:10312C000F2D09D8024629464FF0FF3000F07EFBE8
:10313C002046044B1D6038BD0120FCE74C000020EC
:10314C006800002050000020074A08B513680320CF
:10315C0043F01003136000F057FB0020FFF7D0FF83
:10316C00FFF7CCFF002008BD00200240034A044BAF
:10317C0011681B780B441360704700BF30060020A9
:10318C004C000020014B1868704700BF300600202F
:10319C00F7B5002604460D460196FFF7F3FF2368AA
:1031AC0007469A68D20508D50120A36A84F82460E2
:1031BC0043F02003A36203B0F0BD5A68D60503D4D4
:1031CC00DB6A13F4700F3AD0394B02201E6801F001
:1031DC00B3FF2368374A1969B6FBF0F61142364A39
:1031EC004DD1D8683549084249D11969114257D196
:1031FC00DA68334B1A4214BF292314235E43019B14
:10320C00B34220D26A1C05D085B1FFF7BBFFC01BAF
:10321C00A8420BD8019B01330193F0E7681C0FD037
:10322C0025B1FFF7AFFFC01BA84208D9A36A032042
:10323C0043F00403A362002384F82430BBE7226824
:10324C0013689907EAD56FF0120322681360A36A1A
:10325C0043F40073A362936803F46023B3F5602F07
:10326C0024D1207B10BBA36A23F48073A362A36ACE
:10327C00DB041BD4A36A43F00103A3629BE7196927
:10328C00114203D1D9680E4A11420BD019690D4A6B
:10329C00114209D1DB68134214BFFC235423ADE760
:1032AC002923ABE75423A9E7FC23A7E7002082E7F7
:1032BC006800002024499224922449122449920047
:1032CC0092244900499224000368D86C704700008E
:1032DC00002373B5019390F824300446012B6CD075
:1032EC00012380F824304D680268062D086805EB30
:1032FC00850322D81F26556B053B9E4025EA060503
:10330C0000FA03F32B43536309288B6800EB400549
:10331C004FF0070129D9D6681E3DA94026EA0101C4
:10332C00AB400B43D360A0F11003012B25D9002037
:10333C00002384F8243002B070BD0C2D4FF01F0513
:10334C0009D8166B233B9D4026EA050500FA03F3CA
:10335C002B431363D8E7D66A413B9D4026EA05050B
:10336C0000FA03F32B43D362CEE71069A94020EA9D
:10337C000101AB400B431361D9E7114B9A4216D1B3
:10338C0093681B02D3D49368102843F40003936012
:10339C00CDD10C4B0C4A1B68B3FBF2F20A235343FE
:1033AC000193019B002BC2D0019B013BF8E7A36A60
:1033BC00012043F02003A362BAE70220BBE700BF61
:1033CC00002401406800002040420F00806A7047D2
:1033DC00002373B50193036804469A68D20702D59B
:1033EC00002002B070BD9A6842F001029A60124B44
:1033FC00124A1B68B3FBF2F30193019BC3B9FFF7AD
:10340C00C1FE064623689D6815F00105E8D1FFF75B
:10341C00B9FE801B0228F5D9A36A012043F01003E2
:10342C00A362E36A84F8245043F00103E362D8E713
:10343C00019B013BE0E700BF6800002040420F0009
:10344C0010B590F824300446012B54D0012380F899
:10345C002430FFF7BDFF002849D1A36A274A23F483
:10346C00407323F0010343F48073A36223689342F7
:10347C0004D123494A6812F4702F2ED1A26A22F487
:10348C008012A2625A68520541BFA26A22F44052CD
:10349C0042F48052A262A26A12F480521CBFE26A09
:1034AC0022F00602E262002284F824206FF002026D
:1034BC001A609A6802F46022B2F5602F13D10F4A99
:1034CC00934205D1A2F58062526812F4702F0AD192
:1034DC009A6842F4A0029A6010BDA26A42F480126B
:1034EC00A2624A68CFE79A6842F48012F3E700239D
:1034FC0084F82430F0E70220EEE700BF00280140FA
:10350C000024014038B5036804469A68D20701D4F8
:10351C00002038BD9A6822F001029A60FFF732FE53
:10352C00054623689B68DB07F2D5FFF72BFE401B93
:10353C000228F6D9A36A012043F01003A362E36AC0
:10354C0043F00103E362E4E7F8B5044600286ED0CB
:10355C00836A23B9C36280F8243002F057FF2046F7
:10356C00FFF7D0FFA36A13F0100362D1002860D1DB
:10357C00A26AE569616822F4885222F0020242F0E4
:10358C0002022943A568A262227BB5F5807F41EA3D
:10359C00420137D0012D14BF00274FF48077267DD0
:1035AC00012E06D182BBA269013A47EA423646F4A3
:1035BC0000672268B5F5807F566826F4694646EAAE
:1035CC000706566097681D4E06EA070646EA01068E
:1035DC00966001D0012D02D12369013B1B05D56AF0
:1035EC0025F470052B43D3629268154B1340994216
:1035FC0013D10023E362A36A23F0030343F0010316
:10360C00A362F8BD2F46CAE7A26A42F02002A2626A
:10361C00E26A42F00102E262CBE7A36A23F01203F2
:10362C0043F01003A362E36A43F00103E362012059
:10363C00E7E7A36A43F01003A362F8E7FDF7E1FFA5
:10364C00FE0E1FFF38B50446002850D0836A43F0A5
:10365C0002038362FFF756FF0546002842D16FF044
:10366C001F02236823481A605968234A0A405A608B
:10367C009968224A0A409A60DA6802F07F42DA605E
:10368C001A6902F040421A6159691D4A1140596188
:10369C00996911409961D9691140D961196A114030
:1036AC001962596A11405962996A0A409A62DA6A37
:1036BC0002F07F42DA62DA6A02F07F42DA621A6B57
:1036CC0002F040421A635A6B02F040425A63996B03
:1036DC00014099639A6B02409A63204602F0C8FE3F
:1036EC00E562A562002384F82430284638BD012504
:1036FC00FBE700BF0000C0FF00003FFFF00601FF2A
:10370C0000F0FFFF10B590F824300446012B11D0C7
:10371C00012380F82430FFF7F5FE38B9A36A23F4AF
:10372C00885323F0010343F00103A362002384F8C0
:10373C00243010BD0220FCE7002373B5019390F8F0
:10374C0024300446012B5AD0012380F82430FFF793
:10375C00D9FE0546002832D1A36A022023F48853EF
:10376C0023F0020343F00203A362264B1E6801F010
:10377C00E3FCB6FBF0F676000196019B1BBB2046E2
:10378C00FFF726FE2268936843F008039360FFF767
:10379C00F9FC064623689A68120718D49A6842F016
:1037AC0004029A60FFF7EEFC064623689B685B07F1
:1037BC001FD4A36A23F0030343F00103A362002385
:1037CC0084F8243012E0019B013B0193D5E7FFF70D
:1037DC00D9FC801B0A28DDD9A36A012523F012032A
:1037EC0043F01003A362002384F82430284602B06F
:1037FC0070BDFFF7C7FC801B0A28D6D9ECE7022561
:10380C00F4E700BF6800002007490302CA6803F40C
:10381C00E06322F4E0621204120C134343F0BF6322
:10382C0043F40033CB60704700ED00E0164B30B52D
:10383C00DC68C4F30224C4F10703251D042B28BF44
:10384C000423062D4FF0FF3598BF002405FA03F32F
:10385C0088BF033C21EA0303A34005FA04F422EADF
:10386C000402002843EA0203ACBF00F16040074A9F
:10387C004FEA0313DBB2ABBF00F5614000F00F0061
:10388C0080F80033135430BD00ED00E014ED00E07F
:10389C00002808DB0123420900F01F0003FA00F0A6
:1038AC00014B43F82200704700E100E000280DDBDB
:1038BC000122430900F01F0002FA00F0044A2033F1
:1038CC0042F82300BFF34F8FBFF36F8F704700BFD9
:1038DC0000E100E00138B0F1807F0AD2F021064B04
:1038EC00064A586082F823100020072298601A605C
:1038FC0070470120704700BF10E000E000ED00E0D1
:10390C00002809DB0122430900F01F0002FA00F035
:10391C00024A603342F82300704700BF00E100E028
:10392C00704708B5FFF7FCFF08BD000008B590F81C
:10393C002130022B03D004238363012008BD0368CC
:10394C001A6822F00E021A601A6822F001021A603C
:10395C00174A93421CD0143293421BD01432934218
:10396C001AD0143293421AD0143293421AD0143211
:10397C0093420CBF4FF480134FF080730D4A536089
:10398C004FF480730384436B7BB198470020D5E7D9
:10399C000123F3E71023F1E74FF48073EEE74FF4C4
:1039AC008053EBE74FF48033E8E71846C6E700BFD7
:1039BC00080002400000024090F82100704700000F
:1039CC00044A08B55169014202D0506102F042FE2E
:1039DC0008BD00BF000401402DE9F84606460F461D
:1039EC0091461D464FEA114A3368BAF1010F0CBFDC
:1039FC005C699C6927EA0404A4B2B4FA84F46409EF
:103A0C00A14501D0002017E06A1CEED0FFF7BAFBED
:103A1C00089BC01AA84201D8002DE5D10023202212
:103A2C000120336386F83D2086F83E30326C86F8F0
:103A3C003C3042F020023264BDE8F886704700004A
:103A4C0070B5044608B9012070BD90F83D3003F004
:103A5C00FF021BB980F83C20FFF7F0FF24232268FB
:103A6C0084F83D30136823F00103136001F0CCFAA5
:103A7C003F4A6368934294BF3E4A3F4A90428CBF90
:103A8C0000220122002ADED13C4E2268B0FBF6F661
:103A9C005168013821F03F01314351603449156AB6
:103AAC008B4281BF4FF4967171434FF47A76B1FB20
:103ABC00F6F125F03F0594BF711C013129431162C9
:103ACC00D1692B4D21F44F41AB4221F0FF0132D88B
:103ADC005B00B0FBF3F0431C40F6FC70034242D099
:103AEC00C3F30B030B43D3611168D4E9073021F006
:103AFC00C00103430B4313609168D4E9030321F421
:103B0C000341034321F0FF010B439360D168D4E9D7
:103B1C00053021F0FF0103430B43D36013680020F1
:103B2C0043F0010313602023206484F83D302063AC
:103B3C0084F83E0088E7A56855B903EB4303B0FB56
:103B4C00F3F30133C3F30B037BB143F40043C9E735
:103B5C0019256B43B0FBF3F30133C3F30B0323B110
:103B6C0043F44043BEE70423BCE70123BAE700BF9C
:103B7C00A08601007F841E00FF083D0040420F001C
:103B8C002DE9F04F044685B01E460F469146FFF7CF
:103B9C00F9FA94F83D300546202B03D0022005B0ED
:103BAC00BDE8F08F00901923012220464849FFF709
:103BBC0013FF0028F2D194F83C30012BEED00123F6
:103BCC0084F83C3023684FF0010A1A68DFF800B122
:103BDC00D20758BF1A6807F0FE075CBF42F001021B
:103BEC001A601A6822F400621A60242384F83D30AB
:103BFC0000232364A3F58033E36222684FF00111A4
:103C0C001368204643F480731360334600220095FA
:103C1C00FFF7E2FE08B10120C1E723684FF0A008CE
:103C2C001F61FFF7AFFA054623685A695B69C2F357
:103C3C004002C3F3802394F83D10A02901D0134314
:103C4C0021D04FF02008236884F83D805A6912F087
:103C5C00020F1A6842F400721A6024D000220392F8
:103C6C005A69204603929B6901220393039B1849CE
:103C7C0019230095FFF7B0FE0028CCD184F83D80C5
:103C8C0084F83C008BE7FFF77DFA401BB04200D86C
:103C9C000EB984F83D8023685A695B69C2F340020F
:103CAC00C3F38023C7E76FF4806259465A612046FC
:103CBC00192301220095FFF78FFE0028ABD10AF1E2
:103CCC00010ACA4599D384F83D8084F83C00A2E7E8
:103CDC000200100073B500240094019490F83D404C
:103CEC00069D202C02D0022002B070BD082D01D000
:103CFC00012D1FD146F2A816294C2468B4FBF6F608
:103D0C00192474430194019C013C0194019C6CB9ED
:103D1C002023046380F83D3080F83E40036C80F82B
:103D2C003C4043F0200303640120DDE70468A469F0
:103D3C00A407E8D490F83C40012CD4D00468266841
:103D4C00F6075EBF266846F001062660266826F454
:103D5C0000662660212680F83D60102680F83E60C3
:103D6C00002606644385438DC56241640385036B5D
:103D7C0042620093009B112B05D1B5F52A0F02D09E
:103D8C00B5F12A4F03D1236843F4807323600023D9
:103D9C0080F83C306268184642F4E0626260A3E747
:103DAC006800002073B500240094019490F83D4005
:103DBC00069D202C02D0022002B070BD082D01D02F
:103DCC00012D1FD146F2A816384C2468B4FBF6F628
:103DDC00192474430194019C013C0194019C6CB91D
:103DEC002023046380F83D3080F83E40036C80F85B
:103DFC003C4043F0200303640120DDE70468A46920
:103E0C00A407E8D490F83C40012CD4D0012480F8CD
:103E1C003C4004682668F6075EBF266846F001063B
:103E2C002660266826F400662660222680F83D600F
:103E3C00102680F83E60002606644385438DC562DB
:103E4C0041640385036B42620093438D9BB2022B4A
:103E5C0025D1202D01D0102D21D1009B122B2368B0
:103E6C001ED14FF4407123F480632360236843F424
:103E7C0000632360009B122B05D1B5F52A0F02D0ED
:103E8C00B5F12A4F03D1236843F4807323600023D8
:103E9C0080F83C30626818460A4362608CE72368FD
:103EAC0043F480634FF4E0612360E3E76800002093
:103EBC0037B590F83D4004F02804282C31D1002966
:103ECC002DD0002A2BD090F83C40012C29D005682D
:103EDC002C68E4075EBF2C6844F001042C602C684D
:103EEC0024F400642C60292480F83D40202480F8C0
:103EFC003E40002404644285428DC36201946B6988
:103F0C0041620193AB69028580F83C4020460193E5
:103F1C00019B6B6843F4E0636B6003B030BD012020
:103F2C00FBE70220F9E737B590F83D4004F0280490
:103F3C00282C31D100292DD0002A2BD090F83C40D0
:103F4C00012C29D005682C68E4075EBF2C6844F06E
:103F5C0001042C602C6824F400642C602A2480F862
:103F6C003D40202480F83E40002404644285428D6C
:103F7C00C36201946B6941620193AB69028580F85D
:103F8C003C4020460193019B6B6843F4E0636B60FB
:103F9C0003B030BD0120FBE70220F9E790F83D307B
:103FAC00202B14D1282380F83D30036800201A6898
:103FBC00D2075EBF1A6842F001021A601A6842F416
:103FCC0080621A605A6842F440725A60704702204C
:103FDC00704770477047704770477047002370B543
:103FEC00406A026890F83D101468466B856B24F4A7
:103FFC008064B362AB62146043851468736324F00D
:10400C0001046B63146090F83D40C9B2602C08D178
:10401C00202280F83D2080F83E300364FFF7DDFF5E
:10402C0070BD01F0280128290DD1146844F0010459
:10403C001460146844F480641460036380F83D10C9
:10404C00FEF7E6F8ECE7202280F83D2080F83E30C1
:10405C00F6E7000010B590F83D2090F83E100446AD
:10406C0010290368D2B212D1222A10D1196821F476
:10407C00006119605968090504D4602A1CBF20220C
:10408C0084F83D200022226384F83E2007E002F0F1
:10409C0028012829EED10022226384F83D105A68A9
:1040AC0012F400624CD05A68606B22F400625A60C1
:1040BC0090F82130012B364B28D04363FFF736FCA8
:1040CC0050B12268606B136823F001031360202346
:1040DC0084F83D30436B984794F83D30226CDBB24A
:1040EC00520712D5282B10D122682046536823F48E
:1040FC00E0635360274B2022E3620023236384F8A0
:10410C003D2084F83E30FEF757F810BDA06B43639A
:10411C00FFF70CFC0028DFD023685A69520605D53E
:10412C001A69636A1A70636A013363622268A06B4E
:10413C00136823F001031360202384F83D30C9E792
:10414C0094F83D10602915D1202184F83D1022648B
:10415C005A69500605D51A69636A1A70636A013385
:10416C00636222682046136823F001031360FFF793
:10417C0034FFB1E75A69510605D51A69636A1A709A
:10418C00636A013363622046FEF742F8A4E700BF7E
:10419C00E93F00080000FFFF70B5036804465A6849
:1041AC00C16A90F83E5090F83D00102D8CB0EEB2E4
:1041BC00C0B202D0402E40F0B7829D695869C60744
:1041CC0007D4B1F52A0F02D0B1F12A4F52D10CB05D
:1041DC0070BD91054ED5E26AB2F52A0F0CD10122C1
:1041EC00E26294F83E20402A11D1226D52B9626CE1
:1041FC0002F0FE021A61EAE7E26AB2F12A4FF0D14C
:10420C000822EDE7626C42F00102D2B2F2E72269B9
:10421C00B2F5804F1BD194F83D20212A626C12D14B
:10422C0002F0FE021A61626B12B9A16B0029CED0AA
:10423C00926A1AB9A26B926A002AC8D05A6842F4E0
:10424C0000625A60C3E742F00102D2B2EAE7226D83
:10425C0032B9626CD21102F0060242F0F002C9E7E8
:10426C00226D012AB3D1626CD21102F0060242F027
:10427C00F102BFE7060703D5910501D5626CE4E7AF
:10428C00860740F1E680910540F1E38094F83E10FA
:10429C00E26A256B94F83D00C9B2222840F0D18027
:1042AC00206D40B9402906D100905A6900929B6953
:1042BC000093009B8BE7216D81B92069B0F5404FCD
:1042CC000CD101915A6901929A690192019A1A686A
:1042DC0042F480721A60236D013328E0618D89B23B
:1042EC0051B902915A6902929A690292029A1A6819
:1042FC0042F400721A6019E0618D89B201294AD129
:10430C0012F5803F1CD11A6822F480621A605A6838
:10431C0012F400620DD01A6822F480621A60002236
:10432C0003925A6903929B690393039B00232365B1
:10433C004DE704925A6904929A690492049AD6E75A
:10434C00082A1CD0202A1AD0122D0DD1012A16D1E0
:10435C001A6822F480621A60002205925A6905924A
:10436C009B690593059BE1E7102AF1D88F4921FA47
:10437C0002F2D607ECD51A6842F48062EBE71A68B1
:10438C0022F480621A60002206925A6906929A6997
:10439C000692069AABE7618D89B2022933D1102AB5
:1043AC0005D88249D140C94311F0010120D01968C8
:1043BC0041F40061196000210791596907919969CD
:1043CC0007910799196821F48061196059680D05E6
:1043DC00ACD512F5803F06D0511E1F29A6D8744AC1
:1043EC00CA40D007A2D55A6842F480525A609DE761
:1043FC00186840F4806018600891596908919969AF
:10440C0008910899E2E7196841F4806119605968CC
:10441C0009050ED512F5803F07D0013A1F2A08D89E
:10442C00634921FA02F2D60703D55A6842F4805246
:10443C005A60002209925A6909929B690993099B57
:10444C0074E700220A925A690A929B690A930A9BA2
:10445C00BDE66D07596840F1AD800E053FF5B7AE6E
:10446C000506C0F3800169D5500567D5002968D1D0
:10447C0094F83D20258D94F83E10D2B2E06AC9B272
:10448C00C5B9212A18D1082878D0202876D010F563
:10449C00803F73D05A6822F4E0625A601123236380
:1044AC00002384F83E302023204684F83D30FFF76B
:1044BC0090FD8CE6212A05D040297FF488AE222A73
:1044CC007FF485AE628D92B21AB95A6822F480627A
:1044DC00B7E694F83E20402A26D1226D62B9E26CF0
:1044EC00012AA26C04D1D2B21A61236D02331EE7E9
:1044FC00C2F307221A61EEE6226D012A02D1A26CE8
:10450C00D2B2F7E7226D022A7FF461AE94F83D2017
:10451C00222A04D11A6842F480721A6057E694F881
:10452C003D20212A7FF453AE626A12F8011B1961F7
:10453C006262638D013B9BB2638548E600293FF4C0
:10454C0046AE92057FF543AEE16A94F83D20212AF0
:10455C007FF43DAE628D92B2002AE5D108290DD0D0
:10456C0020290BD011F5803F08D0596821F4E06167
:10457C0059601123236384F83E2094E75A6820463F
:10458C0022F4E0625A601A6842F400721A60002346
:10459C002022236384F83D2094F83E2084F83E309A
:1045AC00402A84D1FFF717FD11E600BF140001006B
:1045BC00818000800E053FF50AAE4506C0F38001F0
:1045CC0048D5500546D5002947D194F83D20222ADC
:1045DC007FF4FDAD628D92B2032A14D91A69636A15
:1045EC001A70636A01336362638D013B9BB263850E
:1045FC00638D9BB2032B7FF4EAAD2268536823F4DE
:10460C0080635360E3E5E06A02283FF4E0AD012AE1
:10461C003FF6DDAD1A6822F480621A605A6822F403
:10462C00E0625A601A69636A1A70636A01336362E2
:10463C00638D013B9BB26385202384F83D3094F855
:10464C003E3084F83E10402B68D121632046FFF7A2
:10465C00C3FCBCE500293FF4BAAD92057FF5B7ADBC
:10466C00E26A608D616A80B2042809D15A6822F42A
:10467C0080625A601B690B70636A0133636258E78E
:10468C00608D80B203280CD15868042A20F4806015
:10469C005860EFD0022AEDD01A6822F480621A60BA
:1046AC00E8E7608D80B20228E4D1012A01D0102AFB
:1046BC0028D11A6822F480621A601B690B70626A36
:1046CC00531C6362638D013B9BB2638523681B693A
:1046DC005370636A226801336362638D013B9BB242
:1046EC006385536823F440735360202384F83D3072
:1046FC0094F83E30402B4FF0000384F83E300DD13F
:10470C002363A3E7042A01D0022A03D11A6842F4D6
:10471C008062D1E71A6842F40072CDE7122320467A
:10472C002363FFF757FC52E5216C11B3002559693F
:10473C008E0728D5960526D5226C02B19D6994F872
:10474C003D2002F02802282A16D15A686FEA9501FA
:10475C0022F480625A602B064FF00003204654BFAF
:10476C00A289228B01F0010184F83C30FDF701FD98
:10477C002DE59D695969DBE76FF002025A61002350
:10478C0084F83C3023E5CE0640F1B180950540F12C
:10479C00AE8094F83D505A68EDB222F4E0625A6053
:1047AC0000220B925A690B921A6842F001021A60AD
:1047BC000B9A1A6822F480621A605A68120520D586
:1047CC0005F0F702222A4AD1A06B0268526892B215
:1047DC006285628D92B21AB1226C42F0040222649C
:1047EC005A6822F400625A60FFF7E6F8012808D0F4
:1047FC00A06B794B4363FFF799F810B1A06B436B37
:10480C009847638D9BB213B323685A69560709D531
:10481C001A69636A1A70636A01336362638D013BC0
:10482C009BB2638523685A69500609D51A69636A75
:10483C001A70636A01336362638D013B9BB26385BB
:10484C00638D9BB21BB1236C43F004032364236C74
:10485C0013B320460CB0BDE87040FFF7FBBB606B98
:10486C000268526892B26285628D92B21AB1226C61
:10487C0042F0040222645A6822F400625A60FFF784
:10488C009BF80128BDD0606B534B4363FFF74EF888
:10489C000028B6D0606BB2E72A2D06D123632823FB
:1048AC00204684F83D30FDF79DFC94F83D30282BD4
:1048BC000CD14A4B2022E36200232046236384F868
:1048CC003D2084F83E30FDF777FC80E4236B222BEF
:1048DC0002D0222D7FF47BAC00232022236384F8AA
:1048EC003D2084F83E302046FDF77CFC6FE400F060
:1048FC00F7002128C1F3800535D1090627D55605C7
:10490C0025D53DBB94F83D10628DC9B292B2002AF8
:10491C003FF45DAC626A12F8015B1D616262628DEC
:10492C00013A92B26285628D92B2002A7FF44FAC4A
:10493C0029297FF44CAC5A6822F480625A602823EF
:10494C002063204684F83D30FDF75EFC3FE4002DEB
:10495C003FF43DAC95057FF53AAC628D92B2002ADE
:10496C003FF435ACE0E5480627D5510525D53DBBD0
:10497C0094F83D20618DD2B289B200293FF427AC66
:10498C001969636A1970636A01336362638D013B51
:10499C009BB26385638D9BB2002B7FF418AC2A2AE3
:1049AC007FF415AC2268536823F480635360222390
:1049BC002363282384F83D3095E7002D3FF407ACA2
:1049CC0092057FF504AC628D92B2002A3FF4FFABE6
:1049DC001A69636A1A704FE6E93F00080000FFFF8E
:1049EC00F8B5036804465F695E68FA05C7F30025ED
:1049FC000BD5F005C6F3002507D56FF480720125A1
:104A0C005A611A6842F400421A60B90506D5F205DB
:104A1C0042BF6FF4007245F002055A61780537D534
:104A2C00F10535D594F83EC0618D94F83D20BCF16C
:104A3C00200F206B89B2D2B25AD1002958D102F082
:104A4C00F701212903D0282A52D1212850D194F8DA
:104A5C003D20E16AD2B2082901D020292AD1282A86
:104A6C0028D12C4A2046E2625A6822F4E0625A604D
:104A7C006FF480625A611A6822F480621A60002313
:104A8C002022236384F83D2084F83E30FDF794FB0C
:104A9C003A053BD5F30539D56FF40062236845F030
:104AAC0008055A61236C20461D432564BDE8F84077
:104ABC00FFF7D0BA212A17D116492046E1622263AA
:104ACC00202284F83D20002284F83E205A6822F4EB
:104ADC00E0625A606FF480625A611A6822F4806254
:104AEC001A60FDF791FBD3E76FF480625A61CFE750
:104AFC006FF480625A6194F83E2045F00405102A48
:104B0C0002BF1A6842F400721A60C1E7002DC9D1C5
:104B1C00F8BD00BF0000FFFF90F83D007047006C2F
:104B2C00704700002DE9F341054638B30368DB07F5
:104B3C0010D42B689F075ED42B68190700F1958061
:104B4C002B685A0700F1BF80E869002840F02C81DF
:104B5C00002029E08F4C636803F00C03042B07D072
:104B6C00636803F00C03082B0AD16368DE0307D5D6
:104B7C0023689C03DDD56B68002BDAD1012013E090
:104B8C006B68B3F5803F12D1236843F48033236004
:104B9C00FEF7F8FA064623689803CAD4FEF7F2FA31
:104BAC00801B6428F7D9032002B0BDE8F0819BB9C3
:104BBC00236823F480332360236823F48023236049
:104BCC00FEF7E0FA064623689903B2D5FEF7DAFA47
:104BDC00801B6428F7D9E6E7B3F5A02F236803D12F
:104BEC0043F480232360CFE723F4803323602368CE
:104BFC0023F48023CBE7674C636813F00C0F07D0CA
:104C0C00636803F00C03082B10D16368DA030DD42E
:104C1C0023689B0702D52B69012BAFD123686A69E6
:104C2C0023F0F80343EAC203236085E72A695A4B51
:104C3C006AB101221A60FEF7A5FA064623689F079F
:104C4C00ECD4FEF79FFA801B0228F7D9ABE71A6069
:104C5C00FEF798FA0646236898077FF56DAFFEF7C6
:104C6C0091FA801B0228F6D99DE7AA69494E4B4B55
:104C7C00DAB101221A60FEF785FA0446736A9B07C3
:104C8C000DD54FF4FA52464B1B68B3FBF2F301936C
:104C9C0000BF019B5A1E0192002BF9D150E7FEF781
:104CAC0071FA001B0228E9D97DE71A60FEF76AFA4F
:104CBC000446736A9F077FF543AFFEF763FA001B48
:104CCC000228F6D96FE7334CE369D80024D40127C6
:104CDC00E36943F08053E361E36903F0805300938D
:104CEC00009B304E3368D90518D5EB68012B26D1C3
:104CFC00236A43F001032362FEF744FA41F2883839
:104D0C000646236A9B073FD5002F3FF41DAFE3698E
:104D1C0023F08053E36117E70027E2E7336843F49D
:104D2C0080733360FEF72EFA80463368DA05DCD4E4
:104D3C00FEF728FAA0EB08006428F6D933E7ABB9E4
:104D4C00236A41F2883823F001032362236A23F09B
:104D5C0004032362FEF716FA0646236A9807D3D596
:104D6C00FEF710FA801B4045F7D91CE7052B236A88
:104D7C0003D143F004032362BAE723F00103236257
:104D8C00236A23F00403B6E7FEF7FCF9801B4045C9
:104D9C00B7D908E7001002400000424280044242AA
:104DAC0068000020007000402A4B5A681C4602F034
:104DBC000C02082A3DD00023274E022833602BD149
:104DCC00FEF7E0F90746236899011FD42B6AB3F567
:104DDC00803F05D16268A96822F400320A43626000
:104DEC00696A62680B4322F47412134363600123F3
:104DFC003360FEF7C7F9054623689A013FF5A8AE64
:104E0C00FEF7C0F9401B0228F6D9CCE6FEF7BAF93A
:104E1C00C01B0228D7D9C6E6FEF7B4F905462368AD
:104E2C009B017FF595AEFEF7ADF9401B0228F6D934
:104E3C00B9E601283FF4B8AE5B682A6A03F4803106
:104E4C0091427FF49BAE6A6A03F4701393423FF471
:104E5C007FAE93E6001002406000424230B5184B22
:104E6C0087B002AC03F11005224618685968083364
:104E7C0003C2AB421446F7D140F201231149ADF8FD
:104E8C0004304B6803F00C02082A17D1C3F3834299
:104E9C0006A80244DB0312F8102C0CD54B680A4808
:104EAC00C3F34043504306AA134413F8143CB0FB1D
:104EBC00F3F007B030BD05485043FAE70248F8E775
:104ECC00BC7700080010024000127A0000093D0077
:104EDC002DE9F0410D46044610B90120BDE8F081E2
:104EEC00444A136803F007038B4228D321688E07CA
:104EFC0030D4CA0743D43F4A136803F00703AB42CC
:104F0C0065D822683C4D12F0040F6CD1130706D5FE
:104F1C006B68226923F4605343EAC2036B60FFF7AA
:104F2C009DFF6B68354AC3F30313D35CD840344BF5
:104F3C001860344B1868FEF7E3F80020CEE71368CE
:104F4C0023F007030B431360136803F007038B4232
:104F5C00C3D1CBE7284B11F0040F1EBF5A6842F4A3
:104F6C00E0625A60080742BF5A6842F460525A60C5
:104F7C005A68A06822F0F00202435A60B9E76268EE
:104F8C001D4E012A33681AD113F4003FA5D0736863
:104F9C0041F2883823F0030313437360FEF7F2F8F1
:104FAC0007467368626803F00C03B3EB820FA2D060
:104FBC00FEF7E8F8C01B4045F3D903208EE7022A20
:104FCC0002D113F0007FE1E713F0020FDEE7136864
:104FDC0023F007032B431360136803F00703AB4262
:104FEC007FF47BAF8DE76B68E16823F4E0630B43E0
:104FFC006B608BE7002002400010024084780008B0
:10500C006800002050000020044B054A5B68C3F385
:10501C000223D35C034A1068D8407047001002404A
:10502C009478000868000020044B054A5B68C3F3C1
:10503C00C223D35C034A1068D8407047001002406A
:10504C00947800086800002003682DE9F341D90723
:10505C00054620D5354CE369DA0032D40127E369E3
:10506C0043F08053E361E36903F080530193019BA8
:10507C002F4E3368DB0526D5236A13F4407336D1E3
:10508C00236A6A6823F44073134323621FB1E369F4
:10509C0023F08053E3612868830706D52349AB6866
:1050AC004A6822F440421A434A6010F010001BD0A8
:1050BC001E4AE9685368002023F480030B435360B5
:1050CC0012E00027D4E7336843F480733360FEF7B3
:1050DC0059F880463368D805CED4FEF753F8A0EBC8
:1050EC0008006428F6D9032002B0BDE8F0816A6894
:1050FC0002F440729A42C3D001200E4A236A106017
:10510C00002023F4407110602162D907B8D5FEF756
:10511C0039F841F288380646236A9A07B0D4FEF76C
:10512C0031F8801B4045F7D9DDE700BF0010024085
:10513C000070004040044242024670B5344B86B0C9
:10514C0002AD03F110062C4618685968083303C4E5
:10515C00B3422546F7D140F20123022AADF80430C0
:10516C0049D0102A03D0012A26D0002038E0294B40
:10517C005968186810F0807032D0C1F3834206A8C9
:10518C00024412F8100CCA0341BF5A6806A9C2F3B4
:10519C004042521844BF12F8141C1F4A5B684CBFA3
:1051AC00B2FBF1F21D4A5B0202FB00F018D40323A0
:1051BC004000B0FBF3F013E040F20231154A136AE1
:1051CC001940B1F5817F1FD003F44073B3F5007F14
:1051DC0008D149F64043506A10F0020018BF184637
:1051EC0006B070BDB3F5407FBFD110684FF22443B9
:1051FC0010F40030F2E7FFF717FF064B5B68C3F3C0
:10520C00813301335B00D4E74FF40040E8E700BF83
:10521C00BC7700080010024000127A0000093D0023
:10522C00036810B51A680446920708D55B689B079B
:10523C0005D500F0E7FE6FF0020223685A604FF4C8
:10524C000032024B5A610123637410BD000401400B
:10525C00F8B504460E4615461F462268936836EA92
:10526C00030301D000202DE06B1CF7D0FDF78AFF63
:10527C00C01B8542F1D823685A6822F0E0025A60BC
:10528C006268B2F5827F0AD1A268B2F5004F02D0F3
:10529C00B2F5806F03D11A6822F040021A60A26A3C
:1052AC00B2F5005F07D11A6822F400521A601A682E
:1052BC0042F400521A60012384F851300023032079
:1052CC0084F85030F8BD10B513460A4680210446C8
:1052DC00FFF7BEFF20B10320636D43F0200363652D
:1052EC0010BD704710B50446002834D000238362EB
:1052FC0090F8513003F0FF021BB980F85020FFF7F3
:10530C00F0FF0223226884F851301368A16923F05E
:10531C0040031360D4E901300343E0680343206980
:10532C00034360690343E0690343206A0343A06AB3
:10533C00034301F40070090C034301F004011360F2
:10534C005160D369002023F40063D36101236065AD
:10535C0084F8513010BD0120FCE72DE9F7431E46BF
:10536C0090F850300446012B0D469146DDF828800C
:10537C0000F0E080012380F85030FDF703FF94F833
:10538C0051300746012B6268D9B20AD0B2F5827F40
:10539C0040F0CE80A368002B40F0CA80042940F076
:1053AC00C780002D3FD0B9F1000F3CD0002E3AD071
:1053BC0094F85130C4F83890042B1CBF052384F8A2
:1053CC00513000236365C4E910332368E687E68611
:1053DC001968A687490658BF1968256358BF41F05C
:1053EC004001A68658BF1960E168B1F5006F51D134
:1053FC000AB1012E07D135F8022BDA60E38E256352
:10540C00013B9BB2E3860125E38E9BB26BB9E38F24
:10541C009BB253B93A4641462046FFF754FF002849
:10542C007BD02023636501202BE021688B689A07D1
:10543C000DD5E38E9BB253B14DB10025236B33F8E0
:10544C00022BCA602363E38E013B9BB2E3868A681E
:10545C0012F001020CD0E38F9BB24BB11546C96818
:10546C00A36B23F8021BA363E38F013B9BB2E3877F
:10547C00FDF788FEC01B4045C6D3B8F1FF3FC3D033
:10548C000320012384F85130002384F8503003B0FA
:10549C00BDE8F0830AB1012E08D12A781A73236B68
:1054AC0001332363E38E013B9BB2E3860125E38E3C
:1054BC009BB21BB9E38F9BB2002BABD022689368D5
:1054CC009B070ED5E38E9BB25BB155B10025236BC8
:1054DC001B781373236B01332363E38E013B9BB265
:1054EC00E3862268916811F001010DD0E38F9BB225
:1054FC0053B10D46D268A36B1A70A36B0133A3632F
:10550C00E38F013B9BB2E387FDF73CFEC01B40459C
:10551C00CDD3B8F1FF3FCAD0B2E7A368002BB0D10E
:10552C0023680190DA6801929B680193019BA8E7BC
:10553C000220A6E70220AAE770477047036810B55F
:10554C001A69044691070ED5DA6892070BD56FF0ED
:10555C0002021A61012202779B699B0777D001F046
:10556C00D1FB0023237723681A69500710D5DA681A
:10557C0051070DD56FF004021A61022222779B6944
:10558C00204613F4407F68D001F0BCFB0023237746
:10559C0023681A6912070FD5DA6810070CD56FF05B
:1055AC0008021A6104222277DB69204699075AD037
:1055BC0001F0A8FB0023237723681A69D20610D5C3
:1055CC00DA68D0060DD56FF010021A610822227726
:1055DC00DB69204613F4407F4BD001F093FB002392
:1055EC00237723681A69D10708D5DA68D20705D55D
:1055FC006FF0010220461A6101F088FB23681A69DA
:10560C00100608D5DA68110605D56FF08002204621
:10561C001A6100F088F823681A69520608D5DA680E
:10562C00500605D56FF0400220461A61FFF785FF42
:10563C0023681A69910622D5DA6892061FD56FF095
:10564C0020022046BDE810401A6100F06BB801F052
:10565C005BFB2046FFF770FF83E701F055FB20460C
:10566C00FFF76AFF92E701F04FFB2046FFF764FF5C
:10567C00A0E701F049FB2046FFF75EFFAFE710BD46
:10568C001A4A036890420AD0B0F1804F07D0A2F5B5
:10569C009432904203D002F58062904215D14A6850
:1056AC0023F070031343114A90420AD0B0F1804F9B
:1056BC0007D0A2F59432904203D002F5806290425A
:1056CC0003D1CA6823F4407313434A6923F080035F
:1056DC00134303608B68C3620B688362034B98426D
:1056EC0004BF0B690363012343617047002C014025
:1056FC0010B50446A0B190F83D3003F0FF021BB981
:10570C0080F83C2000F078FD0223206884F83D30BE
:10571C00211DFFF7B5FF0123002084F83D3010BD9B
:10572C000120FCE7704770470368DA6822F4907236
:10573C00DA605A6922F001025A61202380F83A306B
:10574C00704790F83930202B18D1A9B1A2B190F83C
:10575C003830012B12D0C2840023828421220162B2
:10576C000168C36380F8383080F83920CA6818465D
:10577C0042F08002CA6070470120704702207047D7
:10578C0090F83A30202B20D1E9B1E2B190F83830C2
:10579C00012B1AD0C285828500232222C36380F894
:1057AC003A20026880F838308162D168184641F49A
:1057BC008071D160516941F001015161D16841F0B2
:1057CC002001D1607047012070470220704710B54E
:1057DC0090F83A30222B33D181680469B1F5805F9F
:1057EC00836A026823D15268ECB9C2F3080223F829
:1057FC00022B8362C48D013CA4B2C4858CB90368AE
:10580C00DA6822F02002DA60DA6822F48072DA6058
:10581C005A6922F001025A61202380F83A3000F0D4
:10582C007BFD00200DE0D2B223F8012BE1E7591CDF
:10583C00526881620CB91A70DCE702F07F02FAE759
:10584C00022010BD036870B51A6804461607D968A3
:10585C005D6907D1960659D58D0657D5BDE87040C0
:10586C00FFF7B5BF05F0010001F4907505434DD06D
:10587C00D60705D5CD0542BFE36B43F00103E363C7
:10588C00530704D518B1E36B43F00203E3639607A7
:10589C0004D518B1E36B43F00403E363150704D597
:1058AC0018B1E36B43F00803E363E36B4BB390066F
:1058BC0004D5890602D52046FFF789FF23682046C8
:1058CC005B69E56B03F0400305F008051D4319D037
:1058DC00FFF72AFF23685A6952060FD55A69606B85
:1058EC0022F040025A6148B1254B4363FEF71EF883
:1058FC0038B1606BBDE87040436B1847204600F030
:10590C0021FD70BD00F01EFDE563FAE7160628D5F3
:10591C000D0626D594F83920212AF2D1A168226AE5
:10592C00B1F5805F18D11188C1F308015960216964
:10593C0081B902322262E28C013A92B2E284002AEC
:10594C00DFD1DA6822F08002DA60DA6842F04002D5
:10595C00DA60D6E70132EDE7511C216212785A6009
:10596C00E9E75006CDD54A06CBD5DA68204622F0B9
:10597C004002DA60202384F8393000F0D0FCC0E714
:10598C009159000808B50023406AC385C38400F010
:10599C00D9FC08BD90F83830012B11D024230268B3
:1059AC0080F83930D36823F00C0343F00803D3603C
:1059BC00202380F83930002380F83830184670479F
:1059CC000220704790F83830012B11D02423026844
:1059DC0080F83930D36823F00C0343F00403D36010
:1059EC00202380F83930002380F83830184670476F
:1059FC000220704790F8392090F83A001043704715
:105A0C0086B0042841D8DFE800F003101C283400CD
:105A1C001F4B20489A6942F004029A619B6903F07B
:105A2C0004030193019B06B07047194B1A489A69FD
:105A3C0042F008029A619B6903F008030293029BEF
:105A4C00F1E7134B15489A6942F010029A619B6971
:105A5C0003F010030393039BE5E70D4B10489A6981
:105A6C0042F020029A619B6903F020030493049B8B
:105A7C00D9E7074B0B489A6942F040029A619B693F
:105A8C0003F040030593059BCDE70020CBE700BF57
:105A9C000010024000080140000C014000100140C1
:105AAC00001401400018014037B50D4D2B68FDF76F
:105ABC0069FB6C68AB680134E31A01932B68DB0358
:105ACC0004D5FDF75FFBAB68E31A01934FF47A72D0
